:100000000C944F040C9477040C9477040C947704AC
:100010000C9477040C9477040C9477040C94770474
:100020000C9477040C9477040C9489130C94E013CB
:100030000C9477040C9477040C9477040C94770454
:100040000C9477040C9477040C9477040C94770444
:100050000C94A6120C9477040C9477040C945C1204
:100060000C9477040C9477040C9477040C94770424
:100070000C9477040C94CD120C9477040C947704B0
:100080000C9477040C9477040C9477040C94770404
:100090000C9477040C9477040C9477040C947704F4
:1000A0000C9477040C9477040C94770404030904EB
:1000B00012010002EF020140D80487EE00010102A4
:1000C00003014D6F77727920537472696E676564AE
:1000D00020496E737472756D656E7473005741526A
:1000E000424C004A4A4A4A4A4A4A4A4A4A4A4A4AC0
:1000F0004A4A49484848484848484845454545438C
:1001000043413E4949494949494949494949494978
:10011000494949494949494949494949494949494F
:10012000494949484848484848484848484848484C
:10013000484848484848484848484848484848483F
:10014000484A4A4746464646464646464646464644
:10015000464646474646464646464646464646463E
:100160004646464545454445444444454444444444
:10017000444444434343434242424241414141405B
:10018000403E3F3D3D3D3D3D3D3D3D3D3D3D3D3D99
:100190003D3D3D3C303C3C3C3C3C3C3C3C3C3C3CA8
:1001A0003C3C3C3B2F3B3B3B3B3B3B3B3B3B3B3BA8
:1001B0003B3B3B392D393939393939372B363735CE
:1001C0003534324444444444444444444444444420
:1001D00044444444444444444444444444444444DF
:1001E00044444443434343434343434343434343DC
:1001F0004343434141414141414141404040403FEF
:100200003F3E3C0000000000000000000000000035
:1002100000000000000000000000000000000000DE
:1002200000000000000000000000000000000000CE
:1002300000000000000000000000000000000000BE
:100240000000004646464646464646464646464620
:10025000464646464646464646464646464646463E
:10026000464646464646464646464646464646462E
:10027000464646464646464646464646464646461E
:10028000464646454545454545454545454545451B
:10029000454545454545454545454545454545450E
:1002A000454545444444444444444444444444440B
:1002B0004444444343434343434343424242424111
:1002C00041403E5E5E5E5E5E5E5E5E5E5E5E5E5EA9
:1002D0005E5E5E5E5E5B5E5D5D5A5A5C5C595C5B59
:1002E0005B585B595656595858555557575454569C
:1002F00056535341413E4140403D3D3F3F3C3C3ED3
:100300003E3B3B52524F5251514E4E50504D504F2A
:100310004F4C4F4646434645454242444441444380
:100320004340434D4D4A4D4C4C49494B4B48484A3C
:100330004A47473A3A373A39393636383835353711
:100340003734344B4A4A494A4949484A4949484955
:100350004848474A49494849484847494848474D15
:100360004C4C4B4A494948494847464E4D4D4C4DE7
:100370004C4C4B48474746474646454D4C4C4B4CEA
:100380004B4B4A49484847484746454847464547F2
:1003900046464548474746474646454746464546FA
:1003A00045454447464645464545444645454445FA
:1003B000444443454444434443434243424241410D
:1003C000403E3F4B4B4B4B4B4B4B4B4B4B4B4B4BA1
:1003D0004B4B4A636363636363636362626161603F
:1003E0005F5E5D55555555555555555D4B4B4949C6
:1003F0004949495C5C5C4A5C4A4A4A5B4A5A4A59E8
:1004000058575654545449494954545449494949F0
:10041000494949535353535353534B4B4B4B4B4BFA
:100420004B534B52525252525252525252525251BA
:1004300051515250505050505050504F4F4E4E4DC1
:100440004C4B4A4A4A4A4A4A4A4A4A4A4A4A4A4A09
:100450004A4A4A4A4A4A4A4A4A4A4A4A4A4A4A4AFC
:100460004A4A4A49494949494949494949494949F9
:100470004949494B4B4B4B4B4B4B494B4B4B4B4BD4
:100480004B4B4B48484848484848484848484848E3
:10049000484848474A4747474747474747474747E6
:1004A00047474746464646464646464546464645EB
:1004B0004546464444444444444444434342424100
:1004C000403F3E4B4B4B4B4B4B4B4B4B4B4B4B4BA0
:1004D0004B4B4A4B4B4B4B4B4B4B4B4B4B4B4B4B6D
:1004E0004B4B4B4B4B4B4B4B4B4B4B4B4B4B494960
:1004F000494949504A4A4A4A4A4A4A4F4A4E4A4D4D
:100500004A4B4A5454544949495454544949494915
:10051000494949535353535353534B4B4B4B4B4BF9
:100520004B534B52525252525252525252525251B9
:1005300051515250505050505050504F4F4E4E4DC0
:100540004C4B4A4A4A4A4A4A4A4A4A4A4A4A4A4A08
:100550004A4A4A4A4A4A4A4A4A4A4A4A4A4A4A4AFB
:100560004A4A4A49494949494949494949494949F8
:100570004949494B4B4B4B4B4B4B494B4B4B4B4BD3
:100580004B4B4B48484848484848484848484848E2
:10059000484848474A4747474747474747474747E5
:1005A00047474746464646464646464546464645EA
:1005B00045464644444444444444444343424241FF
:1005C000403F3E7F3C003E0140024203430445055C
:1005D0004706494B4A4A4A4A4A4A4A4A4A4A4A4AC2
:1005E0004A4A4A4A4A4A4A4A4A4A4A4A4A4A4A4A6B
:1005F0004A4A4A4A4A4A4A4A4A4A4A4A4A4A4A4B5A
:100600004A4A4A494A4A4A4A4A4A4A4A4A4A4A4A4B
:100610004A4A4A4949494949494949494949494947
:10062000494949494949494949494948484848483F
:100630004848484747474747474747474747474648
:1006400047463F4545454545454444434445434267
:1006500041403E4848484848484848484848484833
:10066000484848484848484848484848484848480A
:1006700048484848484848484848484848484848FA
:1006800048484848484848484848484848484848EA
:1006900048484947474747474747474747474747E6
:1006A00047474747474747474747474747464647DC
:1006B00047474745454545454545454545454545E4
:1006C00045454543434343434343434242414140FD
:1006D0003F3E3C490049024900490049004901495F
:1006E00000490049004900490049004900490049C2
:1006F00000490049004900490049004900490049B2
:1007000000490049004900490049004900490049A1
:100710000049004900490049004900490049004991
:100720000049004900490049004900490049004981
:100730000049004802480248004802480148014870
:100740000048014800480248004800480048014865
:10075000004900470047024700470247004701475A
:100760000047014600470046004700470047004752
:100770000047004700470047004700470047004741
:100780000047004700470047004700470047004731
:10079000004700450045024500450245004501452A
:1007A0000045014400450044004500450045004522
:1007B000004500430043024300430243004301431A
:1007C0000043014200420041004200400040003F1F
:1007D000003E0049004900490049004900490049DC
:1007E00000490049004900490049004900490049C1
:1007F00000490049004900490049004900490049B1
:1008000000480048024801480148014800480048A3
:10081000004A004702470147014701470047004798
:100820000047004700470047004700470047004691
:10083000004600450245014501450145004400458B
:100840000044004302430143014301420041004090
:10085000003E002B042B082B022B012B1028402BD1
:10086000802E4025102520254025802B40288025DE
:100870000825022504250131803140312031103115
:100880000231012B102B802510252025402B4007FD
:100890000605040100080A0B0C0D09001D2811248F
:1008A0001FBECFEFDAE0DEBFCDBF12E0A0E0B1E0C7
:1008B000EAE0F3E502C005900D92A838B107D9F738
:1008C00024E0A8E8B2E001C01D92AC3CB207E1F719
:1008D00014E0CFE4D4E004C02197FE010E947D29FA
:1008E000CE34D107C9F70E9482150C9483290C9449
:1008F0000000E3E9F8E0E49190917B008E2F880FEF
:10090000880F80729F7D892B80937B00E770E06465
:10091000E0937C0080917A00806480937A008091DB
:100920007A0086FDFCCF809178009091790008953F
:100930003FB7F8948091C8049091C904A091CA046B
:10094000B091CB0426B5A89B05C02F3F19F00196A6
:10095000A11DB11D3FBFBA2FA92F982F8827BC0119
:10096000CD01620F711D811D911D43E0660F771F40
:10097000881F991F4A95D1F708958F929F92AF9241
:10098000BF92CF92DF92EF92FF924B015C010E94E7
:1009900098046B017C010E9498046C197D098E09F2
:1009A0009F09683E734081059105A8F321E0821AF2
:1009B0009108A108B10888EEC80E83E0D81EE11C9A
:1009C000F11C81149104A104B10429F7FF90EF9068
:1009D000DF90CF90BF90AF909F908F9008952FB7EA
:1009E000F8946091C4047091C5048091C6049091FC
:1009F000C7042FBF08958091AE0281110DC082E01F
:100A00008093AA0284E08093AB021092AD02109210
:100A1000AC0281E08093AE028AEA92E0089590E011
:100A200080E0089580E008950895823108F08251B1
:100A3000E82FF0E0E157F74FE49190917B008E2F83
:100A4000880F880F80729F7D892B80937B00E770D1
:100A5000E064E0937C0080917A00886480937A005F
:100A600008959C012F5F3F4F28233923232B79F0D2
:100A700050E040E020E0181619063CF480FF242FD7
:100A8000959587954F5F5F4FF6CF822F08958FE73B
:100A90000895809132048D3F54F0E0916C04F0E0B1
:100AA000E955FD4F80818150808380933204089501
:100AB00080913204833054F4E0916C04F0E0E95505
:100AC000FD4F80818F5F8083809332040895CF92A1
:100AD000DF92EF92FF920F931F93CF93DF9340919A
:100AE000D50150E010915B040091C3012091850471
:100AF0003091860464E070E0601B7109C9E9D4E0BC
:100B0000EFE3F2E090E080E0012E02C036952795F9
:100B10000A94E2F721703327E990F9904E155F05AA
:100B20006CF518132BC0002349F121153105C1F4D0
:100B3000DC01AA0FBB1FA55FBB4FE41AF50ACD90DD
:100B4000DC90EC9CD001ED9CB00DFC9CB00D112410
:100B5000062E02C0B695A7950A94E2F7B183A0834A
:100B60000196329689309105B9F6DF91CF911F91A8
:100B70000F91FF90EF90DF90CF9008951182108237
:100B8000EFCFCF93DF93A0916C04B0E0AC51BE4F98
:100B90006C91613108F053C1EC01E62FF0E0ED52A9
:100BA000FA4F0C947D29E405070638067006E40523
:100BB00088069E06B10645061F070706BB06D60631
:100BC00097060107A6060C079C01369527953695D2
:100BD00027952F7330E0220F331FF901ED52F84FA4
:100BE000E4918E2F90E0643011F4C1FD01974091A3
:100BF0008504509186044C175D0731F4F901EC52DD
:100C0000F84FE491E0935C04DF91CF910895A091B7
:100C10008504B091860490FD09C08A179B0719F4DA
:100C200082E080935C048AE490E0EECFAC015695BC
:100C30004795242F2F7730E0220F331FF901ED5213
:100C4000F94FE4918E2F90E0CA17DB0731F4F901D8
:100C5000EC52F94FE491E0935C046A30A9F64D77C9
:100C6000483409F496C0483679F685E490E0CCCF54
:100C700090FFD9CFFC01F695E795EF77F0E0ED5ABC
:100C8000F94FE4918E2F90E0BFCF9C0136952795C8
:100C900080789170892BC1F4CC23B1F08CE490E082
:100CA0002C32310509F0B0CFE22FEF77F0E0ED52B2
:100CB000FA4FE4918E2F90E0D0FDA6CF2C32310573
:100CC00009F4A2CF0C96A0CF88E590E02A35310533
:100CD00009F49ACF86E590E02C34310529F794CFBA
:100CE00090FFA1CF9695879599270E94310530E016
:100CF00020E0F901ED53FA4FE4918E1304C0F9019D
:100D0000EC53FA4FBECF2E5F3F4F2231310589F7AA
:100D1000FE01F695E795FF27ED53FB4FE4918E2FEB
:100D200090E0009709F070CF8FEF9FEF6DCFFC013F
:100D3000F695E795FF27ED53FC4FF0CFFC01F695B4
:100D4000E795EF77F0E0ED5BFC4F9BCFFC01F6956C
:100D5000E795EF77F0E0ED53FD4F849190E0049636
:100D600053CF90FF16C0FC01F695E795EF77F0E0C2
:100D7000ED5BFD4F86CF90FD0FC044E096958795C3
:100D80004A95E1F70E9709F45BC088E490E0C7FD4F
:100D90003BCF87E490E038CF87FF67CFFC01F69523
:100DA000E795EF73F0E0ED53FE4F6BCFFC01F69546
:100DB000E795F695E795EF73F0E0ED57FE4FE49178
:100DC0008E2F90E0C1FF16C08F32910599F08433C9
:100DD000910581F08533910569F08633910551F0D5
:100DE0008B33910539F08C33910521F08D339105CA
:100DF00009F00196D0FF08CF823391050CF404CF9F
:100E000061CFFC01F695E795EF77F0E0ED5FFE4FDF
:100E1000E4918E2F90E0EECF9C0184E036952795EB
:100E20008A95E1F7C2FBEE27E0F9822F8871E82B63
:100E3000220F2670E22BF0E0ED51FF4F22CFE4CEDF
:100E400086E490E0E1CE8091A1028F5F8093A102C1
:100E50008091A102823011F42F9A08958091A1020D
:100E6000833069F480E18093810084E00E9415055D
:100E700081E0809300011092A0021092A1020895D7
:100E80000F931F93CF93DF931F92CDB7DEB71982D5
:100E90000E94FB04DC0112960D911C9101151105B5
:100EA00089F0D801ED91FC910280F381E02DBE0123
:100EB0006F5F7F4FC801099597FD04C0F801008559
:100EC0001185ECCF89810F90DF91CF911F910F9108
:100ED000089540918C0250918D0220918A023091A8
:100EE0008B0242175307B4F49091E8009570E1F338
:100EF0009091E80092FD19C08093F10080918C02DE
:100F000090918D0201968F739927892B19F48EEF9A
:100F10008093E80080918C0290918D0201969093CD
:100F20008D0280938C0281E0089580E00895EF9215
:100F3000FF920F931F93CF93DF93F82E192FE62E76
:100F4000042F81E0860F880F0E94690783E00E94CA
:100F50006907CF2DD12FEC0EFD2EF11CCE15DF052C
:100F6000B9F007FF13C0FE0184910E946907182F92
:100F700080E00E946907812321968111EFCFDF91E4
:100F8000CF911F910F91FF90EF9008958881EDCF41
:100F900081E0F5CFDF92EF92FF920F931F93CF93F3
:100FA000DF93D82E8A01EB017B01E40EF51ECE15EE
:100FB000DF0559F0D7FE12C0FE0184910E94690737
:100FC00021968111F4CF0FEF1FEFC801DF91CF9170
:100FD0001F910F91FF90EF90DF9008958881EECFE1
:100FE0000F931F93CF93DF93CDB7DEB7C456D109CC
:100FF0000FB6F894DEBF0FBECDBFFC01DB019C91A4
:101000009E5F9C939E01295F3F4F8AE5D9011D9207
:101010008A95E9F788E089838BE08A8322E02C8334
:1010200091E09D839E8339E0398764E06A879E87DB
:101030009F873A8B44E24B8B9C8BA0E0B1E0BE8B48
:10104000AD8B09E010E0188F0F8B998F3B8F6C8F61
:101050002F8F98A353E059A387E08CA34DA39EA3A1
:10106000B8A7AFA3A1E4B0E0BAA7A9A786E08BA771
:101070004CA72DA79EA79FA789AB4AAB2BAB2CAB48
:101080002DAB3FAB48AF59AF9AAF5BAF9CAF2DAF25
:101090009EAF21963FAF219722964FAF229723967E
:1010A0005FAF239724962FAF249725966FAF259790
:1010B00026969FAF269727969FAF279728969FAF94
:1010C00028972A963FAF2A9745E02B964FAF2B974C
:1010D0002D962FAF2D9760E470E02F967FAF6EAF07
:1010E0002F9763964FAF639785E264968FAF6497AF
:1010F00065969FAF659766969FAF669767969FAF19
:10110000679768963FAF689769964FAF69976B96F8
:101110002FAF6B976D967FAF6EAF6D97A1964FAF68
:10112000A197A2968FAFA297A3969FAFA397A496DD
:101130009FAFA497A5965FAFA59792819B839B874E
:101140009F5F9A8F9D8F83812C968FAF2C978F5F97
:1011500080686A968FAF6A9744E650E0BE016F5F81
:101160007F4F80E00E94CA07CC59DF4F0FB6F8943A
:10117000DEBF0FBECDBFDF91CF911F910F910895BC
:101180006F927F928F929F92AF92BF92CF92DF9297
:10119000EF92FF920F931F93CF93DF93E82E8B0173
:1011A0006A018091BB02882309F47FC08091B60256
:1011B00080FF05C08091E00082608093E000CC2D2C
:1011C000DD2DF12C8AEFB82E2E2D2770922E90E473
:1011D000892E8E2D8072782E2E2D2074622E2AE379
:1011E000A22E209719F4FF2009F463C09FB7F8944A
:1011F0009092E9008091E80085FD0CC09FBFBA94F1
:10120000BB2009F452C061E070E080E090E00E94F1
:10121000BD04E7CF8091F200282D281B822F9FBFAD
:10122000222369F32C171D0611F00CF08C2F9FB7A9
:10123000F8949092E9002091E80025FD02C09FBF3C
:10124000D0CF282F30E0C21BD30B772029F081505C
:10125000A0F01092F100FBCFF801E7FC0AC081502A
:1012600050F041914093F100FACF44914093F10046
:1012700031968150D0F7020F131FFF2021F0A0926A
:10128000E800F12CDCCF8091E80085FD07C0A0923A
:10129000E800FF24F394209791F2F3CF209779F69A
:1012A000662069F2A092E800CACFCC24CA94DD245B
:1012B000DA94C601DF91CF911F910F91FF90EF90CB
:1012C000DF90CF90BF90AF909F908F907F906F9066
:1012D0000895CF93DF9300D000D0CDB7DEB7615033
:1012E000F894E82FF0E094E0F595E7959A95E1F70A
:1012F000E9836F70862B8A834F774B832F772C83FC
:101300008091D30344E050E0BE016F5F7F4F8F5F59
:101310000E94C0088091D3038F5F8093E900809181
:10132000F200882319F08AE38093E80078940F9004
:101330000F900F900F90DF91CF91089510925D0460
:10134000E0916C0485E1E89FF0011124E951FE4F22
:101350008685813051F018F0823061F0089521893E
:101360004089678580E90C946909218940896785EE
:1013700080E8F9CF21894089678580EBF4CF81E04F
:1013800080935D04E0916C0485E1E89FF0011124F5
:10139000E951FE4F8285813051F018F0823061F0C2
:1013A000089525854485638580E90C946909258520
:1013B0004485638580E8F9CF25854485638580EB86
:1013C000F4CF8F929F92AF92BF92CF92DF92EF9223
:1013D000FF920F931F93CF93DF93C0916C04D0E0E3
:1013E000CE01880F991FFC01E35FFE4F2081318100
:1013F0003093D2012093D101FE01E955FD4F2081A8
:1014000020933204FE01E85CFE4F208120933104DA
:10141000FE01E85BFE4F808080928204FE01EC5367
:10142000FC4FA08021E0A11001C020E02093A60283
:10143000FC01E953FC4FE080F180F092A502E092BC
:10144000A402FE01EF5BFE4FB080B092D501855C37
:101450009E4FDC01CD90DC90D092D701C092D60196
:10146000FE01EB5BFE4F80818093E3018E0163E020
:10147000000F111F6A95E1F7F801E95DFD4F8081CA
:101480009CE09C9FF0019D9FF00D1124ED5EFE4FAE
:10149000B6E08B9FE00DF11D112490809092030126
:1014A00081818093CA0182818093C5018381809369
:1014B000C401848190E09093C9018093C801858123
:1014C00090E09093C7018093C6018FEF9FE19093C6
:1014D000D4018093D30110923404109233042FE38B
:1014E0004FE761E080EE0E946909EFE3F2E0A7E7D1
:1014F000B4E0119211921D9222E0E135F207C9F792
:10150000F801E95DFD4F8481882309F48EC082E0F3
:10151000881609F48AC081E080936B04F801E95DC4
:10152000FD4F8781882309F483C08FE78093E20110
:10153000A11080C08091B9029091BA020396909355
:10154000CE018093CD01A4E09A9EC0011124209188
:10155000CD013091CE01820F931F9093D0018093E3
:10156000CF0123E0CC0CDD1C2A95E1F7E5E3F4E0A4
:101570003BE0832E34E0932E49E4E42E44E0F42E45
:101580000EEC1FEF0B19110958EFA52EBB24BA94CE
:1015900021913191200F311FC501B9010E946929A4
:1015A00076956795D4016D937D934D01C601B90180
:1015B0000E94692976956795D7016D937D937D018A
:1015C000B4E0E734FB0721F785E18C9FF0018D9FA4
:1015D000F00D1124E951FE4F868128E0829FC00161
:1015E00011248C599F4F9093E1018093E001208555
:1015F00091E8299F900111243093D9012093D801BB
:101600008185899FC00111249093DB018093DA01C9
:10161000DF91CF911F910F91FF90EF90DF90CF90CE
:10162000BF90AF909F908F90089510926B0476CFEB
:1016300080E47CCF93E0E90EF11CF092CE01E092C1
:10164000CD0181CFE0916C04F0E0E85BFE4F80813A
:101650008F5F833099F080830E94E109209182049A
:1016600081E0820F8093550280916304882341F0CA
:101670002A5B46E667E080EB0C9469091082ECCFA8
:101680000895CF92DF92EF92FF920F931F93CF9323
:10169000DF9321E14EE667E080EB0E94690904EEEA
:1016A00011E038E3E32E31E0F32ECEE12C2F46E6B5
:1016B00067E080EB0E946909F80121918F012F5D9D
:1016C00046E667E080EB0E946909F70121917F01FE
:1016D00041E54C0F27FD43C167E080EB0E9469099B
:1016E000CF5FC13219F710916C042CE3210F46E64D
:1016F00067E080EB0E9469092091CE032B5A46E6F1
:1017000067E080EB0E9469092091D50147E667E018
:1017100080EB0E9469092091D6013091D701A4E69F
:10172000B0E00E94DF282FEF3FE140E050E00E9450
:10173000BD2845E767E080EB0E946909209182049B
:101740002A5B46E667E080EB0E9469092091E3018D
:10175000205B46E667E080EB0E9469092091650402
:10176000285846E667E080EB0E9469092091A602AE
:10177000295D4AE667E080EB0E94690922E248E6BB
:1017800067E080EB0E946909C091A402D091A50294
:101790002C2F2F7749E667E080EB0E94690923E24E
:1017A00048E667E080EB0E9469099E01220F232F23
:1017B000221F330B49E667E080EB0E946909D0E005
:1017C000C0E0E12EF12CC701880F991F9C01235F17
:1017D0003E4F69010AE0F601808191810C2E02C022
:1017E000969587950A94E2F781702C2F2C5E809F46
:1017F000200D11244AE667E080EB0E9469092196DA
:10180000C930D10541F728E2129FE0011124C55BE0
:10181000DE4F0AE5202F46E667E080EB0E9469096B
:10182000D88024E62D0D46E667E080EB0E9469092A
:1018300031E0D31219C02981205946E667E080EBD8
:101840000E9469092A814AE667E080EB0E946909E3
:101850002B814BE667E080EB0E9469092C814CE606
:1018600067E080EB0E9469090F5F2596023691F6CA
:10187000E70183E0CC0FDD1F8A95E1F7C95DDD4FFD
:1018800008E2202F48E667E080EB0E946909299171
:1018900049E667E080EB0E9469090F5F003389F732
:1018A00085E1189F70011124D0E0C0E02C2F235F48
:1018B00048E667E080EB0E946909F701EC0FFD1F25
:1018C000E951FE4F208149E667E080EB0E946909FB
:1018D0002196C531D10551F7E3E01E9FC0011124C7
:1018E0009C012F503C4F7901CAE52C2F46E667E05A
:1018F00080EB0E946909F70121917F012B5846E690
:1019000067E080EB0E946909CF5FCD3571F7FCE09D
:101910001F9FE0011124F12CE12C21E02E0D48E65F
:1019200067E080EB0E946909FE01EE0DFF1DED5E90
:10193000FE4F208149E667E080EB0E9469092FEFA6
:10194000E21AF20A3CE0E316F10439F7DF91CF9195
:101950001F910F91FF90EF90DF90CF900895215845
:10196000BBCE80916C048F5F833089F080936C04D0
:1019700010925F040E94E10980916C048F5F809354
:10198000550280916304882329F00C94410B109236
:101990006C04EECF0895CF93DF93EFE3F2E081E59F
:1019A00092E030E020E041915191240F351F8E17D5
:1019B0009F07C9F78FEF9FE1821B930B20913304A0
:1019C00030913404820F931F97FD25C09093D4016A
:1019D0008093D301C091D301D091D40180910101B2
:1019E000909102018C179D0799F0809162048823E1
:1019F00079F09E01220F232F221F330B4C2F4F779C
:101A000061E080EE0E946909D0930201C093010158
:101A1000DF91CF9108951092D4011092D301DACFC3
:101A2000CF93DF9300D000D0CDB7DEB76150F894EC
:101A3000282F30E094E0359527959A95E1F7298392
:101A40006F70862B8A834F774B831C828091D303E0
:101A500044E050E0BE016F5F7F4F8F5F0E94C0087F
:101A60008091D3038F5F8093E9008091F2008823F7
:101A700019F08AE38093E80078940F900F900F900C
:101A80000F90DF91CF910895CF93DF93E0916C0495
:101A9000A82FB0E02E2F30E098E2E99FF00111244A
:101AA00095E0899FE00DF11D1124E55BFE4FE0817B
:101AB000E150E33108F039C0F0E0EF59F24F0C94F7
:101AC0007D29740DD70DDB0DDF0DE60D030E160E0F
:101AD000230E400E4F0E5F0E950D950D950D950D35
:101AE000950D950D950D710E85E08A9FF0018B9FE8
:101AF000F00D112448E2429FC001439F900D112434
:101B0000E80FF91FE55BFE4F8181811116C024812A
:101B100043816281ED01CE51DC4F8881811108C083
:101B200080E90E94690981E08883DF91CF9108955F
:101B300080E80E9469091882F8CF813041F424813D
:101B40004381628180EBDF91CF910C9469098230EF
:101B500009F0CBC04381628180ECDF91CF910C947E
:101B6000100D8091A3028F3720F48F5F8093A30222
:101B700002C01092A30285E08A9FF0018B9FF00DB6
:101B8000112448E2429FC001439F900D1124E80FA9
:101B9000F91FE55BFE4F4091A302628180EC0E9439
:101BA000100D81E080935502C0CF8FE7DFCFDF912A
:101BB000CF910C94220BDF91CF910C94B10C8091BA
:101BC0005F0491E0892780935F04AFCFC901880F3C
:101BD000991F280F391F2F503C4FA20FB31F8C9114
:101BE00081110DC00E94580580913204082E000C0E
:101BF000990B97FFD7CF919581959109D3CFDF911D
:101C0000CF910C944905C901880F991F280F391FDE
:101C10002F503C4FA20FB31F8C91811103C00E9423
:101C20004905E2CFDF91CF910C945805C1E020E047
:101C30004BE76C2F80EB0E94690910925D04CF5F27
:101C4000C131A9F772CFF901EB5BFE4F80818F5F45
:101C50008430A1F080830E94E10910925F042091FA
:101C6000E30181E0820F8093550280916304882311
:101C700009F45BCF205B46E667E064CF1082EBCFD0
:101C800081E08093550280915D04811104C0DF9151
:101C9000CF910C94BF09DF91CF910C949E09409194
:101CA0003104C901880F991F280F391F2F503C4F4D
:101CB000A20FB31F8C91811110C04F5F0FC04091D4
:101CC0003104C901880F991F280F391F2F503C4F2D
:101CD000A20FB31F8C918111F0CF4150409331047A
:101CE00024CF81E08093BD0420CF833009F439CF25
:101CF000843009F01ACF8091A302882309F455CFCC
:101D0000815034CF84E0E3E8F2E0DB0101900D92F2
:101D10008A95E1F784E008951F93CF93DF93EC0158
:101D2000162F0E947D28181739F0612FCE01DF9100
:101D3000CF911F910C948528DF91CF911F91089529
:101D4000CF92DF92EF92FF920F931F93CF93DF9387
:101D5000182FC82FD0E0E0916C04F0E0EC51FE4F5A
:101D60006081CE0188960E948C0EE0916C04F0E0B8
:101D7000E85CFE4F6081CE01C5960E948C0EE0911A
:101D80006C04F0E0EF5BFE4F6081CE01C2960E94D2
:101D90008C0EE0916C04F0E0E85BFE4F6081CE01B8
:101DA000875C9E4F0E948C0EE0916C04F0E0EB5B30
:101DB000FE4F6081CE01845C9E4F0E948C0E7E019E
:101DC000EE0CFF1CE0916C04F0E0EE0FFF1FE35FF0
:101DD000FE4F6081C7018D5A9F4F0E948C0EE0918B
:101DE0006C04F0E0EE0FFF1FE35FFE4F6181C7015F
:101DF0008C5A9F4F0E948C0EE0916C04F0E0EE0F25
:101E0000FF1FE55CFE4F6081C701875A9F4F0E940C
:101E10008C0EE0916C04F0E0EE0FFF1FE55CFE4FCE
:101E20006181C701865A9F4F0E948C0EE0916C041D
:101E3000F0E0EC53FC4F6081CE01815A9F4F0E942D
:101E40008C0EE0916C04F0E0EE0FFF1FE953FC4FA5
:101E50006081C7018F5E9E4F0E948C0EE0916C04E2
:101E6000F0E0EE0FFF1FE953FC4F6181C7018E5E6A
:101E70009E4F0E948C0E84E1189F60011124F12C6A
:101E8000E12C0CE08CEFC81A8EEFD80A80916C041C
:101E9000F701089FE00DF11D1124ED5EFE4F6081FA
:101EA000C6018E0D9F1D0E948C0E8FEFE81AF80A56
:101EB0008CE0E816F10451F733E0CC0FDD1F3A95C2
:101EC000E1F7F12CE12CE896E0916C0488E0E89FC2
:101ED000F0011124E95DFD4FEE0DFF1D6081CE0183
:101EE0008E0D9F1D0E948C0E8FEFE81AF80A88E075
:101EF000E816F10449F785E1189F70011124D0E03C
:101F0000C0E005E18BE1E81A8DEFF80A80916C04DE
:101F1000FE01089FE00DF11D1124E951FE4F608183
:101F2000C7018C0F9D1F0E948C0E2196C531D105D3
:101F300069F783E0189F70011124D0E0C0E08AEFB8
:101F4000E80EF11CE0916C048E2F90E0FC01EE0F86
:101F5000FF1FE80FF91FEF50FC4FEC0FFD1F6081D2
:101F6000C7018C0F9D1F0E948C0E2196C330D10596
:101F700049F782E3189FE0011124CC59DF4FF12C7F
:101F8000E12C85E0D82E98E2C92E10E000E0809187
:101F90006C04D09EF001D19EF00D1124C89EE00D7E
:101FA000F11D1124E55BFE4FEE0DFF1D6081CE019A
:101FB000800F911F0E948C0E0F5F1F4F083011057C
:101FC00031F78FEFE81AF80A2A9685E0E816F1044F
:101FD000E1F6DF91CF911F910F91FF90EF90DF908D
:101FE000CF900895CF92DF92EF92FF920F931F93BD
:101FF000CF93DF9305E314E087E8C82E84E0D82E62
:1020000091EDE92E92E0F92EC2E1D0E0F801618174
:102010000E5F1F4FCE010E948C0EF8013297608137
:10202000CE0101960E948C0EF6016081F2E0CF0E87
:10203000D11CC7010E948C0E22968FEFE81AF80A75
:10204000C432D10519F71092BD0463E085E290E037
:102050000E948C0EEDE6F8E0259134919FB7F8943C
:10206000F901FF272081832F8095822380839FBFE2
:1020700010922104DF91CF911F910F91FF90EF906B
:10208000DF90CF9008950C947D282F923F924F922D
:102090005F926F927F928F929F92AF92BF92CF92F8
:1020A000DF92EF92FF920F931F93CF93DF93CDB701
:1020B000DEB766970FB6F894DEBF0FBECDBF80E3E4
:1020C00090E00E9443108093CE0388E491E09C87C7
:1020D0008B87E5E4F1E0FE87ED8781E491E0988B62
:1020E0008F87EDE0F1E0FA8BE98B8BE491E09A8346
:1020F0008983E3E1F1E0FE83ED8387EE91E0988749
:102100008F83E7E2F2E0FA87E987B12CA12C312C2A
:10211000212C1C821B82712C612C512C412C1E8A7B
:102120001D8A10E000E0C801875C9E4F0E944310AA
:10213000EB85FC858193FC87EB87C801845C9E4F0F
:102140000E944310ED85FE858193FE87ED87C801CF
:10215000C2960E944310EF85F8898193F88BEF8730
:102160008D899E898D5A9F4F0E944310F82E8D892C
:102170009E898C5A9F4F0E944310982F8F2DE9897A
:10218000FA8981939193FA8BE98B8D899E89875A7D
:102190009F4F0E944310F82E8D899E89865A9F4F2B
:1021A0000E944310ED89FE89E55CFE4F982F8F2D2C
:1021B00091838083C801815A9F4F0E944310F80188
:1021C000EC53FC4F80838D899E898F5E9E4F0E94C9
:1021D0004310F82E8D899E898E5E9E4F0E9443107B
:1021E000ED89FE89E953FC4F982F8F2D91838083D1
:1021F000D12CC12C7501F8E3EF0EF11CC7018C0D39
:102200009D1D0E944310E985FA85EC0DFD1D80831C
:102210008FEFC81AD80A98E0C916D10479F7D12CE3
:10222000C12C7101EBE1EE1AEDEFFE0AC7018C0D36
:102230009D1D0E944310EF81F885EC0DFD1D8083EC
:10224000FFEFCF1ADF0A85E1C816D10479F7D12C48
:10225000C12CEB80FC809CEFE91A9EEFF90AC701C4
:102260008C0D9D1D0E944310ED81FE81EC0DFD1D26
:102270008083EFEFCE1ADE0AFCE0CF16D10479F7A7
:1022800073018AEFE80EF11CF301EF50FC4F4F0190
:102290006301FDEFCF0ED11CC7010E94431091E0F6
:1022A000811101C090E0F40191934F01FFEFEF1A0B
:1022B000FF0AEC14FD0481F7620184E6C80ED11C0C
:1022C000F201EA56FF4FFC8BEB8B89809A80F12C50
:1022D000E12CC6018E0D9F1D0E94431095E09E9D2E
:1022E000F0019F9DF00D1124E80DF91D8083EFEFA3
:1022F000EE1AFE0AF8E0EF16F10459F78AE0C80E6C
:10230000D11C9FEF891A990AEB89FC89CE16DF064A
:10231000F1F60F5F1F4F8D899E8902969E8B8D8BE4
:1023200092E3490E511CE981FA81B896FA83E98358
:10233000F3E06F0E711C8B819C8144969C838B8390
:10234000ED81FE813C96FE83ED83F5E12F0E311C7D
:102350008F819885459698878F8398E0A90EB11C48
:10236000E985FA853896FA87E9870330110509F07F
:10237000DACE66960FB6F894DEBF0FBECDBFDF9102
:10238000CF911F910F91FF90EF90DF90CF90BF9072
:10239000AF909F908F907F906F905F904F903F9005
:1023A0002F900895CF92DF92EF92FF920F931F9399
:1023B000CF93DF9384EEE82E81E0F82E98E3C92EC8
:1023C00091E0D92EC8E2D0E0CE010E944310082F40
:1023D000F70181937F01CE010D960E944310182FC3
:1023E000F60181936F01809163048823C9F02C2F3B
:1023F0002A5046E667E080EB0E94690921E2200F3F
:1024000046E667E080EB0E9469094C2F495B212F6B
:1024100017FF02C02FE7210F67E080EB0E946909D8
:102420002196CB32D10581F6DF91CF911F910F918B
:10243000FF90EF90DF90CF900895AF92BF92CF9230
:10244000DF92EF92FF921F93CF93DF9385E3A82E45
:1024500084E0B82E97E8C92E94E0D92E21EDE22E23
:1024600022E0F22EC2E1D0E0CE010E944310182FEC
:102470008093A202CE0101960E944310912FF50194
:10248000819391935F01C7010E94431090E0F60190
:10249000819391936F012296FFEFEF1AFF0AC432E6
:1024A000D10511F7DF91CF911F91FF90EF90DF9051
:1024B000CF90BF90AF9008951F920F920FB60F92DA
:1024C00011242F933F938F939F93AF93BF9380914A
:1024D000C4049091C504A091C604B091C704309182
:1024E000C30426E0230F2D3758F50296A11DB11D18
:1024F0002093C3048093C4049093C504A093C6049E
:10250000B093C7048091C8049091C904A091CA04F3
:10251000B091CB040196A11DB11D8093C804909386
:10252000C904A093CA04B093CB04BF91AF919F910B
:102530008F913F912F910F900FBE0F901F90189584
:1025400029E8230F0396A11DB11DD2CF1F920F9230
:102550000FB60F9211242F933F934F935F936F9376
:102560007F938F939F93AF93BF93EF93FF93E091EC
:102570000B01F0910C010995FF91EF91BF91AF9183
:102580009F918F917F916F915F914F913F912F918B
:102590000F900FBE0F901F9018951F920F920FB6BD
:1025A0000F9211242F933F934F935F936F937F93D9
:1025B0008F939F93AF93BF93EF93FF938091A0026C
:1025C00028E0882319F02091A00221508091A002D8
:1025D0009091A0028F5F983009F480E09091A00262
:1025E000993029F55998809178009091790020913F
:1025F0009E0230919F02821B930B9093BC048093A8
:10260000BB048091B802806180938100FF91EF91BB
:10261000BF91AF919F918F917F916F915F914F91FA
:102620003F912F910F900FBE0F901F9018953091F2
:10263000000190E0332309F450C03091A002311121
:1026400029C0209178003091790030933004209394
:102650002F0421E0209376048A5A9D4FFC0180814B
:102660000E941505109200018091A002882371F24A
:10267000E091A002F0E0EE0FFF1FE559FD4F8081D1
:1026800091812FB7F894FC01FF278081892B8083EB
:102690002FBFBCCF30E0220F331FF901E559FD4FAA
:1026A000608171815FB7F894FB01FF276081472F3C
:1026B0004095462340835FBF409178005091790058
:1026C000F901E257FD4F60817181461B570B25557B
:1026D0003B4FF90151834083BFCF20917800309167
:1026E0007900880F991FFC01E257FD4F3183208349
:1026F000E091A002F0E0EA5AFD4F80810E941505AA
:1027000081E0809300018091A0028F5F8093A002FE
:102710007DCF1F920F920FB60F9211248F939F932C
:102720008091E1009091E100937F9093E10083FF1D
:102730000FC01092E90091E09093EB001092EC0032
:1027400092E39093ED001092BB0298E09093F0001A
:1027500082FF0AC093E09093E9009091F2009923E0
:1027600019F09AE39093E80084FF18C08091E2008A
:102770008E7E81608093E2008091E1008F7E809365
:10278000E1008091B6028E7E80618093B6029F91B7
:102790008F910F900FBE0F901F90189580FFF7CF6D
:1027A0008091E2008E7E80618093E2008091E10062
:1027B0008E7E8093E1008091B6028E7E8160E5CFAF
:1027C0001F920F920FB60F921124CF92DF92EF92C9
:1027D000FF920F931F932F933F934F935F936F93AA
:1027E0007F938F939F93AF93BF93EF93FF93CF9379
:1027F000DF93CDB7DEB76C97DEBFCDBF1092E90097
:102800008091E80083FF2CC089E0FE017596EE2ED2
:10281000DF2E815029F09091F10090833196F9CF0D
:1028200082EF8093E8008D8987FF39C09091E8009E
:1028300090FFFCCF982F907609F033C19E894F8985
:10284000588D2F89F88C911131C0803861F58091B5
:10285000B7028093F1001092F1008EEF8093E800B0
:102860006C960FB6F894DEBF0FBECDBFDF91CF914F
:10287000FF91EF91BF91AF919F918F917F916F9158
:102880005F914F913F912F911F910F91FF90EF908A
:10289000DF90CF900F900FBE0F901F9018959EEF76
:1028A0009093E800C7CF1092F100D5CF913059F442
:1028B0008111D3CF4130510581F68091B7028D7FD0
:1028C0008093B702CACF933049F48111C6CF41300B
:1028D000510519F68091B7028260F2CF953041F42C
:1028E0008091E80080FFFCCF20682093E300B5CF03
:1028F000963009F0A8C00B8D1C8D82E01092E90083
:1029000010928D0210928C02F8122EC010928B023F
:1029100010928A020E9440071F8299E09983FA82EE
:1029200091E09E8390EA98879AE0998720918C02A3
:1029300030918D02275F3F4F3C832B838D83109214
:10294000E90010928D0210928C0210938B0200937A
:102950008A0249E050E0BE016F5F7F4F80E00E9435
:10296000CA070E94400779CF10938B0200938A0216
:102970000E94FB04DC0112960D911C9101151105BA
:1029800009F4BAC0D801ED91FC910480F581E02DE5
:102990006E2D7D2DC8010995009709F0A8C0F8019A
:1029A00000851185EBCFF3E0FF120EC08F898823DD
:1029B00009F440C0823061F440E865E08DED90E0BC
:1029C0000E949707811149CF81E28093EB0048CFA5
:1029D000813029F440E86AE182EC90E0F1CF833065
:1029E00099F70E94FB04DC011296ED90FC908E0199
:1029F0000F5F1F4F6801E114F10479F0D701ED91E9
:102A0000FC910680F781E02DB801C7010995080FF8
:102A1000111DF701E084F184EECFD8011C92F6017C
:102A200001900020E9F73197BF016C197D0940E062
:102A3000C601C6CF6CEA70E0FB01449150E080E82B
:102A40000E94CA070ACF973009F4BECF983021F40C
:102A500081E08093F10001CF993009F0FECE8370C0
:102A600009F0B2CFE5E0F1E081E031E096E32191B9
:102A7000222371F08093E9003093EB00DF0111977E
:102A80002C912093EC009093ED008F5F873079F7C5
:102A90008EE78093EA001092EA008F898093BB0250
:102AA000DCCE8B8D9C8D1092E90010928D021092DD
:102AB0008C0290938B0280938A020E94FB04DC01BB
:102AC00012960D911C910115110509F47DCFD801C5
:102AD000ED91FC910190F081E02D6E2D7D2DC801CE
:102AE00009958111BACEF80100851185ECCF181631
:102AF00019060CF4B2CE68CFF1E0FF1254CF60EBB0
:102B000070E09ACFCF93DF93CDB7DEB72C970FB697
:102B1000F894DEBF0FBECDBF789484B5826084BDCB
:102B200084B5816084BD85B5826085BD85B58160D1
:102B300085BD80916E00816080936E00109281004F
:102B4000809181008260809381008091810081600A
:102B500080938100809180008160809380008091CB
:102B600091008260809391008091910081608093B8
:102B70009100809190008160809390008091C100CD
:102B800084608093C1008091C10082608093C10005
:102B90008091C10081608093C1008091C3008160F9
:102BA0008093C3008091C00082608093C0008091B8
:102BB000C20081608093C20080917A00846080931B
:102BC0007A0080917A00826080937A0080917A0006
:102BD0008E7F80937A0080917A00806880937A005B
:102BE0001092BB021092B7021092B6028091D700E9
:102BF00081608093D70080EA8093D80089B58F7E6A
:102C000089BD89B5826089BD09B400FEFDCF61E050
:102C100070E080E090E00E94BD048091D8008F7C3D
:102C200080618093D8008091E000807F8093E000F5
:102C30008091E1008E7E8093E1008DE08093E20040
:102C40008FEF80937E0083EF80937D00EDE6F8E0C8
:102C5000859194912FB7F894FC01FF278291892BDD
:102C600080832FBFE5E7F8E0859194912FB7F89422
:102C7000FC01FF27DF013E91892F809583238C93F0
:102C80008081892B80832FBFEBE6F2E02DE732E0D5
:102C9000819191914FB7F894DC01BB278E91892BDC
:102CA0008C934FBF2E173F0799F72198299A2298A6
:102CB0002A9A23982B9A85E893E00E944310813149
:102CC00009F46EC061E185E893E00E948C0E60E03B
:102CD00080E390E00E948C0E61E08CED91E00E9418
:102CE0008C0E61E08BEC92E00E948C0E07E212E009
:102CF000D12CC12CF12CE12C98012F5530405901D9
:102D0000F801EE0DFF1D6081C5018E0D9F1D0E9413
:102D10008C0E3FEFE31AF30A48E0E416F10481F762
:102D2000F12CE12C560158E3A50EB11CC5018E0D06
:102D30009F1D0E944310F801EE0DFF1D80836FEF71
:102D4000E61AF60A76E0E716F10481F785E0C80E88
:102D5000D11C085F1F4F9FE0C916D10459F610E03F
:102D600000E0F12CE12CD801A95DBD4F5D016801A7
:102D7000B8E3CB0ED11CF501EE0DFF1D6081C6013D
:102D80008E0D9F1D0E948C0EEFEFEE1AFE0AF8E0EA
:102D9000EF16F10481F7085F1F4F0831110509F79D
:102DA0008CE290E00E9443108330D9F110926C04C1
:102DB00080E00E94A00E81E080936C040E94A00E2F
:102DC00082E080936C040E94A00E6091CE0380E3A9
:102DD00090E00E948C0E10926C0483E08093550268
:102DE00008E210E0C8010E944310682FC801805714
:102DF0009E4F0E948C0E0F5F1F4F003421E0120780
:102E000089F705EE12E0C8010E944310682FC8013F
:102E1000CF960E948C0E0F5F1F4F043233E01307D2
:102E200091F785E290E00E944310833011F40E94F4
:102E30001D120E94D2110E9445108091CE038093F2
:102E40006C040E9479040E9479040E947904909392
:102E5000BA028093B90290936804809367040E9439
:102E6000E10980E1809381001092800091E09093CD
:102E7000B80220E931E0309387002093860021E1F9
:102E80002093810023E237E030930C0120930B0163
:102E900090936F008093810080917A00887F809367
:102EA0007A0084E880937A0080E480937C0081E05B
:102EB0000E9415050BE6502E85E0782E93E1692ED1
:102EC000F8948091BC039091BD03A091BE03B09192
:102ED000BF034091C0035091C1036091C203709140
:102EE000C303841B950BA60BB70B8F739927AA27D7
:102EF000BB27892B8A2B8B2B09F47FC08091C003C1
:102F00009091C103A091C203B091C303880F991F90
:102F1000880F991FFC01E454FD4F9081818102814B
:102F20001381C090BC03D090BD03E090BE03F0902D
:102F3000BF034091C0035091C1036091C2037091DF
:102F4000C303C416D506E606F706C1F04091C003D8
:102F50005091C1036091C2037091C3034F5F5F4FF3
:102F60006F4F7F4F4F735527662777274093C003D6
:102F70005093C1036093C2037093C3037894992361
:102F800011F40C946027073708F09ACF8F708630C1
:102F900009F096CF81E080935502063609F0A6C26B
:102FA000E12EF12C8FEF810F823108F0B2C010FDBD
:102FB000A4C0970135952795F901EE0FFF1FED5C31
:102FC000FB4F80819181AC01455051095183408371
:102FD000CB97059708F0AAC12D5E46E667E080EB27
:102FE0000E9469091E3709F0B4C181E0809363042F
:102FF000109255020E94410B94C08091D3032FB7C9
:10300000F89487708093E9009091F2002FBF10E050
:1030100000E080E0992309F484CF8091BC03909173
:10302000BD03A091BE03B091BF030196A11DB11DC8
:103030008F739927AA27BB274091C0035091C103E2
:103040006091C2037091C303481759076A077B0751
:1030500009F454CF2091D3033FB7F89427702093FD
:10306000E9002091F2003FBF2091D3033091BB02D1
:10307000332309F443CF5FB7F89427702093E90016
:103080004091F200242F30E02530310514F024E087
:1030900030E0FE013196215020F03091F100319363
:1030A000FACF442331F02091F200211102C0509256
:1030B000E8005FBF443008F421CF4091BC03509139
:1030C000BD036091BE037091BF03440F551F440FB1
:1030D000551F44545D4F09811A812B813C81FA01AF
:1030E00000831183228333838093BC039093BD03B9
:1030F000A093BE03B093BF0398CFF7013196EE7F44
:10310000F170ED5CFB4F8081918105969183808306
:1031100069CF133109F00AC10E94F20F83E0809356
:1031200055028FED810F8B3140F4E091CF03F0E039
:10313000EC51FE4F80830E94E1096CE3C62ED12C36
:1031400080E0BB24B394B80ECE14DF0451F4809316
:103150006C0410925F040E94E1090E94410BB0923E
:1031600055023FEFC31AD30A8B2D833051F756E433
:10317000A52EB12C8AEB8A0DD0906C048D2C912C4D
:10318000AE14BF0459F4F401E85BFE4F80830E9443
:10319000E109809182048F5F809355024FEFA41A5A
:1031A000B40A59E4A516B10429F740E5A42EB12CC0
:1031B000B4016B5B7E4F4B0180EB8A0DAE14BF04F4
:1031C00049F4D4018C930E94E1098091E3018F5F5F
:1031D00080935502BFEFAB1ABB0AE5E5AE16B1040A
:1031E00059F7409144018AE590E026EA280F8E15B0
:1031F0009F0509F4422F019682369105B1F740935D
:1032000044013091550228E2D29EF0011124E55B81
:10321000FE4F20E042131BC0173711F4608230E0EC
:1032200084E690E05CE9580F8E159F0511F45083F9
:1032300030E0019680379105A9F750E9580F8E15B7
:103240009F0509F45183019685379105B1F72F5FEA
:1032500035962830F9F63093550253E0D59E90010B
:1032600011242F503C4F90E080E051E048130BC0F8
:10327000153709F0B1C0F901E80FF91F1082FC0100
:10328000EE51FC4F108201968330910579F7153588
:1032900009F0AAC0D092CE036D2D80E390E00E9489
:1032A0008C0EFFE6EF2EF12CC02ED12CA1E8BA2E09
:1032B000B10ECE14DF0461F4C6018F569109885C0B
:1032C0009E4F123308F039C1FC0110830E94E109BE
:1032D000BFEFEB1AFB0AE2E7EE16F10451F70836EE
:1032E00009F02EC18FEF810F809337014091440187
:1032F00020916C0458E2259F90011124255B3E4FDC
:1033000090E080E048130DC00A3609F056C2103133
:1033100040F4789EF001799EF00D1124E20FF31F26
:10332000128301968830910569F7CACD1F3709F0DD
:1033300059CE1092550281E08093BD04F2CE81E017
:103340001F3121F0103209F0ECCE82E08093CF03E0
:10335000E8CE1A3729F01E3191F71092CF03E1CE53
:10336000D12CC12CE3E0AE2EC6010E944310B82E32
:1033700020E34AE667E080EB0E9469092B2D2F7756
:1033800047E767E080EB0E94690921E34AE667E0CE
:1033900080EB0E9469092B2D30E0220F232F221F82
:1033A000330B47E767E080EB0E94690923E34AE6B5
:1033B00067E080EB0E94690963E070E080E090E0E4
:1033C0000E94BD04A0925502FFEFCF1ADF0AC1147C
:1033D00024E0D20649F6A5CE163709F054CFF901FC
:1033E000E80FF91F50834BCF1B3739F48D2D0E9406
:1033F000A00E83E08093550254CF1C3799F4F12C32
:1034000033E0E32E8F2D0E94A00E0E94D2110E9465
:1034100045100E94E109E0925502F39463E0F61230
:10342000F1CF3FCF1D3709F03CCF28EBE22EFF2430
:10343000F394C7010E944310682FC701805991403F
:103440000E948C0E7FEFE71AF70A80EDE81682E003
:10345000F80679F794E2E92E93E0F92EC7010E946D
:103460004310682FC701CF970E948C0E9FEFE91A77
:10347000F90AA3E6EA16A3E0FA0681F7F12CE12C9B
:10348000C7010E944310682FC70142960E948C0E0C
:10349000BFEFEB1AFB0AE2E1EE16F10489F78BEDC0
:1034A000E82E82E0F82EC7010E944310682FC70162
:1034B0000A970E948C0EFFEFEF1AFF0A25EEE21624
:1034C00022E0F20681F70E94D2110E941D120E9492
:1034D000451081E0809363040E94E1090E94410B42
:1034E00063E08CE290E00E948C0E83CF073649F4B3
:1034F000E0916C04F0E0EF5BFE4F10830E94E10965
:10350000D0CE053709F0CDCEE0906C04F12CEE0C56
:10351000FF1CA701455C5E4F7A01212F30E0AFEF21
:10352000BFE10E94DF2824E630E040E050E00E9446
:10353000BD28D7012D933C93E1CFDC01BC92C6CED0
:10354000093609F04AC0E091370180916C0490E09F
:10355000EC3078F44CE0489F9001499F300D1124E5
:103560002D5E3E4FE20FF32FF11D10830E94E10903
:10357000BDCEE13268F445E1489F9001499F300D8E
:10358000112429513E4FE20FF32FF11D3C97EDCF4F
:10359000E13219F41093CD03A9CEE23279F4880F09
:1035A000991FFC01E953FC4F20E8129FC001112430
:1035B0002091CD03822B91838083D8CFE03308F014
:1035C00095CE73E0880F991F7A95E1F7895D9D4F3D
:1035D000E80FF92FF11DB797C8CF0A3609F086CE4C
:1035E000103108F483CE8CEE810F8930E0F4E09145
:1035F0006C04F0E0EE0FFF1FE35FFE4F412F4451DC
:10360000550BCA0121E030E040E050E004C0220F39
:10361000331F441F551F8A95D2F7C901208131817C
:10362000822B932BC8CF82EE810F8930F0F4E0918A
:103630006C04F0E0EE0FFF1FE35FFE4F412F4E5191
:10364000550BCA0121E030E040E050E004C0220FF9
:10365000331F441F551F8A95D2F7C9018095909555
:103660002081318182239323A6CF173239F4E09150
:103670006C04F0E0EC53FC4F108278CF183241F428
:10368000E0916C04F0E0EC53FC4F81E080836ECF5E
:10369000193259F5E0906704F0906804E0916C04E9
:1036A000F0E0EE0FFF1FE953FC4FF182E08222E2CF
:1036B00048E667E080EB0E9469092E2D2F7749E6E6
:1036C00067E080EB0E94690923E248E667E080EB4F
:1036D0000E9469099701220F232F221F330B49E60D
:1036E00067E080EB0E94690941CF1A3231F482E031
:1036F0008093BD0410925502F9CD1B32A9F520919B
:10370000670430916804E0906C0445E1E49E700128
:103710001124B70169517E4F7B01822F8F77DB0126
:1037200053968C9353976901CC0CCD2CCC1CDD089F
:103730005496CC9220E248E667E080EB0E9469094B
:10374000F701238949E667E080EB0E94690921E2DD
:1037500048E667E080EB0E9469092C2D49E667E0A6
:1037600080EB0E946909C2CD1D3209F0BFCDF12C5A
:10377000E12CC70142960E944310682FC7010E94A6
:103780008C0EFFEFEF1AFF0A22E1E216F10489F72F
:10379000ABEDEA2EA2E0FA2EC7010A970E94431071
:1037A000682FC7010E948C0E3FEFE31AF30A45EE23
:1037B000E41642E0F40681F799CD0B3649F4789E81
:1037C000F001799EF00D1124E20FF31F1383A9CDB0
:1037D0000C3609F0A6CD789EF001799EF00D1124EB
:1037E000E20FF31F14839DCD652D70E090E080E023
:1037F0000E94F52820E030E040E850E40E94EE28E6
:1038000087FD02C00C94AA275394F50150820C94B2
:10381000AA271082442011F40C94BF27F70180815D
:103820009181019691838083F701808191818D320E
:10383000914040F0D6018C91811104C0F801E25111
:10384000FC4F3082F40181914F01D3018D933D01F2
:103850000F5F1F4FBFEFCB1ADB0AE2E0EE0EF11C49
:103860000330110511F00C9495274092BE040E947C
:10387000EF046093BF047093C0048093C1049093DD
:10388000C2048091BE04882309F44FC180910604CC
:10389000882351F080910404882331F010920404AD
:1038A0001092BE041092060480910004882309F44B
:1038B00043C08091FF0381113FC08091FE038111BD
:1038C0003BC0E0916C040E2F10E025E1E29FF00177
:1038D0001124E951FE4F2289213091F48091850411
:1038E0009091860496958795089751F4109200045C
:1038F0002093FA0380915D048111BAC30E94BF092D
:1039000083E0000F111F8A95E1F7F801E95DFD4F93
:103910008281882389F08091850490918604969510
:1039200087958031910509F0A6C31092000481E0CB
:103930008093FA030E94220B63E0662E64E0762EE9
:1039400070E0C72E74E0D72EEEEEAE2EE3E0BE2E72
:10395000FAEF8F2EF3E09F2E10E000E0EE24E394C8
:10396000A5E05A2EB8E24B2EF02ED3018D913D01E9
:10397000882359F1E0916C048E2F90E0FC01EE0F4A
:10398000FF1FE80FF91FEF50FC4FE00FF11F808180
:1039900081110FC08091FD039091FE03E82FE90F84
:1039A000FF27FF1F8091FF038E0F9F2F911D892BF3
:1039B00061F4D4018C91811103C08F2D0E94440DBC
:1039C000F30131971082F4011082D5018C91882384
:1039D00081F18091FD039091FE03E82FE90FFF270D
:1039E000FF1F8091FF038E0F9F2F911D019709F5F7
:1039F000E0916C048E2F90E0FC01EE0FFF1FE80FAA
:103A0000F91FEF50FC4FE00FF11F8081811111C0B1
:103A100085E08F0D0E94440DF801E551FC4FE082D6
:103A2000D5011C92F801EE0FFF1FEB51FC4F1182E4
:103A30001082F6018081882379F1108280916C04D4
:103A400090E0FC01EE0FFF1FE80FF91FEF50FC4F55
:103A5000E00FF11F20812223F9F0509EF001519ECA
:103A6000F00D1124489E9001499E300D1124E20F63
:103A7000F31FE55BFE4FF08021E0F21207C3818166
:103A800081110AC024814381628180E90E94690911
:103A9000F801EE51FC4FF0820F5F1F4F6FEFC61A17
:103AA000D60A7FEFA71AB70A8FEF881A980A033051
:103AB000110509F059CF8091FE038823A1F180916F
:103AC00003048823B1F0E0916C048E2F90E0FC0198
:103AD000EE0FFF1FE80FF91FEF50FC4F808181119F
:103AE00008C01092030481E08093060483E00E94E2
:103AF000440D809105048823B1F0E0916C048E2F71
:103B000090E0FC01EE0FFF1FE80FF91FEF50FC4F94
:103B10008181811108C01092050481E08093060420
:103B200084E00E94440D1092BE04809155028823C7
:103B3000B9F10E94EF04009107041091080420914C
:103B4000090430910A04601B710B820B930B683CD3
:103B500071058105910520F10E94EF04609307042F
:103B6000709308048093090490930A0480912104BF
:103B7000EDE6F8E0882309F495C2259134919FB7CA
:103B8000F894F901FF272081832F80958223808379
:103B90009FBF80915502815080935502109221045D
:103BA0001091BD04112309F43DC0809121048111BD
:103BB00087C2EDE6F8E0859194912FB7F894FC0167
:103BC000FF278081892B80832FBF81E08093210490
:103BD0000E94EF0460931D0470931E0480931F04E1
:103BE000909320048091BD04813071F4E7E3F4E008
:103BF000A9E8B4E08FEF90E0119211928D939D931C
:103C000024E0E734F207C1F780916504882351F07E
:103C100010923604109235048FEF90E09093880450
:103C200080938704F89479E9872E74E0972ED40165
:103C300090E080E0FC01EE0FFF1FE555FB4F208177
:103C400031812D933D9301968930910599F77894B0
:103C50006091BD04A7E8B4E02BEA34E0E9E9F4E0C0
:103C6000611109C0808191814D915C911197841BF4
:103C7000950B918380838081918197FF02C011828F
:103C80001082329612962E173F0751F70091850445
:103C900010918604E5E3F4E0A9E9B4E090E080E067
:103CA0004D915D9121913191B90162537109641770
:103CB000750708F07EC241E050E060E070E0082E39
:103CC00004C0440F551F661F771F0A94D2F7042BB8
:103CD000152B01968930910519F7109386040093EE
:103CE000850480915302909154020817190709F432
:103CF00089C081E080935202C8010E94C10590935F
:103D000084048093830480916304882389F098015C
:103D1000220F232F221F330B319542E767E080EB00
:103D20000E946909202F43E767E080EB0E94690940
:103D30001093540200935302B0908204B1103AC021
:103D4000C8010E94310580935B048F3799F1C12C23
:103D5000D12C7601C39404C0CC0CDD1CEE1CFF1CDE
:103D60008A95D2F7C02AD12AE0908304F090840487
:103D7000C6010E94C105E81AF90A80E0F7FC18C0E4
:103D8000E0908304F0908404C6010E94C105E81A03
:103D9000F90A82E0E3E0EE16F10454F4E0908304C3
:103DA000F0908404C6010E94C105FE2DF81B8F2FE0
:103DB0008093C30180918304909184040196E1F083
:103DC0008091830490918404209151022817190650
:103DD00099F032E0B31681F01093810400938004CF
:103DE000EFE3F2E0A7E7B4E081E592E011921192EF
:103DF0001D928E179F07D1F78091830490918404C0
:103E00008093510280917604882309F4A8C0F89425
:103E100080912F049091300490932E0480932D0470
:103E2000789400912D0410912E0480916704909154
:103E300068048017910709F492C0E0916C0445E191
:103E4000E49FF0011124E951FE4F82898330C1F4CF
:103E5000848950E8859FC00111242389822B2091F9
:103E60002C042111BDC10596801791074CF481E007
:103E700080932C0480915D04811102C00E94BF09CF
:103E8000209151022C53330B4091CA01429FC00133
:103E9000439F900D11242091CF013091D001820FCA
:103EA000931F9093CC018093CB0180912B048823A6
:103EB00009F4A4C10E94EF04C0902704D090280404
:103EC000E0902904F0902A04AB01BC014C195D0973
:103ED0006E097F098091C8019091C901092E000CDB
:103EE000AA0BBB0B481759076A077B0708F486C162
:103EF00010922B0490912B048091E3019111C5C184
:103F0000209126042111C1C1813009F09DC1209169
:103F1000670430916804B801621B730B4091C501BE
:103F2000461717060CF090C12091CD013091CE01BB
:103F3000201731070CF088C193E0909375048093AB
:103F40002B040E94EF04609327047093280480934D
:103F5000290490932A0410936804009367047091D5
:103F60002C027987809175048D837723A1F080914D
:103F70002602813069F49D81913051F00E94EF0456
:103F8000609371047093720480937304909374042B
:103F9000AD81A09326029091320480913104BCE05F
:103FA0009B9F800D11248093600420906C04312C21
:103FB000F101EC51FE4F1081ED81E33051F41F30DF
:103FC00041F0909151021C3009F093C19E3308F0EA
:103FD00095C1F091E301FA87F33009F0C0C41130C4
:103FE00009F4B4C11A3009F4B1C1809185049091EB
:103FF000860481709927F10133E0EE0FFF1F3A9597
:10400000E1F7E95DFD4F23812817190609F08EC1FC
:1040100080916004173009F486C1845F85C170E027
:1040200090E080E00E94F52820E030E040E850E495
:104030000E94542987FDF8CBD4011C92F5013197D9
:104040002082F3018081882349F0D6019C9191114F
:1040500005C0F801ED5FFB4F3082482EF801E251B8
:10406000FC4F1082F6011082D7011D921C92DCCB0E
:104070000E949E0945CC029709F05ECC1092000484
:1040800081E08093FA030E94B10C56CC35E0F31224
:1040900003C00E94580500CD46E0F41274C70E9488
:1040A0004905FACC859194912FB7F894FC01FF272C
:1040B0008081892B80832FBF81E08093210470CD84
:1040C000113009F04AC00E94EF04C0901D04D09046
:1040D0001E04E0901F04F09020046C197D098E09E5
:1040E0009F09613177428105910508F45DC70E94FF
:1040F000EF0400911D0410911E0420911F043091C3
:104100002004601B710B820B930B61317742810598
:10411000910508F487CD0E94F20F8091D5012EEC15
:104120003FEF281B3109E5E3F4E00BE014E0B8EFC2
:10413000EB2EFF24FA9461917191620F731FC701F6
:104140000E94692976956795D8016D937D938D01BD
:10415000B4E0E734FB0779F765CD123009F062CDA2
:104160000E94EF04C0901D04D0901E04E0901F0434
:10417000F09020046C197D098E099F0969387341FC
:104180008105910508F433C70E94EF0400911D04D6
:1041900010911E0420911F0430912004601B710BAC
:1041A000820B930B693873418105910508F0B3CFF9
:1041B00039CD265331092417350708F48ACD41E05B
:1041C00050E060E070E0082E04C0440F551F661FE9
:1041D000771F0A94D2F7409550950423152379CD83
:1041E000081719070CF04CCE10922C0480915D0436
:1041F000882309F445CE0E949E0942CE8091260470
:10420000882309F477CE0E94EF04C0902204D09056
:104210002304E0902404F0902504AB01BC014C1968
:104220005D096E097F098091C6019091C701092E31
:10423000000CAA0BBB0B481759076A077B0708F449
:1042400059CE1092260456CE209175042330E9F4FD
:104250008823D9F02091670430916804201B310B2A
:104260004091C4014217130684F481E080937504E1
:10427000809326040E94EF04609322047093230429
:10428000809324049093250466CE2091CD01309133
:10429000CE012017310754F081E08093750410930C
:1042A0006804009367041092760459CE2F5F3F4F45
:1042B000201731078CF4813069F491110DC0809181
:1042C0002604811109C08091CB019091CC01801707
:1042D000910714F082E0E1CF809126048111DFCFB5
:1042E0008091CB019091CC0180179107C4F683E0B7
:1042F000D4CF1E3039F49A3408F46BCE845F8093A7
:10430000600467CE183019F49C34C0F762CE9E3337
:1043100031F4113009F45DCE1A3009F45ACE173059
:1043200069F7895FECCF895F80936004812F877F75
:10433000853029F4809160048150809360041C30A2
:1043400029F4809160048E5F809360040E94EF04E2
:10435000C0906D04D0906E04E0906F04F0907004F3
:104360006C197D098E099F096F30710581059105D2
:1043700008F465C20E94EF0460936D0470936E04AC
:1043800080936F049093700485E1829DF001839D7A
:10439000F00D1124E951FE4F8081882309F46DC08E
:1043A000F10183E0EE0FFF1F8A95E1F7E95DFD4F14
:1043B0008181811162C04091CD015091CE018091E7
:1043C000CB019091CC01BC01641B750B7595679571
:1043D000640F751FAD81A33019F4680F791FAC010C
:1043E000809167049091680425E1229DF001239D4E
:1043F000F00D1124E951FE4F2181E22FF0E08617E4
:10440000970708F0CEC2DB01A81BB90B34E1239F4C
:10441000F0011124AE9FC001AF9F900DBE9F900D83
:104420001124641B750B0E946929669FB001112439
:10443000B3E075956795BA95E1F771956195710946
:10444000709334046093330448EC249F900111244A
:1044500080913304909134042817390724F4309361
:1044600034042093330480918204823031F410921A
:10447000D4011092D3010E94CB0C00918204809150
:104480006B048111ACC2023009F4A5C0011102C055
:104490000E94670520918004309181044091D501EC
:1044A00050E04090D1015090D20160915B046F8345
:1044B0006090850470908604A090D601B090D701DA
:1044C00090E080E0682FF901082E02C0F695E7958C
:1044D0000A94E2F7E0FF16C0D401ED91FC91E417D5
:1044E000F50784F4C12CD12C7601C394082E04C0A6
:1044F000CC0CDD1CEE1CFF1C0A94D2F7C094D094A7
:104500002C213D21F201062E02C0F695E7950A9472
:10451000E2F7E0FF52C0F901062E02C0F695E795DA
:104520000A94E2F7E0FD49C0013021F0BF81B817DD
:1045300009F443C0F401C080D180D30102C0B69514
:10454000A7956A95E2F7BD01617077274C155D0567
:104550000CF035C26115710509F5DC01AA0FBB1F0E
:10456000FD01E15CFD4F7F01A75BBB4FF601E41B42
:10457000F50BCD90DC90EC9DD001ED9DB00DFC9D38
:10458000B00D1124B695A795B695A795F701B183FF
:10459000A083FC01E958FB4FA1E0A083FC01E9588E
:1045A000FB4FE081E13049F4672B39F0FC01EE0F5D
:1045B000FF1FE15CFD4FB182A0820196B2E08B0E3D
:1045C000911C8930910509F07DCF309381042093AF
:1045D00080040E94CB0C4091670450916804588776
:1045E0004F838091690490916A04841B950B97FF17
:1045F00003C091958195910903970CF418C180919E
:1046000063048823D9F06F8178856B01770FEE08FA
:10461000FF082C2D2F7744E767E080EB0E946909A3
:10462000A7019601F7E05695479537952795FA9596
:10463000D1F746E767E080EB0E94690985E1829D3A
:10464000F001839DF00D1124E951FE4F02810130EC
:1046500039F08681813021F07985713009F0E1C02F
:10466000C090E001D090E101F12CE12C8F81988580
:104670009C01990F440B550B2C193D094E095F09FC
:10468000A0E2B3E00E94B22825E1229DF001239D23
:10469000F00D1124E951FE4F2781A8E02A9F9001D7
:1046A00011242C593F4F032E000C440B550B2C1991
:1046B0003D094E095F090E949328E4E6CE2ED12CD5
:1046C000E12CF12C57FD13C074E8C72E73E0D72EF0
:1046D000E12CF12C2132B3E03B07410551053CF4BC
:1046E00069017A01E4E6CE0ED11CE11CF11C85E1E2
:1046F000829DF001839DF00D1124E951FE4F8381CD
:10470000813009F015C384EC9CE1A1E0B0E0809316
:10471000DC019093DD01A093DE01B093DF01A701DE
:104720009601C701B6010E9459299B01AC01C7013E
:10473000B6010E94592920E137E240E050E00E9492
:10474000BD2869017A018090DA019090DB01B12CDB
:10475000A12C4090D8015090D901712C612CA70157
:1047600096012456310941095109C501B401641962
:104770007509860997090E9459292091DC01309119
:10478000DD014091DE015091DF01245631094109DC
:1047900051090E949328DA01C901840D951DA61DB7
:1047A000B71D84159505A605B7050CF0EFC227E0E7
:1047B00075946794579447942A95D1F75985513049
:1047C00041F4809162048111ECC2842D880F8093A2
:1047D000E201013071F485E1829DF001839DF00DCD
:1047E0001124E951FE4F242D4581648180EB0E9404
:1047F0006909F10193E0EE0FFF1F9A95E1F7E95D7A
:10480000FD4F8681813069F485E1829DF001839DB1
:10481000F00D1124E951FE4F442D648180ED0E947A
:10482000100D6F81788570936A046093690480919C
:1048300066048F5F8A3009F4B7C280936604D09013
:104840006204710183E0EE0CFF1C8A95E1F7DD2024
:1048500079F0209151028091610490E030916004E0
:10486000831B910937FD93952817190609F4C7C2D0
:10487000F701E95DFD4F8181BD81B23008F4B8C216
:10488000882329F080915F04882309F4B3C28091C2
:104890005E048E3391F48091510220916004022EC7
:1048A000000C330B820F932F911D8635910529F44F
:1048B00080917604882309F49DC2E985E111C8C27C
:1048C000133029F4809151028C3309F493C2FA8594
:1048D000F33061F080916504882341F08091850474
:1048E000909186048F3F914009F484C2C090510298
:1048F000009160040C0D2091E201402F61E080E9FD
:104900000E946909DD2039F020E44091610461E0F2
:1049100080E80E9469090E94EF0460936D0470931F
:104920006E0480936F049093700400936104C092AE
:104930005E0481E08093620485E1829DF001839DA5
:10494000F00D1124E951FE4F8289823009F057C2DF
:1049500080915D04811153C20E94BF094BC22A8518
:10496000223009F0E3CC812F8B7F19F0163009F04B
:10497000DDCC309186043B871C868B859C858170BD
:104980009927F10123E0EE0FFF1F2A95E1F7E95D7A
:10499000FD4F23812817190609F0C8CC80916004C7
:1049A0003CCB861B970B8E9FA0018F9F500D9E9F27
:1049B000500D1124509334044093330445CDFC0131
:1049C000E958FB4F10826115710509F4F6CDFC0121
:1049D000EE0FFF1FE15CFD4F11821082DFCD011150
:1049E00002C00E9467058EEF810F823008F4F5C087
:1049F00080915C048130D1F48091D6019091D701EF
:104A000020915B04223049F090934402809343024A
:104A10001092460210924502DCCD9093460280939C
:104A200045021092440210924302D3CD823009F025
:104A3000D0CD812F8B7F09F05DC02091D50130E072
:104A4000C0908504D090860400915B04BDE9EB2EF4
:104A5000B4E0FB2EEFE3F2E082E090E0D7014D916D
:104A60005D917D01241735070CF03FC0B601082E7B
:104A700002C0769567950A94E2F760FD36C0081784
:104A8000A1F1DC01AA0FBB1FA75BBB4F421B530B5D
:104A90000D90BC91A02D4A9FB0014B9F700D5A9F65
:104AA000700D112476956795769567957583648367
:104AB00032960397B9F42091D6013091D7018091B5
:104AC0004302909144024091450250914602840F66
:104AD000951F2817390708F07CCD309344022093A6
:104AE000430296CF83E090E0B9CF081709F315820F
:104AF0001482DECF113019F01A3009F06ACD4091DE
:104B000085045091860450FD28C043FD81CF8091DB
:104B10009F049091A0042091D50130E04091D601EE
:104B20005091D701281739079CF4821B930B609191
:104B30004F0470915004869F9001879F300D969F7F
:104B4000300D11243695279536952795421B530B2A
:104B500050934602409345023CCD20919F043091F2
:104B6000A0048091D50190E08217930764F543FD7E
:104B70002FC0013021F040915B044330A9F0281B85
:104B8000390B40914F0450915004249FC001259F40
:104B9000900D349F900D1124969587959695879545
:104BA00090934602809345028091D3019091D40165
:104BB000811590420CF40DCD8FEF9FE1909346024A
:104BC0008093450206CD2817390714F043FFECCF38
:104BD0001092460210924502E7CF8FE3C82E82E082
:104BE000D82E92E0E92EF12C00915B0460918504AF
:104BF000709186040E1102C070FD5CC0AB010E2CDA
:104C000002C0569547950A94E2F740FD8DC0309159
:104C100052023323D1F081E090E0A0E0B0E00E2C0E
:104C200004C0880F991FAA1FBB1F0A94D2F7862BB6
:104C3000972B90938604809385040E94C1059093DE
:104C400048048093470410925202209151028091AF
:104C50004704909148042817190661F5F701EE0FF3
:104C6000FF1FDF01A756BB4F8D919C912091D5016D
:104C7000281719060CF04BC0DF01AB5CBB4F2D9120
:104C80003C9122533109281B390BE75BFB4F4081D4
:104C90005181249FC001259F900D349F900D1124B8
:104CA0009695879596958795919581959109F601A9
:104CB00095838483F2E0CF0ED11C23E0E216F10449
:104CC00011F52091D6013091D70180914302909146
:104CD00044024091450250914602840F951F9195E0
:104CE000819591092817390708F073CC02500230DA
:104CF00030F4809185049091860490FD6ACC3195C2
:104D000021953109EACE03E0E02EF12C6DCF8091A0
:104D1000D6019091D701919581959109D60115966B
:104D20009C938E931497C6CFF60115821482C2CF3E
:104D30008230F9F424E83CE140E050E02093DC01CB
:104D40003093DD014093DE015093DF0160E17CE5AB
:104D50008CE090E0A70196010E94BD2868E0C62E75
:104D600060E2D62EE12CF12CC21AD30AE40AF50A2D
:104D7000EACC44E853E060E070E04093DC015093FB
:104D8000DD016093DE017093DF01DDCC240135018C
:104D900088169906AA06BB060CF409CD2C013D0124
:104DA00006CD4092E20115CD10926604E5E7F8E0E9
:104DB00085919491A82FA250BB0BFD01808189237E
:104DC00021E009F420E020936504809164048217B7
:104DD00009F435CD2093640480916304882309F499
:104DE0002ECD285846E667E080EB0E94690927CD62
:104DF000811148CD80916204882309F43FC0F701F6
:104E0000E95DFD4F81813D81313009F041C088234A
:104E100021F080915F0481113DC020E44091610444
:104E200061E080E80E9469091092620485E1829D38
:104E3000F001839DF00D1124E951FE4F82898230EB
:104E4000E9F480915D048823C9F00E949E0916C090
:104E5000D11036CD0E94EF048090710490907204BE
:104E6000A0907304B0907404681979098A099B09A9
:104E7000643171058105910508F022CD80E090E054
:104E8000892B11F40C945A170E9400000C945A17A5
:104E90008111BFCF133029F4809151028C3309F472
:104EA000BCCF4A85433051F380916504882331F3A8
:104EB00080918504909186048F3F9140F9F6ADCFA3
:104EC0000E94EF040091BF041091C0042091C1041E
:104ED0003091C204601B710B820B930B653071051E
:104EE0008105910510F40C94411C4090BE046DE7BF
:104EF00072E07E836D834FEDA42E43E0B42E5DEF10
:104F0000852E53E0952E6CED662E63E0762E7BEEBB
:104F1000C72E73E0D72EE5EEEE2EE3E0FE2E10E076
:104F200000E0F4E02F2E33243394AD81BE818D91C7
:104F30009D91BE83AD83282F2250330BF9018081D0
:104F4000D5015C90892311F00C94F41B552011F0CD
:104F50005A945C92D5016D915D01611160C8F401B4
:104F60003082D3014C90F801E050FC4F41100C947A
:104F7000091CD6018C9181110C94091C30824424A7
:104F800043940C94141C6AE0809131048F5FF616F0
:104F900039F05BE0F5120C944C1D80913104815086
:104FA000809331040C944C1DE5E3F4E02BE934E0EC
:104FB00069E874E0D9018D919D919D0142815381F1
:104FC0004817590710F493838283DB014D915D915B
:104FD000BD018417950734F4AD0142505109DA013F
:104FE0008D939C933296B4E0E534FB0719F78091DA
:104FF00065048823D1F08091990490919A042091BE
:105000003504309136042817390720F4909336047C
:105010008093350420918704309188048217930788
:1050200024F49093880480938704113009F45FC8B6
:10503000123009F4A9C80C94121ECF93DF9382E0BA
:105040008093D4038093D5038AED93E09093D703A4
:105050008093D6031092D9031092D80383E692E08E
:105060009093D1038093D00380E88093DA0381E8A2
:105070008093DB030E94FB04FC0181819091D403A7
:10508000482F490F5527551F483051059CF5A281DF
:10509000B381109709F520ED33E03383228320811B
:1050A0002093D2038093D3038091D503820F808312
:1050B0002091D603A22FB091D7038A2F821B891784
:1050C000C8F481813D91C82FD0E0CC5FDE4F38839A
:1050D0008F5F8183F2CFD90118962D913C9119975A
:1050E00021153105C1F720ED33E019963C932E933D
:1050F0001897D5CFDF91CF910895F999FECF92BD42
:1051000081BDF89A992780B50895262FF999FECF89
:105110001FBA92BD81BD20BD0FB6F894FA9AF99AD4
:105120000FBE01960895052E97FB1EF400940E9471
:10513000AA2857FD07D00E94BD2807FC03D04EF4D3
:105140000C94AA2850954095309521953F4F4F4F8C
:105150005F4F089590958095709561957F4F8F4F23
:105160009F4F08950E94DF28A59F900DB49F900D3A
:10517000A49F800D911D11240895A1E21A2EAA1B4F
:10518000BB1BFD010DC0AA1FBB1FEE1FFF1FA217F7
:10519000B307E407F50720F0A21BB30BE40BF50BF4
:1051A000661F771F881F991F1A9469F7609570957D
:1051B000809590959B01AC01BD01CF010895A29F00
:1051C000B001B39FC001A39F700D811D1124911DDB
:1051D000B29F700D811D1124911D08950E943029E8
:1051E00008F481E00895E89409C097FB3EF4909597
:1051F0008095709561957F4F8F4F9F4F9923A9F0B0
:10520000F92F96E9BB279395F6958795779567953E
:10521000B795F111F8CFFAF4BB0F11F460FF1BC082
:105220006F5F7F4F8F4F9F4F16C0882311F096E915
:1052300011C0772321F09EE8872F762F05C06623C3
:1052400071F096E8862F70E060E02AF09A95660F7C
:10525000771F881FDAF7880F9695879597F9089535
:10526000990F0008550FAA0BE0E8FEEF1616170677
:10527000E807F907C0F012161306E407F50798F0DF
:10528000621B730B840B950B39F40A2661F0232BF8
:10529000242B252B21F408950A2609F4A140A69574
:1052A0008FEF811D811D08950E94302908F48FEF32
:1052B0000895DB018F939F930E94B228BF91AF9115
:1052C000A29F800D911DA39F900DB29F900D112460
:1052D0000895AA1BBB1B51E107C0AA1FBB1FA6173D
:1052E000B70710F0A61BB70B881F991F5A95A9F78F
:1052F00080959095BC01CD010895EE0FFF1F05909C
:0A530000F491E02D0994F894FFCF1A
:10530A0001FF1F0F00C180810000001405FF00FF8C
:10531A0000FF000F0F0F0F1E1E03070A0709090FD0
:10532A000F0F0F1E1E03070A0709090F0F0F0F1E83
:10533A001E03070A070909640000080004000400A4
:10534A00040A0A0A640101000101010200000000C6
:10535A00080000000003000000000500000000062D
:10536A000000000000000000000000000000000033
:10537A000000000200000000080000000003000016
:10538A000000050000000006000000000000000008
:10539A000000000000000000000000020000000001
:1053AA0008000000000300000000050000000006DD
:1053BA0000000000000000000000000000000000E3
:1053CA00000000010F0F0F000F000FFF0004010083
:1053DA0000FF01FF1F0A00047F00FF3F20030000B7
:1053EA0064007F010001020003000001070064005D
:1053FA007F00013324000133240000000003000071
:10540A0001070064007F00013324000133240000F7
:10541A00000003000001070064007F00013324003C
:10542A000133240000000100000000000000010018
:10543A00000000000000010000000001000001FF60
:10544A001FFF1FFF1FFF1FFF1FFF1FFF1FFF1FFF62
:10545A001FFF0101000105090A000102030B0600F2
:10546A000000001205F0070F05820E25802B80250B
:10547A001028402E402B082B042B012B0225022535
:08548A000825044D49444900C6
:00000001FF
