:100000000C94DB020C9403030C9403030C94030381
:100010000C9403030C9403030C9403030C94030348
:100020000C9403030C9403030C94C6080C949709D6
:100030000C9403030C9403030C9403030C94030328
:100040000C9403030C9403030C9403030C94030318
:100050000C9491110C9403030C9403030C9447111A
:100060000C9403030C9403030C9403030C940303F8
:100070000C9403030C94E1070C9403030C94030306
:100080000C9403030C9403030C9403030C940303D8
:100090000C9403030C9403030C9403030C940303C8
:1000A0000C9403030C9403030C940303A022A322D7
:1000B000922296229A22C422C422C422A722AB22D0
:1000C000AF22B522B922C422BF22CB159616BE1686
:1000D000E816EF16F91610171D174E174B4A4A4926
:1000E0004A4949484A494948494848474A49494884
:1000F00049484847494848474D4C4C4B4A4949486C
:10010000494847464E4D4D4C4D4C4C4B4847474651
:10011000474646454D4C4C4B4C4B4B4A494848474B
:100120004847464548474645474646454847474667
:100130004746464547464645464545444746464563
:100140004645454446454544454444434544444367
:10015000444343424342424141403E3F4B4B4B4B61
:100160004B4B4B4B4B4B4B4B4B4B4B4A4B4B4B4BE0
:100170004B4B4B4B4B4B4B4B4B4B4B4B4B4B4B4BCF
:100180004B4B4B4B4B4B4B4949494949504A4A4AC7
:100190004A4A4A4A4F4A4E4A4D4A4B4A5454544995
:1001A0004949545454494949494949495353535376
:1001B0005353534B4B4B4B4B4B4B534B5252525253
:1001C000525252525252525251515152505050501A
:1001D000505050504F4F4E4E4D4C4B4A4A4A4A4A4F
:1001E0004A4A4A4A4A4A4A4A4A4A4A4A4A4A4A4A6F
:1001F0004A4A4A4A4A4A4A4A4A4A4A4A4949494963
:100200004949494949494949494949494B4B4B4B56
:100210004B4B4B494B4B4B4B4B4B4B4B484848483C
:10022000484848484848484848484848474A47474F
:100230004747474747474747474747474646464652
:100240004646464645464646454546464444444459
:10025000444444444343424241403F3E7F3C003E8D
:10026000014002420343044505470649074A4848FE
:1002700048484848484848484848484848484848FE
:1002800048484848484848484848484848484848EE
:1002900048484848484848484848484848484848DE
:1002A00048484848484848484848484848494747CF
:1002B00047474747474747474747474747474747CE
:1002C00047474747474747474646474747474545C4
:1002D00045454545454545454545454545454343D2
:1002E00043434343434342424141403F3E3C490034
:1002F00049024900490049004901490049004900B3
:1003000049004900490049004900490049004900A5
:100310004900490049004900490049004900490095
:100320004900490049004900490049004900490085
:100330004900490049004900490049004900490075
:100340004900490049004900490049004900480264
:100350004802480048024801480148004801480056
:10036000480248004800480048014800490047004A
:100370004702470047024700470147004701460040
:100380004700460047004700470047004700470036
:100390004700470047004700470047004700470025
:1003A0004700470047004700470047004700450017
:1003B0004502450045024500450145004501440010
:1003C0004500440045004500450045004500430008
:1003D0004302430043024300430143004301420000
:1003E000420041004200400040003F003E00490002
:1003F00049004900490049004900490049004900B5
:1004000049004900490049004900490049004900A4
:100410004900490049004900490049004900480293
:100420004801480148014800480048004A00470286
:100430004701470147014700470047004700470081
:100440004700470047004700470047004700450274
:100450004501450145014500450045004400430272
:100460004301430143014200410040003E000000BF
:100470000000250028002B002E0031000404040495
:100480000403040502020202040302020202060639
:10049000060606060404020202040404080201100F
:1004A00040804010204080408008020401804020AD
:1004B00010020110801020404020000000020009BE
:1004C0000F0000030401000C000000000000000009
:1004D0000000000000000000000101020101020113
:1004E00002010102010201020102020102010102F4
:1004F0000102012B042B082B022B012B1028402B6F
:10050000802E4025102520254025802B4028802541
:100510000825022504250131803140312031103178
:100520000231012B102B802510252025402B40085F
:100530000B00020202010009040000010202000097
:1005400005240010010524010101042402060524EC
:100550000600010705810310004009040100020A9A
:10056000000000070502024000000705830240006A
:10057000000403090412010002EF020140D80487BD
:10058000EE0001010203014D6F77727920537472FE
:10059000696E67656420496E737472756D656E74FB
:1005A0007300574152424C00070605040100080A37
:1005B0000B0C0D092B2B11241FBECFEFDAE0DEBF91
:1005C000CDBF25E0A6E8B2E001C01D92A832B20777
:1005D000E1F712E0A0E0B1E0E6E6F9E502C005903F
:1005E0000D92A638B107D9F712E0CBEDD2E004C0E6
:1005F0002197FE010E94CA2BCA3DD107C9F70E946C
:1006000096170C94B12C0C940000409194045091D6
:100610009504209192043091930442175307B4F447
:100620009091E8009570E1F39091E80092FD19C077
:100630008093F100809194049091950401968F73BA
:100640009927892B19F48EEF8093E8008091940408
:10065000909195040196909395048093940481E081
:10066000089580E00895CF92DF92EF92FF920F936A
:100670001F93CF93DF931F92CDB7DEB7182F062FAE
:10068000E42E862F880F8E5F99830E94050383E0F6
:100690000E940503F12EC12E9981D92E8C2D8F1920
:1006A000801798F4F601E7FE02C0849101C08081B2
:1006B0000E940503182F80E00E9405038123FFEFAD
:1006C000CF1ADF0A8111EACF01C081E00F90DF91DC
:1006D000CF911F910F91FF90EF90DF90CF900895F1
:1006E000CF93DF938091AB04893069F486E10E9457
:1006F000D6109093DA028093D9021092AB0481E075
:100700008093FC0299C080913202882391F1E0919C
:10071000AB04F0E0EE0FFF1FE75BFD4F808191819E
:100720002FB7F894FC01FF278081892B80832FBF8E
:100730008091AB04883041F485E00E94D6109093FC
:100740009A048093990412C0C091AB04D0E0219622
:10075000E091AB04F0E0EF59FD4F81810E94D6108B
:10076000CC0FDD1FC756DB4F99838883109232026E
:1007700063C08091320281115FC0C091AB04D0E0B0
:10078000E091AB04F0E0EF59FD4F80810E94D6105C
:10079000CC0FDD1FCF5CDC4F99838883E091AB04E5
:1007A000F0E0EE0FFF1FE75BFD4F208131819FB727
:1007B000F894F901FF272081832F8095822380837D
:1007C0009FBFE091AB048E2F90E0E091AB04F0E08E
:1007D000EE0FFF1FEF5CFC4F20813181E091AB04F5
:1007E000F0E0EE0FFF1FE756FB4F40815181241BC5
:1007F000350BFC01EE0FFF1FEF5CFC4F31832083B4
:10080000E091AB04F0E0EE0FFF1FEF5CFC4F808146
:10081000918197FF09C0E091AB04F0E0EE0FFF1F5C
:10082000EF5CFC4F118210828091AB048F5F80934C
:10083000AB0481E080933202DF91CF9108958091E3
:1008400098048F5F8093980480919804823011F40B
:100850002F9A089580919804833069F480E1809301
:10086000810084E00E94191281E08093320210928C
:10087000AB041092980408952F923F924F925F928A
:100880006F927F928F929F92AF92BF92CF92DF92A0
:10089000EF92FF920F931F93CF93DF93CDB7DEB705
:1008A00066970FB6F894DEBF0FBECDBF209133021E
:1008B0008091C2019091C301AC01E4E02E9F400DF4
:1008C000511D1124588B4F8740E952E058874F83C0
:1008D0004FE952E05E834D834CE952E05A874987E5
:1008E00042EA52E05C874B8745EB51E05E874D87DB
:1008F00048E051E05C834B83612C712C212C312C1E
:10090000E12CF12C44E650E05A83498300E010E0EA
:100910001E8A1D8A8D899E89805B9F4F0E94D411FB
:10092000EF81F8858193F887EF838D899E89C8963A
:100930000E94D411ED81FE818193FE83ED838D8928
:100940009E89875C9E4F0E94D411E985FA85819328
:10095000FA87E9878D899E898D960E94D411EB854F
:10096000FC858193FC87EB878D899E89CC960E94BC
:10097000D411ED85FE858193FE87ED878D899E8953
:100980008A5B9F4F0E94D411ED89FE89EE54FE4F81
:1009900080838D899E89C2960E94D411ED89FE893B
:1009A000EA5CFE4F8083C8018D5A9F4F0E94D4118C
:1009B000D82EC8018C5A9F4F0E94D411F801EE5FC7
:1009C000FE4F2D2D30E0382B31832083C801875A0C
:1009D0009F4F0E94D411D82EC801865A9F4F0E9463
:1009E000D411F801E05DFE4F2D2D30E0382B31831E
:1009F00020838D899E89815A9F4F0E94D411ED8951
:100A0000FE89E357FD4F8083C8018F5E9E4F0E9491
:100A1000D411D82EC8018E5E9E4F0E94D411F801C9
:100A2000ED56FD4F2D2D30E0382B31832083A12C46
:100A3000B12C6301FBE1CF1AFDEFDF0AC6018A0D7D
:100A40009B1D0E94D411F501E60DF71DE952FE4FE2
:100A500080833FEFA31AB30A45E1A416B10471F7EE
:100A6000A12CB12C61015CEFC51A5EEFD50AC6015D
:100A70008A0D9B1D0E94D411EB81FC81EA0DFB1DA8
:100A800080838FEFA81AB80A9CE0A916B10479F701
:100A90004F8558895093C5014093C401A12CB12CB6
:100AA00067015AEFC50ED11CC6018A0D9B1D0E941D
:100AB000D411F501EE0DFF1DEB55FD4F91E08111B5
:100AC00001C090E090838FEFA81AB80A93E0A916AE
:100AD000B10451F79101220F331F49805A80A12C94
:100AE000B12CA501420F531F4201C12CD12CC401CE
:100AF0002B8B3C8B498B5A8B0E94D41149895A8984
:100B0000F601E40FF51FE75CFE4F8083EFEF8E1ACE
:100B10009E0AF5E0CF0ED11C2B893C8988E2C816CD
:100B2000D10429F79FEFA91AB90AEAE04E0E511C29
:100B3000F5E0AF16B104A9F64D895E894F5F5F4FAE
:100B40005E8B4D8B0E5F1F4F49815A814E5C5F4F0C
:100B50005A83498353E0E50EF11C84E1280E311CD1
:100B60004B815C81445F5F4F5C834B8355E1650E35
:100B7000711C4D895E894330510509F0CBCE6696D4
:100B80000FB6F894DEBF0FBECDBFDF91CF911F919E
:100B90000F91FF90EF90DF90CF90BF90AF909F901C
:100BA0008F907F906F905F904F903F902F9008951F
:100BB000CF92DF92EF92FF920F931F93CF93DF9329
:100BC000C82F082F10E0E091F902F0E0E057FD4F48
:100BD0006081C801805B9F4F0E94B811E091F902CB
:100BE000F0E0EA5EFD4F6081C80188960E94B8116E
:100BF000E091F902F0E0E35DFE4F6081C801C59627
:100C00000E94B811E091F902F0E0E156FD4F6081D9
:100C1000C801C8960E94B811E091F902F0E0E456CC
:100C2000FD4F6081C801875C9E4F0E94B811E09122
:100C3000F902F0E0EE55FD4F6081C8018D960E94EB
:100C4000B811E091F902F0E0EA5CFE4F6081C80162
:100C5000C2960E94B811E091F902F0E0EB54FE4F09
:100C60006081C801CC960E94B811E091F902F0E0D1
:100C7000EE54FE4F6081C8018A5B9F4F0E94B811FD
:100C80007801EE0CFF1CE091F902F0E0EE0FFF1F7F
:100C9000EE5FFE4F6081C7018D5A9F4F0E94B811D1
:100CA000E091F902F0E0EE0FFF1FEE5FFE4F618171
:100CB000C7018C5A9F4F0E94B811E091F902F0E0F1
:100CC000EE0FFF1FE05DFE4F6081C701875A9F4F07
:100CD0000E94B811E091F902F0E0EE0FFF1FE05D15
:100CE000FE4F6181C701865A9F4F0E94B811E09163
:100CF000F902F0E0E357FD4F6081C801815A9F4F30
:100D00000E94B811E091F902F0E0EE0FFF1FED56DE
:100D1000FD4F6081C7018F5E9E4F0E94B811E09128
:100D2000F902F0E0EE0FFF1FED56FD4F6181C701A4
:100D30008E5E9E4F0E94B81184E1C89F70011124FD
:100D400000E010E0DCE08CEFE81A8EEFF80A80910A
:100D5000F902F801D89FE00DF11D1124E85FFE4F64
:100D60006081C701800F911F0E94B8110F5F1F4F54
:100D70000C30110561F785E1C89F7001112400E076
:100D800010E0D5E18BE1E81A8DEFF80A8091F902C5
:100D9000F801D89FE00DF11D1124E952FE4F60814A
:100DA000C701800F911F0E94B8110F5F1F4F0531BF
:100DB000110561F783E0C89F80011124E12CF12C1B
:100DC00006501F4F2091F90230E0F901EE0FFF1F8E
:100DD000E20FF31FEE0DFF1DEB55FD4F6081C801C3
:100DE0008E0D9F1D0E94B8118FEFE81AF80A83E05C
:100DF000E816F10439F782E3C89FE0011124CC59C9
:100E0000DF4FE12CF12C88E2D82E95E0C92E00E0CE
:100E100010E08091F902C09EF001C19EF00D1124F6
:100E2000D89EE00DF11D1124E75CFE4FEE0DFF1D75
:100E30006081C8018C0F9D1F0E94B8110F5F1F4F6A
:100E40000830110531F78FEFE81AF80A2A9685E085
:100E5000E816F104E1F6DF91CF911F910F91FF9019
:100E6000EF90DF90CF900895BF92CF92DF92EF92F4
:100E7000FF920F931F93CF93DF9386ECE82E82E0CF
:100E8000F82E9CE0C92E93E0D92E01ED12E0C2E1CC
:100E9000D0E0CE010E94D411B82E8093AD04CE01D3
:100EA00001960E94D4118093AC04282F30E03B2996
:100EB000F701219331937F01C8010E94D41190E082
:100EC000F601819391936F0122960F5F1F4FC432F9
:100ED000D105F9F684E290E00E94D41190E090935D
:100EE000B9018093B80180912D02853131F48FE0F2
:100EF00090E09093B9018093B801DF91CF911F9159
:100F00000F91FF90EF90DF90CF90BF900895AF9238
:100F1000BF92CF92DF92EF92FF920F931F93CF93E6
:100F2000DF9306EC12E08CE0C82E83E0D82E91ED22
:100F3000E92E92E0F92EC2E1D0E0F8016181CE0104
:100F40000E94B811F80160810E5F1F4FCE0101961B
:100F50000E94B811F6016081F2E0CF0ED11CC701EA
:100F60000E94B81122968FEFE81AF80AC432D10510
:100F700021F76091B80184E290E00E94B8111092CC
:100F80001E0363E085E290E00E94B811EDE0F5E019
:100F9000259134919FB7F894F901FF272081832F81
:100FA0008095822380839FBF1092D802DF91CF91DA
:100FB0001F910F91FF90EF90DF90CF90BF90AF9077
:100FC00008951F920F920FB60F9211242F933F9303
:100FD0004F935F936F937F938F939F93AF93BF9341
:100FE000EF93FF938091AB04882321F02091AB0411
:100FF000215001C028E08091AB049091AB0498305F
:1010000011F08F5F01C080E09091AB04993039F509
:101010005998809178009091790090934203809341
:10102000410380914103909142032091A9043091A2
:10103000AA04821B930B90934203809341038091F7
:1010400041039091420397FF04C010924203109213
:10105000410380918A028061809381007CC030913D
:10106000320290E0332309F45BC03091AB043111BC
:101070000CC020917800309179003093DA022093EF
:10108000D90221E02093FC022DC030E0220F331F53
:10109000F901E75BFD4F608171815FB7F894FB0157
:1010A000FF276081472F4095462340835FBF4091D3
:1010B000780050917900F901EF5CFC4F5183408337
:1010C00040815181D901A756BB4F2D913C91BA0166
:1010D000621B730B718360832081318137FF02C0F3
:1010E00011821082FC01EF59FD4F80810E9419127C
:1010F000109232028091AB04882369F1E091AB0435
:10110000F0E0EE0FFF1FE75BFD4F808191812FB76D
:10111000F894FC01FF278081892B80832FBF1BC09F
:101120002091780030917900880F991FFC01E756D3
:10113000FB4F31832083E091AB04F0E0EF59FD4F8A
:1011400080810E94191281E0809332028091AB0469
:101150008F5F8093AB04FF91EF91BF91AF919F910F
:101160008F917F916F915F914F913F912F910F9050
:101170000FBE0F901F9018958093E9008091F200A8
:10118000882319F08AE38093E80008951F920F9254
:101190000FB60F9211242F933F934F935F936F934A
:1011A0007F938F939F93AF93BF93CF93EF93FF93CF
:1011B000C091E1008091E100837F8093E100C3FF53
:1011C0000FC01092E90081E08093EB001092EC00D8
:1011D00082E38093ED001092890288E08093F00012
:1011E000C2FF15C083E00E94BC0880919704882349
:1011F00029F0809197048150809397048091960400
:10120000882329F080919604815080939604C4FF2E
:1012100010C08091E2008E7E81608093E200809118
:10122000E1008F7E8093E100809187028E7E806155
:1012300011C0C0FF11C08091E2008E7E806180935A
:10124000E2008091E1008E7E8093E1008091870230
:101250008E7E816080938702FF91EF91CF91BF9145
:10126000AF919F918F917F916F915F914F913F913E
:101270002F910F900FBE0F901F901895DF92EF9255
:10128000FF920F931F93CF93DF93D82E8A017B0198
:10129000E40EF51EEB01CE15DF0571F0D7FE03C09D
:1012A000FE01849101C088810E940503219681116D
:1012B000F2CF8FEF9FEF01C0C801DF91CF911F9157
:1012C0000F91FF90EF90DF9008950F931F93CF93AE
:1012D000DF931F92CDB7DEB782E0898342E450E00E
:1012E0006FE275E080E80E943E090E94C210DC01B6
:1012F00012960D911C9113970115110569F0D801F3
:10130000ED91FC910280F381E02DBE016F5F7F4F74
:10131000C801099597FF07C089810F90DF91CF9190
:101320001F910F910895F80100851185E5CF1F9257
:101330000F920FB60F921124CF92DF92EF92FF928D
:101340000F931F932F933F934F935F936F937F93CD
:101350008F939F93AF93BF93EF93FF93CF93DF93BD
:10136000CDB7DEB76C97DEBFCDBF1092E90080919C
:10137000E80083FFFFC1FE017596DE2ECF2E88E0C8
:101380008E0F8E1729F09091F10090833196F9CF4E
:1013900084E68093960482EF8093E8008D8987FF2E
:1013A00005C09091E80090FFFCCF03C09EEF9093A2
:1013B000E800982F907609F0C5C09E892F89188D76
:1013C00091110CC0803829F4809188028093F1003B
:1013D00002C01092F1001092F1004FC1422F50E074
:1013E000512B913051F4811148C14130510509F020
:1013F00044C1809188028D7F0BC0933061F48111CC
:101400003CC14130510509F038C1809188028260A9
:101410008093880232C1953041F48091E80080FFCA
:10142000FCCF20682093E30028C1963009F05EC00D
:10143000EB8CFC8C1092E9001092950410929404AD
:10144000123091F510929304109292040E94650953
:1014500099E0BE016F5F7F4FDB01E92F1D92EA9596
:10146000E9F799831A8391E09E8390EA98879AE03E
:1014700099872091940430919504275F3F4F3C83D6
:101480002B838D831092E90010929504109294049E
:10149000F0929304E092920449E050E080E00E94D0
:1014A0003E090E946509E9C0F0929304E09292041B
:1014B0000E94C210DC011296ED90FC901397E1148B
:1014C000F10409F4C7C0D701ED91FC910480F581C6
:1014D000E02D6D2D7C2DC7010995009719F00CF0BA
:1014E000CCC0CFC0F701E084F184E9CF973009F494
:1014F000C8C0983021F481E08093F100BEC09930DB
:1015000009F0BBC0837009F0BCC0EFE3F2E081E0FA
:1015100021E036E39081992361F08093E9002093E4
:10152000EB0091919093EC003093ED008F5F87304A
:1015300089F78EE78093EA001092EA008F89809302
:1015400089029BC08B8D9C8D1092E90010929504AE
:10155000109294049093930480939204898D811146
:101560005FC08E899D89913A59F4813209F089C012
:1015700047E050E066E372E080E00E943E097DC0F3
:10158000913209F07EC0833289F4888D90E0982FE3
:1015900088272F89822BA0E0B0E080932E029093C1
:1015A0002F02A0933002B093310267C08032B1F4B1
:1015B0008091E80082FFFCCFE6E3F2E087E08E0F47
:1015C0008E1729F09091F10090833196F9CF84E63F
:1015D000809396048BEF8093E80006C0823209F076
:1015E0004CC08F8980933D0280918602882319F038
:1015F000EEEFFAE002C0E0E0F8E080913602909170
:101600003702A0913802B0913902803B9440A10585
:10161000B10509F07AC080913D0280FF92C075C08B
:101620000E94C210DC0112960D911C9113970115B6
:10163000110539F1D801ED91FC910190F081E02D77
:101640006D2D7C2DC8010995811117C0F801008509
:101650001185EDCF113009F44EC0133091F48F890C
:10166000882309F445C0823081F440E865E082EACD
:1016700095E00E943303882321F08EEF8093E800E9
:1016800079C081E28093EB0075C0813029F440E895
:101690006AE187E895E0EDCF833099F70E94C210A8
:1016A000DC011296ED90FC9013978E010F5F1F4F97
:1016B0006801E114F10479F0D701ED91FC91068005
:1016C000F781E02DB801C7010995080F111DF70139
:1016D000E084F184EECFD8011C92F6010190002045
:1016E000E9F73197BF016C197D0940E0C601C1CF10
:1016F00061E775E002C065E775E06115710509F203
:10170000FB01449150E080E838CF0FB6F894A895DB
:1017100080916000886180936000109260000FBE2D
:10172000A895EE3F2AE0F20739F08091FE0A9091E9
:10173000FF0A91838083A1CF1092FF0A1092FE0AC4
:101740009CCFEE3F8AE0F80731F080819181909341
:10175000FF0A8093FE0A87E797E7918380839BE0E7
:1017600088E10FB6F894A895809360000FBE90931F
:10177000600083CF6C960FB6F894DEBF0FBECDBF6E
:10178000DF91CF91FF91EF91BF91AF919F918F9199
:101790007F916F915F914F913F912F911F910F9189
:1017A000FF90EF90DF90CF900F900FBE0F901F90A3
:1017B00018956F927F929F92AF92BF92CF92DF92D5
:1017C000EF92FF920F931F93CF93DF9300D01F925E
:1017D000CDB7DEB7382F8B0180918902811103C00C
:1017E0008FEF9FEF8AC08091870280FF05C08091B4
:1017F000E00082608093E0003A01F12C8AEFE82E4D
:10180000832F8770C82E90E4B92E832F8072A82E64
:10181000832F8074982E2AE3D22E6114710409F468
:1018200066C08FB7F894C092E9009091E80095FFE8
:1018300005C09091F2002B2D291B01C020E08FBF25
:10184000211110C0EA94EE2059F261E070E080E0CE
:1018500090E039834A835B830E94011139814A8178
:101860005B81DBCF822F90E0681679060CF4262D81
:101870006FB7F894C092E9008091E80085FF35C009
:10188000822F90E0681A790AAA2029F02150A8F046
:101890001092F100FBCFF80137FF07C0215058F03C
:1018A00074917093F1003196F9CF215020F071912D
:1018B0007093F100FACF080F191FFF2019F0D09292
:1018C000E8000BC08091E80085FD09C0D092E800D7
:1018D000FF24F3946114710441F0F12C06C06114EB
:1018E000710419F49110D092E8006FBF96CFF110F7
:1018F00098CF84E680939704CA010F900F900F90C1
:10190000DF91CF911F910F91FF90EF90DF90CF90DB
:10191000BF90AF909F907F906F9008950F931F930B
:10192000CF93DF9300D000D0CDB7DEB76150807F7A
:10193000F894E82FF0E094E0F595E7959A95E1F7B3
:10194000E9836F70682B6A834F774B832F772C83E3
:101950000CEC14E0F801838144E050E0BE016F5FBD
:101960007F4F8F5F0E94D90BF80183818F5F0E94A8
:10197000BC0878940F900F900F900F90DF91CF914B
:101980001F910F910895CF92DF92EF92FF920F93E4
:101990001F93CF93DF9386E1C82E82E0D82E9DE27D
:1019A000E92E91E0F92ED0E008E210E0C8010E9493
:1019B000D411C82FF60181936F01C8010D960E94C2
:1019C000D411F70180838091F202882391F02EE1F7
:1019D0002C0F2D0F46E667E080EB0E948E0CF7017E
:1019E000208147E4400F27FD215867E080EB0E94EB
:1019F0008E0C0F5F1F4FFFEFEF1AFF0AD65FDE312D
:101A0000A9F6DF91CF911F910F91FF90EF90DF909A
:101A1000CF9008952F923F924F925F926F927F9254
:101A20008F929F92AF92BF92CF92DF92EF92FF92EE
:101A30000F931F93CF93DF93CDB7DEB72F970FB6DA
:101A4000F894DEBF0FBECDBF00910A030C878091D2
:101A5000C80190E01091B3021F8780900803909016
:101A600009032091BA012D83609106037091070349
:101A700040913402509135025F834E83A091C6019C
:101A8000B091C701B987A887EAE1F2E0FA83E98358
:101A90000DEF12E01E870D871DEDA12E12E0B12E75
:101AA0002FE133E03C832B8304EB602E02E0702EA9
:101AB00020E030E0A4010F8402C0569547950A94B7
:101AC000E2F7DA01A170BB27BB87AA87212C312C52
:101AD00021012394BC85B11142C0AB81BC814D91E1
:101AE0005C91841795079CF5BF85B21330C00A85B9
:101AF0001B85012B61F51D81113099F4D301CD9027
:101B0000DC907A01E81AF90AEC9C8001ED9C100D3A
:101B1000FC9C100D1124B3E016950795BA95E1F7DA
:101B200014C0BD81B23099F4D301CD90DC907A011C
:101B3000E81AF90AEC9C8001ED9C100DFC9C100D3C
:101B4000112416950795169507951183008348175C
:101B500059072CF4AD85BE851C9211821082D22EBD
:101B6000AB81BC814D915D91BC83AB834817590714
:101B7000C4F48B01022E02C0169507950A94E2F771
:101B800000FF0FC082017101022E04C0EE0CFF1C89
:101B9000001F111F0A94D2F787010095109560234A
:101BA00071230E811F810D2C02C0169507950A9492
:101BB000E2F700FF5BC08B010D2C02C01695079564
:101BC0000A94E2F700FD52C0BC85B13031F0B1118A
:101BD0004DC00F85021709F449C0841795074CF5CD
:101BE00084010D2C02C0169507950A94E2F700FFB8
:101BF00009C011821082481759073CF5AD85BE8592
:101C00001C9223C0481B590BD501ED90FC904E9DB2
:101C100080014F9D100D5E9D100D112416950795A6
:101C2000169507951183008301E0AD85BE850C9361
:101C30000CC048175907ECF284010D2C02C0169510
:101C400007950A94E2F700FDD4CFAD85BE854C918F
:101C5000413061F4A40102C056954795DA94E2F749
:101C600040FF04C008851985118300832F5F3F4F13
:101C700032964D855E854F5F5F4F5E874D8752E0A0
:101C8000A50EB11CA2E06A0E711C2930310509F0C5
:101C900021CF709307036093060380E090E0E98111
:101CA000FA8121913191FA83E983820F931FEC52DB
:101CB000F240A9F79093CA018093C901811590421F
:101CC00034F08FEF9FE19093CA018093C901209176
:101CD000C9013091CA018FEF9FE1821B930B2091C4
:101CE000DB023091DC02820F931F97FD05C09093B9
:101CF000CA018093C90104C01092CA011092C9019F
:101D00004091C9015091CA018091D5019091D601AD
:101D100084179507D1F080910A038230B0F4809146
:101D2000F102882391F09A01220F232F221F330BF7
:101D30004F7761E080EE0E948E0C8091C9019091F6
:101D4000CA019093D6018093D5012F960FB6F894CF
:101D5000DEBF0FBECDBFDF91CF911F910F91FF90DE
:101D6000EF90DF90CF90BF90AF909F908F907F903B
:101D70006F905F904F903F902F90089590918902BF
:101D8000992311F057FF03C08FEF9FEF08952FB7EE
:101D9000F89487708093E9008091F20090E08417B6
:101DA00095070CF4AC01842FFB0194E6815030F0D0
:101DB000909396043091F1003193F8CF411551057D
:101DC00021F08091F200882319F02FBFCA010895F5
:101DD0008BE68093E800F9CF9FB7F89487708093E3
:101DE000E9008091F2009FBF0895CF92DF92EF92B9
:101DF000FF920F931F93CF93DF936C017A018B01B6
:101E0000C0E0D0E0CE15DF0589F0D8016D918D01DD
:101E1000D601ED91FC910190F081E02DC60109956C
:101E2000892B11F47E0102C02196ECCFC701DF910E
:101E3000CF911F910F91FF90EF90DF90CF90089579
:101E4000CF93DF931F92CDB7DEB76983DC01ED91AD
:101E5000FC910280F381E02D41E050E0BE016F5F14
:101E60007F4F09950F90DF91CF9108953FB7F89478
:101E70008091BC049091BD04A091BE04B091BF04B8
:101E800026B5A89B05C02F3F19F00196A11DB11DD5
:101E90003FBFBA2FA92F982F8827820F911DA11D10
:101EA000B11DBC01CD0143E0660F771F881F991F4C
:101EB0004A95D1F7089580E090E0089580E0089574
:101EC000FC0182818F5BFB01808381E0089508958E
:101ED0000E943B2CCF93DF93EC0180913D0288233D
:101EE00031F083E00E94D90B1816190634F081E016
:101EF00090E09B838A8380E090E0DF91CF9108950A
:101F000083E00C94BC08CF93DF931F92CDB7DEB76C
:101F1000FC018485958597FD05C02FEF3FEF358740
:101F200024870FC041E050E0BE016F5F7F4F82E029
:101F30000E94BE0E019719F4898190E002C08FEFD4
:101F40009FEF0F90DF91CF9108950F931F93CF9341
:101F5000DF931F92CDB7DEB78C01FC018485958598
:101F600097FF12C041E050E0BE016F5F7F4F82E0FB
:101F70000E94BE0E019719F4298130E002C02FEFB4
:101F80003FEFF80135872487F801848595850F9008
:101F9000DF91CF911F910F910895FC018485958564
:101FA00097FD06C082E00E94EC0E90E00196089535
:101FB00082E00E94EC0E90E008958DE499E4A4E4A0
:101FC000B9E4FB0180839183A283B38384E0089505
:101FD000CF92DF92EF92FF920F931F93CF93DF93F5
:101FE000CDB7DEB7C456D1090FB6F894DEBF0FBE29
:101FF000CDBF6C01DB019C919E5F9C93FE013196ED
:1020000084E6DF011D928A95E9F788E089838BE0F9
:102010008A8322E02C8391E09D839E8339E0398777
:1020200074E07A879E879F873A8B44E24B8B9C8B28
:1020300000E011E01E8B0D8B89E0E82EF12CF88E6C
:10204000EF8A998F3B8F7C8F2F8F98A353E059A3F2
:1020500087E08CA34DA39EA318A70FA301E410E073
:102060001AA709A786E08BA74CA72DA79EA79FA715
:1020700089AB4AAB2BAB2CAB2DAB3FAB48AF59AFC9
:102080009AAF5BAF9CAF2DAF9EAF21963FAF21972C
:1020900022964FAF229723965FAF239724962FAFB8
:1020A000249725967FAF259726969FAF269727964C
:1020B0009FAF279728969FAF28972A963FAF2A97DA
:1020C00045E02B964FAF2B972D962FAF2D9760E4C1
:1020D00070E02F967FAF6EAF2F9763964FAF6397E9
:1020E00085E264968FAF649765969FAF6597669615
:1020F0009FAF669767969FAF679768963FAF689761
:1021000069964FAF69976B962FAF6B976D967FAFC0
:102110006EAF6D97A1964FAFA197A2968FAFA29782
:10212000A3969FAFA397A4969FAFA497A5965FAFE2
:10213000A597D60112969C9112979B839B879F5FD0
:102140009A8F9D8F13968C912C968FAF2C978F5FC3
:1021500080686A968FAF6A9744E650E0BF0180E0DE
:102160000E943E09CC59DF4F0FB6F894DEBF0FBE78
:10217000CDBFDF91CF911F910F91FF90EF90DF9036
:10218000CF9008958091C40481110DC082E08093A6
:10219000C00484E08093C1041092C3041092C2046E
:1021A00081E08093C40480EC94E00895823108F0CB
:1021B0008251E82FF0E0E855FA4FE49180917B00DE
:1021C000E3FB222720F930E095E0220F331F9A9598
:1021D000E1F78F7D282B20937B00E770E064E0938C
:1021E0007C0080917A00806480937A0080917A00EC
:1021F00086FDFCCF809178002091790090E0922BB1
:1022000008958F929F92AF92BF92CF92DF92EF92FA
:10221000FF926B017C010E94360F4B015C01C114DF
:10222000D104E104F104F1F00E94360FDC01CB018E
:1022300088199909AA09BB09883E9340A105B105EF
:1022400070F321E0C21AD108E108F10888EE880E87
:1022500083E0981EA11CB11CC114D104E104F10457
:1022600019F7DDCFFF90EF90DF90CF90BF90AF9048
:102270009F908F9008952FB7F8946091B804709153
:10228000B9048091BA049091BB042FBF08951F92A6
:102290000F920FB60F9211242F933F938F939F931A
:1022A000AF93BF938091B8049091B904A091BA0400
:1022B000B091BB043091B70426E0230F2D3720F4F2
:1022C0000296A11DB11D05C029E8230F0396A11D8B
:1022D000B11D2093B7048093B8049093B904A093E0
:1022E000BA04B093BB048091BC049091BD04A0914A
:1022F000BE04B091BF040196A11DB11D8093BC0422
:102300009093BD04A093BE04B093BF04BF91AF915E
:102310009F918F913F912F910F900FBE0F901F9023
:1023200018951F920F920FB60F9211242F933F937F
:102330004F935F936F937F938F939F93AF93BF93CD
:10234000EF93FF93E0910001F09101010995FF9156
:10235000EF91BF91AF919F918F917F916F915F911D
:102360004F913F912F910F900FBE0F901F90189596
:102370000F931F93CF93DF931F92CDB7DEB78C01DE
:1023800069830E94402C6981681741F0C8010F9051
:10239000DF91CF911F910F910C94482C0F90DF91FA
:1023A000CF911F910F9108950C94402C1092EF0241
:1023B000E091F90285E1E89FF0011124E952FE4F16
:1023C0008685813049F018F0823059F008952189CE
:1023D0004089678580E909C021894089678580E84F
:1023E00004C021894089678580EB0C948E0C81E0C4
:1023F0008093EF02E091F90285E1E89FF00111245A
:10240000E952FE4F8285813049F018F0823059F050
:10241000089525854485638580E909C0258544851F
:10242000638580E804C025854485638580EB0C9432
:102430008E0C823108F08251E82FF0E0E855FA4F17
:10244000E49180917B00E3FB222720F930E095E0C6
:10245000220F331F9A95E1F78F7D282B20937B0065
:10246000E770E064E0937C0080917A008864809358
:102470007A0008959C012F5F3F4F28233923232B97
:1024800079F09C0140E050E080E0121613063CF425
:1024900020FF842F359527954F5F5F4FF6CF089526
:1024A0008FE70895AF92BF92CF92DF92EF92FF92A3
:1024B0000F931F93CF93DF938091F90290E0DC019B
:1024C000A156BD4FE1E02C91211101C0E0E0E09365
:1024D000B60421E0DC01A456BD4F3C91311101C08E
:1024E00020E02093F40201E0DC01A057BD4F2C91C5
:1024F000211101C000E00093B5049C01220F331F9D
:10250000D901AE5FBE4F4D915C915093350240931F
:10251000340241E0DC01AE55BD4F5C91511101C068
:1025200040E04093AE02DC01AE54BB4F4C9140936F
:10253000FB02DC01A35DBE4F4C914093FA02DC012B
:10254000AB54BE4F4C9140930A0311E0DC01A357FA
:10255000BD4F4C91411101C010E01093B104D9015D
:10256000AD56BD4FCD91DC91D093B004C093AF0474
:10257000DC01AA5CBE4F4C914093C801D901A05D1B
:10258000BE4F2D913C913093C7012093C601DC01D1
:10259000AE54BE4F2C912093190246E0E49F900167
:1025A00011244CE0489FF001499FF00D1124DF01F8
:1025B000A20FB31FA85FBE4FFC90F0923302E85FFA
:1025C000FE4FE20FF31F81818093C10182818093CE
:1025D000BC0183818093BB01848190E09093C00112
:1025E0008093BF01858190E09093BE018093BD01EF
:1025F0008FEF9FE19093CA018093C9011092DC0292
:102600001092DB020E943B116093F5027093F60278
:102610008093F7029093F8024091C9015091CA014A
:102620009A01220F232F221F330B4F7761E080EE98
:102630000E948E0CEAE1F2E0ADEFB2E0119211924D
:102640001D9282E0EC32F807C9F7002389F0E0918F
:10265000F902F0E0EA5EFD4F8081823010F08430B4
:1026600039F480910A03813019F480930B0302C07E
:1026700010920B0311110AC080918B0290918C0271
:1026800003969093C3018093C20105C02396D09313
:10269000C301C093C2018091C2019091C301A4E023
:1026A000FA9E800D911D11249093C5018093C40161
:1026B0008091C8010EEC1FEF081B1109C091C601E3
:1026C000D091C70193E0CC0FDD1F9A95E1F7E6ECBE
:1026D000F2E024EBC22E22E0D22E3DEDE32E32E0DA
:1026E000F32E4CEFA42E4FE7B42E21913191200F01
:1026F000311FC501B9010E94B62BD6016D937D93A0
:102700006D01CE01B9010E94B62B76956795D70170
:102710006D937D937D01B2E0E83DFB0731F7E091D9
:10272000F90225E1E29FF0011124E952FE4F868172
:1027300048E0849FC00111248C599F4F9093D4018D
:102740008093D3018085A1E88A9FC00111249093D2
:10275000CC018093CB018185B1E88B9FC00111240E
:102760009093CE018093CD01DF91CF911F910F9176
:10277000FF90EF90DF90CF90BF90AF900895CF93F0
:10278000DF934091F90250E0C82FD0E0FA01EE0F3C
:10279000FF1FE40FF51FEC0FFD1FEB55FD4F808170
:1027A0008823E9F085E08C9FF0018D9FF00D1124C6
:1027B00088E2849F9001859F300D1124E20FF31F62
:1027C000E75CFE4F818181110AC0248143816281CF
:1027D00080E90E948E0CC756DD4F81E08883DF912F
:1027E000CF910895EF92FF920F931F93CF93DF93B2
:1027F0002EE54EE667E080EB0E948E0C20911602DB
:10280000225E46E667E080EB0E948E0C2091170264
:10281000285D46E667E080EB0E948E0C209118024E
:102820002E5C46E667E080EB0E948E0C2091F90258
:10283000245C46E667E080EB0E948E0C2091C80184
:1028400047E667E080EB0E948E0C2091C601309134
:10285000C701A4E6B0E00E94A22C2FEF3FE140E0C8
:1028600050E00E94802C45E767E080EB0E948E0CD0
:1028700020910A032A5B46E667E080EB0E948E0CFB
:1028800020911902205B46E667E080EB0E948E0CE7
:102890002091F302285846E667E080EB0E948E0CF8
:1028A0002091AE02215C46E667E080EB0E948E0C30
:1028B0002091B6042F5B46E667E080EB0E948E0C09
:1028C0002091F4022D5B46E667E080EB0E948E0CBF
:1028D0002091B504205F4AE667E080EB0E948E0CF1
:1028E0002091B104295D4AE667E080EB0E948E0CDE
:1028F0002091B8014DE667E080EB0E948E0C22E249
:1029000048E667E080EB0E948E0CC091AF04D09146
:10291000B0042C2F2F7749E667E080EB0E948E0CE5
:1029200023E248E667E080EB0E948E0C9E01220FB6
:10293000232F221F330B49E667E080EB0E948E0CA9
:1029400020912D0127FD21584FE667E080EB0E9482
:102950008E0C20912E0127FD215840E767E080EB87
:102960000E948E0C20912F0127FD08C041E767E0EF
:1029700080EB0E948E0CC0E0D0E002C02158F6CF60
:10298000E091F902F0E0EE0FFF1FEE5FFE4F2081B5
:1029900031810C2E02C0369527950A94E2F72170FA
:1029A000220F822F880F880F280F8C2F8C5E280F04
:1029B0004AE667E080EB0E948E0C2196C930D10573
:1029C000F9F600E010E035E0E32E48E2F42E2AE5C7
:1029D000200F46E667E080EB0E948E0C8091F902A2
:1029E000E09EE001E19ED00D1124FE01F89EE00D75
:1029F000F11D1124E75CFE4F20812C5946E667E06B
:102A000080EB0E948E0C8091F902FE01F89EE00D91
:102A1000F11D1124E75CFE4F8081813099F5218101
:102A2000205946E667E080EB0E948E0C8091F90207
:102A3000FE01F89EE00DF11D1124E75CFE4F22819E
:102A40004AE667E080EB0E948E0C8091F902FE015D
:102A5000F89EE00DF11D1124E75CFE4F23814BE64B
:102A600067E080EB0E948E0C8091F902F89EC00D09
:102A7000D11D1124C75CDE4F2C814CE667E080EB52
:102A80000E948E0C0F5F1F4F0830110509F09FCF79
:102A9000C0E0D0E015E12C2F235F48E667E080EB33
:102AA0000E948E0C8091F902FE01189FE00DF11D2D
:102AB0001124E952FE4F208149E667E080EB0E9435
:102AC0008E0C2196C531D10531F7C0E0D0E02C2F16
:102AD000265A46E667E080EB0E948E0C8091F90250
:102AE00090E0FC01EE0FFF1FE80FF91FEC0FFD1F38
:102AF000EB55FD4F20812B5846E667E080EB0E94A6
:102B00008E0C2196C330D10511F7C0E0D0E01CE057
:102B10002C2F2F5F48E667E080EB0E948E0C80919F
:102B2000F902FE01189FE00DF11D1124E85FFE4F30
:102B3000208149E667E080EB0E948E0C2196CC3024
:102B4000D10531F7DF91CF911F910F91FF90EF9059
:102B500008950F931F93CF93DF934091F902C82FED
:102B6000D0E0242F30E098E2499FF0011124A5E045
:102B70008A9FE00DF11D1124E75CFE4FE0818E2F4E
:102B800090E0FC013197E930F10508F09DC1EB5967
:102B9000FF4F0C94CA2B85E08C9FF0018D9FF00DA8
:102BA000112448E2429FC001439F900D1124E80F79
:102BB000F91FE75CFE4F8181811116C08E01075617
:102BC0001D4FD8018C91248143816281811107C0FE
:102BD00080E90E948E0C81E0F801808305C080E8C6
:102BE0000E948E0CD8011C928091F90295E09C9F66
:102BF000F0019D9FF00D1124B8E28B9FE00DF11DB7
:102C00001124E75CFE4F8181813031F424814381BE
:102C1000628180EB0E948E0C8091F90295E09C9F6E
:102C2000F0019D9FF00D112498E2899FE00DF11DA8
:102C30001124E75CFE4F8181823021F4638182811F
:102C40000E9469178091F90295E09C9FF0019D9F79
:102C5000F00D1124282F30E0A8E28A9FE00DF11D2D
:102C60001124E75CFE4F8181833061F58091AE04D1
:102C70008F3720F48F5F8093AE0402C01092AE04B1
:102C800085E08C9FF0018D9FF00D112448E2429F5A
:102C9000C001439F900D1124E80FF91FE75CFE4F20
:102CA0006091AE0482810E94691781E080934303A2
:102CB0000E943B116093AF027093B0028093B10207
:102CC0009093B2028091F90295E09C9FF0019D9F44
:102CD000F00D1124282F30E0B8E28B9FE00DF11D9C
:102CE0001124E75CFE4F8181843009F0EDC08091B2
:102CF000AE04882311F0815001C08FE78093AE04A9
:102D000085E08C9FF0018D9FF00D112448E2429FD9
:102D1000C001439F900D1124E80FF91FE75CFE4F9F
:102D20006091AE0482810E946917C1C0F901EB5421
:102D3000FE4F80818F5F833011F0808301C010824D
:102D40000E94521280910A03882311F08F5F01C004
:102D500081E0809343030E943B116093AF02709324
:102D6000B0028093B1029093B2028091F202882364
:102D700009F4AAC020910A032A5B87C04F5F433041
:102D800019F04093F90202C01092F9021092F00279
:102D90000E9452128091F902882311F08F5F01C0C6
:102DA00081E0809343030E943B116093AF027093D4
:102DB000B0028093B1029093B2028091F202882314
:102DC00009F482C0DF91CF911F910F910C94F213FF
:102DD0009091F00281E089278093F00275C0809184
:102DE000FB02833094F4F901EE54FB4F80818F5F36
:102DF00009C08091FB028D3F44F0F901EE54FB4F76
:102E00008081815080830E9452128091FB02082EA3
:102E1000000C990B97FF4CC091958195910948C082
:102E2000C1E020E04BE76C2F80EB0E948E0C1092EB
:102E3000EF02CF5FC131A9F747C0F901EE54FE4F51
:102E400080818F5F843011F0808301C010820E94E6
:102E500052121092F00280911902882311F08F5FB4
:102E600001C081E0809343030E943B116093AF0255
:102E70007093B0028093B1029093B2028091F202FB
:102E8000882311F120911902205B46E667E080EB70
:102E9000DF91CF911F910F910C948E0C8091EF02D6
:102EA000811103C00E94F71102C00E94D61181E077
:102EB000809343030E943B116093AF027093B00272
:102EC0008093B1029093B202DF91CF911F910F9145
:102ED00008950F931F93CF93DF9300D000D0CDB709
:102EE000DEB78150F8949CE099838F70806C8A8360
:102EF0006F776B831C820CEC14E0F801838144E053
:102F000050E0BE016F5F7F4F8F5F0E94D90BF801C9
:102F100083818F5F0E94BC0878940F900F900F9070
:102F20000F90DF91CF911F910F910895CF93DF9371
:102F3000CDB7DEB72C970FB6F894DEBF0FBECDBF6E
:102F4000789484B5826084BD84B5816084BD85B584
:102F5000826085BD85B5816085BD80916E00816090
:102F600080936E0010928100809181008260809336
:102F70008100809181008160809381008091800038
:102F800081608093800080919100826080939100A5
:102F90008091910081608093910080919000816088
:102FA000809390008091C10084608093C1008091E3
:102FB000C10082608093C1008091C10081608093D4
:102FC000C1008091C30081608093C3008091C000E4
:102FD00082608093C0008091C20081608093C200B3
:102FE00080917A00846080937A0080917A00826078
:102FF00080937A0080917A008E7F80937A0080910E
:103000007A00806880937A00109289021092880278
:10301000109287028091D70081608093D70080EA68
:103020008093D80089B58F7E89BD89B5826089BDBE
:1030300009B400FEFDCF61E070E080E090E00E9406
:1030400001118091D8008F7C80618093D80080919D
:10305000E000807F8093E0008091E1008E7E80938D
:10306000E1008DE08093E200EEEFFFE7859194911F
:103070008B3F9C4D19F481E0809386028FEF809303
:103080007E0083EF80937D009DE0292E95E0392E10
:10309000F101859194912FB7F894FC01FF2782915B
:1030A000892B80832FBFE5E1F5E0859194912FB7BF
:1030B000F894FC01FF27DF013E91892F809583233F
:1030C0008C938081892B80832FBFE9E4F2E081918A
:1030D00091912FB7F894DC01BB278E91892B8C93AB
:1030E0002FBF32E0EB35F30791F72198299A229808
:1030F0002A9A23982B9A85E893E00E94D4118E3562
:1031000051F06EE585E893E00E94B8116FEF8CE214
:1031100090E00E94B81184E893E00E94D4118531B8
:1031200011F480932D028CE290E00E94D411833040
:1031300009F44DC01092F90280E00E94D80581E0A8
:103140008093F9020E94D80582E08093F9020E94E0
:10315000D8051092F90283E0809343030E943B114B
:103160006093AF027093B0028093B1029093B20269
:1031700008E210E0C8010E94D411682FC8018057EE
:103180009E4F0E94B8110F5F1F4F003441E014079B
:1031900089F705EE12E0C8010E94D411682FC8011A
:1031A000CF960E94B8110F5F1F4F043253E01507EE
:1031B00091F786E290E00E94D411682F84E290E0BB
:1031C0000E94B81163E08CE290E00E94B81185E2A1
:1031D00090E00E94D411833011F40E9434070E94C1
:1031E000C30C0E943C0486E10E94D61086E10E9436
:1031F000D61086E10E94D61090938C0280938B02A9
:1032000090938504809384040E945212F101859169
:1032100094912FB7F894FC01FF278081892B80833C
:103220002FBF64EF71E080E090E00E940111F10196
:10323000259134919FB7F894F901FF272081832FBE
:103240008095822380839FBF80912D02853141F537
:1032500080917A00887F80937A0080917A008560DF
:1032600080937A0080E1809381001092800081E059
:1032700080938A0228EA32E0309345032093440386
:10328000309387002093860091E19093810020E79E
:1032900033E0309301012093000180936F002DC033
:1032A00080E1809381001092800091E090938A02E7
:1032B00020E931E0309345032093440330938700A5
:1032C0002093860021E1209381002FE134E03093A8
:1032D00001012093000190936F0080938100809101
:1032E0007A00887F80937A0084E880937A0080E473
:1032F00080937C0081E00E94191205E0B02E88E2E4
:10330000A82EF8948091460490914704A091480417
:10331000B091490440914A0450914B0460914C048F
:1033200070914D04841B950BA60BB70B8F739927D7
:10333000AA27BB27892B8A2B8B2B09F05FC0809192
:10334000CF040E94EC0E882309F46CC0C0904604A0
:10335000D0904704E0904804F09049048FEFC81AD9
:10336000D80AE80AF80A9FE3C922DD24EE24FF24E4
:1033700080914A0490914B04A0914C04B0914D046B
:10338000C816D906EA06FB06C9F18091CF040E944F
:10339000EC0E44E050E0BE016F5F7F4F8091CF04A0
:1033A0000E94BE0E049754F1809146049091470408
:1033B000A0914804B0914904880F991F880F991F64
:1033C000FC01EA5BFC4F49815A816B817C8140831F
:1033D000518362837383C0924604D0924704E09283
:1033E0004804F0924904AFEFCA1ADA0AEA0AFA0A64
:1033F000BFE3CB22DD24EE24FF24BACF80914A0420
:1034000090914B04A0914C04B0914D04880F991FEA
:10341000880F991FFC01EA5BFC4F9081818102813A
:10342000138104C010E000E080E090E0C09046040A
:10343000D0904704E0904804F090490440914A0439
:1034400050914B0460914C0470914D04C416D50604
:10345000E606F706C1F040914A0450914B04609192
:103460004C0470914D044F5F5F4F6F4F7F4F4F7310
:1034700055276627772740934A0450934B0460935F
:103480004C0470934D047894992309F4E4C38F702D
:10349000863009F036CFDD24D394D09243030E94C6
:1034A0003B116093AF027093B0028093B10290938E
:1034B000B202063609F009C2E12EF12C8FEF810F1E
:1034C000823150F510FD1DC0970135952795F90102
:1034D000EE0FFF1FEC53FD4F808191810597918383
:1034E00080834091B8015091B901841B950BC2971C
:1034F000059708F52D5E46E667E080EB0E948E0C8E
:103500001AC0F7013196EE7FEC53FD4F8081918117
:103510000596918380830FC0133131F40E94870791
:1035200083E08093430345C01F3729F4109243037F
:10353000D0921E033EC01E3741F481E08093F20218
:10354000109243030E94F21334C01F3331F4E09110
:10355000F902F0E0EE55FD4F1FC0103431F4E09158
:10356000F902F0E0EE55FD4F20C0113431F4E09146
:10357000F902F0E0E156FD4F0FC0123431F4E09152
:10358000F902F0E0E156FD4F10C0133439F4E09138
:10359000F902F0E0E456FD4F108209C0143449F4FA
:1035A000E091F902F0E0E456FD4F81E080830E9453
:1035B000521282EE810F873020F4809316020E940F
:1035C000521288ED810F873020F4809317020E94F9
:1035D00052128EEC810F873020F4809318020E94E3
:1035E0005212ECE3EE16F10461F41092F90210921B
:1035F000F0020E9452120E94F21381E08093430372
:103600000FC0FDE3EF16F10459F481E08093F90255
:103610001092F0020E9452120E94F21382E00EC039
:103620002EE3E216F10461F482E08093F902109235
:10363000F0020E9452120E94F21383E0809343032F
:10364000E6E4CE2ED12C8AEB8C0DEC14FD0489F42B
:10365000E091F902F0E0EB54FE4F80830E94521299
:1036600080910A03882311F08F5F01C081E080936D
:1036700043033FEFC31AD30A49E4C416D10419F730
:1036800070E5C72ED12C80EB8C0DEC14FD0489F471
:10369000E091F902F0E0EE54FE4F80830E94521256
:1036A00080911902882311F08F5F01C081E080931F
:1036B00043035FEFC51AD50A85E5C816D10419F78B
:1036C0002091B101309143038AE590E046EA480F2A
:1036D000E816F90611F4242F30E0019682369105A0
:1036E000A9F72093B101309343033091F90240E0F0
:1036F000A39ED0011124B29EA00DB11D1124A75C80
:10370000BE4FFD0131962417B1F04F5F4830D9F715
:10371000E32FF0E0F12C822F90E0AF01440F551F12
:10372000E40FF51FE80FF91FEB55FD4F31E0DC0109
:10373000A756BD4F1FC084E690E05CE9580FE8161D
:10374000F90609F45C93019680379105B1F750E9C9
:10375000580FE816F90609F450830196853791054C
:10376000B1F7D3CF153749F410821C92F39493E04C
:10377000F91639F02F11FACFF5CF1637B9F7308394
:10378000F4CF1B37A9F48091F9020E94D8050E945A
:10379000C30C0E943C04F09243030E943B116093CF
:1037A000AF027093B0028093B1029093B2022BC229
:1037B0001C37D9F4E12C33E0F32E8E2D0E94D8056E
:1037C0000E94C30C0E943C04F09243030E943B11F0
:1037D0006093AF027093B0028093B1029093B202F3
:1037E000E394A3E0EA12E9CF0EC21D3709F00BC241
:1037F00028EBE22EFF24F394C7010E94D411682F16
:10380000C701805991400E94B811BFEFEB1AFB0A23
:10381000E0EDEE16E2E0FE0679F794E2E92E93E0A1
:10382000F92EC7010E94D411682FC701CF970E94BB
:10383000B811FFEFEF1AFF0A23E6E21623E0F206C3
:1038400081F780912D028631D0F486E290E00E94CB
:10385000D411682F84E290E00E94B8110E94C30C3A
:103860000E9434070E943C0481E08093F2020E948F
:1038700052120E94F21383E080934303C4C1E12CEF
:10388000F12CC7010E94D411682FC70142960E94F3
:10389000B8113FEFE31AF30A42E1E416F10489F7A5
:1038A0008BEDE82E82E0F82EC7010E94D411682F1C
:1038B000C7010A970E94B8115FEFE51AF50A85EE75
:1038C000E81682E0F80681F7C0CF073631F4E091C0
:1038D000F902F0E0EA5CFE4F57C00537D1F4E09002
:1038E000F902F12CC701880F991FDC01A05DBE4FC2
:1038F0007D01212F30E0AFEFBFE10E94A22C24E632
:1039000030E040E050E00E94802CF70131832083BA
:103910003CC00F3651F4123318F410932D0135C00A
:1039200081E8810F80932D0130C0003751F41233AC
:1039300018F410932E0129C081E8810F80932E0185
:1039400024C0013751F4123318F410932F011DC015
:1039500081E8810F80932F0118C0083629F48FEF7A
:10396000810F80932C014FC10936A9F580912C015C
:10397000E091F9028C3060F42CE0E29FF001112418
:10398000E80FF11DE85FFE4F10830E9452123BC109
:10399000813250F435E1E39FF0011124E952FE4FEA
:1039A000E80FF11D3C97F0CF813219F410934E04CB
:1039B0002AC1823209F027C1F0E0EE0FFF1FED5659
:1039C000FD4F40E8149FC001112420914E04822B2A
:1039D00091838083DACF0D3639F4812F90E0909374
:1039E000B9018093B8010FC10A3609F00CC110313A
:1039F00008F409C1103139F4E091F902F0E0E05720
:103A0000FD4F108209C0113149F4E091F902F0E054
:103A1000E057FD4F81E080830E9452128CEE810FAF
:103A20008930E8F48091F90290E0880F991FFC0139
:103A3000EE5FFE4F8CEE810F41E050E060E070E001
:103A400004C0440F551F661F771F8A95D2F78081E7
:103A50009181482B592B518340830E94521282EE50
:103A6000810F893010F58091F90290E0880F991F3D
:103A7000FC01EE5FFE4F82EE810F412C512C320192
:103A8000439404C0440C551C661C771C8A95D2F7DD
:103A9000D301C201809590952081318182239323A7
:103AA000918380830E94521213C0173239F4E0913F
:103AB000F902F0E0E357FD4F108267CF183241F46E
:103AC000E091F902F0E0E357FD4F81E080835DCFA4
:103AD000193259F5E0908404F0908504E091F902E0
:103AE000F0E0EE0FFF1FED56FD4FF182E08222E283
:103AF00048E667E080EB0E948E0C2E2D2F7749E67A
:103B000067E080EB0E948E0C23E248E667E080EBE2
:103B10000E948E0C9701220F232F221F330B49E6A0
:103B200067E080EB0E948E0C30CF1A3231F482E0D5
:103B300080931E031092430366C01B32A1F52091AF
:103B4000840430918504E090F90245E1E49EC001CF
:103B50001124DC01A952BE4F7D01822F8F7753962D
:103B60008C9353976901CC0CCD2CCC1CDD0854965A
:103B7000CC9220E248E667E080EB0E948E0CF701D1
:103B8000238949E667E080EB0E948E0C21E248E63B
:103B900067E080EB0E948E0C2C2D49E667E080EBFD
:103BA0000E948E0C30C01D3271F5E12CF12CC70142
:103BB00042960E94D411682FC7010E94B811FFEFEE
:103BC000EF1AFF0A22E1E216F10489F7FBEDEF2E6E
:103BD000F2E0FF2EC7010A970E94D411682FC70197
:103BE0000E94B8113FEFE31AF30A45EEE41642E0F3
:103BF000F40681F784E290E00E94D411682F86E2F7
:103C000090E00E94B8113091B1018091F90220E05A
:103C1000A89EC0011124B39E800D911D1124875CC4
:103C20009E4FAC014C5F5F4FDC011396029632133E
:103C30000EC00A3621F4103150F4FC0107C00B36D7
:103C400011F41C9304C00C3611F4FA0110832F5F99
:103C5000283069F756CB0E943B1100918E041091D9
:103C60008F042091900430919104DC01CB01801BE2
:103C7000910BA20BB30B0597A105B10510F00C94A5
:103C80006D2980918D04882309F4AEC280916D0462
:103C9000882351F080916B04882331F010926B04DB
:103CA00010928D0410926D041091F90225E1129F7B
:103CB000F0011124E952FE4F2289213029F580912B
:103CC0006704882309F18091660481111DC08091E9
:103CD0006504811119C080911E03811115C0809166
:103CE00008039091090396958795089769F41092B7
:103CF0006704209361048091EF02811103C00E9448
:103D0000F71102C00E94D6118091AE02882309F4F7
:103D100097C080916704882309F451C0809166049C
:103D200081114DC080916504811149C080911E03AD
:103D3000811145C08091080390910903969587955C
:103D40004097E9F51092670481E0809361048091C7
:103D50000A038F5F833019F080930A0302C0109228
:103D60000A0300910A03023069F48FEF9FE19093F8
:103D7000CA018093C9012FE34FE761E080EE0E9402
:103D80008E0C02C0002319F081E0800F01C081E099
:103D9000809343030E943B116093AF027093B00283
:103DA0008093B1029093B2028091F202882339F09D
:103DB00026E4200F46E667E080EB0E948E0C80919F
:103DC00067048823E9F180916604811139C08091EC
:103DD0006504811135C080911E03811131C080912D
:103DE00008039091090396958795029749F51092DB
:103DF000670481E0809361041F5F133019F0109312
:103E0000F90202C01092F9021092F0020E945212BE
:103E10008091F902882311F08F5F01C081E08093C7
:103E200043030E943B116093AF027093B0028093F2
:103E3000B1029093B2028091F20281110E94F213BA
:103E400080916A048823B1F080916604811112C0C8
:103E50008091650481110EC080911E0381110AC0FA
:103E600080916104811102C00E94A91510926A0418
:103E70001092610480916B04882309F1809164049D
:103E800081111DC080916604811119C08091F902D1
:103E900090E0FC01EE0FFF1F8E0F9F1FFC01EB5502
:103EA000FD4F818181110BC080916204811103C09B
:103EB00081E00E94A91510926B0410926204809117
:103EC0006C04882309F18091640481111DC08091E4
:103ED0006504811119C08091F90290E0FC01EE0F98
:103EE000FF1F8E0F9F1FFC01EB55FD4F828181113B
:103EF0000BC080916304811103C082E00E94A91568
:103F000010926C041092630480916A048823E1F09B
:103F100080911E03811118C08091F90290E0FC018C
:103F2000EE0FFF1F8E0F9F1FFC01EB55FD4F808191
:103F3000882351F080916104811102C00E94A9156B
:103F400010926A041092610480916B048823C9F076
:103F50008091F90290E0FC01EE0FFF1F8E0F9F1F72
:103F6000FC01EB55FD4F8181882359F0809162045B
:103F7000811103C081E00E94A91510926B04109278
:103F8000620480916C048823C9F08091F90290E06A
:103F9000FC01EE0FFF1F8E0F9F1FFC01EB55FD4F25
:103FA0008281882359F080916304811103C082E0EB
:103FB0000E94A91510926C041092630480916A0407
:103FC0008823E1F0809165048823C1F0E091F90233
:103FD000F0E0CF01880F991FE80FF91FEB55FD4F57
:103FE000808181110BC08181811108C010926A0407
:103FF00081E080936D0483E00E94A91580916C0498
:104000008823E1F0809165048823C1F0E091F902F2
:10401000F0E0CF01880F991FE80FF91FEB55FD4F16
:10402000818181110BC08281811108C010926C04C2
:1040300081E080936D0484E00E94A91580915E0464
:10404000882311F18091650481111EC0809166045E
:1040500081111AC08091F90290E0FC01EE0FFF1F60
:104060008E0F9F1FFC01EB55FD4F808181110CC00D
:1040700085E00E94A91581E080935B0410925E04A4
:10408000109256041092550480915F04882311F118
:104090008091640481111EC08091660481111AC050
:1040A0008091F90290E0FC01EE0FFF1F8E0F9F1F21
:1040B000FC01EB55FD4F818181110CC086E00E940F
:1040C000A91581E080935C0410925F04109258045B
:1040D0001092570480916004882311F18091640448
:1040E00081111EC08091650481111AC08091F9026E
:1040F00090E0FC01EE0FFF1F8E0F9F1FFC01EB55A0
:10410000FD4F828181110CC087E00E94A91581E0DA
:1041100080935D041092600410925A041092590426
:1041200080916704882381F18091AE0281110BC0D8
:10413000E091F90235E1E39FF0011124E952FE4FCD
:1041400082898130E1F4809108039091090396956A
:10415000879588309105C1F084309105A9F00297C8
:1041600099F08091F90290E0FC01EE0FFF1F8E0F95
:104170009F1FFC01EB55FD4F8081882329F0109291
:10418000670480E00E94BF1380916804882399F03F
:104190008091F90290E0FC01EE0FFF1F8E0F9F1F30
:1041A000FC01EB55FD4F8181882329F010926804B2
:1041B00081E00E94BF1380916904882399F0809167
:1041C000F90290E0FC01EE0FFF1F8E0F9F1FFC0114
:1041D000EB55FD4F8281882329F01092690482E01B
:1041E0000E94BF1310928D0480914303882309F429
:1041F00045C00E943B110091AF021091B002209186
:10420000B1023091B202DC01CB01801B910BA20BF9
:10421000B30B883C9105A105B10580F10E943B11CB
:104220006093AF027093B0028093B1029093B20298
:104230008091D802F1018823A1F0259134919FB794
:10424000F894F901FF272081832F809582238083B2
:104250009FBF809143038150809343031092D80203
:104260000DC0859194912FB7F894FC01FF278081B0
:10427000892B80832FBF81E08093D802F8944FE18F
:1042800053E05E834D839A0180E090E0FC01EE0FE5
:10429000FF1FEF5CFC4F40815181D9014D935D932D
:1042A0009D0101968930910589F7789480912D02BE
:1042B000863118F4EFE1F3E017C080911E038111FD
:1042C000F9CF2CE033E0EFE1F3E0D9014D915D91BE
:1042D0009D0180819181841B950B81939193B3E023
:1042E000E133FB0791F7E6CF8081918197FF02C010
:1042F00011821082329623E0E133F207A9F7809110
:10430000B8019091B9014EEC5FEF481B590B009139
:10431000080310910903B6ECEB2EB2E0FB2EF70177
:1043200080E090E0B82EAD81BE816D917D91BE831D
:10433000AD83219131916901B2E3CB1AD108C61640
:10434000D70670F4412C512C32014394082E04C03E
:10435000440C551C661C771C0A94D2F704291529B5
:10436000240F351F2617370780F0412C512C3201BE
:10437000439404C0440C551C661C771CBA94D2F7B5
:1043800092012095309502231323019689309105DF
:1043900049F61093090300930803C8010E943A12DA
:1043A0008093B3028091F2028823D1F080916E0451
:1043B00090916F048017910799F0212F220F07FD2C
:1043C000216042E767E080EB0E948E0C202F43E7DC
:1043D00067E080EB0E948E0C10936F0400936E04D4
:1043E000E091F902F0E0EA5EFD4F4081842F8B7F7F
:1043F000A9F4C8018C7F992796958795FC01E25115
:10440000FC4FE4912E2F30E0443021F401FF02C034
:1044100021503109FC01E151FC4F12C04130A1F49F
:1044200010FD04C082E08093880452C00E7F1127E3
:10443000F801E251FD4F249130E0F801E151FD4FC8
:10444000E491E093880449C0423051F410FF40C029
:10445000F801EE7FFF27F695E795E259FD4F35C04D
:104460004330E9F4C8019695879591600E943A120D
:1044700090E0ECE5F2E020E030E0449150E0841779
:10448000950731F4220F331FF901E35AFD4F1DC088
:104490002F5F3F4F32962930310579F71CC04530E8
:1044A00059F4F801F695E795E45AFE4F249130E06F
:1044B0002115310581F011C0463069F4F801EE7F15
:1044C000FF27F695E795E452FF4F249130E005C0B1
:1044D0002AE430E002C02FEF3FEF30938C042093AA
:1044E0008B0410911E03112309F44DC18091D80251
:1044F00081118CC0E7ECF4E04491E8EAF4E0949197
:10450000E9E8F4E08491882309F44CC04423E1F104
:1045100050E0FA013197EF30F105B0F5EA5AFF4F5C
:104520000C94CA2B209180002F7707C02091800027
:104530002F7D03C020918000277F2093800024C01E
:1045400024B52F7702C024B52F7D24BD1DC0209136
:1045500090002F7707C0209190002F7D03C02091FD
:104560009000277F209390000FC02091C0002F77EC
:1045700003C02091C0002F7D2093C00005C0209172
:10458000C200277F2093C200E82FF0E0EE0FFF1F4C
:10459000E259FB4FA591B4918FB7F894EC919E2B03
:1045A0009C938FBF81E08093D8020E943B1160935F
:1045B00070047093710480937204909373048091DB
:1045C0001E03813081F08091F302882309F4DBC05F
:1045D0001092C7021092C6028FEF90E090930D03E5
:1045E00080930C03D0C080E090E02FEF30E0FC011E
:1045F000EA53FD4F13821282FC01E45FFC4F3383C8
:10460000228302968031910591F7DDCF1130B1F40C
:104610000E943B118090700490907104A0907204ED
:10462000B0907304DC01CB0188199909AA09BB0970
:1046300081319742A105B105D0F05DC0123009F07B
:1046400070C00E943B118090700490907104A09003
:104650007204B0907304DC01CB0188199909AA098E
:10466000BB0989389341A105B10528F15CC021E25D
:1046700033E06CE073E0E6ECF2E0D9018D919D91BE
:104680009D01428153814817590710F49383828317
:10469000DB0112964D915C9113978417950724F4D2
:1046A00013969C938E93129732966E5F7F4FB2E073
:1046B000E63DFB0711F78091F3028823D1F080914A
:1046C0001F03909120032091C6023091C702281742
:1046D000390720F49093C7028093C60220910C03FF
:1046E00030910D038217930724F490930D03809368
:1046F0000C031130B1F40E943B1100917004109131
:1047000071042091720430917304DC01CB01801B91
:10471000910BA20BB30B81319742A105B105C0F4F7
:1047200032C0123081F50E943B110091700410914B
:1047300071042091720430917304DC01CB01801B61
:10474000910BA20BB30B89389341A105B105D8F0A9
:104750000E9487078091C8012EEC3FEF281B31098A
:10476000E4EBF2E0D7016D917D917D01620F731F43
:104770008CEF9FE70E94B62B61937193B8EDEB1617
:10478000B2E0FB0679F780910B03811139C080916B
:104790000A038230A9F120918B0430918C0480911E
:1047A0002C0290E08217930759F180918B0490912D
:1047B0008C04019629F1809108039091090390934C
:1047C000070380930603EAE1F2E0ADEFB2E0119255
:1047D00011921D9222E0EC32F207C9F7E091F90242
:1047E000F0E0EA5EFD4F8081E0918B04F0918C0453
:1047F000853009F060C6E356FB4FE491E093BA01BF
:1048000080918B0490918C04019631F080918B04FF
:1048100090918C0480932C028091FC02882309F4EF
:1048200038C1F8948091D9029091DA0290937F0474
:1048300080937E047894E091F9020E2F10E045E118
:10484000E49FF0011124E952FE4F8289833089F5FB
:104850008091EF02811111C0848950E8859FC001C9
:1048600011242389822B059620917E0430917F04A8
:104870008217930714F40E94F7118091EF028823A6
:10488000C1F085E1809FF001819FF00D1124E95274
:10489000FE4F8489A0E88A9FC00111242389822BBE
:1048A00020917E0430917F042817390714F40E9468
:1048B000D6110E943B1100917A0410917B04209143
:1048C0007C0430917D04AB01BC01401B510B620B99
:1048D000730B8091BF019091C001092E000CAA0BAF
:1048E000BB0B481759076A077B0720F080917904B2
:1048F0008111E9C50E943B11009175041091760465
:104900002091770430917804AB01BC01401B510B1E
:10491000620B730B8091BD019091BE01092E000CBA
:10492000AA0BBB0B481759076A077B0720F0809139
:1049300074048111CBC500917E0410917F04809195
:10494000840490918504A801481B590B2091BC0157
:1049500030E060911902E091790470917404241799
:104960003507ECF4E1111BC0711119C06130B9F4C5
:104970002091C2013091C3012017310784F483E0F4
:1049800080938904609379040E943B1160937A04B8
:1049900070937B0480937C0490937D0421C0801BE2
:1049A000910B2091BB0130E028173907F4F4E11195
:1049B0001CC06623D1F0711118C080918904833026
:1049C000A1F481E080938904809374040E943B11D8
:1049D00060937504709376048093770490937804C1
:1049E000109385040093840454C08091C201909177
:1049F000C301801791071CF021E0209389046130E6
:104A000031F0801791071CF422E020938904E11112
:104A10001FC071111DC06623B1F180179107D4F436
:104A200080912C0290E0CC974091C101489F900169
:104A3000499F300D11248091C4019091C501820FCE
:104A4000931F8017910734F082E08093890402C09D
:104A5000711119C06130B9F480912C0290E0CC97AB
:104A60004091C101489F9001499F300D11248091D0
:104A7000C4019091C501820F931F801791071CF408
:104A800083E080938904109385040093840410923A
:104A9000FC029091FB028091FA02BCE09B9F800D8A
:104AA000112480938A04E0908904E3E0EE1621F15A
:104AB00090911902933069F4E091F902F0E0EA5E16
:104AC000FD4F90819130D9F09091080390FF14C070
:104AD00016C09230A1F4E091F902F0E0EA5EFD4FD9
:104AE0009081292F2B7F11F0963049F420910803F3
:104AF0003091090330FF03C0845F80938A04F090F3
:104B00000B03FF20D1F1209188042230B0F58FEF04
:104B10009FE19093CA018093C901213051F4209103
:104B2000C6013091C701821B930B9093CA018093F9
:104B3000C9010091C9011091CA018091DB029091D5
:104B4000DC02080F191F1093CA010093C90180915C
:104B5000D5019091D6018017910779F09801220F25
:104B6000232F221F330B402F4F7761E080EE0E94EE
:104B70008E0C1093D6010093D5010E943B11009139
:104B8000F5021091F6022091F7023091F802DC0153
:104B9000CB01801B910BA20BB30B0A97A105B105AA
:104BA00008F4B9C20E943B116093F5027093F602BB
:104BB0008093F7029093F802E091F9020E2F10E033
:104BC00025E1E29FF0011124E952FE4F8081882304
:104BD00009F4AFC08091F4028111ABC02091C201F1
:104BE0003091C30140912C0250E04C535109609127
:104BF000C101649FC001659F900D11244091C401C3
:104C00005091C501840F951FBC01621B730B7595F4
:104C10006795620F731F43E0E41203C0680F791FAA
:104C20009C0180918404909185048617970758F51C
:104C300045E1409FF001419FF00D1124E952FE4FE4
:104C40004181A4E14A9FA0011124FB01E81BF90B5B
:104C50004E9FC0014F9F900D5E9F900D1124621BCF
:104C6000730B0E94B62B669FB0011124F3E075957B
:104C70006795FA95E1F77195619571097093DC027A
:104C80006093DB0214C0861B970B25E1209FF00187
:104C9000219FF00D1124E952FE4F4181489F900160
:104CA000499F300D11243093DC022093DB0285E113
:104CB000809FF001819FF00D1124E952FE4F818108
:104CC000B8EC8B9FC00111242091DB023091DC02F3
:104CD0008217930724F49093DC028093DB02809187
:104CE0000A03823081F5C090DB02D090DC02E1E063
:104CF000CE1AE0EEDE0AD092CA01C092C9018091BC
:104D0000D5019091D6018C159D0599F08091F10205
:104D1000882379F09601220F232F221F330B4C2D6D
:104D20004F7761E080EE0E948E0CD092D601C09247
:104D3000D501F1100AC080910A03823009F483C0C2
:104D40000E940A0D80C0FF20D9F380918804823030
:104D500009F079C01092CA011092C901F801EA5E07
:104D6000FD4F8081982F9B7F09F0E7C34091250379
:104D7000509126032091C80130E080912303909147
:104D80002403241735070CF0B3C36091080363FDB7
:104D9000AFC3421B530BE091E302F091E4022817EA
:104DA00039070CF096C362FD94C3821B930B60918C
:104DB000E1027091E202869F9001879F300D969FDD
:104DC000300D112436952795369527954E9FC001B5
:104DD0004F9F900D5E9F900D112496958795969507
:104DE0008795280F391F3093CA012093C9018091FC
:104DF000C6019091C7012091C9013091CA01821763
:104E0000930708F4BEC32091C9013091CA018FEF06
:104E10009FE1821B930B2091DB023091DC02820F19
:104E2000931F97FDB3C39093CA018093C90100916A
:104E3000C9011091CA018091D5019091D6018017C6
:104E4000910709F0A8C30091840410918504809112
:104E5000860490918704801B910B97FF03C0919566
:104E60008195910903970CF42EC18091F202882359
:104E7000D1F06801012E000CEE08FF082C2D2F77D1
:104E800044E767E080EB0E948E0CA7019601F7E0F3
:104E90005695479537952795FA95D1F746E767E0F8
:104EA00080EB0E948E0CE091F9024E2E512C5E8216
:104EB0004D8225E1E29FF0011124E952FE4F8281EB
:104EC000813009F0FCC0E781C090D301D090D401BB
:104ED000E12CF12CC801012E000CAA0BBB0B9C018C
:104EE000AD012C193D094E095F09A0E2B3E00E9413
:104EF000752C48E0E49F900111242C593F4F490143
:104F0000330FAA08BB08A50194012C193D094E09CD
:104F10005F090E94562C57FD0EC0213283E03807EE
:104F20004105510574F469017A0194E6C90ED11C5A
:104F3000E11CF11C0CC0E4E6CE2ED12CE12CF12CAE
:104F400006C074E8C72E73E0D72EE12CF12C85E162
:104F50004D805E80849DF001859DF00D1124E95205
:104F6000FE4F8381813009F584EC9CE1A1E0B0E043
:104F70008093CF019093D001A093D101B093D2013F
:104F8000A7019601C701B6010E94A62B9B01AC01A7
:104F9000C701B6010E94A62B20E137E240E050E0B5
:104FA0000E94802C69017A012DC08230F9F484E8D6
:104FB0009CE1A0E0B0E08093CF019093D001A0935A
:104FC000D101B093D20160E17CE58CE090E0A701D3
:104FD00096010E94802C68E0C62E60E2D62EE12C5D
:104FE000F12CC21AD30AE40AF50A0CC024E833E013
:104FF00040E050E02093CF013093D0014093D101A5
:105000005093D2012091CD013091CE014901A12CC4
:10501000B12C4090CB015090CC01612C712CA70198
:1050200096012456310941095109C501B401641999
:105030007509860997090E94A62BC090CF01D090D0
:10504000D001E090D101F090D201A7019601245641
:105050003109410951090E94562CDA01C901840D18
:10506000951DA61DB71D84159505A605B7054CF41D
:1050700047E075946794579447944A95D1F7242D47
:105080000FC088169906AA06BB0614F4D501C40100
:1050900037E0B595A795979587953A95D1F7282F3D
:1050A00085E14D805E80849DF001859DF00D112489
:1050B000E952FE4F4581648180EB0E948E0C109373
:1050C000870400938604809183048F5F8A3019F0EF
:1050D0008093830420C010928304E5E1F5E085917C
:1050E0009491FC01FF2732978081892321E009F404
:1050F00020E02093F30280918204821761F02093D4
:1051000082048091F202882331F0285846E667E055
:1051100080EB0E948E0CE090F902F12CF701EA5E20
:10512000FD4F1081153029F480918A0481508093BD
:105130008A042091F102222381F040912C0250E058
:105140008091810490E030918A04831B910937FD9E
:1051500093954817590709F473C090918904809179
:10516000F402923010F0882341F0882309F468C0DB
:105170008091F002882309F463C000912C020F3F54
:1051800009F45EC0809180048E3379F480918A04A2
:10519000082E000C990B800F911D8635910529F47E
:1051A0008091FC02882309F44BC0133019F40C33AE
:1051B00049F446C0113031F40E3321F480910803D4
:1051C00080FD3EC02223D9F02FE74091810461E0A9
:1051D00080E80E948E0C80910B03811110C0809199
:1051E0000A03823061F00E940A0D0E943B11609315
:1051F000F5027093F6028093F7029093F802D09034
:105200008A04D00E2FE74D2D61E080E90E948E0CBC
:10521000D09281040093800481E08093F10285E1C3
:105220008E9DF0018F9DF00D1124E952FE4F828971
:10523000823031F48091EF02811102C00E94F71197
:105240008091F102882309F43EC0909189048091F5
:10525000F402913011F48823B9F0882321F0809171
:10526000F002882389F0133029F480912C028C33CA
:1052700051F50AC0113039F580912C028E3319F5A1
:105280008091080380FF1FC02FE74091810461E0F7
:1052900080E80E948E0C1092F10288E79CEE9093B9
:1052A000D6018093D50185E18E9DF0018F9DF00D93
:1052B0001124E952FE4F8289823029F48091EF0255
:1052C00081110E94D61180E090E0892B11F40C949A
:1052D0007D190E9400000C947D1970908D042BE5BF
:1052E00034E03E832D834FE454E058874F8304E637
:1052F00014E08EE5882E84E0982E95E5C92E94E082
:10530000D92E87E694E09A87898722E5E22E24E069
:10531000F22EABE5B2E0BC87AB87A12CB12C6624A2
:105320006394AD81BE814C90442029F0F401108239
:10533000D6011D921C92EB85FC8581919191FC8791
:10534000EB87FC01FF2732978081892309F4A3C0F2
:10535000F7015080652D70E080E090E00E94D72B2F
:1053600020E030E040E850E40E94D02B87FF03C0EB
:105370005394F7015082D7016C91611105C0F80177
:1053800060827724739413C070E080E090E00E9404
:10539000D72B20E030E040E850E40E94362C87FD17
:1053A00006C0D8011C92E4E05E2EF7015082AF8166
:1053B000B8858C91F8019081882351F091110AC031
:1053C000411008C0F501E659FB4F6082782E02C0FB
:1053D00091116AC0E985FA851082882351F0D801BD
:1053E0008C91882331F0F60180819181019691831F
:1053F0008083D6018D919C918D32914048F0ED8152
:10540000FE818081811104C0D4016C927724739451
:10541000F8018081811105C0D4011C92F60111822E
:105420001082AF81B8858C93811103C0ED81FE811C
:105430001082FFEFAF1ABF0A2D813E812F5F3F4FD1
:105440003E832D834F8158854F5F5F4F58874F8331
:105450000F5F1F4F5FEF851A950A82E0C80ED11CBF
:10546000A985BA851196BA87A987BFEFEB1AFB0AFF
:10547000E3E0AE16B10409F054CF70928D040E949F
:105480003B1160938E0470938F04809390049093EB
:1054900091040C94411ED7018C91882309F46BCFA1
:1054A0008150D7018C9367CF411094CFA985BA85DD
:1054B0006C92792E9ECF823019F4EB55FB4F9DC92B
:1054C000E256FB4F9AC91092790414CA10927404E0
:1054D00032CA4E9FB0014F9F700D5E9F700D112418
:1054E00076956795769567957093CA016093C90123
:1054F000281739070CF07BCC4091080342FD77CC8C
:10550000821B930B4091E1025091E202849F900133
:10551000859F300D949F300D1124C9019695879574
:10552000969587952091C9013091CA01820F931FEA
:105530009093CA018093C9015ACC813009F063CCA1
:10554000409108035091090350FF3FC0209125036B
:10555000309126038091C80190E0821793070CF0E8
:1055600073C043FF5BC01092CA011092C9018091C1
:10557000C9019091CA01811590420CF444CC8FEF7F
:105580009FE19093CA018093C9013DCC1092CA015A
:105590001092C9014CCC8091F102882309F453CCBC
:1055A00080910A03823008F04ECC9801220F232FFD
:1055B000221F330B402F4F7761E080EE0E948E0C4C
:1055C0001093D6010093D5013ECC43FD1CCC8091B5
:1055D0002503909126032091C80130E04091C60137
:1055E0005091C70128173907A4F4821B930B6091CF
:1055F000E3027091E402869F9001879F300D969F91
:10560000300D1124C9019695879596958795481B6D
:10561000590B5093CA014093C901F5CB281B390B94
:105620004091E3025091E402249FC001259F900D18
:10563000349F900D11249695879596958795909314
:10564000CA018093C90193CF281739070CF48BCF77
:1056500043FD89CF8CCF1092DB041092DA0488EEE0
:1056600093E0A0E0B0E08093DC049093DD04A0938D
:10567000DE04B093DF048EE692E09093D904809329
:10568000D8048FEF9FEF9093E5048093E40482E0C9
:105690008093D0048093D10486ED94E09093D3045A
:1056A0008093D2041092D5041092D4048EE792E035
:1056B0009093CD048093CC0480E88093D60481E855
:1056C0008093D7040E94C210FC0121818091D004F4
:1056D00090E0820F911D0897C4F5A281B3811097C5
:1056E00029F48CEC94E0938382830EC018968D91FC
:1056F0009C911997009711F0DC01F8CF8CEC94E0A5
:1057000019969C938E93189780818093CE04818103
:105710008093CF0490818091D104890F808380E0B1
:105720009091D004891788F4A091D204B091D30449
:10573000A80FB11D9C91A181B0E0A25CBD4F9C93CC
:1057400091819F5F91838F5FEBCF0895DB018F93F2
:105750009F930E94752CBF91AF91A29F800D911DC8
:10576000A39F900DB29F900D11240895AA1BBB1BFF
:1057700051E107C0AA1FBB1FA617B70710F0A61B51
:10578000B70B881F991F5A95A9F780959095BC0172
:10579000CD010895EE0FFF1F0590F491E02D0994BF
:1057A0000E94122C08F481E00895E89409C097FB48
:1057B0003EF490958095709561957F4F8F4F9F4FE8
:1057C0009923A9F0F92F96E9BB279395F69587952C
:1057D00077956795B795F111F8CFFAF4BB0F11F4EF
:1057E00060FF1BC06F5F7F4F8F4F9F4F16C0882396
:1057F00011F096E911C0772321F09EE8872F762FCC
:1058000005C0662371F096E8862F70E060E02AF00C
:105810009A95660F771F881FDAF7880F96958795F8
:1058200097F90895990F0008550FAA0BE0E8FEEFCD
:1058300016161706E807F907C0F012161306E40754
:10584000F50798F0621B730B840B950B39F40A264D
:1058500061F0232B242B252B21F408950A2609F42B
:10586000A140A6958FEF811D811D08950E94122CE5
:1058700008F48FEF089581E090E0F8940C94B12C37
:10588000F999FECF92BD81BDF89A992780B5089508
:10589000262FF999FECF1FBA92BD81BD20BD0FB64C
:1058A000F894FA9AF99A0FBE01960895052E97FB7F
:1058B0001EF400940E946D2C57FD07D00E94802C8E
:1058C00007FC03D04EF40C946D2C50954095309508
:1058D00021953F4F4F4F5F4F08959095809570955C
:1058E00061957F4F8F4F9F4F08950E94A22CA59FD7
:1058F000900DB49F900DA49F800D911D11240895CB
:10590000A1E21A2EAA1BBB1BFD010DC0AA1FBB1FC3
:10591000EE1FFF1FA217B307E407F50720F0A21B35
:10592000B30BE40BF50B661F771F881F991F1A94A2
:1059300069F760957095809590959B01AC01BD01CC
:10594000CF010895A29FB001B39FC001A39F700D26
:10595000811D1124911DB29F700D811D1124911D77
:065960000895F894FFCF4A
:10596600670FFF01FF01FF010F0F0F0F1E1E030838
:105976001C070F160F0F0F0F1E1E03081C070F160E
:105986000F0F0F0F1E1E03081C070F1664000008DA
:105996000004000400040A0A0A02000000000800CD
:1059A60000000003000000000500000000060000E3
:1059B60000000000000000000000000000000000E1
:1059C60000020000000008000000000300000000C4
:1059D60005000000000600000000000000000000B6
:1059E60000000000000000000002000000000800A7
:1059F6000000000300000000050000000006000093
:105A06000000000000000000000000000000000090
:105A160000640101000101020400010F0F0F000FD5
:105A2600000F0401000000040AFF1F7F00FF3F2053
:105A36000300006400FF1F0003000001070064006C
:105A46007F0001332400013324000000000300001E
:105A560001070064007F00013324000133240000A5
:105A6600000003000001070064007F0001332400EA
:105A760001332400000000010201FF1FFF1FFF1F6A
:105A8600FF1FFF1FFF1FFF1FFF1FFF1FFF16FFFF49
:105A9600FFFF010FFF0100E100000000000000C150
:105AA60080810000000100000025802B8025102841
:105AB600402E402B082B042B012B022502250825FE
:105AC6000405090A000102030B0600000000200F6E
:105AD6006A0FCD0F830FA50F800F000000005E0F29
