:100000000C949A020C94C2020C94C2020C94C20288
:100010000C94C2020C94C2020C94C2020C94C20250
:100020000C94C2020C94C2020C948A0D0C947F0EA4
:100030000C94C2020C94C2020C94C2020C94C20230
:100040000C94C2020C94C2020C94C2020C94C20220
:100050000C942E120C94C2020C94C2020C94E41163
:100060000C94C2020C94C2020C94C2020C94C20200
:100070000C94C2020C94C2020C94C2020C94C202F0
:100080000C94C2020C94C2020C94C2020C94C202E0
:100090000C94C2020C94C2020C94C2020C94C202D0
:1000A0000C94C2020C94C2020C94C2026208D408DE
:1000B000FE08250938093E095C09670965136813BC
:1000C00057135B135F138913891389136C13701310
:1000D00074137A137E13891384134B4B4B4B4B4B86
:1000E0004B4B4B4B4B4B4B4B4B4A4B4B4B4B4B4B61
:1000F0004B4B4B4B4B4B4B4B4B4B4B4B4B4B4B4B50
:100100004B4B4B4B4B4949494949504A4A4A4A4A49
:100110004A4A4F4A4E4A4D4A4B4A54545449494917
:1001200054545449494949494949535353535353E2
:10013000534B4B4B4B4B4B4B534B525252525252D5
:10014000525252525252515151525050505050509E
:1001500050504F4F4E4E4D4C4B4A4A4A4A4A4A4ADB
:100160004A4A4A4A4A4A4A4A4A4A4A4A4A4A4A4AEF
:100170004A4A4A4A4A4A4A4A4A4A494949494949E5
:10018000494949494949494949494B4B4B4B4B4BD3
:100190004B494B4B4B4B4B4B4B4B484848484848C3
:1001A00048484848484848484848474A47474747D2
:1001B00047474747474747474747464646464646D5
:1001C00046464546464645454646444444444444DE
:1001D00044444343424241403F3E7F3C003E014055
:1001E00002420343044505470649074A4848484830
:1001F000484848484848484848484848484848487F
:10020000484848484848484848484848484848486E
:10021000484848484848484848484848484848485E
:100220004848484848484848484848494747474751
:10023000474747474747474747474747474747474E
:100240004747474747474646474747474545454548
:100250004545454545454545454545454343434356
:100260004343434342424141403F3E3C49004902EF
:100270004900490049004901490049004900490035
:100280004900490049004900490049004900490026
:100290004900490049004900490049004900490016
:1002A0004900490049004900490049004900490006
:1002B00049004900490049004900490049004900F6
:1002C00049004900490049004900490048024802E4
:1002D00048004802480148014800480148004802D7
:1002E00048004800480048014800490047004702CC
:1002F00047004702470047014700470146004700C3
:1003000046004700470047004700470047004700B6
:1003100047004700470047004700470047004700A5
:100320004700470047004700470047004500450297
:100330004500450245004501450045014400450092
:100340004400450045004500450045004300430288
:100350004300430243004301430043014200420083
:1003600041004200400040003F003E00490049007B
:100370004900490049004900490049004900490035
:100380004900490049004900490049004900490025
:100390004900490049004900490049004802480114
:1003A000480148014800480048004A004702470108
:1003B0004701470147004700470047004700470003
:1003C00047004700470047004700470045024501F6
:1003D00045014501450045004500440043024301F5
:1003E000430143014200410040003E00010102017F
:1003F00001020102010102010201020102020102E5
:100400000101020102012B042B082B022B012B10EE
:1004100028402B802E4025102520254025802B406C
:10042000288025082502250425013180314031200E
:100430003110310231012B102B8025102520254051
:100440002B40070605040100080A0B0C0D09080BD8
:10045000000202020100090400000102020000057E
:1004600024001001052401010104240206052406CC
:1004700000010705810310004009040100020A0081
:10048000000007050202400000070583024000004B
:10049000040309044164616672756974005741522E
:1004A000424C001201000200000040D80487EE0018
:1004B000010102030112010002EF020140D804878A
:1004C000EE00010102030100000000250028002BBE
:1004D000002E003100040404040403040502020297
:1004E00002040302020202060606060606040402CD
:1004F00002020404040802011040804010204080E1
:100500004080080204018040201002011080102069
:100510004040200000000200090F00000304010019
:100520000C000000000000000000000000000000BF
:100530000000072911241FBECFEFDAE0DEBFCDBFD8
:1005400024E0AEE3B2E001C01D92AB3CB207E1F79C
:1005500012E0A0E0B1E0EAEAF4E502C005900D92F5
:10056000AE33B107D9F712E0CAE9D2E004C021974F
:10057000FE010E949629C939D107C9F70E949D132F
:100580000C94532A0C940000CF93DF9380914D0478
:10059000893069F486E10E94CE109093A80280937E
:1005A000A70210924D0481E08093B30299C080911C
:1005B0004C04882391F1E0914D04F0E0EE0FFF1F11
:1005C000E350FE4F808191812FB7F894FC01FF2703
:1005D0008081892B80832FBF80914D04883041F426
:1005E00085E00E94CE1090933B0480933A0412C0A1
:1005F000C0914D04D0E02196E0914D04F0E0EB5E17
:10060000FD4F81810E94CE10CC0FDD1FC65CDB4FF9
:100610009983888310924C0463C080914C048111AB
:100620005FC0C0914D04D0E0E0914D04F0E0EB5E7E
:10063000FD4F80810E94CE10CC0FDD1FCA52DD4FCE
:1006400099838883E0914D04F0E0EE0FFF1FE350A3
:10065000FE4F208131819FB7F894F901FF27208157
:10066000832F8095822380839FBFE0914D048E2F3E
:1006700090E0E0914D04F0E0EE0FFF1FEA52FD4FD5
:1006800020813181E0914D04F0E0EE0FFF1FE65C28
:10069000FB4F40815181241B350BFC01EE0FFF1FE6
:1006A000EA52FD4F31832083E0914D04F0E0EE0FDC
:1006B000FF1FEA52FD4F8081918197FF09C0E091B1
:1006C0004D04F0E0EE0FFF1FEA52FD4F1182108241
:1006D00080914D048F5F80934D0481E080934C04A2
:1006E000DF91CF9108952F923F924F925F926F9238
:1006F0007F928F929F92AF92BF92CF92DF92EF92B2
:10070000FF920F931F93CF93DF93CDB7DEB7689718
:100710000FB6F894DEBF0FBECDBF2091E3018091EC
:10072000C2019091C301AC01E4E02E9F400D511D28
:1007300011245A8B498B40E552E05E834D8346E598
:1007400052E05C834B8349E552E058874F834DE488
:1007500052E05A87498745EB51E05C874B8742EB73
:1007600051E05E874D874DE251E0588B4F8793E013
:10077000892E91E0992E612C712C212C312C44E68C
:1007800050E05A83498300E010E0188E1F8A8F8959
:10079000988D805B9F4F0E947112ED81FE81819345
:1007A000FE83ED838F89988DC8960E947112EB812C
:1007B000FC818193FC83EB838F89988D8D960E94B9
:1007C0007112EF81F8858193F887EF838F89988D77
:1007D000CF960E94711291E0811101C090E0E985ED
:1007E000FA859193FA87E9878F89988DCC960E9434
:1007F0007112EB85FC858193FC87EB878F89988D3F
:100800008A5B9F4F0E947112ED85FE858193FE8762
:10081000ED87C8018D5A9F4F0E947112F82EC801B2
:100820008C5A9F4F0E9471122F2D30E0382BEF858C
:10083000F88921933193F88BEF87C801875A9F4F2E
:100840000E947112F82EC801865A9F4F0E947112A1
:10085000F801E95DFE4F2F2D30E0382B31832083E6
:100860008F89988D815A9F4F0E947112EF89F88D60
:10087000E65BFD4F8083C8018F5E9E4F0E94711220
:10088000F82EC8018E5E9E4F0E947112F801EC5B3B
:10089000FD4F2F2D30E0382B31832083C12CD12CFC
:1008A0007301FCEFEF1AFEEFFF0AC7018C0D9D1DCF
:1008B0000E947112F401EC0DFD1D80833FEFC31AFD
:1008C000D30A4CE0C416D10481F749895A89509360
:1008D000C5014093C401C12CD12C71015AEFE50E22
:1008E000F11CC7018C0D9D1D0E947112F601E20DD5
:1008F000F31DE45AFD4F91E0811101C090E0908317
:100900008FEFC81AD80A93E0C916D10451F7A30192
:10091000440F551F49805A80C12CD12C9601240FB9
:10092000351F5201E12CF12CC5012B8B3C8B4D8BDB
:100930005E8B0E9471122B893C89F701E20FF31F35
:10094000E75CFE4F8083EFEFAE1ABE0AF5E0EF0ED4
:10095000F11C4D895E8988E2E816F10429F79FEFC2
:10096000C91AD90AEAE04E0E511CF5E0CF16D1049F
:10097000A9F68F89988DC2960E947112EF89F88D21
:10098000ED5CFE4F80834F89588D4F5F5F4F588FCE
:100990004F8B0E5F1F4F49815A814E5C5F4F5A83C8
:1009A000498353E0250E311C84E1680E711C9CE0E4
:1009B000890E911C4F89588D4330510509F0E7CEBF
:1009C00068960FB6F894DEBF0FBECDBFDF91CF9112
:1009D0001F910F91FF90EF90DF90CF90BF90AF905D
:1009E0009F908F907F906F905F904F903F902F904F
:1009F00008950F931F93CF93DF9300D000D0CDB70E
:100A0000DEB76150807FF894E82FF0E094E0F59530
:100A1000E7959A95E1F7E9836F70682B6A834F77C2
:100A20004B832F772C830FE614E0F801838144E099
:100A300050E0BE016F5F7F4F8F5F0E943311F8015E
:100A400083818F5F0E94800D78940F900F900F909C
:100A50000F90DF91CF911F910F9108959F92AF92C8
:100A6000BF92CF92DF92EF92FF920F931F93CF939B
:100A7000DF9310E07CE0B72EEE24EA94EFE1FE2E47
:100A80008091A602811306C1C12FD0E0FE01EA5A6F
:100A9000FD4FAA24A3948081811101C0A12CA092B2
:100AA000520499249394FE01E05BFD4F80818111F3
:100AB00001C0912C909251046E01CC0CDD1CF6010A
:100AC000E35DFE4F808191819093E5018093E40185
:100AD00081E0FE01E75AFD4F9081911101C080E055
:100AE00080936502FE01E25EFD4F80818093B0023B
:100AF000FE01EA5CFE4F80818093AF02FE01EB5461
:100B0000FE4F80818093C10201E0FE01E65BFD4F54
:100B10009081911101C000E000935004F601EC5B5C
:100B2000FD4F2081318130934F0420934E04FE010C
:100B3000E35BFD4F90819093B1028230E1F4F0923B
:100B4000CA01E092C9010E94D8116093AB02709370
:100B5000AC028093AD029093AE024091C9015091D6
:100B6000CA019A01220F232F221F330B4F7761E016
:100B700080EE0E94F9041092CA011092C901E0EDC2
:100B8000F1E0A4EBB2E0119211921D9231E0E23E4D
:100B9000F307C9F7992089F0E091A602F0E0E3534A
:100BA000FE4F8081823010F0843039F48091C10290
:100BB000813019F48093C20202C01092C202FE0179
:100BC000ED5CFE4F80818093C801F601E95DFE4F28
:100BD000808191819093C7018093C601FE01EE54FC
:100BE000FE4F80818093B202811154C0BC9EF001FF
:100BF000BD9EF00D1124ED5FFE4FAA20A1F086816D
:100C00008093E30187818093C10180858093BC013B
:100C100081858093BB01828590E09093C001809391
:100C2000BF01838513C080818093E301818180931C
:100C3000C10182818093BC0183818093BB01848147
:100C400090E09093C0018093BF01858190E09093E4
:100C5000BE018093BD01011105C0809142029091B7
:100C6000430204C080914E0490914F0403969093E8
:100C7000C3018093C2012091E3018091C201909150
:100C8000C301A4E02A9F800D911D11249093C501FA
:100C90008093C4011F5F133009F0F2CE8091C80128
:100CA0000EEC1FEF081B1109C091C601D091C701BE
:100CB00093E0CC0FDD1F9A95E1F7EDE7F2E02BE62C
:100CC000C22E22E0D22E32E9E32E32E0F32E4CEF98
:100CD000A42E4FE7B42E21913191200F311FC50171
:100CE000B9010E948229D6016D937D936D01CE01D9
:100CF000B9010E94822976956795D7016D937D93FE
:100D00007D01B2E0EF38FB0731F7DF91CF911F9102
:100D10000F91FF90EF90DF90CF90BF90AF909F909A
:100D20000895CF93DF934091A60250E0C82FD0E002
:100D3000FA01EE0FFF1FE40FF51FEC0FFD1FE45A41
:100D4000FD4F80818823E9F085E08C9FF0018D9F25
:100D5000F00D112488E2849F9001859F300D1124AD
:100D6000E20FF31FE75CFE4F818181110AC02481ED
:100D70004381628180E90E94F904CD5ADD4F81E010
:100D80008883DF91CF910895EF92FF920F931F9385
:100D9000CF93DF9325E54EE667E080EB0E94F904F0
:100DA0002091CD01225E46E667E080EB0E94F904C7
:100DB0002091CE01285D46E667E080EB0E94F904B1
:100DC0002091CF012E5C46E667E080EB0E94F9049B
:100DD0002091A602245C46E667E080EB0E94F904BD
:100DE0002091C80147E667E080EB0E94F90420915A
:100DF000C6013091C701A4E6B0E00E94442A2FEF5B
:100E00003FE140E050E00E94222A45E767E080EBA6
:100E10000E94F9042091C1022A5B46E667E080EB5C
:100E20000E94F9042091B202205B46E667E080EB65
:100E30000E94F9042091B8014DE667E080EB0E9422
:100E4000F9042091360127FD21584FE667E080EB39
:100E50000E94F9042091370127FD215840E767E0FF
:100E600080EB0E94F9042091380127FD215841E7C9
:100E700067E080EB0E94F9042091AA02285846E618
:100E800067E080EB0E94F90420916502215C46E650
:100E900067E080EB0E94F904209152042F5B46E644
:100EA00067E080EB0E94F90420915104205F4AE63C
:100EB00067E080EB0E94F90420915004295D4AE626
:100EC00067E080EB0E94F9042091B102255D4AE6BB
:100ED00067E080EB0E94F904C0E0D0E0E091A60258
:100EE000F0E0EE0FFF1FE35DFE4F208131810C2EFD
:100EF00002C0369527950A94E2F72170220F822FBF
:100F0000880F880F280F8C2F8C5E280F4AE667E029
:100F100080EB0E94F9042196C930D105F9F600E072
:100F200010E035E0E32E48E2F42E2AE5200F46E6F5
:100F300067E080EB0E94F9048091A602E09EE00148
:100F4000E19ED00D1124FE01F89EE00DF11D11244B
:100F5000E75CFE4F20812C5946E667E080EB0E945B
:100F6000F9048091A602FE01F89EE00DF11D112406
:100F7000E75CFE4F8081813099F52181225946E658
:100F800067E080EB0E94F9048091A602FE01F89EC2
:100F9000E00DF11D1124E75CFE4F22814AE667E077
:100FA00080EB0E94F9048091A602FE01F89EE00DFC
:100FB000F11D1124E75CFE4F23814BE667E080EBD7
:100FC0000E94F9048091A602F89EC00DD11D112443
:100FD000C75CDE4F2C814CE667E080EB0E94F90491
:100FE0000F5F1F4F0830110509F09FCFC0E0D0E020
:100FF0002C2F265A46E667E080EB0E94F904809188
:10100000A60290E0FC01EE0FFF1FE80FF91FEC0FA6
:10101000FD1FE45AFD4F20812F5846E667E080EB24
:101020000E94F9042196C330D10511F7C0E0D0E049
:101030001CE02C2F2F5F48E667E080EB0E94F9044C
:101040008091A602FE01189FE00DF11D1124ED5FB5
:10105000FE4F208149E667E080EB0E94F90421966B
:10106000CC30D10531F7DF91CF911F910F91FF90D7
:10107000EF900895EF92FF920F931F93CF93DF931A
:1010800000D000D0CDB7DEB74091A602082F10E007
:10109000242F30E098E2499FF0011124A5E08A9FB7
:1010A000E00DF11D1124E75CFE4FE0818E2F90E0F2
:1010B000FC013197E830F10508F036C1EA5AFF4FDC
:1010C0000C94962985E0809FF001819FF00D1124FA
:1010D00048E2429FC001439F900D1124E80FF91F81
:1010E000E75CFE4F8181811117C0C8018D5A9D4F69
:1010F0007C01DC018C91248143816281811107C0D4
:1011000080E90E94F90481E0F701808305C080E84E
:101110000E94F904D7011C928091A60295E0909F4D
:10112000F001919FF00D1124B8E28B9FE00DF11DAD
:101130001124E75CFE4F8181813031F424814381A9
:10114000628180EB0E94F9048091A60295E0909F55
:10115000F001919FF00D112498E2899FE00DF11D9F
:101160001124E75CFE4F8181823009F0DDC082816D
:10117000815093819F77F8942CE029838F70806C45
:101180008A839B831C828091720444E050E0BE01FC
:101190006F5F7F4F8F5F0E943311809172048F5F6A
:1011A0000E94800D7894C0C0F901EB54FE4F8081FD
:1011B0008F5F833011F0808301C010820E942E0562
:1011C0000E942E058091C102882311F08F5F01C01B
:1011D00081E08093E8020E94D811609366027093C8
:1011E000670280936802909369028091A902882324
:1011F00009F49AC02091C1022A5B91C04F5F43302D
:1012000019F04093A60202C01092A6021092A40206
:101210000E942E058091A602882311F08F5F01C0E5
:1012200081E08093E8020E94D81160936602709377
:10123000670280936802909369028091A9028823D3
:1012400009F472C00E94C4066FC09091A40281E0AC
:1012500089278093A402811167C011E020E04BE749
:10126000612F80EB0E94F9041F5F1131B9F75CC058
:101270008091B00283304CF48F5F05C08091B00242
:101280008D3F1CF081508093B0028091B002082EF7
:10129000000C990B97FF03C091958195910980935C
:1012A000E8020E94D81160936602709367028093EF
:1012B00068029093690238C011E020E04BE7612F8B
:1012C00080EB0E94F9041F5F1131B9F72DC0F901BD
:1012D000EE54FE4F80818F5F833011F0808301C018
:1012E00010820E942E051092A4028091B2028823DF
:1012F00011F08F5F01C081E08093E8020E94D81155
:10130000609366027093670280936802909369020B
:101310008091A902882341F02091B202205B46E629
:1013200067E080EB0E94F9040F900F900F900F90F0
:10133000DF91CF911F910F91FF90EF900895CF9380
:1013400088E290E00E947112C82F8093CD0189E25B
:1013500090E00E9471128093CE018AE290E00E9498
:1013600071128093CF0185E390E00E947112809307
:10137000360186E390E00E9471128093370187E383
:1013800090E00E947112809338018091A902882315
:1013900069F12EE12C0F46E667E080EB0E94F9042C
:1013A0002091CE01285D46E667E080EB0E94F904BB
:1013B0002091CF012E5C46E667E080EB0E94F904A5
:1013C000209136014FE667E080EB0E94F9042091FE
:1013D000370140E767E080EB0E94F9042091380173
:1013E00041E767E080EBCF910C94F904CF91089529
:1013F000EF92FF920F931F93CF93DF930DE712E0CD
:10140000C2E1D0E0F8016181CE010E945512F801DD
:1014100060810E5F1F4FCE0101960E9455122296E9
:10142000C432D10579F76091B80184E290E00E945E
:1014300055121092C30263E085E290E00E945512BB
:1014400080E00E943F1310928F02DF91CF911F9195
:101450000F91FF90EF9008952F923F924F925F92DD
:101460006F927F928F929F92AF92BF92CF92DF92B4
:10147000EF92FF920F931F93CF93DF93CDB7DEB719
:101480002F970FB6F894DEBF0FBECDBF0091C102FB
:101490000C878091C80190E010916A021F878090AC
:1014A000BF029090C0022091BA012D836091BD02CD
:1014B0007091BE024091E4015091E5015F834E833B
:1014C000A091C601B091C701B987A887E0EDF1E00E
:1014D000FA83E98304EB12E01E870D8712E9A12E3F
:1014E00012E0B12E24EC32E03C832B830BE6602E1D
:1014F00002E0702E20E030E0A4010F8402C0569577
:1015000047950A94E2F7DA01A170BB27BB87AA8747
:10151000212C312C21012394BC85B11142C0AB8117
:10152000BC814D915C918417950798F5BF85B213E6
:1015300030C00A851B85012B61F51D81113099F49E
:10154000D301CD90DC907A01E81AF90AEC9C800175
:10155000ED9C100DFC9C100D1124B3E01695079521
:10156000BA95E1F714C0BD81B23099F4D301CD90A2
:10157000DC907A01E81AF90AEC9C8001ED9C100DD0
:10158000FC9C100D1124169507951695079511834F
:1015900000834817590728F4AD85BE851C92118237
:1015A0001082D22EAB81BC814D915D91BC83AB8307
:1015B00048175907C0F48B01022E02C016950795F3
:1015C0000A94E2F700FF0FC082017101022E04C0ED
:1015D000EE0CFF1C001F111F0A94D2F78701009523
:1015E0001095602371230E811F810D2C02C016956A
:1015F00007950A94E2F700FF5BC08B010D2C02C037
:10160000169507950A94E2F700FD52C0BC85B130EB
:1016100031F0B1114DC00F85021709F449C084178C
:10162000950748F584010D2C02C0169507950A947C
:10163000E2F700FF09C0118210824817590738F5F8
:10164000AD85BE851C9223C0481B590BD501ED907A
:10165000FC904E9D80014F9D100D5E9D100D11243C
:1016600016950795169507951183008301E0AD85C2
:10167000BE850C930CC048175907E8F284010D2C65
:1016800002C0169507950A94E2F700FDD4CFAD8508
:10169000BE854C91413061F4A40102C05695479536
:1016A000DA94E2F740FF04C00885198511830083AE
:1016B0002F5F3F4F32964D855E854F5F5F4F5E8750
:1016C0004D8752E0A50EB11CA2E06A0E711C2930B4
:1016D000310509F021CF7093BE026093BD0280E016
:1016E00090E0E981FA8121913191FA83E983820FB7
:1016F000931FE25EF140A9F79093CA018093C9015C
:101700008115904234F08FEF9FE19093CA0180934E
:10171000C9018091C9019091CA014FEF5FE1481B57
:10172000590B8091900290919102480F591F50934C
:10173000CA014093C9018091CB019091CC018417DB
:101740009507D1F08091C1028230B0F48091A5025A
:10175000882391F09A01220F232F221F330B4F77FA
:1017600061E080EE0E94F9048091C9019091CA0164
:101770009093CC018093CB012F960FB6F894DEBFE7
:101780000FBECDBFDF91CF911F910F91FF90EF90D2
:10179000DF90CF90BF90AF909F908F907F906F9091
:1017A0005F904F903F902F90089540916B0450911F
:1017B0006C042091690430916A0442175307B4F411
:1017C0009091E8009570E1F39091E80092FD19C0C6
:1017D0008093F10080916B0490916C0401968F735B
:1017E0009927892B19F48EEF8093E80080916B0480
:1017F00090916C04019690936C0480936B0481E04B
:10180000089580E00895CF92DF92EF92FF920F93B8
:101810001F93CF93DF931F92CDB7DEB7182F062FFC
:10182000E42E862F880F8E5F99830E94D50B83E06C
:101830000E94D50BF12EC12E9981D92E8C2D8F1996
:10184000801798F4F601E7FE02C0849101C0808100
:101850000E94D50B182F80E00E94D50B8123FFEF4B
:10186000CF1ADF0A8111EACF01C081E00F90DF912A
:10187000CF911F910F91FF90EF90DF90CF9008953F
:10188000DF92EF92FF920F931F93CF93DF93D82EA7
:101890008A017B01E40EF51EEB01CE15DF0571F028
:1018A000D7FE03C0FE01849101C088810E94D50B40
:1018B00021968111F2CF8FEF9FEF01C0C801DF9118
:1018C000CF911F910F91FF90EF90DF9008953FB758
:1018D000F8948091580490915904A0915A04B091C1
:1018E0005B0426B5A89B05C02F3F19F00196A11DEA
:1018F000B11D3FBFBA2FA92F982F8827820F911DA6
:10190000A11DB11DBC01CD0143E0660F771F881FEB
:10191000991F4A95D1F7089580E090E0089580E0FE
:101920000895CF92DF92EF92FF920F931F93CF9380
:10193000DF93CDB7DEB7C456D1090FB6F894DEBF3A
:101940000FBECDBF6C01DB019C919E5F9C93FE019D
:10195000319684E6DF011D928A95E9F788E0898354
:101960008BE08A8322E02C8391E09D839E8339E083
:10197000398774E07A879E879F873A8B44E24B8B46
:101980009C8B00E011E01E8B0D8B89E0E82EF12C82
:10199000F88EEF8A998F3B8F7C8F2F8F98A353E01F
:1019A00059A387E08CA34DA39EA318A70FA301E41E
:1019B00010E01AA709A786E08BA74CA72DA79EA722
:1019C0009FA789AB4AAB2BAB2CAB2DAB3FAB48AF42
:1019D00059AF9AAF5BAF9CAF2DAF9EAF21963FAF93
:1019E000219722964FAF229723965FAF2397249695
:1019F0002FAF249725967FAF259726969FAF2697E2
:101A000027969FAF279728969FAF28972A963FAF94
:101A10002A9745E02B964FAF2B972D962FAF2D97FA
:101A200060E470E02F967FAF6EAF2F9763964FAF55
:101A3000639785E264968FAF649765969FAF6597CD
:101A400066969FAF669767969FAF679768963FAF1A
:101A5000689769964FAF69976B962FAF6B976D96A6
:101A60007FAF6EAF6D97A1964FAFA197A2968FAF44
:101A7000A297A3969FAFA397A4969FAFA497A5966E
:101A80005FAFA597D60112969C9112979B839B8777
:101A90009F5F9A8F9D8F13968C912C968FAF2C976A
:101AA0008F5F80686A968FAF6A9744E650E0BF0107
:101AB00080E00E94400CCC59DF4F0FB6F894DEBF97
:101AC0000FBECDBFDF91CF911F910F91FF90EF908F
:101AD000DF90CF900895FC0182818F5BFB018083B2
:101AE00081E0089508950E94072A8DE499E4A4E412
:101AF000B9E4FB0180839183A283B38384E00895DA
:101B00008093E9008091F200882319F08AE38093A2
:101B1000E80008951F920F920FB60F9211242F9391
:101B20003F934F935F936F937F938F939F93AF9365
:101B3000BF93CF93EF93FF93C091E1008091E100B9
:101B4000837F8093E100C3FF0FC01092E90081E022
:101B50008093EB001092EC0082E38093ED001092F2
:101B6000410288E08093F000C2FF15C083E00E942C
:101B7000800D80916E04882329F080916E0481503D
:101B800080936E0480916D04882329F080916D0408
:101B9000815080936D04C4FF10C08091E2008E7E5E
:101BA00081608093E2008091E1008F7E8093E1006C
:101BB00080913F028E7E806111C0C0FF11C0809174
:101BC000E2008E7E80618093E2008091E1008E7E53
:101BD0008093E10080913F028E7E816080933F027E
:101BE000FF91EF91CF91BF91AF919F918F917F9195
:101BF0006F915F914F913F912F910F900FBE0F907A
:101C00001F90189590914102992311F057FF03C03E
:101C10008FEF9FEF08952FB7F89487708093E900B6
:101C20008091F20090E0841795070CF4AC01842FAA
:101C3000FB0194E6815030F090936D043091F100F7
:101C40003193F8CF4115510521F08091F20088239E
:101C500019F02FBFCA0108958BE68093E800F9CFF1
:101C60009FB7F89487708093E9008091F2009FBF3E
:101C700008958091600481110DC082E080935C041E
:101C800084E080935D0410925F0410925E0481E012
:101C9000809360048CE594E008950F931F93CF9395
:101CA000DF931F92CDB7DEB782E0898342E450E034
:101CB0006EE474E080E80E94400C0E94390EDC0162
:101CC00012960D911C9113970115110569F0D80119
:101CD000ED91FC910280F381E02DBE016F5F7F4F9B
:101CE000C801099597FF07C089810F90DF91CF91B7
:101CF0001F910F910895F80100851185E5CF1F927E
:101D00000F920FB60F921124CF92DF92EF92FF92B3
:101D10000F931F932F933F934F935F936F937F93F3
:101D20008F939F93AF93BF93EF93FF93CF93DF93E3
:101D3000CDB7DEB76C97DEBFCDBF1092E9008091C2
:101D4000E80083FF0CC2FE017596DE2ECF2E88E0E0
:101D50008E0F8E1729F09091F10090833196F9CF74
:101D600084E680936D0482EF8093E8008D8987FF7D
:101D700005C09091E80090FFFCCF03C09EEF9093C8
:101D8000E800982F907609F0C5C09E892F89188D9C
:101D900091110CC0803829F4809140028093F100A9
:101DA00002C01092F1001092F1004EC1422F50E09B
:101DB000512B913051F4811147C14130510509F047
:101DC00043C1809140028D7F0BC0933061F481113B
:101DD0003BC14130510509F037C18091400282601A
:101DE0008093400231C1953041F48091E80080FF3A
:101DF000FCCF20682093E30027C1963009F05EC035
:101E0000EB8CFC8C1092E90010926C0410926B0425
:101E1000123091F510926A04109269040E944D0EDE
:101E200099E0BE016F5F7F4FDB01E92F1D92EA95BC
:101E3000E9F799831A8391E09E8390EA98879AE064
:101E4000998720916B0430916C04275F3F4F3C834E
:101E50002B838D831092E90010926C0410926B0416
:101E6000F0926A04E092690449E050E080E00E9448
:101E7000400C0E944D0EE8C0F0926A04E0926904A2
:101E80000E94390EDC011296ED90FC901397E1143C
:101E9000F10409F4C7C0D701ED91FC910480F581EC
:101EA000E02D6D2D7C2DC7010995009719F00CF0E0
:101EB000CBC0CEC0F701E084F184E9CF973009F4BC
:101EC000C7C0983021F481E08093F100BDC0993003
:101ED00009F0BAC0837009F0BBC0E3EFF1E081E024
:101EE00021E036E39081992361F08093E90020930B
:101EF000EB0091919093EC003093ED008F5F873071
:101F000089F78EE78093EA001092EA008F89809328
:101F100041029AC08B8D9C8D1092E90010926C0446
:101F200010926B0490936A0480936904898D8111E7
:101F30005FC08E899D89913A59F4813209F088C039
:101F400047E050E06AEE71E080E00E94400C7CC007
:101F5000913209F07DC0833289F4888D90E0982F0A
:101F600088272F89822BA0E0B0E08093E601909330
:101F7000E701A093E801B093E90166C08032B1F4B3
:101F80008091E80082FFFCCFEAEEF1E087E08E0F5F
:101F90008E1729F09091F10090833196F9CF84E665
:101FA00080936D048BEF8093E80006C0823209F0C5
:101FB0004BC08F898093F10180913E02882319F0F4
:101FC000EEEFFAE002C0E0E0F8E08091EA019091E3
:101FD000EB01A091EC01B091ED01803B9440A10593
:101FE000B10509F0A0C08091F10180FF83C09BC0C2
:101FF0000E94390EDC0112960D911C911397011568
:10200000110531F1D801ED91FC910190F081E02DA5
:102010006D2D7C2DC8010995811116C0F801008530
:102020001185EDCF1130C1F0133091F48F898823E1
:1020300009F455C08230E9F440E865E08DE994E0A8
:102040000E94030C882321F08EEF8093E80087C064
:1020500081E28093EB0083C08B8D9C8D089711F4F7
:102060001093680480916804811136C063EA74E0BB
:1020700038C0813029F440E868E084E994E0E0CF9A
:10208000833031F70E94390EDC011296ED90FC90FE
:1020900013978E010F5F1F4F6801E114F10479F06F
:1020A000D701ED91FC910680F781E02DB801C701C1
:1020B0000995080F111DF701E084F184EECFD801D6
:1020C0001C92F60101900020E9F73197BF016C19CD
:1020D0007D0940E0C601B4CF65EB74E002C060E961
:1020E00074E06115710509F4B3CFFB01449150E030
:1020F00080E82BCFEE3F2AE0F20731F0808191811A
:102100009093FF0A8093FE0A87E797E79183808385
:102110009BE088E10FB6F894A895809360000FBE0D
:102120009093600091CF0FB6F894A89580916000CD
:10213000886180936000109260000FBEA895EE3F0A
:102140008AE0F80739F08091FE0A9091FF0A9183A6
:1021500080837ACF1092FF0A1092FE0A75CF6C9698
:102160000FB6F894DEBF0FBECDBFDF91CF91FF91C8
:10217000EF91BF91AF919F918F917F916F915F91FF
:102180004F913F912F911F910F91FF90EF90DF9012
:10219000CF900F900FBE0F901F901895823108F0CE
:1021A0008251E82FF0E0EE5BFB4FE49180917B00E1
:1021B000E3FB222720F930E095E0220F331F9A95A8
:1021C000E1F78F7D282B20937B00E770E064E0939C
:1021D0007C0080917A00806480937A0080917A00FC
:1021E00086FDFCCF809178002091790090E0922BC1
:1021F00008958F929F92AF92BF92CF92DF92EF920B
:10220000FF926B017C010E94670C4B015C01C114C1
:10221000D104E104F104F1F00E94670CDC01CB0170
:1022200088199909AA09BB09883E9340A105B105FF
:1022300070F321E0C21AD108E108F10888EE880E97
:1022400083E0981EA11CB11CC114D104E104F10467
:1022500019F7DDCFFF90EF90DF90CF90BF90AF9058
:102260009F908F9008958F929F92AF92BF92CF923E
:10227000DF92EF92FF920F931F93CF93DF9300D0E3
:102280001F92CDB7DEB7382F8B01809141028111AB
:1022900003C08FEF9FEF7CC080913F0280FF05C09D
:1022A0008091E00082608093E0004A018AEFF82E7E
:1022B000832F8770E82E9FE3C92E832F8072B82E5C
:1022C0002AE3D22E832F8074A82E8114910409F45E
:1022D00057C08FB7F894E092E9009091E80095FF1D
:1022E00005C09091F2002C2D291B01C020E08FBF6A
:1022F000211110C0FA94FF2061F261E070E080E0EB
:1023000090E039834A835B830E94F91039814A81C6
:102310005B81DBCF822F90E0881699060CF4282D84
:102320006FB7F894E092E9008091E80085FF26C03D
:10233000822F90E0881A990ABB2029F02150A8F03A
:102340001092F100FBCFF80137FF07C0215058F081
:1023500074917093F1003196F9CF215020F0719172
:102360007093F100FACF080F191F8091E80085FFE4
:102370000CC08114910411F4A11007C06FBFA5CF48
:1023800084E680936E04CA0103C0D092E800F6CFC1
:102390000F900F900F90DF91CF911F910F91FF90B1
:1023A000EF90DF90CF90BF90AF909F908F90089567
:1023B0002FB7F8946091540470915504809156049D
:1023C000909157042FBF08951F920F920FB60F924E
:1023D00011242F933F938F939F93AF93BF9380913B
:1023E000540490915504A0915604B0915704309133
:1023F000530426E0230F2D3720F40296A11DB11DB2
:1024000005C029E8230F0396A11DB11D2093530495
:102410008093540490935504A0935604B0935704AA
:102420008091580490915904A0915A04B0915B0492
:102430000196A11DB11D8093580490935904A09357
:102440005A04B0935B04BF91AF919F918F913F91DC
:102450002F910F900FBE0F901F9018951F920F9203
:102460000FB60F9211242F933F934F935F936F9367
:102470007F938F939F93AF93BF93EF93FF93E091DD
:102480000001F09101010995FF91EF91BF91AF918A
:102490009F918F917F916F915F914F913F912F917C
:1024A0000F900FBE0F901F9018950F931F93CF930F
:1024B000DF931F92CDB7DEB78C0169830E940C2A8F
:1024C0006981681741F0C8010F90DF91CF911F918A
:1024D0000F910C94142A0F90DF91CF911F910F91BF
:1024E00008950C940C2A9C012F5F3F4F2823392319
:1024F000232B79F09C0140E050E080E01216130697
:102500003CF420FF842F359527954F5F5F4FF6CF22
:1025100008958FE70895CF92DF92EF92FF920F9385
:102520001F93CF93DF936C017A018B01C0E0D0E061
:10253000CE15DF0589F0D8016D918D01D601ED91A1
:10254000FC910190F081E02DC6010995892B11F4D1
:102550007E0102C02196ECCFC701DF91CF911F9180
:102560000F91FF90EF90DF90CF900895CF93DF937E
:102570001F92CDB7DEB76983DC01ED91FC9102803B
:10258000F381E02D41E050E0BE016F5F7F4F099580
:102590000F90DF91CF910895CF93DF93EC0180915D
:1025A000F101882331F083E00E94331118161906D7
:1025B00034F081E090E09B838A8380E090E0DF91BB
:1025C000CF91089583E00C94800DCF93DF931F92F9
:1025D000CDB7DEB7FC018485958597FD05C02FEF4B
:1025E0003FEF358724870FC041E050E0BE016F5FA9
:1025F0007F4F82E00E94020E019719F4898190E0DA
:1026000002C08FEF9FEF0F90DF91CF9108950F934E
:102610001F93CF93DF931F92CDB7DEB78C01FC01E0
:102620008485958597FF12C041E050E0BE016F5F41
:102630007F4F82E00E94020E019719F4298130E059
:1026400002C02FEF3FEFF80135872487F80184851A
:1026500095850F90DF91CF911F910F910895FC0107
:102660008485958597FD06C082E00E94300E90E03B
:102670000196089582E00E94300E90E00895E0E215
:10268000F5E04491E1E0F5E02491E2EEF4E094918C
:10269000992309F451C04423E1F150E0FA01319744
:1026A000EF30F105B0F5E25AFF4F0C9496293091C6
:1026B00080003F7707C0309180003F7D03C030919C
:1026C0008000377F3093800024C034B53F7702C04C
:1026D00034B53F7D34BD1DC0309190003F7707C0B9
:1026E000309190003F7D03C030919000377F309350
:1026F00090000FC03091C0003F7703C03091C00000
:102700003F7D3093C00005C03091C200377F3093C9
:10271000C200E92FF0E0EE0FFF1FE953FB4FA59138
:10272000B4919FB7F894EC91811103C020952E23AA
:1027300001C02E2B2C939FBF0895CF93DF93CDB76D
:10274000DEB7A0970FB6F894DEBF0FBECDBF78946A
:1027500084B5826084BD84B5816084BD85B58260A6
:1027600085BD85B5816085BD80916E008160809357
:102770006E001092810080918100826080938100C0
:1027800080918100816080938100809180008160D0
:10279000809380008091910082608093910080916D
:1027A000910081608093910080919000816080937E
:1027B00090008091C10084608093C1008091C1002D
:1027C00082608093C1008091C10081608093C100CC
:1027D0008091C30081608093C3008091C0008260BB
:1027E0008093C0008091C20081608093C20080917C
:1027F0007A00846080937A0080917A00826080936E
:102800007A0080917A008E7F80937A0080917A009E
:10281000806880937A0010924102109240021092D8
:102820003F028091D70081608093D70080EA809337
:10283000D80089B58F7E89BD89B5826089BD09B40C
:1028400000FEFDCF61E070E080E090E00E94F910B2
:102850008091D8008F7C80618093D8008091E000C7
:10286000807F8093E0008091E1008E7E8093E10084
:102870008DE08093E200EEEFFFE7859194918B3F2E
:102880009C4D19F481E080933E0280917A00887F0C
:1028900080937A0080917A00856080937A008FEF30
:1028A00080937E0083EF80937D00E0E2F4E08591E9
:1028B00094912FB7F894FC01FF278291892B808394
:1028C0002FBFE8E2F4E0859194912FB7F894FC01D2
:1028D000FF27DF013E91892F809583238C93808190
:1028E000892B80832FBFEDEFF1E0819191912FB77C
:1028F000F894DC01BB278E91892B8C932FBF32E09B
:10290000EF30F30791F72198299A22982A9A239871
:102910002B9A8CE290E00E947112833009F47BC103
:1029200046E552E05A8B498B29E532E03E8B2D8BF0
:1029300043E351E0588F4F8B25EB31E03E832D83ED
:1029400042EB51E05C8B4B8B2DE231E03C872B87D7
:1029500047E251E05A87498724E432E038872F83E1
:10296000612C712C812C912C44E650E05E874D87C0
:10297000212C312C00E010E0A989BA896D91BA8B25
:10298000A98BC801C8960E945512ED89FE896191F4
:10299000FE8BED8BC8018D960E945512AF89B88DC4
:1029A0006D91B88FAF8BC801C2960E945512ED8110
:1029B000FE8160817801FCE3EF0EF11CC7010E94EB
:1029C0005512AB89BC896D91BC8BAB8BC8018A5BFE
:1029D0009F4F0E945512F801E05BFD4F6081C801D6
:1029E000805B9F4F0E945512F801E35BFD4F6081B1
:1029F000C801CF960E945512ED81FE816081C7010A
:102A00000E945512F801EA5CFE4F6081C801C5962C
:102A10000E945512F801E353FE4F6081C801889669
:102A20000E945512AB85BC856C91C1018D5A9F4F98
:102A30000E945512EB85FC856181C1018C5A9F4F24
:102A40000E945512A985BA856C91C101875A9F4F82
:102A50000E945512E985FA856181C101865A9F4F0E
:102A60000E945512F801E65BFD4F6081C801815A52
:102A70009F4F0E945512AF81B8856C91C1018F5E46
:102A80009E4F0E945512EF81F8856181C1018E5ED3
:102A90009E4F0E9455129401220F331F220F331FA5
:102AA000388B2F87E12CF12CA30146505F4F5A8FB2
:102AB000498F9401245F3F4F3C8F2B8FF701E60D28
:102AC000F71DE45AFD4F6081898D9A8D8E0D9F1DF3
:102AD0000E9455126401F601E20DF31DED5FFE4FF9
:102AE0006081C6018C5F9E4F0E9455123FEFC31A52
:102AF000D30A4B8D5C8DC416D50669F74D845E8470
:102B0000A12CB12C4F8558894A0D5B1D9201C12C17
:102B1000D12CF601E40FF51FE75CFE4F6081C9017F
:102B20002D8F3E8F4F8F58A30E94551285E0C80EFF
:102B3000D11C2D8D3E8D2F5F3F4F4F8D58A198E2B8
:102B4000C916D10431F7AFEFAA1ABA0ABAE04B0E90
:102B5000511CE5E0AE16B104A9F6FFEFEF1AFF0A2B
:102B600023E0E216F10409F0A9CF33E03093E80244
:102B70000E94D81160936602709367028093680286
:102B8000909369020F5F1F4F4D815E814F5F5F4FD2
:102B90005E834D832B853C852E5F3F4F3C872B8783
:102BA00032E0230E311C49855A854E5F5F4F5A87AC
:102BB00049872F8138852E5F3F4F38872F834D857A
:102BC0005E854E5C5F4F5E874D875AE0850E911C97
:102BD00083E0680E711C0330110509F0CDCE08E2C8
:102BE00010E0C8010E947112682FC80180579E4FE3
:102BF0000E94551265E070E080E090E00E94F910BC
:102C00000F5F1F4F003491E0190759F763E08CE222
:102C100090E00E94551285E290E00E94711283308C
:102C200009F455C00E949F090E94730386E10E9427
:102C3000CE1086E10E94CE1086E10E94CE109093C5
:102C400043028093420290932904809328040E94B7
:102C50002E05E0E2F4E0859194912FB7F894FC0101
:102C6000FF278081892B80832FBF64EF71E080E094
:102C700090E00E94F910E0E2F4E0259134919FB7D2
:102C8000F894F901FF272081832F80958223808388
:102C90009FBF80E1809381001092800081E080934B
:102CA000ED0228EA32E03093EC022093EB023093FD
:102CB00087002093860091E19093810024EC32E01C
:102CC000309301012093000180936F005AC2FDE709
:102CD000CF2EF2E0DF2EA2E1EA2EF12CC7010E94F6
:102CE0007112082F8093EA02C70101960E947112A7
:102CF000182F8093E90284E290E00E947112282F3D
:102D000030E03093B9012093B801212F30E0302B0F
:102D1000D6012D933D936D01B2E0EB0EF11CE4E280
:102D2000EE16F104D9F67ECF8F70863009F492C288
:102D3000F8948091EE039091EF03A091F003B0918D
:102D4000F1034091F2035091F3036091F403709109
:102D5000F503841B950BA60BB70B8F739927AA2736
:102D6000BB27892B8A2B8B2B09F40EC28091F2038F
:102D70009091F303A091F403B091F503880F991F8C
:102D8000880F991FFC01E251FD4F908181810281E2
:102D900013818090EE039090EF03A090F003B09029
:102DA000F1034091F2035091F3036091F4037091A9
:102DB000F50384169506A606B706C1F04091F20306
:102DC0005091F3036091F4037091F5034F5F5F4FEF
:102DD0006F4F7F4F4F735527662777274093F20336
:102DE0005093F3036093F4037093F5037894911177
:102DF0009BCF0E94D8110091350410913604209188
:102E0000370430913804DC01CB01801B910BA20BFD
:102E1000B30B0597A105B10508F4A3C09090340445
:102E200082E0482E84E0582E46EF53E058874F83C7
:102E30009CE0E92E94E0F92E25E0222E24E0322EAB
:102E40003CEFC32E33E0D32E8FE094E09E838D833E
:102E500009EF13E0AFE0B2E0BA87A987A12CB12C4B
:102E600088248394D2016C90662029F0F1011082AD
:102E7000D6011D921C92E985FA8581919191FA877C
:102E8000E987FC01FF2732978081892311F00C9498
:102E9000E727F8018081882319F08150D8018C93AD
:102EA000D8016C9161110C94A827F70180829924B4
:102EB0009394AF81B8858C91F701908181110C9426
:102EC000BE27992311F40C94C72761100C94C727CF
:102ED000AD81BE818C92992ED6018D919C918D32BF
:102EE000914010F00C94DC27F7018081811105C01E
:102EF000D1011C92F60111821082AF81B8858C93AA
:102F0000811102C0F2011082FFEFAF1ABF0A2FEF4A
:102F1000421A520A4F8158854F5F5F4F58874F833F
:102F20005FEFE51AF50A8FEF281A380A92E0C90E0A
:102F3000D11CAD81BE811196BE83AD830F5F1F4F43
:102F4000B3E0AB16B10409F08DCF909234040E9427
:102F5000D8116093350470933604809337049093AE
:102F600038048091340481110C94CF1F8091E802C1
:102F700081110C94BD22F894A4ECB2E09D0180E094
:102F800090E0FC01EE0FFF1FEA52FD4F408151819E
:102F9000F901419351939F0101968930910589F779
:102FA00078948091B8019091B9014EEC5FEF1A01CD
:102FB000281A390A0091BF021091C0025DE7E52E80
:102FC00052E0F52EF70180E090E0B82E6D917D91F2
:102FD00021913191690142E3C41AD108C616D7067E
:102FE00070F4412C512C32014394082E04C0440C3F
:102FF000551C661C771C0A94D2F704291529220D4A
:10300000331D2617370778F021E030E040E050E02C
:1030100004C0220F331F441F551FBA94D2F72095C6
:1030200030950223132301968930910571F6109390
:10303000C0020093BF02C8010E94731280936A020B
:103040008091A90281110C940723E091A602F0E07F
:10305000E353FE4F4081842F8B7F11F00C942D237E
:1030600098012C7F332736952795F901E459FC4FB9
:10307000E4918E2F90E0443011F40C942623F90152
:10308000E359FC4FE491E0932F04FC01F0933304E7
:10309000E09332041091C30211110C948A238091A1
:1030A000C202882311F40C942A2480913204909156
:1030B0003304019631F0809132049091330480936F
:1030C000E2018091B30281110C9445249091B002E9
:1030D0008091AF02FCE09F9F800D1124809331040A
:1030E00090913004933019F4845F80933104F09010
:1030F000C202F1100C94EF250E94D8110091AB028E
:103100001091AC022091AD023091AE02DC01CB01F6
:10311000801B910BA20BB30B0A97A105B10510F010
:103120000C942F26E091A602F0E0E353FE4F0081BD
:10313000053029F48091310481508093310440910D
:10314000A502442311F40C9402272091E20130E0FF
:1031500080912C0490E050913104851B910957FD1A
:1031600093952817390711F00C9402278091A50236
:1031700081110C94712780E090E0892B11F00E945E
:103180000000E5E0DE2ED4CD809172040E94300E66
:10319000882309F45AC08090EE039090EF03A0902A
:1031A000F003B090F103FFEF8F1A9F0AAF0ABF0A36
:1031B0002FE382229924AA24BB248091F2039091C8
:1031C000F303A091F403B091F50388169906AA06BB
:1031D000BB0609F4CBCD809172040E94300E44E00E
:1031E00050E0BE016F5F7F4F809172040E94020E1B
:1031F00004970CF4BBCD8091EE039091EF03A09166
:10320000F003B091F103880F991F880F991FFC01FB
:10321000E251FD4F49815A816B817C81408351830A
:10322000628373838092EE039092EF03A092F00387
:10323000B092F1033FEF831A930AA30AB30A4FE354
:1032400084229924AA24BB24B8CF10E000E080E0B7
:1032500090E09FCD063609F07EC4E12EF12C8FEF71
:10326000810F823168F581E08093E80210FD1DC076
:10327000970135952795F901EE0FFF1FE558FD4F92
:10328000808191810597918380834091B80150910D
:10329000B901841B950BC2970597F0F42D5E46E6A5
:1032A00067E080EB0E94F90417C0F7013196EE7FCA
:1032B000E558FD4F808191810596918380830CC0F4
:1032C000133121F40E94F80983E029C01F3721F44B
:1032D00081E08093C30234C01E3731F481E08093D3
:1032E000A9020E94C4062CC01F3331F4E091A6024B
:1032F000F0E0E75AFD4F0FC0103431F4E091A60220
:10330000F0E0E75AFD4F15C0113461F4E091A602D8
:10331000F0E0EA5AFD4F10820E942E0581E0809372
:10332000E8020EC0123461F4E091A602F0E0EA5A1D
:10333000FD4FCC24C394C0820E942E05C092E802A7
:103340002DEC822E21E0922E3EE1A32EB12CCC2436
:10335000C394EA14FB04BCF0C50105968E159F05C5
:1033600094F0812F8A19D4018C930E942E05C0926B
:10337000E8020E94D81160936602709367028093FE
:10338000680290936902BAE0AB0EB11CEFEF8E1A9F
:103390009E0AFCE3AF16B104E1F694ECC92ECA0C08
:1033A000EA14FB04D1F4C092A6021092A4020E9477
:1033B0002E050E94C406CC2019F085EC8A0D01C0B0
:1033C00081E08093E8020E94D811609366027093B6
:1033D000670280936802909369022FEFA21AB20AE3
:1033E0003FE3A316B104C9F686E4A82EB12C8AEBFC
:1033F0008A0DEA14FB04D9F4E091A602F0E0EB5444
:10340000FE4F80830E942E058091C102882311F017
:103410008F5F01C081E08093E8020E94D811609321
:1034200066027093670280936802909369024FEF7F
:10343000A41AB40A59E4A516B104C9F6B0E54B2E96
:10344000512C80EB840DE414F504D9F4E091A6022C
:10345000F0E0EE54FE4F80830E942E058091B20270
:10346000882311F08F5F01C081E08093E8020E9401
:10347000D8116093660270936702809368029093FC
:1034800069028FEF481A580A93E549165104C9F6A4
:103490002091B1018AE590E036EA380FE816F90686
:1034A00009F4232F019682369105B1F72093B101DB
:1034B000312CA8E29A2E88248394C090B101C314C1
:1034C00071F03394A8E03A12F8CF912CAC2CB12CC7
:1034D00088248394A5014D5A5D4F7A0172C0F4E6A9
:1034E000AF2EB12CD39C300111248CE98A0DEA1443
:1034F000FB04B1F49091A602F301999EE00DF11D39
:103500001124E75CFE4F80838092E8020E94D8116C
:1035100060936602709367028093680290936902D9
:10352000BFEFAB1ABB0AEDE6AE16B104F1F6EEE65C
:10353000AE2EB12CDC9C3001112482E98A0DEA14F4
:10354000FB04B1F49091A602F301999EE00DF11DE8
:103550001124E75CFE4F81838092E8020E94D8111B
:103560006093660270936702809368029093690289
:10357000FFEFAF1ABF0A21E7A216B104F1F6A1CFFF
:10358000113711F58091A60290E0FC01EE0FFF1FAC
:10359000E80FF91FEA0DFB1DE45AFD4F10828092DF
:1035A000E8020E94D81160936602709367028093CC
:1035B000680290936902D7011C929394F3E09F16DE
:1035C00009F1C910FACFDCCF1237B9F78091A60202
:1035D00090E0FC01EE0FFF1FE80FF91FEA0DFB1D45
:1035E000E45AFD4F80828092E8020E94D8116093D5
:1035F0006602709367028093680290936902F701F4
:103600001082DBCF1B3709F031C18091A60290E018
:10361000FC01E353FE4F608188960E945512809111
:10362000A60290E0FC01EA5CFE4F6081C5960E9414
:1036300055128091A60290E0FC01E05BFD4F608195
:10364000805B9F4F0E9455128091A60290E0FC0182
:10365000EA5AFD4F6081C8960E9455128091A602D9
:1036600090E0FC01E75AFD4F60818D960E94551253
:103670008091A60290E0FC01ED5CFE4F6081C29655
:103680000E9455128091A60290E0FC01EB54FE4F7F
:103690006081CC960E9455128091A60290E0FC01B8
:1036A000E35BFD4F6081CF960E9455128091A60288
:1036B00090E0FC01EE54FE4F60818A5B9F4F0E94B8
:1036C00055128091A60290E0880F991FFC01E35DDE
:1036D000FE4F60818D5A9F4F0E9455128091A60225
:1036E00090E0FC01EE0FFF1FE35DFE4F61818A96C3
:1036F000880F991F0E9455128091A60290E0880FB2
:10370000991FFC01E95DFE4F6081875A9F4F0E941F
:1037100055128091A60290E0FC01EE0FFF1FE95DBB
:10372000FE4F61818D96880F991F0E9455128091DE
:10373000A60290E0FC01E65BFD4F6081815A9F4F3D
:103740000E9455128091A60290E0880F991FFC01FB
:10375000EC5BFD4F60818F5E9E4F0E945512809101
:10376000A60290E0FC01EE0FFF1FEC5BFD4F6181B4
:1037700087579F4F880F991F0E945512E12CF12CFB
:103780005CE0C52E2091A602F701C29EE00DF11D5E
:103790001124ED5FFE4FC7018C5F9E4F608134E1C5
:1037A000239F800D911D11240E9455124FEFE41AA2
:1037B000F40A5CE0E516F10429F7E12CF12C48E26B
:1037C000C42E2091A602822F90E0FC01EE0FFF1F75
:1037D000E80FF91FEE0DFF1DE45AFD4FC701A3E0EE
:1037E0002A9F800D911D1124608186509F4F0E9459
:1037F0005512612C712C812C912CA12CB12C809113
:10380000A602DA9CF001DB9CF00D1124C89EE00DAD
:10381000F11D1124E75CFE4FE80DF91D930142E311
:10382000849F200D311D1124C9018C599F4F608147
:103830008A0D9B1D0E9455125FEFA51AB50A88E0FC
:10384000A816B104E1F69FEF891A990AAAE06A0E58
:10385000711CB5E08B16910481F6EFEFEE1AFE0AAB
:10386000F3E0EF16F10409F0ACCF67C11C3709F0A3
:1038700043C1212C312C1E821D8224E630E0388782
:103880002F838DE2E82EF12C98E2C92EE091A6025A
:10389000F0E0E05BFD4F6081C70183960E94551206
:1038A000E091A602F0E0E353FE4F6081C701059767
:1038B0000E945512E091A602F0E0EA5CFE4F6081A2
:1038C000C70108960E945512E091A602F0E0EA5A5C
:1038D000FD4F6081C7010B960E945512E091A60230
:1038E000F0E0E75AFD4F6081C7010E945512E09158
:1038F000A602F0E0ED5CFE4F6081C70105960E94D4
:103900005512E091A602F0E0EB54FE4F6081C70132
:103910000F960E945512E091A602F0E0E35BFD4F86
:103920006081C70142960E945512E091A602F0E024
:10393000EE54FE4F6081C70149960E945512E091F6
:10394000A602F0E0EE0FFF1FE35DFE4F6081C201B3
:103950000E945512E091A602F0E0EE0FFF1FE35D1A
:10396000FE4F6181C20101960E945512E091A602AC
:10397000F0E0EE0FFF1FE95DFE4F6081C201069689
:103980000E945512E091A602F0E0EE0FFF1FE95DE4
:10399000FE4F6181C701880F991F0E945512E09167
:1039A000A602F0E0E65BFD4F6081C701C2960E946F
:1039B0005512E091A602F0E0EE0FFF1FEC5BFD4F09
:1039C0006081C20182549F4F0E945512E091A6026D
:1039D000F0E0EE0FFF1FEC5BFD4F6181C2018154EF
:1039E0009F4F0E945512812C912C51013CEFA31A3C
:1039F0003EEFB30A8091A602F4014CE0489FE00D2F
:103A0000F11D1124ED5FFE4F6081C501880D991DE8
:103A10000E9455125FEF851A950A8CE08816910472
:103A200049F7812C912CAD80BE809AEFA90EB11C74
:103A30008091A60290E0FC01EE0FFF1FE80FF91F36
:103A4000E80DF91DE45AFD4F6081C501880D991DEF
:103A50000E945512AFEF8A1A9A0AB3E08B169104AE
:103A600039F76F807884812C912CA12CB12C809116
:103A7000A602DA9CF001DB9CF00D1124C89EE00D3B
:103A8000F11D1124E75CFE4FE80DF91D6081C501B1
:103A9000860D971D0E945512EFEFAE1ABE0AF8E090
:103AA000AF16B10421F72FEF821A920A3AE0630EA3
:103AB000711C45E084169104C1F65FEFE51AF50A22
:103AC00082E0480E511C2F8138852E5C3F4F38878D
:103AD0002F834D815E814D5F5F4F5E834D8354E147
:103AE000250E311C80E3E816F10409F0CFCE0E94C8
:103AF0009F090E94730321C01D3709F007C288EB9C
:103B0000E82EFF24F394C7010E947112682FC701A9
:103B1000805991400E9455129FEFE91AF90AA0EDD1
:103B2000EA16A2E0FA0679F70E949F090E94730341
:103B30008091A90281110E94C40683E08093E8026B
:103B40000E94D811609366027093670280936802A6
:103B500090936902DBC1073699F481E08093E80213
:103B60000E94D81160936602709367028093680286
:103B700090936902E091A602F0E0ED5CFE4F9FC0D9
:103B8000053739F581E08093E8020E94D8116093EF
:103B90006602709367028093680290936902E090D6
:103BA000A602F12CC701880F991FFC01E95DFE4FA9
:103BB0007F01212F30E0AFEFBFE10E94442A24E6CD
:103BC00030E040E050E00E94222AD7012D933C9340
:103BD0009BC10F36B9F481E08093E8020E94D811AE
:103BE0006093660270936702809368029093690203
:103BF000123318F41093360187C181E8810F809346
:103C0000360182C10037B9F481E08093E8020E9456
:103C1000D811609366027093670280936802909354
:103C20006902123318F4109337016EC181E8810FD5
:103C30008093370169C10137B9F481E08093E802CC
:103C40000E94D811609366027093670280936802A5
:103C500090936902123318F41093380155C181E82A
:103C6000810F8093380150C1083671F490910201A0
:103C700081E02FEF210F181301C0922F8F5F8D303D
:103C8000D1F79093020142C10936D9F481E08093C3
:103C9000E8020E94D81160936602709367028093D5
:103CA00068029093690280910201E091A602BCE053
:103CB000EB9FF0011124E80FF11DED5FFE4F108323
:103CC00023C10D36A1F481E08093E8020E94D8114F
:103CD0006093660270936702809368029093690212
:103CE000812F90E09093B9018093B8010FC10A36FB
:103CF00009F00CC1103108F409C11031A1F481E0C0
:103D00008093E8020E94D811609366027093670264
:103D10008093680290936902E091A602F0E0E05B74
:103D2000FD4F108216C01131B1F4FF24F394F092CC
:103D3000E8020E94D8116093660270936702809334
:103D4000680290936902E091A602F0E0E05BFD4F0B
:103D5000F0820E942E058CEE810F893048F581E0BB
:103D60008093E8020E94D811609366027093670204
:103D70008093680290936902E091A602F0E0EE0F52
:103D8000FF1FE35DFE4F8CEE810F41E050E060E0ED
:103D900070E004C0440F551F661F771F8A95D2F745
:103DA00080819181482B592B518340830E942E059D
:103DB00082EE810F893070F581E08093E8020E94E5
:103DC000D8116093660270936702809368029093A3
:103DD0006902E091A602F0E0EE0FFF1FE35DFE4FE7
:103DE00082EE810F21E030E040E050E004C0220F7D
:103DF000331F441F551F8A95D2F7DA01C9018095F8
:103E000090952081318182239323918380830E9426
:103E10002E052BC0173299F481E08093E8020E94AE
:103E2000D811609366027093670280936802909342
:103E30006902E091A602F0E0E65BFD4F4DC018324A
:103E4000A1F4FF24F394F092E8020E94D811609349
:103E50006602709367028093680290936902E09112
:103E6000A602F0E0E65BFD4F4EC01932D9F481E0C6
:103E70008093E8020E94D8116093660270936702F3
:103E80008093680290936902E091A602F0E0EE0F41
:103E9000FF1FEC5BFD4F80912804909129049183D2
:103EA000808332C01A3221F482E08093C3022EC094
:103EB0001B32A1F481E08093E8020E94D811609344
:103EC0006602709367028093680290936902E091A2
:103ED000A602F0E0E35BFD4F108216C01C32B1F485
:103EE000FF24F394F092E8020E94D81160936602D6
:103EF000709367028093680290936902E091A60232
:103F0000F0E0E35BFD4FF0820E942E05C12C58E2E9
:103F1000F52EEE24E3948091B1018C113AC00A365B
:103F200079F41031B0F5E091A602FE9EF001112463
:103F3000DC9CE00DF11D1124E75CFE4F12831DC0D7
:103F40000B3669F4E091A602FE9EF0011124DC9C80
:103F5000E00DF11D1124E75CFE4F13830EC00C36FB
:103F6000C1F4E091A602FE9EF0011124DC9CE00D5C
:103F7000F11D1124E75CFE4F1483E092E8020E94D9
:103F8000D8116093660270936702809368029093E1
:103F90006902C39438E0C312BECF0C949816809186
:103FA0001504882351F080911304882331F0109276
:103FB0001304109234041092150480916502882332
:103FC00009F410C180910F048823B9F180910E0487
:103FD000811133C080910D0481112FC08091C302E3
:103FE00081112BC08091BF029091C0029695879558
:103FF000089719F510920F0411E0109309048091AD
:10400000080424E242E361E081110CC080E90E94CF
:10401000F90424E242E36FE080E90E94F90410937E
:1040200008040BC080E90E94F90420E042E36FE03D
:1040300080E90E94F9041092080480910F048823FB
:10404000B9F180910E04811133C080910D0481116A
:104050002FC08091C30281112BC08091BF0290912B
:10406000C00296958795049719F510920F0411E0F8
:10407000109309048091080424E243E361E0811174
:104080000CC080E90E94F90424E243E36FE080E978
:104090000E94F904109308040BC080E90E94F904FF
:1040A00020E043E36FE080E90E94F90410920804E5
:1040B00080910F04882309F451C080910E0481116E
:1040C0004DC080910D04811149C08091C3028111BE
:1040D00045C08091BF029091C00296958795409708
:1040E000E9F510920F0481E0809309048091C102E8
:1040F0008F5F833019F08093C10202C01092C10219
:104100001091C102123069F48FEF9FE19093CA01C0
:104110008093C9012FE34FE761E080EE0E94F9042C
:1041200002C0112319F081E0810F01C081E080936A
:10413000E8020E94D8116093660270936702809330
:104140006802909369028091A902882339F026E4DD
:10415000210F46E667E080EB0E94F90480910F048E
:10416000882309F43FC080910E0481113BC08091E7
:104170000D04811137C08091C302811133C0809139
:10418000BF029091C00296958795029759F51092BB
:104190000F0481E0809309048091A6028F5F833031
:1041A00019F08093A60202C01092A6021092A402F7
:1041B0000E942E058091A602882311F08F5F01C016
:1041C00081E08093E8020E94D811609366027093A8
:1041D000670280936802909369028091A90281111D
:1041E0000E94C406809112048823B1F080910E04CD
:1041F000811112C080910D0481110EC08091C30203
:1042000081110AC080910904811102C00E943A08FC
:10421000109212041092090480911304882309F16A
:1042200080910C0481111DC080910E04811119C070
:104230008091A60290E0FC01EE0FFF1F8E0F9F1FE2
:10424000FC01E45AFD4F818181110BC080910A0469
:10425000811103C081E00E943A0810921304109269
:104260000A0480911404882309F180910C048111BF
:104270001DC080910D04811119C08091A60290E0AB
:10428000FC01EE0FFF1F8E0F9F1FFC01E45AFD4F34
:10429000828181110BC080910B04811103C082E0E7
:1042A0000E943A081092140410920B048091120498
:1042B0008823E1F08091C302811118C08091A60289
:1042C00090E0FC01EE0FFF1F8E0F9F1FFC01E45AD0
:1042D000FD4F8081882351F080910904811102C033
:1042E0000E943A081092120410920904809113045B
:1042F0008823C9F08091A60290E0FC01EE0FFF1F19
:104300008E0F9F1FFC01E45AFD4F8181882359F0D5
:1043100080910A04811103C081E00E943A08109242
:10432000130410920A04809114048823C9F0809128
:10433000A60290E0FC01EE0FFF1F8E0F9F1FFC01F5
:10434000E45AFD4F8281882359F080910B0481113A
:1043500003C082E00E943A081092140410920B04E9
:10436000809112048823E1F080910D048823C1F02C
:10437000E091A602F0E0CF01880F991FE80FF91F26
:10438000E45AFD4F808181110BC08181811108C0E9
:104390001092120481E08093150483E00E943A0891
:1043A000809114048823E1F080910D048823C1F0EA
:1043B000E091A602F0E0CF01880F991FE80FF91FE6
:1043C000E45AFD4F818181110BC08281811108C0A7
:1043D0001092140481E08093150484E00E943A084E
:1043E00080910504882311F180910D0481111EC074
:1043F00080910E0481111AC08091A60290E0FC0108
:10440000EE0FFF1F8E0F9F1FFC01E45AFD4F8081AE
:1044100081110CC085E00E943A0881E0809302047B
:10442000109205041092FD031092FC038091060483
:10443000882311F180910C0481111EC080910E041B
:1044400081111AC08091A60290E0FC01EE0FFF1FBF
:104450008E0F9F1FFC01E45AFD4F818181110CC01A
:1044600086E00E943A0881E08093030410920604DB
:104470001092FF031092FE0380910704882311F12C
:1044800080910C0481111EC080910D0481111AC00D
:104490008091A60290E0FC01EE0FFF1F8E0F9F1F80
:1044A000FC01E45AFD4F828181110CC087E00E941B
:1044B0003A0881E0809304041092070410920104EA
:1044C0001092000480910F04882329F180916502E5
:1044D0008823E1F08091BF029091C0029695879564
:1044E00088309105C1F084309105A9F0029799F0C8
:1044F0008091A60290E0FC01EE0FFF1F8E0F9F1F20
:10450000FC01E45AFD4F8081882329F010920F04AA
:1045100080E00E94910680911004882399F0809198
:10452000A60290E0FC01EE0FFF1F8E0F9F1FFC0103
:10453000E45AFD4F8181882329F01092100481E014
:104540000E94910680911104882399F08091A6021F
:1045500090E0FC01EE0FFF1F8E0F9F1FFC01E45A3D
:10456000FD4F8281882329F01092110482E00E947D
:104570009106109234040C94B6170E94D811009141
:104580006602109167022091680230916902DC0195
:10459000CB01801B910BA20BB30B883C9105A105AD
:1045A000B10510F40C94BB1780918F02E0E2F4E0A7
:1045B0008823A1F0259134919FB7F894F901FF2742
:1045C0002081832F8095822380839FBF8091E80282
:1045D00081508093E80210928F020DC085919491D2
:1045E0002FB7F894FC01FF278081892B80832FBF90
:1045F00081E080938F020E94D811609366027093CD
:10460000670280936802909369020C94BB178091B3
:104610001604909117048017910711F40C94251833
:10462000212F220FD02E07FD216042E767E080EBAB
:104630000E94F9042D2D43E767E080EB0E94F90406
:1046400010931704009316040C94251801FD02C062
:104650000C943F1801970C943F184130B9F410FDA9
:1046600004C082E080932F044DC00E7F1127F80113
:10467000E459FD4FE4912E2F30E0F801E359FD4F4E
:10468000E491E0932F04F9010C944618423051F460
:1046900010FF38C0F801EE7FFF27F695E795E4514B
:1046A000FE4F17C0433001F5C8019695879591607C
:1046B0000E94731290E0EAEDF1E020E030E04491D6
:1046C00050E08417950749F4F901EE0FFF1FE552FA
:1046D000FE4FE491F0E00C9446182F5F3F4F329666
:1046E0002930310561F712C0453081F4F801F695A3
:1046F000E795E652FF4FE491F0E0309711F00C940B
:10470000461804C0EAE4F0E00C944618EFEFFFEF1F
:104710000C94461880918F02811124C081E00E9480
:104720003F1381E080938F020E94D8116093180498
:104730007093190480931A0490931B04113049F06C
:104740008091AA02882371F010927E0210927D025D
:1047500009C0EFE7F2E01192119232E0EF38F3076F
:10476000D1F7EECF1130B1F40E94D8118090180427
:1047700090901904A0901A04B0901B04DC01CB01A6
:1047800088199909AA09BB0981319742A105B10588
:1047900030F017C01230A9F40E94D81112C0A6EC54
:1047A000B2E0EDE7F2E08D919D91228133812817EF
:1047B000390710F493838283329652E0ED38F5077F
:1047C00091F78091AA02882379F08091C402909198
:1047D000C50220917D0230917E022817390720F40E
:1047E00090937E0280937D021130C1F40E94D81113
:1047F000009118041091190420911A0430911B049F
:10480000DC01CB01801B910BA20BB30B81319742D2
:10481000A105B10508F0F2C30C944F18123011F045
:104820000C944F180E94D81100911804109119048B
:1048300020911A0430911B04DC01CB01801B910BE9
:10484000A20BB30B89389341A105B10508F0D6C37B
:104850000C944F188091C102823011F40C945518B9
:1048600020913204309133048091E20190E082176C
:10487000930711F40C9455188091320490913304ED
:10488000019609F0D9C30C9455188091B202823078
:1048900011F40C946618F8948091A7029091A802E4
:1048A000909327048093260478940E94D811009155
:1048B0002204109123042091240430912504AB019B
:1048C000BC01401B510B620B730B8091BF01909197
:1048D000C001092E000CAA0BBB0B481759076A0729
:1048E0007B0720F0809121048111D4C30E94D8114C
:1048F00000911D0410911E0420911F04309120048A
:10490000AB01BC01401B510B620B730B8091BD01CD
:104910009091BE01092E000CAA0BBB0B481759073A
:104920006A077B0720F080911C048111B6C30091B7
:104930002604109127048091280490912904A8014D
:10494000481B590B2091BC0130E06091B202E0910C
:10495000210470911C04241735071CF5E11121C0B6
:1049600071111FC061111DC02091C2013091C3019E
:1049700020173107B4F473E0F72EF0922A0481E097
:10498000809321040E94D811609322047093230421
:10499000809324049093250480913004833039F56A
:1049A00028C0801B910B2091BB0130E028173907EC
:1049B0002CF5E11123C0611121C071111FC080913C
:1049C0002A048330D9F4FF24F394F0922A04F0925D
:1049D0001C040E94D81160931D0470931E048093E0
:1049E0001F049093200480913004813011F0F092E4
:1049F000300410932904009328045BC08091C20105
:104A00009091C301801791071CF021E020932A04A4
:104A1000613031F4801791071CF422E020932A04BE
:104A2000E1111FC071111DC061111DC080179107D8
:104A3000E4F48091E20190E0CC974091C101489F5D
:104A40009001499F300D11248091C4019091C501BE
:104A5000820F931F8017910744F082E080932A040D
:104A600004C0711119C0611117C08091E20190E07A
:104A7000CC974091C101489F9001499F300D11246E
:104A80008091C4019091C501820F931F80179107F7
:104A90001CF483E080932A0480912A0490913004CE
:104AA00089138093300410932904009328041092F2
:104AB000B3028091B102882311F40C94661880919E
:104AC000B202823009F441C04091C2015091C30149
:104AD0002091E20130E02C5331098091C101829F85
:104AE000B001839F700D11248091C4019091C50184
:104AF0009B01280F391FC901841B950B959587953C
:104B0000840F951F40912A04433059F4820F931F5C
:104B10002091280430912904A901481B590BCA018E
:104B20000AC0423091F42091280430912904D9011F
:104B3000A81BB90BCD0145E0489F9001499F300D5E
:104B400011243093910220939002809190029091D1
:104B50009102853F914034F084EF91E0909391026F
:104B60008093900280919002909191028C309E4FA0
:104B700034F48CE09EEF90939102809390028091A8
:104B8000C102823011F00C946618009190021091CD
:104B900091020150104E1093CA010093C9018091F7
:104BA000CB019091CC018017910711F40C946618F9
:104BB0008091A502882311F40C9466189801220FA5
:104BC000232F221F330B402F4F7761E080EE0E948E
:104BD000F9041093CC010093CB010C94661820913A
:104BE0002F04223010F00C947C188FEF9FE19093EB
:104BF000CA018093C901213051F42091C60130913E
:104C0000C701821B930B9093CA018093C901009145
:104C1000C9011091CA018091900290919102080FF0
:104C2000191F1093CA010093C9018091CB01909183
:104C3000CC018017910711F40C947C189801220F75
:104C4000232F221F330B402F4F7761E080EE0E940D
:104C5000F9041093CC010093CB010C947C180E94B2
:104C6000D8116093AB027093AC028093AD02909325
:104C7000AE02F11008C08091C102823009F47DC0FB
:104C80000E942C0A7AC080912F04823009F075C0EE
:104C90001092CA011092C901E091A602F0E0E3531C
:104CA000FE4F8081982F9B7F09F02EC24091CA024F
:104CB0005091CB022091C80130E08091C8029091C0
:104CC000C9022417350708F0FAC16091BF0263FDDD
:104CD000F6C1421B530BE0919802F09199022817FC
:104CE000390708F0DDC162FDDBC1821B930B6091C7
:104CF000960270919702869F9001879F300D969F34
:104D0000300D112436952795369527954E9FC00175
:104D10004F9F900D5E9F900D1124969587959695C7
:104D20008795280F391F3093CA012093C9018091BC
:104D3000C6019091C7012091C9013091CA01821723
:104D4000930708F40EC28091C9019091CA010FEF38
:104D50001FE1081B190B8091900290919102080F9E
:104D6000191F1093CA010093C9018091CB01909142
:104D7000CC018017910709F0F9C180912E048F5F53
:104D80008A3021F080932E040C94921810922E04F5
:104D9000E8E2F4E085919491FC01FF27329780814D
:104DA000892321E009F420E02093AA0280912D04B8
:104DB000821761F020932D048091A902882331F09D
:104DC000285846E667E080EB0E94F9048091A9022A
:104DD000882311F40C9492182091A7023091A80214
:104DE0002456310937FF02C020E030E043E035951A
:104DF00027954A95E1F744E767E080EB0E94F904C4
:104E00000C94921880913004823060F48091B20248
:104E1000823011F00C94B6188091A402882311F40A
:104E20000C94B6181091E2011F3F11F40C94B618BF
:104E300080912B048E33B1F480913104082E000C44
:104E4000990B810F911D8635910561F48091B20215
:104E5000823011F40C94B6188091B302882311F4B7
:104E60000C94B618033021F41C3361F40C94B6187A
:104E7000013041F41E3331F48091BF0280FF02C043
:104E80000C94B6184423D9F02FE740912C0461E02C
:104E900080E80E94F9048091C202811106C08091CD
:104EA000C102823011F00E942C0A0E94D811609336
:104EB000AB027093AC028093AD029093AE02F0907F
:104EC0003104F10E2FE74F2D61E080E90E94F904D3
:104ED000F0922C0410932B0481E08093A5020C9493
:104EE000B6188091B202823029F08091300481306E
:104EF00029F41DC08091A4028823C9F0033039F43D
:104F00008091E2018C3311F00C94BB1810C0013079
:104F100011F00C94BB188091E2018E3311F00C94C7
:104F2000BB188091BF0280FD02C00C94BB182FE714
:104F300040912C0461E080E80E94F9041092A502DF
:104F400088E79CEE9093CC018093CB010C94BB1826
:104F500070E080E090E00E94A32920E030E040E88B
:104F600050E40E94022A87FF02C00C945917D7010F
:104F70001C9224E0F80120830C945917911107C06A
:104F8000611005C0F501EE5EFB4F8082982EED8129
:104F9000FE811082882311F40C946C17D7018C9138
:104FA000882311F40C946C17F6018081918101968D
:104FB000918380830C946C17F201808181110C9491
:104FC0007417D1018C92992493940C947417D8017E
:104FD0007C90672D70E080E090E00E94A32920E0A3
:104FE00030E040E850E40E949C2987FD02C00C9408
:104FF00050177394F80170820C9450170E94F809AE
:105000008091C8012EEC3FEF281B3109EBE6F2E05E
:105010000CEF1FE7D7016D917D917D01620F731F2A
:10502000C8010E94822961937193BFE8EB16B2E038
:10503000FB0681F70C944F188091BF029091C0023B
:105040009093BE028093BD02E0EDF1E0A4EBB2E0EC
:10505000119211921D9221E0E23EF207C9F7E09110
:10506000A602F0E0E353FE4F8081E0913204F0911C
:105070003304853019F4E055FC4F07C0823019F431
:10508000E854FC4F02C0EF54FC4FE491E093BA01A6
:105090000C9455181092210429CC10921C0447CC72
:1050A0004E9FB0014F9F700D5E9F700D112476953D
:1050B0006795769567957093CA016093C901281723
:1050C000390708F034CE4091BF0242FD30CE821B3A
:1050D000930B4091960250919702849F9001859F77
:1050E000300D949F300D1124C901969587959695A2
:1050F00087952091C9013091CA01820F931F909327
:10510000CA018093C90113CE813009F01CCE4091B1
:10511000BF025091C00250FD43C043FD14CE209108
:10512000CA023091CB024091C80150E08091C60183
:105130009091C70142175307A0F4241B350B6091CF
:10514000980270919902269FA001279F500D369FCB
:10515000500D11249A013695279536952795821B77
:10516000930B9093CA018093C901EDCD8091A50264
:10517000882309F402CE8091C102823008F0FDCD6F
:105180009801220F232F221F330B402F4F7761E00E
:1051900080EE0E94F9041093CC010093CB01EDCD79
:1051A0002091CA023091CB028091C80190E0821711
:1051B0009307E8F443FF05C01092CA011092C90199
:1051C0001BC0281B390B4091980250919902249FD3
:1051D000C001259F900D349F900D112496958795C1
:1051E000969587959093CA018093C90105C02817A9
:1051F000390710F343FDE0CF8091C9019091CA01B6
:10520000811590420CF49FCD8FEF9FE1AACF1092B1
:105210007E0410927D0488EE93E0A0E0B0E08093DD
:105220007F0490938004A0938104B093820485E26C
:1052300092E090937C0480937B048FEF9FEF909398
:1052400088048093870482E08093730480937404BD
:1052500089E794E090937604809375041092780423
:105260001092770485E392E09093700480936F042A
:1052700080E88093790481E880937A040E94390E53
:10528000FC0121818091730490E0820F911D0897A9
:10529000C4F5A281B381109729F48FE694E093833B
:1052A00082830EC018968D919C911997009711F0EA
:1052B000DC01F8CF8FE694E019969C938E931897B3
:1052C00080818093710481818093720490818091A8
:1052D0007404890F808380E090917304891788F4A7
:1052E000A0917504B0917604A80FB11D9C91A18185
:1052F000B0E0AE50BE4F9C9391819F5F91838F5FD2
:10530000EBCF0895AA1BBB1B51E107C0AA1FBB1F0F
:10531000A617B70710F0A61BB70B881F991F5A9541
:10532000A9F780959095BC01CD010895EE0FFF1F60
:105330000590F491E02D09940E94DE2908F481E0A3
:105340000895E89409C097FB3EF490958095709578
:1053500061957F4F8F4F9F4F9923A9F0F92F96E9C1
:10536000BB279395F695879577956795B795F11136
:10537000F8CFFAF4BB0F11F460FF1BC06F5F7F4FD3
:105380008F4F9F4F16C0882311F096E911C07723E5
:1053900021F09EE8872F762F05C0662371F096E8EE
:1053A000862F70E060E02AF09A95660F771F881FBD
:1053B000DAF7880F9695879597F90895990F000861
:1053C000550FAA0BE0E8FEEF16161706E807F907D7
:1053D000C0F012161306E407F50798F0621B730B72
:1053E000840B950B39F40A2661F0232B242B252BF3
:1053F00021F408950A2609F4A140A6958FEF811D96
:10540000811D08950E94DE2908F48FEF089581E040
:1054100090E0F8940C94532AF999FECF92BD81BD87
:10542000F89A992780B50895262FF999FECF1FBACB
:1054300092BD81BD20BD0FB6F894FA9AF99A0FBEBD
:1054400001960895A1E21A2EAA1BBB1BFD010DC0F7
:10545000AA1FBB1FEE1FFF1FA217B307E407F50724
:1054600020F0A21BB30BE40BF50B661F771F881F00
:10547000991F1A9469F760957095809590959B0196
:10548000AC01BD01CF010895A29FB001B39FC0013F
:10549000A39F700D811D1124911DB29F700D811D60
:0A54A0001124911D0895F894FFCF28
:1054AA00720D640F0F0F0F1E1E03081C070F160F35
:1054BA000F0F0F1E1E03081C070F160F0F0F0F1ECC
:1054CA001E03081C070F16000400040004FF01FF56
:1054DA0001FF010A0A0A0000080200000000080091
:1054EA0000000003000000000500000000060000A4
:1054FA0000000000000000000000000000000000A2
:10550A000002000000000800000000030000000084
:10551A000500000000060000000000000000000076
:10552A000000000000000000000200000000080067
:10553A000000000300000000050000000006000053
:10554A000000000000000000000000000000000051
:10555A0000640000010000021400010F0F0F000F89
:10556A00000F0401000000040AFF1FFF1F000102D0
:10557A00FF1FFF1FFF1FFF1FFF1FFF1FFF1FFF1F31
:10558A00FF1FFF0FFF01FFFFFFFF00E10000000008
:10559A00000000C180810000000100000025802B6E
:1055AA0080251028402E402B082B042B012B022586
:1055BA00022508250405090A000102030B0600005A
:1055CA000000000000B612CC122F13E5120713E2F6
:0E55DA0012000000008F0C910C8C0C750D005F
:00000001FF
