:100000000C9403030C942B030C942B030C942B03E0
:100010000C942B030C942B030C942B030C942B03A8
:100020000C942B030C942B030C94A9080C94390901
:100030000C942B030C942B030C942B030C942B0388
:100040000C942B030C942B030C942B030C942B0378
:100050000C94180D0C942B030C942B030C94641328
:100060000C942B030C942B030C942B030C942B0358
:100070000C942B030C94EC070C942B030C942B0383
:100080000C942B030C942B030C942B030C942B0338
:100090000C942B030C942B030C942B030C942B0328
:1000A0000C942B030C942B030C942B030B1E221E7D
:1000B000491E621E0B1E7B1E861E8E1E531E9A1E1E
:1000C000221E2D11EF11F511FB1102121712381219
:1000D000451267127A128A124646464646464646F8
:1000E00046464646464646464646464646464646B0
:1000F00046464646464646464646464646464646A0
:10010000464646464646464646464646464646468F
:100110004646464646464646454545454545454587
:10012000454545454545454545454545454545457F
:100130004545454545454545444444444444444477
:100140004444444444444444434343434343434377
:10015000424242424141403E4B4A4A494A4949484B
:100160004A494948494848474A4949484948484707
:10017000494848474D4C4C4B4A49494849484746ED
:100180004E4D4D4C4D4C4C4B4847474647464645D7
:100190004D4C4C4B4C4B4B4A4948484748474645C9
:1001A00048474645474646454847474647464645E9
:1001B00047464645464545444746464546454544E7
:1001C00046454544454444434544444344434342EF
:1001D0004342424141403E3F4B4B4B4B4B4B4B4BC1
:1001E0004B4B4B4B4B4B4B4A4B4B4B4B4B4B4B4B60
:1001F0004B4B4B4B4B4B4B4B4B4B4B4B4B4B4B4B4F
:100200004B4B4B4949494949504A4A4A4A4A4A4A4A
:100210004F4A4E4A4D4A4B4A545454494949545402
:100220005449494949494949535353535353534BEB
:100230004B4B4B4B4B4B534B5252525252525252CE
:1002400052525252515151525050505050505050A1
:100250004F4F4E4E4D4C4B4A4A4A4A4A4A4A4A4AE6
:100260004A4A4A4A4A4A4A4A4A4A4A4A4A4A4A4AEE
:100270004A4A4A4A4A4A4A4A4949494949494949E6
:1002800049494949494949494B4B4B4B4B4B4B49D0
:100290004B4B4B4B4B4B4B4B4848484848484848C6
:1002A0004848484848484848474A474747474747D3
:1002B00047474747474747474646464646464646D6
:1002C00045464646454546464444444444444444E1
:1002D0004343424241403F3E7F3C003E0140024298
:1002E0000343044505470649074A4A4A4A4A4A4AD7
:1002F0004A4A4A4A4A4A4A4A4A4A4A4A4A4A4A4A5E
:100300004A4A4A4A4A4A4A4A4A4A4A4A4A4A4A4A4D
:100310004A4A4A4A4A4A4A4A4A4A4A4A4A4A4A4A3D
:100320004A4A4A4A4A4A4A4A4A4A49494949494933
:10033000494949494949494949494949494949492D
:100340004949484848484848484847474747474731
:100350004747474747474747474745454545454539
:100360004444434445434241403E48484848484845
:1003700048484848484848484848484848484848FD
:1003800048484848484848484848484848484848ED
:1003900048484848484848484848484848484848DD
:1003A00048484848484848484849474747474747D2
:1003B00047474747474747474747474747474747CD
:1003C00047474747464647474747454545454545CB
:1003D00045454545454545454545434343434343D9
:1003E000434342424141403F3E3C490049024900AB
:1003F00049004900490149004900490049004900B4
:1004000049004900490049004900490049004900A4
:100410004900490049004900490049004900490094
:100420004900490049004900490049004900490084
:100430004900490049004900490049004900490074
:100440004900490049004900490048024802480063
:100450004802480148014800480148004802480055
:10046000480048004801480049004700470247004B
:100470004702470047014700470146004700460042
:100480004700470047004700470047004700470034
:100490004700470047004700470047004700470024
:1004A0004700470047004700470045004502450018
:1004B0004502450045014500450144004500440012
:1004C0004500450045004500450043004302430008
:1004D0004302430043014300430142004200410004
:1004E0004200400040003F003E00490049004900F2
:1004F00049004900490049004900490049004900B4
:1005000049004900490049004900490049004900A3
:100510004900490049004900490048024801480192
:1005200048014800480048004A0047024701470187
:100530004701470047004700470047004700470082
:100540004700470047004700470045024501450175
:100550004501450045004500440043024301430175
:1005600043014200410040003E000101020101023E
:100570000102010102010201020102020102010164
:10058000020102012B042B082B022B012B10284007
:100590002B802E4025102520254025802B402880AB
:1005A00025082502250425013180314031203110F4
:1005B000310231012B102B802510252025402B40A6
:1005C0000403090412010002EF020140D80487EE7F
:1005D0000001010203014D6F777279205374726933
:1005E0006E67656420496E737472756D656E7473A1
:1005F00000574152424C00070605040100080A0B4F
:100600000C0D0900882711241FBECFEFDAE0DEBFF2
:10061000CDBF12E0A0E0B1E0E8EEF1E502C0059048
:100620000D92A237B107D9F724E0A2E7B2E001C0EA
:100630001D92A43CB207E1F713E0C3E0D3E004C08D
:100640002197FE010E94E728C230D107C9F70E9416
:10065000AE130C94F2280C94000040918504509144
:100660008604209183043091840442175307B4F424
:100670009091E8009570E1F39091E80092FD19C027
:100680008093F100809185049091860401968F7388
:100690009927892B19F48EEF8093E80080918504C7
:1006A000909186040196909386048093850481E05E
:1006B000089580E00895DF92EF92FF920F931F93C9
:1006C000CF93DF93D82EF92EE42E062F10E0C80129
:1006D0000196880F0E942D0383E00E942D03CD2DEB
:1006E000DF2D0C0F1D1FC017D10789F0E7FE03C0D7
:1006F000FE01849101C088810E942D03F82E80E0C4
:100700000E942D038F2121968111EDCF01C081E040
:10071000DF91CF911F910F91FF90EF90DF9008959F
:10072000CF93DF9380919B04893069F486E10E9426
:10073000F3129093A2028093A10210929B0481E095
:100740008093E20298C080913702882391F1E09172
:100750009B04F0E0EE0FFF1FE05CFD4F8081918174
:100760002FB7F894FC01FF278081892B80832FBF4E
:1007700080919B04883041F485E00E94F3129093AD
:100780008A048093890412C0C0919B04D0E0219612
:10079000E0919B04F0E0E85AFD4F81810E94F31242
:1007A000CC0FDD1FC757DB4F998388831092370228
:1007B00062C08091370281115EC0C0919B04D0E07D
:1007C000E0919B04F0E0E85AFD4F80810E94F31213
:1007D000CC0FDD1FC050DD4F99838883E0919B04CF
:1007E000F0E0EE0FFF1FE05CFD4F808191812FB79D
:1007F000F894FC01FF2780819095892380832FBF87
:10080000E0919B048E2F90E0E0919B04F0E0EE0FCE
:10081000FF1FE050FD4F20813181E0919B04F0E00B
:10082000EE0FFF1FE757FB4F40815181241B350B13
:10083000FC01EE0FFF1FE050FD4F31832083E0915C
:100840009B04F0E0EE0FFF1FE050FD4F808191818F
:1008500097FF09C0E0919B04F0E0EE0FFF1FE0500E
:10086000FD4F1182108280919B048F5F80939B04C7
:1008700081E080933702DF91CF91089580918804C1
:100880008F5F8093880480918804823011F42F9ABE
:10089000089580918804833069F480E18093810019
:1008A00084E00E94980D81E08093370210929B04AF
:1008B0001092880408950F931F93CF93DF931F9294
:1008C000CDB7DEB719820E94040DDC0112960D919E
:1008D0001C9113970115110589F0D801ED91FC9138
:1008E0000280F381E02DBE016F5F7F4FC801099543
:1008F00097FD04C0F80100851185ECCF89810F9028
:10090000DF91CF911F910F9108952F923F924F92B7
:100910005F926F927F928F929F92AF92BF92CF928F
:10092000DF92EF92FF920F931F93CF93DF93CDB798
:10093000DEB766970FB6F894DEBF0FBECDBF8DE36E
:1009400091E09A878987EAE3F1E0F887EF8386E30D
:1009500091E09C878B87E2E0F1E0FE87ED8780E302
:1009600091E0988B8F87E8E0F1E0FC83EB8380EDEA
:1009700092E09E838D83412C512CA12CB12C212CF3
:10098000312CE4E6F0E0FA83E9831E8A1D8A612CAB
:10099000712CC301875C9E4F0E94530DE985FA8537
:1009A0008193FA87E987C301845C9E4F0E94530DAF
:1009B000EF81F8858193F887EF83C301C2960E9487
:1009C000530DEB85FC858193FC87EB878D899E8990
:1009D0008D5A9F4F0E94530D182F8D899E898C5AD6
:1009E0009F4F0E94530D212F30E0382BED85FE855F
:1009F00021933193FE87ED878D899E89875A9F4F7A
:100A00000E94530D182F8D899E89865A9F4F0E94F0
:100A1000530D212F30E0382BEF85F8892193319346
:100A2000F88BEF87C301815A9F4F0E94530DF3014A
:100A3000E758FD4F80838D899E898F5E9E4F0E946F
:100A4000530D182F8D899E898E5E9E4F0E94530DE7
:100A5000ED89FE89E458FD4F212F30E0382B31839A
:100A60002083F5E0F69D8001F79D100D1124E12C07
:100A7000F12C085C1F4FC8018E0D9F1D0E94530D65
:100A8000ED81FE81EE0DFF1D80838FEFE81AF80ADD
:100A900096E0E916F10479F7E12CF12C82010B5173
:100AA0001D4FC8018E0D9F1D0E94530DF701E40DCF
:100AB000F51DEE51FE4F8083EFEFEE1AFE0AF5E1D1
:100AC000EF16F10471F7E12CF12C85010C5F1E4F3C
:100AD000C8018E0D9F1D0E94530DEB81FC81EE0D10
:100AE000FF1D80838FEFE81AF80A9CE0E916F104F5
:100AF00079F7810106501F4FF101EB57FD4F6F0150
:100B00007101FDEFEF0EF11CC8010E94530D91E041
:100B1000811101C090E0F60191936F010F5F1F4FAB
:100B2000E016F10689F7C501880F991F9C8B8B8B06
:100B3000C980DA8000E010E0EB89FC89E00FF11F4A
:100B4000FA8BE98B4601E12CF12CC4010E94530D74
:100B5000E989FA89EE0DFF1DE05CFE4F8083FFEF0F
:100B60008F1A9F0A85E0E80EF11C98E2E916F1045D
:100B700061F70F5F1F4FEAE0CE0ED11C0530110563
:100B8000D9F6FFEF6F1A7F0A8D899E8902969E8B98
:100B90008D8BE981FA81F296FA83E983F3E02F0ED7
:100BA000311C84E1A80EB11CEB81FC813C96FC83D6
:100BB000EB83F5E14F0E511C8D819E8106969E833D
:100BC0008D8393E06916710409F0E3CE66960FB643
:100BD000F894DEBF0FBECDBFDF91CF911F910F9173
:100BE000FF90EF90DF90CF90BF90AF909F908F904D
:100BF0007F906F905F904F903F902F900895CF928D
:100C0000DF92EF92FF920F931F93CF93DF93C82F42
:100C1000E82EF12CE091CF02F0E0E152FE4F60812E
:100C2000C70188960E943F0DE091CF02F0E0E35D9E
:100C3000FE4F6081C701C5960E943F0DE091CF0233
:100C4000F0E0EA5CFE4F6081C701C2960E943F0D52
:100C5000E091CF02F0E0E35CFE4F6081C701875C6A
:100C60009E4F0E943F0DE091CF02F0E0E65CFE4F08
:100C70006081C701845C9E4F0E943F0D8701000F79
:100C8000111FE091CF02F0E0EE0FFF1FEE5FFE4F6D
:100C90006081C8018D5A9F4F0E943F0DE091CF02A5
:100CA000F0E0EE0FFF1FEE5FFE4F6181C8018C5A2E
:100CB0009F4F0E943F0DE091CF02F0E0EE0FFF1F2B
:100CC000E05DFE4F6081C801875A9F4F0E943F0D33
:100CD000E091CF02F0E0EE0FFF1FE05DFE4F61817B
:100CE000C801865A9F4F0E943F0DE091CF02F0E06D
:100CF000E758FD4F6081C701815A9F4F0E943F0D09
:100D0000E091CF02F0E0EE0FFF1FE458FD4F60814D
:100D1000C8018F5E9E4F0E943F0DE091CF02F0E030
:100D2000EE0FFF1FE458FD4F6181C8018E5E9E4F9C
:100D30000E943F0D84E1C89F7001112400E010E083
:100D4000DCE08CEFE81A8EEFF80A8091CF02F80110
:100D5000D89FE00DF11D1124E85FFE4F6081C701AF
:100D6000800F911F0E943F0D0F5F1F4F0C30110528
:100D700061F785E0C89F80011124E12CF12CD6E0B9
:100D8000085C1F4F8091CF02F701D89FE00DF11D45
:100D90001124E053FD4F6081C8018E0D9F1D0E94FC
:100DA0003F0D8FEFE81AF80A86E0E816F10451F7D4
:100DB00085E1C89F7001112400E010E0D5E18BE1CE
:100DC000E81A8DEFF80A8091CF02F801D89FE00D64
:100DD000F11D1124EE51FE4F6081C701800F911F5C
:100DE0000E943F0D0F5F1F4F0531110561F783E032
:100DF000C89F80011124E12CF12C06501F4F8091D7
:100E0000CF0290E0FC01EE0FFF1FE80FF91FEB5738
:100E1000FD4FEE0DFF1D6081C8018E0D9F1D0E94CC
:100E20003F0D8FEFE81AF80A83E0E816F10439F76E
:100E300082E3C89FE0011124CC59DF4FE12CF12C53
:100E400085E0D82E98E2C92E00E010E08091CF0214
:100E5000D09EF001D19EF00D1124C89EE00DF11D31
:100E60001124E05CFE4FEE0DFF1D6081C8018C0F68
:100E70009D1F0E943F0D0F5F1F4F0830110531F776
:100E80008FEFE81AF80A2A9685E0E816F104E1F6F1
:100E9000DF91CF911F910F91FF90EF90DF90CF9056
:100EA0000895BF92CF92DF92EF92FF920F931F931C
:100EB000CF93DF932FE8E22E22E0F22E3EEEC32EF8
:100EC00032E0D32E01ED12E0C2E1D0E0CE010E946B
:100ED000530DB82ECE0101960E94530D2B2D30E0FC
:100EE000322F2227282BF701219331937F01C8014C
:100EF0000E94530D90E0F601819391936F01229629
:100F00000F5F1F4FC432D10509F78091350285313B
:100F100031F48FE090E09093BB018093BA01DF91B0
:100F2000CF911F910F91FF90EF90DF90CF90BF90E6
:100F30000895AF92BF92CF92DF92EF92FF920F93FC
:100F40001F93CF93DF930FE812E08EEEC82E82E05E
:100F5000D82E91EDE92E92E0F92EC2E1D0E0F80111
:100F60006181CE010E943F0DF80160810E5F1F4F2D
:100F7000CE0101960E943F0DF6016081F2E0CF0E96
:100F8000D11CC7010E943F0D22968FEFE81AF80A84
:100F9000C432D10521F71092120363E085E290E09C
:100FA0000E943F0DEEE9F5E0859194912FB7F894FA
:100FB000FC01FF2780819095892380832FBF1092A9
:100FC0008E02DF91CF911F910F91FF90EF90DF90F4
:100FD000CF90BF90AF9008951F920F920FB60F92CF
:100FE00011242F933F934F935F936F937F938F932E
:100FF0009F93AF93BF93EF93FF9380919B048823BC
:1010000021F020919B04215001C028E080919B0495
:1010100090919B04983011F08F5F01C080E0909117
:101020009B049930A9F459988091780090917900A7
:101030002091990430919A04821B930B9093110391
:10104000809310038091740280618093810070C04E
:101050003091370290E0332309F44FC030919B0464
:1010600031110CC020917800309179003093A202A8
:101070002093A10221E02093E20221C030E0220F60
:10108000331FF901E05CFD4F408151816FB7F89447
:10109000FA01FF2740815095452340836FBF40915F
:1010A000780050917900F901E757FB4F6081718119
:1010B000461B570BF901E050FD4F51834083FC0163
:1010C000E85AFD4F80810E94980D1092370280915E
:1010D0009B04882369F1E0919B04F0E0EE0FFF1F71
:1010E000E05CFD4F808191812FB7F894FC01FF27D0
:1010F0008081892B80832FBF1BC020917800309185
:101100007900880F991FFC01E757FB4F318320833B
:10111000E0919B04F0E0E85AFD4F80810E94980D19
:1011200081E08093370280919B048F5F80939B04C2
:10113000FF91EF91BF91AF919F918F917F916F91AF
:101140005F914F913F912F910F900FBE0F901F9085
:1011500018951F920F920FB60F9211248F939F93A1
:101160008091E1009091E100937F9093E10083FFF3
:101170000FC01092E90091E09093EB001092EC0008
:1011800092E39093ED001092780298E09093F00033
:1011900082FF1CC093E09093E9009091F2009923A4
:1011A00019F09AE39093E80090918704992329F02D
:1011B000909187049150909387049091770299239E
:1011C00029F09091770291509093770284FF10C09C
:1011D0008091E2008E7E81608093E2008091E10048
:1011E0008F7E8093E100809172028E7E806111C0BB
:1011F00080FF11C08091E2008E7E80618093E200CA
:101200008091E1008E7E8093E100809172028E7E5B
:101210008160809372029F918F910F900FBE0F900B
:101220001F901895DF92EF92FF920F931F93CF9329
:10123000DF93D82E8A017B01E40EF51EEB01CE155B
:10124000DF0571F0D7FE03C0FE01849101C08881E3
:101250000E942D0321968111F2CF8FEF9FEF01C0E5
:10126000C801DF91CF911F910F91FF90EF90DF9018
:1012700008951F920F920FB60F921124CF92DF9212
:10128000EF92FF920F931F932F933F934F935F9390
:101290006F937F938F939F93AF93BF93EF93FF933E
:1012A000CF93DF93CDB7DEB76C97DEBFCDBF109283
:1012B000E9008091E80083FF6CC189E0FE0175962A
:1012C000EE2EDF2E815029F09091F100908331961F
:1012D000F9CF84E68093770282EF8093E8008D89CE
:1012E00087FF05C09091E80090FFFCCF03C09EEF00
:1012F0009093E800982F907609F0C5C09E894F8999
:10130000588D2F89F88C91110CC0803829F4809168
:1013100073028093F10002C01092F1001092F1006C
:1013200031C1913051F481112DC14130510509F085
:1013300029C1809173028D7F0BC0933061F48111BC
:1013400021C14130510509F01DC1809173028260B5
:101350008093730217C1953049F48091E80080FFB3
:10136000FCCF822F80688093E3000CC1963009F097
:101370005DC00B8D1C8D22E01092E9001092860456
:1013800010928504F21232C01092840410928304E9
:101390000E945B0499E0BE016F5F7F4FDB01E92F84
:1013A0001D92EA95E9F79983FA8291E09E8390EA8B
:1013B00098879AE099872091850430918604275F69
:1013C0003F4F3C832B838D831092E900109286045B
:1013D00010928504109384040093830449E050E044
:1013E00080E00E9412090E945B04CCC01093840428
:1013F000009383040E94040DDC0112960D911C9150
:1014000013970115110509F468C0D801ED91FC91FD
:101410000480F581E02D6E2D7D2DC8010995009782
:1014200009F056C0F80100851185EBCF973009F41B
:10143000ADC0983021F481E08093F100A3C09930D1
:1014400009F0A0C0837009F0A1C0EAE3F2E081E0F6
:1014500031E096E32081211109C08EE78093EA00F4
:101460001092EA008F89809378028CC08093E90003
:101470003093EB0021912093EC009093ED008F5F6F
:10148000873041F7EACF8B8D9C8D1092E900109246
:1014900086041092850490938404809383040E94B0
:1014A000040DFC01028113810115110509F46EC0C0
:1014B000D801ED91FC910190F081E02D6E2D7D2DF4
:1014C000C801099581115EC0F80100851185ECCF36
:1014D000181619060CF456C059C0F1E0FF1609F4AD
:1014E00046C0F3E0FF1252C08F89882309F442C03E
:1014F000823029F440E865E081EF95E006C0813054
:1015000051F440E86AE186ED95E00E945B03882390
:1015100009F43CC037C08330C9F50E94040DDC01DA
:101520001296ED90FC9013978E010F5F1F4F68018C
:10153000E114F10479F0D701ED91FC910680F78177
:10154000E02DB801C7010995080F111DF701E084CE
:10155000F184EECFD8011C92F60101900020E9F74A
:101560003197BF016C197D0940E0C601CECF64EC14
:1015700075E002C060EC75E0FB01449150E080E84A
:101580000E9412098EEF8093E80003C081E28093ED
:10159000EB006C960FB6F894DEBF0FBECDBFDF91A7
:1015A000CF91FF91EF91BF91AF919F918F917F91DB
:1015B0006F915F914F913F912F911F910F91FF90EC
:1015C000EF90DF90CF900F900FBE0F901F90189567
:1015D0006F927F928F929F92AF92BF92CF92DF9243
:1015E000EF92FF920F931F93CF93DF93C82E8B013F
:1015F0007A0180917802811103C08FEF9FEF81C043
:101600008091720280FF05C08091E000826080932B
:10161000E000CE2DDF2DD12C8AEFB82E8C2D8770D7
:10162000982E90E4892E8C2D8072782E8C2D8074CB
:10163000682E2AE3A22E209719F4DD2009F45DC05C
:101640008FB7F8949092E9009091E80095FF05C05B
:101650009091F200282D291B01C020E08FBF21119D
:101660000AC0BA94BB2049F261E070E080E090E0EB
:101670000E941E13E0CF822F90E0C817D9070CF408
:101680002C2F3FB7F8949092E9008091E80085FFF5
:1016900032C0822F90E0C81BD90B772029F021504F
:1016A000A0F01092F100FBCFF801C7FE0AC0215054
:1016B00050F044914093F1003196F9CF419140931D
:1016C000F1002150D8F7080F191FDD2019F0A09262
:1016D000E8000AC08091E80085FD08C0A092E800FB
:1016E000DD24D394209739F0D12C05C0209719F42C
:1016F0006110A092E8003FBF9ECF84E680938704EC
:10170000C701DF91CF911F910F91FF90EF90DF9074
:10171000CF90BF90AF909F908F907F906F900895E3
:10172000CF93DF9300D000D0CDB7DEB76150807F7C
:10173000F894E82FF0E094E0F595E7959A95E1F7B5
:10174000E9836F70682B6A834F774B832F772C83E5
:101750008091B20444E050E0BE016F5F7F4F8F5F25
:101760000E94E80A8091B2048F5F8093E900809123
:10177000F200882319F08AE38093E80078940F90B0
:101780000F900F900F90DF91CF910895CF92DF923D
:10179000EF92FF920F931F93CF938FEDC82E81E0AE
:1017A000D82E0DE211E0CFE695E3E92EF12CC7012A
:1017B0000D970E94530DF6018083C7010E94530DBF
:1017C000F80180838091CD028823C1F02FEA2C0F8D
:1017D00046E667E080EB0E94900BF60120812F5DCA
:1017E00046E667E080EB0E94900BF801208127FD20
:1017F00021584C2F67E080EB0E94900BFFEFCF1A2F
:10180000DF0A8FEFE81AF80A0F5F1F4FCF5FC2376A
:1018100071F6CF911F910F91FF90EF90DF90CF90D5
:10182000089580E090E0089580E00895FC018281B1
:101830008F5BFB01808381E0089508950E94ED286D
:1018400084E0EDE6F2E0DB0101900D928A95E1F78C
:1018500084E00895CF92DF92EF92FF920F931F934F
:10186000CF93DF93CDB7DEB7C456D1090FB6F89446
:10187000DEBF0FBECDBF6C01DB019C919E5F9C93D0
:10188000FE01319684E6DF011D928A95E9F788E032
:1018900089838BE08A8322E02C8391E09D839E8361
:1018A00039E0398774E07A879E879F873A8B44E2D4
:1018B0004B8B9C8B00E011E01E8B0D8B89E0E82E9A
:1018C000F12CF88EEF8A998F3B8F7C8F2F8F98A306
:1018D00053E059A387E08CA34DA39EA318A70FA3A1
:1018E00001E410E01AA709A786E08BA74CA72DA753
:1018F0009EA79FA789AB4AAB2BAB2CAB2DAB3FABC5
:1019000048AF59AF9AAF5BAF9CAF2DAF9EAF21965A
:101910003FAF219722964FAF229723965FAF239731
:1019200024962FAF249725967FAF259726969FAFB5
:10193000269727969FAF279728969FAF28972A9696
:101940003FAF2A9745E02B964FAF2B972D962FAFA1
:101950002D9760E470E02F967FAF6EAF2F97639660
:101960004FAF639785E264968FAF649765969FAF9C
:10197000659766969FAF669767969FAF67976896DD
:101980003FAF689769964FAF69976B962FAF6B978C
:101990006D967FAF6EAF6D97A1964FAFA197A29650
:1019A0008FAFA297A3969FAFA397A4969FAFA4973C
:1019B000A5965FAFA597D60112969C9112979B832F
:1019C0009B879F5F9A8F9D8F13968C912C968FAFDC
:1019D0002C978F5F80686A968FAF6A9744E650E0D5
:1019E000BF0180E00E941209CC59DF4F0FB6F89476
:1019F000DEBF0FBECDBFDF91CF911F910F91FF9042
:101A0000EF90DF90CF9008958091A70481110DC0D1
:101A100082E08093A30484E08093A4041092A6043F
:101A20001092A50481E08093A70483EA94E00895CE
:101A30001F920F920FB60F9211242F933F934F9343
:101A40005F936F937F938F939F93AF93BF93EF9326
:101A5000FF93E0910001F09101010995FF91EF9151
:101A6000BF91AF919F918F917F916F915F914F91B6
:101A70003F912F910F900FBE0F901F9018951F93BD
:101A8000CF93DF93EC01162F0E94E727181739F048
:101A9000612FCE01DF91CF911F910C94EF27DF9141
:101AA000CF911F9108950C94E7271092CB02E091FB
:101AB000CF0285E1E89FF0011124EE51FE4F8685AB
:101AC000813049F018F0823059F008952189408919
:101AD000678580E909C021894089678580E804C05D
:101AE00021894089678580EB0C94900B81E080937D
:101AF000CB02E091CF0285E1E89FF0011124EE5185
:101B0000FE4F8285813049F018F0823059F00895F7
:101B100025854485638580E909C0258544856385DD
:101B200080E804C025854485638580EB0C94900B88
:101B3000823108F08251E82FF0E0E950FA4FE49149
:101B400080917B00E3FB222720F930E095E0220F13
:101B5000331F9A95E1F78F7D282B20937B00E77048
:101B6000E064E0937C0080917A00886480937A003E
:101B700008959C012F5F3F4F28233923232B71F0B9
:101B80009C0140E050E080E01216130644F420FF70
:101B9000842F359527954F5F5F4FF6CF8FE70895D8
:101BA0008F929F92AF92BF92CF92DF92EF92FF926D
:101BB0000F931F93CF93DF938091CF0290E09C010E
:101BC000220F331FF901EE5FFE4F40815181509388
:101BD000CB014093CA01FC01E056FB4F408140938A
:101BE000A402FC01E35DFE4F40814093A302FC018F
:101BF000E35CFE4F40814093EC02FC01E758FD4F4F
:101C0000108141E0111101C040E040939F04F901AF
:101C1000E458FD4FC081D181D0939E04C0939D04B0
:101C2000FC01EA5CFE4F40814093D101F901E05D87
:101C3000FE4F208131813093D0012093CF01FC01F0
:101C4000E65CFE4F20812093C30126E0289FF0012F
:101C5000299FF00D1124E053FD4F20813CE0389F77
:101C6000F001399FF00D1124E85FFE4F86E0289FB8
:101C7000E00DF11D112400810093380281818093D1
:101C8000C20182818093BD0183818093BC018481E4
:101C900090E09093C1018093C001858190E0909382
:101CA000BF018093BE018FEF9FE19093D30180939A
:101CB000D2011092B8021092B7022FE34FE761E011
:101CC00080EE0E94900BE2E2F2E0A3EEB2E011920D
:101CD00011921D9222E0E433F207C9F7E091CF029E
:101CE000EE2EF12C86E0E89FF0011124E053FD4F29
:101CF0008481882389F0F701E152FE4F8081823090
:101D000020F0843011F08A3039F48091EC02813077
:101D100019F48093ED0202C01092ED0280E48093EA
:101D2000DE0111110AC0809175029091760203962E
:101D30009093C7018093C60105C02396D093C70135
:101D4000C093C6018091C6019091C701A4E00A9F8B
:101D5000800D911D11249093C9018093C801809139
:101D6000D1010EEC1FEF081B1109C091CF01D091DA
:101D7000D00123E0CC0FDD1F2A95E1F7EFE8F2E078
:101D800035EAA32E32E0B32E49EBC42E42E0D42E26
:101D900058EF852E99249A9421913191200F311F6B
:101DA000C401B9010E94D32876956795D5016D933A
:101DB0007D935D01CE01B9010E94D3287695679588
:101DC000D6016D937D936D01B2E0E13AFB0721F7F7
:101DD00085E18E9DF0018F9DF00D1124EE51FE4F97
:101DE000868128E0829FC00111248C599F4F9093D7
:101DF000DD018093DC018085A1E88A9FC001112468
:101E00009093D5018093D4018185B1E88B9FC00167
:101E100011249093D7018093D601DF91CF911F9128
:101E20000F91FF90EF90DF90CF90BF90AF909F9079
:101E30008F900895E091CF02F0E0E35CFE4F808147
:101E40008F5F833011F0808301C010820E94D00D1B
:101E50002091EC0281E0820F809336028091CD02C6
:101E6000882331F02A5B46E667E080EB0C94900B08
:101E700008958091A4028D3F54F0E091CF02F0E0EC
:101E8000E056FB4F8081815080838093A4020895A7
:101E90008091A402833054F4E091CF02F0E0E05648
:101EA000FB4F80818F5F80838093A4020895EF921F
:101EB000FF920F931F93CF93DF932FE04EE667E0DF
:101EC00080EB0E94900B7FEDE72E71E0F72E0DE284
:101ED00011E0CFE62FEA2C0F46E667E080EB0E9488
:101EE000900BF70121917F012F5D46E667E080EBC3
:101EF0000E94900BF80121918F0127FD21584C2F52
:101F000067E080EB0E94900BCF5FC23719F72091FA
:101F1000CF02245C46E667E080EB0E94900B2091A4
:101F2000D10147E667E080EB0E94900B2091CF0142
:101F30003091D001A4E6B0E00E9449282FEF3FE1A4
:101F400040E050E00E94272845E767E080EB0E94D0
:101F5000900B2091EC022A5B46E667E080EB0E9442
:101F6000900B2091C301205B46E667E080EB0E9466
:101F7000900B2091CE02285846E667E080EB0E9445
:101F8000900B20919F04295D4AE667E080EB0E9458
:101F9000900B22E248E667E080EB0E94900BC09134
:101FA0009D04D0919E042C2F2F7749E667E080EBAB
:101FB0000E94900B23E248E667E080EB0E94900BC2
:101FC0009E01220F232F221F330B49E667E080EB8F
:101FD0000E94900BC0E0D0E0E091CF02F0E0EE0F65
:101FE000FF1FEE5FFE4F208131810C2E02C036951F
:101FF00027950A94E2F72170220F822F880F880F0D
:10200000280F8C2F8C5E280F4AE667E080EB0E9439
:10201000900B2196C930D105F9F600E010E035E0CB
:10202000E32E48E2F42E2AE5200F46E667E080EB37
:102030000E94900B8091CF02E09EE001E19ED00DC6
:102040001124FE01F89EE00DF11D1124E05CFE4F0D
:1020500020812C5946E667E080EB0E94900B80912E
:10206000CF02FE01F89EE00DF11D1124E05CFE4F51
:102070008081813099F52181205946E667E080EB27
:102080000E94900B8091CF02FE01F89EE00DF11DA1
:102090001124E05CFE4F22814AE667E080EB0E945B
:1020A000900B8091CF02FE01F89EE00DF11D1124EE
:1020B000E05CFE4F23814BE667E080EB0E94900BD3
:1020C0008091CF02F89EC00DD11D1124C05CDE4F5F
:1020D0002C814CE667E080EB0E94900B0F5F1F4F56
:1020E0000830110509F09FCFC0E0D0E016E02C2F9A
:1020F000285D48E667E080EB0E94900B8091CF025C
:10210000FE01189FE00DF11D1124E053FD4F2081C9
:1021100049E667E080EB0E94900B2196C630D1051E
:1021200031F7C0E0D0E015E12C2F235F48E667E0EF
:1021300080EB0E94900B8091CF02FE01189FE00D72
:10214000F11D1124EE51FE4F208149E667E080EB3E
:102150000E94900B2196C531D10531F7C0E0D0E047
:102160002C2F265A46E667E080EB0E94900B809168
:10217000CF0290E0FC01EE0FFF1FE80FF91FEB57B5
:10218000FD4FEC0FFD1F20812B5846E667E080EBEA
:102190000E94900B2196C330D10511F7C0E0D0E02A
:1021A0001CE02C2F2F5F48E667E080EB0E94900B2D
:1021B0008091CF02FE01189FE00DF11D1124E85F10
:1021C000FE4F208149E667E080EB0E94900B21964C
:1021D000CC30D10531F7DF91CF911F910F91FF9056
:1021E000EF9008958091CF028F5F833019F0809334
:1021F000CF0202C01092CF021092CC020E94D00DEA
:102200008091CF028F5F809336028091CD02811141
:102210000C94570F08950F931F93CF93DF93E09182
:10222000CF02C82FD0E02E2F30E098E2E99FF001D6
:102230001124A5E08A9FE00DF11D1124E05CFE4F02
:10224000E0818E2F90E0FC013197EB30F10508F032
:1022500072C1EF59FF4F0C94E72885E08C9FF00185
:102260008D9FF00D112448E2429FC001439F900DC5
:102270001124E80FF91FE05CFE4F8181811116C027
:102280008E010E571D4FD8018C91248143816281AC
:10229000811107C080E90E94900B81E0F8018083E2
:1022A00005C080E80E94900BD8011C928091CF025B
:1022B00095E09C9FF0019D9FF00D1124B8E28B9F4B
:1022C000E00DF11D1124E05CFE4F8181813031F47D
:1022D00024814381628180EB0E94900B8091CF0228
:1022E00095E09C9FF0019D9FF00D112498E2899F3D
:1022F000E00DF11D1124E05CFE4F8181823021F45C
:10230000638182810E94C5128091CF0295E09C9FDB
:10231000F0019D9FF00D1124282F30E0A8E28A9F44
:10232000E00DF11D1124E05CFE4F8181833011F539
:1023300080919C048F3720F48F5F80939C0402C0AF
:1023400010929C0485E08C9FF0018D9FF00D11246C
:1023500048E2429FC001439F900D1124E80FF91FEE
:10236000E05CFE4F60919C0482810E94C51281E076
:10237000809336028091CF0295E09C9FF0019D9F53
:10238000F00D1124282F30E0B8E28B9FE00DF11DF5
:102390001124E05CFE4F8181843009F0CCC0809133
:1023A0009C04882311F0815001C08FE780939C0426
:1023B00085E08C9FF0018D9FF00D112448E2429F33
:1023C000C001439F900D1124E80FF91FE05CFE4F00
:1023D00060919C0482810E94C51281E040C0DF911F
:1023E000CF911F910F910C941A0FDF91CF911F91F4
:1023F0000F910C94F2109091CC0281E08927809388
:10240000CC0299C0F901EE0FFF1FE20FF31FEB574B
:10241000FD4FEC0FFD1F8081811103C00E94480F0A
:1024200014C0DF91CF911F910F910C94390FF901D6
:10243000EE0FFF1FE20FF31FEB57FD4FEC0FFD1FD9
:10244000808181110FC00E94390F8091A402082E53
:10245000000C990B97FF03C091958195910980938A
:10246000360269C0DF91CF911F910F910C94480FF4
:10247000C1E020E04BE76C2F80EB0E94900B1092A4
:10248000CB02CF5FC131A9F756C0F901E65CFE4F20
:1024900080818F5F843011F0808301C010820E94A0
:1024A000D00D1092CC022091C30181E0820F809365
:1024B00036028091CD028823F1F1205B46E667E089
:1024C00080EBDF91CF911F910F910C94900B81E0E5
:1024D000809336028091CB02811106C0DF91CF91AB
:1024E0001F910F910C94760DDF91CF911F910F9159
:1024F0000C94550DF901EE0FFF1FE20FF31FEB5780
:10250000FD4FEC0FFD1F8081811110C08091A3024F
:102510008F5F0FC0F901EE0FFF1FE20FF31FEB57A4
:10252000FD4FEC0FFD1F80818111F0CF8091A30240
:1025300081508093A302DF91CF911F910F91089555
:102540003FB7F8948091C0049091C104A091C20457
:10255000B091C30426B5A89B05C02F3F19F0019682
:10256000A11DB11D3FBFBA2FA92F982F8827820F19
:10257000911DA11DB11DBC01CD0143E0660F771F68
:10258000881F991F4A95D1F70895CF93DF9300D004
:1025900000D0CDB7DEB78150F8949CE099838F705E
:1025A000806C8A836F776B831C828091B20444E0D5
:1025B00050E0BE016F5F7F4F8F5F0E94E80A8091FD
:1025C000B2048F5F8093E9008091F200882319F0B4
:1025D0008AE38093E80078940F900F900F900F900B
:1025E000DF91CF910895823108F08251E82FF0E019
:1025F000E950FA4FE49180917B00E3FB222720F918
:1026000030E095E0220F331F9A95E1F78F7D282B5C
:1026100020937B00E770E064E0937C0080917A0077
:10262000806480937A0080917A0086FDFCCF80914F
:1026300078002091790090E0922B08958F929F92DC
:10264000AF92BF92CF92DF92EF92FF926B017C012B
:102650000E94A0124B015C01C114D104E104F104F9
:10266000F1F00E94A012DC01CB0188199909AA0996
:10267000BB09883E9340A105B10570F321E0C21A61
:10268000D108E108F10888EE880E83E0981EA11CAD
:10269000B11CC114D104E104F10419F7DDCFFF909E
:1026A000EF90DF90CF90BF90AF909F908F90089564
:1026B0002FB7F8946091BC047091BD048091BE0462
:1026C0009091BF042FBF08951F920F920FB60F92E3
:1026D00011242F933F938F939F93AF93BF93809138
:1026E000BC049091BD04A091BE04B091BF04309190
:1026F000BB0426E0230F2D3720F40296A11DB11D47
:1027000005C029E8230F0396A11DB11D2093BB042A
:102710008093BC049093BD04A093BE04B093BF0407
:102720008091C0049091C104A091C204B091C304EF
:102730000196A11DB11D8093C0049093C104A09384
:10274000C204B093C304BF91AF919F918F913F9109
:102750002F910F900FBE0F901F901895CF93DF937E
:10276000CDB7DEB76A970FB6F894DEBF0FBECDBF08
:10277000789484B5826084BD84B5816084BD85B55C
:10278000826085BD85B5816085BD80916E00816068
:1027900080936E001092810080918100826080930E
:1027A0008100809181008160809381008091800010
:1027B000816080938000809191008260809391007D
:1027C0008091910081608093910080919000816060
:1027D000809390008091C10084608093C1008091BB
:1027E000C10082608093C1008091C10081608093AC
:1027F000C1008091C30081608093C3008091C000BC
:1028000082608093C0008091C20081608093C2008A
:1028100080917A00846080937A0080917A0082604F
:1028200080937A0080917A008E7F80937A008091E5
:102830007A00806880937A00109278021092730276
:10284000109272028091D70081608093D70080EA55
:102850008093D80089B58F7E89BD89B5826089BD96
:1028600009B400FEFDCF61E070E080E090E00E94DE
:102870001E138091D8008F7C80618093D800809156
:10288000E000807F8093E0008091E1008E7E809365
:10289000E1008DE08093E2008FEF80937E0083EF74
:1028A00080937D00EEE9F5E0859194912FB7F8943F
:1028B000FC01FF278291892B80832FBFE6EAF5E098
:1028C000859194912FB7F894FC01FF27DF018E9139
:1028D000392F309583238C938081892B80832FBF60
:1028E000E0E4F2E022E532E0819191914FB7F89473
:1028F000DC01BB278E91892B8C934FBF2E173F078E
:1029000099F72198299A22982A9A23982B9A85E850
:1029100093E00E94530D8F3049F484E893E00E94C5
:10292000530D8531D1F48093350217C06FE085E8EF
:1029300093E00E943F0D07E410E060E0C8010E94B0
:102940003F0D60E0C80180579E4F0E943F0D0F5F12
:102950001F4F0A34110589F7E0CF8CE290E00E9406
:10296000530D8330D1F11092CF0280E00E94FF0519
:1029700081E08093CF020E94FF0582E08093CF0226
:102980000E94FF051092CF0283E08093360208E296
:1029900010E0C8010E94530D682FC80180579E4F58
:1029A0000E943F0D0F5F1F4F003421E0120789F78F
:1029B00005EE12E0C8010E94530D682FC801CF96A2
:1029C0000E943F0D0F5F1F4F043233E0130791F752
:1029D00063E08CE290E00E943F0D85E290E00E946F
:1029E000530D833011F40E9451070E94C60B0E94C0
:1029F000850486E10E94F31286E10E94F31286E1CB
:102A00000E94F3129093760280937502909359047A
:102A1000809358040E94D00D80913502853151F584
:102A20008FE090E09093BB018093BA0180917A008F
:102A3000887F80937A0080917A00856080937A0005
:102A400080E1809381001092800081E08093740285
:102A500028EA32E0309387002093860091E190933A
:102A6000810020E933E0309301012093000180933D
:102A70006F0029C080E1809381001092800091E076
:102A80009093740220E931E0309387002093860010
:102A900021E1209381002EE334E030930101209363
:102AA000000190936F008093810080917A00887F6D
:102AB00080937A0084E880937A0080E480937C009D
:102AC00081E00E94980DABE67A2EBEECCB2EDD2481
:102AD000DA94F8948091130490911404A091150451
:102AE000B091160440911704509118046091190494
:102AF00070911A04841B950BA60BB70B8F73992743
:102B0000AA27BB27892B8A2B8B2BD1F58091B20466
:102B10009FB7F89487708093E9008091F2009FBF7F
:102B2000882309F441C0409113045091140460912A
:102B30001504709116044F5F5F4F6F4F7F4F4F73B7
:102B40005527662777278091170490911804A09144
:102B50001904B0911A0484179507A607B70781F0E6
:102B60008091B2049FB7F89487708093E9008091B8
:102B7000F2009FBF8091B204909178029111E1C35D
:102B80008091170490911804A0911904B0911A042F
:102B9000880F991F880F991FFC01ED5EFC4F9081F3
:102BA00081810281138104C010E000E080E090E0A8
:102BB0008090130490901404A0901504B090160413
:102BC00040911704509118046091190470911A04EF
:102BD00084169506A606B706C1F0409117045091D9
:102BE00018046091190470911A044F5F5F4F6F4F82
:102BF0007F4F4F73552766277727409317045093CD
:102C000018046093190470931A047894992309F4B2
:102C1000DEC3073708F05DCF8F70863009F059CFDB
:102C200081E080933602063609F0DEC19FEF910FF6
:102C3000923168F5212F30E010FD1EC035952795A3
:102C4000F901EE0FFF1FE357FD4F8081918105973A
:102C5000918380834091BA015091BB01F601E41B3E
:102C6000F50B8E0F9F1F0597D0F42D5E46E667E0AB
:102C700080EB0E94900B13C0F9013196EE7FE35771
:102C8000FD4F8081918105969183808308C0133127
:102C900081F40E94990783E08093360210C01E37AA
:102CA000E1F481E08093CD02109236020E94570F2A
:102CB00006C01F37A1F710923602809312038FEDE2
:102CC000810F8B3108F04EC0E0911C04F0E0E1521E
:102CD000FE4F80830E94D00D45C01A3739F01E3157
:102CE00011F00C94702710921C04E9CFE12CF12C08
:102CF00053E0A52EC7010E94530DB82E20E34AE6EB
:102D000067E080EB0E94900B2B2D2F7747E767E061
:102D100080EB0E94900B21E34AE667E080EB0E9483
:102D2000900B2B2D30E0220F232F221F330B47E770
:102D300067E080EB0E94900B23E34AE667E080EBBC
:102D40000E94900B63E070E080E090E00E941E1310
:102D5000A0923602FFEFEF1AFF0AE11424E0F20618
:102D600049F6ADCF2CE3A22EB12C80E0E12EF12C60
:102D700099249394980EEA14FB0451F48093CF02A3
:102D80001092CC020E94D00D0E94570F90923602F2
:102D9000892D3FEFA31AB30A833051F796E4A92E89
:102DA000B12C8AEB8A0DEA14FB0469F4E091CF029E
:102DB000F0E0E35CFE4F80830E94D00D8091EC0236
:102DC0008F5F809336024FEFA41AB40A59E4A51618
:102DD000B10439F780E5A82EB12C80EB8A0DEA14F6
:102DE000FB0469F4E091CF02F0E0E65CFE4F8083E3
:102DF0000E94D00D8091C3018F5F809336026FEFE8
:102E0000A61AB60A75E5A716B10439F790913901EB
:102E10002AE530E086EA820FE216F30609F4982FDD
:102E20002F5F3F4F22363105A9F7909339018091EA
:102E3000CF02B0913602A8E28A9FB001112440E08F
:102E400050E0A0E09A1799F0AF5F4B5F5F4FA8305A
:102E5000C9F7B0933602E2E8F2E0B3E08B9FA0013D
:102E600011244B575D4F20E030E061E032C0FB01A0
:102E7000E40FF51FE05CFE4F24E630E00F2EFCE986
:102E8000BF2EF02DB20EE216F30611F4B082B0E0C0
:102E90002F5F3F4F2037310589F70F2EF0E9BF2E06
:102EA000F02DB20E2E153F0509F4B1822F5F3F4F72
:102EB0002537310591F7C8CF153771F4DA01A20F24
:102EC000B31F1C9210822F5F3F4F31962330310584
:102ED00051F09213F8CFF0CF1637A9F7DA01A20F0D
:102EE000B31F6C93EFCF1B3719F40E94FF0552C03C
:102EF0001C3799F4F12C33E0E32E8F2D0E94FF054F
:102F00000E94C60B0E9485040E94D00DE0923602FA
:102F1000F394E3E0FE12F1CF71C01D3709F06EC0EB
:102F200028EBE22EFF24F394C7010E94530D682F73
:102F3000C701805991400E943F0DFFEFEF1AFF0A31
:102F400020EDE21622E0F20679F794E2E92E93E012
:102F5000F92EC7010E94530D682FC701CF970E9419
:102F60003F0D3FEFE31AF30A43E6E41643E0F406AD
:102F700081F780913502863188F40E94C60B0E9449
:102F800051070E94850481E08093CD020E94D00DFC
:102F90000E94570F83E08093360230C0E12CF12C61
:102FA000C7010E94530D682FC70142960E943F0D32
:102FB0005FEFE51AF50A62E1E616F10489F78BED99
:102FC000E82E82E0F82EC7010E94530D682FC7013A
:102FD0000A970E943F0D7FEFE71AF70A85EEE81681
:102FE00082E0F80681F7C9CF0736A9F4E091CF0255
:102FF000F0E0EA5CFE4F10830E94D00DFDE2AF2EA0
:10300000F1E0BF2EAFE6EA2EF12C802E912CB1E834
:103010006B2E610E2CC0053789F7E090CF02F12CA2
:10302000C701880F991FDC01A05DBE4F7D01212FD4
:1030300030E0AFEFBFE10E94492824E630E040E0F5
:1030400050E00E942728F70131832083D5CF123327
:1030500090F4D5011C930E94D00DFFEFEF1AFF0AE8
:103060002FEFA21AB20A32E7E316F10439F08E14F8
:103070009F0499F7ECCFF5016082EDCF083629F473
:103080008FEF810F80932C0163C00936E1F58091A9
:103090002C01E091CF028C3048F44CE0E49FF00129
:1030A0001124E85FFE4FE80FF11D2BC0813250F470
:1030B00055E1E59FF0011124EE51FE4FE80FF11D9F
:1030C0003C971FC0813219F410931B0441C0823217
:1030D00069F4F0E0EE0FFF1FE458FD4F60E8169F23
:1030E000C001112420911B04822B61C08E3280F517
:1030F00076E0E79FF0011124E053FD4FE80FF11D4A
:10310000B797108323C00A3619F5103108F18CEEF9
:10311000810F893058F58091CF0290E0880F991F78
:10312000FC01EE5FFE4F8CEE810F41E050E060E06D
:1031300070E004C0440F551F661F771F8A95D2F7B1
:1031400080819181482B592B518340830E94D00D5F
:10315000309139018091CF02A8E28A9FC0011124E9
:10316000805C9E4F40E050E020E0DAC082EE810FAC
:10317000893000F58091CF0290E0880F991FFC0103
:10318000EE5FFE4F82EE810F21E030E040E050E044
:1031900004C0220F331F441F551F8A95D2F7DA014E
:1031A000C901809590952081318182239323918359
:1031B0008083CCCF173239F4E091CF02F0E0E758AA
:1031C000FD4F1082C3CF183241F4E091CF02F0E0FE
:1031D000E758FD4F81E08083B9CF193259F5E0906F
:1031E0005804F0905904E091CF02F0E0EE0FFF1F79
:1031F000E458FD4FF182E08222E248E667E080EB8E
:103200000E94900B2E2D2F7749E667E080EB0E94FD
:10321000900B23E248E667E080EB0E94900B970159
:10322000220F232F221F330B49E667E080EB0E9419
:10323000900B8CCF1A3231F482E0809312031092FB
:10324000360286CF1B32A9F52091580430915904DB
:10325000E090CF0245E1E49EC0011124BC016E5113
:103260007E4F7B01822F8F77DB0153968C93539790
:103270005901AA0CAB2CAA1CBB085496AC9220E2B4
:1032800048E667E080EB0E94900BF701238949E64E
:1032900067E080EB0E94900B21E248E667E080EB5C
:1032A0000E94900B2A2D49E667E080EB0E94900B6C
:1032B0004FCF1D3209F04CCFE12CF12CC7014296C3
:1032C0000E94530D682FC7010E943F0DFFEFEF1AB8
:1032D000FF0A22E1E216F10489F7BBEDEB2EB2E022
:1032E000FB2EC7010A970E94530D682FC7010E9449
:1032F0003F0D3FEFE31AF30A45EEE41642E0F40611
:1033000081F726CF0A3679F4103120F4FC01E40F5E
:10331000F51F12832F5F4B5F5F4F283009F4D9CB25
:103320003213F8CFEFCF0B3629F4FC01E40FF51F71
:103330001383F0CF0C3671F7FC01E40FF51F1483F3
:10334000E9CF3FB7F89487708093E9008091F2004D
:1033500090E08530910514F084E090E0282FFE0184
:103360003196215038F0A4E6A0937702A091F100A5
:10337000A193F7CF009721F02091F200222321F1B1
:103380003FBF049709F0FCCB809113049091140483
:10339000A0911504B0911604880F991F880F991FEA
:1033A000FC01ED5EFC4F09811A812B813C81008379
:1033B0001183228333834093130450931404609346
:1033C000150470931604B7CB7092E800D9CF0E9411
:1033D000581300917F041091800420918104309152
:1033E0008204DC01CB01801B910BA20BB30B059770
:1033F000A105B10508F48CC050907E0462E572E02E
:103400007A87698782E394E09E838D83ADE1B4E09F
:10341000B887AF8359E2E52E54E0F52E6CE2862E94
:1034200064E0962E73E2C72E74E0D72EE5E3AE2E4D
:10343000E4E0BE2EF8E36F2EF4E07F2E00E214E00D
:10344000A4E02A2E44244394E985FA858191919140
:10345000FA87E987FC01FF2732972081892F992776
:1034600030E082239323892B11F00C94E626D801B7
:103470008C91882319F08150D8018C93D8016C91DC
:1034800061110C94B426ED81FE814082AF81B88534
:103490005C9051100C94A526F701808181110C9449
:1034A000A526D5014C9255245394F6018191919112
:1034B0006F018D32914010F00C94DD26AD81BE81FC
:1034C0008D91BE83AD83EF81F8858193F887EF837B
:1034D000FFEFEF1AFF0A2FEF821A920A3FEFA31AAB
:1034E000B30A4FEF641A740A0F5F1F4F69857A851C
:1034F0006855724009F0A8CF50927E040E9458137C
:1035000060937F047093800480938104909382047D
:1035100080917E04882309F475C180913B0488233F
:1035200051F080913904882331F0109239041092BF
:103530007E0410923B0480913504882309F445C031
:1035400080913404811141C08091330481113DC0C8
:10355000E091CF020E2F10E095E1E99FF0011124D8
:10356000EE51FE4F22892130A9F480916804909198
:10357000690496958795089769F41092350420930D
:103580002F048091CB02811103C00E94760D02C0EE
:103590000E94550D86E0809FF001819FF00D11245F
:1035A000E053FD4F8281882381F0809168049091DF
:1035B0006904969587958031910531F5109235040F
:1035C00081E080932F040E941A0F78E3C72E74E0E5
:1035D000D72EE2E82E2EE2E03E2EF5E3AF2EF4E009
:1035E000BF2EA9E2EA2EA4E0FA2EBCE28B2EB4E0B4
:1035F0009B2E13E2412E14E0512E0FE2602E04E0C8
:10360000702E00E010E049C00297F9F610923504E0
:1036100081E080932F040E94F210D7CF8091CF02D7
:1036200090E0FC01EE0FFF1FE80FF91FEB57FD4F75
:10363000E00FF11F8081811136C02091320480910A
:10364000330490E0820F911D20913404820F911D6C
:10365000892B49F1D4018C91811131C0D5018C9114
:10366000811156C00F5F1F4F4FEFC41AD40A5FEF8E
:10367000251A350A6FEFA61AB60A7FEFE71AF70A7E
:103680008FEF881A980A92E0490E511CAFEF6A1A20
:103690007A0A0330110509F47BC00D83D6018C91A1
:1036A0008823C1F2BBCFF3018081811103C08D81DA
:1036B0000E940B11D6011C92F3011082CBCF2091F6
:1036C00032048091330490E0820F911D20913404E4
:1036D000820F911D019711F68091CF0290E0FC01BD
:1036E000EE0FFF1FE80FF91FEB57FD4FE00FF11F23
:1036F00080818111B3CF8D818B5F0E940B1121E0FE
:10370000F7012083D4011C92F20111821082A6CF0E
:103710001C922091CF0230E0F901EE0FFF1FE20F63
:10372000F31FEB57FD4FE00FF11F8081882309F451
:1037300099CFB5E0B09FF001B19FF00D112448E2A0
:10374000429FC001439F900D1124E80FF91FE05CD8
:10375000FE4F50815D83513069F48181811182CFA8
:1037600024814381628180E90E94900BED81D10127
:10377000EC9378CFFD81F53019F40E94480F72CF99
:103780002D81263011F00C94FD260E94390F6ACF4E
:10379000809133048823A1F1809138048823B1F00B
:1037A0008091CF0290E0FC01EE0FFF1F8E0F9F1F54
:1037B000FC01EB57FD4F8081811108C01092380445
:1037C00081E080933B0483E00E940B1180913A04D6
:1037D0008823B1F08091CF0290E0FC01EE0FFF1F33
:1037E0008E0F9F1FFC01EB57FD4F8181811108C097
:1037F00010923A0481E080933B0484E00E940B1114
:1038000010927E0480913602882309F445C00E94FC
:10381000581300913C0410913D0420913E043091D6
:103820003F04DC01CB01801B910BA20BB30B883C46
:103830009105A105B10580F10E94581360933C04E5
:1038400070933D0480933E0490933F0480918E02D8
:10385000EEE9F5E0882399F0859194912FB7F894DB
:10386000FC01FF2780819095892380832FBF809161
:10387000360281508093360210928E020DC08591DF
:1038800094912FB7F894FC01FF278081892B8083C6
:103890002FBF81E080938E0210911203112309F44F
:1038A00007C180918E0281113DC0EEE9F5E085915E
:1038B00094912FB7F894FC01FF278081892B808396
:1038C0002FBF81E080938E020E94581360934004C2
:1038D00070934104809342049093430480911203B7
:1038E000813081F08091CE02882309F4E1C01092EA
:1038F000900210928F028FEF90E09093EF028093EE
:10390000EE02D6C0E1E9F2E0A0EFB2E081EA92E097
:103910002FEF30E0119211922D933D938E179F0758
:10392000C9F7E0CF1130B1F40E945813C0904004A1
:10393000D0904104E0904204F0904304DC01CB01BC
:103940008C199D09AE09BF0981319742A105B105C6
:10395000D0F05DC0123009F070C00E945813C090C2
:103960004004D0904104E0904204F0904304DC0114
:10397000CB018C199D09AE09BF0989389341A10576
:10398000B10528F15CC0EFE8F2E02EE634E06EEE1F
:1039900072E0D9018D919D919D014281538148171B
:1039A000590710F493838283DB0112964D915C9149
:1039B00013978417950724F413969C938E9312976C
:1039C00032966E5F7F4FB2E0EF39FB0711F78091BF
:1039D000CE028823D1F080916C0490916D042091E7
:1039E0008F02309190022817390720F490939002AB
:1039F00080938F022091EE023091EF02821793079D
:103A000024F49093EF028093EE021130B1F40E94FF
:103A100058130091400410914104209142043091C8
:103A20004304DC01CB01801B910BA20BB30B813152
:103A30009742A105B105C0F43BC01230C9F50E9400
:103A40005813009140041091410420914204309198
:103A50004304DC01CB01801B910BA20BB30B893813
:103A60009341A105B10520F10E9499078091D101F0
:103A70002EEC3FEF281B3109EFE8F2E005EA12E0F7
:103A800081EAC82E82E0D82E98EFE92EFF24FA941E
:103A900061917191620F731FC7010E94D3287695BF
:103AA0006795D8016D937D938D01CE16DF0681F762
:103AB000F8940CE6202E04E0302ED10180E090E056
:103AC000FC01EE0FFF1FE050FD4F208131812D934F
:103AD0003D9301968930910599F77894609135026C
:103AE00070911203AEEEB2E02EE734E0ECE6F4E0C3
:103AF000663158F0711109C0808191814D915C91BE
:103B00001197841B950B918380838081918197FF0E
:103B100002C011821082329612962E173F0741F78B
:103B20008091BA019091BB014EEC5FEF5A01A81A47
:103B3000B90A0091680410916904EFE8F2E0ACE67C
:103B4000B4E080E090E06D917D9121913191790117
:103B500042E3E41AF108E616F70678F421E030E0D3
:103B600040E050E0082E04C0220F331F441F551FB1
:103B70000A94D2F7022B132B16C02A0D3B1D2617D1
:103B8000370788F041E050E060E070E0082E04C0A4
:103B9000440F551F661F771F0A94D2F79A0120958C
:103BA00030950223132301968930910561F6109315
:103BB0006904009368048091B8019091B90180175D
:103BC000910709F4B7C01093B9010093B80180912F
:103BD000CD02882379F0212F220F07FD216042E7D3
:103BE00067E080EB0E94900B202F43E767E080EBBB
:103BF0000E94900BE091CF02F0E0E152FE4F408135
:103C0000842F90E08B30910508F094C0FC01EA5AB3
:103C1000FF4F0C94E728F801EC7FFF279F013695B2
:103C20002795F901E651FB4FE4918E2F90E0443047
:103C300011F401FD0197F901E551FB4FE491E09387
:103C400060047BC010FD04C082E0809360047AC0F1
:103C500098012E7F332736952795B901660F771F78
:103C6000FB01E651FC4FE4918E2F90E0FB01E55102
:103C7000FC4FE491E09360044A3009F05EC02D7F70
:103C8000283419F4E7E4F0E062C0283609F457C09C
:103C900054C010FF57C0F801EE7FFF27F695E79557
:103CA000E659FC4F44C010FD05C007FD4EC0ECE4D2
:103CB000F0E04DC0F801EE7FFF27F695E795E6515D
:103CC000FD4F35C0C8019695879599270E94B90D7B
:103CD000E8EDF2E020E030E09491891306C0F901AC
:103CE000EE0FFF1FE752FD4F22C02F5F3F4F32966E
:103CF0002930310589F7F801F695E795FF27E85255
:103D0000FE4FE491F0E0309711F514C0F801EE7F1A
:103D1000FF27F695E795E85AFE4F09C010FFB2CF8E
:103D2000F801EE7FFF27F695E795E852FF4FE49103
:103D3000F0E00DC0EFEFFFEF0AC0FC0108C0E5E4C2
:103D4000F0E005C0EAE4F0E002C0EBE4F0E0F0935C
:103D50006B04E0936A0480916A0490916B0401966D
:103D600059F120916A0430916B048091340290E003
:103D70008217930709F18091ED02811117C080919C
:103D8000EC02823099F01093670400936604E2E23B
:103D9000F2E0A3EEB2E0119211921D9262E0E433E0
:103DA000F607C9F7882311F40C94102780916A0450
:103DB00090916B04809334028091E202882309F48D
:103DC0000AC1F8948091A1029091A20290935004AC
:103DD00080934F04789400914F0410915004809187
:103DE0005804909159048017910709F4F4C0E091A8
:103DF000CF0275E1E79FF0011124EE51FE4F828959
:103E0000833051F580914E04811115C08489A0E85A
:103E10008A9FC00111242389822B05968017910760
:103E2000DCF481E080934E048091CB02811114C0B8
:103E30000E94760D11C08489B0E88B9FC0011124C7
:103E40002389822B081719073CF410924E048091A5
:103E5000CB0281110E94550D8091340290E0CC97E5
:103E60004091C201489F9001499F300D11248091DB
:103E7000C8019091C901820F931F9093C50180934F
:103E8000C40180914D04882311F40C9448270E94AA
:103E90005813C0904904D0904A04E0904B04F0902D
:103EA0004C04AB01BC014C195D096E097F0980917E
:103EB000C0019091C101092E000CAA0BBB0B481741
:103EC00059076A077B0708F4E3C710924D04409135
:103ED0004D04411152C08091480481114EC020917F
:103EE000C301213021F58091580490915904B80103
:103EF000681B790B8091BD0190E086179707BCF491
:103F00008091C6019091C7018017910784F483E0E6
:103F10008093650420934D040E94581360934904D4
:103F200070934A0480934B0490934C0421C0809179
:103F30006504833011F5222301F12091580430915A
:103F40005904201B310B8091BC0190E0821793072C
:103F5000A4F481E080936504809348040E94581380
:103F600060934404709345048093460490934704FF
:103F700010935904009358042EC08091C60190916B
:103F8000C7018017910714F081E01DC08091C30123
:103F9000813069F48091480441110BC0811109C03E
:103FA0008091C4019091C5018017910724F082E0AF
:103FB0000AC081110AC08091C4019091C501801787
:103FC00091071CF483E080936504109359040093D7
:103FD00058041092E202E091D502E987EE23B1F095
:103FE00080912102813071F480916504813051F01B
:103FF0000E94581360936104709362048093630479
:104000009093640480916504809321029091A402AE
:104010008091A302FCE09F9F800D112480935304A4
:10402000209165042D870091CF02233091F4909167
:1040300034029E3371F09CE0980F90935304E02F6C
:10404000F0E0E152FE4F9081973019F4895F809340
:1040500053048091C301833051F5802F90E0FC011F
:10406000E152FE4F4081413009F44BC74A3009F418
:1040700048C720916804309169042170332756E0C5
:10408000589FF001599FF00D1124E053FD4F83819B
:1040900090E02817390791F5809153049CE0980F20
:1040A000473019F09093530429C0895F25C08230AE
:1040B00029F5802F90E0FC01E152FE4F2081322F44
:1040C0003B7F11F02630D1F4309169043F87188A84
:1040D0002F8538892170332746E0489FF001499F9A
:1040E000F00D1124E053FD4F838190E0281739072C
:1040F00029F480915304845F8093530410E0F80105
:10410000E152FE4F40814D83453029F480915304A4
:10411000815080935304B090ED02BB20D1F12091E7
:1041200060042230B0F58FEF9FE19093D30180932C
:10413000D201213051F42091CF013091D001821B66
:10414000930B9093D3018093D201C090D201D09071
:10415000D3018091B7029091B802C80ED91ED092B7
:10416000D301C092D2018091CD019091CE01C816A9
:10417000D90679F09601220F232F221F330B4C2DE5
:104180004F7761E080EE0E94900BD092CE01C092FA
:10419000CD010E94581340905C0450905D046090E3
:1041A0005E0470905F04DC01CB0184199509A609B7
:1041B000B7090F97A105B10508F4BDC40E945813B3
:1041C00060935C0470935D0480935E0490935F043D
:1041D00085E1809FF001819FF00D1124EE51FE4F8B
:1041E0008081882309F4ADC086E0809FF001819F23
:1041F000F00D1124E053FD4F81818111A2C0209167
:10420000C6013091C7018091C4019091C501BC01E4
:10421000621B730B75956795620F731F5D85533035
:1042200019F4680F791F9C018091580490915904EA
:104230008617970758F545E1409FF001419FF00D23
:104240001124EE51FE4F4181FB01E81BF90B84E183
:10425000489FA0011124E49FC001E59F900DF49FA9
:10426000900D1124621B730B0E94D328669FB0012E
:10427000112453E0759567955A95E1F7719561950D
:1042800071097093B8026093B70214C0861B970B34
:1042900025E1209FF001219FF00D1124EE51FE4FEA
:1042A0004181489F9001499F300D11243093B802FD
:1042B0002093B70285E1809FF001819FF00D1124CA
:1042C000EE51FE4F8181A8EC8A9FC00111242091FC
:1042D000B7023091B8028217930724F49093B80282
:1042E0008093B702B091EC02BF83B23009F005C6EB
:1042F000C090B702D090B802E1E0CE1AE0EEDE0A3C
:10430000D092D301C092D2018091CD019091CE0183
:10431000C816D90609F428C180915504882309F4E8
:1043200023C19601220F232F221F330B4C2D4F77D1
:1043300061E080EE0E94900BD092CE01C092CD0140
:1043400013C1B11014C1F091EC02FF83F23009F4F3
:1043500026C22091D10130E0409151044E878090D7
:104360006804909069048091CC0164E070E0681B5F
:1043700071097A8B698B60906604709067048091F4
:10438000CA019091CB019C8B8B8BA091CF01B091F6
:10439000D001BE8BAD8BE2E2F2E0FC87EB8743EE0F
:1043A00052E05A8F498F89EBE82E82E0F82E95EA89
:1043B000492E92E0592E80E090E0A4010E8402C0C4
:1043C000569547950A94E2F7BA0161707727788F7E
:1043D0006F8B7F81711127C0D1014D915C912417A2
:1043E0003507E4F4BE85B8131EC06F89788D672B3E
:1043F000D1F4421B530BD201CD90DC904C9DB00107
:104400004D9D700D5C9D700D1124098802C076953C
:1044100067950A94E2F77183608305C0A98DBA8D10
:104420001C9211821082682FA301082E02C056959B
:1044300047950A94E2F740FF17C0D1014D915C9176
:10444000421753078CF4A12CB12C6501A394082EBC
:1044500004C0AA0CBB1CCC1CDD1C0A94D2F7A5011D
:1044600040955095642275224B895C89062E02C0C6
:10447000569547950A94E2F740FF47C0A301062EE0
:1044800002C0569547950A94E2F740FD3EC0BF81B1
:10449000B13019F04E854817C1F1D1014D915C91B1
:1044A000D40102C0B695A7956A95E2F7BD0124171D
:1044B0003507CCF4A0FD1EC0421B530BD701AD90B5
:1044C000BC904A9D60014B9DD00C5A9DD00C11248C
:1044D000D694C794D694C794D182C08241E0A98D66
:1044E000BA8D4C9307C0A98DBA8D1C9260FF0DC088
:1044F00011821082A98DBA8D4C91413031F460FF48
:1045000004C04D895E895183408301963296698D3E
:104510007A8D6F5F7F4F7A8F698F72E0E70EF11CA3
:10452000A2E02A0E311CB2E04B0E511C89309105DD
:1045300009F04FCF709267046092660480E090E0CB
:10454000EB85FC8521913191FC87EB87820F931FCE
:10455000E453F240A9F79093D3018093D2018115DF
:1045600090420CF4E5C0DEC0BB2009F418C1809174
:104570006004823009F013C11092D3011092D2016D
:104580008D818B7F09F070C060917204709173040B
:104590002091D10130E08091700490917104261730
:1045A0003707BCF5A0916804A3FD33C0621B730BF1
:1045B000E091BF02F091C0026E9FA0016F9F500D6D
:1045C0007E9F500D112456954795569547955093CB
:1045D000D3014093D20128173907CCF5A2FD37C08B
:1045E000BC01621B730B2091BD023091BE02629F21
:1045F000C001639F900D729F900D11249695879531
:1046000096958795480F591F5093D3014093D20137
:104610001EC0281739070CF08BC04091680442FD7A
:1046200087C0821B930B4091BD025091BE02849FB4
:104630009001859F300D949F300D1124C9019695EE
:104640008795969587959093D3018093D201809119
:10465000CF019091D0012091D2013091D3018217E6
:10466000930708F065C060C04D81413019F04A30B1
:1046700009F05EC0409168045091690450FD29C062
:1046800043FD56C080917204909173042091D10132
:1046900030E04091CF015091D00128173907A4F4A0
:1046A000821B930B6091BF027091C002869F9001A4
:1046B000879F300D969F300D1124C90196958795DF
:1046C00096958795481B590B5093D3014093D2017F
:1046D0002FC080917204909173042091D10130E039
:1046E00028173907C4F443FD16C0821B930B409171
:1046F000BF025091C002849F9001859F300D949F0E
:10470000300D1124C90196958795969587959093BC
:10471000D3018093D2018091D2019091D301811570
:10472000904234F08FEF9FE19093D3018093D201B8
:104730002091D2013091D3018FEF9FE1821B930B27
:104740002091B7023091B802820F931F97FD05C0E8
:104750009093D3018093D20104C01092D3011092A0
:10476000D201C090D201D090D3018091CD0190911F
:10477000CE018C159D0599F080915504882379F020
:104780009601220F232F221F330B4C2D4F7761E010
:1047900080EE0E94900BD092CE01C092CD0160912C
:1047A00058047091590478876F8380915A049091CE
:1047B0005B04861B970B97FF03C091958195910928
:1047C00003970CF48BC18091CD028823D9F08F819F
:1047D00098854C01990FAA08BB08282D2F7744E72C
:1047E00067E080EB0E94900BA5019401B7E056951D
:1047F000479537952795BA95D1F746E767E080EB5F
:104800000E94900B85E1809FF001819FF00D1124A3
:10481000EE51FE4F328091E0391621F0A985A1308A
:1048200009F056C185E1809FF001819FF00D1124B0
:10483000EE51FE4FE7818090DC019090DD01A12CCC
:10484000B12C2F813885C901330FAA0BBB0B9C01FA
:10485000AD01281939094A095B09A0E2B3E00E94B9
:104860001C2848E0E49F900111242C593F4F690116
:10487000330FEE08FF08A7019601281939094A09E4
:104880005B090E94FD2757FD0EC0213263E0360709
:104890004105510574F449015A0174E6870E911CD3
:1048A000A11CB11C0CC0A4E68A2E912CA12CB12C09
:1048B00006C0F4E88F2EF3E09F2EA12CB12C85E1E9
:1048C000809FF001819FF00D1124EE51FE4F8381F6
:1048D000813009F584EC9CE1A1E0B0E08093D8013F
:1048E0009093D901A093DA01B093DB01A501940163
:1048F000C501B4010E94C3289B01AC01C501B401EC
:104900000E94C32820E137E240E050E00E942728BF
:1049100049015A012DC08230F9F484E89CE1A0E0FD
:10492000B0E08093D8019093D901A093DA01B093BD
:10493000DB0160E17CE58CE090E0A50194010E9440
:104940002728E8E08E2EE0E29E2EA12CB12C821AC0
:10495000930AA40AB50A0CC084E893E0A0E0B0E092
:104960008093D8019093D901A093DA01B093DB0131
:104970008985813009F04EC04090D6015090D70112
:104980006201E12CF12C4090D4015090D501612CB2
:10499000712CC701B6016419750986099709A5012B
:1049A000940124563109410951090E94C3282091DC
:1049B000D8013091D9014091DA015091DB012456A0
:1049C0003109410951090E94FD27DA01C901840D0D
:1049D000951DA61DB71D84159505A605B7054CF4B4
:1049E00077E075946794579447947A95D1F7242D7E
:1049F0000FC0C816D906EA06FB0614F4D701C60193
:104A000067E0B595A795979587956A95D1F7282F73
:104A10002093DE0191E039125BC02091D6013091E4
:104A2000D7016901E12CF12C4090D4015090D501BF
:104A3000612C712CA50194012456310941095109B9
:104A4000C701B60164197509860997090E94C32830
:104A50008090D8019090D901A090DA01B090DB014C
:104A6000A501940124563109410951090E94FD27ED
:104A7000DA01C901840D951DA61DB71D8415950584
:104A8000A605B7054CF457E075946794579447947E
:104A90005A95D1F7242D0FC0C816D906EA06FB0691
:104AA00014F4D701C60147E0B595A795979587956A
:104AB0004A95D1F7282F85E1809FF001819FF00D65
:104AC0001124EE51FE4F4581648180EB0E94900BD2
:104AD000AF81B885B0935B04A0935A0480915704CA
:104AE0008F5F8A3019F08093570425C010925704C5
:104AF000E6EAF5E085919491FC01FF273297208149
:104B0000892F992730E08223932321E0892B09F410
:104B100020E02093CE0280915604821761F020930A
:104B200056048091CD02882331F0285846E667E08C
:104B300080EB0E94900BC0905504CC20A1F02091F6
:104B4000340230E08091540490E040915304841B7F
:104B5000910947FD93952817390729F4BD85B13090
:104B600009F0ACC0A0C0ED85E23058F086E0809F2F
:104B7000F001819FF00D1124E053FD4F81818823C6
:104B800089F086E0809FF001819FF00D1124E053B1
:104B9000FD4F8181882309F480C08091CC02882355
:104BA00009F47BC0809152048E3389F42091340241
:104BB00080915304082E000C990B820F911D8635AD
:104BC000910529F48091E202882309F466C0F985F1
:104BD000F11106C0D09034022D812330E1F417C0CA
:104BE000C110F8CF0E945813809061049090620425
:104BF000A0906304B0906404DC01CB01881999098A
:104C0000AA09BB094497A105B10520F794C03CE36C
:104C1000D3120DC042C04D81413011F04A3039F4F9
:104C20005EE3D51204C08091680480FD36C0E09038
:104C30005304ED0C2091DE014E2D61E080E90E94CD
:104C4000900BCC2039F020E44091540461E080E8DE
:104C50000E94900B0E94581360935C0470935D0453
:104C600080935E0490935F04E0925404D0925204C7
:104C700081E08093550485E1809FF001819FF00DD4
:104C80001124EE51FE4F8289823009F067CF809166
:104C9000CB02811163CF0E94760D80915504882349
:104CA00009F449C05BCF86E0809FF001819FF00D41
:104CB0001124E053FD4F8181882321F186E0809FFC
:104CC000F001819FF00D1124E053FD4F8181882375
:104CD00021F08091CC028823A9F06D81633029F402
:104CE000809134028C3339F50DC07D81713011F023
:104CF0007A3009F5809134028E33E9F480916804AA
:104D000080FF19C020E44091540461E080E80E94D3
:104D1000900B1092550485E1809FF001819FF00D6A
:104D20001124EE51FE4F8289823029F48091CB020A
:104D300081110E94550D80E090E0892B11F40C94B4
:104D400063150E9400000C946315F5011082552034
:104D500011F40C94531AD6018D919C9111970196E0
:104D60008D939C930C94551A70E080E090E00E9423
:104D70005F2820E030E040E850E40E94BE2887FF32
:104D800002C00C94551AED81FE811082D8012C923C
:104D9000EF81F8858081882339F0D7019C919111AA
:104DA00003C0F3014082582ED4011C92F7011082F7
:104DB000D6011D921C920C94551AD7018C91811129
:104DC0000C945E1AF40140820C945E1AF801308053
:104DD000632D70E080E090E00E945F2820E030E0EA
:104DE00040E850E40E94582887FD02C00C943E1A07
:104DF0003394F80130820C943E1AFD81FA3021F48C
:104E00008091A3028F5F08C03D813B3011F00C946C
:104E1000321B8091A30281508093A3020C94321B19
:104E2000E091CF02F0E0E152FE4F80818530A9F0A1
:104E300048F48230E9F4E0916A04F0916B04EA5C92
:104E4000FA4F1CC0873081F0883091F4E0916A04F9
:104E5000F0916B04E35DFA4F11C0E0916A04F091A8
:104E60006B04E25DFA4F0AC081E08093CC0109C077
:104E7000E0916A04F0916B04E15DFA4FE491E093F4
:104E8000CC01C8010E94B90D809351040C94D61E28
:104E900080914804882309F41AC80E945813C090CE
:104EA0004404D0904504E0904604F0904704AB01E0
:104EB000BC014C195D096E097F098091BE0190917A
:104EC000BF01092E000CAA0BBB0B481759076A0734
:104ED0007B0710F40C94671F109248040C94671F12
:104EE0001F3111F481E005C0103211F00C945F16EF
:104EF00082E080931C040C945F16BB2009F429CA3D
:104F000036CB10E0F801E152FE4F20812D8303C91A
:104F100082E08093B3048093B40489EB94E090938F
:104F2000B6048093B5041092B8041092B70485E6D5
:104F300092E09093B0048093AF0480E88093B9042A
:104F400081E88093BA040E94040DFC0121818091C4
:104F5000B30490E0820F911D0897C4F5A281B3813C
:104F6000109729F48FEA94E0938382830EC01896F9
:104F70008D919C911997009711F0DC01F8CF8FEA81
:104F800094E019969C938E93189780818093B10436
:104F900081818093B20490818091B404890F8083D1
:104FA00080E09091B304891788F4A091B504B09182
:104FB000B604A80FB11D9C91A181B0E0A75CBD4FC4
:104FC0009C9391819F5F91838F5FEBCF0895F999B7
:104FD000FECF92BD81BDF89A992780B50895262FFE
:104FE000F999FECF1FBA92BD81BD20BD0FB6F894CE
:104FF000FA9AF99A0FBE01960895052E97FB1EF4B2
:1050000000940E94142857FD07D00E94272807FC0F
:1050100003D04EF40C94142850954095309521956A
:105020003F4F4F4F5F4F08959095809570956195D4
:105030007F4F8F4F9F4F08950E944928A59F900D45
:10504000B49F900DA49F800D911D11240895A1E29D
:105050001A2EAA1BBB1BFD010DC0AA1FBB1FEE1FF2
:10506000FF1FA217B307E407F50720F0A21BB30B3D
:10507000E40BF50B661F771F881F991F1A9469F7B9
:1050800060957095809590959B01AC01BD01CF0115
:105090000895A29FB001B39FC001A39F700D811D11
:1050A0001124911DB29F700D811D1124911D089531
:1050B0000E949A2808F481E00895E89409C097FBBB
:1050C0003EF490958095709561957F4F8F4F9F4FDF
:1050D0009923A9F0F92F96E9BB279395F695879523
:1050E00077956795B795F111F8CFFAF4BB0F11F4E6
:1050F00060FF1BC06F5F7F4F8F4F9F4F16C088238D
:1051000011F096E911C0772321F09EE8872F762FC2
:1051100005C0662371F096E8862F70E060E02AF003
:105120009A95660F771F881FDAF7880F96958795EF
:1051300097F90895990F0008550FAA0BE0E8FEEFC4
:1051400016161706E807F907C0F012161306E4074B
:10515000F50798F0621B730B840B950B39F40A2644
:1051600061F0232B242B252B21F408950A2609F422
:10517000A140A6958FEF811D811D08950E949A2858
:1051800008F48FEF0895DB018F939F930E941C28F2
:10519000BF91AF91A29F800D911DA39F900DB29FD3
:1051A000900D11240895AA1BBB1B51E107C0AA1F33
:1051B000BB1FA617B70710F0A61BB70B881F991FB8
:1051C0005A95A9F780959095BC01CD010895EE0FF1
:1051D000FF1F0590F491E02D099481E090E0F89490
:0851E0000C94F228F894FFCFB3
:1051E8001D0CFF00FF00FF000F0F0F0F1E1E03080E
:1051F8001C070F160F0F0F0F1E1E03081C070F1694
:105208000F0F0F0F1E1E03081C070F16640000085F
:105218000004000400040A0A0A64010100010102F2
:105228000200000000080000000003000000000564
:105238000000000006000000000000000000000060
:10524800000000000000000002000000000800004C
:105258000000030000000005000000000600000038
:105268000000000000000000000000000000000036
:105278000200000000080000000003000000000514
:105288000000000006000000000000000000000010
:105298000000000000000000010004000F0F0F00D4
:1052A8000F000F01FF0004010000FF0101FF1F00B4
:1052B800040AFF1F7F00FF3F200300006400400036
:1052C80001020003000001070064007F000133248D
:1052D80000013324000000000300000107006400FF
:1052E8007F00013324000133240000000003000084
:1052F80001070064007F000133240001332400000B
:105308000001FF1FFF1FFF1FFF1FFF1FFF1FFF1FC2
:10531800FF1FFF1FFF1601010F00C1808100000061
:1053280025802B80251028402E402B082B042B018C
:105338002B0225022508250405090A000102030B92
:105348000600000000140C2A0C110C200C4D4944D6
:0253580049000A
:00000001FF
