:100000000C943F030C9467030C9467030C946703F0
:100010000C9467030C9467030C9467030C946703B8
:100020000C9467030C9467030C94700A0C94EE0A0A
:100030000C9467030C9467030C9467030C94670398
:100040000C9467030C9467030C9467030C94670388
:100050000C940C0F0C9467030C9467030C943D15DF
:100060000C9467030C9467030C9467030C94670368
:100070000C9467030C94B3090C9467030C94670306
:100080000C9467030C9467030C9467030C94670348
:100090000C9467030C9467030C9467030C94670338
:1000A0000C9467030C9467030C946703A308C008BF
:1000B000F1081009A3083D0949095109FB08A809DD
:1000C000C0085B0977090113C313C913CF13D613F3
:1000D000EB130C1419143C144F145F14741474149F
:1000E0007414741474147414741471142B042B0881
:1000F0002B022B012B1028402B802E402510252071
:10010000254025802B40288025082502250425012F
:100110003180314031203110310231012B102B80E0
:100120002510252025402B4004030904120100025C
:10013000EF020140D80487EE0001010203014D6F78
:1001400077727920537472696E67656420496E73A3
:100150007472756D656E747300574152424C003D68
:100160003D3D3D3D3D3D3D3D3D3D3D3D3D3D3D3CC0
:10017000303C3C3C3C3C3C3C3C3C3C3C3C3C3C3BCC
:100180002F3B3B3B3B3B3B3B3B3B3B3B3B3B3B39CD
:100190002D393939393939372B36373535343244F9
:1001A000444444444444444444444444444444440F
:1001B0004444444444444444444444444444444300
:1001C0004343434343434343434343434343434101
:1001D00041414141414141404040403F3F3E3C0060
:1001E000000000000000000000000000000000000F
:1001F00000000000000000000000000000000000FF
:1002000000000000000000000000000000000000EE
:100210000000000000000000000000000000004698
:10022000464646464646464646464646464646466E
:10023000464646464646464646464646464646465E
:10024000464646464646464646464646464646464E
:10025000464646464646464646464646464646453F
:10026000454545454545454545454545454545453E
:10027000454545454545454545454545454545442F
:10028000444444444444444444444444444444432F
:1002900043434343434343424242424141403E4B36
:1002A0004A4A494A4949484A494948494848474ABF
:1002B00049494849484847494848474D4C4C4B4AAA
:1002C000494948494847464E4D4D4C4D4C4C4B488A
:1002D000474746474646454D4C4C4B4C4B4B4A498D
:1002E00048484748474645484746454746464548A3
:1002F000474746474646454746464546454544479F
:10030000464645464545444645454445444443459F
:10031000444443444343424342424141403E3F4BB5
:100320004B4B4B4B4B4B4B4B4B4B4B4B4B4B4A6306
:100330006363636363636362626161605F5E5D55B3
:10034000555555555555555D4B4B49494949495C9E
:100350005C5C4A5C4A4A4A5B4A5A4A595857565466
:1003600054544949495454544949494949494953BC
:100370005353535353534B4B4B4B4B4B4B534B528E
:100380005252525252525252525252515151525052
:10039000505050505050504F4F4E4E4D4C4B4A4A7B
:1003A0004A4A4A4A4A4A4A4A4A4A4A4A4A4A4A4AAD
:1003B0004A4A4A4A4A4A4A4A4A4A4A4A4A4A4A499E
:1003C0004949494949494949494949494949494B9B
:1003D0004B4B4B4B4B4B494B4B4B4B4B4B4B4B4872
:1003E000484848484848484848484848484848478E
:1003F0004A4747474747474747474747474747468B
:100400004646464646464645464646454546464491
:10041000444444444444444343424241403F3E7F79
:100420003C003E014002420343044505470649495A
:10043000494949494949494949494949494949492C
:100440004949494949494948484848484848484726
:100450004747474747474747474747464646464532
:1004600045454545454444434445434241403E4853
:1004700048484848484848484848484848484848FC
:1004800048484848484848484848484848484848EC
:1004900048484848484848484848484848484848DC
:1004A00048484848484848484848484848484947CC
:1004B00047474747474747474747474747474747CC
:1004C00047474747474747474746464747474745C0
:1004D00045454545454545454545454545454543CE
:1004E0004343434343434342424141403F3E3C49EF
:1004F00000490249004900490049014900490049B1
:1005000000490049004900490049004900490049A3
:100510000049004900490049004900490049004993
:100520000049004900490049004900490049004983
:100530000049004900490049004900490049004973
:100540000049004900490049004900490049004864
:100550000248024800480248014801480048014852
:100560000048024800480048004801480049004748
:10057000004702470047024700470147004701463E
:100580000047004600470047004700470047004734
:100590000047004700470047004700470047004723
:1005A0000047004700470047004700470047004515
:1005B000004502450045024500450145004501440E
:1005C0000045004400450045004500450045004306
:1005D00000430243004302430043014300430142FE
:1005E00000420041004200400040003F003E004900
:1005F00000490049004900490049004900490049B3
:1006000000490049004900490049004900490049A2
:100610000049004900490049004900490048004894
:10062000024801480148014800480048004A004784
:10063000024701470147014700470047004700477D
:100640000047004700470047004700460046004576
:100650000245014501450145004400450044004371
:10066000024301430143014200410040003E0007B4
:100670000605040100080A0B0C0D0900722811245C
:100680001FBECFEFDAE0DEBFCDBF12E0A0E0B1E0E9
:10069000ECEBF3E502C005900D92A638B107D9F74F
:1006A00024E0A6E8B2E001C01D92A83CB207E1F741
:1006B00013E0CFE3D3E004C02197FE010E94D129CB
:1006C000CE33D107C9F70E9487150C94DC290C940E
:1006D000000040918A0450918B042091880430914D
:1006E000890442175307B4F49091E8009570E1F340
:1006F0009091E80092FD19C08093F10080918A04E6
:1007000090918B0401968F739927892B19F48EEFA2
:100710008093E80080918A0490918B0401969093D5
:100720008B0480938A0481E0089580E00895DF922D
:10073000EF92FF920F931F93CF93DF93D82EF92E52
:10074000E42E062F10E0C8010196880F0E9469036D
:1007500083E00E946903CD2DDF2D0C0F1D1FC017F4
:10076000D10789F0E7FE03C0FE01849101C08881B2
:100770000E946903F82E80E00E9469038F21219670
:100780008111EDCF01C081E0DF91CF911F910F91D9
:10079000FF90EF90DF900895CF93DF9380919F04B7
:1007A000893069F486E10E94CC149093B50280935D
:1007B000B40210929F0481E08093E70298C0809178
:1007C0004802882391F1E0919F04F0E0EE0FFF1FB3
:1007D000ED5AFD4F808191812FB7F894FC01FF27DE
:1007E0008081892B80832FBF80919F04883041F4C2
:1007F00085E00E94CC1490938E0480938D0412C0E7
:10080000C0919F04D0E02196E0919F04F0E0E5596B
:10081000FD4F81810E94CC14CC0FDD1FC357DB4FED
:10082000998388831092480262C0809148028111A6
:100830005EC0C0919F04D0E0E0919F04F0E0E559D4
:10084000FD4F80810E94CC14CC0FDD1FC85EDC4FB1
:1008500099838883E0919F04F0E0EE0FFF1FED5A2B
:10086000FD4F808191812FB7F894FC01FF27808193
:100870009095892380832FBFE0919F048E2F90E075
:10088000E0919F04F0E0EE0FFF1FE85EFC4F208137
:100890003181E0919F04F0E0EE0FFF1FE357FB4F23
:1008A00040815181241B350BFC01EE0FFF1FE85ED8
:1008B000FC4F31832083E0919F04F0E0EE0FFF1F97
:1008C000E85EFC4F8081918197FF09C0E0919F0411
:1008D000F0E0EE0FFF1FE85EFC4F11821082809166
:1008E0009F048F5F80939F0481E080934802DF9193
:1008F000CF91089580918C048F5F80938C048091B8
:100900008C04823011F42F9A089580918C048330E6
:1009100069F480E18093810084E00E948C0F81E083
:100920008093480210929F0410928C0408950F93B4
:100930001F93CF93DF931F92CDB7DEB719820E942A
:10094000F80EDC0112960D911C91139701151105FB
:1009500089F0D801ED91FC910280F381E02DBE0178
:100960006F5F7F4FC801099597FD04C0F8010085AE
:100970001185ECCF89810F90DF91CF911F910F915D
:1009800008952F923F924F925F926F927F928F9233
:100990009F92AF92BF92CF92DF92EF92FF920F930E
:1009A0001F93CF93DF93CDB7DEB766970FB6F8945A
:1009B000DEBF0FBECDBF8DE391E09A878987EAE362
:1009C000F1E0F887EF8386E391E09C878B87E2E094
:1009D000F1E0FE87ED8780E391E0988B8F87E8E078
:1009E000F1E0FC83EB838EE192E09E838D83412CCA
:1009F000512CA12CB12C212C312CE4E6F0E0FA830F
:100A0000E9831E8A1D8A612C712CC301875C9E4F6D
:100A10000E94470FE985FA858193FA87E987C30128
:100A2000845C9E4F0E94470FEF81F8858193F88781
:100A3000EF83C301C2960E94470FEB85FC8581932B
:100A4000FC87EB878D899E898D5A9F4F0E94470FA7
:100A5000182F8D899E898C5A9F4F0E94470F212FF6
:100A600030E0382BED85FE8521933193FE87ED87AD
:100A70008D899E89875A9F4F0E94470F182F8D8915
:100A80009E89865A9F4F0E94470F212F30E0382BB6
:100A9000EF85F88921933193F88BEF87C301815A51
:100AA0009F4F0E94470FF301E457FD4F80838D89CC
:100AB0009E898F5E9E4F0E94470F182F8D899E89B9
:100AC0008E5E9E4F0E94470FED89FE89E157FD4FD4
:100AD000212F30E0382B31832083F5E0F69D800113
:100AE000F79D100D1124E12CF12C085C1F4FC8015B
:100AF0008E0D9F1D0E94470FED81FE81EE0DFF1DA3
:100B000080838FEFE81AF80A96E0E916F10479F786
:100B1000E12CF12C82010B511D4FC8018E0D9F1D40
:100B20000E94470FF701E40DF51DE252FE4F80834E
:100B3000EFEFEE1AFE0AF5E1EF16F10471F7E12C82
:100B4000F12C85010C5F1E4FC8018E0D9F1D0E9468
:100B5000470FEB81FC81EE0DFF1D80838FEFE81ABC
:100B6000F80A9CE0E916F10479F7810106501F4F5D
:100B7000F101E856FD4F6F017101FDEFEF0EF11C21
:100B8000C8010E94470F91E0811101C090E0F60179
:100B900091936F010F5F1F4FE016F10689F7C501B2
:100BA000880F991F9C8B8B8BC980DA8000E010E046
:100BB000EB89FC89E00FF11FFA8BE98B4601E12CF0
:100BC000F12CC4010E94470FE989FA89EE0DFF1D3F
:100BD000E05CFE4F8083FFEF8F1A9F0A85E0E80EEE
:100BE000F11C98E2E916F10461F70F5F1F4FEAE08C
:100BF000CE0ED11C05301105D9F6FFEF6F1A7F0A12
:100C00008D899E8902969E8B8D8BE981FA81F29661
:100C1000FA83E983F3E02F0E311C84E1A80EB11CA6
:100C2000EB81FC813C96FC83EB83F5E14F0E511C7C
:100C30008D819E8106969E838D8393E06916710453
:100C400009F0E3CE66960FB6F894DEBF0FBECDBFB7
:100C5000DF91CF911F910F91FF90EF90DF90CF9098
:100C6000BF90AF909F908F907F906F905F904F90CC
:100C70003F902F900895CF92DF92EF92FF920F93C3
:100C80001F93CF93DF93C82FE82EF12CE091E6025B
:100C9000F0E0E552FE4F6081C70188960E94330F55
:100CA000E091E602F0E0E35DFE4F6081C701C5968A
:100CB0000E94330FE091E602F0E0EA5CFE4F6081B3
:100CC000C701C2960E94330FE091E602F0E0E35CB8
:100CD000FE4F6081C701875C9E4F0E94330FE091F9
:100CE000E602F0E0E65CFE4F6081C701845C9E4F47
:100CF0000E94330F8701000F111FE091E602F0E020
:100D0000EE0FFF1FEE5FFE4F6081C8018D5A9F4FAF
:100D10000E94330FE091E602F0E0EE0FFF1FEE5F5E
:100D2000FE4F6181C8018C5A9F4F0E94330FE091A2
:100D3000E602F0E0EE0FFF1FE05DFE4F6081C801AC
:100D4000875A9F4F0E94330FE091E602F0E0EE0FCA
:100D5000FF1FE05DFE4F6181C801865A9F4F0E94D0
:100D6000330FE091E602F0E0E457FD4F6081C701E8
:100D7000815A9F4F0E94330FE091E602F0E0EE0FA0
:100D8000FF1FE157FD4F6081C8018F5E9E4F0E949B
:100D9000330FE091E602F0E0EE0FFF1FE157FD4F49
:100DA0006181C8018E5E9E4F0E94330F84E1C89F0F
:100DB0007001112400E010E0DCE08CEFE81A8EEF07
:100DC000F80A8091E602F801D89FE00DF11D112488
:100DD000E85FFE4F6081C701800F911F0E94330FB3
:100DE0000F5F1F4F0C30110561F785E0C89F800130
:100DF0001124E12CF12CD6E0085C1F4F8091E60213
:100E0000F701D89FE00DF11D1124E25EFD4F6081D6
:100E1000C8018E0D9F1D0E94330F8FEFE81AF80A4C
:100E200086E0E816F10451F785E1C89F70011124AE
:100E300000E010E0D5E18BE1E81A8DEFF80A80912F
:100E4000E602F801D89FE00DF11D1124E252FE4F99
:100E50006081C701800F911F0E94330F0F5F1F4FEA
:100E60000531110561F783E0C89F80011124E12C51
:100E7000F12C06501F4F8091E60290E0FC01EE0F2E
:100E8000FF1FE80FF91FE856FD4FEE0DFF1D6081B3
:100E9000C8018E0D9F1D0E94330F8FEFE81AF80ACC
:100EA00083E0E816F10439F782E3C89FE0011124DA
:100EB000CC59DF4FE12CF12C85E0D82E98E2C92ED9
:100EC00000E010E08091E602D09EF001D19EF00D8E
:100ED0001124C89EE00DF11D1124E05CFE4FEE0DC3
:100EE000FF1D6081C8018C0F9D1F0E94330F0F5F93
:100EF0001F4F0830110531F78FEFE81AF80A2A96CC
:100F000085E0E816F104E1F6DF91CF911F910F9192
:100F1000FF90EF90DF90CF900895BF92CF92DF9235
:100F2000EF92FF920F931F93CF93DF932AEBE22E62
:100F300022E0F22E34EFC32E32E0D32E01ED12E088
:100F4000C2E1D0E0CE010E94470FB82ECE0101963B
:100F50000E94470F2B2D30E0322F2227282BF7013C
:100F6000219331937F01C8010E94470F90E0F60161
:100F7000819391936F0122960F5F1F4FC432D10569
:100F800009F780914602853131F48FE090E090932B
:100F9000B9018093B801DF91CF911F910F91FF901C
:100FA000EF90DF90CF90BF900895AF92BF92CF9215
:100FB000DF92EF92FF920F931F93CF93DF930AEB91
:100FC00012E084EFC82E82E0D82E91EDE92E92E057
:100FD000F92EC2E1D0E0F8016181CE010E94330F09
:100FE000F80160810E5F1F4FCE0101960E94330F02
:100FF000F6016081F2E0CF0ED11CC7010E94330FD1
:1010000022968FEFE81AF80AC432D10521F7109220
:101010002A0363E085E290E00E94330FE6E0F1E00E
:10102000859194912FB7F894FC01FF2780819095CA
:10103000892380832FBF1092B302DF91CF911F913C
:101040000F91FF90EF90DF90CF90BF90AF900895F9
:101050008F929F92AF92BF92CF92DF92EF92FF92C8
:101060000F931F93CF93DF934091CC0150E0B0904A
:10107000DE02A090BA018091F2029091F302C4E0E6
:10108000D0E04E018A18910826E0E22E23E0F22EED
:10109000A1EAB2E0E0E3F2E020E030E00B2C02C095
:1010A000969587950A94E2F781709927E7016991EF
:1010B00079917E0146175707E4F4B2121AC0AA20AC
:1010C000C1F00097C1F4641B750BCD90DC901197B3
:1010D0006C9D80016D9D100D7C9D100D1124B8013B
:1010E000082C02C0769567950A94E2F771836083B5
:1010F00002C0118210822F5F3F4F12963296293024
:101100003105A1F6DF91CF911F910F91FF90EF90E4
:10111000DF90CF90BF90AF909F908F9008950F93E6
:101120001F93AC01E091E602F0E0E552FE4FA08192
:101130000A2F10E00D30110508F00AC1F801EA5A33
:10114000FF4F0C94D1299C012C7F3327369527958E
:10115000F901E151FA4F849190E0A43011F441FD7E
:1011600001976091F2027091F3024617570709F058
:10117000F7C0F901E051FA4FE491E093DF02F0C0CB
:101180000091F2021091F30290FD08C080179107C0
:1011900009F0DBC082E08093DF02D7C09C012E7F84
:1011A000332736952795B901660F771FFB01E1516B
:1011B000FB4F849190E04017510731F4FB01E0515F
:1011C000FB4FE491E093DF02AA3009F0C9C02D7F04
:1011D000283419F487E490E0C3C0283609F4BEC06F
:1011E000BFC090FFB2C0FC01EE7FFF27F695E795E8
:1011F000E159FB4F78C08078992750FD06C0892BB4
:1012000009F0A0C08CE490E0ABC0892B09F49DC02C
:10121000FA01EE77FF27F695E795E15DFB4F63C096
:1012200090FF93C09695879599279C012F5F3F4F1C
:1012300028233923232B69F020E060E070E080FF51
:10124000262F959587956F5F7F4F0097C1F7822F67
:1012500001C08FE7EFE1F4E020E030E094919813D3
:1012600006C0F901EE0FFF1FE05EFB4F3CC02F5F91
:101270003F4F32962930310589F7FA01F695E79507
:10128000FF27E15EFC4F849190E0009709F068C071
:101290005FC0FC01EE7FFF27F695E795E156FD4F15
:1012A00022C090FF97CFFC01EE7FFF27F695E795D0
:1012B000E15EFD4F18C090FD0DC024E09695879526
:1012C0002A95E1F70E9709F446C047FF83CF88E4DB
:1012D00090E046C087FF42C0FC01EE77FF27F695FD
:1012E000E795E156FE4FE4918E2F90E039C0FC0166
:1012F000EC7FFF27F695E795F695E795E15AFE4FC7
:101300008491E82FF0E041FF16C0EF32F10599F02B
:10131000E433F10581F0E533F10569F0E633F105D9
:1013200051F0EB33F10539F0EC33F10521F0ED33F9
:10133000F10509F03196CF0150FF12C0F29784F009
:101340000C960EC08BE490E00BC08AE490E008C0DD
:101350008FEF9FEF05C086E490E002C085E490E047
:101360001F910F9108951F920F920FB60F921124A3
:101370002F933F934F935F936F937F938F939F939D
:10138000AF93BF93EF93FF9380919F04882321F045
:1013900020919F04215001C028E080919F049091EA
:1013A0009F04983011F08F5F01C080E090919F04FE
:1013B0009930A9F459988091780090917900209102
:1013C0009D0430919E04821B930B9093290380937C
:1013D00028038091880280618093810070C03091E1
:1013E000480290E0332309F44FC030919F0431113B
:1013F0000CC020917800309179003093B502209391
:10140000B40221E02093E70221C030E0220F331F15
:10141000F901ED5AFD4F408151816FB7F894FA01FF
:10142000FF2740815095452340836FBF409178004E
:1014300050917900F901E357FB4F60817181461BA0
:10144000570BF901E85EFC4F51834083FC01E559DD
:10145000FD4F80810E948C0F1092480280919F0462
:10146000882369F1E0919F04F0E0EE0FFF1FED5A31
:10147000FD4F808191812FB7F894FC01FF27808177
:10148000892B80832FBF1BC0209178003091790079
:10149000880F991FFC01E357FB4F31832083E091B4
:1014A0009F04F0E0E559FD4F80810E948C0F81E0A0
:1014B0008093480280919F048F5F80939F04FF91E7
:1014C000EF91BF91AF919F918F917F916F915F91BC
:1014D0004F913F912F910F900FBE0F901F90189535
:1014E0001F920F920FB60F9211248F939F938091AA
:1014F000E1009091E100937F9093E10083FF0FC0A2
:101500001092E90091E09093EB001092EC0092E3CE
:101510009093ED0010928B0298E09093F00082FF80
:101520000AC093E09093E9009091F200992319F09A
:101530009AE39093E80084FF10C08091E2008E7ED1
:1015400081608093E2008091E1008F7E8093E100D2
:10155000809186028E7E806111C080FF11C08091D3
:10156000E2008E7E80618093E2008091E1008E7EB9
:101570008093E100809186028E7E81608093860256
:101580009F918F910F900FBE0F901F901895DF9233
:10159000EF92FF920F931F93CF93DF93D82E8A0180
:1015A0007B01E40EF51EEB01CE15DF0571F0D7FED1
:1015B00003C0FE01849101C088810E9469032196C5
:1015C0008111F2CF8FEF9FEF01C0C801DF91CF9162
:1015D0001F910F91FF90EF90DF9008951F920F924F
:1015E0000FB60F921124CF92DF92EF92FF920F93DA
:1015F0001F932F933F934F935F936F937F938F939B
:101600009F93AF93BF93EF93FF93CF93DF93CDB7A8
:10161000DEB76C97DEBFCDBF1092E9008091E80085
:1016200083FF69C189E0FE017596EE2EDF2E8150A1
:1016300029F09091F10090833196F9CF82EF809359
:10164000E8008D8987FF05C09091E80090FFFCCFEE
:1016500003C09EEF9093E800982F907609F0C5C0E4
:101660009E894F89588D2F89F88C91110CC0803834
:1016700029F4809187028093F10002C01092F1005A
:101680001092F10031C1913051F481112DC14130DE
:10169000510509F029C1809187028D7F0BC09330DD
:1016A00061F4811121C14130510509F01DC18091C2
:1016B000870282608093870217C1953049F4809138
:1016C000E80080FFFCCF822F80688093E3000CC18C
:1016D000963009F05DC00B8D1C8D22E01092E90060
:1016E00010928B0410928A04F21232C01092890474
:1016F000109288040E94970499E0BE016F5F7F4FAB
:10170000DB01E92F1D92EA95E9F79983FA8291E0CE
:101710009E8390EA98879AE0998720918A04309175
:101720008B04275F3F4F3C832B838D831092E9000E
:1017300010928B0410928A041093890400938804F9
:1017400049E050E080E00E94C70A0E949704CCC0A4
:1017500010938904009388040E94F80EDC0112960D
:101760000D911C9113970115110509F468C0D8015A
:10177000ED91FC910480F581E02D6E2D7D2DC80149
:101780000995009709F056C0F80100851185EBCF47
:10179000973009F4ADC0983021F481E08093F100D6
:1017A000A3C0993009F0A0C0837009F0A1C0EDE496
:1017B000F2E081E031E096E32081211109C08EE75B
:1017C0008093EA001092EA008F8980938B028CC08C
:1017D0008093E9003093EB0021912093EC009093EB
:1017E000ED008F5F873041F7EACF8B8D9C8D109293
:1017F000E90010928B0410928A04909389048093DC
:1018000088040E94F80EFC01028113810115110564
:1018100009F46EC0D801ED91FC910190F081E02DAA
:101820006E2D7D2DC801099581115EC0F8010085DE
:101830001185ECCF181619060CF456C059C0F1E00A
:10184000FF1609F446C0F3E0FF1252C08F898823C7
:1018500009F442C0823029F440E865E089E591E06E
:1018600006C0813051F440E86AE18EE391E00E94C5
:101870009703882309F43CC037C08330C9F50E9420
:10188000F80EDC011296ED90FC9013978E010F5F1D
:101890001F4F6801E114F10479F0D701ED91FC913B
:1018A0000680F781E02DB801C7010995080F111DC9
:1018B000F701E084F184EECFD8011C92F60101908B
:1018C0000020E9F73197BF016C197D0940E0C6019E
:1018D000CECF6CE271E002C068E271E0FB0144919E
:1018E00050E080E80E94C70A8EEF8093E80003C0B2
:1018F00081E28093EB006C960FB6F894DEBF0FBECA
:10190000CDBFDF91CF91FF91EF91BF91AF919F91AB
:101910008F917F916F915F914F913F912F911F9187
:101920000F91FF90EF90DF90CF900F900FBE0F9030
:101930001F9018956F927F928F929F92AF92BF9255
:10194000CF92DF92EF92FF920F931F93CF93DF938B
:10195000C82E8B017A0180918B02882309F47EC006
:101960008091860280FF05C08091E00082608093B4
:10197000E000CE2DDF2DD12C8AEFB82E8C2D877074
:10198000982E90E4892E8C2D8072782E8C2D807468
:10199000682E2AE3A22E209719F4DD2009F461C0F5
:1019A0008FB7F8949092E9009091E80095FF05C0F8
:1019B0009091F200282D291B01C020E08FBF21113A
:1019C0000BC0BA94BB2009F449C061E070E080E02C
:1019D00090E00E94F714DFCF822F90E0C817D9075C
:1019E0000CF42C2F3FB7F8949092E9008091E80016
:1019F00085FF32C0822F90E0C81BD90B772029F0D9
:101A00002150A0F01092F100FBCFF801C7FE0AC0F0
:101A1000215050F044914093F1003196F9CF41911B
:101A20004093F1002150D8F7080F191FDD2019F05D
:101A3000A092E8000AC08091E80085FD08C0A0924D
:101A4000E800DD24D394209739F0D12C05C02097ED
:101A500019F46110A092E8003FBF9DCF8FEF9FEF78
:101A600001C0C701DF91CF911F910F91FF90EF90BF
:101A7000DF90CF90BF90AF909F908F907F906F90AE
:101A80000895CF93DF9300D000D0CDB7DEB761507B
:101A9000807FF894E82FF0E094E0F595E7959A952B
:101AA000E1F7E9836F70682B6A834F774B832F7759
:101AB0002C838091B60444E050E0BE016F5F7F4FFD
:101AC0008F5F0E949A0C8091B6048F5F8093E9002B
:101AD0008091F200882319F08AE38093E8007894DB
:101AE0000F900F900F900F90DF91CF910895CF92AC
:101AF000DF92EF92FF920F931F93CF938BEDC82E3F
:101B000081E0D82E0DE211E0CFE695E3E92EF12C2D
:101B1000C7010D970E94470FF6018083C7010E94FD
:101B2000470FF80180838091E3028823C1F02FEAF8
:101B30002C0F46E667E080EB0E94410DF601208104
:101B40002F5D46E667E080EB0E94410DF8012081A1
:101B500027FD21584C2F67E080EB0E94410DFFEFDD
:101B6000CF1ADF0A8FEFE81AF80A0F5F1F4FCF5F17
:101B7000C23771F6CF911F910F91FF90EF90DF90D8
:101B8000CF900895E0E3F2E020E030E08191919180
:101B9000280F391F82E0E234F807C1F78FEF9FE189
:101BA000821B930B2091B8023091B902820F931FD0
:101BB00097FD05C09093CB018093CA0104C0109299
:101BC000CB011092CA014091CA015091CB01809182
:101BD000490290914A0284179507B1F08091E20280
:101BE000882391F09A01220F232F221F330B4F7766
:101BF00061E080EE0E94410D8091CA019091CB017D
:101C000090934A0280934902089580E090E00895FD
:101C100080E00895FC0182818F5BFB01808381E07D
:101C2000089508950E94D72984E0E0E8F2E0DB01FE
:101C300001900D928A95E1F784E00895CF92DF92AA
:101C4000EF92FF920F931F93CF93DF93CDB7DEB741
:101C5000C456D1090FB6F894DEBF0FBECDBF6C01DC
:101C6000DB019C919E5F9C93FE01319684E6DF012F
:101C70001D928A95E9F788E089838BE08A8322E0C8
:101C80002C8391E09D839E8339E0398774E07A87C5
:101C90009E879F873A8B44E24B8B9C8B00E011E040
:101CA0001E8B0D8B89E0E82EF12CF88EEF8A998F30
:101CB0003B8F7C8F2F8F98A353E059A387E08CA391
:101CC0004DA39EA318A70FA301E410E01AA709A72C
:101CD00086E08BA74CA72DA79EA79FA789AB4AABF1
:101CE0002BAB2CAB2DAB3FAB48AF59AF9AAF5BAF33
:101CF0009CAF2DAF9EAF21963FAF219722964FAF5D
:101D0000229723965FAF239724962FAF249725968B
:101D10007FAF259726969FAF269727969FAF279749
:101D200028969FAF28972A963FAF2A9745E02B9693
:101D30004FAF2B972D962FAF2D9760E470E02F9625
:101D40007FAF6EAF2F9763964FAF639785E2649630
:101D50008FAF649765969FAF659766969FAF6697BE
:101D600067969FAF679768963FAF689769964FAF42
:101D700069976B962FAF6B976D967FAF6EAF6D9730
:101D8000A1964FAFA197A2968FAFA297A3969FAFB0
:101D9000A397A4969FAFA497A5965FAFA597D601EA
:101DA00012969C9112979B839B879F5F9A8F9D8F22
:101DB00013968C912C968FAF2C978F5F80686A96C4
:101DC0008FAF6A9744E650E0BF0180E00E94C70AE7
:101DD000CC59DF4F0FB6F894DEBF0FBECDBFDF91F9
:101DE000CF911F910F91FF90EF90DF90CF900895CA
:101DF0008091AB0481110DC082E08093A70484E040
:101E00008093A8041092AA041092A90481E0809300
:101E1000AB0487EA94E008951F920F920FB60F92D9
:101E200011242F933F934F935F936F937F938F93DF
:101E30009F93AF93BF93EF93FF93E0910001F091D5
:101E400001010995FF91EF91BF91AF919F918F9102
:101E50007F916F915F914F913F912F910F900FBEA6
:101E60000F901F9018951F93CF93DF93EC01162FBF
:101E70000E94D128181739F0612FCE01DF91CF9140
:101E80001F910C94D928DF91CF911F9108950C9444
:101E9000D1281092E002E091E60285E1E89FF0018E
:101EA0001124E252FE4F8685813049F018F08230CD
:101EB00059F0089521894089678580E909C0218901
:101EC0004089678580E804C021894089678580EB67
:101ED0000C94410D81E08093E002E091E60285E1FF
:101EE000E89FF0011124E252FE4F8285813049F0D3
:101EF00018F0823059F0089525854485638580E97E
:101F000009C025854485638580E804C0258544850E
:101F1000638580EB0C94410D823108F08251E82FEB
:101F2000F0E0E159F94FE49180917B00E3FB222737
:101F300020F930E095E0220F331F9A95E1F78F7D6D
:101F4000282B20937B00E770E064E0937C00809175
:101F50007A00886480937A0008958F929F92AF925E
:101F6000BF92CF92DF92EF92FF920F931F93CF9386
:101F7000DF938091E60290E09C01220F331FF9016C
:101F8000EE5FFE4F408151815093C9014093C801DB
:101F9000FC01EC55FB4F40814093B702FC01E35D2F
:101FA000FE4F40814093B602FC01E35CFE4F40814E
:101FB0004093F102FC01E457FD4F108141E0111103
:101FC00001C040E04093A304F901E157FD4FC081F7
:101FD000D181D093A204C093A104FC01EA5CFE4F1E
:101FE00040814093CC01F901E05DFE4F20813181B9
:101FF0003093CE012093CD01FC01E65CFE4F2081A1
:102000002093DA0126E0289FF001299FF00D11248A
:10201000E25EFD4F20813CE0389FF001399FF00DDA
:102020001124E85FFE4F86E0289FE00DF11D11248A
:10203000008100934B0281818093C1018281809352
:10204000BC0183818093BB01848190E09093C001A7
:102050008093BF01858190E09093BE018093BD0184
:102060008FEF9FE19093CB018093CA011092B90248
:102070001092B8022FE34FE761E080EE0E94410D1D
:10208000E0E3F2E0A8EEB2E0119211921D9222E09C
:10209000E234F207C9F7E091E602EE2EF12C86E079
:1020A000E89FF0011124E25EFD4F8481882341F016
:1020B0008091F102823021F081E08093E50202C03C
:1020C0001092E50280E48093D90111110AC0809139
:1020D000890290918A0203969093C5018093C4016E
:1020E00005C02396D093C501C093C4018091C4015B
:1020F0009091C501A4E00A9F800D911D1124909339
:10210000C7018093C6018091CC010EEC1FEF081B24
:102110001109C091CD01D091CE0123E0CC0FDD1F7C
:102120002A95E1F7EAEBF2E031EAA32E32E0B32E92
:102130004CECC42E42E0D42E58EF852E99249A946C
:1021400021913191200F311FC401B9010E94BD2995
:1021500076956795D5016D937D935D01CE01B901AB
:102160000E94BD2976956795D6016D937D936D018B
:10217000B2E0EC3CFB0721F785E18E9DF0018F9DDD
:10218000F00D1124E252FE4F868128E0829FC001AB
:1021900011248C599F4F9093D8018093D70180854B
:1021A000A1E88A9FC00111249093D0018093CF01B0
:1021B0008185B1E88B9FC00111249093D201809357
:1021C000D101DF91CF911F910F91FF90EF90DF90A0
:1021D000CF90BF90AF909F908F900895E091E602CE
:1021E000F0E0E35CFE4F80818F5F833011F08083ED
:1021F00001C010820E94AD0F2091F10281E0820F98
:10220000809347028091E302882331F02A5B46E6FF
:1022100067E080EB0C94410D08958091B7028D3FEB
:1022200054F0E091E602F0E0EC55FB4F80818150E4
:1022300080838093B70208958091B702833054F46D
:10224000E091E602F0E0EC55FB4F80818F5F8083E8
:102250008093B7020895EF92FF920F931F93CF934D
:10226000DF9320E14EE667E080EB0E94410D7BEDBD
:10227000E72E71E0F72E0DE211E0CFE62FEA2C0FEA
:1022800046E667E080EB0E94410DF70121917F0156
:102290002F5D46E667E080EB0E94410DF801219139
:1022A0008F0127FD21584C2F67E080EB0E94410DE4
:1022B000CF5FC23719F72091E602245C46E667E05B
:1022C00080EB0E94410D2091CC0147E667E080EB56
:1022D0000E94410D2091CD013091CE01A4E6B0E0E5
:1022E0000E9433292FEF3FE140E050E00E94112986
:1022F00045E767E080EB0E94410D2091F1022A5BE7
:1023000046E667E080EB0E94410D2091DA01205BF8
:1023100046E667E080EB0E94410D2091E4022858D8
:1023200046E667E080EB0E94410D2091A304295D01
:102330004AE667E080EB0E94410D22E248E667E052
:1023400080EB0E94410DC091A104D091A2042C2FDA
:102350002F7749E667E080EB0E94410D23E248E6D3
:1023600067E080EB0E94410D9E01220F232F221F68
:10237000330B49E667E080EB0E94410DC0E0D0E0FE
:10238000E091E602F0E0EE0FFF1FEE5FFE4F2081CE
:1023900031810C2E02C0369527950A94E2F7217000
:1023A000220F822F880F880F280F8C2F8C5E280F0A
:1023B0004AE667E080EB0E94410D2196C930D105C5
:1023C000F9F600E010E035E0E32E48E2F42E2AE5CD
:1023D000200F46E667E080EB0E94410D8091E60207
:1023E000E09EE001E19ED00D1124FE01F89EE00D7B
:1023F000F11D1124E05CFE4F20812C5946E667E078
:1024000080EB0E94410D8091E602FE01F89EE00DF6
:10241000F11D1124E05CFE4F8081813099F521810E
:10242000205946E667E080EB0E94410D8091E6026C
:10243000FE01F89EE00DF11D1124E05CFE4F2281AB
:102440004AE667E080EB0E94410D8091E602FE01C2
:10245000F89EE00DF11D1124E05CFE4F23814BE658
:1024600067E080EB0E94410D8091E602F89EC00D6E
:10247000D11D1124C05CDE4F2C814CE667E080EB5F
:102480000E94410D0F5F1F4F0830110509F09FCFCB
:10249000C0E0D0E016E02C2F285D48E667E080EB36
:1024A0000E94410D8091E602FE01189FE00DF11D92
:1024B0001124E25EFD4F208149E667E080EB0E9437
:1024C000410D2196C630D10531F7C0E0D0E015E1CD
:1024D0002C2F235F48E667E080EB0E94410D80913E
:1024E000E602FE01189FE00DF11D1124E252FE4F9D
:1024F000208149E667E080EB0E94410D2196C531BD
:10250000D10531F7C0E0D0E02C2F265A46E667E02F
:1025100080EB0E94410D8091E60290E0FC01EE0FFD
:10252000FF1FE80FF91FE856FD4FEC0FFD1F20813C
:102530002B5846E667E080EB0E94410D2196C330A0
:10254000D10511F7C0E0D0E01CE02C2F2F5F48E64A
:1025500067E080EB0E94410D8091E602FE01189F2A
:10256000E00DF11D1124E85FFE4F208149E667E090
:1025700080EB0E94410D2196CC30D10531F7DF91DF
:10258000CF911F910F91FF90EF9008958091E602F7
:102590008F5F833019F08093E60202C01092E6024A
:1025A0001092E1020E94AD0F8091E6028F5F80934E
:1025B00047028091E30281110C942B1108950F932F
:1025C0001F93CF93DF93E091E602C82FD0E02E2F28
:1025D00030E098E2E99FF0011124A5E08A9FE00D28
:1025E000F11D1124E05CFE4FE0818E2F90E0FC0194
:1025F0003197E331F10508F077C1ED59FF4F0C94A5
:10260000D12985E08C9FF0018D9FF00D112448E2C7
:10261000429FC001439F900D1124E80FF91FE05C19
:10262000FE4F8181811116C08E010B561D4FD801BE
:102630008C91248143816281811107C080E90E94CD
:10264000410D81E0F801808305C080E80E94410DC2
:10265000D8011C928091E60295E09C9FF0019D9F1D
:10266000F00D1124B8E28B9FE00DF11D1124E05C08
:10267000FE4F8181813031F424814381628180EB7E
:102680000E94410D8091E60295E09C9FF0019D9F84
:10269000F00D112498E2899FE00DF11D1124E05CFA
:1026A000FE4F8181823021F4638182810E949E14D9
:1026B0008091E60295E09C9FF0019D9FF00D112412
:1026C000282F30E0A8E28A9FE00DF11D1124E05C84
:1026D000FE4F8181833011F58091A0048F3720F463
:1026E0008F5F8093A00402C01092A00485E08C9FAD
:1026F000F0018D9FF00D112448E2429FC001439FDD
:10270000900D1124E80FF91FE05CFE4F6091A004CA
:1027100082810E949E1481E0809347028091E602AC
:1027200095E09C9FF0019D9FF00D1124282F30E033
:10273000B8E28B9FE00DF11D1124E05CFE4F81811A
:10274000843009F0D1C08091A004882311F0815019
:1027500001C08FE78093A00485E08C9FF0018D9FDE
:10276000F00D112448E2429FC001439F900D1124B7
:10277000E80FF91FE05CFE4F6091A00482810E9487
:102780009E1481E040C0DF91CF911F910F910C9476
:10279000EE10DF91CF911F910F910C94C612909182
:1027A000E10281E089278093E1029EC0F901EE0FEA
:1027B000FF1FE20FF31FE856FD4FEC0FFD1F808156
:1027C000811103C00E941C1114C0DF91CF911F9191
:1027D0000F910C940D11F901EE0FFF1FE20FF31F83
:1027E000E856FD4FEC0FFD1F808181110FC00E9444
:1027F0000D118091B702082E000C990B97FF03C0B2
:10280000919581959109809347026EC0DF91CF9198
:102810001F910F910C941C11C1E020E04BE76C2F2D
:1028200080EB0E94410D1092E002CF5FC131A9F709
:102830005BC0F901E65CFE4F80818F5F843011F050
:10284000808301C010820E94AD0F1092E10220919E
:10285000DA0181E0820F809347028091E3028823AE
:1028600009F442C0205B46E667E080EBDF91CF9140
:102870001F910F910C94410D81E08093470280914C
:10288000E002811106C0DF91CF911F910F910C944E
:102890006A0FDF91CF911F910F910C94490FF901AD
:1028A000EE0FFF1FE20FF31FE856FD4FEC0FFD1F69
:1028B0008081811110C08091B6028F5F0FC0F90135
:1028C000EE0FFF1FE20FF31FE856FD4FEC0FFD1F49
:1028D00080818111F0CF8091B60281508093B60241
:1028E00003C081E080932A03DF91CF911F910F9164
:1028F00008953FB7F8948091C4049091C504A091C5
:10290000C604B091C70426B5A89B05C02F3F19F097
:102910000196A11DB11D3FBFBA2FA92F982F88275F
:10292000820F911DA11DB11DBC01CD0143E0660FB9
:10293000771F881F991F4A95D1F70895CF93DF938A
:1029400000D000D0CDB7DEB78150F8949CE09983D9
:102950008F70806C8A836F776B831C828091B60442
:1029600044E050E0BE016F5F7F4F8F5F0E949A0C82
:102970008091B6048F5F8093E9008091F2008823F4
:1029800019F08AE38093E80078940F900F900F90ED
:102990000F90DF91CF910895823108F08251E82F96
:1029A000F0E0E159F94FE49180917B00E3FB2227AD
:1029B00020F930E095E0220F331F9A95E1F78F7DE3
:1029C000282B20937B00E770E064E0937C008091EB
:1029D0007A00806480937A0080917A0086FDFCCF33
:1029E000809178002091790090E0922B08958F9249
:1029F0009F92AF92BF92CF92DF92EF92FF926B01C4
:102A00007C010E9479144B015C01C114D104E104E2
:102A1000F104F1F00E947914DC01CB0188199909C5
:102A2000AA09BB09883E9340A105B10570F321E0D6
:102A3000C21AD108E108F10888EE880E83E0981EDA
:102A4000A11CB11CC114D104E104F10419F7DDCFBC
:102A5000FF90EF90DF90CF90BF90AF909F908F90BE
:102A600008952FB7F8946091C0047091C1048091CB
:102A7000C2049091C3042FBF08951F920F920FB606
:102A80000F9211242F933F938F939F93AF93BF93F4
:102A90008091C0049091C104A091C204B091C3047C
:102AA0003091BF0426E0230F2D3720F40296A11D9C
:102AB000B11D05C029E8230F0396A11DB11D209368
:102AC000BF048093C0049093C104A093C204B09348
:102AD000C3048091C4049091C504A091C604B09130
:102AE000C7040196A11DB11D8093C4049093C50431
:102AF000A093C604B093C704BF91AF919F918F91EB
:102B00003F912F910F900FBE0F901F901895CF936C
:102B1000DF93CDB7DEB765970FB6F894DEBF0FBE73
:102B2000CDBF789484B5826084BD84B5816084BD56
:102B300085B5826085BD85B5816085BD80916E005B
:102B4000816080936E00109281008091810082608C
:102B500080938100809181008160809381008091C9
:102B600080008160809380008091910082608093DA
:102B700091008091910081608093910080919000FC
:102B80008160809390008091C10084608093C10037
:102B90008091C10082608093C1008091C1008160FA
:102BA0008093C1008091C30081608093C3008091B5
:102BB000C00082608093C0008091C20081608093D9
:102BC000C20080917A00846080937A0080917A00BC
:102BD000826080937A0080917A008E7F80937A0061
:102BE00080917A00806880937A0010928B02109214
:102BF0008702109286028091D70081608093D7006F
:102C000080EA8093D80089B58F7E89BD89B58260BE
:102C100089BD09B400FEFDCF61E070E080E090E086
:102C20000E94F7148091D8008F7C80618093D80037
:102C30008091E000807F8093E0008091E1008E7EB3
:102C40008093E1008DE08093E2008FEF80937E001F
:102C500083EF80937D00E6E0F1E0859194912FB7BA
:102C6000F894FC01FF278291892B80832FBFEEE02F
:102C7000F1E0859194912FB7F894FC01FF27DF01D3
:102C80008E91392F309583238C938081892B80837B
:102C90002FBFE3E5F2E0819191912FB7F894DC0129
:102CA000BB278E91892B8C932FBF22E0E536F2074C
:102CB00091F72198299A22982A9A23982B9A85E8A5
:102CC00093E00E94470F803149F484E893E00E942A
:102CD000470F8531D1F48093460217C060E185E843
:102CE00093E00E94330F07E410E060E0C8010E9407
:102CF000330F60E0C80180579E4F0E94330F0F5F73
:102D00001F4F0A34110589F7E0CF8CE290E00E9452
:102D1000470F8330D1F11092E60280E00E943B061B
:102D200081E08093E6020E943B0682E08093E60207
:102D30000E943B061092E60283E08093470208E27D
:102D400010E0C8010E94470F682FC80180579E4FAE
:102D50000E94330F0F5F1F4F003431E0130789F7D4
:102D600005EE12E0C8010E94470F682FC801CF96F8
:102D70000E94330F0F5F1F4F043243E0140791F797
:102D800063E08CE290E00E94330F85E290E00E94C5
:102D9000470F833011F40E948D070E94770D0E9427
:102DA000C10486E10E94CC1486E10E94CC1486E125
:102DB0000E94CC1490938A028093890290937104AC
:102DC000809370040E94AD0F80914602853151F5C9
:102DD0008FE090E09093B9018093B80180917A00E0
:102DE000887F80937A0080917A00856080937A0052
:102DF00080E1809381001092800081E080938802BE
:102E000028EA32E0309387002093860091E1909386
:102E100081002CEC33E0309301012093000180937A
:102E20006F0029C080E1809381001092800091E0C2
:102E30009093880220E931E0309387002093860048
:102E400021E1209381002AE734E0309301012093AF
:102E5000000190936F008093810080917A00887FB9
:102E600080937A0084E880937A0080E480937C00E9
:102E700081E00E948C0FABE67A2EFF24F394B3E13D
:102E8000EB2EF89480912B0490912C04A0912D04AA
:102E9000B0912E0440912F04509130046091310480
:102EA00070913204841B950BA60BB70B8F73992777
:102EB000AA27BB27892B8A2B8B2BD1F58091B604AF
:102EC0009FB7F89487708093E9008091F2009FBFCC
:102ED000882309F441C040912B0450912C04609147
:102EE0002D0470912E044F5F5F4F6F4F7F4F4F73D4
:102EF00055276627772780912F0490913004A09161
:102F00003104B091320484179507A607B70781F002
:102F10008091B6049FB7F89487708093E900809100
:102F2000F2009FBF8091B60490918B029111E3C390
:102F300080912F0490913004A0913104B09132041B
:102F4000880F991F880F991FFC01E55DFC4F908148
:102F500081810281138104C010E000E080E090E0F4
:102F600080902B0490902C04A0902D04B0902E04FF
:102F700040912F04509130046091310470913204DB
:102F800084169506A606B706C1F040912F0450910D
:102F9000300460913104709132044F5F5F4F6F4F86
:102FA0007F4F4F7355276627772740932F04509301
:102FB000300460933104709332047894992309F4B7
:102FC000DDC3073708F05DCF8F70863009F059CF29
:102FD000F0924702063609F0E2C18FEF810F82318D
:102FE00070F5212F30E010FD1FC035952795F901B0
:102FF000EE0FFF1FE854FD4F80819181059791836B
:1030000080834091B8015091B9016EEC7FEF641B51
:10301000750B860F971F0597D0F42D5E46E667E087
:1030200080EB0E94410D13C0F9013196EE7FE85408
:10303000FD4F8081918105969183808308C0133173
:1030400079F40E94D50783E0809347020FC01E37B2
:10305000D9F4F092E302109247020E942B1106C0AD
:103060001F37A9F710924702F0922A038FED810FC4
:103070008B3108F04EC0E0913404F0E0E552FE4F91
:1030800080830E94AD0F45C01A3739F01E3111F010
:103090000C945C2810923404E9CFC12CD12C53E05D
:1030A000A52EC6010E94470FB82E20E34AE667E02E
:1030B00080EB0E94410D2B2D2F7747E767E080EBD7
:1030C0000E94410D21E34AE667E080EB0E94410D3A
:1030D0002B2D30E0220F232F221F330B47E767E011
:1030E00080EB0E94410D23E34AE667E080EB0E94FB
:1030F000410D63E070E080E090E00E94F714A09240
:1031000047027FEFC71AD70AC11484E0D80649F6F0
:10311000ADCF2CE3A22EB12C80E0C12ED12C99246E
:103120009394980ECA14DB0451F48093E602109233
:10313000E1020E94AD0F0E942B1190924702892D4F
:103140009FEFA91AB90A833051F796E4A92EB12C42
:103150008AEB8A0DCA14DB0469F4E091E602F0E020
:10316000E35CFE4F80830E94AD0F8091F1028F5F80
:1031700080934702AFEFAA1ABA0AB9E4AB16B104BA
:1031800039F780E5A82EB12C80EB8A0DCA14DB0438
:1031900069F4E091E602F0E0E65CFE4F80830E9475
:1031A000AD0F8091DA018F5F80934702EFEFAE1A87
:1031B000BE0AF5E5AF16B10439F7809139012AE569
:1031C00030E096EA920FC216D30609F0982F2F5FCF
:1031D0003F4F2236310511F0892FF3CF90933901FB
:1031E0008091E602B091470228E2829FB00111244B
:1031F000605C7E4F40E050E0A0E09A1791F0AF5F36
:103200004B5F5F4FA830C9F7B0934702E5E9F2E0A2
:1032100033E0839FA001112448565D4F20E030E049
:1032200034C0FB01E40FF51F173711F4E082B0E062
:1032300024E630E00F2EFCE9BF2EF02DB20EC216B0
:10324000D30611F4B082B0E02F5F3F4F2037310535
:1032500089F70F2EF0E9BF2EF02DB20EC216D3065D
:1032600009F4B1822F5F3F4F2537310591F7C7CF62
:10327000153771F4DA01A20FB31F1C9210822F5F71
:103280003F4F31962330310551F09213F8CFF0CFF4
:103290001637A9F7DA01A20FB31FFC92EFCF1B3745
:1032A00019F40E943B0651C01C3799F4D12C33E02D
:1032B000C32E8D2D0E943B060E94770D0E94C104F3
:1032C0000E94AD0FC0924702D39443E0D412F1CFD5
:1032D00070C01D3709F06DC028EBC22EDD24D394D9
:1032E000C6010E94470F682FC601805991400E9475
:1032F000330F5FEFC51AD50A60EDC61662E0D60639
:1033000079F794E2C92E93E0D92EC6010E94470FA7
:10331000682FC601CF970E94330F7FEFC71AD70AD5
:1033200083E6C81683E0D80681F78091460286318D
:1033300080F40E94770D0E948D070E94C104F092D4
:10334000E3020E94AD0F0E942B1183E0809347029D
:1033500030C0C12CD12CC6010E94470F682FC60176
:1033600042960E94330F9FEFC91AD90AA2E1CA16EA
:10337000D10489F78BEDC82E82E0D82EC6010E94B9
:10338000470F682FC6010A970E94330FBFEFCB1A71
:10339000DB0AE5EECE16E2E0DE0681F7CACF07369D
:1033A000A9F4E091E602F0E0EA5CFE4F10830E948F
:1033B000AD0FFDE2AF2EF1E0BF2EAFE6CA2ED12C4D
:1033C000802E912CB1E86B2E610E2CC0053789F749
:1033D000C090E602D12CC601880F991F9C01205D88
:1033E0003E4F6901212F30E0AFEFBFE10E9433294A
:1033F00024E630E040E050E00E941129D6012D93F0
:103400003C93D5CF123390F4F50110830E94AD0F99
:10341000BFEFCB1ADB0AEFEFAE1ABE0AF2E7CF1608
:10342000D10439F0C814D90499F7ECCFD5016C92C6
:10343000EDCF083629F48FEF810F80932C0163C004
:103440000936E1F580912C01E091E6028C3048F4D8
:103450002CE0E29FF0011124E85FFE4FE80FF11D20
:103460002BC0813250F435E1E39FF0011124E25288
:10347000FE4FE80FF11D3C971FC0813219F41093E5
:10348000330441C0823269F4F0E0EE0FFF1FE157D0
:10349000FD4F40E8149FC001112420913304822B7A
:1034A00061C08E3280F556E0E59FF0011124E25EA6
:1034B000FD4FE80FF11DB797108323C00A3619F5A9
:1034C000103108F18CEE810F893058F58091E602B9
:1034D00090E0880F991FFC01EE5FFE4F8CEE810F8C
:1034E00041E050E060E070E004C0440F551F661FEB
:1034F000771F8A95D2F780819181482B592B518370
:1035000040830E94AD0F309139018091E60268E25C
:10351000869FC0011124805C9E4F40E050E020E077
:10352000D9C082EE810F893000F58091E60290E0EB
:10353000880F991FFC01EE5FFE4F82EE810F21E0A4
:1035400030E040E050E004C0220F331F441F551FFD
:103550008A95D2F7DA01C901809590952081318151
:103560008223932391838083CCCF173239F4E09167
:10357000E602F0E0E457FD4F1082C3CF183239F471
:10358000E091E602F0E0E457FD4FF082BACF193245
:1035900059F5C0907004D0907104E091E602F0E01B
:1035A000EE0FFF1FE157FD4FD182C08222E248E6B5
:1035B00067E080EB0E94410D2C2D2F7749E667E0F4
:1035C00080EB0E94410D23E248E667E080EB0E9419
:1035D000410D9601220F232F221F330B49E667E08E
:1035E00080EB0E94410D8DCF1A3231F482E080933E
:1035F0002A031092470287CF1B32A9F5209170044D
:1036000030917104C090E60245E1C49EC0011124CE
:10361000BC0162527E4F6B01822F8F77DB01539684
:103620008C9353975901AA0CAB2CAA1CBB08549637
:10363000AC9220E248E667E080EB0E94410DF60183
:10364000238949E667E080EB0E94410D21E248E6CC
:1036500067E080EB0E94410D2A2D49E667E080EB90
:103660000E94410D50CF1D3209F04DCFC12CD12CFD
:10367000C60142960E94470F682FC6010E94330F71
:10368000FFEFCF1ADF0A22E1C216D10489F7BBEDA2
:10369000CB2EB2E0DB2EC6010A970E94470F682F9F
:1036A000C6010E94330F3FEFC31AD30A45EEC4167A
:1036B00042E0D40681F727CF0A3679F4103120F49E
:1036C000FC01E40FF51F12832F5F4B5F5F4F283023
:1036D00009F4D7CB3213F8CFEFCF0B3629F4FC0126
:1036E000E40FF51F1383F0CF0C3671F7FC01E40FE4
:1036F000F51F1483E9CF3FB7F89487708093E900F2
:103700008091F20090E08530910514F084E090E023
:10371000282FFE013196215020F0A091F100A193B5
:10372000FACF009721F02091F200222321F13FBF30
:10373000049709F0FDCB80912B0490912C04A0916B
:103740002D04B0912E04880F991F880F991FFC013A
:10375000E55DFC4F09811A812B813C810083118337
:103760002283338340932B0450932C0460932D04C5
:1037700070932E04B8CB7092E800D9CF0E94311517
:103780000091820410918304209184043091850477
:10379000DC01CB01801B910BA20BB30B0597A1059C
:1037A000B10508F48CC05090810465E672E07A8718
:1037B00069878AE494E09E838D83A5E3B4E0B887AB
:1037C000AF8351E4E52E54E0F52E64E4A62E64E0C8
:1037D000B62E7BE3672E74E0772EEDE4CE2EE4E088
:1037E000DE2EF0E58F2EF4E09F2E08E314E0A4E037
:1037F0002A2E44244394E985FA8581919191FA8790
:10380000E987FC01FF2732972081892F992730E033
:1038100082239323892B11F00C94F627D8018C91E5
:10382000882319F08150D8018C93D8016C916111D3
:103830000C94C427ED81FE814082AF81B8855C90F5
:1038400051100C94B527F701808181110C94B52794
:10385000D6014C9255245394F301819191913F01EB
:103860008D32914010F00C94ED27AD81BE818D9189
:10387000BE83AD83EF81F8858193F887EF83FFEFF7
:10388000EF1AFF0A2FEFA21AB20A3FEFC31AD30AA8
:103890004FEF841A940A0F5F1F4F69857A856B5624
:1038A000724009F0A8CF509281040E9431156093B4
:1038B00082047093830480938404909385048091A0
:1038C0008104882309F475C180915304882351F041
:1038D00080915104882331F0109251041092810498
:1038E0001092530480914D04882309F445C08091BF
:1038F0004C04811141C080914B0481113DC0E09185
:10390000E6020E2F10E095E1E99FF0011124E2524A
:10391000FE4F22892130A9F48091F2029091F302A6
:1039200096958795089769F410924D042093470463
:103930008091E002811103C00E946A0F02C00E94C0
:10394000490F86E0809FF001819FF00D1124E25E17
:10395000FD4F8281882381F08091F2029091F302E1
:10396000969587958031910531F510924D0481E04F
:10397000809347040E94EE1070E5E72E74E0F72E66
:10398000E5E94E2EE2E05E2EFDE4AF2EF4E0BF2E20
:10399000A1E42A2EA4E03A2EB4E4CB2EB4E0DB2E30
:1039A0001BE3612E14E0712E07E4802E04E0902EBC
:1039B00000E010E049C00297F9F610924D0481E052
:1039C000809347040E94C612D7CF8091E60290E010
:1039D000FC01EE0FFF1FE80FF91FE856FD4FE00F47
:1039E000F11F8081811136C020914A0480914B04DF
:1039F00090E0820F911D20914C04820F911D892B24
:103A000049F1D6018C91811131C0D5018C91811180
:103A100056C00F5F1F4F4FEFE41AF40A5FEF451ACD
:103A2000550A6FEFA61AB60A7FEF271A370A8FEFEB
:103A3000C81AD80A92E0690E711CAFEF8A1A9A0A66
:103A40000330110509F47BC00D83D7018C918823C5
:103A5000C1F2BBCFF4018081811103C08D810E942E
:103A6000DF12D7011C92F4011082CBCF20914A04BF
:103A700080914B0490E0820F911D20914C04820FA5
:103A8000911D019711F68091E60290E0FC01EE0F86
:103A9000FF1FE80FF91FE856FD4FE00FF11F80816F
:103AA0008111B3CF8D818B5F0E94DF1221E0F10184
:103AB0002083D6011C92F30111821082A6CF1C92A2
:103AC0002091E60230E0F901EE0FFF1FE20FF31F35
:103AD000E856FD4FE00FF11F8081882309F499CF4C
:103AE000B5E0B09FF001B19FF00D112448E2429F74
:103AF000C001439F900D1124E80FF91FE05CFE4FB9
:103B000050815D83513069F48181811182CF24819C
:103B10004381628180E90E94410DED81D201EC93E5
:103B200078CFFD81F53019F40E941C1172CF2D81E0
:103B3000263011F00C940D280E940D116ACF80914F
:103B40004B048823A1F1809150048823B1F0809127
:103B5000E60290E0FC01EE0FFF1F8E0F9F1FFC019D
:103B6000E856FD4F8081811108C01092500481E019
:103B70008093530483E00E94DF12809152048823D3
:103B8000B1F08091E60290E0FC01EE0FFF1F8E0F76
:103B90009F1FFC01E856FD4F8181811108C01092E2
:103BA000520481E08093530484E00E94DF1210925B
:103BB000810480914702882309F445C00E94311591
:103BC00000915404109155042091560430915704EB
:103BD000DC01CB01801B910BA20BB30B883C910540
:103BE000A105B10580F10E943115609354047093D2
:103BF000550480935604909357048091B302E6E0F5
:103C0000F1E0882399F0859194912FB7F894FC0105
:103C1000FF2780819095892380832FBF8091470261
:103C20008150809347021092B3020DC08591949108
:103C30002FB7F894FC01FF278081892B80832FBF49
:103C400081E08093B30210912A03112309F400C18B
:103C50008091B30281113CC0E6E0F1E0859194913E
:103C60002FB7F894FC01FF278081892B80832FBF19
:103C700081E08093B3020E943115609358047093E1
:103C8000590480935A0490935B0480912A038130F5
:103C900081F08091E402882309F4DAC01092BB021B
:103CA0001092BA028FEF90E09093F5028093F402A5
:103CB000CFC0ECEBF2E0A6EFB2E08FEF90E0119214
:103CC00011928D939D9322E0EC3CF207C1F7E1CF76
:103CD0001130B1F40E943115C0905804D0905904AD
:103CE000E0905A04F0905B04DC01CB018C199D0933
:103CF000AE09BF0981319742A105B105D0F05DC081
:103D0000123009F070C00E943115C0905804D09054
:103D10005904E0905A04F0905B04DC01CB018C194B
:103D20009D09AE09BF0989389341A105B10528F164
:103D30005CC0EAEBF2E028E033E064EF72E0D90126
:103D40008D919D919D01428153814817590710F42F
:103D500093838283DB0112964D915C9113978417B4
:103D6000950724F413969C938E93129732966E5F68
:103D70007F4FB2E0EA3CFB0711F78091E402882311
:103D8000D1F080910603909107032091BA023091FF
:103D9000BB022817390720F49093BB028093BA0224
:103DA0002091F4023091F5028217930724F4909346
:103DB000F5028093F4021130B1F40E9431150091A4
:103DC00058041091590420915A0430915B04DC018D
:103DD000CB01801B910BA20BB30B81319742A10544
:103DE000B105C0F435C0123099F50E94311500912B
:103DF00058041091590420915A0430915B04DC015D
:103E0000CB01801B910BA20BB30B89389341A10509
:103E1000B105F0F00E94D5078091CC010EEC1FEFA8
:103E2000081B1109EAEBF2E021EA32E0619171919D
:103E3000600F711F88EF9FEF0E94BD2976956795EF
:103E4000D9016D937D939D01B2E0EC3CFB0771F7C6
:103E5000F89406E0602E03E0702ED30180E090E03D
:103E6000FC01EE0FFF1FE85EFC4F208131812D9396
:103E70003D9301968930910599F7789460914602B7
:103E800070912A03A4EFB2E028E133E0E6E0F3E02A
:103E9000663158F0711109C0808191814D915C911A
:103EA0001197841B950B918380838081918197FF6B
:103EB00002C011821082329612962E173F0741F7E8
:103EC0008091B8019091B901EEECAE2EBB24BA946A
:103ED000A81AB90A0091F2021091F302FAEB8F2EA0
:103EE000F2E09F2ED401E6E0F3E080E090E0419123
:103EF00051912D913D91790162E3E61AF108E416A2
:103F0000F50678F421E030E040E050E0082E04C0EF
:103F1000220F331F441F551F0A94D2F7022B132B75
:103F200016C02A0D3B1D2417350788F041E050E0EC
:103F300060E070E0082E04C0440F551F661F771F15
:103F40000A94D2F79A012095309502231323019603
:103F50008930910561F61093F3020093F20280918B
:103F60004402909145028017910709F48EC081E0C8
:103F700080934302C8010E948F089093800480932D
:103F80007F048091E302882389F09801220F232F78
:103F9000221F330B319542E767E080EB0E94410D11
:103FA000202F43E767E080EB0E94410D109345020C
:103FB00000934402B090F102B1104EC0C8010196C6
:103FC00080239123892B71F0980140E050E080E03C
:103FD0001216130644F420FF842F359527954F5F62
:103FE0005F4FF6CF8FE78093DE028F37A9F1C12CA8
:103FF000D12C7601C39404C0CC0CDD1CEE1CFF1C3C
:104000008A95D2F7C02AD12AE0907F04F0908004EC
:10401000C6010E948F08E81AF90AF7FC18C0E09060
:104020007F04F0908004C6010E948F08E81AF90A04
:1040300053E0E516F1046CF4E0907F04F090800406
:10404000C6010E948F086E2D681B862F03C080E07A
:1040500001C082E08093BA0180917F049091800436
:10406000019639F480917F049091800480934202FC
:104070000CC020917F04309180048091420290E036
:104080008217930709F0DCC7EDCF8091E702882300
:1040900009F409C1F8948091B4029091B50290930B
:1040A0006804809367047894009167041091680411
:1040B00080917004909171048017910709F4F3C006
:1040C000E091E60295E1E99FF0011124E252FE4FF2
:1040D0008289833051F580916604811115C08489ED
:1040E000A0E88A9FC00111242389822B059680179E
:1040F0009107DCF481E0809366048091E0028111F5
:1041000014C00E946A0F11C08489B0E88B9FC0015F
:1041100011242389822B081719073CF41092660496
:104120008091E00281110E94490F8091420290E04B
:10413000CC974091C101489F9001499F300D1124B7
:104140008091C6019091C701820F931F9093C30184
:104150008093C20180916504882309F487C70E9477
:104160003115C0906104D0906204E0906304F09037
:104170006404AB01BC014C195D096E097F09809193
:10418000BF019091C001092E000CAA0BBB0B481770
:1041900059076A077B0708F469C7109265044091C4
:1041A0006504411152C08091600481114EC020917C
:1041B000DA01213021F58091700490917104B801E9
:1041C000681B790B8091BC0190E086179707BCF4BF
:1041D0008091C4019091C5018017910784F483E018
:1041E00080937C04209365040E94311560936104E0
:1041F00070936204809363049093640421C080915F
:104200007C04833011F5222301F120917004309158
:104210007104201B310B8091BB0190E08217930742
:10422000A4F481E080937C04809360040E943115A3
:1042300060935C0470935D0480935E0490935F04CC
:1042400010937104009370042EC08091C40190916A
:10425000C5018017910714F081E01DC08091DA013B
:10426000813069F48091600441110BC0811109C053
:104270008091C2019091C3018017910724F082E0E0
:104280000AC081110AC08091C2019091C3018017B8
:1042900091071CF483E080937C04109371040093D5
:1042A00070041092E702E0912302EF83EE23B1F055
:1042B00080911D02813071F480917C04813051F035
:1042C0000E943115609378047093790480937A0486
:1042D00090937B0480917C0480931D029091B7029F
:1042E0008091B602FCE09F9F800D112480936C04A6
:1042F00020917C0429874090E6022330C1F4E42D0C
:10430000F0E0E552FE4F9081209142029C3011F482
:104310002E3368F02E3321F4913049F09A3039F081
:10432000973011F0845F01C0895F80936C043091F5
:10433000DA013F87333051F5842D90E0FC01E552DE
:10434000FE4F4081413009F4C6C64A3009F4C3C665
:104350002091F2023091F3022170332756E0589FEA
:10436000F001599FF00D1124E25EFD4F838190E032
:104370002817390799F580916C049CE0980F473015
:1043800019F090936C042AC0895F26C04F85423093
:1043900029F5842D90E0FC01E552FE4F2081322F5B
:1043A0003B7F11F02630D1F45091F302588B198ADB
:1043B000288939892170332746E0489FF001499FB9
:1043C000F00D1124E25EFD4F838190E0281739073C
:1043D00029F480916C04845F80936C04512CF20169
:1043E000E552FE4F60816D83653021F480916C044D
:1043F000815006C07D817C3029F480916C048E5FF1
:1044000080936C040E94311500917404109175041E
:104410002091760430917704DC01CB01801B910B55
:10442000A20BB30B0F97A105B10508F491C40E942C
:10443000311560937404709375048093760490939F
:10444000770485E1849DF001859DF00D1124E252F1
:10445000FE4F8081882309F488C086E0849DF001A6
:10446000859DF00D1124E25EFD4F818181117DC09B
:104470002091C4013091C5018091C2019091C30186
:10448000BC01621B730B75956795620F731FA9853D
:10449000A33019F4680F791F9C01809170049091EA
:1044A00071048617970758F545E1449DF001459D35
:1044B000F00D1124E252FE4F4181B4E14B9FA00167
:1044C0001124FB01E81BF90B4E9FC0014F9F900D7B
:1044D0005E9F900D1124621B730B0E94BD29669F85
:1044E000B001112413E0759567951A95E1F7719560
:1044F000619571097093B9026093B80214C0861B6C
:10450000970B25E1249DF001259DF00D1124E25229
:10451000FE4F4181489F9001499F300D11243093F7
:10452000B9022093B80285E1849DF001859DF00DCC
:104530001124E252FE4F8181E8EC8E9FC0011124CC
:104540002091B8023091B9028217930724F4909316
:10455000B9028093B8028091F102823031F4109256
:10456000CB011092CA010E94C20D8091E502109108
:10457000F1028111B1C0123009F460C2111102C000
:104580000E9428088090CC01912C2091C801309184
:10459000C9013C872B8720917D0430917E040091D6
:1045A000DE024091F2025091F3025B8B4A8B209025
:1045B000CD013090CE0160E372E07D8B6C8BE8EE34
:1045C000F2E06CEC72E080E090E0582F7901082E68
:1045D00002C0F694E7940A94E2F7E0FE17C0D30114
:1045E000ED90FC90E814F9048CF4C12CD12C7601E8
:1045F000C394082E04C0CC0CDD1CEE1CFF1C0A94D6
:10460000D2F77601E094F0942E213F21EB84FC84D4
:10461000052E02C0F694E7940A94E2F7E0FE44C047
:104620007901052E02C0F694E7940A94E2F7E0FCC3
:104630003BC0113011F00817B9F1D301CD90DC90D7
:10464000EA88FB8802C0F694E7945A95E2F78C1446
:104650009D04D4F4E0FC1FC0A60148195909DB01F0
:10466000AD90BC904A9D60014B9DD00C5A9DD00CE2
:104670001124D694C794D694C794AC89BD89CD92A1
:10468000DC92B1E0B08307C01082E0FE0DC0AC89BF
:10469000BD891D921C924081413031F4E0FE04C07E
:1046A000AC89BD892D923C9201964C895D894E5F03
:1046B0005F4F5D8B4C8B31966E5F7F4F52E0650E86
:1046C000711C8930910509F080CF30937E042093CE
:1046D0007D040E94C20DB2C1111102C00E942808BF
:1046E0008D818250823008F4EEC08091DF028130EB
:1046F000B1F42091DE028091CD019091CE01223063
:1047000029F0909335028093340293C1909337023D
:10471000809336021092350210923402DACF823042
:10472000C1F68D818B7F09F059C02091CC0130E01A
:10473000E090F202F090F302B090DE020AE013E0A3
:104740005CEC852E52E0952EE0E3F2E082E090E012
:10475000D8014D915D918D012417350704F5B701FE
:10476000082E02C0769567950A94E2F760FD17C09F
:10477000B816A9F0421B530BD4011496CD90DC90CF
:1047800015974C9DB0014D9D700D5C9D700D1124D1
:1047900076956795769567957583648304C0B8169A
:1047A00011F015821482B2E08B0E911C32960196A4
:1047B0008430910569F62091CD013091CE01409170
:1047C0003402509135028091360290913702840F65
:1047D000951F2817390708F07CCF27C1ED81E130FC
:1047E00019F0EA3009F075CF4091F2025091F302CE
:1047F00050FD29C043FD1DC180910C0390910D0314
:104800002091CC0130E04091CD015091CE0128178C
:104810003907A4F4821B930B6091D2027091D302EA
:10482000869F9001879F300D969F300D1124C901FE
:104830009695879596958795481B590B5093370207
:104840004093360246CF20910C0330910D038091A6
:10485000CC0190E082179307F4F443FD21C011309E
:1048600021F04091DE024330F9F0281B390B4091D2
:10487000D2025091D302249FC001259F900D349FF6
:10488000900D11249695879596958795909337026C
:104890008093360209C02817390714F043FF04C07B
:1048A00010923702109236028091CA019091CB018A
:1048B000811590420CF40DCF8FEF9FE1909337025A
:1048C0008093360206CFB0E3EB2EB2E0FB2E1CEC59
:1048D000C12E12E0D12E02E010E0B090DE028091F5
:1048E000F2029091F302B01202C090FD6AC0AC01D6
:1048F000002E02C0569547950A94E2F740FD5EC02F
:10490000309143023323D1F041E050E060E070E0A9
:10491000002E04C0440F551F661F771F0A94D2F75C
:10492000842B952B9093F3028093F2020E948F08C0
:1049300090936A048093690410924302809142022A
:1049400090E02091690430916A0482179307C9F5B9
:10495000D30114964D915C9115978091CC0190E014
:1049600084179507F4F4F401248135812253310929
:10497000241B350BD60114964D915C911597249FFD
:10498000C001259F900D349F900D11249695879519
:1049900096958795919581959109F70195838483E3
:1049A00010C08091CD019091CE0191958195910992
:1049B000D70115969C938E93149703C0F701158227
:1049C0001482F2E0EF0EF11C22E0820E911C32E024
:1049D000C30ED11C42E0640E711C0F5F1F4F0430E8
:1049E000110509F07ACF2091CD013091CE0140918F
:1049F0003402509135028091360290913702840F33
:104A0000951F9195819591092817390708F061CE76
:104A10008EEF8B0D823030F48091F2029091F30290
:104A200090FD57CE31952195310930933502209371
:104A3000340210923702109236024BCE209070044E
:104A400030907104809172049091730482199309DB
:104A500097FF03C091958195910903970CF44BC181
:104A60008091E3028823D1F06101032C000CEE0851
:104A7000FF082C2D2F7744E767E080EB0E94410D63
:104A8000A7019601F7E05695479537952795FA9532
:104A9000D1F746E767E080EB0E94410D85E1849DF8
:104AA000F001859DF00D1124E252FE4F128111306C
:104AB00021F05F81513009F01AC185E1849DF00138
:104AC000859DF00D1124E252FE4FE781C090D70181
:104AD000D090D801E12CF12CC101032C000CAA0BC1
:104AE000BB0B9C01AD012C193D094E095F09A0E2E9
:104AF000B3E00E940629A8E0EA9F900111242C59F6
:104B00003F4F4901330FAA08BB08A50194012C1996
:104B10003D094E095F090E94E72857FD0EC021326A
:104B2000B3E03B074105510574F469017A01E4E6FD
:104B3000CE0ED11CE11CF11C0CC0E4E6CE2ED12C13
:104B4000E12CF12C06C074E8C72E73E0D72EE12CBF
:104B5000F12C85E1849DF001859DF00D1124E25238
:104B6000FE4F8381813009F584EC9CE1A1E0B0E047
:104B70008093D3019093D401A093D501B093D60133
:104B8000A7019601C701B6010E94AD299B01AC01A6
:104B9000C701B6010E94AD2920E137E240E050E0B4
:104BA0000E94112969017A012DC08230F9F484E84C
:104BB0009CE1A0E0B0E08093D3019093D401A09356
:104BC000D501B093D60160E17CE58CE090E0A701CF
:104BD00096010E94112968E0C62E60E2D62EE12CD3
:104BE000F12CC21AD30AE40AF50A0CC024E833E017
:104BF00040E050E02093D3013093D4014093D5019D
:104C00005093D6012091D1013091D201A90160E0E9
:104C100070E04B875C876D877E878090CF01909096
:104C2000D001A12CB12CA7019601245631094109CC
:104C300051096B857C858D859E85681979098A095E
:104C40009B090E94AD29C090D301D090D401E0907F
:104C5000D501F090D601A7019601245631094109EA
:104C600051090E94E728DA01C901880D991DAA1D82
:104C7000BB1D88159905AA05BB054CF457E0B594F2
:104C8000A794979487945A95D1F7282D13C02B8514
:104C90003C854D855E85281739074A075B0714F464
:104CA000DA01C90147E0B595A795979587954A958B
:104CB000D1F7282F3F81313059F48091E2028111E0
:104CC00005C0822F880F8093D90102C02093D9019B
:104CD000113069F485E1849DF001859DF00D11246A
:104CE000E252FE4F4581648180EB0E94410D30927B
:104CF00073042092720480916F048F5F8A3019F0E0
:104D000080936F0425C010926F04EEE0F1E085916E
:104D10009491FC01FF2732972081892F992730E059
:104D20008223932321E0892B09F420E02093E402DD
:104D300080916E04821761F020936E048091E302EB
:104D4000882331F0285846E667E080EB0E94410D49
:104D50000091E2020023A1F02091420230E0809114
:104D60006D0490E040916C04841B910947FD93957C
:104D70002817390729F44985413009F0AFC0A3C08D
:104D80005985523058F086E0849DF001859DF00DE4
:104D90001124E25EFD4F8181882389F086E0849DA5
:104DA000F001859DF00D1124E25EFD4F8181882385
:104DB00009F483C08091E102882309F47EC08091C8
:104DC0006B048E3389F42091420280916C04082E8A
:104DD000000C990B820F911D8635910529F4809165
:104DE000E702882309F469C06F81611104C07D81E5
:104DF0007330E9F417C00111FACF0E943115C09049
:104E00007804D0907904E0907A04F0907B04DC017F
:104E1000CB018C199D09AE09BF094497A105B105C5
:104E200030F799C0809142028C3309F446C08F85D7
:104E3000833059F08091E402882339F08091F202A6
:104E40009091F3028F3F9140C1F1F0904202109196
:104E50006C041F0D2091D901412F61E080E90E946F
:104E6000410D002339F020E440916D0461E080E8B9
:104E70000E94410D0E943115609374047093750473
:104E8000809376049093770410936D04F0926B04F2
:104E900081E08093E20285E1849DF001859DF00D23
:104EA0001124E252FE4F8289823009F064CF809152
:104EB000E002811160CF0E946A0F8091E202882394
:104EC00009F449C058CF86E0849DF001859DF00D1E
:104ED0001124E25EFD4F8181882321F186E0849DCB
:104EE000F001859DF00D1124E25EFD4F8181882344
:104EF00021F08091E1028823A9F0BD81B33021F433
:104F0000809142028C3371F0EF85E33021F1809182
:104F1000E402882301F18091F2029091F3028F3F25
:104F20009140C9F420E440916D0461E080E80E9462
:104F3000410D1092E20285E1849DF001859DF00D06
:104F40001124E252FE4F8289823029F48091E002DE
:104F500081110E94490F80E090E0892B11F40C949C
:104F60003B170E9400000C943B17F601108255205D
:104F700011F40C942A1CD3018D919C9111970196E8
:104F80008D939C930C942C1C70E080E090E00E9428
:104F9000492920E030E040E850E40E94A82987FF3A
:104FA00002C00C942C1CED81FE811082D8012C9241
:104FB000EF81F8858081882339F0D7019C91911188
:104FC00003C0F4014082582ED5011C92F7011082D3
:104FD000D3011D921C920C942C1CD7018C91811131
:104FE0000C94351CF50140820C94351CF80130807E
:104FF000632D70E080E090E00E94492920E030E0DD
:1050000040E850E40E94422987FD02C00C94151C20
:105010003394F80130820C94151CFD81FA3021F490
:105020008091B6028F5F08C03D813B3011F00C9437
:10503000091D8091B60281508093B6020C94091D1F
:1050400022E0B21611F40C94322010937E040093E7
:105050007D04E0E3F2E0A8EEB2E0119211921D921D
:1050600082E0E234F807C9F70C94322080916004A2
:10507000882309F494C80E943115C0905C04D09034
:105080005D04E0905E04F0905F04AB01BC014C193C
:105090005D096E097F098091BD019091BE01092EC5
:1050A000000CAA0BBB0B481759076A077B0708F4CB
:1050B00076C81092600473C81F3121F4F092340452
:1050C0000C943618103211F00C94361882E080934C
:1050D00034040C943618512CF201E552FE4F308105
:1050E0003D8390C982E08093B7048093B8048DEB30
:1050F00094E09093BA048093B9041092BC04109287
:10510000BB0488E792E09093B4048093B30480E8F2
:105110008093BD0481E88093BE040E94F80EFC01D8
:1051200021818091B70490E0820F911D0897C4F50A
:10513000A281B381109729F483EB94E09383828357
:105140000EC018968D919C911997009711F0DC0173
:10515000F8CF83EB94E019969C938E9318978081F7
:105160008093B50481818093B60490818091B804C6
:10517000890F808380E09091B704891788F4A0910B
:10518000B904B091BA04A80FB11D9C91A181B0E0FF
:10519000A45BBD4F9C9391819F5F91838F5FEBCF09
:1051A0000895F999FECF92BD81BDF89A992780B5EF
:1051B0000895262FF999FECF1FBA92BD81BD20BD5B
:1051C0000FB6F894FA9AF99A0FBE01960895052E33
:1051D00097FB1EF400940E94FE2857FD07D00E9402
:1051E000112907FC03D04EF40C94FE2850954095ED
:1051F000309521953F4F4F4F5F4F08959095809583
:10520000709561957F4F8F4F9F4F08950E9433296E
:10521000A59F900DB49F900DA49F800D911D11240A
:105220000895A1E21A2EAA1BBB1BFD010DC0AA1FE7
:10523000BB1FEE1FFF1FA217B307E407F50720F0FF
:10524000A21BB30BE40BF50B661F771F881F991F7A
:105250001A9469F760957095809590959B01AC01C3
:10526000BD01CF010895A29FB001B39FC001A39FCC
:10527000700D811D1124911DB29F700D811D11248F
:10528000911D08950E94842908F481E00895E8940E
:1052900009C097FB3EF490958095709561957F4F7E
:1052A0008F4F9F4F9923A9F0F92F96E9BB2793952C
:1052B000F695879577956795B795F111F8CFFAF43C
:1052C000BB0F11F460FF1BC06F5F7F4F8F4F9F4F6D
:1052D00016C0882311F096E911C0772321F09EE8CB
:1052E000872F762F05C0662371F096E8862F70E031
:1052F00060E02AF09A95660F771F881FDAF7880F0B
:105300009695879597F90895990F0008550FAA0B60
:10531000E0E8FEEF16161706E807F907C0F01216C8
:105320001306E407F50798F0621B730B840B950BCB
:1053300039F40A2661F0232B242B252B21F4089520
:105340000A2609F4A140A6958FEF811D811D0895BD
:105350000E94842908F48FEF0895DB018F939F93B7
:105360000E940629BF91AF91A29F800D911DA39F1E
:10537000900DB29F900D11240895AA1BBB1B51E103
:1053800007C0AA1FBB1FA617B70710F0A61BB70BB5
:10539000881F991F5A95A9F780959095BC01CD015A
:1053A0000895EE0FFF1F0590F491E02D099481E020
:0C53B00090E0F8940C94DC29F894FFCFF6
:1053BC00110EFF00FF00FF000F0F0F0F1E1E030743
:1053CC000A0709090F0F0F0F1E1E03070A07090909
:1053DC000F0F0F0F1E1E03070A07090964000008B0
:1053EC000004000400040A0A0A640101000101021D
:1053FC00020000000008000000000300000000058F
:10540C00000000000600000000000000000000008A
:10541C000000000000000000020000000008000076
:10542C000000030000000005000000000600000062
:10543C000000000000000000000000000000000060
:10544C00020000000008000000000300000000053E
:10545C00000000000600000000000000000000003A
:10546C0000000000000000000400010F0F0F000FEF
:10547C00000FFF0004010000FF01FF1F0A00047F62
:10548C0000FF3F2003000064004001000102000304
:10549C00000001070064007F000133240001332465
:1054AC000000000003000001070064007F000133CE
:1054BC0024000133240000000003000001070064F5
:1054CC00007F0001332400013324000000010000A0
:1054DC0000000000000000000000000000000100BF
:1054EC00FF1FFF1FFF1FFF1FFF1FFF1FFF1FFF1FC0
:1054FC00FF1FFF010100160101FF1F0F00C180817A
:10550C0000000025802B80251028402E402B082BD6
:10551C00042B012B0225022508250405090A00018C
:10552C0002030B0600000000080E1E0E050E140EE2
:06553C004D494449000046
:00000001FF
