:100000000C949A020C94C2020C94C2020C94C20288
:100010000C94C2020C94C2020C94C2020C94C20250
:100020000C94C2020C94C2020C94EE060C94BF070E
:100030000C94C2020C94C2020C94C2020C94C20230
:100040000C94C2020C94C2020C94C2020C94C20220
:100050000C94A61A0C94C2020C94C2020C945C1A62
:100060000C94C2020C94C2020C94C2020C94C20200
:100070000C94C2020C9409060C94C2020C94C202A5
:100080000C94C2020C94C2020C94C2020C94C202E0
:100090000C94C2020C94C2020C94C2020C94C202D0
:1000A0000C94C2020C94C2020C94C202AA25AD2583
:1000B0009C25A025A425CE25CE25CE25B125B52568
:1000C000B925BF25C325CE25C925E61458158015A9
:1000D000A715AE15B415D215DD154B4B4B4B4B4B3D
:1000E0004B4B4B4B4B4B4B4B4B4A4B4B4B4B4B4B61
:1000F0004B4B4B4B4B4B4B4B4B4B4B4B4B4B4B4B50
:100100004B4B4B4B4B4949494949504A4A4A4A4A49
:100110004A4A4F4A4E4A4D4A4B4A54545449494917
:1001200054545449494949494949535353535353E2
:10013000534B4B4B4B4B4B4B534B525252525252D5
:10014000525252525252515151525050505050509E
:1001500050504F4F4E4E4D4C4B4A4A4A4A4A4A4ADB
:100160004A4A4A4A4A4A4A4A4A4A4A4A4A4A4A4AEF
:100170004A4A4A4A4A4A4A4A4A4A494949494949E5
:10018000494949494949494949494B4B4B4B4B4BD3
:100190004B494B4B4B4B4B4B4B4B484848484848C3
:1001A00048484848484848484848474A47474747D2
:1001B00047474747474747474747464646464646D5
:1001C00046464546464645454646444444444444DE
:1001D00044444343424241403F3E7F3C003E014055
:1001E00002420343044505470649074A4848484830
:1001F000484848484848484848484848484848487F
:10020000484848484848484848484848484848486E
:10021000484848484848484848484848484848485E
:100220004848484848484848484848494747474751
:10023000474747474747474747474747474747474E
:100240004747474747474646474747474545454548
:100250004545454545454545454545454343434356
:100260004343434342424141403F3E3C49004902EF
:100270004900490049004901490049004900490035
:100280004900490049004900490049004900490026
:100290004900490049004900490049004900490016
:1002A0004900490049004900490049004900490006
:1002B00049004900490049004900490049004900F6
:1002C00049004900490049004900490048024802E4
:1002D00048004802480148014800480148004802D7
:1002E00048004800480048014800490047004702CC
:1002F00047004702470047014700470146004700C3
:1003000046004700470047004700470047004700B6
:1003100047004700470047004700470047004700A5
:100320004700470047004700470047004500450297
:100330004500450245004501450045014400450092
:100340004400450045004500450045004300430288
:100350004300430243004301430043014200420083
:1003600041004200400040003F003E00490049007B
:100370004900490049004900490049004900490035
:100380004900490049004900490049004900490025
:100390004900490049004900490049004802480114
:1003A000480148014800480048004A004702470108
:1003B0004701470147004700470047004700470003
:1003C00047004700470047004700470045024501F6
:1003D00045014501450045004500440043024301F5
:1003E000430143014200410040003E000000000084
:1003F000250028002B002E0031000404040404030F
:1004000004050202020204030202020206060606B4
:1004100006060404020202040404080201104080DB
:1004200040102040804080080204018040201002DB
:1004300001108010204040200000000200090F0041
:1004400000030401000C0000000000000000000098
:100450000000000000000001010201010201020190
:100460000102010201020102020102010102010274
:10047000012B042B082B022B012B1028402B802E44
:100480004025102520254025802B40288025082543
:1004900002250425013180314031203110310231F3
:1004A000012B102B802510252025402B40080B0008
:1004B00002020201000904000001020200000524FA
:1004C0000010010524010101042402060524060090
:1004D000010705810310004009040100020A000021
:1004E00000070502024000000705830240000004E7
:1004F00003090412010002EF020140D80487EE0054
:1005000001010203014D6F77727920537472696E95
:1005100067656420496E737472756D656E747300DF
:10052000574152424C00070605040100080A0B0C13
:100530000D09972D11241FBECFEFDAE0DEBFCDBF2E
:1005400025E0AAE8B2E001C01D92A832B207E1F7A7
:1005500012E0A0E0B1E0EEE3FEE502C005900D92EE
:10056000AA38B107D9F712E0CAE9D2E004C021974E
:10057000FE010E94362EC939D107C9F70E944E1DCF
:100580000C941D2F0C94000040918C0350918D030E
:1005900020918A0330918B0342175307B4F4909152
:1005A000E8009570E1F39091E80092FD19C0809306
:1005B000F10080918C0390918D0301968F739927A0
:1005C000892B19F48EEF8093E80080918C03909131
:1005D0008D03019690938D0380938C0381E00895A1
:1005E00080E00895CF92DF92EF92FF920F931F93D6
:1005F000CF93DF931F92CDB7DEB7182F062FE42ECF
:10060000862F880F8E5F99830E94C40283E00E9428
:10061000C402F12EC12E9981D92E8C2D8F198017ED
:1006200098F4F601E7FE02C0849101C080810E9427
:10063000C402182F80E00E94C4028123FFEFCF1A6A
:10064000DF0A8111EACF01C081E00F90DF91CF91E5
:100650001F910F91FF90EF90DF90CF900895CF936F
:10066000DF938091A303893069F486E10E94EB193E
:100670009093DB028093DA021092A30381E08093CF
:10068000FF0299C080913002882391F1E091A30389
:10069000F0E0EE0FFF1FE75BFD4F808191812FB7E8
:1006A000F894FC01FF278081892B80832FBF8091E4
:1006B000A303883041F485E00E94EB1990939203E4
:1006C0008093910312C0C091A303D0E02196E091E2
:1006D000A303F0E0EF59FD4F81810E94EB19CC0F8D
:1006E000DD1FCF56DC4F998388831092300263C0A0
:1006F0008091300281115FC0C091A303D0E0E091EE
:10070000A303F0E0EF59FD4F80810E94EB19CC0F5D
:10071000DD1FCC5CDC4F99838883E091A303F0E07C
:10072000EE0FFF1FE75BFD4F208131819FB7F894EB
:10073000F901FF272081832F8095822380839FBF2B
:10074000E091A3038E2F90E0E091A303F0E0EE0F81
:10075000FF1FEC5CFC4F20813181E091A303F0E0AE
:10076000EE0FFF1FEF56FC4F40815181241B350BCC
:10077000FC01EE0FFF1FEC5CFC4F31832083E09106
:10078000A303F0E0EE0FFF1FEC5CFC4F8081918132
:1007900097FF09C0E091A303F0E0EE0FFF1FEC5CB0
:1007A000FC4F118210828091A3038F5F8093A3037B
:1007B00081E080933002DF91CF9108958091900382
:1007C0008F5F8093900380919003823011F42F9A71
:1007D000089580919003833069F480E180938100D3
:1007E00084E00E94541B81E0809330021092A303A6
:1007F000109290030895AF92BF92CF92DF92EF9242
:10080000FF920F931F93CF93DF9307EC12E08FE0DB
:10081000C82E83E0D82E91EDE92E92E0F92EC2E1A8
:10082000D0E0F8016181CE010E94CD1AF80160810B
:100830000E5F1F4FCE0101960E94CD1AF601608116
:10084000F2E0CF0ED11CC7010E94CD1A22968FEF85
:10085000E81AF80AC432D10521F76091B60184E2A2
:1008600090E00E94CD1A1092210363E085E290E0AF
:100870000E94CD1AEBE8F4E0259134919FB7F894EB
:10088000F901FF272081832F8095822380839FBFDA
:100890001092D902DF91CF911F910F91FF90EF90AD
:1008A000DF90CF90BF90AF9008952F923F924F92DC
:1008B0005F926F927F928F929F92AF92BF92CF92F0
:1008C000DF92EF92FF920F931F93CF93DF93CDB7F9
:1008D000DEB72F970FB6F894DEBF0FBECDBF0091E5
:1008E0000D030C878091C60190E01091B4021F8720
:1008F00080900B0390900C032091B8012D836091A0
:10090000090370910A0340913402509135025F83CC
:100910004E83A091C401B091C501B987A887E8E1D1
:10092000F2E0FA83E98300E013E01E870D871EEDF5
:10093000A12E12E0B12E22E233E03C832B8305EBA3
:10094000602E02E0702E20E030E0A4010F8402C08F
:10095000569547950A94E2F7DA01A170BB27BB8749
:10096000AA87212C312C21012394BC85B11142C0CE
:10097000AB81BC814D915C91841795079CF5BF8537
:10098000B21330C00A851B85012B61F51D81113022
:1009900099F4D301CD90DC907A01E81AF90AEC9C25
:1009A0008001ED9C100DFC9C100D1124B3E01695F8
:1009B0000795BA95E1F714C0BD81B23099F4D3011F
:1009C000CD90DC907A01E81AF90AEC9C8001ED9C4C
:1009D000100DFC9C100D1124169507951695079582
:1009E00011830083481759072CF4AD85BE851C92EE
:1009F00011821082D22EAB81BC814D915D91BC835E
:100A0000AB8348175907C4F48B01022E02C0169518
:100A100007950A94E2F700FF0FC082017101022ED0
:100A200004C0EE0CFF1C001F111F0A94D2F78701AF
:100A300000951095602371230E811F810D2C02C03B
:100A4000169507950A94E2F700FF5BC08B010D2C09
:100A500002C0169507950A94E2F700FD52C0BC85C6
:100A6000B13031F0B1114DC00F85021709F449C002
:100A7000841795074CF584010D2C02C01695079537
:100A80000A94E2F700FF09C0118210824817590743
:100A90003CF5AD85BE851C9223C0481B590BD50182
:100AA000ED90FC904E9D80014F9D100D5E9D100DB0
:100AB000112416950795169507951183008301E07B
:100AC000AD85BE850C930CC048175907ECF2840124
:100AD0000D2C02C0169507950A94E2F700FDD4CFBD
:100AE000AD85BE854C91413061F4A40102C056959C
:100AF0004795DA94E2F740FF04C008851985118311
:100B000000832F5F3F4F32964D855E854F5F5F4F6D
:100B10005E874D8752E0A50EB11CA2E06A0E711CE3
:100B20002930310509F021CF70930A03609309033E
:100B300080E090E0E981FA8121913191FA83E983A3
:100B4000820F931FEA52F240A9F79093C801809355
:100B5000C7018115904234F08FEF9FE19093C80157
:100B60008093C7012091C7013091C8018FEF9FE1A9
:100B7000821B930B2091DC023091DD02820F931FC8
:100B800097FD05C09093C8018093C70104C01092DF
:100B9000C8011092C7014091C7015091C8018091CE
:100BA000D3019091D40184179507D1F080910D0362
:100BB0008230B0F48091F202882391F09A01220FE2
:100BC000232F221F330B4F7761E080EE0E94ED0A46
:100BD0008091C7019091C8019093D4018093D30173
:100BE0002F960FB6F894DEBF0FBECDBFDF91CF9129
:100BF0001F910F91FF90EF90DF90CF90BF90AF903B
:100C00009F908F907F906F905F904F903F902F902C
:100C100008951F920F920FB60F9211242F933F93B6
:100C20004F935F936F937F938F939F93AF93BF93F4
:100C3000EF93FF938091A303882321F02091A303D6
:100C4000215001C028E08091A3039091A303983024
:100C500011F08F5F01C080E09091A303993039F5C6
:100C600059988091780090917900909345038093F2
:100C7000440380914403909145032091A103309156
:100C8000A203821B930B90934503809344038091AE
:100C900044039091450397FF04C0109245031092BE
:100CA00044038091A3028061809381007CC03091D5
:100CB000300290E0332309F45BC03091A30331117B
:100CC0000CC020917800309179003093DB022093A2
:100CD000DA0221E02093FF022DC030E0220F331F03
:100CE000F901E75BFD4F608171815FB7F894FB010B
:100CF000FF276081472F4095462340835FBF409187
:100D0000780050917900F901EC5CFC4F51834083ED
:100D100040815181D901AF56BC4F2D913C91BA0110
:100D2000621B730B718360832081318137FF02C0A6
:100D300011821082FC01EF59FD4F80810E94541BEB
:100D4000109230028091A303882369F1E091A303FC
:100D5000F0E0EE0FFF1FE75BFD4F808191812FB721
:100D6000F894FC01FF278081892B80832FBF1BC053
:100D70002091780030917900880F991FFC01EF567F
:100D8000FC4F31832083E091A303F0E0EF59FD4F46
:100D900080810E94541B81E0809330028091A303E4
:100DA0008F5F8093A303FF91EF91BF91AF919F91CC
:100DB0008F917F916F915F914F913F912F910F9004
:100DC0000FBE0F901F9018958093E9008091F2005C
:100DD000882319F08AE38093E80008951F920F9208
:100DE0000FB60F9211242F933F934F935F936F93FE
:100DF0007F938F939F93AF93BF93CF93EF93FF9383
:100E0000C091E1008091E100837F8093E100C3FF06
:100E10000FC01092E90081E08093EB001092EC008B
:100E200082E38093ED0010928D0288E08093F000C1
:100E3000C2FF15C083E00E94E40680918F038823DF
:100E400029F080918F03815080938F0380918E03CE
:100E5000882329F080918E03815080938E03C4FFF4
:100E600010C08091E2008E7E81608093E2008091CC
:100E7000E1008F7E8093E10080918B028E7E806105
:100E800011C0C0FF11C08091E2008E7E806180930E
:100E9000E2008091E1008E7E8093E10080918B02E0
:100EA0008E7E816080938B02FF91EF91CF91BF91F5
:100EB000AF919F918F917F916F915F914F913F91F2
:100EC0002F910F900FBE0F901F901895DF92EF9209
:100ED000FF920F931F93CF93DF93D82E8A017B014C
:100EE000E40EF51EEB01CE15DF0571F0D7FE03C051
:100EF000FE01849101C088810E94C4022196811163
:100F0000F2CF8FEF9FEF01C0C801DF91CF911F910A
:100F10000F91FF90EF90DF9008950F931F93CF9361
:100F2000DF931F92CDB7DEB782E0898342E450E0C1
:100F30006DEA74E080E80E9466070E94D719DC0120
:100F400012960D911C9113970115110569F0D801A6
:100F5000ED91FC910280F381E02DBE016F5F7F4F28
:100F6000C801099597FF07C089810F90DF91CF9144
:100F70001F910F910895F80100851185E5CF1F920B
:100F80000F920FB60F921124CF92DF92EF92FF9241
:100F90000F931F932F933F934F935F936F937F9381
:100FA0008F939F93AF93BF93EF93FF93CF93DF9371
:100FB000CDB7DEB76C97DEBFCDBF1092E900809150
:100FC000E80083FFFFC1FE017596DE2ECF2E88E07C
:100FD0008E0F8E1729F09091F10090833196F9CF02
:100FE00084E680938E0382EF8093E8008D8987FFEB
:100FF00005C09091E80090FFFCCF03C09EEF909356
:10100000E800982F907609F0C5C09E892F89188D29
:1010100091110CC0803829F480918C028093F100EA
:1010200002C01092F1001092F1004FC1422F50E027
:10103000512B913051F4811148C14130510509F0D3
:1010400044C180918C028D7F0BC0933061F481117B
:101050003CC14130510509F038C180918C02826059
:1010600080938C0232C1953041F48091E80080FF7A
:10107000FCCF20682093E30028C1963009F05EC0C1
:10108000EB8CFC8C1092E90010928D0310928C0373
:10109000123091F510928B0310928A030E948D07F3
:1010A00099E0BE016F5F7F4FDB01E92F1D92EA954A
:1010B000E9F799831A8391E09E8390EA98879AE0F2
:1010C000998720918C0330918D03275F3F4F3C839C
:1010D0002B838D831092E90010928D0310928C0364
:1010E000F0928B03E0928A0349E050E080E00E9496
:1010F00066070E948D07E9C0F0928B03E0928A0395
:101100000E94D719DC011296ED90FC901397E11420
:10111000F10409F4C7C0D701ED91FC910480F58179
:10112000E02D6D2D7C2DC7010995009719F00CF06D
:10113000CCC0CFC0F701E084F184E9CF973009F447
:10114000C8C0983021F481E08093F100BEC099308E
:1011500009F0BBC0837009F0BCC0EFE3F2E081E0AE
:1011600021E036E39081992361F08093E900209398
:10117000EB0091919093EC003093ED008F5F8730FE
:1011800089F78EE78093EA001092EA008F898093B6
:101190008D029BC08B8D9C8D1092E90010928D0367
:1011A00010928C0390938B0380938A03898D811115
:1011B0005FC08E899D89913A59F4813209F089C0C6
:1011C00047E050E066E372E080E00E9466077DC081
:1011D000913209F07EC0833289F4888D90E0982F97
:1011E00088272F89822BA0E0B0E080932C02909377
:1011F0002D02A0932E02B0932F0267C08032B1F46B
:101200008091E80082FFFCCFE6E3F2E087E08E0FFA
:101210008E1729F09091F10090833196F9CF84E6F2
:1012200080938E038BEF8093E80006C0823209F032
:101230004CC08F8980933D0280918A02882319F0E7
:10124000EEEFFAE002C0E0E0F8E080913602909123
:101250003702A0913802B0913902803B9440A10539
:10126000B10509F07AC080913D0280FF92C075C03F
:101270000E94D719DC0112960D911C91139701154C
:10128000110539F1D801ED91FC910190F081E02D2B
:101290006D2D7C2DC8010995811117C0F8010085BD
:1012A0001185EDCF113009F44EC0133091F48F89C0
:1012B000882309F445C0823081F440E865E080E28B
:1012C00095E00E94F202882321F08EEF8093E800DF
:1012D00079C081E28093EB0075C0813029F440E849
:1012E0006AE185E095E0EDCF833099F70E94D71948
:1012F000DC011296ED90FC9013978E010F5F1F4F4B
:101300006801E114F10479F0D701ED91FC910680B8
:10131000F781E02DB801C7010995080F111DF701EC
:10132000E084F184EECFD8011C92F60101900020F8
:10133000E9F73197BF016C197D0940E0C601C1CFC3
:101340006FEE74E002C063EF74E06115710509F29D
:10135000FB01449150E080E838CF0FB6F894A8958F
:1013600080916000886180936000109260000FBEE1
:10137000A895EE3F2AE0F20739F08091FE0A90919D
:10138000FF0A91838083A1CF1092FF0A1092FE0A78
:101390009CCFEE3F8AE0F80731F0808191819093F5
:1013A000FF0A8093FE0A87E797E7918380839BE09B
:1013B00088E10FB6F894A895809360000FBE9093D3
:1013C000600083CF6C960FB6F894DEBF0FBECDBF22
:1013D000DF91CF91FF91EF91BF91AF919F918F914D
:1013E0007F916F915F914F913F912F911F910F913D
:1013F000FF90EF90DF90CF900F900FBE0F901F9057
:1014000018956F927F929F92AF92BF92CF92DF9288
:10141000EF92FF920F931F93CF93DF9300D01F9211
:10142000CDB7DEB7382F8B0180918D02811103C0BB
:101430008FEF9FEF8AC080918B0280FF05C0809163
:10144000E00082608093E0003A01F12C8AEFE82E00
:10145000832F8770C82E90E4B92E832F8072A82E18
:10146000832F8074982E2AE3D22E6114710409F41C
:1014700066C08FB7F894C092E9009091E80095FF9C
:1014800005C09091F2002B2D291B01C020E08FBFD9
:10149000211110C0EA94EE2059F261E070E080E082
:1014A00090E039834A835B830E94161A39814A810E
:1014B0005B81DBCF822F90E0681679060CF4262D35
:1014C0006FB7F894C092E9008091E80085FF35C0BD
:1014D000822F90E0681A790AAA2029F02150A8F0FA
:1014E0001092F100FBCFF80137FF07C0215058F0F0
:1014F00074917093F1003196F9CF215020F07191E1
:101500007093F100FACF080F191FFF2019F0D09245
:10151000E8000BC08091E80085FD09C0D092E8008A
:10152000FF24F3946114710441F0F12C06C061149E
:10153000710419F49110D092E8006FBF96CFF110AA
:1015400098CF84E680938F03CA010F900F900F907D
:10155000DF91CF911F910F91FF90EF90DF90CF908F
:10156000BF90AF909F907F906F90089590918D0263
:10157000992311F057FF03C08FEF9FEF08952FB706
:10158000F89487708093E9008091F20090E08417CE
:1015900095070CF4AC01842FFB0194E6815030F0E8
:1015A00090938E033091F1003193F8CF411551059E
:1015B00021F08091F200882319F02FBFCA0108950D
:1015C0008BE68093E800F9CF9FB7F89487708093FB
:1015D000E9008091F2009FBF08950F931F93CF936E
:1015E000DF9300D000D0CDB7DEB76150807FF89494
:1015F000E82FF0E094E0F595E7959A95E1F7E98317
:101600006F70682B6A834F774B832F772C830CEC9A
:1016100014E0F801838144E050E0BE016F5F7F4F2A
:101620008F5F0E94010AF80183818F5F0E94E406A8
:1016300078940F900F900F900F90DF91CF911F91A2
:101640000F910895BF92CF92DF92EF92FF920F9386
:101650001F93CF93DF9387ECE82E82E0F82E9FE074
:10166000C92E93E0D92E01ED12E0C2E1D0E0CE0107
:101670000E94E91AB82E8093A503CE0101960E941C
:10168000E91A8093A403282F30E03B29F701219326
:1016900031937F01C8010E94E91A90E0F60181931D
:1016A00091936F0122960F5F1F4FC432D105F9F657
:1016B00084E290E00E94E91A90E09093B701809351
:1016C000B60180912B02853131F48FE090E0909348
:1016D000B7018093B601DF91CF911F910F91FF90D9
:1016E000EF90DF90CF90BF9008952F923F924F924E
:1016F0005F926F927F928F929F92AF92BF92CF92A2
:10170000DF92EF92FF920F931F93CF93DF93CDB7AA
:10171000DEB728970FB6F894DEBF0FBECDBFF894A2
:101720008091A6049091A704A091A804B091A90467
:101730004091AA045091AB046091AC047091AD0447
:10174000841B950BA60BB70B8F739927AA27BB2772
:10175000892B8A2B8B2B09F05FC08091CF040E94CC
:10176000E40A882309F46CC0C090A604D090A704B2
:10177000E090A804F090A9042FEFC21AD20AE20A5E
:10178000F20A3FE3C322DD24EE24FF248091AA0461
:101790009091AB04A091AC04B091AD04C816D906E9
:1017A000EA06FB06C9F18091CF040E94E40A44E0F6
:1017B00050E0BE016F5F7F4F8091CF040E94B60A58
:1017C000049754F18091A6049091A704A091A804D5
:1017D000B091A904880F991F880F991FFC01EA5541
:1017E000FC4F49815A816B817C81408351836283A4
:1017F0007383C092A604D092A704E092A804F0924A
:10180000A9044FEFC41AD40AE40AF40A5FE3C5221C
:10181000DD24EE24FF24BACF8091AA049091AB047A
:10182000A091AC04B091AD04880F991F880F991F47
:10183000FC01EA55FC4F908181810281138104C033
:1018400010E000E080E090E0C090A604D090A704F3
:10185000E090A804F090A9044091AA045091AB0430
:101860006091AC047091AD04C416D506E606F70687
:10187000C1F04091AA045091AB046091AC04709106
:10188000AD044F5F5F4F6F4F7F4F4F7355276627F4
:1018900077274093AA045093AB046093AC047093F1
:1018A000AD047894992309F499C68F70863009F0B5
:1018B00036CFDD24D394D09246030E94501A609311
:1018C000B0027093B1028093B2029093B3020636D5
:1018D00009F0A3C4E12EF12C8FEF810F823150F576
:1018E00010FD1DC0970135952795F901EE0FFF1FDB
:1018F000EB53FD4F808191810597918380834091C7
:10190000B6015091B701841B950BC297059708F556
:101910002D5E46E667E080EB0E94ED0A1AC0F701F3
:101920003196EE7FEB53FD4F808191810596918337
:1019300080830FC0133131F40E94FB0383E0809356
:10194000460345C01F3729F410924603D092210365
:101950003EC01E3741F481E08093F30210924603AB
:101960000E94071334C01F3331F4E091FC02F0E011
:10197000E656FD4F1FC0103431F4E091FC02F0E058
:10198000E656FD4F20C0113431F4E091FC02F0E046
:10199000E056FD4F0FC0123431F4E091FC02F0E04C
:1019A000E056FD4F10C0133439F4E091FC02F0E032
:1019B000E356FD4F108209C0143449F4E091FC0253
:1019C000F0E0E356FD4F81E080830E948D1B82EEA4
:1019D000810F863020F4809314020E948D1B88EDC5
:1019E000810F863020F4809315020E948D1B8EECAF
:1019F000810F863020F4809316020E948D1B9CE399
:101A0000C92ED12C84EC8C0DEC14FD0489F4809348
:101A1000FC021092F1020E948D1B0E94071380911C
:101A2000FC02882311F08F5F01C081E080934603A0
:101A30007FEFC71AD70A8FE3C816D10419F786E4D7
:101A4000C82ED12C8AEB8C0DEC14FD0489F4E091A6
:101A5000FC02F0E0E255FE4F80830E948D1B8091D6
:101A60000D03882311F08F5F01C081E0809346034E
:101A70009FEFC91AD90AE9E4CE16D10419F7B0E5E7
:101A8000CB2ED12C80EB8C0DEC14FD0489F4E0916D
:101A9000FC02F0E0E555FE4F80830E948D1B809193
:101AA0001702882311F08F5F01C081E08093460305
:101AB000FFEFCF1ADF0A25E5C216D10419F790917E
:101AC0003202809146032AE530E046EA420FE216F0
:101AD000F30611F4942F80E02F5F3F4F223631053B
:101AE000A1F790933202809346038091FC0240E07C
:101AF00038E2389FF001112455E0959FE00DF11D6B
:101B00001124E050FF4FDF01119652E061E094177D
:101B1000B1F04F5F4830D9F7E82FF0E060E0292FAF
:101B200030E0AF01440F551FE40FF51FE20FF31F24
:101B3000EA55FD4F41E0D901A155BB4F26C024E62F
:101B400030E07CE9720FE216F30609F470832F5F30
:101B50003F4F2D363105A9F77EE6E716F10411F463
:101B60001C9206C02FE6E216F10411F46C93D1CF5B
:101B700030E7E316F10469F65C93CBCF113741F4FB
:101B800010821C926F5F633039F09613FBCFF6CF53
:101B90001237C1F74083F5CF1B3709F054C190E0ED
:101BA000FC01EC5EFD4F608188960E94CD1A809109
:101BB000FC0290E0FC01E855FE4F6081C5960E9452
:101BC000CD1A8091FC0290E0FC01E956FD4F608146
:101BD000805B9F4F0E94CD1A8091FC0290E0FC0137
:101BE000E056FD4F6081C8960E94CD1A8091FC029C
:101BF00090E0FC01E356FD4F6081875C9E4F0E94A0
:101C0000CD1A8091FC0290E0FC01E656FD4F608108
:101C10008D960E94CD1A8091FC0290E0FC01EF5459
:101C2000FE4F6081C2960E94CD1A8091FC0290E026
:101C3000FC01E255FE4F6081CC960E94CD1A809146
:101C4000FC0290E0FC01E555FE4F60818A5B9F4FEE
:101C50000E94CD1A8091FC0290E0880F991FFC0130
:101C6000EE55FE4F60818D5A9F4F0E94CD1A809194
:101C7000FC0290E0FC01EE0FFF1FEE55FE4F61816C
:101C80008A96880F991F0E94CD1A8091FC0290E0DD
:101C9000880F991FFC01E456FE4F6081875A9F4FC1
:101CA0000E94CD1A8091FC0290E0FC01EE0FFF1F14
:101CB000E456FE4F61818D96880F991F0E94CD1AC0
:101CC0008091FC0290E0FC01EC56FD4F6081815A4E
:101CD0009F4F0E94CD1A8091FC0290E0880F991FBF
:101CE000FC01E257FD4F60818F5E9E4F0E94CD1A2E
:101CF0008091FC0290E0FC01EE0FFF1FE257FD4FC8
:101D0000618187579F4F880F991F0E94CD1AE12C40
:101D1000F12CF5E1DF2E9091FC02F701D99EE00D48
:101D2000F11D1124EB52FE4F97012B513D4F608165
:101D3000A90175E1979F400D511D1124CA010E9410
:101D4000CD1A8FEFE81AF80A95E1E916F10419F7B0
:101D5000E12CF12CFCE0DF2E9091FC02F701D99EE2
:101D6000E00DF11D1124E858FE4F97012C5F3E4F06
:101D70006081F90144E1949FE00DF11D1124CF0130
:101D80000E94CD1A5FEFE51AF50A7CE0E716F10430
:101D900019F7E12CF12CE5E05E2E2091FC02822F58
:101DA00090E0FC01EE0FFF1FE80FF91FEE0DFF1D85
:101DB000EA55FD4FC70133E0239F800D911D11248B
:101DC000608186509F4F0E94CD1A612C712CA12CEE
:101DD000B12CC12CD12C8091FC025C9CF0015D9C4B
:101DE000F00D112448E2489FE00DF11D1124E05050
:101DF000FF4FEA0DFB1D930142E3849F200D311D2F
:101E00001124C9018C599F4F60818C0D9D1D0E942A
:101E1000CD1A5FEFC51AD50A78E0C716D104D9F6F6
:101E20008FEFA81AB80A9AE0690E711CE5E0AE16A9
:101E3000B10479F6FFEFEF1AFF0A23E0E216F1048E
:101E400009F0ABCFE6C11C3709F077C1812C912C8A
:101E5000212C312C18861F8244E650E05E834D838E
:101E600053E5C52ED12C6DE2E62EF12CE091FC025B
:101E7000F0E0E956FD4F6081C70183960E94CD1ABC
:101E8000E091FC02F0E0EC5EFD4F6081C701059738
:101E90000E94CD1AE091FC02F0E0E855FE4F60810F
:101EA000C70108960E94CD1AE091FC02F0E0E056CE
:101EB000FD4F6081C7010B960E94CD1AE091FC0294
:101EC000F0E0E356FD4F6081C701845F9E4F0E94A2
:101ED000CD1AE091FC02F0E0E656FD4F6081C701AB
:101EE0000E94CD1AE091FC02F0E0EF54FE4F6081B9
:101EF000C70105960E94CD1AE091FC02F0E0E25580
:101F0000FE4F6081C7010F960E94CD1AE091FC023E
:101F1000F0E0E555FE4F6081C70149960E94CD1A59
:101F2000E091FC02F0E0EE0FFF1FEE55FE4F6081E6
:101F3000C6010E94CD1AE091FC02F0E0EE0FFF1FF7
:101F4000EE55FE4F6181C60101960E94CD1AE091C7
:101F5000FC02F0E0EE0FFF1FE456FE4F6081C60169
:101F600006960E94CD1AE091FC02F0E0EE0FFF1FF2
:101F7000E456FE4F6181C701880F991F0E94CD1A58
:101F8000E091FC02F0E0EC56FD4F6081C701C29683
:101F90000E94CD1AE091FC02F0E0EE0FFF1FE25725
:101FA000FD4F6081C60182549F4F0E94CD1AE0917F
:101FB000FC02F0E0EE0FFF1FE257FD4F6181C6010A
:101FC00081549F4F0E94CD1AA12CB12C34015CEF9B
:101FD000651A5EEF750A8091FC02F5017CE0789F3E
:101FE000E00DF11D1124E858FE4F6081C3018A0DF8
:101FF0009B1D0E94CD1A8FEFA81AB80A9CE0A91663
:10200000B10449F7A12CB12C3101EBE16E1AEDEFCF
:102010007E0A8091FC02F50125E1289FE00DF11D6B
:102020001124EB52FE4F6081C3018A0D9B1D0E945B
:10203000CD1A3FEFA31AB30A45E1A416B10449F73C
:10204000A12CB12C6F8078845AEF650E711C8091A1
:10205000FC0290E0FC01EE0FFF1FE80FF91FEA0DF4
:10206000FB1DEA55FD4F6081C3018A0D9B1D0E9437
:10207000CD1A7FEFA71AB70A83E0A816B10439F783
:102080004D805E80612C712CA12CB12C8091FC02C2
:1020900095E09A9DF0019B9DF00D112428E2289F68
:1020A000E00DF11D1124E050FF4FE60DF71D60819A
:1020B000C501840D951D0E94CD1A3FEFA31AB30AE6
:1020C00048E0A416B10411F75FEF651A750A7AE0CB
:1020D000470E511C85E068167104B1F69FEFE91AAE
:1020E000F90AE2E0CE0ED11C2D813E812E5C3F4FDD
:1020F0003E832D834F8158854D5F5F4F58874F83B7
:1021000055E1250E311C74E1870E911C80E3E81621
:10211000F10409F0ABCE0E94B1170E94151683E0BE
:10212000809346030E94501A6093B0027093B102EC
:102130008093B2029093B30227C21D3709F024C2E4
:1021400058EBE52EFF24F394C7010E94E91A682F8B
:10215000C701805991400E94CD1A9FEFE91AF90AF0
:10216000E0EDEE16E2E0FE0679F744E2E42E43E00D
:10217000F42EC7010E94E91A682FC701CF970E9469
:10218000CD1AFFEFEF1AFF0A23E6E21623E0F2066C
:1021900081F7E12CF12CC7010E94E91A682FC701D1
:1021A00042960E94CD1A3FEFE31AF30A42E1E41689
:1021B000F10489F73BEDE32E32E0F32EC7010E94D4
:1021C000E91A682FC7010A970E94CD1A5FEFE51A36
:1021D000F50A75EEE71672E0F70681F786E290E001
:1021E0000E94E91A682F84E290E00E94CD1A63E011
:1021F0008CE290E00E94CD1A0E94B1170E94220B3F
:102200000E94151681E08093F3020E948D1B0E94AC
:10221000071383E080934603B7C1073631F4E0919A
:10222000FC02F0E0EF54FE4F57C00537D1F4E090C8
:10223000FC02F12CC701880F991FFC01E456FE4FE8
:102240007F01212F30E0AFEFBFE10E940E2F24E687
:1022500030E040E050E00E94EC2EF7013183208313
:102260003CC00F3651F4123318F41093A80135C056
:1022700081E8810F8093A80130C0003751F41233F8
:1022800018F41093A90129C081E8810F8093A90156
:1022900024C0013751F4123318F41093AA011DC061
:1022A00081E8810F8093AA0118C0083629F48FEFC6
:1022B000810F8093310268C10936A9F580913102FE
:1022C000E091FC028C3060F42CE0E29FF0011124DC
:1022D000E80FF11DE858FE4F10830E948D1B54C17A
:1022E000813250F435E1E39FF0011124EB52FE4FAF
:1022F000E80FF11D3C97F0CF813219F41093AE0432
:1023000043C1823209F040C1F0E0EE0FFF1FE257F7
:10231000FD4F40E8149FC00111242091AE04822B90
:1023200091838083DACF0D3639F4812F90E090933A
:10233000B7018093B60128C10A3609F025C11031D2
:1023400008F422C1103139F4E091FC02F0E0E956C2
:10235000FD4F108209C0113149F4E091FC02F0E018
:10236000E956FD4F81E080830E948D1B8CEE810F2A
:102370008930E0F4E091FC02F0E0EE0FFF1FEE5533
:10238000FE4F8CEE810F41E050E060E070E004C051
:10239000440F551F661F771F8A95D2F78081918160
:1023A000482B592B518340830E948D1B82EE810F55
:1023B000893008F5E091FC02F0E0EE0FFF1FEE55CA
:1023C000FE4F82EE810F21E030E040E050E004C09B
:1023D000220F331F441F551F8A95D2F7DA01C90116
:1023E00080959095208131818223932391838083EE
:1023F0000E948D1B13C0173239F4E091FC02F0E00B
:10240000EC56FD4F108269CF183241F4E091FC0286
:10241000F0E0EC56FD4F81E080835FCF1932D1F5BB
:10242000E091FC02F0E0EE0FFF1FE257FD4F8091BC
:10243000F5029091F6029183808322E248E667E0FC
:1024400080EB0E94ED0AE091FC02F0E0EE0FFF1F2E
:10245000E257FD4F20812F7749E667E080EB0E942D
:10246000ED0A23E248E667E080EB0E94ED0AE09186
:10247000FC02F0E0EE0FFF1FE257FD4F208131819B
:10248000220F232F221F330B49E667E080EB0E94C7
:10249000ED0A23CF1A3231F482E0809321031092A7
:1024A000460372C01B3209F03FC08091F502909143
:1024B000F602A091FC0225E1F22EFA9ED001112431
:1024C000AB52BE4F282F2F7753962C935397880FDC
:1024D000892F881F990B54968C9320E248E667E079
:1024E00080EB0E94ED0AE091FC02FE9EF0011124B7
:1024F000EB52FE4F238949E667E080EB0E94ED0A2C
:1025000021E248E667E080EB0E94ED0AE091FC02E0
:10251000FE9EF0011124EB52FE4F248949E667E04C
:1025200080EB0E94ED0A30C01D3271F5E12CF12CD8
:10253000C70142960E94E91A682FC7010E94CD1A6E
:102540003FEFE31AF30A42E1E416F10489F78BED59
:10255000E82E82E0F82EC7010A970E94E91A682F38
:10256000C7010E94CD1A5FEFE51AF50A75EEE7166E
:1025700072E0F70681F784E290E00E94E91A682F82
:1025800086E290E00E94CD1A309132028091FC02E6
:1025900020E0E8E2E89FC0011124F5E03F9F800DB4
:1025A000911D112480509F4FAC014C5F5F4FDC01A7
:1025B0001396029632130EC00A3621F4103150F4ED
:1025C000FC0107C00B3611F41C9304C00C3611F447
:1025D000FA0110832F5F283069F7A1C828960FB63B
:1025E000F894DEBF0FBECDBFDF91CF911F910F9149
:1025F000FF90EF90DF90CF90BF90AF909F908F9023
:102600007F906F905F904F903F902F900895EF9242
:10261000FF920F931F93CF93DF932CE54EE667E075
:1026200080EB0E94ED0A20911402225E46E667E0EC
:1026300080EB0E94ED0A20911502285D46E667E0D6
:1026400080EB0E94ED0A209116022E5C46E667E0C0
:1026500080EB0E94ED0A2091FC02245C46E667E0D4
:1026600080EB0E94ED0A2091C60147E667E080EB0F
:102670000E94ED0A2091C4013091C501A4E6B0E0AA
:102680000E940E2F2FEF3FE140E050E00E94EC2E21
:1026900045E767E080EB0E94ED0A20910D032A5B7D
:1026A00046E667E080EB0E94ED0A20911702205B6E
:1026B00046E667E080EB0E94ED0A2091F40228587C
:1026C00046E667E080EB0E94ED0A2091AF02215CB4
:1026D00046E667E080EB0E94ED0A2091B6042F5B8E
:1026E00046E667E080EB0E94ED0A2091F7022D5B41
:1026F00046E667E080EB0E94ED0A2091B504205F7A
:102700004AE667E080EB0E94ED0A2091B404295D5F
:102710004AE667E080EB0E94ED0A2091B6014DE6A3
:1027200067E080EB0E94ED0A22E248E667E080EB7A
:102730000E94ED0A2091B2042F7749E667E080EB12
:102740000E94ED0A23E248E667E080EB0E94ED0A72
:102750002091B2043091B304220F232F221F330B98
:1027600049E667E080EB0E94ED0A2091A80127FD71
:1027700021584FE667E080EB0E94ED0A2091A90105
:1027800027FD215840E767E080EB0E94ED0A209189
:10279000AA0127FD08C041E767E080EB0E94ED0A2F
:1027A000C0E0D0E002C02158F6CFE091FC02F0E09A
:1027B000EE0FFF1FEE55FE4F208131810C2E02C01F
:1027C000369527950A94E2F72170220F822F880F01
:1027D000880F280F8C2F8C5E280F4AE667E080EB6D
:1027E0000E94ED0A2196C930D105F9F600E010E00B
:1027F00035E0E32E48E2F42E2AE5200F46E667E0B6
:1028000080EB0E94ED0A8091FC02E09EE001E19ED7
:10281000D00D1124FE01F89EE00DF11D1124E050B1
:10282000FF4F20812C5946E667E080EB0E94ED0ABD
:102830008091FC02FE01F89EE00DF11D1124E05094
:10284000FF4F8081813099F52181225946E667E06A
:1028500080EB0E94ED0A8091FC02FE01F89EE00DE3
:10286000F11D1124E050FF4F22814AE667E080EB22
:102870000E94ED0A8091FC02FE01F89EE00DF11D20
:102880001124E050FF4F23814BE667E080EB0E946C
:10289000ED0A8091FC02F89EC00DD11D1124C0509C
:1028A000DF4F2C814CE667E080EB0E94ED0A0F5F62
:1028B0001F4F0830110509F09FCFC0E0D0E015E1AF
:1028C0002C2F235F48E667E080EB0E94ED0A8091A1
:1028D000FC02FE01189FE00DF11D1124EB52FE4F8A
:1028E000208149E667E080EB0E94ED0A2196C53120
:1028F000D10531F7C0E0D0E02C2F265A46E667E03C
:1029000080EB0E94ED0A8091FC0290E0FC01EE0F4A
:10291000FF1FE80FF91FEC0FFD1FEA55FD4F208147
:102920002F5846E667E080EB0E94ED0A2196C330FF
:10293000D10511F7C0E0D0E01CE02C2F2F5F48E656
:1029400067E080EB0E94ED0A8091FC02FE01189F77
:10295000E00DF11D1124E858FE4F208149E667E0A3
:1029600080EB0E94ED0A2196CC30D10531F7DF9142
:10297000CF911F910F91FF90EF900895EF92FF92EA
:102980000F931F93CF93DF9300D000D0CDB7DEB766
:102990004091FC02082F10E0242F30E098E2499F7C
:1029A000F0011124A5E08A9FE00DF11D1124E050F3
:1029B000FF4FE0818E2F90E0FC013197E830F10568
:1029C00008F028C1EB59FF4F0C94362E85E0809F0C
:1029D000F001819FF00D112448E2429FC001439F06
:1029E000900D1124E80FF91FE050FF4F81818111F4
:1029F00017C0C80181559B4F7C01DC018C9124815B
:102A000043816281811107C080E90E94ED0A81E063
:102A1000F701808305C080E80E94ED0AD7011C926F
:102A20008091FC0295E0909FF001919FF00D1124A0
:102A3000B8E28B9FE00DF11D1124E050FF4F818122
:102A4000813031F424814381628180EB0E94ED0A60
:102A50008091FC0295E0909FF001919FF00D112470
:102A600098E2899FE00DF11D1124E050FF4F818114
:102A7000823009F0CFC08281815093819F77F89492
:102A80002CE029838F70806C8A839B831C828091C9
:102A9000CF0444E050E0BE016F5F7F4F8F5F0E9424
:102AA000010A8091CF048F5F0E94E4067894B2C03F
:102AB000F901E255FE4F80818F5F833011F08083F2
:102AC00001C010820E948D1B80910D03882311F09C
:102AD0008F5F01C081E0809346030E94501A60938B
:102AE000B0027093B1028093B2029093B3028091CE
:102AF000F302882309F48EC020910D032A5B85C060
:102B00004F5F433019F04093FC0202C01092FC0268
:102B10001092F1020E948D1B8091FC02882311F01B
:102B20008F5F01C081E0809346030E94501A60933A
:102B3000B0027093B1028093B2029093B30280917D
:102B4000F302882309F466C00E94071363C09091C2
:102B5000F10281E089278093F1025CC08091FE023E
:102B600083304CF48F5F05C08091FE028D3F1CF0D6
:102B700081508093FE028091FE02082E000C990B7A
:102B800097FF03C0919581959109809346030E9418
:102B9000501A6093B0027093B1028093B202909386
:102BA000B30238C011E020E04BE7612F80EB0E94B8
:102BB000ED0A1F5F1131B9F72DC0F901E555FE4F40
:102BC00080818F5F843011F0808301C010820E9469
:102BD0008D1B1092F10280911702882311F08F5FF4
:102BE00001C081E0809346030E94501A6093B002B6
:102BF0007093B1028093B2029093B3028091F3027A
:102C0000882341F020911702205B46E667E080EBC5
:102C10000E94ED0A0F900F900F900F90DF91CF91CF
:102C20001F910F91FF90EF9008952F923F924F9236
:102C30005F926F927F928F929F92AF92BF92CF924C
:102C4000DF92EF92FF920F931F93CF93DF93CDB755
:102C5000DEB766970FB6F894DEBF0FBECDBF2091EA
:102C600033028091C0019091C101AC01E4E02E9F3C
:102C7000400D511D1124588B4F8747E952E058876A
:102C80004F8340EA52E05E834D834DE952E05A871C
:102C900049874AE952E05C874B874EEA51E05E87FC
:102CA0004D8748E751E05C834B83612C712C212CCC
:102CB000312CE12CF12C44E650E05A83498300E0AA
:102CC00010E01E8A1D8A8D899E89805B9F4F0E941D
:102CD000E91AEF81F8858193F887EF838D899E89C2
:102CE000C8960E94E91AED81FE818193FE83ED83EF
:102CF0008D899E89875C9E4F0E94E91AE985FA8535
:102D00008193FA87E9878D899E898D960E94E91AB9
:102D1000EB85FC858193FC87EB878D899E89CC961A
:102D20000E94E91AED85FE858193FE87ED878D89E6
:102D30009E898A5B9F4F0E94E91AED89FE89E555BD
:102D4000FE4F80838D899E89C2960E94E91AED8983
:102D5000FE89EF54FE4F8083C8018D5A9F4F0E9419
:102D6000E91AD82EC8018C5A9F4F0E94E91AF8011F
:102D7000EE55FE4F2D2D30E0382B31832083C801D6
:102D8000875A9F4F0E94E91AD82EC801865A9F4F32
:102D90000E94E91AF801E456FE4F2D2D30E0382B41
:102DA000318320838D899E89815A9F4F0E94E91A21
:102DB000ED89FE89EC56FD4F8083C8018F5E9E4FE2
:102DC0000E94E91AD82EC8018E5E9E4F0E94E91A11
:102DD000F801E257FD4F2D2D30E0382B3183208351
:102DE000A12CB12C6301FBE1CF1AFDEFDF0AC60174
:102DF0008A0D9B1D0E94E91AF501E60DF71DEB52A5
:102E0000FE4F80833FEFA31AB30A45E1A416B10435
:102E100071F7A12CB12C61015CEFC51A5EEFD50AE8
:102E2000C6018A0D9B1D0E94E91AEB81FC81EA0D07
:102E3000FB1D80838FEFA81AB80A9CE0A916B10485
:102E400079F74F8558895093C3014093C201A12C53
:102E5000B12C67015AEFC50ED11CC6018A0D9B1D0E
:102E60000E94E91AF501EE0DFF1DEA55FD4F91E0B4
:102E7000811101C090E090838FEFA81AB80A93E007
:102E8000A916B10451F79101220F331F49805A80CE
:102E9000A12CB12CA501420F531F4201C12CD12CF2
:102EA000C4012B8B3C8B498B5A8B0E94E91A4989B0
:102EB0005A89F601E40FF51FE050FF4F8083EFEFD2
:102EC0008E1A9E0AF5E0CF0ED11C2B893C8988E230
:102ED000C816D10429F79FEFA91AB90AEAE04E0EE5
:102EE000511CF5E0AF16B104A9F64D895E894F5F1C
:102EF0005F4F5E8B4D8B0E5F1F4F49815A814E5C39
:102F00005F4F5A83498353E0E50EF11C84E1280E9C
:102F1000311C4B815C81445F5F4F5C834B8355E187
:102F2000650E711C4D895E894330510509F0CBCE89
:102F300066960FB6F894DEBF0FBECDBFDF91CF917E
:102F40001F910F91FF90EF90DF90CF90BF90AF90C7
:102F50009F908F907F906F905F904F903F902F90B9
:102F60000895CF9388E290E00E94E91AC82F8093D9
:102F7000140289E290E00E94E91A809315028AE225
:102F800090E00E94E91A8093160285E390E00E9487
:102F9000E91A8093A80186E390E00E94E91A8093E1
:102FA000A90187E390E00E94E91A8093AA01809129
:102FB000F302882369F12EE12C0F46E667E080EBEF
:102FC0000E94ED0A20911502285D46E667E080EB3D
:102FD0000E94ED0A209116022E5C46E667E080EB27
:102FE0000E94ED0A2091A8014FE667E080EB0E9465
:102FF000ED0A2091A90140E767E080EB0E94ED0A0D
:103000002091AA0141E767E080EBCF910C94ED0A93
:10301000CF910895CF92DF92EF92FF920F931F937B
:10302000CF93DF936C017A018B01C0E0D0E0CE1525
:10303000DF0589F0D8016D918D01D601ED91FC91EC
:103040000190F081E02DC6010995892B11F47E01D4
:1030500002C02196ECCFC701DF91CF911F910F9154
:10306000FF90EF90DF90CF900895CF93DF931F9262
:10307000CDB7DEB76983DC01ED91FC910280F3816D
:10308000E02D41E050E0BE016F5F7F4F09950F904A
:10309000DF91CF9108953FB7F8948091BC0490914F
:1030A000BD04A091BE04B091BF0426B5A89B05C085
:1030B0002F3F19F00196A11DB11D3FBFBA2FA92FB7
:1030C000982F8827820F911DA11DB11DBC01CD0134
:1030D00043E0660F771F881F991F4A95D1F708951F
:1030E00080E090E0089580E00895FC0182818F5B8C
:1030F000FB01808381E0089508950E94A72ECF935D
:10310000DF93EC0180913D02882331F083E00E943F
:10311000010A1816190634F081E090E09B838A8337
:1031200080E090E0DF91CF91089583E00C94E40675
:10313000CF93DF931F92CDB7DEB7FC0184859585D1
:1031400097FD05C02FEF3FEF358724870FC041E083
:1031500050E0BE016F5F7F4F82E00E94B60A019788
:1031600019F4898190E002C08FEF9FEF0F90DF91FB
:10317000CF9108950F931F93CF93DF931F92CDB7F5
:10318000DEB78C01FC018485958597FF12C041E074
:1031900050E0BE016F5F7F4F82E00E94B60A019748
:1031A00019F4298130E002C02FEF3FEFF801358795
:1031B0002487F801848595850F90DF91CF911F9129
:1031C0000F910895FC018485958597FD06C082E0E6
:1031D0000E94E40A90E00196089582E00E94E40AC9
:1031E00090E008958DE499E4A4E4B9E4FB018083C0
:1031F0009183A283B38384E00895CF92DF92EF920C
:10320000FF920F931F93CF93DF93CDB7DEB7C456D2
:10321000D1090FB6F894DEBF0FBECDBF6C01DB0144
:103220009C919E5F9C93FE01319684E6DF011D9286
:103230008A95E9F788E089838BE08A8322E02C83F2
:1032400091E09D839E8339E0398774E07A879E8779
:103250009F873A8B44E24B8B9C8B00E011E01E8BE6
:103260000D8B89E0E82EF12CF88EEF8A998F3B8F39
:103270007C8F2F8F98A353E059A387E08CA34DA395
:103280009EA318A70FA301E410E01AA709A786E0E0
:103290008BA74CA72DA79EA79FA789AB4AAB2BABAB
:1032A0002CAB2DAB3FAB48AF59AF9AAF5BAF9CAFE8
:1032B0002DAF9EAF21963FAF219722964FAF229719
:1032C00023965FAF239724962FAF249725967FAF41
:1032D000259726969FAF269727969FAF27972896E4
:1032E0009FAF28972A963FAF2A9745E02B964FAF7E
:1032F0002B972D962FAF2D9760E470E02F967FAF20
:103300006EAF2F9763964FAF639785E264968FAF4A
:10331000649765969FAF659766969FAF6697679629
:103320009FAF679768963FAF689769964FAF699769
:103330006B962FAF6B976D967FAF6EAF6D97A19623
:103340004FAFA197A2968FAFA297A3969FAFA397D7
:10335000A4969FAFA497A5965FAFA597D6011296A6
:103360009C9112979B839B879F5F9A8F9D8F13964B
:103370008C912C968FAF2C978F5F80686A968FAF59
:103380006A9744E650E0BF0180E00E946607CC598E
:10339000DF4F0FB6F894DEBF0FBECDBFDF91CF91E8
:1033A0001F910F91FF90EF90DF90CF900895809143
:1033B000C40481110DC082E08093C00484E0809336
:1033C000C1041092C3041092C20481E08093C4042B
:1033D00080EC94E00895823108F08251E82FF0E00B
:1033E000EA5DFA4FE49180917B00E3FB222720F90C
:1033F00030E095E0220F331F9A95E1F78F7D282B5F
:1034000020937B00E770E064E0937C0080917A0079
:10341000806480937A0080917A0086FDFCCF809151
:1034200078002091790090E0922B08958F929F92DE
:10343000AF92BF92CF92DF92EF92FF926B017C012D
:103440000E944B184B015C01C114D104E104F1044A
:10345000F1F00E944B18DC01CB0188199909AA09E7
:10346000BB09883E9340A105B10570F321E0C21A63
:10347000D108E108F10888EE880E83E0981EA11CAF
:10348000B11CC114D104E104F10419F7DDCFFF90A0
:10349000EF90DF90CF90BF90AF909F908F90089566
:1034A0002FB7F8946091B8047091B9048091BA0470
:1034B0009091BB042FBF08951F920F920FB60F92E9
:1034C00011242F933F938F939F93AF93BF9380913A
:1034D000B8049091B904A091BA04B091BB043091A2
:1034E000B70426E0230F2D3720F40296A11DB11D4D
:1034F00005C029E8230F0396A11DB11D2093B70431
:103500008093B8049093B904A093BA04B093BB0419
:103510008091BC049091BD04A091BE04B091BF0401
:103520000196A11DB11D8093BC049093BD04A0938E
:10353000BE04B093BF04BF91AF919F918F913F9113
:103540002F910F900FBE0F901F9018951F920F9202
:103550000FB60F9211242F933F934F935F936F9366
:103560007F938F939F93AF93BF93EF93FF93E091DC
:10357000B401F091B5010995FF91EF91BF91AF9121
:103580009F918F917F916F915F914F913F912F917B
:103590000F900FBE0F901F9018950F931F93CF930E
:1035A000DF931F92CDB7DEB78C0169830E94AC2EEA
:1035B0006981681741F0C8010F90DF91CF911F9189
:1035C0000F910C94B42E0F90DF91CF911F910F911A
:1035D00008950C94AC2EE091FC0285E1E89FF00187
:1035E0001124EB52FE4F8685813051F018F0823065
:1035F000A9F022C025854485638580E90E94ED0AF3
:10360000E091FC0285E1E89FF0011124EB52FE4FAE
:1036100025854485638580E80E94ED0AE091FC02DF
:1036200085E1E89FF0011124EB52FE4F258544858A
:10363000638580EB0E94ED0A1092F0020895E091FC
:10364000FC0285E1E89FF0011124EB52FE4F8285D8
:10365000813051F018F08230A9F022C025854485D0
:10366000638580E90E94ED0AE091FC0285E1E89F14
:10367000F0011124EB52FE4F25854485638580E8D7
:103680000E94ED0AE091FC0285E1E89FF00111241F
:10369000EB52FE4F25854485638580EB0E94ED0A41
:1036A00081E08093F0020895823108F08251E82F82
:1036B000F0E0EA5DFA4FE49180917B00E3FB222782
:1036C00020F930E095E0220F331F9A95E1F78F7DC6
:1036D000282B20937B00E770E064E0937C008091CE
:1036E0007A00886480937A0008959C012F5F3F4F91
:1036F00028233923232B79F09C0140E050E080E01F
:10370000121613063CF420FF842F359527954F5F42
:103710005F4FF6CF08958FE708959F92AF92BF92C3
:10372000CF92DF92EF92FF920F931F93CF93DF938D
:1037300010E0EE24EA947FE1F72E0CE08091FC0289
:1037400081130DC1C12FD0E0FE01E056FD4FAA2428
:10375000A3948081811101C0A12CA092B60481E0C4
:10376000FE01E356FD4F9081911101C080E08093EE
:10377000F70299249394FE01E956FD4F808181114F
:1037800001C0912C9092B504CE01880F991FFC01C5
:10379000EE55FE4F20813181309335022093340263
:1037A00021E0FE01E656FD4F3081311101C020E0DD
:1037B0002093AF02FE01E659FD4F20812093FE02C7
:1037C000FE01E855FE4F20812093FD02FE01E255E7
:1037D000FE4F208120930D03BB24B394FE01EC56D1
:1037E000FD4F2081211101C0B12CB092B404FC0125
:1037F000E257FD4FC080D180D092B304C092B20492
:10380000FE01EF54FE4F20812093C601FC01E456D7
:10381000FE4F808191819093C5018093C401FE0188
:10382000E555FE4F808180931702F092C801E09227
:10383000C7011092DD021092DC020E94501A6093C0
:10384000F8027093F9028093FA029093FB02409180
:10385000C7015091C8019A01220F232F221F330B59
:103860004F7761E080EE0E94ED0AE8E1F2E0A0E02F
:10387000B3E0119211921D9222E0EA32F207C9F7E9
:10388000992089F0E091FC02F0E0EC5EFD4F808130
:10389000823010F0843039F480910D03813019F4B6
:1038A00080930E0302C010920E030C9FF0010D9F37
:1038B000F00D1124E858FE4FAA20C9F086818093AC
:1038C000330287818093BF0180858093BA0181850F
:1038D0008093B901828590E09093BE018093BD01F1
:1038E000838590E09093BC018093BB0138C0208118
:1038F0002093330281818093BF0182818093BA013A
:1039000083818093B901848190E09093BE0180937C
:10391000BD01858190E09093BC018093BB01B11003
:103920000AC08091A4029091A50203969093C101D0
:103930008093C00107C033E0C30ED11CD092C101F7
:10394000C092C0018091C0019091C101A4E02A9F62
:10395000800D911D11249093C3018093C2011F5FBC
:10396000133009F0EBCE8091C6010EEC1FEF081B5F
:103970001109C091C401D091C50193E0CC0FDD1FA6
:103980009A95E1F7E7ECF2E025EBC22E22E0D22E89
:103990003EEDE32E32E0F32E4CEFA42E4FE7B42E93
:1039A00021913191200F311FC501B9010E94222EB2
:1039B000D6016D937D936D01CE01B9010E94222E37
:1039C00076956795D7016D937D937D01B2E0E93DD2
:1039D000FB0731F7E091FC0225E1E29FF0011124A1
:1039E000EB52FE4F868138E0839FC00111248C5931
:1039F0009F4F9093D2018093D1018085A1E88A9F47
:103A0000C00111249093CA018093C9018185B1E856
:103A10008B9FC00111249093CC018093CB01DF9147
:103A2000CF911F910F91FF90EF90DF90CF90BF90BB
:103A3000AF909F900895CF93DF934091FC0250E0A8
:103A4000C82FD0E0FA01EE0FFF1FE40FF51FEC0FB7
:103A5000FD1FEA55FD4F80818823E9F085E08C9FAA
:103A6000F0018D9FF00D112488E2849F9001859FC5
:103A7000300D1124E20FF31FE050FF4F81818111BF
:103A80000AC024814381628180E90E94ED0AC15508
:103A9000DB4F81E08883DF91CF910895CF93DF934F
:103AA000CDB7DEB766970FB6F894DEBF0FBECDBFB9
:103AB000789484B5826084BD84B5816084BD85B509
:103AC000826085BD85B5816085BD80916E00816015
:103AD00080936E00109281008091810082608093BB
:103AE00081008091810081608093810080918000BD
:103AF000816080938000809191008260809391002A
:103B0000809191008160809391008091900081600C
:103B1000809390008091C10084608093C100809167
:103B2000C10082608093C1008091C1008160809358
:103B3000C1008091C30081608093C3008091C00068
:103B400082608093C0008091C20081608093C20037
:103B500080917A00846080937A0080917A008260FC
:103B600080937A0080917A008E7F80937A00809192
:103B70007A00806880937A0010928D0210928C02F5
:103B800010928B028091D70081608093D70080EAE9
:103B90008093D80089B58F7E89BD89B5826089BD43
:103BA00009B400FEFDCF61E070E080E090E00E948B
:103BB000161A8091D8008F7C80618093D800809104
:103BC000E000807F8093E0008091E1008E7E809312
:103BD000E1008DE08093E200EEEFFFE785919491A4
:103BE0008B3F9C4D19F481E080938A028FEF809384
:103BF0007E0083EF80937D00EBE8F4E08591949163
:103C00002FB7F894FC01FF278291892B80832FBF67
:103C1000E3E9F4E0859194912FB7F894FC01FF2734
:103C2000DF013E91892F809583238C938081892B9E
:103C300080832FBFE9E4F2E0819191912FB7F8944E
:103C4000DC01BB278E91892B8C932FBF32E0EB35A3
:103C5000F30791F72198299A22982A9A23982B9A68
:103C600084E893E00E94E91A853111F480932B02D5
:103C70008CE290E00E94E91A833009F4C1C140EA65
:103C800052E05E874D872DE932E0388B2F874EEA70
:103C900051E05E834D8322EA31E03A8329834CE987
:103CA00051E05C834B832EE832E038872F8348E76E
:103CB00051E05A874987812C912C612C712C212C41
:103CC000312C24E630E03C872B8700E010E01E8A90
:103CD0001D8AAD85BE856D91BE87AD878D899E8914
:103CE000C8960E94CD1AEF85F8896191F88BEF870D
:103CF0008D899E89875C9E4F0E94CD1AED89FE8931
:103D0000E656FD4F60818D899E898D960E94CD1A61
:103D1000ED89FE89EF54FE4F60818D899E89C296A0
:103D20000E94CD1AAD81BE816C91ED88FE88BCE306
:103D3000EB0EF11CC7010E94CD1AED89FE89E555F5
:103D4000FE4F60818D899E898A5B9F4F0E94CD1AAC
:103D5000ED89FE89E956FD4F60818D899E89805BE2
:103D60009F4F0E94CD1AED81FE816081C7010E94A4
:103D7000CD1AED89FE89E855FE4F60818D899E89B7
:103D8000C5960E94CD1AED89FE89EC5EFD4F6081DB
:103D90008D899E8988960E94CD1AED89FE89EC5600
:103DA000FD4F60818D899E89815A9F4F0E94CD1A57
:103DB000A981BA816C91C8018D5A9F4F0E94CD1A7A
:103DC000E981FA816181C8018C5A9F4F0E94CD1A06
:103DD000AB81BC816C91C801875A9F4F0E94CD1A5C
:103DE000EB81FC816181C801865A9F4F0E94CD1AE8
:103DF000AF81B8856C91C8018F5E9E4F0E94CD1A2D
:103E0000EF81F8856181C8018E5E9E4F0E94CD1AB8
:103E10006091B60184E290E00E94CD1AC12CD12CB1
:103E20007401FAEFEF0EF11CF601E80DF91DEA55E9
:103E3000FD4F6081C7018C0D9D1D0E94CD1A2FEF93
:103E4000C21AD20A33E0C316D10471F7C12CD12CA7
:103E500073014BE1E41A4DEFF40AF601E60DF71D8C
:103E6000EB52FE4F6081C7018C0D9D1D0E94CD1A43
:103E70005FEFC51AD50A85E1C816D10471F7C12CC8
:103E8000D12C71019CEFE91A9EEFF90AE985FA85B8
:103E9000EC0DFD1D6081C7018C0D9D1D0E94CD1A8A
:103EA000AFEFCA1ADA0ABCE0CB16D10479F7A10148
:103EB000440F551F4B845C84C12CD12C9601240FD8
:103EC000351F5201E12CF12CF701E20FF31FE050F6
:103ED000FF4F6081C5012B8B3C8B498B5A8B0E9415
:103EE000CD1AE5E0EE0EF11CFFEFAF1ABF0A2B89E9
:103EF0003C8949895A8988E2E816F10429F79FEF3D
:103F0000C91AD90AAAE04A0E511CB5E0CB16D10451
:103F1000A9F62D893E892F5F3F4F3E8B2D8B4D811A
:103F20005E814F5F5F4F5E834D8329813A812E5FB3
:103F30003F4F3A8329830E5F1F4F4B815C814E5F59
:103F40005F4F5C834B832F8138852E5F3F4F3887CF
:103F50002F834B855C854E5C5F4F5C874B87298543
:103F60003A85245F3F4F3A87298734E1230E311C7D
:103F700045E1640E711C53E0850E911C2D893E892C
:103F80002330310509F0A5CE83E0809346030E94DB
:103F9000501A6093B0027093B1028093B202909372
:103FA000B30208E210E0C8010E94E91A682FC801B4
:103FB00080579E4F0E94CD1A0F5F1F4F003431E093
:103FC000130789F705EE12E0C8010E94E91A682F6D
:103FD000C801CF960E94CD1A0F5F1F4F043243E0F5
:103FE000140791F786E290E00E94E91A682F84E2B4
:103FF00090E00E94CD1A63E08CE290E00E94CD1A1E
:1040000085E290E00E94E91A833011F40E94220BAD
:104010000E94B1170E94151686E10E94EB1986E1F5
:104020000E94EB1986E10E94EB199093A502809300
:10403000A4029093F6028093F5020E948D1BEBE898
:10404000F4E0859194912FB7F894FC01FF278081CB
:10405000892B80832FBF64EF71E080E090E00E94A5
:10406000161AEBE8F4E0259134919FB7F894F90122
:10407000FF272081832F8095822380839FBF80919B
:104080002B02853141F580917A00887F80937A00F8
:1040900080917A00856080937A0080E1809381002E
:1040A0001092800081E08093A30228EA32E03093EE
:1040B000480320934703309387002093860091E1C3
:1040C000909381002FE233E03093B5012093B40147
:1040D00080936F002DC080E180938100109280005A
:1040E00091E09093A30220E931E0309348032093BC
:1040F0004703309387002093860021E120938100BD
:104100002EED33E03093B5012093B40190936F000E
:104110008093810080917A00887F80937A0084E880
:1041200080937A0080E480937C0081E00E94541B9D
:104130000E94750B0E94501A00918603109187030C
:104140002091880330918903DC01CB01801B910B06
:10415000A20BB30B0597A105B10508F4A5C070909B
:104160008503A5E5AA2EA3E0BA2E89E493E09A83FD
:1041700089830EE513E0B8E5CB2EB3E0DB2E8FE4A8
:10418000E82E83E0F82E91E6292E93E0392EACE458
:10419000B3E0BE83AD83EBE5F2E0FC83EB83812CDF
:1041A000912C66246394D5015C90552029F0F6018A
:1041B0001082D7011D921C92EB81FC81819191911B
:1041C000FC83EB83FC01FF2732978081892311F068
:1041D0000C944C2CED81FE818081882321F081504C
:1041E000AD81BE818C93AD81BE816C9161110C94C7
:1041F000652CF801608277247394A981BA818C912F
:1042000081110C947C2CD8019C91992311F40C946D
:10421000872C51100C94872CD1016C92792ED701E8
:104220008D919C918D32914010F00C949B2CF80153
:104230008081811105C0D6011C92F7011182108284
:10424000A981BA818C93811102C0F5011082FFEF20
:104250008F1A9F0A2FEFA21AB20A49815A814F5F23
:104260005F4F5A8349830F5F1F4F5FEFC51AD50A0F
:1042700082E0E80EF11C9FEF291A390AAD81BE8158
:104280001196BE83AD83B3E08B16910409F08BCFFA
:10429000709285030E94501A60938603709387037F
:1042A000809388039093890380918503882309F480
:1042B000B0C280916703882351F080916503882301
:1042C00031F01092650310928503109267031091EC
:1042D000FC0225E1129FF0011124EB52FE4F2289CE
:1042E000213029F580916103882309F180916003D1
:1042F00081111DC080915F03811119C0809121033C
:10430000811115C080910B0390910C0396958795B0
:10431000089769F41092610320935B038091F00287
:10432000811103C00E941F1B02C00E94EB1A8091E2
:10433000AF02882309F497C080916103882309F4B0
:1043400051C08091600381114DC080915F03811144
:1043500049C080912103811145C080910B03909148
:104360000C03969587954097E9F51092610381E0DB
:1043700080935B0380910D038F5F833019F08093EE
:104380000D0302C010920D0300910D03023069F479
:104390008FEF9FE19093C8018093C7012FE34FE710
:1043A00061E080EE0E94ED0A02C0002319F081E076
:1043B000800F01C081E0809346030E94501A6093F1
:1043C000B0027093B1028093B2029093B3028091D5
:1043D000F302882339F026E4200F46E667E080EBFD
:1043E0000E94ED0A809161038823E9F180916003C6
:1043F000811139C080915F03811135C08091210303
:10440000811131C080910B0390910C039695879593
:10441000029749F51092610381E080935B031F5F6F
:10442000133019F01093FC0202C01092FC0210929B
:10443000F1020E948D1B8091FC02882311F08F5F96
:1044400001C081E0809346030E94501A6093B0023D
:104450007093B1028093B2029093B3028091F30201
:1044600081110E940713809164038823B1F0809129
:104470006003811112C080915F0381110EC0809191
:10448000210381110AC080915B03811102C00E9447
:10449000BE141092640310925B038091650388231D
:1044A00009F180915E0381111DC08091600381112B
:1044B00019C08091FC0290E09C01220F331F820FF3
:1044C000931FFC01EA55FD4F818181110BC0809142
:1044D0005C03811103C081E00E94BE141092650349
:1044E00010925C0380916603882309F180915E033A
:1044F00081111DC080915F03811119C08091FC0260
:1045000090E09C01220F331F820F931FFC01EA559C
:10451000FD4F828181110BC080915D03811103C029
:1045200082E00E94BE141092660310925D03809197
:1045300064038823E1F080912103811118C08091E8
:10454000FC0290E09C01220F331F820F931FFC019D
:10455000EA55FD4F8081882351F080915B038111E2
:1045600002C00E94BE141092640310925B038091FB
:1045700065038823C9F08091FC0290E09C01220F22
:10458000331F820F931FFC01EA55FD4F8181882361
:1045900059F080915C03811103C081E00E94BE1438
:1045A0001092650310925C03809166038823C9F022
:1045B0008091FC0290E09C01220F331F820F931F19
:1045C000FC01EA55FD4F8281882359F080915D03FB
:1045D000811103C082E00E94BE1410926603109203
:1045E0005D03809164038823E9F080915F03882351
:1045F000C9F08091FC0290E09C01220F331F820FD2
:10460000931FFC01EA55FD4F808181110BC0818110
:10461000811108C01092640381E08093670383E0F6
:104620000E94BE14809166038823E9F080915F03A5
:104630008823C9F08091FC0290E09C01220F331F77
:10464000820F931FFC01EA55FD4F818181110BC040
:104650008281811108C01092660381E08093670314
:1046600084E00E94BE1480915803882311F1809148
:104670005F0381111EC08091600381111AC0809177
:10468000FC0290E09C01220F331F820F931FFC015C
:10469000EA55FD4F808181110CC085E00E94BE1457
:1046A00081E08093550310925803109250031092AA
:1046B0004F0380915903882311F180915E0381118A
:1046C0001EC08091600381111AC08091FC0290E0AD
:1046D0009C01220F331F820F931FFC01EA55FD4FEF
:1046E000818181110CC086E00E94BE1481E080931C
:1046F0005603109259031092520310925103809165
:104700005A03882311F180915E0381111EC08091AC
:104710005F0381111AC08091FC0290E09C01220F7E
:10472000331F820F931FFC01EA55FD4F82818111D7
:104730000CC087E00E94BE1481E080935703109262
:104740005A031092540310925303809161038823FB
:1047500081F18091AF0281110BC0E091FC0235E143
:10476000E39FF0011124EB52FE4F82898130E1F486
:1047700080910B0390910C03969587958830910555
:10478000C1F084309105A9F0029799F08091FC0264
:1047900090E09C01220F331F820F931FFC01EA550A
:1047A000FD4F8081882329F01092610380E00E94F0
:1047B0001B1D80916203882399F08091FC0290E098
:1047C0009C01220F331F820F931FFC01EA55FD4FFE
:1047D0008181882329F01092620381E00E941B1DD1
:1047E00080916303882399F08091FC0290E09C0102
:1047F000220F331F820F931FFC01EA55FD4F828168
:10480000882329F01092630382E00E941B1D1092FE
:10481000850380914603882309F446C00E94501AFC
:104820000091B0021091B1022091B2023091B30216
:10483000DC01CB01801B910BA20BB30B883C9105D3
:10484000A105B10588F18091D902EBE8F4E0882355
:10485000A1F0859194912FB7F894FC01FF27308146
:10486000892F8095832380832FBF809146038150B9
:10487000809346031092D9020DC0859194912FB771
:10488000F894FC01FF278081892B80832FBF81E072
:104890008093D9020E94501A6093B0027093B102C3
:1048A0008093B2029093B302F89412E2212E13E0A7
:1048B000312EA10180E090E0FC01EE0FFF1FEC5CC7
:1048C000FC4F20813181DA012D933D93AD0101969A
:1048D0008930910589F7789480912B02863118F4FC
:1048E000E2E2F3E017C0809121038111F9CF4FE09C
:1048F00053E0E2E2F3E0DA012D913D91AD018081D8
:104900009181821B930B81939193B3E0E433FB0776
:1049100091F7E6CF8081918197FF02C011821082CA
:10492000329623E0E433F207A9F740900B0350904E
:104930000C038091B6019091B7014EEC5FEF3A0104
:10494000681A790A07EC12E0F80180E090E0D82EAE
:10495000D1016D917D911D01219131917901B2E3D8
:10496000EB1AF108E616F70670F4812C912C54012D
:104970008394082E04C0880C991CAA1CBB1C0A94A2
:10498000D2F748285928260D371D2617370778F003
:1049900021E030E040E050E004C0220F331F441F0C
:1049A000551FDA94D2F72095309542225322019672
:1049B0008930910561F650920C0340920B03C201BD
:1049C0000E94751B8093B4028091F3028823D9F072
:1049D000809168039091690384159505A1F0252DB8
:1049E000220FF42C47FC216042E767E080EB0E9435
:1049F000ED0A2F2D43E767E080EB0E94ED0A50920D
:104A0000690340926803E091FC02F0E0EC5EFD4F28
:104A10004081842F8B7FA9F4C2018C7F99279695C2
:104A20008795FC01E459FC4FE4912E2F30E044308F
:104A300021F441FE02C021503109FC01E359FC4F31
:104A400013C04130A9F450FC04C082E0809380037D
:104A500049C0C2018E7F9927FC01E459FD4F249182
:104A600030E0FC01E359FD4FE491E09380033FC047
:104A7000423051F450FE36C0F201EE7FFF27F6952A
:104A8000E795E451FE4F17C04330F9F4C201969503
:104A9000879591600E94751B90E0EAEDF1E020E0BF
:104AA00030E0449150E08417950741F4220F331F02
:104AB000F901E552FE4F249130E019C02F5F3F4FBE
:104AC00032962930310569F710C0453071F4F20192
:104AD000F695E795E652FF4F249130E02115310518
:104AE00031F403C02AE430E002C02FEF3FEF3093EF
:104AF000840320938303B0902103BB2009F44FC1AA
:104B00008091D90281118CC0E5E4F4E08491E6E261
:104B1000F4E02491E7E0F4E03491332309F44CC04D
:104B20008823E1F190E0FC013197EF30F105B0F519
:104B3000EA5AFF4F0C94362E809180008F7707C081
:104B4000809180008F7D03C080918000877F80935B
:104B5000800024C084B58F7702C084B58F7D84BD6A
:104B60001DC0809190008F7707C0809190008F7D4D
:104B700003C080919000877F809390000FC0809148
:104B8000C0008F7703C08091C0008F7D8093C000EC
:104B900005C08091C200877F8093C200E32FF0E0C0
:104BA000EE0FFF1FE451FC4FA591B4918FB7F8941D
:104BB000EC912E2B2C938FBF81E08093D9020E9421
:104BC000501A60936A0370936B0380936C03909305
:104BD0006D0380912103813081F08091F40288235C
:104BE00009F4DDC01092C8021092C7028FEF90E066
:104BF0009093100380930F03D2C080E090E0FC01FB
:104C0000E953FD4F13821282FC01E15FFC4F4FEF2D
:104C100050E05383428302968031910581F7DDCFC6
:104C200091E0B91216C00E94501AC0906A03D09049
:104C30006B03E0906C03F0906D03DC01CB018C19E9
:104C40009D09AE09BF0981319742A105B105D0F098
:104C50005EC0F2E0BF1271C00E94501AC0906A0399
:104C6000D0906B03E0906C03F0906D03DC01CB01FE
:104C70008C199D09AE09BF0989389341A105B10579
:104C800028F15EC024E233E06FE073E0E7ECF2E08D
:104C9000D9018D919D919D014281538148175907FA
:104CA00010F493838283DB0112964D915C911397EC
:104CB0008417950724F413969C938E93129732963B
:104CC0006E5F7F4FB2E0E73DFB0711F78091F40282
:104CD0008823D1F080912203909123032091C70271
:104CE0003091C8022817390720F49093C8028093A6
:104CF000C70220910F03309110038217930724F409
:104D00009093100380930F03E1E0BE1216C00E943F
:104D1000501AC0906A03D0906B03E0906C03F0903F
:104D20006D03DC01CB018C199D09AE09BF098131EE
:104D30009742A105B105C8F432C022E0B2122FC0DB
:104D40000E94501AC0906A03D0906B03E0906C03ED
:104D5000F0906D03DC01CB018C199D09AE09BF09F0
:104D600089389341A105B105D0F00E94FB038091E1
:104D7000C6012EEC3FEF281B3109E5EBF2E0D8012C
:104D80006D917D918D01620F731F8CEF9FE70E94E3
:104D9000222E61937193B2E0093D1B0781F7809148
:104DA0000E03811139C080910D038230A9F1209149
:104DB00083033091840380912A0290E08217930745
:104DC00059F18091830390918403019629F1809198
:104DD0000B0390910C0390930A0380930903E8E17D
:104DE000F2E0A0E0B3E0119211921D9222E0EA32CB
:104DF000F207C9F7E091FC02F0E0EC5EFD4F808124
:104E0000E0918303F0918403853009F09FC5E55E4E
:104E1000FB4FE491E093B801809183039091840368
:104E2000019631F0809183039091840380932A024C
:104E30008091FF02882309F438C1F8948091DA0246
:104E40009091DB0290937903809378037894E091BA
:104E5000FC020E2F10E045E1E49FF0011124EB521B
:104E6000FE4F8289833089F58091F002811111C053
:104E7000848950E8859FC00111242389822B0596DF
:104E800020917803309179038217930714F40E94DC
:104E90001F1B8091F0028823C1F085E1809FF00103
:104EA000819FF00D1124EB52FE4F8489A0E88A9F68
:104EB000C00111242389822B20917803309179033A
:104EC0002817390714F40E94EB1A0E94501A009117
:104ED0007403109175032091760330917703AB0131
:104EE000BC01401B510B620B730B8091BD01909173
:104EF000BE01092E000CAA0BBB0B481759076A0705
:104F00007B0720F080917303811128C50E94501AFD
:104F100000916F031091700320917103309172031F
:104F2000AB01BC01401B510B620B730B8091BB01A9
:104F30009091BC01092E000CAA0BBB0B4817590716
:104F40006A077B0720F080916E0381110AC50091EA
:104F50007803109179038091F5029091F602A801EF
:104F6000481B590B2091BA0130E0E0917303709116
:104F70006E036091170224173507ECF4E1111BC092
:104F8000711119C06130B9F42091C0013091C10193
:104F90002017310784F483E08093810360937303C7
:104FA0000E94501A60937403709375038093760384
:104FB0009093770321C0801B910B2091B90130E0C1
:104FC00028173907F4F4E1111CC06623D1F07111E0
:104FD00018C0809181038330A1F481E08093810324
:104FE00080936E030E94501A60936F037093700356
:104FF00080937103909372031093F6020093F5026D
:1050000054C08091C0019091C101801791071CF09C
:1050100021E020938103613031F0801791071CF467
:1050200022E020938103E1111FC071111DC066238E
:10503000B1F180179107D4F480912A0290E0CC97C7
:105040004091BF01489F9001499F300D11248091EC
:10505000C2019091C301280F391F2017310734F086
:1050600082E08093810302C0711119C06130B9F4EC
:1050700080912A0290E0CC974091BF01489F900117
:10508000499F300D11248091C2019091C301280FD6
:10509000391F201731071CF483E08093810310939C
:1050A000F6020093F5021092FF029091FE028091A9
:1050B000FD02BCE09B9F800D112480938203E09051
:1050C0008103E3E0EE1609F190911702933069F441
:1050D000E091FC02F0E0EC5EFD4F90819130C1F078
:1050E00090910B0390FF11C013C0923089F4E091AE
:1050F000FC02F0E0EC5EFD4F90819B7F49F4209133
:105100000B0330910C0330FD03C0845F8093820356
:10511000F0900E03FF20D1F1209180032230B0F5F2
:105120008FEF9FE19093C8018093C701213051F424
:105130002091C4013091C501821B930B9093C8014B
:105140008093C7010091C7011091C8018091DC02D2
:105150009091DD02080F191F1093C8010093C70139
:105160008091D3019091D4018017910779F0980133
:10517000220F232F221F330B402F4F7761E080EE49
:105180000E94ED0A1093D4010093D3010E94501A9B
:105190000091F8021091F9022091FA023091FB027D
:1051A000DC01CB01801B910BA20BB30B0A97A1056D
:1051B000B10508F48DC20E94501A6093F8027093F2
:1051C000F9028093FA029093FB02E091FC020E2F09
:1051D00010E025E1E29FF0011124EB52FE4F8081A7
:1051E000882309F4B0C08091F7028111ACC02091EE
:1051F000C0013091C10140912A0250E04C53510945
:105200008091BF01849FB001859F700D1124809112
:10521000C2019091C301860F971FBC01621B730BE3
:1052200075956795620F731F43E0E41203C0680F22
:10523000791F9C018091F5029091F60286179707DD
:1052400058F545E1409FF001419FF00D1124EB52CC
:10525000FE4F4181A4E14A9FA0011124FB01E81BFC
:10526000F90B4E9FC0014F9F900D5E9F900D112432
:10527000621B730B0E94222E669FB0011124F3E083
:1052800075956795FA95E1F7719561957109709338
:10529000DD026093DC0214C0861B970B25E1209F82
:1052A000F001219FF00D1124EB52FE4F4181489FE8
:1052B0009001499F300D11243093DD022093DC02D0
:1052C00025E1209FC001219F900D1124FC01EB528C
:1052D000FE4F8181B8EC8B9FC00111242091DC022C
:1052E0003091DD028217930724F49093DD028093BE
:1052F000DC0280910D03823081F5C090DC02D090F9
:10530000DD02E1E0CE1AE0EEDE0AD092C801C092E2
:10531000C7018091D3019091D4018C159D0599F01E
:105320008091F202882379F09601220F232F221F09
:10533000330B4C2D4F7761E080EE0E94ED0AD09246
:10534000D401C092D301F1100AC080910D038230C4
:1053500009F455C00E94550452C0FF20D9F3809132
:105360008003823009F04BC01092C8011092C7012F
:10537000F801EC5EFD4F8081982F9B7F09F050C3B0
:1053800040912803509129032091C60130E080917B
:10539000260390912703241735070CF4E5C228173C
:1053A00039070CF41DC38091C4019091C50120916F
:1053B000C7013091C8018217930708F45DC380913B
:1053C000C7019091C8012FEF3FE1281B390B809155
:1053D000DC029091DD02820F931F97FD52C39093E0
:1053E000C8018093C7010091C7011091C801809145
:1053F000D3019091D4018017910709F047C3209001
:10540000F5023090F60280917E0390917F0382191D
:10541000930997FF03C091958195910903970CF427
:105420002FC18091F3028823D1F06101032C000C7D
:10543000EE08FF082C2D2F7744E767E080EB0E94F1
:10544000ED0AA7019601F7E0569547953795279500
:10545000FA95D1F746E767E080EB0E94ED0AE0910C
:10546000FC020E2F10E025E1E29FF0011124EB5227
:10547000FE4F8281813009F0FFC0E781C090D101E9
:10548000D090D201E12CF12CC101032C000CAA0B0D
:10549000BB0B9C01AD012C193D094E095F09A0E22F
:1054A000B3E00E94E12E48E0E49F900111242C59C2
:1054B0003F4F4901330FAA08BB08A50194012C19DD
:1054C0003D094E095F090E94C22E57FD0EC02132D0
:1054D00083E038074105510574F469017A0194E6C7
:1054E000C90ED11CE11CF11C0CC0E4E6CE2ED12C5F
:1054F000E12CF12C06C074E8C72E73E0D72EE12C06
:10550000F12C25E1209FC001219F900D1124FC0169
:10551000EB52FE4F8381813009F524EC3CE141E000
:1055200050E02093CD013093CE014093CF015093B2
:10553000D001A7019601C701B6010E94122E9B015E
:10554000AC01C701B6010E94122E20E137E240E013
:1055500050E00E94EC2E69017A012DC08230F9F4EE
:1055600084E89CE1A0E0B0E08093CD019093CE016F
:10557000A093CF01B093D00160E17CE58CE090E096
:10558000A70196010E94EC2E68E0C62E60E2D62E9E
:10559000E12CF12CC21AD30AE40AF50A0CC024E863
:1055A00033E040E050E02093CD013093CE014093B2
:1055B000CF015093D0014090CB015090CC01612C91
:1055C000712C8090C9019090CA01A12CB12CA70127
:1055D00096012456310941095109C301B2016819E4
:1055E00079098A099B090E94122EC090CD01D090A2
:1055F000CE01E090CF01F090D001A7019601245692
:105600003109410951090E94C22EDA01C901880DF0
:10561000991DAA1DBB1D88159905AA05BB054CF44B
:1056200047E0B594A794979487944A95D1F7282D8D
:1056300016C0481659066A067B064CF437E0759486
:105640006794579447943A95D1F7242D08C027E0E2
:10565000B595A795979587952A95D1F7282F85E138
:10566000809FF001819FF00D1124EB52FE4F458188
:10567000648180EB0E94ED0A30927F0320927E03CA
:1056800080917D038F5F8A3019F080937D0320C065
:1056900010927D03E3E9F4E085919491FC01FF27EA
:1056A00032978081892321E009F420E02093F402DD
:1056B00080917C03821761F020937C038091F30238
:1056C000882331F0285846E667E080EB0E94ED0A17
:1056D000C090FC02D12CF601EC5EFD4F008105303C
:1056E00029F4809182038150809382034091F202D9
:1056F000442381F020912A0230E080917B0390E0E6
:1057000050918203851B910957FD939528173907FE
:1057100009F474C0909181038091F702923010F0E7
:10572000882341F0882309F469C08091F10288231D
:1057300009F464C010912A021F3F09F45FC08091F0
:105740007A038E3379F480918203082E000C990B32
:10575000810F911D8635910529F48091FF028823E0
:1057600009F44CC0033019F41C3349F447C001302C
:1057700031F41E3321F480910B0380FD3FC044239C
:10578000D9F02FE740917B0361E080E80E94ED0AA9
:1057900080910E03811110C080910D03823061F061
:1057A0000E9455040E94501A6093F8027093F90207
:1057B0008093FA029093FB02F0908203F10E2FE7A0
:1057C0004F2D61E080E90E94ED0AF0927B03109377
:1057D0007A0325E12C9DC0012D9D900D1124FC0123
:1057E000EB52FE4F8289823031F48091F0028111B8
:1057F00002C00E941F1B81E08093F2028091F2029E
:10580000882309F43FC0909181038091F702913081
:1058100011F48823B9F0882321F08091F1028823C4
:1058200089F0033029F480912A028C3359F50AC09B
:10583000013041F580912A028E3321F580910B03CE
:1058400080FF20C02FE740917B0361E080E80E9449
:10585000ED0A25E12C9DC0012D9D900D1124FC0128
:10586000EB52FE4F8289823029F48091F00281113F
:105870000E94EB1A1092F20288E79CEE9093D401FA
:105880008093D30180E090E0892B11F40C94982050
:105890000E9400000C949820AD81BE814C90642D34
:1058A00070E080E090E00E94432E20E030E040E88D
:1058B00050E40E943C2E87FD02C00C94F3204394D8
:1058C000ED81FE8140820C94F32070E080E090E056
:1058D0000E94432E20E030E040E850E40E94A22ED7
:1058E00087FF02C00C94FD20D8011C9224E0ED81BA
:1058F000FE8120830C94FD20F8019081911107C056
:10590000511005C0F401EC59FC4F6082782EF10172
:105910001082882311F40C940F21D8018C918823D4
:1059200011F40C940F21F7018081918101969183EC
:1059300080830C940F21F501808181110C94172133
:10594000D6016C92772473940C941721823019F449
:10595000ED5DFB4F5ECAE45EFB4F5BCA10927303C2
:10596000D5CA10926E03F3CA60910B0363FD17CD85
:10597000421B530BE091E402F091E502281739072E
:10598000FCF462FD1DC0821B930B6091E2027091DA
:10599000E302869F9001879F300D969F300D112462
:1059A00036952795369527954E9FC0014F9F900DB0
:1059B0005E9F900D1124969587959695879529C0A1
:1059C0004E9FB0014F9F700D5E9F700D1124769514
:1059D0006795769567957093C8016093C701DFCC92
:1059E00040910B0342FDDFCC821B930B4091E202FE
:1059F0005091E302849F9001859F300D949F300D5C
:105A0000112436952795369527958091C701909159
:105A1000C801280F391F3093C8012093C701C3CC98
:105A2000813009F0CCCC40910B0350910C0350FD18
:105A300047C043FDC4CC20912803309129034091F5
:105A4000C60150E08091C4019091C50142175307EF
:105A50009CF4241B350B6091E4027091E502269FB3
:105A6000A001279F500D369F500D11245695479544
:105A700056954795841B950B9093C8018093C70159
:105A80009ECC1092C8011092C701ADCC8091F20259
:105A9000882309F4B4CC80910D03823008F0AFCC98
:105AA0009801220F232F221F330B402F4F7761E0E5
:105AB00080EE0E94ED0A1093D4010093D3019FCC95
:105AC00020912803309129038091C60190E082172C
:105AD0009307ECF443FF05C01092C8011092C70170
