:100000000C9445030C946D030C946D030C946D03D8
:100010000C946D030C946D030C946D030C946D03A0
:100020000C946D030C946D030C94EB080C947B09F9
:100030000C946D030C946D030C946D030C946D0380
:100040000C946D030C946D030C946D030C946D0370
:100050000C945A0D0C946D030C946D030C949C132A
:100060000C946D030C946D030C946D030C946D0350
:100070000C946D030C942E080C946D030C946D037A
:100080000C946D030C946D030C946D030C946D0330
:100090000C946D030C946D030C946D030C946D0320
:1000A0000C946D030C946D030C946D03461E621E3C
:1000B000891EAD1E461EC81ED61EE01E951E361F8A
:1000C000621EEC1E0A1F651127122D1233123A12FE
:1000D0004F1270127D129F12B212C2123D3D3D3D71
:1000E0003D3D3D3D3D3D3D3D3D3D3D3D3C303C3C50
:1000F0003C3C3C3C3C3C3C3C3C3C3C3C3B2F3B3B50
:100100003B3B3B3B3B3B3B3B3B3B3B3B392D393953
:1001100039393939372B363735353432444444444C
:10012000444444444444444444444444444444448F
:100130004444444444444444444444444343434383
:100140004343434343434343434343434141414187
:1001500041414141404040403F3F3E3C00000000A3
:10016000000000000000000000000000000000008F
:10017000000000000000000000000000000000007F
:10018000000000000000000000000000000000006F
:100190000000000000000000000000004646464647
:1001A00046464646464646464646464646464646EF
:1001B00046464646464646464646464646464646DF
:1001C00046464646464646464646464646464646CF
:1001D00046464646464646464646464645454545C3
:1001E00045454545454545454545454545454545BF
:1001F00045454545454545454545454544444444B3
:1002000044444444444444444444444443434343B2
:1002100043434343424242424141403E4B4A4A49A2
:100220004A4949484A494948494848474A49494842
:1002300049484847494848474D4C4C4B4A4949482A
:10024000494847464E4D4D4C4D4C4C4B4847474610
:10025000474646454D4C4C4B4C4B4B4A494848470A
:100260004847464548474645474646454847474626
:100270004746464547464645464545444746464522
:100280004645454446454544454444434544444326
:10029000444343424342424141403E3F4B4B4B4B20
:1002A0004B4B4B4B4B4B4B4B4B4B4B4A4B4B4B4B9F
:1002B0004B4B4B4B4B4B4B4B4B4B4B4B4B4B4B4B8E
:1002C0004B4B4B4B4B4B4B4949494949504A4A4A86
:1002D0004A4A4A4A4F4A4E4A4D4A4B4A5454544954
:1002E0004949545454494949494949495353535335
:1002F0005353534B4B4B4B4B4B4B534B5252525212
:1003000052525252525252525151515250505050D8
:10031000505050504F4F4E4E4D4C4B4A4A4A4A4A0D
:100320004A4A4A4A4A4A4A4A4A4A4A4A4A4A4A4A2D
:100330004A4A4A4A4A4A4A4A4A4A4A4A4949494921
:100340004949494949494949494949494B4B4B4B15
:100350004B4B4B494B4B4B4B4B4B4B4B48484848FB
:10036000484848484848484848484848474A47470E
:100370004747474747474747474747474646464611
:100380004646464645464646454546464444444418
:10039000444444444343424241403F3E7F3C003E4C
:1003A000014002420343044505470649074A4949BB
:1003B00049494949494949494949494949494949AD
:1003C00049494949494948484848484848484747A9
:1003D00047474747474747474747474747474545B1
:1003E000454545454444434445434241403E490018
:1003F00049024900490049004901490049004900B2
:1004000049004900490049004900490049004900A4
:100410004900490049004900490049004900490094
:100420004900490049004900490049004900490084
:100430004900490049004900490049004900490074
:100440004900490049004900490049004900480263
:100450004802480048024801480148004801480055
:100460004802480048004800480148004900470049
:10047000470247004702470047014700470146003F
:100480004700460047004700470047004700470035
:100490004700470047004700470047004700470024
:1004A0004700470047004700470047004700450016
:1004B000450245004502450045014500450144000F
:1004C0004500440045004500450045004500430007
:1004D00043024300430243004301430043014200FF
:1004E000420041004200400040003F003E00490001
:1004F00049004900490049004900490049004900B4
:1005000049004900490049004900490049004900A3
:100510004900490049004900490049004800480293
:100520004801480148014800480048004A00470285
:100530004701470147014700470047004700470080
:100540004700470047004700470047004600450274
:100550004501450145014500450045004400430271
:100560004301430143014200410040003E000101BC
:100570000201010201020101020102010201020263
:100580000102010102010201484848484848484820
:1005900048484848484848484848484848484848DB
:1005A00048484848484848484848484848484848CB
:1005B00048484848484848484848484848484848BB
:1005C00048484848484848494747474747474747B2
:1005D00047474747474747474747474747474747AB
:1005E00047474646474747474545454545454545AD
:1005F00045454545454545454343434343434343BB
:1006000042424141403F3E3C2B042B082B022B0130
:100610002B1028402B802E4025102520254025809A
:100620002B402880250825022504250131803140F2
:1006300031203110310231012B102B802510252063
:1006400025402B400403090412010002EF0201407F
:10065000D80487EE0001010203014D6F7772792003
:10066000537472696E67656420496E737472756D38
:10067000656E747300574152424C00070605040131
:1006800000080A0B0C0D0900B22811241FBECFEF81
:10069000DAE0DEBFCDBF12E0A0E0B1E0ECE3F4E5CC
:1006A00002C005900D92A237B107D9F724E0A2E766
:1006B000B2E001C01D92A53CB207E1F713E0C5E42A
:1006C000D3E004C02197FE010E94112AC434D1074F
:1006D000C9F70E94E6130C941C2A0C940000409168
:1006E0008604509187042091840430918504421738
:1006F0005307B4F49091E8009570E1F39091E8000D
:1007000092FD19C08093F100809186049091870436
:1007100001968F739927892B19F48EEF8093E80047
:10072000809186049091870401969093870480932A
:10073000860481E0089580E00895DF92EF92FF92B1
:100740000F931F93CF93DF93D82EF92EE42E062F0D
:1007500010E0C8010196880F0E946F0383E00E9499
:100760006F03CD2DDF2D0C0F1D1FC017D10789F092
:10077000E7FE03C0FE01849101C088810E946F03DF
:10078000F82E80E00E946F038F2121968111EDCF1A
:1007900001C081E0DF91CF911F910F91FF90EF9009
:1007A000DF900895CF93DF9380919C04893069F4A2
:1007B00086E10E942B139093900280938F021092F7
:1007C0009C0481E08093E20298C0809137028823E4
:1007D00091F1E0919C04F0E0EE0FFF1FE05CFD4F13
:1007E000808191812FB7F894FC01FF278081892BAC
:1007F00080832FBF80919C04883041F485E00E9463
:100800002B1390938B0480938A0412C0C0919C0494
:10081000D0E02196E0919C04F0E0E85AFD4F818100
:100820000E942B13CC0FDD1FC657DB4F99838883A3
:100830001092370262C08091370281115EC0C09170
:100840009C04D0E0E0919C04F0E0E85AFD4F8081E8
:100850000E942B13CC0FDD1FC050DD4F998388837E
:10086000E0919C04F0E0EE0FFF1FE05CFD4F808103
:1008700091812FB7F894FC01FF27808190958923FF
:1008800080832FBFE0919C048E2F90E0E0919C0428
:10089000F0E0EE0FFF1FE050FD4F20813181E0912D
:1008A0009C04F0E0EE0FFF1FE657FB4F40815181A3
:1008B000241B350BFC01EE0FFF1FE050FD4F318371
:1008C0002083E0919C04F0E0EE0FFF1FE050FD4F0D
:1008D0008081918197FF09C0E0919C04F0E0EE0FC8
:1008E000FF1FE050FD4F1182108280919C048F5FAA
:1008F00080939C0481E080933702DF91CF9108952B
:10090000809189048F5F809389048091890482306B
:1009100011F42F9A089580918904833069F480E15D
:100920008093810084E00E94DA0D81E08093370299
:1009300010929C041092890408950F931F93CF93F3
:10094000DF931F92CDB7DEB719820E94460DDC01FE
:1009500012960D911C9113970115110589F0D8017C
:10096000ED91FC910280F381E02DBE016F5F7F4F1E
:10097000C801099597FD04C0F80100851185ECCFE9
:1009800089810F90DF91CF911F910F9108952F9240
:100990003F924F925F926F927F928F929F92AF920F
:1009A000BF92CF92DF92EF92FF920F931F93CF935C
:1009B000DF93CDB7DEB766970FB6F894DEBF0FBEF4
:1009C000CDBF8DE391E09A878987EAE3F1E0F8876C
:1009D000EF8386E391E09C878B87E2E0F1E0FE877E
:1009E000ED8780E391E0988B8F87E8E0F1E0FC836E
:1009F000EB8380ED92E09E838D83412C512CA12CC2
:100A0000B12C212C312CE4E6F0E0FA83E9831E8A34
:100A10001D8A612C712CC301875C9E4F0E94950D2D
:100A2000E985FA858193FA87E987C301845C9E4F43
:100A30000E94950DEF81F8858193F887EF83C301BC
:100A4000C2960E94950DEB85FC858193FC87EB8710
:100A50008D899E898D5A9F4F0E94950D182F8D89E3
:100A60009E898C5A9F4F0E94950D212F30E0382B84
:100A7000ED85FE8521933193FE87ED878D899E89D3
:100A8000875A9F4F0E94950D182F8D899E89865AEF
:100A90009F4F0E94950D212F30E0382BEF85F8896C
:100AA00021933193F88BEF87C301815A9F4F0E94A6
:100AB000950DF301E758FD4F80838D899E898F5EE8
:100AC0009E4F0E94950D182F8D899E898E5E9E4F98
:100AD0000E94950DED89FE89E458FD4F212F30E0ED
:100AE000382B31832083F5E0F69D8001F79D100DB2
:100AF0001124E12CF12C085C1F4FC8018E0D9F1DA5
:100B00000E94950DED81FE81EE0DFF1D80838FEF1C
:100B1000E81AF80A96E0E916F10479F7E12CF12CCD
:100B200082010B511D4FC8018E0D9F1D0E94950D16
:100B3000F701E40DF51DE152FE4F8083EFEFEE1A51
:100B4000FE0AF5E1EF16F10471F7E12CF12C8501B5
:100B50000C5F1E4FC8018E0D9F1D0E94950DEB81ED
:100B6000FC81EE0DFF1D80838FEFE81AF80A9CE0F0
:100B7000E916F10479F7810106501F4FF101EB5797
:100B8000FD4F6F017101FDEFEF0EF11CC8010E94D6
:100B9000950D91E0811101C090E0F60191936F01F4
:100BA0000F5F1F4FE016F10689F7C501880F991FE7
:100BB0009C8B8B8BC980DA8000E010E0EB89FC898C
:100BC000E00FF11FFA8BE98B4601E12CF12CC401F7
:100BD0000E94950DE989FA89EE0DFF1DE05CFE4F3C
:100BE0008083FFEF8F1A9F0A85E0E80EF11C98E2E0
:100BF000E916F10461F70F5F1F4FEAE0CE0ED11C3A
:100C000005301105D9F6FFEF6F1A7F0A8D899E898D
:100C100002969E8B8D8BE981FA81F296FA83E983A5
:100C2000F3E02F0E311C84E1A80EB11CEB81FC8196
:100C30003C96FC83EB83F5E14F0E511C8D819E8128
:100C400006969E838D8393E06916710409F0E3CEC6
:100C500066960FB6F894DEBF0FBECDBFDF91CF9181
:100C60001F910F91FF90EF90DF90CF90BF90AF90CA
:100C70009F908F907F906F905F904F903F902F90BC
:100C80000895CF92DF92EF92FF920F931F93CF932D
:100C9000DF93C82FE82EF12CE091CF02F0E0E25E66
:100CA000FD4F6081C70188960E94810DE091CF02BF
:100CB000F0E0E35DFE4F6081C701C5960E94810DA3
:100CC000E091CF02F0E0EA5CFE4F6081C701C2967E
:100CD0000E94810DE091CF02F0E0E35CFE4F608165
:100CE000C701875C9E4F0E94810DE091CF02F0E02A
:100CF000E65CFE4F6081C701845C9E4F0E94810DBF
:100D00008701000F111FE091CF02F0E0EE0FFF1FEF
:100D1000EE5FFE4F6081C8018D5A9F4F0E94810D8A
:100D2000E091CF02F0E0EE0FFF1FEE5FFE4F61811A
:100D3000C8018C5A9F4F0E94810DE091CF02F0E0D4
:100D4000EE0FFF1FE05DFE4F6081C801875A9F4F85
:100D50000E94810DE091CF02F0E0EE0FFF1FE05DF9
:100D6000FE4F6181C801865A9F4F0E94810DE0911C
:100D7000CF02F0E0E758FD4F6081C701815A9F4FD5
:100D80000E94810DE091CF02F0E0EE0FFF1FE458CA
:100D9000FD4F6081C8018F5E9E4F0E94810DE091E2
:100DA000CF02F0E0EE0FFF1FE458FD4F6181C80154
:100DB0008E5E9E4F0E94810D84E1C89F70011124B8
:100DC00000E010E0DCE08CEFE81A8EEFF80A80918A
:100DD000CF02F801D89FE00DF11D1124E85FFE4F0E
:100DE0006081C701800F911F0E94810D0F5F1F4F0F
:100DF0000C30110561F785E0C89F80011124E12CBA
:100E0000F12CD6E0085C1F4F8091CF02F701D89FEC
:100E1000E00DF11D1124E053FD4F6081C8018E0DDE
:100E20009F1D0E94810D8FEFE81AF80A86E0E816F0
:100E3000F10451F785E1C89F7001112400E010E032
:100E4000D5E18BE1E81A8DEFF80A8091CF02F80125
:100E5000D89FE00DF11D1124E152FE4F6081C701C2
:100E6000800F911F0E94810D0F5F1F4F05311105EB
:100E700061F783E0C89F80011124E12CF12C06501A
:100E80001F4F8091CF0290E0FC01EE0FFF1FE80F93
:100E9000F91FEB57FD4FEE0DFF1D6081C8018E0D50
:100EA0009F1D0E94810D8FEFE81AF80A83E0E81673
:100EB000F10439F782E3C89FE0011124CC59DF4FD8
:100EC000E12CF12C85E0D82E98E2C92E00E010E04C
:100ED0008091CF02D09EF001D19EF00D1124C89ECA
:100EE000E00DF11D1124E05CFE4FEE0DFF1D608151
:100EF000C8018C0F9D1F0E94810D0F5F1F4F08308E
:100F0000110531F78FEFE81AF80A2A9685E0E816FE
:100F1000F104E1F6DF91CF911F910F91FF90EF90D7
:100F2000DF90CF900895BF92CF92DF92EF92FF9221
:100F30000F931F93CF93DF9327EAE22E22E0F22E46
:100F40003EEEC32E32E0D32E01ED12E0C2E1D0E03E
:100F5000CE010E94950DB82ECE0101960E94950DEE
:100F60002B2D30E0322F2227282BF70121933193AC
:100F70007F01C8010E94950D90E0F6018193919345
:100F80006F0122960F5F1F4FC432D10509F7809180
:100F90003502853131F48FE090E09093BB0180936E
:100FA000BA01DF91CF911F910F91FF90EF90DF90E9
:100FB000CF90BF900895AF92BF92CF92DF92EF9201
:100FC000FF920F931F93CF93DF9307EA12E08EEE09
:100FD000C82E82E0D82E91EDE92E92E0F92EC2E1E2
:100FE000D0E0F8016181CE010E94810DF80160819D
:100FF0000E5F1F4FCE0101960E94810DF6016081A8
:10100000F2E0CF0ED11CC7010E94810D22968FEF16
:10101000E81AF80AC432D10521F71092120363E0EE
:1010200085E290E00E94810DE2E2F6E085919491E4
:101030002FB7F894FC01FF27808190958923808346
:101040002FBF10928E02DF91CF911F910F91FF90D1
:10105000EF90DF90CF90BF90AF9008951F920F92C6
:101060000FB60F9211242F933F934F935F936F937B
:101070007F938F939F93AF93BF93EF93FF93809151
:101080009C04882321F020919C04215001C028E079
:1010900080919C0490919C04983011F08F5F01C066
:1010A00080E090919C049930A9F45998809178003F
:1010B0009091790020919A0430919B04821B930BAC
:1010C0009093110380931003809174028061809348
:1010D000810070C03091370290E0332309F44FC093
:1010E00030919C0431110CC020917800309179002E
:1010F0003093900220938F0221E02093E20221C0DE
:1011000030E0220F331FF901E05CFD4F4081518137
:101110006FB7F894FA01FF2740815095452340832B
:101120006FBF4091780050917900F901E657FB4F6D
:1011300060817181461B570BF901E050FD4F5183CF
:101140004083FC01E85AFD4F80810E94DA0D109225
:10115000370280919C04882369F1E0919C04F0E0BF
:10116000EE0FFF1FE05CFD4F808191812FB7F89457
:10117000FC01FF278081892B80832FBF1BC020911A
:10118000780030917900880F991FFC01E657FB4FDA
:1011900031832083E0919C04F0E0E85AFD4F808188
:1011A0000E94DA0D81E08093370280919C048F5F6A
:1011B00080939C04FF91EF91BF91AF919F918F918C
:1011C0007F916F915F914F913F912F910F900FBE43
:1011D0000F901F9018951F920F920FB60F92112427
:1011E0008F939F938091E1009091E100937F909382
:1011F000E10083FF0FC01092E90091E09093EB00B3
:101200001092EC0092E39093ED001092780298E037
:101210009093F00082FF1CC093E09093E9009091BE
:10122000F200992319F09AE39093E80090918804D2
:10123000992329F09091880491509093880490917B
:101240007702992329F09091770291509093770239
:1012500084FF10C08091E2008E7E81608093E20066
:101260008091E1008F7E8093E100809172028E7EFA
:10127000806111C080FF11C08091E2008E7E80618C
:101280008093E2008091E1008E7E8093E100809166
:1012900072028E7E8160809372029F918F910F9077
:1012A0000FBE0F901F901895DF92EF92FF920F9351
:1012B0001F93CF93DF93D82E8A017B01E40EF51E96
:1012C000EB01CE15DF0571F0D7FE03C0FE0184915E
:1012D00001C088810E946F0321968111F2CF8FEFA8
:1012E0009FEF01C0C801DF91CF911F910F91FF9037
:1012F000EF90DF9008951F920F920FB60F92112476
:10130000CF92DF92EF92FF920F931F932F933F9311
:101310004F935F936F937F938F939F93AF93BF93FD
:10132000EF93FF93CF93DF93CDB7DEB76C97DEBF1C
:10133000CDBF1092E9008091E80083FF6CC189E085
:10134000FE017596EE2EDF2E815029F09091F1006E
:1013500090833196F9CF84E68093770282EF809371
:10136000E8008D8987FF05C09091E80090FFFCCFD1
:1013700003C09EEF9093E800982F907609F0C5C0C7
:101380009E894F89588D2F89F88C91110CC0803817
:1013900029F4809173028093F10002C01092F10051
:1013A0001092F10031C1913051F481112DC14130C1
:1013B000510509F029C1809173028D7F0BC09330D4
:1013C00061F4811121C14130510509F01DC18091A5
:1013D000730282608093730217C1953049F4809143
:1013E000E80080FFFCCF822F80688093E3000CC16F
:1013F000963009F05DC00B8D1C8D22E01092E90043
:101400001092870410928604F21232C01092850462
:10141000109284040E949D0499E0BE016F5F7F4F8B
:10142000DB01E92F1D92EA95E9F79983FA8291E0B1
:101430009E8390EA98879AE099872091860430915C
:101440008704275F3F4F3C832B838D831092E900F5
:1014500010928704109286041093850400938404EC
:1014600049E050E080E00E9454090E949D04CCC0F5
:1014700010938504009384040E94460DDC011296AB
:101480000D911C9113970115110509F468C0D8013D
:10149000ED91FC910480F581E02D6E2D7D2DC8012C
:1014A0000995009709F056C0F80100851185EBCF2A
:1014B000973009F4ADC0983021F481E08093F100B9
:1014C000A3C0993009F0A0C0837009F0A1C0EAE37D
:1014D000F2E081E031E096E32081211109C08EE73E
:1014E0008093EA001092EA008F89809378028CC082
:1014F0008093E9003093EB0021912093EC009093CE
:10150000ED008F5F873041F7EACF8B8D9C8D109275
:10151000E9001092870410928604909385048093CA
:1015200084040E94460DFC010281138101151105FE
:1015300009F46EC0D801ED91FC910190F081E02D8D
:101540006E2D7D2DC801099581115EC0F8010085C1
:101550001185ECCF181619060CF456C059C0F1E0ED
:10156000FF1609F446C0F3E0FF1252C08F898823AA
:1015700009F442C0823029F440E865E085E796E04E
:1015800006C0813051F440E86AE18AE596E00E94A5
:101590009D03882309F43CC037C08330C9F50E94FD
:1015A000460DDC011296ED90FC9013978E010F5FB3
:1015B0001F4F6801E114F10479F0D701ED91FC911E
:1015C0000680F781E02DB801C7010995080F111DAC
:1015D000F701E084F184EECFD8011C92F60101906E
:1015E0000020E9F73197BF016C197D0940E0C60181
:1015F000CECF68E476E002C064E476E0FB0144917B
:1016000050E080E80E9454098EEF8093E80003C008
:1016100081E28093EB006C960FB6F894DEBF0FBEAC
:10162000CDBFDF91CF91FF91EF91BF91AF919F918E
:101630008F917F916F915F914F913F912F911F916A
:101640000F91FF90EF90DF90CF900F900FBE0F9013
:101650001F9018956F927F928F929F92AF92BF9238
:10166000CF92DF92EF92FF920F931F93CF93DF936E
:10167000C82E8B017A0180917802811103C08FEF0F
:101680009FEF81C08091720280FF05C08091E000D1
:1016900082608093E000CE2DDF2DD12C8AEFB82E12
:1016A0008C2D8770982E90E4892E8C2D8072782E48
:1016B0008C2D8074682E2AE3A22E209719F4DD2049
:1016C00009F45DC08FB7F8949092E9009091E8001A
:1016D00095FF05C09091F200282D291B01C020E044
:1016E0008FBF21110AC0BA94BB2049F261E070E0BB
:1016F00080E090E00E945613E0CF822F90E0C81760
:10170000D9070CF42C2F3FB7F8949092E900809100
:10171000E80085FF32C0822F90E0C81BD90B7720EC
:1017200029F02150A0F01092F100FBCFF801C7FE84
:101730000AC0215050F044914093F1003196F9CF06
:1017400041914093F1002150D8F7080F191FDD2077
:1017500019F0A092E8000AC08091E80085FD08C059
:10176000A092E800DD24D394209739F0D12C05C055
:10177000209719F46110A092E8003FBF9ECF84E645
:1017800080938804C701DF91CF911F910F91FF9043
:10179000EF90DF90CF90BF90AF909F908F907F9011
:1017A0006F900895CF93DF9300D000D0CDB7DEB710
:1017B0006150807FF894E82FF0E094E0F595E7958C
:1017C0009A95E1F7E9836F70682B6A834F774B83B3
:1017D0002F772C838091B30444E050E0BE016F5F0B
:1017E0007F4F8F5F0E942A0B8091B3048F5F80939D
:1017F000E9008091F200882319F08AE38093E800E1
:1018000078940F900F900F900F90DF91CF910895E3
:10181000CF92DF92EF92FF920F931F93CF938EE1BF
:10182000C82E82E0D82E0DE211E0CFE695E3E92E36
:10183000F12CC7010D970E94950DF6018083C70119
:101840000E94950DF80180838091CD028823C1F01C
:101850002FEA2C0F46E667E080EB0E94D20BF601E0
:1018600020812F5D46E667E080EB0E94D20BF801F5
:10187000208127FD21584C2F67E080EB0E94D20B7E
:10188000FFEFCF1ADF0A8FEFE81AF80A0F5F1F4F3A
:10189000CF5FC23771F6CF911F910F91FF90EF90FC
:1018A000DF90CF90089580E090E0089580E0089563
:1018B000FC0182818F5BFB01808381E008950895A4
:1018C0000E94172A84E0EDE6F2E0DB0101900D9220
:1018D0008A95E1F784E00895CF92DF92EF92FF922C
:1018E0000F931F93CF93DF93CDB7DEB7C456D109C3
:1018F0000FB6F894DEBF0FBECDBF6C01DB019C912B
:101900009E5F9C93FE01319684E6DF011D928A95CD
:10191000E9F788E089838BE08A8322E02C8391E0D9
:101920009D839E8339E0398774E07A879E879F87FD
:101930003A8B44E24B8B9C8B00E011E01E8B0D8BAD
:1019400089E0E82EF12CF88EEF8A998F3B8F7C8FFF
:101950002F8F98A353E059A387E08CA34DA39EA398
:1019600018A70FA301E410E01AA709A786E08BA728
:101970004CA72DA79EA79FA789AB4AAB2BAB2CAB3F
:101980002DAB3FAB48AF59AF9AAF5BAF9CAF2DAF1C
:101990009EAF21963FAF219722964FAF2297239675
:1019A0005FAF239724962FAF249725967FAF259777
:1019B00026969FAF269727969FAF279728969FAF8B
:1019C00028972A963FAF2A9745E02B964FAF2B9743
:1019D0002D962FAF2D9760E470E02F967FAF6EAFFE
:1019E0002F9763964FAF639785E264968FAF6497A6
:1019F00065969FAF659766969FAF669767969FAF10
:101A0000679768963FAF689769964FAF69976B96EF
:101A10002FAF6B976D967FAF6EAF6D97A1964FAF5F
:101A2000A197A2968FAFA297A3969FAFA397A496D4
:101A30009FAFA497A5965FAFA597D60112969C91EC
:101A400012979B839B879F5F9A8F9D8F13968C9194
:101A50002C968FAF2C978F5F80686A968FAF6A97AE
:101A600044E650E0BF0180E00E945409CC59DF4FAA
:101A70000FB6F894DEBF0FBECDBFDF91CF911F919F
:101A80000F91FF90EF90DF90CF9008958091A80480
:101A900081110DC082E08093A40484E08093A504AA
:101AA0001092A7041092A60481E08093A80484EA0F
:101AB00094E008951F920F920FB60F9211242F9366
:101AC0003F934F935F936F937F938F939F93AF93C6
:101AD000BF93EF93FF93E0910001F091010109950D
:101AE000FF91EF91BF91AF919F918F917F916F91F6
:101AF0005F914F913F912F910F900FBE0F901F90CC
:101B000018951F93CF93DF93EC01162F0E94112994
:101B1000181739F0612FCE01DF91CF911F910C94EE
:101B20001929DF91CF911F9108950C9411291092DA
:101B3000CB02E091CF0285E1E89FF0011124E15250
:101B4000FE4F8685813049F018F0823059F00895B3
:101B500021894089678580E909C021894089678595
:101B600080E804C021894089678580EB0C94D20B02
:101B700081E08093CB02E091CF0285E1E89FF00104
:101B80001124E152FE4F8285813049F018F08230F5
:101B900059F0089525854485638580E909C0258528
:101BA0004485638580E804C025854485638580EB92
:101BB0000C94D20B823108F08251E82FF0E0E55806
:101BC000F94FE49180917B00E3FB222720F930E07C
:101BD00095E0220F331F9A95E1F78F7D282B2093F4
:101BE0007B00E770E064E0937C0080917A00886479
:101BF00080937A0008959C012F5F3F4F282339235B
:101C0000232B71F09C0140E050E080E01216130697
:101C100044F420FF842F359527954F5F5F4FF6CF13
:101C20008FE708958F929F92AF92BF92CF92DF92EB
:101C3000EF92FF920F931F93CF93DF938091CF0288
:101C400090E09C01220F331FF901EE5FFE4F4081AF
:101C500051815093CA014093C901FC01EF55FB4FDC
:101C6000408140939202FC01E35DFE4F408140932E
:101C70009102FC01E35CFE4F40814093EC02FC01C9
:101C8000E758FD4F108141E0111101C040E0409341
:101C9000A004F901E458FD4FC081D181D0939F0485
:101CA000C0939E04FC01EA5CFE4F40814093D0014A
:101CB000F901E05DFE4F208131813093CF01209307
:101CC000CE01FC01E65CFE4F20812093DE0126E080
:101CD000289FF001299FF00D1124E053FD4F208132
:101CE0003CE0389FF001399FF00D1124E85FFE4F72
:101CF00086E0289FE00DF11D112400810093380239
:101D000081818093C20182818093BD018381809310
:101D1000BC01848190E09093C1018093C0018581D2
:101D200090E09093BF018093BE018FEF9FE190936D
:101D3000D2018093D1011092A6021092A5022FE346
:101D40004FE761E080EE0E94D20BE2E2F2E0A3EE08
:101D5000B2E0119211921D9222E0E433F207C9F72A
:101D6000E091CF02EE2EF12C86E0E89FF0011124E5
:101D7000E053FD4F8481882339F08091EC0281305B
:101D800019F48093ED0202C01092ED0280E480937A
:101D9000DD0111110AC080917502909176020396BF
:101DA0009093C6018093C50105C02396D093C601C8
:101DB000C093C5018091C5019091C601A4E00A9F1E
:101DC000800D911D11249093C8018093C7018091CB
:101DD000D0010EEC1FEF081B1109C091CE01D0916C
:101DE000CF0123E0CC0FDD1F2A95E1F7E7EAF2E00F
:101DF00033E9A32E32E0B32E49EBC42E42E0D42EB9
:101E000058EF852E99249A9421913191200F311FFA
:101E1000C401B9010E94FD2976956795D5016D939E
:101E20007D935D01CE01B9010E94FD2976956795EC
:101E3000D6016D937D936D01B2E0E93BFB0721F77D
:101E400085E18E9DF0018F9DF00D1124E152FE4F32
:101E5000868128E0829FC00111248C599F4F909366
:101E6000DC018093DB018085A1E88A9FC0011124F9
:101E70009093D4018093D3018185B1E88B9FC001F9
:101E800011249093D6018093D501DF91CF911F91BA
:101E90000F91FF90EF90DF90CF90BF90AF909F9009
:101EA0008F900895E091CF02F0E0E35CFE4F8081D7
:101EB0008F5F833011F0808301C010820E94120E68
:101EC0002091EC0281E0820F809336028091CD0256
:101ED000882331F02A5B46E667E080EB0C94D20B56
:101EE0000895809192028D3F54F0E091CF02F0E08E
:101EF000EF55FB4F8081815080838093920208953B
:101F000080919202833054F4E091CF02F0E0EF55DB
:101F1000FB4F80818F5F8083809392020895EF92C0
:101F2000FF920F931F93CF93DF9320E14EE667E07C
:101F300080EB0E94D20B7EE1E72E72E0F72E0DE2DD
:101F400011E0CFE62FEA2C0F46E667E080EB0E9417
:101F5000D20BF70121917F012F5D46E667E080EB10
:101F60000E94D20BF80121918F0127FD21584C2F9F
:101F700067E080EB0E94D20BCF5FC23719F7209148
:101F8000CF02245C46E667E080EB0E94D20B2091F2
:101F9000D00147E667E080EB0E94D20B2091CE0192
:101FA0003091CF01A4E6B0E00E9473292FEF3FE10A
:101FB00040E050E00E94512945E767E080EB0E9435
:101FC000D20B2091EC022A5B46E667E080EB0E9490
:101FD000D20B2091DE01205B46E667E080EB0E9499
:101FE000D20B2091CE02285846E667E080EB0E9493
:101FF000D20B2091A004295D4AE667E080EB0E94A5
:10200000D20B22E248E667E080EB0E94D20BC0913F
:102010009E04D0919F042C2F2F7749E667E080EB38
:102020000E94D20B23E248E667E080EB0E94D20BCD
:102030009E01220F232F221F330B49E667E080EB1E
:102040000E94D20BC0E0D0E0E091CF02F0E0EE0FB2
:10205000FF1FEE5FFE4F208131810C2E02C03695AE
:1020600027950A94E2F72170220F822F880F880F9C
:10207000280F8C2F8C5E280F4AE667E080EB0E94C9
:10208000D20B2196C930D105F9F600E010E035E019
:10209000E32E48E2F42E2AE5200F46E667E080EBC7
:1020A0000E94D20B8091CF02E09EE001E19ED00D14
:1020B0001124FE01F89EE00DF11D1124E05CFE4F9D
:1020C00020812C5946E667E080EB0E94D20B80917C
:1020D000CF02FE01F89EE00DF11D1124E05CFE4FE1
:1020E0008081813099F52181205946E667E080EBB7
:1020F0000E94D20B8091CF02FE01F89EE00DF11DEF
:102100001124E05CFE4F22814AE667E080EB0E94EA
:10211000D20B8091CF02FE01F89EE00DF11D11243B
:10212000E05CFE4F23814BE667E080EB0E94D20B20
:102130008091CF02F89EC00DD11D1124C05CDE4FEE
:102140002C814CE667E080EB0E94D20B0F5F1F4FA3
:102150000830110509F09FCFC0E0D0E016E02C2F29
:10216000285D48E667E080EB0E94D20B8091CF02A9
:10217000FE01189FE00DF11D1124E053FD4F208159
:1021800049E667E080EB0E94D20B2196C630D1056C
:1021900031F7C0E0D0E015E12C2F235F48E667E07F
:1021A00080EB0E94D20B8091CF02FE01189FE00DC0
:1021B000F11D1124E152FE4F208149E667E080EBDA
:1021C0000E94D20B2196C531D10531F7C0E0D0E095
:1021D0002C2F265A46E667E080EB0E94D20B8091B6
:1021E000CF0290E0FC01EE0FFF1FE80FF91FEB5745
:1021F000FD4FEC0FFD1F20812B5846E667E080EB7A
:102200000E94D20B2196C330D10511F7C0E0D0E077
:102210001CE02C2F2F5F48E667E080EB0E94D20B7A
:102220008091CF02FE01189FE00DF11D1124E85F9F
:10223000FE4F208149E667E080EB0E94D20B219699
:10224000CC30D10531F7DF91CF911F910F91FF90E5
:10225000EF9008958091CF028F5F833019F08093C3
:10226000CF0202C01092CF021092CC020E94120E36
:102270008091CF028F5F809336028091CD028111D1
:102280000C948F0F08950F931F93CF93DF93E091DA
:10229000CF02C82FD0E02E2F30E098E2E99FF00166
:1022A0001124A5E08A9FE00DF11D1124E05CFE4F92
:1022B000E0818E2F90E0FC013197EB30F10508F0C2
:1022C00072C1ED59FF4F0C94112A85E08C9FF001EB
:1022D0008D9FF00D112448E2429FC001439F900D55
:1022E0001124E80FF91FE05CFE4F8181811116C0B7
:1022F0008E010E571D4FD8018C912481438162813C
:10230000811107C080E90E94D20B81E0F80180832F
:1023100005C080E80E94D20BD8011C928091CF02A8
:1023200095E09C9FF0019D9FF00D1124B8E28B9FDA
:10233000E00DF11D1124E05CFE4F8181813031F40C
:1023400024814381628180EB0E94D20B8091CF0275
:1023500095E09C9FF0019D9FF00D112498E2899FCC
:10236000E00DF11D1124E05CFE4F8181823021F4EB
:10237000638182810E94FD128091CF0295E09C9F33
:10238000F0019D9FF00D1124282F30E0A8E28A9FD4
:10239000E00DF11D1124E05CFE4F8181833011F5C9
:1023A00080919D048F3720F48F5F80939D0402C03D
:1023B00010929D0485E08C9FF0018D9FF00D1124FB
:1023C00048E2429FC001439F900D1124E80FF91F7E
:1023D000E05CFE4F60919D0482810E94FD1281E0CD
:1023E000809336028091CF0295E09C9FF0019D9FE3
:1023F000F00D1124282F30E0B8E28B9FE00DF11D85
:102400001124E05CFE4F8181843009F0CCC08091C2
:102410009D04882311F0815001C08FE780939D04B3
:1024200085E08C9FF0018D9FF00D112448E2429FC2
:10243000C001439F900D1124E80FF91FE05CFE4F8F
:1024400060919D0482810E94FD1281E040C0DF9175
:10245000CF911F910F910C94520FDF91CF911F914B
:102460000F910C942A119091CC0281E089278093DE
:10247000CC0299C0F901EE0FFF1FE20FF31FEB57DB
:10248000FD4FEC0FFD1F8081811103C00E94800F62
:1024900014C0DF91CF911F910F910C94710FF9012E
:1024A000EE0FFF1FE20FF31FEB57FD4FEC0FFD1F69
:1024B000808181110FC00E94710F80919202082EBD
:1024C000000C990B97FF03C091958195910980931A
:1024D000360269C0DF91CF911F910F910C94800F4C
:1024E000C1E020E04BE76C2F80EB0E94D20B1092F2
:1024F000CB02CF5FC131A9F756C0F901E65CFE4FB0
:1025000080818F5F843011F0808301C010820E942F
:10251000120E1092CC022091DE0181E0820F809396
:1025200036028091CD028823F1F1205B46E667E018
:1025300080EBDF91CF911F910F910C94D20B81E032
:10254000809336028091CB02811106C0DF91CF913A
:102550001F910F910C94B80DDF91CF911F910F91A6
:102560000C94970DF901EE0FFF1FE20FF31FEB57CD
:10257000FD4FEC0FFD1F8081811110C080919102F1
:102580008F5F0FC0F901EE0FFF1FE20FF31FEB5734
:10259000FD4FEC0FFD1F80818111F0CF80919102E2
:1025A000815080939102DF91CF911F910F910895F7
:1025B0003FB7F8948091C1049091C204A091C304E4
:1025C000B091C40426B5A89B05C02F3F19F0019611
:1025D000A11DB11D3FBFBA2FA92F982F8827820FA9
:1025E000911DA11DB11DBC01CD0143E0660F771FF8
:1025F000881F991F4A95D1F70895CF93DF9300D094
:1026000000D0CDB7DEB78150F8949CE099838F70ED
:10261000806C8A836F776B831C828091B30444E063
:1026200050E0BE016F5F7F4F8F5F0E942A0B809149
:10263000B3048F5F8093E9008091F200882319F042
:102640008AE38093E80078940F900F900F900F909A
:10265000DF91CF910895823108F08251E82FF0E0A8
:10266000E558F94FE49180917B00E3FB222720F9A4
:1026700030E095E0220F331F9A95E1F78F7D282BEC
:1026800020937B00E770E064E0937C0080917A0007
:10269000806480937A0080917A0086FDFCCF8091DF
:1026A00078002091790090E0922B08958F929F926C
:1026B000AF92BF92CF92DF92EF92FF926B017C01BB
:1026C0000E94D8124B015C01C114D104E104F10451
:1026D000F1F00E94D812DC01CB0188199909AA09EE
:1026E000BB09883E9340A105B10570F321E0C21AF1
:1026F000D108E108F10888EE880E83E0981EA11C3D
:10270000B11CC114D104E104F10419F7DDCFFF902D
:10271000EF90DF90CF90BF90AF909F908F900895F3
:102720002FB7F8946091BD047091BE048091BF04EE
:102730009091C0042FBF08951F920F920FB60F9271
:1027400011242F933F938F939F93AF93BF938091C7
:10275000BD049091BE04A091BF04B091C00430911B
:10276000BC0426E0230F2D3720F40296A11DB11DD5
:1027700005C029E8230F0396A11DB11D2093BC04B9
:102780008093BD049093BE04A093BF04B093C00493
:102790008091C1049091C204A091C304B091C4047B
:1027A0000196A11DB11D8093C1049093C204A09312
:1027B000C304B093C404BF91AF919F918F913F9197
:1027C0002F910F900FBE0F901F901895CF93DF930E
:1027D000CDB7DEB7A2970FB6F894DEBF0FBECDBF60
:1027E000789484B5826084BD84B5816084BD85B5EC
:1027F000826085BD85B5816085BD80916E008160F8
:1028000080936E001092810080918100826080939D
:10281000810080918100816080938100809180009F
:10282000816080938000809191008260809391000C
:1028300080919100816080939100809190008160EF
:10284000809390008091C10084608093C10080914A
:10285000C10082608093C1008091C100816080933B
:10286000C1008091C30081608093C3008091C0004B
:1028700082608093C0008091C20081608093C2001A
:1028800080917A00846080937A0080917A008260DF
:1028900080937A0080917A008E7F80937A00809175
:1028A0007A00806880937A00109278021092730206
:1028B000109272028091D70081608093D70080EAE5
:1028C0008093D80089B58F7E89BD89B5826089BD26
:1028D00009B400FEFDCF61E070E080E090E00E946E
:1028E00056138091D8008F7C80618093D8008091AE
:1028F000E000807F8093E0008091E1008E7E8093F5
:10290000E1008DE08093E2008FEF80937E0083EF03
:1029100080937D00E2E2F6E0859194912FB7F894E0
:10292000FC01FF278291892B80832FBFEAE2F6E02A
:10293000859194912FB7F894FC01FF27DF018E91C8
:10294000392F309583238C938081892B80832FBFEF
:10295000E0E4F2E022E532E0819191914FB7F89402
:10296000DC01BB278E91892B8C934FBF2E173F071D
:1029700099F72198299A22982A9A23982B9A85E8E0
:1029800093E00E94950D803149F484E893E00E9421
:10299000950D8531D1F48093350217C060E185E84B
:1029A00093E00E94810D07E410E060E0C8010E94FE
:1029B000810D60E0C80180579E4F0E94810D0F5F1E
:1029C0001F4F0A34110589F7E0CF8CE290E00E9496
:1029D000950D8330D1F11092CF0280E00E94410624
:1029E00081E08093CF020E94410682E08093CF0273
:1029F0000E9441061092CF0283E08093360208E2E3
:102A000010E0C8010E94950D682FC80180579E4FA5
:102A10000E94810D0F5F1F4F003421E0120789F7DC
:102A200005EE12E0C8010E94950D682FC801CF96EF
:102A30000E94810D0F5F1F4F043233E0130791F79F
:102A400063E08CE290E00E94810D85E290E00E94BC
:102A5000950D833011F40E9493070E94080C0E9488
:102A6000C70486E10E942B1386E10E942B1386E1A6
:102A70000E942B13909376028093750290935A04D0
:102A8000809359040E94120E80913502853151F5D0
:102A90008FE090E09093BB018093BA0180917A001F
:102AA000887F80937A0080917A00856080937A0095
:102AB00080E1809381001092800081E08093740215
:102AC00028EA32E0309387002093860091E19093CA
:102AD000810022ED33E030930101209300018093C7
:102AE0006F0029C080E1809381001092800091E006
:102AF0009093740220E931E03093870020938600A0
:102B000021E12093810020E834E0309301012093FB
:102B1000000190936F008093810080917A00887FFC
:102B200080937A0084E880937A0080E480937C002C
:102B300081E00E94DA0DABE67A2EBEECCB2EDD24CE
:102B4000DA94F8948091130490911404A0911504E0
:102B5000B091160440911704509118046091190423
:102B600070911A04841B950BA60BB70B8F739927D2
:102B7000AA27BB27892B8A2B8B2BD1F58091B304F5
:102B80009FB7F89487708093E9008091F2009FBF0F
:102B9000882309F441C040911304509114046091BA
:102BA0001504709116044F5F5F4F6F4F7F4F4F7347
:102BB0005527662777278091170490911804A091D4
:102BC0001904B0911A0484179507A607B70781F076
:102BD0008091B3049FB7F89487708093E900809147
:102BE000F2009FBF8091B304909178029111E3C3EA
:102BF0008091170490911804A0911904B0911A04BF
:102C0000880F991F880F991FFC01ED5EFC4F908182
:102C100081810281138104C010E000E080E090E037
:102C20008090130490901404A0901504B0901604A2
:102C300040911704509118046091190470911A047E
:102C400084169506A606B706C1F040911704509168
:102C500018046091190470911A044F5F5F4F6F4F11
:102C60007F4F4F735527662777274093170450935C
:102C700018046093190470931A047894992309F442
:102C8000E0C3073708F05DCF8F70863009F059CF69
:102C900081E080933602063609F0E0C19FEF910F84
:102CA000923168F5212F30E010FD1EC03595279533
:102CB000F901EE0FFF1FEB55FD4F808191810597C4
:102CC000918380834091BA015091BB01F601E41BCE
:102CD000F50B8E0F9F1F0597D0F42D5E46E667E03B
:102CE00080EB0E94D20B13C0F9013196EE7FEB55B9
:102CF000FD4F8081918105969183808308C01331B7
:102D000081F40E94DB0783E08093360210C01E37F7
:102D1000E1F481E08093CD02109236020E948F0F81
:102D200006C01F37A1F710923602809312038FED71
:102D3000810F8B3108F04EC0E0911C04F0E0E25EA0
:102D4000FD4F80830E94120E45C01A3739F01E31A4
:102D500011F00C949C2810921C04E9CFE12CF12C6A
:102D600053E0A52EC7010E94950DB82E20E34AE638
:102D700067E080EB0E94D20B2B2D2F7747E767E0AF
:102D800080EB0E94D20B21E34AE667E080EB0E94D1
:102D9000D20B2B2D30E0220F232F221F330B47E7BE
:102DA00067E080EB0E94D20B23E34AE667E080EB0A
:102DB0000E94D20B63E070E080E090E00E94561326
:102DC000A0923602FFEFEF1AFF0AE11424E0F206A8
:102DD00049F6ADCF2CE3A22EB12C80E0E12EF12CF0
:102DE00099249394980EEA14FB0451F48093CF0233
:102DF0001092CC020E94120E0E948F0F9092360207
:102E0000892D3FEFA31AB30A833051F796E4A92E18
:102E1000B12C8AEB8A0DEA14FB0469F4E091CF022D
:102E2000F0E0E35CFE4F80830E94120E8091EC0282
:102E30008F5F809336024FEFA41AB40A59E4A516A7
:102E4000B10439F780E5A82EB12C80EB8A0DEA1485
:102E5000FB0469F4E091CF02F0E0E65CFE4F808372
:102E60000E94120E8091DE018F5F809336026FEF19
:102E7000A61AB60A75E5A716B10439F7809139018B
:102E80002AE530E096EA920FE216F30609F0982F51
:102E90002F5F3F4F2236310511F0892FF3CF9093EA
:102EA00039018091CF02B0913602A8E28A9FB00129
:102EB000112440E050E0A0E09A1799F0AF5F4B5F1B
:102EC0005F4FA830C9F7B0933602E2E8F2E0B3E012
:102ED0008B9FA00111244B575D4F20E030E061E053
:102EE00032C0FB01E40FF51FE05CFE4F24E630E04A
:102EF0000F2EFCE9BF2EF02DB20EE216F30611F4F0
:102F0000B082B0E02F5F3F4F2037310589F70F2E99
:102F1000F0E9BF2EF02DB20EE216F30609F4B182ED
:102F20002F5F3F4F2537310591F7C8CF153771F423
:102F3000DA01A20FB31F1C9210822F5F3F4F319610
:102F40002330310551F09213F8CFF0CF1637A9F79F
:102F5000DA01A20FB31F6C93EFCF1B3719F40E9455
:102F6000410652C01C3799F4F12C33E0E32E8F2D2B
:102F70000E9441060E94080C0E94C7040E94120E83
:102F8000E0923602F394E3E0FE12F1CF71C01D37F8
:102F900009F06EC028EBE22EFF24F394C7010E94D3
:102FA000950D682FC701805991400E94810DFFEF58
:102FB000EF1AFF0A20EDE21622E0F20679F794E21A
:102FC000E92E93E0F92EC7010E94950D682FC701E5
:102FD000CF970E94810D3FEFE31AF30A43E6E41610
:102FE00043E0F40681F780913502863188F40E942F
:102FF000080C0E9493070E94C70481E08093CD02D1
:103000000E94120E0E948F0F83E08093360230C020
:10301000E12CF12CC7010E94950D682FC701429643
:103020000E94810D5FEFE51AF50A62E1E616F104F0
:1030300089F78BEDE82E82E0F82EC7010E94950DEE
:10304000682FC7010A970E94810D7FEFE71AF70AE0
:1030500085EEE81682E0F80681F7C9CF0736A9F4B5
:10306000E091CF02F0E0EA5CFE4F10830E94120E66
:10307000FDE2AF2EF1E0BF2EAFE6EA2EF12C802E5E
:10308000912CB1E86B2E610E2CC0053789F7E090CA
:10309000CF02F12CC701880F991FDC01A05DBE4F44
:1030A0007D01212F30E0AFEFBFE10E94732924E6BC
:1030B00030E040E050E00E945129F7013183208345
:1030C000D5CF123390F4D5011C930E94120EFFEF5E
:1030D000EF1AFF0A2FEFA21AB20A32E7E316F10441
:1030E00039F08E149F0499F7ECCFF5016082EDCF93
:1030F000083629F48FEF810F80932C0163C00936C5
:10310000E1F580912C01E091CF028C3048F44CE045
:10311000E49FF0011124E85FFE4FE80FF11D2BC082
:10312000813250F455E1E59FF0011124E152FE4F48
:10313000E80FF11D3C971FC0813219F410931B0456
:1031400041C0823269F4F0E0EE0FFF1FE458FD4FFA
:1031500060E8169FC001112420911B04822B61C0DE
:103160008E3280F576E0E79FF0011124E053FD4FA9
:10317000E80FF11DB797108323C00A3619F51031F7
:1031800008F18CEE810F893058F58091CF0290E0E4
:10319000880F991FFC01EE5FFE4F8CEE810F41E01E
:1031A00050E060E070E004C0440F551F661F771FB9
:1031B0008A95D2F780819181482B592B5183408386
:1031C0000E94120E309139018091CF02A8E28A9FAD
:1031D000C0011124805C9E4F40E050E020E0DAC046
:1031E00082EE810F893000F58091CF0290E0880F48
:1031F000991FFC01EE5FFE4F82EE810F21E030E06F
:1032000040E050E004C0220F331F441F551F8A9531
:10321000D2F7DA01C901809590952081318182230E
:10322000932391838083CCCF173239F4E091CF027E
:10323000F0E0E758FD4F1082C3CF183241F4E0911F
:10324000CF02F0E0E758FD4F81E08083B9CF19321B
:1032500059F5E0905904F0905A04E091CF02F0E063
:10326000EE0FFF1FE458FD4FF182E08222E248E6B4
:1032700067E080EB0E94D20B2E2D2F7749E667E0A6
:1032800080EB0E94D20B23E248E667E080EB0E94CD
:10329000D20B9701220F232F221F330B49E667E041
:1032A00080EB0E94D20B8CCF1A3231F482E08093F3
:1032B00012031092360286CF1B32A9F520915904D1
:1032C00030915A04E090CF0245E1E49EC001112400
:1032D000BC0161527E4F7B01822F8F77DB015396B9
:1032E0008C9353975901AA0CAB2CAA1CBB0854967B
:1032F000AC9220E248E667E080EB0E94D20BF70137
:10330000238949E667E080EB0E94D20B21E248E680
:1033100067E080EB0E94D20B2A2D49E667E080EB44
:103320000E94D20B4FCF1D3209F04CCFE12CF12C73
:10333000C70142960E94950D682FC7010E94810D1A
:10334000FFEFEF1AFF0A22E1E216F10489F7BBED65
:10335000EB2EB2E0FB2EC7010A970E94950D682F55
:10336000C7010E94810D3FEFE31AF30A45EEE41610
:1033700042E0F40681F726CF0A3679F4103120F4C2
:10338000FC01E40FF51F12832F5F4B5F5F4F283066
:1033900009F4D7CB3213F8CFEFCF0B3629F4FC0169
:1033A000E40FF51F1383F0CF0C3671F7FC01E40F27
:1033B000F51F1483E9CF3FB7F89487708093E90035
:1033C0008091F20090E08530910514F084E090E067
:1033D000282FFE013196215038F0A4E6A093770201
:1033E000A091F100A193F7CF009721F02091F20076
:1033F000222321F13FBF049709F0FACB80911304F7
:1034000090911404A0911504B0911604880F991F8F
:10341000880F991FFC01ED5EFC4F09811A812B81F9
:103420003C810083118322833383409313045093A0
:1034300014046093150470931604B5CB7092E800E1
:10344000D9CF0E94901300918004109181042091A3
:10345000820430918304DC01CB01801B910BA20B11
:10346000B30B0597A105B10508F48EC050907F04F9
:1034700062E572E07E876D8782E394E09E838D83B0
:10348000ADE1B4E0BC87AB8759E2E52E54E0F52E00
:103490006CE2862E64E0962E73E2C72E74E0D72E7F
:1034A000E5E3AE2EE4E0BE2EF8E36F2EF4E07F2ECF
:1034B00000E214E0A4E02A2E44244394ED85FE8526
:1034C00081919191FE87ED87FC01FF273297208142
:1034D000892F992730E082239323892B11F00C94B4
:1034E000E427D8018C91882319F08150D8018C935E
:1034F000D8016C9161110C94B227ED81FE8140825C
:10350000AB85BC855C9051100C94A327F70180819A
:1035100081110C94A327D5014C9255245394F601A4
:10352000819191916F018D32914010F00C94DB27C5
:10353000AD81BE818D91BE83AD83EB85FC8581938A
:10354000FC87EB87FFEFEF1AFF0A2FEF821A920A30
:103550003FEFA31AB30A4FEF641A740A0F5F1F4FAD
:1035600068E572E08D859E856817790709F0A6CF1A
:1035700050927F040E9490136093800470938104A2
:10358000809382049093830480917F04882309F4BC
:1035900075C180913B04882351F0809139048823C0
:1035A00031F01092390410927F0410923B04809104
:1035B0003504882309F445C080913404811141C049
:1035C0008091330481113DC0E091CF020E2F10E0B5
:1035D00095E1E99FF0011124E152FE4F228921304B
:1035E000A9F48091690490916A049695879508974B
:1035F00069F41092350420932F048091CB0281113D
:1036000003C00E94B80D02C00E94970D86E0809F03
:10361000F001819FF00D1124E053FD4F828188233A
:1036200081F08091690490916A0496958795803124
:10363000910531F51092350481E080932F040E94AA
:10364000520F48E3E42E44E0F42E52E8452E52E0B7
:10365000552E65E3A62E64E0B62E79E2272E74E09F
:10366000372EECE28E2EE4E09E2EF3E26F2EF4E095
:103670007F2EAFE2CA2EA4E0DA2E00E010E049C0AF
:103680000297F9F61092350481E080932F040E948E
:103690002A11D7CF8091CF0290E0FC01EE0FFF1FDF
:1036A000E80FF91FEB57FD4FE00FF11F80818111EB
:1036B00036C0209132048091330490E0820F911D36
:1036C00020913404820F911D892B49F1D4018C91F2
:1036D000811131C0D5018C91811156C00F5F1F4FF0
:1036E0004FEFE41AF40A5FEF451A550A6FEFA61A76
:1036F000B60A7FEF271A370A8FEF881A980A92E0E6
:10370000690E711CAFEFCA1ADA0A0330110509F409
:103710007BC00D83D7018C918823C1F2BBCFF6010A
:103720008081811103C08D810E944311D7011C92B9
:10373000F6011082CBCF209132048091330490E0C7
:10374000820F911D20913404820F911D019711F673
:103750008091CF0290E0FC01EE0FFF1FE80FF91FF0
:10376000EB57FD4FE00FF11F80818111B3CF8D81A9
:103770008B5F0E94431121E0F1012083D4011C9250
:10378000F30111821082A6CF1C922091CF0230E06B
:10379000F901EE0FFF1FE20FF31FEB57FD4FE00F94
:1037A000F11F8081882309F499CFB5E0B09FF00123
:1037B000B19FF00D112448E2429FC001439F900D3C
:1037C0001124E80FF91FE05CFE4F50815D835130FA
:1037D00069F48181811182CF24814381628180E9F2
:1037E0000E94D20BED81D201EC9378CFFD81F530B0
:1037F00019F40E94800F72CF2D81263011F00C94A5
:10380000FB270E94710F6ACF809133048823A1F1B6
:10381000809138048823B1F08091CF0290E0FC01C0
:10382000EE0FFF1F8E0F9F1FFC01EB57FD4F808196
:10383000811108C01092380481E080933B0483E03A
:103840000E94431180913A048823B1F08091CF0205
:1038500090E0FC01EE0FFF1F8E0F9F1FFC01EB5746
:10386000FD4F8181811108C010923A0481E080935C
:103870003B0484E00E94431110927F048091360241
:10388000882309F445C00E94901300913C041091D4
:103890003D0420913E0430913F04DC01CB01801BAC
:1038A000910BA20BB30B883C9105A105B10580F1EA
:1038B0000E94901360933C0470933D0480933E04F7
:1038C00090933F0480918E02E2E2F6E0882399F023
:1038D000859194912FB7F894FC01FF2780819095F2
:1038E000892380832FBF80913602815080933602D6
:1038F00010928E020DC0859194912FB7F894FC011F
:10390000FF278081892B80832FBF81E080938E02E7
:1039100010911203112309F404C180918E028111C8
:103920003DC0E2E2F6E0859194912FB7F894FC0156
:10393000FF278081892B80832FBF81E080938E02B7
:103940000E9490136093400470934104809342045A
:103950009093430480911203813081F08091CE02D4
:10396000882309F4DEC01092A8021092A7028FEFFC
:1039700090E09093EF028093EE02D3C0E9EAF2E088
:10398000A0EFB2E089EB92E02FEF30E011921192BC
:103990002D933D938E179F07C9F7E0CF1130B1F4F7
:1039A0000E949013C0904004D0904104E0904204E3
:1039B000F0904304DC01CB018C199D09AE09BF09CD
:1039C00081319742A105B105D0F05DC0123009F0F8
:1039D00070C00E949013C0904004D0904104E090C9
:1039E0004204F0904304DC01CB018C199D09AE091F
:1039F000BF0989389341A105B10528F15CC0E7EA08
:103A0000F2E02FE634E06EEE72E0D9018D919D91E7
:103A10009D01428153814817590710F49383828393
:103A2000DB0112964D915C9113978417950724F44E
:103A300013969C938E93129732966E5F7F4FB2E0EF
:103A4000E73BFB0711F78091CE028823D1F08091EC
:103A50006D0490916E042091A7023091A80228175E
:103A6000390720F49093A8028093A7022091EE02D8
:103A70003091EF028217930724F49093EF02809322
:103A8000EE021130B1F40E949013009140041091A5
:103A900041042091420430914304DC01CB01801B9E
:103AA000910BA20BB30B81319742A105B105C0F474
:103AB00038C01230B1F50E9490130091400410916B
:103AC00041042091420430914304DC01CB01801B6E
:103AD000910BA20BB30B89389341A105B10508F1F5
:103AE0000E94DB078091D0012EEC3FEF281B3109AB
:103AF000E7EAF2E003E912E088EFE82EFF24FA9407
:103B000061917191620F731FC7010E94FD29769523
:103B10006795D8016D937D938D01B2E0E93BFB077A
:103B200079F7F894EDE6AE2EE4E0BE2ED50180E004
:103B300090E0FC01EE0FFF1FE050FD4F208131812E
:103B40002D933D9301968930910599F77894409192
:103B5000350250911203AEEEB2E0EDE6F4E04631EC
:103B600058F0511109C0808191812D913C9111979C
:103B7000821B930B918380838081918197FF02C088
:103B8000118210823296129624E0EF37F20739F74D
:103B90008091BA019091BB014EEC5FEF4A01881A07
:103BA000990A0091690410916A0447EA52E0588723
:103BB0004F83FA01ADE6B4E080E090E06D917D9135
:103BC00021913191790152E3E51AF108E616F706E1
:103BD00078F421E030E040E050E0082E04C0220FED
:103BE000331F441F551F0A94D2F7022B132B16C004
:103BF000280D391D2617370788F041E050E060E0B6
:103C000070E0082E04C0440F551F661F771F0A94EA
:103C1000D2F79A012095309502231323019689301B
:103C2000910561F610936A04009369048091B801CC
:103C30009091B9018017910709F418C11093B90147
:103C40000093B8018091CD02882379F0212F220FB3
:103C500007FD216042E767E080EB0E94D20B202F36
:103C600043E767E080EB0E94D20BE091CF02F0E0E7
:103C7000E25EFD4F4081842F90E08D30910508F089
:103C8000F5C0FC01EA5AFF4F0C94112A98012C7FD1
:103C90003327369527953695279520935204220F82
:103CA000331FF901E251FB4FE4918E2F90E0443035
:103CB00011F401FD0197F901E151FB4FE491E0930B
:103CC0006104D7C010FD04C082E080936104D6C0B7
:103CD00098012E7F33273695279520935204B901FA
:103CE000660F771FFB01E251FC4FE4918E2F90E0AD
:103CF000FB01E151FC4FE491E09361044A3009F08B
:103D0000B8C02D7F283409F474C0283609F4BFC028
:103D1000B0C010FFB3C0F801EE7FFF27F695E7951E
:103D2000E0935204E857FA4F72C0C801807899278F
:103D300010FD06C0892B09F09EC0ECE4F0E0A9C09C
:103D4000892B09F49BC0F801EE77FF27F695E795DC
:103D5000E0935204E255FC4F5AC0C80196958795EE
:103D600099270E94FB0D80935204ECE9F3E020E0D8
:103D700030E09491891306C0F901EE0FFF1FE3565E
:103D8000FC4F45C02F5F3F4F32962930310589F7F0
:103D9000F801F695E795E0935204FF27E456FD4FAE
:103DA000E491F0E0309709F074C060C0F801EE7F54
:103DB000FF27F695E795E0935204E45EFD4F27C098
:103DC00010FF17C0F801EE7FFF27F695E795E09307
:103DD0005204E456FE4F1BC010FD0EC0C80124E083
:103DE000969587952A95E1F70E9709F44AC007FD45
:103DF0004BC0E7E4F0E04DC007FF49C0F801EE77A3
:103E0000FF27F695E795E0935204E45EFE4FE491B8
:103E1000F0E03FC0F801EC7FFF27F695E795F695B7
:103E2000E795E0935204E452FF4FE491F0E001FF84
:103E300016C0EF32F10599F0E433F10581F0E53376
:103E4000F10569F0E633F10551F0EB33F10539F096
:103E5000EC33F10521F0ED33F10509F0319610FF57
:103E600018C0E233F105ACF03C9613C0EFEFFFEF62
:103E700010C0FC010EC0EBE4F0E00BC0EAE4F0E09F
:103E800008C0E6E4F0E005C0E8E4F0E002C0E5E4E4
:103E9000F0E0F0936C04E0936B0480916B049091DC
:103EA0006C04019661F120916B0430916C04809157
:103EB000340290E08217930711F18091ED02811195
:103EC00018C08091EC028230A1F010936804009336
:103ED0006704E2E2F2E0A3EEB2E024E332E0119202
:103EE00011921D922E173F07D1F7882311F40C94DD
:103EF0000E2880916B0490916C0480933402809121
:103F0000E202882309F40BC1F89480918F0290910A
:103F100090029093500480934F04789400914F0442
:103F2000109150048091590490915A048017910780
:103F300009F4F5C0E091CF0265E1E69FF00111249C
:103F4000E152FE4F8289833051F580914E048111F8
:103F500015C0848970E8879FC00111242389822BB2
:103F6000059680179107DCF481E080934E048091E0
:103F7000CB02811114C00E94B80D11C08489A0E841
:103F80008A9FC00111242389822B081719073CF44A
:103F900010924E048091CB0281110E94970D809166
:103FA000340290E0CC974091C201489F9001499F14
:103FB000300D11248091C7019091C801820F931F89
:103FC0009093C4018093C30180914D04882311F420
:103FD0000C9446280E949013C0904904D0904A0443
:103FE000E0904B04F0904C04AB01BC014C195D090E
:103FF0006E097F098091C0019091C101092E000CCA
:10400000AA0BBB0B481759076A077B0710F40C94DF
:10401000462810924D0440914D04411152C08091A8
:10402000480481114EC02091DE01213021F580919C
:10403000590490915A04B801681B790B8091BD0115
:1040400090E086179707BCF48091C5019091C60156
:104050008017910784F483E08093660420934D04D5
:104060000E9490136093490470934A0480934B0418
:1040700090934C0421C080916604833011F5222373
:1040800001F12091590430915A04201B310B809189
:10409000BC0190E082179307A4F481E0809366044A
:1040A000809348040E9490136093440470934504E5
:1040B000809346049093470410935A040093590444
:1040C0002EC08091C5019091C6018017910714F010
:1040D00081E01DC08091DE01813069F48091480447
:1040E00041110BC0811109C08091C3019091C4019D
:1040F0008017910724F082E00AC081110AC08091E4
:10410000C3019091C401801791071CF483E0809350
:10411000660410935A04009359041092E202B0917D
:10412000D502BD83BB23B1F080912102813071F4AF
:1041300080916604813051F00E9490136093620474
:104140007093630480936404909365048091660483
:10415000809321029091920280919102ECE09E9FC7
:10416000800D112480935404F0916604FB878090A5
:10417000CF02F330C1F4E82DF0E0E25EFD4F908114
:10418000209134029C3011F42E3368F02E3321F448
:10419000913049F09A3039F0973011F0845F01C0C6
:1041A000895F809354042091DE012D87233051F5DF
:1041B000882D90E0FC01E25EFD4F4081413009F422
:1041C000CBC74A3009F4C8C72091690430916A040A
:1041D0002170332756E0589FF001599FF00D1124AC
:1041E000E053FD4F838190E02817390799F58091BE
:1041F00054049CE0980F473019F0909354042AC05F
:10420000895F26C03D85323029F5882D90E0FC017C
:10421000E25EFD4F2081322F3B7F11F02630D1F43A
:1042200040916A044D8B1E8A2D893E892170332767
:1042300046E0489FF001499FF00D1124E053FD4FE7
:10424000838190E02817390729F480915404845F12
:1042500080935404912CF401E25EFD4F10811530DF
:1042600021F480915404815005C01C3029F48091C0
:1042700054048E5F80935404D090ED02DD20E1F170
:104280001230D1F1209161042230B0F58FEF9FE11F
:104290009093D2018093D101213051F42091CE012D
:1042A0003091CF01821B930B9093D2018093D10167
:1042B000E090D101F090D2018091A5029091A602E8
:1042C000E80EF91EF092D201E092D1018091CC016A
:1042D0009091CD01E816F90679F09701220F232F6E
:1042E000221F330B4E2D4F7761E080EE0E94D20BE0
:1042F000F092CD01E092CC010E94901340905D04B9
:1043000050905E0460905F0470906004DC01CB010B
:1043100084199509A609B7090F97A105B10508F4F5
:1043200007C50E94901360935D0470935E048093B0
:104330005F049093600485E1889DF001899DF00DF4
:104340001124E152FE4F8081882309F4ACC086E03D
:10435000889DF001899DF00D1124E053FD4F81816E
:104360008111A1C02091C5013091C6018091C30186
:104370009091C401BC01621B730B75956795620F28
:10438000731F5B85533019F4680F791F9C0180916E
:10439000590490915A048617970758F545E1489DAE
:1043A000F001499DF00D1124E152FE4F4181FB01C6
:1043B000E81BF90B84E1489FA0011124E49FC00190
:1043C000E59F900DF49F900D1124621B730B0E94CA
:1043D000FD29669FB001112453E0759567955A95A4
:1043E000E1F77195619571097093A6026093A5023A
:1043F00014C0861B970B25E1289DF001299DF00D27
:104400001124E152FE4F4181489F9001499F300D98
:1044100011243093A6022093A50285E1889DF00126
:10442000899DF00D1124E152FE4F8181A8EC8A9FF5
:10443000C00111242091A5023091A6028217930792
:1044400024F49093A6028093A5020091EC0202301E
:1044500009F040C1E090A502F090A602B1E0EB1A8D
:10446000B0EEFB0AF092D201E092D1018091CC0132
:104470009091CD01E816F90609F46BC680915604B7
:10448000882309F466C69701220F232F221F330BBE
:104490004E2D4F7761E080EE0E94D20BF092CD015D
:1044A000E092CC0156C6D11018C10091EC02023046
:1044B00009F4B4C26090D001712CE0915104EF83F3
:1044C0002091690430916A043A8B298B8091CB0149
:1044D00044E050E0481B51095C8B4B8B20916704F2
:1044E000309168046091C9017091CA01788F6F8B17
:1044F0008091CE019091CF019A8F898FA2E2B2E094
:10450000B88BAF87E3EEF2E0FE8FED8F89EB282EBC
:1045100082E0382E93E9492E92E0592EFD0180E089
:1045200090E049895A890F8002C0569547950A94B0
:10453000E2F7BA01617077277C8F6B8F011127C07A
:10454000D5014D915C9164167506E4F4BF81B813F2
:104550001EC06B8D7C8D672BD1F446195709D20193
:10456000ED90FC904E9DB0014F9D700D5E9D700DC5
:1045700011240B8802C0769567950A94E2F771833F
:10458000608305C0AD8DBE8D1C9211821082682F94
:10459000A901082E02C0569547950A94E2F740FFFC
:1045A00017C0D5014D915C91461557058CF4C12C6F
:1045B000D12C7601C394082E04C0CC0CDD1CEE1C5B
:1045C000FF1C0A94D2F7A601409550952423352369
:1045D0004F89588D062E02C0569547950A94E2F7EA
:1045E00040FF47C0A901062E02C0569547950A9480
:1045F000E2F740FD3EC0013019F0BF81B817C9F1A4
:10460000D5014D915C91A989BA8902C0B695A7954B
:104610006A95E2F7BD0164167506CCF4A0FD1EC0D4
:1046200046195709D101CD90DC904C9D70014D9DEC
:10463000F00C5C9DF00C1124F694E794F694E7944A
:10464000F182E08241E0AD8DBE8D4C9307C0AD8D0F
:10465000BE8D1C9260FF0DC011821082AD8DBE8D8B
:104660004C91413031F460FF04C0498D5A8D518323
:104670004083019632966D8D7E8D6F5F7F4F7E8F6A
:104680006D8F72E0270E311CA2E0AA0EB11CB2E0C1
:104690004B0E511C8930910509F050CF30936804BE
:1046A0002093670424E332E080E090E0EF85F8890E
:1046B00041915191F88BEF87840F951F2E173F077B
:1046C000A9F79093D2018093D101811590420CF407
:1046D0006EC1E0C0DD2009F4EDCE8091610482302E
:1046E00019F0123009F09AC11092D2011092D10142
:1046F000812F8B7F09F070C06091730470917404F6
:104700002091D00130E080917104909172042617BD
:104710003707BCF5A0916904A3FD33C0621B730B7E
:10472000E091BF02F091C0026E9FA0016F9F500DFB
:104730007E9F500D11245695479556954795509359
:10474000D2014093D10128173907CCF5A2FD37C01B
:10475000BC01621B730B2091BD023091BE02629FAF
:10476000C001639F900D729F900D112496958795BF
:1047700096958795480F591F5093D2014093D101C8
:104780001EC0281739070CF012C14091690442FD80
:104790000EC1821B930B4091BD025091BE02849FBB
:1047A0009001859F300D949F300D1124C90196957D
:1047B0008795969587959093D2018093D1018091AA
:1047C000CE019091CF012091D1013091D201821779
:1047D000930708F461C0EBC0113019F01A3009F0EA
:1047E00060C04091690450916A0450FD29C043FDA6
:1047F000DEC080917304909174042091D00130E068
:104800004091CE015091CF0128173907A4F4821BA3
:10481000930B6091BF027091C002869F9001879FA9
:10482000300D969F300D1124C90196958795969568
:104830008795481B590B5093D2014093D101B7C0C3
:1048400080917304909174042091D00130E0281776
:104850003907C4F443FD16C0821B930B4091BF027D
:104860005091C002849F9001859F300D949F300D20
:104870001124C90196958795969587959093D201B5
:104880008093D1018091D1019091D2018115904204
:104890000CF48DC08FEF9FE19093D2018093D101F2
:1048A00086C0123009F083C02090690430906A04F9
:1048B00080915204482F50E0588B4F87009134026A
:1048C000B101662771707A8B698B8091D001A82F16
:1048D000B0E0BC8BAB8B4090CE015090CF016624F2
:1048E000772464187508A6E2B2E073EEE72E72E052
:1048F000F72EE9EBCE2EE2E0DE2E22E030E080E083
:1049000090E0A101022E02C0569547950A94E2F765
:1049100040FD21C0F901319741E050E060E070E0D6
:1049200004C0440F551F661F771FEA95D2F74F8FBB
:1049300058A369A37AA3EF85F889E42BF52BE857F0
:10494000FA4F4491401709F4CAC369897A89672BE1
:1049500009F4C5C305C011961C921E92F70112827C
:104960004D915D91840F951F2F5F3F4FFFEFEF1A21
:10497000FF0A4F8158854E5F5F4F58874F8352E043
:10498000C50ED11C62E0A60EB11C2430310509F021
:10499000B8CF9093D2018093D101919581959109DF
:1049A0004816590620F47092D2016092D1012091EC
:1049B000D1013091D2018FEF9FE1821B930B2091A7
:1049C000A5023091A602820F931F97FD05C0909318
:1049D000D2018093D10104C01092D2011092D10172
:1049E000E090D101F090D2018091CC019091CD0165
:1049F0008E159F0599F080915604882379F09701D0
:104A0000220F232F221F330B4E2D4F7761E080EEB4
:104A10000E94D20BF092CD01E092CC01A0905904FB
:104A2000B0905A0480915B0490915C048A199B09B0
:104A300097FF03C091958195910903970CF44BC1A1
:104A40008091CD028823D1F065010B2C000CEE087B
:104A5000FF082C2D2F7744E767E080EB0E94D20BF4
:104A6000A7019601F7E05695479537952795FA9552
:104A7000D1F746E767E080EB0E94D20B85E1889D85
:104A8000F001899DF00D1124E152FE4F02810130A9
:104A900021F07D81713009F01AC185E1889DF00116
:104AA000899DF00D1124E152FE4FE781C090DB019A
:104AB000D090DC01E12CF12CC5010B2C000CAA0BD1
:104AC000BB0B9C01AD012C193D094E095F09A0E209
:104AD000B3E00E944629A8E0EA9F900111242C59D6
:104AE0003F4F2901330F66087708A30192012C1963
:104AF0003D094E095F090E94272957FD0EC021324A
:104B0000B3E03B074105510574F469017A01E4E61D
:104B1000CE0ED11CE11CF11C0CC0E4E6CE2ED12C33
:104B2000E12CF12C06C074E8C72E73E0D72EE12CDF
:104B3000F12C85E1889DF001899DF00D1124E15251
:104B4000FE4F8381813009F584EC9CE1A1E0B0E067
:104B50008093D7019093D801A093D901B093DA0143
:104B6000A7019601C701B6010E94ED299B01AC0186
:104B7000C701B6010E94ED2920E137E240E050E094
:104B80000E94512969017A012DC08230F9F484E82C
:104B90009CE1A0E0B0E08093D7019093D801A0936E
:104BA000D901B093DA0160E17CE58CE090E0A701E7
:104BB00096010E94512968E0C62E60E2D62EE12CB3
:104BC000F12CC21AD30AE40AF50A0CC084E893E077
:104BD000A0E0B0E08093D7019093D801A093D901D1
:104BE000B093DA012091D5013091D601A90160E09E
:104BF00070E04F83588769877A874090D30150903F
:104C0000D401612C712CA701960124563109410968
:104C100051096F81788589859A8564197509860996
:104C200097090E94ED29C090D701D090D801E0905B
:104C3000D901F090DA01A701960124563109410902
:104C400051090E942729DA01C901840D951DA61D6D
:104C5000B71D84159505A605B7054CF457E0759466
:104C60006794579447945A95D1F7242D13C02F81F8
:104C7000388549855A85281739074A075B0714F490
:104C8000DA01C90147E0B595A795979587954A95AB
:104C9000D1F7282F3D81313059F48091560481118C
:104CA00005C0822F880F8093DD0102C02093DD01B3
:104CB000013069F485E1889DF001899DF00D112492
:104CC000E152FE4F4581648180EB0E94D20BB0928D
:104CD0005C04A0925B04809158048F5F8A3019F0C5
:104CE0008093580425C010925804EAE2F6E08591BA
:104CF0009491FC01FF2732972081892F992730E07A
:104D00008223932321E0892B09F420E02093CE0213
:104D100080915704821761F0209357048091CD024F
:104D2000882331F0285846E667E080EB0E94D20BDA
:104D3000F0905604FF20A1F02091340230E08091E1
:104D4000550490E040915404841B910947FD9395CC
:104D50002817390729F44B85413009F0AEC0A2C0AD
:104D60005B85523058F086E0889DF001899DF00DFA
:104D70001124E053FD4F8181882389F086E0889DCE
:104D8000F001899DF00D1124E053FD4F81818823AE
:104D900009F482C08091CC02882309F47DC08091FF
:104DA00053048E3389F42091340280915404082EE8
:104DB000000C990B820F911D8635910529F4809185
:104DC000E202882309F468C06D81611103C01330C9
:104DD000E9F417C0F110FBCF0E94901340906204D9
:104DE000509063046090640470906504DC01CB0112
:104DF00084199509A609B7094497A105B10538F7A3
:104E000098C0809134028C3309F446C07D8573309C
:104E100059F08091CE02882339F0809169049091F5
:104E20006A048F3F9140C1F1E09034020091540434
:104E30000E0D2091DD01402F61E080E90E94D20B30
:104E4000FF2039F020E44091550461E080E80E94A1
:104E5000D20B0E94901360935D0470935E04809364
:104E60005F049093600400935504E092530481E042
:104E70008093560485E1889DF001899DF00D1124F1
:104E8000E152FE4F8289823009F065CF8091CB02DA
:104E9000811161CF0E94B80D80915604882309F4D6
:104EA00048C059CF86E0889DF001899DF00D1124FE
:104EB000E053FD4F8181882319F186E0889DF00140
:104EC000899DF00D1124E053FD4F8181882321F04D
:104ED0008091CC028823A1F0133021F48091340218
:104EE0008C3371F0BD85B33021F18091CE028823DF
:104EF00001F18091690490916A048F3F9140C9F457
:104F000020E44091550461E080E80E94D20B1092A9
:104F1000560485E1889DF001899DF00D1124E15230
:104F2000FE4F8289823029F48091CB0281110E9448
:104F3000970D80E090E0892B11F40C949B150E9452
:104F400000000C949B15F5011082552011F40C946F
:104F50008D1AD6018D919C91119701968D939C93FA
:104F60000C948F1A70E080E090E00E94892920E084
:104F700030E040E850E40E94E82987FF02C00C942A
:104F80008F1AED81FE811082D8012C92EB85FC8571
:104F90008081882339F0D7019C91911103C0F301DE
:104FA0004082582ED4011C92F7011082D6011D9226
:104FB0001C920C948F1AD7018C9181110C94981A21
:104FC000F40140820C94981AF8013080632D70E04F
:104FD00080E090E00E94892920E030E040E850E441
:104FE0000E94822987FD02C00C94781A3394F8013C
:104FF00030820C94781AFD81FA3021F4809191026C
:105000008F5F08C03D813B3011F00C946E1B809186
:1050100091028150809391020C946E1BE091CF021B
:10502000F0E0E25EFD4F80818530A9F048F48230E7
:10503000E9F4E0916B04F0916C04E65CFA4F1CC05B
:10504000873081F0883091F4E0916B04F0916C042A
:10505000EF5CFA4F11C0E0916B04F0916C04EE5CD0
:10506000FA4F0AC081E08093CB0109C0E0916B0444
:10507000F0916C04ED5CFA4FE491E093CB01C80130
:105080000E94FB0D809351040C94791F8091480479
:10509000882311F40C940B200E949013C0904404B8
:1050A000D0904504E0904604F0904704AB01BC0169
:1050B0004C195D096E097F098091BE019091BF0175
:1050C000092E000CAA0BBB0B481759076A077B0770
:1050D00010F40C940B20109248040C940B20F50152
:1050E000448155816B897C8964177507F4F4EF81DD
:1050F000F8856481758162537109641B750BF60133
:105100000480F581E02D6E9FA0016F9F500D7E9F62
:10511000500D1124569547955695479551954195B3
:10512000510911965C934E9303C011967C926E9236
:1051300041E0F701428314CC1F3111F481E005C036
:10514000103211F00C94971682E080931C040C949A
:105150009716D110C2CA62CC912CF401E25EFD4FC9
:1051600010818AC882E08093B4048093B5048AEBEE
:1051700094E09093B7048093B6041092B90410920F
:10518000B80485E692E09093B1048093B00480E87F
:105190008093BA0481E88093BB040E94460DFC0111
:1051A00021818091B40490E0820F911D0897C4F58D
:1051B000A281B381109729F480EB94E093838283DA
:1051C0000EC018968D919C911997009711F0DC01F3
:1051D000F8CF80EB94E019969C938E93189780817A
:1051E0008093B20481818093B30490818091B5044F
:1051F000890F808380E09091B404891788F4A0918E
:10520000B604B091B704A80FB11D9C91A181B0E084
:10521000A75CBD4F9C9391819F5F91838F5FEBCF84
:105220000895F999FECF92BD81BDF89A992780B56E
:105230000895262FF999FECF1FBA92BD81BD20BDDA
:105240000FB6F894FA9AF99A0FBE01960895052EB2
:1052500097FB1EF400940E943E2957FD07D00E9440
:10526000512907FC03D04EF40C943E2950954095EB
:10527000309521953F4F4F4F5F4F08959095809502
:10528000709561957F4F8F4F9F4F08950E947329AE
:10529000A59F900DB49F900DA49F800D911D11248A
:1052A0000895A1E21A2EAA1BBB1BFD010DC0AA1F67
:1052B000BB1FEE1FFF1FA217B307E407F50720F07F
:1052C000A21BB30BE40BF50B661F771F881F991FFA
:1052D0001A9469F760957095809590959B01AC0143
:1052E000BD01CF010895A29FB001B39FC001A39F4C
:1052F000700D811D1124911DB29F700D811D11240F
:10530000911D08950E94C42908F481E00895E8944D
:1053100009C097FB3EF490958095709561957F4FFD
:105320008F4F9F4F9923A9F0F92F96E9BB279395AB
:10533000F695879577956795B795F111F8CFFAF4BB
:10534000BB0F11F460FF1BC06F5F7F4F8F4F9F4FEC
:1053500016C0882311F096E911C0772321F09EE84A
:10536000872F762F05C0662371F096E8862F70E0B0
:1053700060E02AF09A95660F771F881FDAF7880F8A
:105380009695879597F90895990F0008550FAA0BE0
:10539000E0E8FEEF16161706E807F907C0F0121648
:1053A0001306E407F50798F0621B730B840B950B4B
:1053B00039F40A2661F0232B242B252B21F40895A0
:1053C0000A2609F4A140A6958FEF811D811D08953D
:1053D0000E94C42908F48FEF0895DB018F939F93F7
:1053E0000E944629BF91AF91A29F800D911DA39F5E
:1053F000900DB29F900D11240895AA1BBB1B51E183
:1054000007C0AA1FBB1FA617B70710F0A61BB70B34
:10541000881F991F5A95A9F780959095BC01CD01D9
:105420000895EE0FFF1F0590F491E02D099481E09F
:0C54300090E0F8940C941C2AF894FFCF34
:10543C005F0CFF00FF00FF000F0F0F0F1E1E030776
:10544C000A0709090F0F0F0F1E1E03081C070F1662
:10545C000F0F0F0F1E1E03081C070F166400000809
:10546C000004000400040A0A0A640101000101029C
:10547C00020000000008000000000300000000050E
:10548C00000000000600000000000000000000000A
:10549C0000000000000000000200000000080000F6
:1054AC0000000300000000050000000006000000E2
:1054BC0000000000000000000000000000000000E0
:1054CC0002000000000800000000030000000005BE
:1054DC0000000000060000000000000000000000BA
:1054EC000000000000000000010004000F0F0F007E
:1054FC000F000FFF0004010000FF0101FF1F00045B
:10550C000AFF1F7F00FF3F200300006400400100E2
:10551C0003000001070064007F0001332400013305
:10552C00240000000003000001070064007F00015C
:10553C0033240001332400000000030000010700A5
:10554C0064007F00013324000133240000000001BB
:10555C000201FF1FFF1FFF1FFF1FFF1FFF1FFF1F6A
:10556C00FF1FFF1FFF1601010F00C180810000000B
:10557C0025802B80251028402E402B082B042B0136
:10558C002B0225022508250405090A000102030B3C
:10559C000600000000560C6C0C530C620C4D494478
:0255AC004900B4
:00000001FF
