:100000000C94F6020C941E030C941E030C941E0315
:100010000C941E030C941E030C941E030C941E03DC
:100020000C941E030C941E030C94F4080C94840985
:100030000C941E030C941E030C941E030C941E03BC
:100040000C941E030C941E030C941E030C941E03AC
:100050000C94160F0C941E030C941E030C947B1529
:100060000C941E030C941E030C941E030C941E038C
:100070000C941E030C941A080C941E030C941E037B
:100080000C941E030C941E030C941E030C941E036C
:100090000C941E030C941E030C941E030C941E035C
:1000A0000C941E030C941E030C941E033113FD13B9
:1000B000211447144E1458147B148814B5144A4A5A
:1000C0004A4A4A4A4A4A4A4A4A4A4A4A4A4A4A4A90
:1000D0004A4A4A4A4A4A4A4A4A4A4A4A4A4A4A4A80
:1000E0004A4A4A4A4A4A4A4A4A4A4A4A4A4A4A4A70
:1000F0004A4A4A4A4A4A4A4A4A4A4A4A4A4A494962
:10010000494949494949494949494949494949495F
:10011000494949494949484848484848484847475B
:100120004747474747474747474747474747454563
:10013000454545454444434445434241403E464687
:10014000464646464646464646464646464646464F
:10015000464646464646464646464646464646463F
:10016000464646464646464646464646464646462F
:100170004646464646464646464646464646454521
:10018000454545454545454545454545454545451F
:100190004545454545454545454545454545444411
:1001A0004444444444444444444444444444434311
:1001B000434343434343424242424141403E4B4A10
:1001C0004A494A4949484A494948494848474A49A1
:1001D000494849484847494848474D4C4C4B4A498B
:1001E0004948494847464E4D4D4C4D4C4C4B48476D
:1001F0004746474646454D4C4C4B4C4B4B4A49486D
:100200004847484746454847464547464645484784
:100210004746474646454746464546454544474680
:100220004645464545444645454445444443454482
:100230004443444343424342424141403E3F4B4B8F
:100240004B4B4B4B4B4B4B4B4B4B4B4B4B4A4B4BFF
:100250004B4B4B4B4B4B4B4B4B4B4B4B4B4B4B4BEE
:100260004B4B4B4B4B4B4B4B4B4949494949504AE4
:100270004A4A4A4A4A4A4F4A4E4A4D4A4B4A5454BD
:10028000544949495454544949494949494953539E
:1002900053535353534B4B4B4B4B4B4B534B525270
:1002A0005252525252525252525251515152505035
:1002B0005050505050504F4F4E4E4D4C4B4A4A4A62
:1002C0004A4A4A4A4A4A4A4A4A4A4A4A4A4A4A4A8E
:1002D0004A4A4A4A4A4A4A4A4A4A4A4A4A4A494980
:1002E00049494949494949494949494949494B4B7A
:1002F0004B4B4B4B4B494B4B4B4B4B4B4B4B484856
:100300004848484848484848484848484848474A6C
:10031000474747474747474747474747474746466F
:100320004646464646464546464645454646444474
:100330004444444444444343424241403F3E7F3C62
:10034000003E014002420343044505470649074A6F
:10035000484848484848484848484848484848481D
:10036000484848484848484848484848484848480D
:1003700048484848484848484848484848484848FD
:1003800048484848484848484848484848484849EC
:1003900047474747474747474747474747474747ED
:1003A00047474747474747474747464647474747DF
:1003B00045454545454545454545454545454545ED
:1003C000434343434343434342424141403F3E3C16
:1003D00049004902490049004900490149004900D2
:1003E00049004900490049004900490049004900C5
:1003F00049004900490049004900490049004900B5
:1004000049004900490049004900490049004900A4
:100410004900490049004900490049004900490094
:100420004900490049004900490049004900490084
:100430004802480248004802480148014800480173
:100440004800480248004800480048014800490068
:10045000470047024700470247004701470047015E
:100460004600470046004700470047004700470056
:100470004700470047004700470047004700470044
:100480004700470047004700470047004700470034
:10049000450045024500450245004501450045012E
:1004A0004400450044004500450045004500450026
:1004B000430043024300430243004301430043011E
:1004C0004200420041004200400040003F003E0028
:1004D00049004900490049004900490049004900D4
:1004E00049004900490049004900490049004900C4
:1004F00049004900490049004900490049004900B4
:1005000048024801480148014800480048004A00A4
:10051000470247014701470147004700470047009E
:100520004700470047004700470047004700470093
:10053000450245014501450145004500450044008F
:1005400043024301430143014200410040003E0099
:100550000101020101020102010102010201020185
:10056000020201020101020102012B042B082B02ED
:100570002B012B1028402B802E40251025202540B4
:1005800025802B402880250825022504250131805F
:10059000314031203110310231012B102B802510D8
:1005A000252025402B400403090412010002EF021C
:1005B0000140D80487EE0001010203014D6F7772FC
:1005C0007920537472696E67656420496E73747222
:1005D000756D656E747300574152424C00070605F5
:1005E000040100080A0B0C0D0900712911241FBE1B
:1005F000CFEFDAE0DEBFCDBF12E0A0E0B1E0EAEB82
:10060000F5E502C005900D92AC36B107D9F724E0AC
:10061000ACE6B2E001C01D92AD3BB207E1F712E0DB
:10062000C6EFD2E004C02197FE010E94D02AC53F48
:10063000D107C9F70E94C5150C94DB2A0C94000061
:1006400040917C0450917D0420917A0430917B0488
:1006500042175307B4F49091E8009570E1F390913C
:10066000E80092FD19C08093F10080917C04909184
:100670007D0401968F739927892B19F48EEF80934F
:10068000E80080917C0490917D04019690937D0414
:1006900080937C0481E0089580E00895DF92EF92DA
:1006A000FF920F931F93CF93DF93D82EF92EE42E52
:1006B000062F10E0C8010196880F0E94200383E0F6
:1006C0000E942003CD2DDF2D0C0F1D1FC017D10759
:1006D00089F0E7FE03C0FE01849101C088810E9479
:1006E0002003F82E80E00E9420038F2121968111A3
:1006F000EDCF01C081E0DF91CF911F910F91FF906D
:10070000EF90DF900895CF93DF938091920489302A
:1007100069F486E10E9444159093C0028093BF0261
:100720001092920481E08093E50298C080912F029C
:10073000882391F1E0919204F0E0EE0FFF1FE65C58
:10074000FD4F808191812FB7F894FC01FF278081B4
:10075000892B80832FBF80919204883041F485E0FB
:100760000E944415909381048093800412C0C0912C
:100770009204D0E02196E0919204F0E0EE5AFD4F11
:1007800081810E944415CC0FDD1FC058DB4F998337
:10079000888310922F0262C080912F0281115EC067
:1007A000C0919204D0E0E0919204F0E0EE5AFD4F47
:1007B00080810E944415CC0FDD1FC65EDC4F9983FB
:1007C0008883E0919204F0E0EE0FFF1FE65CFD4F9E
:1007D000808191812FB7F894FC01FF27808190954B
:1007E000892380832FBFE09192048E2F90E0E091C7
:1007F0009204F0E0EE0FFF1FE65EFC4F2081318196
:10080000E0919204F0E0EE0FFF1FE058FB4F4081B3
:100810005181241B350BFC01EE0FFF1FE65EFC4FE0
:1008200031832083E0919204F0E0EE0FFF1FE65E3B
:10083000FC4F8081918197FF09C0E0919204F0E024
:10084000EE0FFF1FE65EFC4F118210828091920432
:100850008F5F8093920481E080932F02DF91CF918C
:10086000089580917F048F5F80937F0480917F043F
:10087000823011F42F9A089580917F04833069F4B7
:1008800080E18093810084E00E94960F81E0809354
:100890002F021092920410927F0408950F931F93D9
:1008A000CF93DF931F92CDB7DEB719820E94020F5C
:1008B000DC0112960D911C9113970115110589F019
:1008C000D801ED91FC910280F381E02DBE016F5FB4
:1008D0007F4FC801099597FD04C0F8010085118577
:1008E000ECCF89810F90DF91CF911F910F910895E7
:1008F0002F923F924F925F926F927F928F929F9230
:10090000AF92BF92CF92DF92EF92FF920F931F931D
:10091000CF93DF93CDB7DEB766970FB6F894DEBFFF
:100920000FBECDBF209130028091C3019091C401D0
:10093000AC01E4E02E9F400D511D11245C8B4B8BCC
:1009400041EC52E058874F8386E792E09E838D8387
:10095000E5E8F2E0FA87E98742E852E05C874B87F6
:1009600088E892E09E878D87E8E0F1E0FC83EB83E6
:10097000612C712C212C312C412C512C44E650E05F
:100980005A83498300E010E01E8A1D8A8D899E8962
:10099000845C9E4F0E94510F91E0811101C090E054
:1009A000EF81F8859193F887EF838D899E89805B2D
:1009B0009F4F0E94510FED81FE818193FE83ED8355
:1009C0008D899E89C8960E94510FE985FA85819389
:1009D000FA87E9878D899E89875C9E4F0E94510F17
:1009E000EB85FC858193FC87EB878D899E898D96AD
:1009F0000E94510FED85FE858193FE87ED878D89DD
:100A00009E89CC960E94510FED89FE89EB54FE4FD2
:100A100080838D899E898A5B9F4F0E94510FED894B
:100A2000FE89EE54FE4F80838D899E89C2960E9476
:100A3000510FED89FE89EA5CFE4F8083C8018D5A13
:100A40009F4F0E94510FF82EC8018C5A9F4F0E9451
:100A5000510FF801EE5FFE4F2F2D30E0382B318320
:100A60002083C801875A9F4F0E94510FF82EC8015A
:100A7000865A9F4F0E94510FF801E05DFE4F2F2DC7
:100A800030E0382B318320838D899E89815A9F4F96
:100A90000E94510FED89FE89ED58FD4F8083C801FA
:100AA0008F5E9E4F0E94510FF82EC8018E5E9E4FA2
:100AB0000E94510FF801E758FD4F2F2D30E0382BE1
:100AC00031832083C12CD12C7301FBE1EF1AFDEFA0
:100AD000FF0AC7018C0D9D1D0E94510FF601E60D06
:100AE000F71DE552FE4F80833FEFC31AD30A45E15D
:100AF000C416D10471F7C12CD12C71015CEFE51A39
:100B00005EEFF50AC7018C0D9D1D0E94510FEB8110
:100B1000FC81EC0DFD1D80838FEFC81AD80A9CE084
:100B2000C916D10479F7EB89FC89F093C601E093EB
:100B3000C5017201FAEFEF0EF11CA20145575D4F9E
:100B40005A0162015DEFC50ED11CC7010E94510F11
:100B500091E0811101C090E0F50191935F01FFEFF9
:100B6000EF1AFF0ACE14DF0481F7A101440F551FCD
:100B70005A8B498BA980BA80E12CF12C89899A89FA
:100B80008E0D9F1D988B8F874501C12CD12CC401E0
:100B90000E94510FEF85F889EC0DFD1DE75CFE4FBB
:100BA00080839FEF891A990AE5E0CE0ED11CF8E206
:100BB000CF16D10461F73FEFE31AF30A4AE0A40E1F
:100BC000B11C55E0E516F104C9F68D899E890196A0
:100BD0009E8B8D8B0E5F1F4FE981FA81F296FA830F
:100BE000E983F3E04F0E511C34E1230E311C4B819D
:100BF0005C81445F5F4F5C834B8355E1650E711CE4
:100C0000039709F0C3CE66960FB6F894DEBF0FBE09
:100C1000CDBFDF91CF911F910F91FF90EF90DF90AB
:100C2000CF90BF90AF909F908F907F906F905F908C
:100C30004F903F902F900895CF92DF92EF92FF92C6
:100C40000F931F93CF93DF93D82EC82FD0E0E0915E
:100C5000E002F0E0EF53FD4F6081CE01845C9E4FD7
:100C60000E943D0FE091E002F0E0EA58FD4F608104
:100C7000CE01805B9F4F0E943D0FE091E002F0E0CB
:100C8000E852FE4F6081CE0188960E943D0FE091B0
:100C9000E002F0E0E35DFE4F6081CE01C5960E9468
:100CA0003D0FE091E002F0E0EB57FD4F6081CE0197
:100CB000C8960E943D0FE091E002F0E0EE57FD4F34
:100CC0006081CE01875C9E4F0E943D0FE091E00263
:100CD000F0E0E857FD4F6081CE018D960E943D0FF8
:100CE000E091E002F0E0EA5CFE4F6081CE01C29646
:100CF0000E943D0FE091E002F0E0EB54FE4F608176
:100D0000CE01CC960E943D0FE091E002F0E0EE545F
:100D1000FE4F6081CE018A5B9F4F0E943D0F8E0186
:100D2000000F111FE091E002F0E0EE0FFF1FEE5FF9
:100D3000FE4F6081C8018D5A9F4F0E943D0FE09188
:100D4000E002F0E0EE0FFF1FEE5FFE4F6181C80191
:100D50008C5A9F4F0E943D0FE091E002F0E0EE0FB1
:100D6000FF1FE05DFE4F6081C801875A9F4F0E94C0
:100D70003D0FE091E002F0E0EE0FFF1FE05DFE4F5F
:100D80006181C801865A9F4F0E943D0FE091E002A9
:100D9000F0E0ED58FD4F6081CE01815A9F4F0E94D7
:100DA0003D0FE091E002F0E0EE0FFF1FE758FD4F2E
:100DB0006081C8018F5E9E4F0E943D0FE091E0026E
:100DC000F0E0EE0FFF1FE758FD4F6181C8018E5E16
:100DD0009E4F0E943D0F84E1D89E80011124C0E007
:100DE000D0E08CE0F82E0C5F1E4F8091E002FE01F7
:100DF000F89EE00DF11D1124E85FFE4F6081C801EF
:100E00008C0F9D1F0E943D0F2196CC30D10569F7B4
:100E100085E1D89E80011124C0E0D0E035E1F32EB9
:100E20000B511D4F8091E002FE01F89EE00DF11D77
:100E30001124E552FE4F6081C8018C0F9D1F0E9456
:100E40003D0F2196C531D10569F783E0D89E800119
:100E50001124E12CF12C06501F4F8091E00290E00C
:100E6000FC01EE0FFF1FE80FF91FE557FD4FEE0DD8
:100E7000FF1D6081C8018E0D9F1D0E943D0F8FEFE9
:100E8000E81AF80A83E0E816F10439F782E3D89EFD
:100E9000E0011124CC59DF4FE12CF12C85E0D82E54
:100EA00098E2C92E00E010E08091E002D09EF001AF
:100EB000D19EF00D1124C89EE00DF11D1124E75CB8
:100EC000FE4FEE0DFF1D6081C8018C0F9D1F0E941B
:100ED0003D0F0F5F1F4F0830110531F78FEFE81AF4
:100EE000F80A2A9685E0E816F104E1F6DF91CF9141
:100EF0001F910F91FF90EF90DF90CF900895BF92D8
:100F0000CF92DF92EF92FF920F931F93CF93DF93D5
:100F10002CEAE22E22E0F22E35EFC32E32E0D32E61
:100F200001ED12E0C2E1D0E0CE010E94510FB82ED7
:100F3000CE0101960E94510F2B2D30E0322F222737
:100F4000282BF701219331937F01C8010E94510F93
:100F500090E0F601819391936F0122960F5F1F4FEE
:100F6000C432D10509F780912D02853131F48FE02B
:100F700090E09093B9018093B801DF91CF911F91D8
:100F80000F91FF90EF90DF90CF90BF900895AF92B8
:100F9000BF92CF92DF92EF92FF920F931F93CF9366
:100FA000DF930CEA12E085EFC82E82E0D82E91ED97
:100FB000E92E92E0F92EC2E1D0E0F8016181CE0184
:100FC0000E943D0FF80160810E5F1F4FCE01019618
:100FD0000E943D0FF6016081F2E0CF0ED11CC701E7
:100FE0000E943D0F22968FEFE81AF80AC432D1050D
:100FF00021F71092070363E085E290E00E943D0F25
:10100000E4E8F5E0859194912FB7F894FC01FF276F
:1010100080819095892380832FBF1092BE02DF913B
:10102000CF911F910F91FF90EF90DF90CF90BF90E5
:10103000AF9008951F920F920FB60F9211242F9325
:101040003F934F935F936F937F938F939F93AF9350
:10105000BF93EF93FF9380919204882321F0209116
:101060009204215001C028E0809192049091920452
:10107000983011F08F5F01C080E090919204993018
:1010800039F55998809178009091790090932B03CD
:1010900080932A0380912A0390912B03209190043E
:1010A00030919104821B930B90932B0380932A031E
:1010B00080912A0390912B0397FF04C010922B0379
:1010C00010922A0380916E028061809381007BC020
:1010D00030912F0290E0332309F45AC030919204EA
:1010E00031110CC020917800309179003093C0020A
:1010F0002093BF0221E02093E5022CC030E0220FB4
:10110000331FF901E65CFD4F408151816FB7F894C0
:10111000FA01FF2740815095452340836FBF4091DE
:10112000780050917900F901E65EFC4F51834083CD
:1011300040815181D901A058BB4F2D913C91BA01FA
:10114000621B730B718360832081318137FF02C082
:1011500011821082FC01EE5AFD4F80810E94960F91
:1011600010922F0280919204882369F1E0919204F9
:10117000F0E0EE0FFF1FE65CFD4F808191812FB7FD
:10118000F894FC01FF278081892B80832FBF1BC02F
:101190002091780030917900880F991FFC01E05868
:1011A000FB4F31832083E0919204F0E0EE5AFD4F33
:1011B00080810E94960F81E080932F02809192049B
:1011C0008F5F80939204FF91EF91BF91AF919F91B8
:1011D0008F917F916F915F914F913F912F910F90E0
:1011E0000FBE0F901F9018951F920F920FB60F927F
:1011F00011248F939F938091E1009091E100937F60
:101200009093E10083FF0FC01092E90091E090936A
:10121000EB001092EC0092E39093ED0010927202BA
:1012200098E09093F00082FF1CC093E09093E90057
:101230009091F200992319F09AE39093E80090912D
:101240007E04992329F090917E04915090937E041E
:1012500090917102992329F090917102915090938D
:10126000710284FF10C08091E2008E7E81608093C5
:10127000E2008091E1008F7E8093E10080916C021A
:101280008E7E806111C080FF11C08091E2008E7E51
:1012900080618093E2008091E1008E7E8093E10086
:1012A00080916C028E7E816080936C029F918F9101
:1012B0000F900FBE0F901F901895DF92EF92FF9244
:1012C0000F931F93CF93DF93D82E8A017B01E40EF7
:1012D000F51EEB01CE15DF0571F0D7FE03C0FE0150
:1012E000849101C088810E94200321968111F2CF50
:1012F0008FEF9FEF01C0C801DF91CF911F910F9138
:10130000FF90EF90DF9008951F920F920FB60F920B
:101310001124CF92DF92EF92FF920F931F932F939E
:101320003F934F935F936F937F938F939F93AF936D
:10133000BF93EF93FF93CF93DF93CDB7DEB76C9757
:10134000DEBFCDBF1092E9008091E80083FF6CC141
:1013500089E0FE017596EE2EDF2E815029F09091E6
:10136000F10090833196F9CF84E68093710282EF89
:101370008093E8008D8987FF05C09091E80090FF79
:10138000FCCF03C09EEF9093E800982F907609F071
:10139000C5C09E894F89588D2F89F88C91110CC03A
:1013A000803829F480916D028093F10002C0109280
:1013B000F1001092F10031C1913051F481112DC131
:1013C0004130510509F029C180916D028D7F0BC01C
:1013D000933061F4811121C14130510509F01DC1E3
:1013E00080916D02826080936D0217C1953049F43F
:1013F0008091E80080FFFCCF822F80688093E3001B
:101400000CC1963009F05DC00B8D1C8D22E010924E
:10141000E90010927D0410927C04F21232C0109206
:101420007B0410927A040E944E0499E0BE016F5F23
:101430007F4FDB01E92F1D92EA95E9F79983FA8244
:1014400091E09E8390EA98879AE0998720917C04A6
:1014500030917D04275F3F4F3C832B838D83109217
:10146000E90010927D0410927C0410937B04009399
:101470007A0449E050E080E00E945D090E944E0439
:10148000CCC010937B0400937A040E94020FDC010D
:1014900012960D911C9113970115110509F468C05E
:1014A000D801ED91FC910480F581E02D6E2D7D2D0C
:1014B000C8010995009709F056C0F801008511850B
:1014C000EBCF973009F4ADC0983021F481E08093E0
:1014D000F100A3C0993009F0A0C0837009F0A1C049
:1014E000E4E3F2E081E031E096E32081211109C0DC
:1014F0008EE78093EA001092EA008F89809372024F
:101500008CC08093E9003093EB0021912093EC0094
:101510009093ED008F5F873041F7EACF8B8D9C8DE4
:101520001092E90010927D0410927C0490937B0449
:1015300080937A040E94020FFC010281138101153D
:10154000110509F46EC0D801ED91FC910190F08174
:10155000E02D6E2D7D2DC801099581115EC0F80129
:1015600000851185ECCF181619060CF456C059C029
:10157000F1E0FF1609F446C0F3E0FF1252C08F8974
:10158000882309F442C0823029F440E865E087ED01
:1015900095E006C0813051F440E86AE18CEB95E0BB
:1015A0000E944E03882309F43CC037C08330C9F53C
:1015B0000E94020FDC011296ED90FC9013978E01B1
:1015C0000F5F1F4F6801E114F10479F0D701ED912D
:1015D000FC910680F781E02DB801C7010995080F3D
:1015E000111DF701E084F184EECFD8011C92F601C1
:1015F00001900020E9F73197BF016C197D0940E0A7
:10160000C601CECF6AEA75E002C066EA75E0FB016A
:10161000449150E080E80E945D098EEF8093E800DD
:1016200003C081E28093EB006C960FB6F894DEBFA6
:101630000FBECDBFDF91CF91FF91EF91BF91AF91E1
:101640009F918F917F916F915F914F913F912F91DA
:101650001F910F91FF90EF90DF90CF900F900FBEF2
:101660000F901F9018956F927F928F929F92AF92DA
:10167000BF92CF92DF92EF92FF920F931F93CF937F
:10168000DF93C82E8B017A0180917202811103C011
:101690008FEF9FEF7DC080916C0280FF05C080912D
:1016A000E00082608093E000CE2DDF2DD12C8AEF08
:1016B000B82E8C2D8770982E90E4892E8C2D8072F8
:1016C000782E8C2D8074682E2AE3A22E209719F490
:1016D000DD2009F459C08FB7F8949092E9009091F9
:1016E000E80095FF05C09091F200282D291B01C04C
:1016F00020E08FBF211106C0BA94BB2049F20E949E
:10170000FC14E4CF822F90E0C817D9070CF42C2FDB
:101710003FB7F8949092E9008091E80085FF32C0CD
:10172000822F90E0C81BD90B772029F02150A0F020
:101730001092F100FBCFF801C7FE0AC0215050F013
:1017400044914093F1003196F9CF41914093F100DB
:101750002150D8F7080F191FDD2019F0A092E800DA
:101760000AC08091E80085FD08C0A092E800DD2451
:10177000D394209739F0D12C05C0209719F461102B
:10178000A092E8003FBFA2CF84E680937E04C70109
:10179000DF91CF911F910F91FF90EF90DF90CF904D
:1017A000BF90AF909F908F907F906F900895CF9350
:1017B000DF9300D000D0CDB7DEB76150807FF894C2
:1017C000E82FF0E094E0F595E7959A95E1F7E98345
:1017D0006F70682B6A834F774B832F772C838091B0
:1017E000AB0444E050E0BE016F5F7F4F8F5F0E940B
:1017F000330B8091AB048F5F8093E9008091F200FE
:10180000882319F08AE38093E80078940F900F9072
:101810000F900F90DF91CF910895CF92DF92EF92CA
:10182000FF920F931F93CF9388EDC82E81E0D82E9F
:101830000DE211E0CFE695E3E92EF12CC7010D97FB
:101840000E94510FF6018083C7010E94510FF801D9
:1018500080838091DD028823C1F02FEA2C0F46E6B9
:1018600067E080EB0E94D70BF60120812F5D46E6F2
:1018700067E080EB0E94D70BF801208127FD2158FB
:101880004C2F67E080EB0E94D70BFFEFCF1ADF0AE7
:101890008FEFE81AF80A0F5F1F4FCF5FC23771F65C
:1018A000CF911F910F91FF90EF90DF90CF9008950F
:1018B0002F923F924F925F926F927F928F929F9260
:1018C000AF92BF92CF92DF92EF92FF920F931F934E
:1018D000CF93DF93CDB7DEB72B970FB6F894DEBF6B
:1018E0000FBECDBF0091F30208878091C90190E03F
:1018F0001091990219876090F1027090F202209184
:10190000BA0129836091EF027091F002A091310237
:10191000B0913202BB83AA83E091C701F091C80164
:10192000FD83EC83BAE1AB2EB2E0BB2E06EE12E0F3
:101930001B870A8718EC212E12E0312E08E0802E3A
:1019400003E0902E2AE9422E22E0522EF50140E0DB
:1019500050E09301098402C0369527950A94E2F776
:10196000D901A170BB27BF83AE83B885B11142C036
:10197000D4012D913C91821793079CF5B985B4133E
:1019800030C00E811F81012B61F51981113099F44E
:10199000D201CD90DC907901E81AF90AEC9C800123
:1019A000ED9C100DFC9C100D1124A3E016950795DD
:1019B000AA95E1F714C0B981B23099F4D201CD9063
:1019C000DC907901E81AF90AEC9C8001ED9C100D7D
:1019D000FC9C100D112416950795169507951183FB
:1019E0000083281739070CF0FBC0AA85BB851C9221
:1019F00011821082D42ED4012D913D914D012817D2
:101A00003907D4F48B01042E02C0169507950A9469
:101A1000E2F700FF11C0E12CF12C8701E394042EC2
:101A200004C0EE0CFF1C001F111F0A94D2F787019F
:101A300000951095602371230A811B810D2C02C033
:101A4000169507950A94E2F700FF5BC08B010D2CF9
:101A500002C0169507950A94E2F700FD52C0B885BA
:101A6000B13031F0B1114DC00985041709F449C0F6
:101A7000821793074CF583010D2C02C0169507952C
:101A80000A94E2F700FF09C0118210822817390773
:101A90003CF5AA85BB851C9223C0281B390BD101BC
:101AA000ED90FC902E9D80012F9D100D3E9D100D00
:101AB000112416950795169507951183008301E06B
:101AC000AA85BB850C930CC028173907ECF283015B
:101AD0000D2C02C0169507950A94E2F700FDD4CFAD
:101AE000AA85BB852C91213061F4930102C0369503
:101AF0002795DA94E2F720FF04C00C811D81118341
:101B000000834F5F5F4F32962A853B852F5F3F4FA3
:101B10003B872A8732E0230E311CA2E04A0E511C7B
:101B20004930510509F021CF7093F0026093EF0224
:101B300080E090E0F501219131915F01820F931FC8
:101B4000FCE2AF16F2E0BF06A9F79093CB018093B9
:101B5000CA018115904234F08FEF9FE19093CB0141
:101B60008093CA012091CA013091CB018FEF9FE190
:101B7000821B930B2091C6023091C702820F931FE4
:101B800097FD05C09093CB018093CA0104C01092C9
:101B9000CB011092CA014091CA015091CB018091B2
:101BA000D6019091D7018417950701F1188512305D
:101BB000E8F48091DC028823C9F09A01220F232FD8
:101BC000221F330B4F7761E080EE0E94D70B80918C
:101BD000CA019091CB019093D7018093D60106C0A2
:101BE000D42ED4012D913D914D0126CF2B960FB6C9
:101BF000F894DEBF0FBECDBFDF91CF911F910F9143
:101C0000FF90EF90DF90CF90BF90AF909F908F901C
:101C10007F906F905F904F903F902F90089580E05D
:101C200090E0089580E00895FC0182818F5BFB01C4
:101C3000808381E0089508950E94D62A84E0E7E633
:101C4000F2E0DB0101900D928A95E1F784E00895BE
:101C5000CF92DF92EF92FF920F931F93CF93DF9378
:101C6000CDB7DEB7C456D1090FB6F894DEBF0FBEAC
:101C7000CDBF6C01DB019C919E5F9C93FE01319670
:101C800084E6DF011D928A95E9F788E089838BE07D
:101C90008A8322E02C8391E09D839E8339E03987FB
:101CA00074E07A879E879F873A8B44E24B8B9C8BAC
:101CB00000E011E01E8B0D8B89E0E82EF12CF88EF0
:101CC000EF8A998F3B8F7C8F2F8F98A353E059A376
:101CD00087E08CA34DA39EA318A70FA301E410E0F7
:101CE0001AA709A786E08BA74CA72DA79EA79FA799
:101CF00089AB4AAB2BAB2CAB2DAB3FAB48AF59AF4D
:101D00009AAF5BAF9CAF2DAF9EAF21963FAF2197AF
:101D100022964FAF229723965FAF239724962FAF3B
:101D2000249725967FAF259726969FAF26972796CF
:101D30009FAF279728969FAF28972A963FAF2A975D
:101D400045E02B964FAF2B972D962FAF2D9760E444
:101D500070E02F967FAF6EAF2F9763964FAF63976C
:101D600085E264968FAF649765969FAF6597669698
:101D70009FAF669767969FAF679768963FAF6897E4
:101D800069964FAF69976B962FAF6B976D967FAF44
:101D90006EAF6D97A1964FAFA197A2968FAFA29706
:101DA000A3969FAFA397A4969FAFA497A5965FAF66
:101DB000A597D60112969C9112979B839B879F5F54
:101DC0009A8F9D8F13968C912C968FAF2C978F5F47
:101DD00080686A968FAF6A9744E650E0BF0180E062
:101DE0000E945D09CC59DF4F0FB6F894DEBF0FBEDD
:101DF000CDBFDF91CF911F910F91FF90EF90DF90BA
:101E0000CF9008958091A00481110DC082E080934D
:101E10009C0484E080939D0410929F0410929E0481
:101E200081E08093A0048CE994E008951F920F92C2
:101E30000FB60F9211242F933F934F935F936F939D
:101E40007F938F939F93AF93BF93EF93FF93E09113
:101E50000001F09101010995FF91EF91BF91AF91C0
:101E60009F918F917F916F915F914F913F912F91B2
:101E70000F900FBE0F901F9018951F93CF93DF9375
:101E8000EC01162F0E94D029181739F0612FCE01CE
:101E9000DF91CF911F910C94D829DF91CF911F91A1
:101EA00008950C94D0291092DA02E091E00285E1C5
:101EB000E89FF0011124E552FE4F8685813049F0FC
:101EC00018F0823059F0089521894089678580E9AA
:101ED00009C021894089678580E804C0218940893B
:101EE000678580EB0C94D70B81E08093DA02E09158
:101EF000E00285E1E89FF0011124E552FE4F828562
:101F0000813049F018F0823059F0089525854485D4
:101F1000638580E909C025854485638580E804C020
:101F200025854485638580EB0C94D70B823108F0BE
:101F30008251E82FF0E0E352FA4FE49180917B0068
:101F4000E3FB222720F930E095E0220F331F9A951A
:101F5000E1F78F7D282B20937B00E770E064E0930E
:101F60007C0080917A00886480937A0008959C01B7
:101F70002F5F3F4F28233923232B71F09C0140E032
:101F800050E080E01216130644F420FF842F3595AC
:101F900027954F5F5F4FF6CF8FE70895AF92BF92BF
:101FA000CF92DF92EF92FF920F931F93CF93DF9325
:101FB0008091E00290E0FC01EB57FD4F41E0208171
:101FC000211101C040E040939B0421E0FC01EE5749
:101FD000FD4F3081311101C020E02093DF02FC0170
:101FE000EA58FD4F008121E0011101C020E020935B
:101FF0009A049C01220F331FF901EE5FFE4F6081AE
:102000007181709332026093310251E0FC01E85714
:10201000FD4F6081611101C050E050939402FC01BA
:10202000E956FB4F50815093C502FC01E35DFE4F22
:1020300050815093C402FC01EB54FE4F50815093E9
:10204000F302FC01ED58FD4F108151E0111101C068
:1020500050E050939604F901E758FD4FC081D181BB
:10206000D0939504C0939404FC01EA5CFE4F508128
:102070005093C901F901E05DFE4F20813181309319
:10208000C8012093C701FC01EE54FE4F208120932C
:10209000C1012CE0289FF001299FF00D1124E85F79
:1020A000FE4F26E0429FE00DF11D1124F080F092DA
:1020B000300281818093C20182818093BC0183813F
:1020C0008093BB01848190E09093C0018093BF0115
:1020D000858190E09093BE018093BD018FEF9FE1D9
:1020E0009093CB018093CA011092C7021092C6024E
:1020F0000E946F156093E1027093E2028093E30205
:102100009093E4024091CA015091CB019A01220FB1
:10211000232F221F330B4F7761E080EE0E94D70BF5
:10212000EAE1F2E0A6EEB2E0119211921D9282E095
:10213000EC32F807C9F7002389F0E091E002F0E003
:10214000E852FE4F8081823010F0843039F4809163
:10215000F302813019F48093F40202C01092F40269
:1021600011110AC080916F029091700203969093B2
:10217000C4018093C30105C02396D093C401C093CA
:10218000C3018091C3019091C401A4E0FA9E800D27
:10219000911D11249093C6018093C5018091C901BE
:1021A0000EEC1FEF081B1109C091C701D091C801A7
:1021B00023E0CC0FDD1F2A95E1F7ECEAF2E03AE9E3
:1021C000C32E32E0D32E48ECE42E42E0F42E58EF3A
:1021D000A52EBB24BA9421913191200F311FC50146
:1021E000B9010E94BC2A76956795D6016D937D93BF
:1021F0006D01CE01B9010E94BC2A76956795D70181
:102200006D937D937D01B2E0EE3BFB0721F7E091FA
:10221000E00225E1E29FF0011124E552FE4F8681A4
:10222000A8E08A9FC00111248C599F4F9093D5013B
:102230008093D4018085B1E88B9FC00111249093D5
:10224000CD018093CC01818521E8829FC0011124BA
:102250009093CF018093CE01DF91CF911F910F9189
:10226000FF90EF90DF90CF90BF90AF900895CF9305
:10227000DF934091E00250E0C82FD0E0FA01EE0F6A
:10228000FF1FE40FF51FE557FD4FEC0FFD1F808189
:102290008823E9F085E08C9FF0018D9FF00D1124DB
:1022A00088E2849F9001859F300D1124E20FF31F77
:1022B000E75CFE4F818181110AC0248143816281E4
:1022C00080E90E94D70BC158DD4F81E08883DF9100
:1022D000CF910895EF92FF920F931F93CF93DF93C7
:1022E0002BE04EE667E080EB0E94D70B78EDE72EFF
:1022F00071E0F72E0DE211E0CFE62FEA2C0F46E653
:1023000067E080EB0E94D70BF70121917F012F5DE1
:1023100046E667E080EB0E94D70BF80121918F0120
:1023200027FD21584C2F67E080EB0E94D70BCF5F31
:10233000C23719F72091E002245C46E667E080EBA3
:102340000E94D70B2091C90147E667E080EB0E940D
:10235000D70B2091C7013091C801A4E6B0E00E94DC
:10236000322A2FEF3FE140E050E00E94102A45E77B
:1023700067E080EB0E94D70B2091F3022A5B46E6D0
:1023800067E080EB0E94D70B2091C101205B46E6FD
:1023900067E080EB0E94D70B2091DE02285846E6CA
:1023A00067E080EB0E94D70B20919402215C46E607
:1023B00067E080EB0E94D70B20919B042F5B46E6E1
:1023C00067E080EB0E94D70B2091DF022D5B46E691
:1023D00067E080EB0E94D70B2FEE32E04AE667E021
:1023E00080EB0E94D70B20919A04205F4AE667E0B9
:1023F00080EB0E94D70B20919604295D4AE667E0A6
:1024000080EB0E94D70B22E248E667E080EB0E9457
:10241000D70BC0919404D09195042C2F2F7749E6C7
:1024200067E080EB0E94D70B23E248E667E080EB91
:102430000E94D70B9E01220F232F221F330B49E648
:1024400067E080EB0E94D70BC0E0D0E0E091E002B3
:10245000F0E0EE0FFF1FEE5FFE4F208131810C2E6A
:1024600002C0369527950A94E2F72170220F822F39
:10247000880F880F280F8C2F8C5E280F4AE667E0A4
:1024800080EB0E94D70B2196C930D105F9F600E008
:1024900010E035E0E32E48E2F42E2AE5200F46E670
:1024A00067E080EB0E94D70B8091E002E09EE001A4
:1024B000E19ED00D1124FE01F89EE00DF11D1124C6
:1024C000E75CFE4F20812C5946E667E080EB0E94D6
:1024D000D70B8091E002FE01F89EE00DF11D112462
:1024E000E75CFE4F8081813099F52181205946E6D5
:1024F00067E080EB0E94D70B8091E002FE01F89E1E
:10250000E00DF11D1124E75CFE4F22814AE667E0F1
:1025100080EB0E94D70B8091E002FE01F89EE00D57
:10252000F11D1124E75CFE4F23814BE667E080EB51
:102530000E94D70B8091E002F89EC00DD11D11249E
:10254000C75CDE4F2C814CE667E080EB0E94D70B26
:102550000F5F1F4F0830110509F09FCFC0E0D0E09A
:1025600015E12C2F235F48E667E080EB0E94D70B34
:102570008091E002FE01189FE00DF11D1124E5524B
:10258000FE4F208149E667E080EB0E94D70B219641
:10259000C531D10531F7C0E0D0E02C2F265A46E6F0
:1025A00067E080EB0E94D70B8091E00290E0FC0195
:1025B000EE0FFF1FE80FF91FE557FD4FEC0FFD1F52
:1025C00020812B5846E667E080EB0E94D70B2196CE
:1025D000C330D10511F7C0E0D0E01CE02C2F2F5FF5
:1025E00048E667E080EB0E94D70B8091E002FE0195
:1025F000189FE00DF11D1124E85FFE4F208149E690
:1026000067E080EB0E94D70B2196CC30D10531F7E3
:10261000DF91CF911F910F91FF90EF9008950F934D
:102620001F93CF93DF934091E002C82FD0E0242F77
:1026300030E098E2499FF0011124A5E08A9FE00D67
:10264000F11D1124E75CFE4FE0818E2F90E0FC012C
:102650003197E930F10508F0A5C1EA5AFF4F0C9413
:10266000D02A85E08C9FF0018D9FF00D112448E267
:10267000429FC001439F900D1124E80FF91FE75CB2
:10268000FE4F8181811116C08E0101581D4FD80166
:102690008C91248143816281811107C080E90E946D
:1026A000D70B81E0F801808305C080E80E94D70B3A
:1026B000D8011C928091E00295E09C9FF0019D9FC3
:1026C000F00D1124B8E28B9FE00DF11D1124E75CA1
:1026D000FE4F8181813031F424814381628180EB1E
:1026E0000E94D70B8091E00295E09C9FF0019D9F96
:1026F000F00D112498E2899FE00DF11D1124E75C93
:10270000FE4F8181823021F4638182810E941615FF
:102710008091E00295E09C9FF0019D9FF00D1124B7
:10272000282F30E0A8E28A9FE00DF11D1124E75C1C
:10273000FE4F8181833061F5809193048F3720F4BF
:102740008F5F8093930402C01092930485E08C9F66
:10275000F0018D9FF00D112448E2429FC001439F7C
:10276000900D1124E80FF91FE75CFE4F6091930470
:1027700082810E94161581E080932E020E946F15BF
:1027800060939502709396028093970290939802BB
:102790008091E00295E09C9FF0019D9FF00D112437
:1027A000282F30E0B8E28B9FE00DF11D1124E75C8B
:1027B000FE4F8181843009F0F5C080919304882315
:1027C00011F0815001C08FE78093930485E08C9FC6
:1027D000F0018D9FF00D112448E2429FC001439FFC
:1027E000900D1124E80FF91FE75CFE4F60919304F0
:1027F00082810E94161581E071C0F901EB54FE4FF1
:1028000080818F5F833011F0808301C010820E942D
:10281000CE0F8091F3028F5F80932E020E946F157E
:10282000609395027093960280939702909398021A
:102830008091DD02882309F4B5C02091F3022A5B60
:102840008BC04F5F433019F04093E00202C01092FA
:10285000E0021092DB020E94CE0F8091E0028F5FB7
:1028600080932E020E946F156093950270939602DA
:1028700080939702909398028091DD02882309F457
:1028800091C0DF91CF911F910F910C946A1190919B
:10289000DB0281E089278093DB0284C08091C5023E
:1028A000833094F4F901E956FB4F80818F5F09C0B2
:1028B0008091C5028D3F44F0F901E956FB4F8081BC
:1028C000815080830E94CE0F8091C502082E000C9B
:1028D000990B97FF03C091958195910980932E02E2
:1028E0000E946F15609395027093960280939702F1
:1028F0009093980257C0C1E020E04BE76C2F80EB2B
:102900000E94D70B1092DA02CF5FC131A9F74AC0FB
:10291000F901EE54FE4F80818F5F843011F0808387
:1029200001C010820E94CE0F1092DB028091C10183
:102930008F5F80932E020E946F15609395027093B3
:10294000960280939702909398028091DD028823EB
:1029500049F12091C101205B46E667E080EBDF9101
:10296000CF911F910F910C94D70B81E080932E0291
:102970000E946F1560939502709396028093970260
:10298000909398028091DA02811106C0DF91CF9175
:102990001F910F910C94740FDF91CF911F910F91A4
:1029A0000C94530FDF91CF911F910F9108953FB772
:1029B000F8948091B9049091BA04A091BB04B091AD
:1029C000BC0426B5A89B05C02F3F19F00196A11D98
:1029D000B11D3FBFBA2FA92F982F8827820F911DB5
:1029E000A11DB11DBC01CD0143E0660F771F881FFB
:1029F000991F4A95D1F70895CF92DF92EF92FF92F7
:102A00000E94D7146B017C010E94D714DC01CB011A
:102A10008C199D09AE09BF09883E9340A105B105F7
:102A200098F3FF90EF90DF90CF900895CF93DF93CE
:102A300000D000D0CDB7DEB78150F8949CE09983E8
:102A40008F70806C8A836F776B831C828091AB045C
:102A500044E050E0BE016F5F7F4F8F5F0E94330BF9
:102A60008091AB048F5F8093E9008091F20088230E
:102A700019F08AE38093E80078940F900F900F90FC
:102A80000F90DF91CF910895823108F08251E82FA5
:102A9000F0E0E352FA4FE49180917B00E3FB2227C0
:102AA00020F930E095E0220F331F9A95E1F78F7DF2
:102AB000282B20937B00E770E064E0937C008091FA
:102AC0007A00806480937A0080917A0086FDFCCF42
:102AD000809178002091790090E0922B08952FB793
:102AE000F8946091B5047091B6048091B704909108
:102AF000B8042FBF08951F920F920FB60F921124A2
:102B00002F933F938F939F93AF93BF938091B5047F
:102B10009091B604A091B704B091B8043091B40478
:102B200026E0230F2D3720F40296A11DB11D05C00C
:102B300029E8230F0396A11DB11D2093B4048093AF
:102B4000B5049093B604A093B704B093B8048091F1
:102B5000B9049091BA04A091BB04B091BC04019651
:102B6000A11DB11D8093B9049093BA04A093BB0436
:102B7000B093BC04BF91AF919F918F913F912F91E2
:102B80000F900FBE0F901F901895CF93DF93CDB786
:102B9000DEB761970FB6F894DEBF0FBECDBF789455
:102BA00084B5826084BD84B5816084BD85B5826052
:102BB00085BD85B5816085BD80916E008160809303
:102BC0006E0010928100809181008260809381006C
:102BD000809181008160809381008091800081607C
:102BE0008093800080919100826080939100809119
:102BF000910081608093910080919000816080932A
:102C000090008091C10084608093C1008091C100D8
:102C100082608093C1008091C10081608093C10077
:102C20008091C30081608093C3008091C000826066
:102C30008093C0008091C20081608093C200809127
:102C40007A00846080937A0080917A008260809319
:102C50007A0080917A008E7F80937A0080917A004A
:102C6000806880937A001092720210926D02109226
:102C70006C028091D70081608093D70080EA8093B6
:102C8000D80089B58F7E89BD89B5826089BD09B4B8
:102C900000FEFDCF0E94FC148091D8008F7C8061E3
:102CA0008093D8008091E000807F8093E000809145
:102CB000E1008E7E8093E1008DE08093E2008FEF53
:102CC00080937E0083EF80937D00B4E82B2EB5E0E7
:102CD0003B2EF101859194912FB7F894FC01FF27C9
:102CE0008291892B80832FBFECE8F5E08591949148
:102CF0002FB7F894FC01FF27DF018E91392F309513
:102D000083238C938081892B80832FBFEAE3F2E0B9
:102D1000819191912FB7F894DC01BB278E91892B7B
:102D20008C932FBF22E0EC34F20791F72198299A77
:102D300022982A9A23982B9A84E893E00E94510FB4
:102D4000853111F480932D028CE290E00E94510FA6
:102D5000833009F444C01092E00280E00E941C0617
:102D600081E08093E0020E941C0682E08093E002F2
:102D70000E941C061092E00283E080932E020E94C3
:102D80006F156093950270939602809397029093CB
:102D9000980208E210E0C8010E94510F682FC80194
:102DA00080579E4F0E943D0F0F5F1F4F003431E050
:102DB000130789F705EE12E0C8010E94510F682F32
:102DC000C801CF960E943D0F0F5F1F4F043243E0B2
:102DD000140791F763E08CE290E00E943D0F85E2DA
:102DE00090E00E94510F833011F40E947F070E94EF
:102DF0000D0C0E94780486E10E94441586E10E9431
:102E0000441586E10E9444159093700280936F02EE
:102E100090936F0480936E040E94CE0F80912D02D8
:102E2000853151F58FE090E09093B9018093B8011E
:102E300080917A00887F80937A0080917A00856003
:102E400080937A0080E1809381001092800081E07D
:102E500080936E0228EA32E0309387002093860048
:102E600091E19093810023E833E0309301012093B6
:102E7000000180936F0029C080E18093810010924F
:102E8000800091E090936E0220E931E0309387005A
:102E90002093860021E12093810021E334E03093E8
:102EA00001012093000190936F0080938100809135
:102EB0007A00887F80937A0084E880937A0080E4A7
:102EC00080937C0081E00E94960FFBE6BF2EAEEC63
:102ED000CA2EDD24DA94F89480912C0490912D046C
:102EE000A0912E04B0912F044091300450913104F0
:102EF0006091320470913304841B950BA60BB70BC1
:102F00008F739927AA27BB27892B8A2B8B2BD1F567
:102F10008091AB049FB7F89487708093E90080910B
:102F2000F2009FBF882309F441C040912C045091C6
:102F30002D0460912E0470912F044F5F5F4F6F4FEF
:102F40007F4F4F73552766277727809130049091E4
:102F50003104A0913204B091330484179507A60779
:102F6000B70781F08091AB049FB7F8948770809386
:102F7000E9008091F2009FBF8091AB0490917202B2
:102F80009111BEC28091300490913104A09132041D
:102F9000B0913304880F991F880F991FFC01E45DDD
:102FA000FC4F908181810281138104C010E000E018
:102FB00080E090E040902C0450902D0460902E040E
:102FC00070902F044091300450913104609132048C
:102FD000709133044416550666067706C1F0409199
:102FE00030045091310460913204709133044F5F8A
:102FF0005F4F6F4F7F4F4F7355276627772740935B
:103000003004509331046093320470933304789405
:10301000992309F41EC4073708F05DCF8F708630FE
:1030200009F059CFAA24A394A0922E020E946F15F2
:103030006093950270939602809397029093980202
:10304000063609F0E9C1E12EF12C8FEF810F8231B4
:1030500060F510FD1FC0970135952795F901EE0F1A
:10306000FF1FE655FD4F80819181059791838083F5
:103070004091B8015091B901F601E41BF50B8E0F98
:103080009F1F0597D8F42D5E46E667E080EB0E940F
:10309000D70B14C0F7013196EE7FE655FD4F8081C6
:1030A000918105969183808309C0133109F06EC226
:1030B0000E94C70783E080932E024DC01E3741F463
:1030C00081E08093DD0210922E020E946A1143C0BB
:1030D0001F3331F4E091E002F0E0E857FD4F1FC0EC
:1030E000103431F4E091E002F0E0E857FD4F20C0E9
:1030F000113431F4E091E002F0E0EB57FD4F0FC0E6
:10310000123431F4E091E002F0E0EB57FD4F10C0D3
:10311000133439F4E091E002F0E0EE57FD4F1082F5
:1031200009C0143451F4E091E002F0E0EE57FD4F95
:1031300081E080830E94CE0F0EC01E3119F41092E0
:10314000350409C01F3111F481E003C0103219F4B5
:1031500082E0809335048FED810F8B3140F4E09154
:103160003504F0E0E852FE4F80830E94CE0F2CE33E
:10317000622E712C80E0AA24A394A80EE614F70412
:1031800051F48093E0021092DB020E94CE0F0E9465
:103190006A11A0922E028A2DFFEF6F1A7F0A8330E8
:1031A00051F796E4692E712C8AEB860DE614F7042C
:1031B00069F4E091E002F0E0EB54FE4F80830E945E
:1031C000CE0F8091F3028F5F80932E022FEF621A51
:1031D000720A39E46316710439F780E5682E712CA0
:1031E00080EB860DE614F70469F4E091E002F0E06C
:1031F000EE54FE4F80830E94CE0F8091C1018F5FFD
:1032000080932E024FEF641A740A55E56516710417
:1032100039F79091B1012AE530E086EA820FE21693
:10322000F30609F4982F2F5F3F4F22363105A9F797
:103230009093B1018091E002B0912E02A8E28A9FA2
:10324000B001112440E050E0A0E09A1799F0AF5F80
:103250004B5F5F4FA830C9F7B0932E02EFE7F2E063
:10326000B3E08B9FA001112445575D4F20E030E073
:1032700061E032C0FA01E60FF71FE75CFE4F24E67B
:1032800030E00F2EFCE9AF2EF02DA20EE216F30671
:1032900011F4A082B0E02F5F3F4F2037310589F74E
:1032A0000F2EF0E9AF2EF02DA20EE216F30609F470
:1032B000A1822F5F3F4F2537310591F7C8CF1537D2
:1032C00071F4DA01A20FB31F1C9210822F5F3F4FDF
:1032D00031962330310551F09213F8CFF0CF1637E5
:1032E000A9F7DA01A20FB31F6C93EFCF1B3781F45C
:1032F0000E941C0683E080932E020E946F1560934B
:103300009502709396028093970290939802CDC095
:103310001C37D9F4F12C33E0E32E8F2D0E941C06CC
:103320000E940D0C0E947804E0922E020E946F15FC
:1033300060939502709396028093970290939802FF
:10334000F394E3E0FE12E9CFB0C01D3709F0ADC041
:1033500028EBE22EFF24F394C7010E94510F682F3F
:10336000C701805991400E943D0FFFEFEF1AFF0AFD
:1033700020EDE21622E0F20679F794E2E92E93E0DE
:10338000F92EC7010E94510F682FC701CF970E94E5
:103390003D0F3FEFE31AF30A43E6E41643E0F40679
:1033A00081F780912D02863188F40E940D0C0E94D5
:1033B0007F070E94780481E08093DD020E94CE0F97
:1033C0000E946A1183E080932E026FC0E12CF12CE1
:1033D000C7010E94510F682FC70142960E943D0FFE
:1033E0005FEFE51AF50A62E1E616F10489F78BED65
:1033F000E82E82E0F82EC7010E94510F682FC70106
:103400000A970E943D0F7FEFE71AF70A85EEE8164C
:1034100082E0F80681F7C9CF073631F4E091E00287
:10342000F0E0EA5CFE4F2EC0053781F5E090E00247
:10343000F12CC701880F991FDC01A05DBE4F7D01F3
:10344000212F30E0AFEFBFE10E94322A24E630E0C6
:1034500040E050E00E94102AF7013183208313C01E
:10346000093609F0DCC080912C01E091E0028C303B
:1034700008F0B2C02CE0E29FF0011124E85FFE4F9B
:10348000E80FF11D10830E94CE0F0FC00F3609F414
:1034900085C0003709F48CC0013709F493C00836A1
:1034A000F9F68FEF810F80932C013091B10180915B
:1034B000E00258E2859FC0011124875C9E4F40E0E6
:1034C00050E020E0321316C00A3639F4103190F47F
:1034D000FC01E40FF51F12830DC00B3629F4FC012B
:1034E000E40FF51F138306C00C3621F4FC01E40F32
:1034F000F51F14832F5F4B5F5F4F283019F7EBCC1C
:103500003FB7F89487708093E9008091F20090E0D3
:103510008530910514F084E090E0282FFE0131966B
:10352000215038F0A4E6A0937102A091F100A1937C
:10353000F7CF009721F02091F200222321F13FBF25
:10354000049709F01FCD80912C0490912D04A09137
:103550002E04B0912F04880F991F880F991FFC012A
:10356000E45DFC4F09811A812B813C81008311832A
:103570002283338340932C0450932D0460932E04B4
:1035800070932F04DACCB092E800D9CF1F3709F03E
:1035900095CD10922E02A0920703DDCD123318F4C0
:1035A00010932D0170CF81E8810F80932D016BCF97
:1035B000123318F410932E0166CF81E8810F8093A7
:1035C0002E0161CF123318F410932F015CCF81E8E4
:1035D000810F80932F0157CF813250F435E1E39F63
:1035E000F0011124E552FE4FE80FF11D3C974ACF40
:1035F000813219F41093340458CF823209F055CF38
:10360000F0E0EE0FFF1FE758FD4F40E8149FC001A8
:10361000112420913404822B9183808334CF0A3685
:1036200009F043CF103108F440CF103139F4E09164
:10363000E002F0E0EA58FD4F108209C0113149F470
:10364000E091E002F0E0EA58FD4F81E080830E94C3
:10365000CE0F8CEE810F8930E0F4E091E002F0E0D3
:10366000EE0FFF1FEE5FFE4F8CEE810F41E050E04A
:1036700060E070E004C0440F551F661F771F8A95F5
:10368000D2F780819181482B592B518340830E942E
:10369000CE0F82EE810F893008F5E091E002F0E074
:1036A000EE0FFF1FEE5FFE4F82EE810F412C512C7B
:1036B0003201439404C0440C551C661C771C8A9547
:1036C000D2F7D301C2018095909520813181822368
:1036D0009323918380830E94CE0F13C0173239F455
:1036E000E091E002F0E0ED58FD4F1082CCCE1832B0
:1036F00041F4E091E002F0E0ED58FD4F81E080837D
:10370000C2CE193259F5E0906E04F0906F04E0914A
:10371000E002F0E0EE0FFF1FE758FD4FF182E0827C
:1037200022E248E667E080EB0E94D70B2E2D2F7730
:1037300049E667E080EB0E94D70B23E248E667E0AA
:1037400080EB0E94D70B9701220F232F221F330BF0
:1037500049E667E080EB0E94D70B95CE1A3231F430
:1037600082E08093070310922E029FCE1B32A9F5B0
:1037700020916E0430916F04E090E00245E1E49EF8
:10378000C0011124BC0165527E4F7B01822F8F77CF
:10379000DB0153968C9353973901660C672C661C9A
:1037A000770854966C9220E248E667E080EB0E942E
:1037B000D70BF701238949E667E080EB0E94D70B1E
:1037C00021E248E667E080EB0E94D70B262D49E610
:1037D00067E080EB0E94D70B68CE1E3239F4E0918F
:1037E000E002F0E0EF53FD4F10825FCE1F3241F454
:1037F000E091E002F0E0EF53FD4F81E0808355CE91
:103800001D3209F052CEE12CF12CC70142960E94E4
:10381000510F682FC7010E943D0FFFEFEF1AFF0AFB
:1038200022E1E216F10489F78BEDE82E82E0F82E12
:10383000C7010A970E94510F682FC7010E943D0FD0
:103840003FEFE31AF30A45EEE41642E0F40681F78F
:103850002CCE0E946F150091760410917704209170
:10386000780430917904DC01CB01801B910BA20B11
:10387000B30B0597A105B10508F4AFC0B09075046E
:10388000A2E48A2EA4E09A2E66E374E07D876C871A
:10389000BBE4EB2EB4E0FB2E15E4412E14E0512ED8
:1038A0000CE3C02E04E0D02E8EE494E09E838D8342
:1038B000A1E5B4E0B887AF8309E314E0ECE4F2E0FB
:1038C000FB87EA877F876E871986AA24A394D40191
:1038D0006C90662029F0F2011082D6011D921C9294
:1038E000EA85FB8581919191FB87EA87FC01FF279F
:1038F00032972081892F992730E082239323892BC7
:1039000011F00C941F28F8018081882319F0815050
:10391000D8018C93D8016C9161110C943628F70171
:10392000A082BB24B394AC85BD858D91BD87AC8747
:10393000F701908181110C944D28992311F40C9476
:10394000552861100C945528ED81FE81A082B92E76
:10395000D6018D919C918D32914010F00C946A2883
:10396000F7018081811105C0D2011C92F6011182FC
:103970001082AE85BF858D93BF87AE87811102C04F
:10398000F4011082F985FF5FF9872FEF821A920AFE
:103990003FEFE31AF30A4FEF441A540A52E0C50E00
:1039A000D11C6D817E816F5F7F4F7E836D838F81A0
:1039B0009885019698878F830F5F1F4FF33009F02A
:1039C00086CFB09275040E946F1560937604709351
:1039D0007704809378049093790480917504882308
:1039E00009F49FC280915404882351F080915204BD
:1039F000882331F0109252041092750410925404EE
:103A00000091E00295E1099FF0011124E552FE4F7B
:103A10002289213029F580914E04882309F1809173
:103A20004D0481111DC080914C04811119C08091F9
:103A30000703811115C08091F1029091F2029695D1
:103A40008795089769F410924E042093480480915A
:103A5000DA02811103C00E94740F02C00E94530F4A
:103A600080919402882309F493C080914E048823A6
:103A700009F48EC080914D04811152C080914C0494
:103A800081114EC08091070381114AC08091F102DB
:103A90009091F20296958795409709F041C0109257
:103AA0004E0481E0809348048091F3028F5F8093FD
:103AB000F302833011F41092F3021091F3021230EA
:103AC00069F48FEF9FE19093CB018093CA012FE3BC
:103AD0004FE761E080EE0E94D70B02C0112319F07E
:103AE00081E0810F01C081E080932E020E946F155A
:103AF0006093950270939602809397029093980238
:103B00008091DD02882309F443C026E4210F46E6B4
:103B100067E080EB0E94D70B80914E048823C1F1AF
:103B200080914D04811134C080914C04811130C0CA
:103B30008091070381112CC08091F1029091F202D3
:103B400096958795029721F510924E0481E0809317
:103B500048040F5F0093E002033011F41092E0027A
:103B60001092DB020E94CE0F8091E0028F5F809363
:103B70002E020E946F1560939502709396028093B7
:103B80009702909398028091DD0281110E946A1140
:103B9000809151048823B1F080914D04811112C0AD
:103BA00080914C0481110EC08091070381110AC0DD
:103BB00080914804811102C00E940F131092510499
:103BC0001092480480915204882309F180914B049B
:103BD00081111DC080914D04811119C08091E002B6
:103BE00090E0FC01EE0FFF1F8E0F9F1FFC01E557B9
:103BF000FD4F818181110BC080914904811103C067
:103C000081E00E940F131092520410924904809197
:103C10005304882309F180914B0481111DC08091C8
:103C20004C04811119C08091E00290E0FC01EE0F7C
:103C3000FF1F8E0F9F1FFC01E557FD4F82818111F1
:103C40000BC080914A04811103C082E00E940F13CF
:103C50001092530410924A04809151048823E1F099
:103C600080910703811118C08091E00290E0FC016F
:103C7000EE0FFF1F8E0F9F1FFC01E557FD4F808148
:103C8000882351F080914804811102C00E940F13D3
:103C90001092510410924804809152048823C9F074
:103CA0008091E00290E0FC01EE0FFF1F8E0F9F1F3E
:103CB000FC01E557FD4F8181882359F0809149042B
:103CC000811103C081E00E940F13109252041092E0
:103CD0004904809153048823C9F08091E00290E068
:103CE000FC01EE0FFF1F8E0F9F1FFC01E557FD4FDC
:103CF0008281882359F080914A04811103C082E0B7
:103D00000E940F131092530410924A0480915104A0
:103D10008823E1F080914C048823C1F0E091E00217
:103D2000F0E0CF01880F991FE80FF91FE557FD4F0D
:103D3000808181110BC08181811108C010925104D2
:103D400081E08093540483E00E940F138091530418
:103D50008823E1F080914C048823C1F0E091E002D7
:103D6000F0E0CF01880F991FE80FF91FE557FD4FCD
:103D7000818181110BC08281811108C0109253048E
:103D800081E08093540484E00E940F1380914504E5
:103D9000882311F180914C0481111EC080914D0443
:103DA00081111AC08091E00290E0FC01EE0FFF1F2C
:103DB0008E0F9F1FFC01E557FD4F808181110CC0C4
:103DC00085E00E940F1381E0809342041092450425
:103DD00010923D0410923C0480914604882311F116
:103DE00080914B0481111EC080914D0481111AC035
:103DF0008091E00290E0FC01EE0FFF1F8E0F9F1FED
:103E0000FC01E557FD4F818181110CC086E00E94C5
:103E10000F1381E0809343041092460410923F04F4
:103E200010923E0480914704882311F180914B0445
:103E300081111EC080914C0481111AC08091E00252
:103E400090E0FC01EE0FFF1F8E0F9F1FFC01E55756
:103E5000FD4F828181110CC087E00E940F1381E029
:103E6000809344041092470410924104109240043D
:103E700080914E04882329F1809194028823E1F0F7
:103E80008091F1029091F202969587958830910584
:103E9000C1F084309105A9F0029799F08091E00279
:103EA00090E0FC01EE0FFF1F8E0F9F1FFC01E557F6
:103EB000FD4F8081882329F010924E0480E00E94FB
:103EC000371180914F04882399F08091E00290E0AF
:103ED000FC01EE0FFF1F8E0F9F1FFC01E557FD4FEA
:103EE0008181882329F010924F0481E00E943711CC
:103EF00080915004882399F08091E00290E0FC01C9
:103F0000EE0FFF1F8E0F9F1FFC01E557FD4F8281B3
:103F1000882329F01092500482E00E9437111092F9
:103F2000750480912E02882309F444C00E946F1505
:103F3000009195021091960220919702309198027B
:103F4000DC01CB01801B910BA20BB30B883C9105CC
:103F5000A105B10578F10E946F15609395027093E9
:103F6000960280939702909398028091BE02F1018D
:103F7000882399F0859194912FB7F894FC01FF273D
:103F800080819095892380832FBF80912E0281505C
:103F900080932E021092BE020DC0859194912FB78E
:103FA000F894FC01FF278081892B80832FBF81E05B
:103FB0008093BE02F894A8E0B3E0BE83AD839D0178
:103FC00080E090E0FC01EE0FFF1FE65EFC4F4081B9
:103FD0005181F901419351939F01019689309105D7
:103FE00089F7789480912D02863128F48AE193E054
:103FF000E8E0F3E017C0809107038111F7CF25EFC8
:1040000032E0E8E0F3E0D9014D915D919D018081BE
:104010009181841B950B81939193B3E0EA31FB0767
:1040200091F7E4CF2081318137FF02C011821082E5
:1040300032968E179F07B1F78091B8019091B90120
:104040004EEC5FEF481B590B0091F1021091F20208
:10405000BCEAEB2EB2E0FB2EF70180E090E0B82E38
:10406000AD81BE816D917D91BE83AD8321913191F2
:104070006901B2E3CB1AD108C616D70670F4412CF9
:10408000512C32014394082E04C0440C551C661C6C
:10409000771C0A94D2F704291529240F351F2617F7
:1040A000370780F0412C512C3201439404C0440C5A
:1040B000551C661C771CBA94D2F792012095309556
:1040C0000223132301968930910549F61093F202D9
:1040D0000093F102C8010E94B70F8093990280916A
:1040E000DD028823D1F08091550490915604801709
:1040F000910799F0212F220F07FD216042E767E029
:1041000080EB0E94D70B202F43E767E080EB0E94F3
:10411000D70B1093560400935504E091E002F0E0B1
:10412000E852FE4F2081822F8B7FB9F4A8014C7F8B
:10413000552756954795FA01E053FB4FE4918E2F92
:1041400090E0243011F401FD0197FA01EF52FB4F8A
:10415000E491E0937204FC0182C02130A9F410FDC7
:1041600004C082E0809372046FC00E7F1127F801B3
:10417000E053FC4F249130E0F801EF52FC4F0491E2
:1041800000937204F9016BC0223051F410FF5CC03F
:10419000F801EE7FFF27F695E795E05BFC4F17C02F
:1041A0002330F9F4C8019695879591600E94B70F66
:1041B00090E0EEE3F3E020E030E0449150E084173B
:1041C000950741F4F901EE0FFF1FE15CFC4FE4910C
:1041D000F0E045C02F5F3F4F32962930310569F737
:1041E00039C0253051F4F801F695E795E25CFD4FB2
:1041F000E491F0E0309799F52DC0263041F4F801B4
:10420000EE7FFF27F695E795E254FE4FE0CF27308B
:1042100051F410FF1CC0F801EE7FFF27F695E795DB
:10422000E25CFE4FD4CF2830A9F410FD05C007FD95
:1042300014C0ECE4F0E013C0F801EE7FFF27F69520
:10424000E795E254FF4FC3CFEAE4F0E008C0E7E4AB
:10425000F0E005C0EFEFFFEF02C0EBE4F0E0F09319
:104260007404E093730410910703112309F400C14F
:104270008091BE0281113CC0F101859194912FB7CC
:10428000F894FC01FF278081892B80832FBF81E078
:104290008093BE020E946F15609357047093580478
:1042A0008093590490935A0480910703813081F0E0
:1042B0008091DE02882309F4DBC01092AD021092D7
:1042C000AC028FEF90E09093F6028093F502D0C09D
:1042D000EEEAF2E0A7EFB2E08EEB92E02FEF30E0F3
:1042E000119211922D933D938E179F07C9F7E0CF3E
:1042F0001130B1F40E946F158090570490905804CB
:10430000A0905904B0905A04DC01CB018819990996
:10431000AA09BB0981319742A105B105D0F05DC062
:10432000123009F070C00E946F1580905704909071
:104330005804A0905904B0905A04DC01CB018819AC
:104340009909AA09BB0989389341A105B10528F14A
:104350005CC02AE033E065EF72E0ECEAF2E0D901FC
:104360008D919D919D01428153814817590710F409
:1043700093838283DB0112964D915C91139784178E
:10438000950724F413969C938E93129732966E5F42
:104390007F4FB2E0EC3BFB0711F78091DE028823F0
:1043A000D1F080910803909109032091AC023091E3
:1043B000AD022817390720F49093AD028093AC0228
:1043C0002091F5023091F6028217930724F490931E
:1043D000F6028093F5021130B1F40E946F1500913E
:1043E0005704109158042091590430915A04DC016B
:1043F000CB01801B910BA20BB30B81319742A1051E
:10440000B105C0F435C0123099F50E946F150091C6
:104410005704109158042091590430915A04DC013A
:10442000CB01801B910BA20BB30B89389341A105E3
:10443000B105F0F00E94C7078091C9012EEC3FEF53
:10444000281B3109EAE9F2E008EF1FEFD7016D916F
:104450007D917D01620F731FC8010E94BC2A769571
:10446000679561937193BEEBEB16B2E0FB0671F7B3
:104470008091F40281112BC02091F302223039F196
:10448000409173045091740480912C0290E0841741
:104490009507E9F080917304909174040196B9F046
:1044A0008091F1029091F2029093F0028093EF02DA
:1044B000EAE1F2E0A6EEB2E08CE292E01192119213
:1044C0001D928E179F07D1F7222309F40EC6809103
:1044D000730490917404019631F08091730490916B
:1044E000740480932C028091E502882309F444C16E
:1044F000F8948091BF029091C002909367048093DA
:1045000066047894E091E0020E2F10E025E1E29F2E
:10451000F0011124E552FE4F82898330E9F5809144
:10452000650481111CC0848930E8839FC001112477
:104530002389822B059620916604309167048217A7
:10454000930754F581E0809365048091DA0281112C
:1045500006C00E94740F809165048823E9F085E10C
:10456000809FF001819FF00D1124E552FE4F848958
:1045700040E8849FC00111242389822B2091660486
:1045800030916704281739073CF410926504809134
:10459000DA0281110E94530F0E946F15009161048D
:1045A000109162042091630430916404AB01BC015A
:1045B000401B510B620B730B8091BF019091C001A6
:1045C000092E000CAA0BBB0B481759076A077B077B
:1045D00020F0809160048111B9C50E946F1500918F
:1045E0005C0410915D0420915E0430915F04AB0186
:1045F000BC01401B510B620B730B8091BD0190916C
:10460000BE01092E000CAA0BBB0B481759076A07FD
:104610007B0720F080915B0481119BC500916604AB
:104620001091670440916E0450916F04F801E41BEF
:10463000F50B6091BC0170E02091C1019091600484
:1046400080915B046E177F07ECF491111BC0811100
:1046500019C02130B9F46091C3017091C401601791
:10466000710784F483E080936904209360040E94BE
:104670006F15609361047093620480936304909358
:10468000640421C0401B510B6091BB0170E06417B2
:104690007507F4F491111CC02223D1F0811118C0C8
:1046A000309169043330A1F481E0809369048093F0
:1046B0005B040E946F1560935C0470935D048093AB
:1046C0005E0490935F0410936F0400936E0454C0D3
:1046D0004091C3015091C401401751071CF031E0D3
:1046E00030936904213031F0401751071CF432E057
:1046F0003093690491111FC081111DC02223B1F1B3
:1047000040175107D4F480912C0290E0CC9730915F
:10471000C201389FA001399F500D11248091C5011D
:104720009091C601840F951F8017910734F082E0A5
:104730008093690402C0811119C02130B9F48091BD
:104740002C0290E0CC974091C201489F9001499F74
:10475000300D11248091C5019091C601820F931FE5
:10476000801791071CF483E08093690410936F0411
:1047700000936E041092E5029091C5028091C402EC
:104780005CE0959F800D112480936B04C0906904B8
:1047900063E0C6120FC09CE0980F90936B04E09109
:1047A000E002F0E0E852FE4F9081973019F4895F03
:1047B00080936B048091C1018330E1F4E091E002C9
:1047C000F0E0DF01A852BE4F4C914130D1F1209171
:1047D000F1023091F20221703327EF53FD4F8081B7
:1047E00090E02817390769F580916B04473021F56F
:1047F000895F25C0823029F58091E00290E0FC01BC
:10480000E852FE4F2081322F3B7F11F02630C9F451
:104810007091F202788B198A48895989417055271D
:10482000FC01EF53FD4F808190E04817590749F490
:1048300080916B04273011F0845F01C08D5E8093FE
:104840006B04D090F402DD20D1F12091720422306B
:10485000B0F58FEF9FE19093CB018093CA01213097
:1048600051F42091C7013091C801821B930B9093A2
:10487000CB018093CA010091CA011091CB018091B4
:10488000C6029091C702080F191F1093CB01009325
:10489000CA018091D6019091D7010817190779F0C4
:1048A0009801220F232F221F330B402F4F7761E0F7
:1048B00080EE0E94D70B1093D7010093D6010E947F
:1048C0006F150091E1021091E2022091E302309114
:1048D000E402DC01CB01801B910BA20BB30B4497CC
:1048E000A105B10508F4BFC20E946F156093E102F3
:1048F0007093E2028093E3029093E402E091E0027D
:10490000EE2EF12C85E1E89FF0011124E552FE4FD7
:104910008081882309F4AFC08091DF028111ABC090
:104920002091C3013091C40180912C0290E0CC977A
:104930006091C201689FA001699F500D1124809170
:10494000C5019091C601840F951FBC01621B730BBA
:1049500075956795620F731FA3E0CA1203C0680FB5
:10496000791F9C0180916E0490916F0486179707C0
:1049700058F545E14E9DF0014F9DF00D1124E55293
:10498000FE4F4181FB01E81BF90BB4E14B9FA001F5
:104990001124E49FC001E59F900DF49F900D112418
:1049A000621B730B0E94BC2A669FB0011124A3E016
:1049B00075956795AA95E1F7719561957109709361
:1049C000C7026093C60214C0861B970B25E12E9D7B
:1049D000F0012F9DF00D1124E552FE4F4181489FBB
:1049E0009001499F300D11243093C7022093C602D5
:1049F00085E18E9DF0018F9DF00D1124E552FE4F53
:104A00008181E8EC8E9FC00111242091C602309173
:104A1000C7028217930724F49093C7028093C602BB
:104A20008091F302823089F50091C6021091C7028D
:104A30000150104E1093CB010093CA018091D60112
:104A40009091D7010817190709F448C48091DC0236
:104A5000882309F443C49801220F232F221F330B0C
:104A6000402F4F7761E080EE0E94D70B1093D70163
:104A70000093D60133C4D1100AC08091F302823072
:104A800009F484C00E94580C81C0DD20D9F38091C4
:104A90007204823009F07AC01092CB011092CA01E0
:104AA000F701E852FE4F8081982F9B7F09F088C361
:104AB00040910E0350910F032091C90130E0809185
:104AC0000C0390910D03241735070CF054C360912B
:104AD000F10263FD50C3421B530BE091CE02F091F3
:104AE000CF02281739070CF037C362FD35C34E9F3C
:104AF000B0014F9F700D5E9F700D112476956795E4
:104B000076956795AC01421B530B2091CC023091F6
:104B1000CD02429FC001439F900D529F900D1124E2
:104B20009695879596958795680F791F7093CB0119
:104B30006093CA018091C7019091C8012091CA0178
:104B40003091CB018217930708F45EC32091CA010C
:104B50003091CB018FEF9FE1821B930B2091C60216
:104B60003091C702820F931F97FD53C39093CB01DF
:104B70008093CA010091CA011091CB018091D601A6
:104B80009091D7018017910709F048C300916E04F6
:104B900010916F048091700490917104801B910BAF
:104BA00097FF03C091958195910903970CF42EC14D
:104BB0008091DD028823D1F06801012E000CEE08FF
:104BC000FF082C2D2F7744E767E080EB0E94D70B7E
:104BD000A7019601F7E05695479537952795FA95E1
:104BE000D1F746E767E080EB0E94D70BE091E00247
:104BF0004E2E512C5E824D8225E1E29FF001112460
:104C0000E552FE4F8281813009F0FCC0E781C090FF
:104C1000D401D090D501E12CF12CC801012E000C5B
:104C2000AA0BBB0B9C01AD012C193D094E095F0974
:104C3000A0E2B3E00E94052A48E0E49F900111241D
:104C40002C593F4F4901330FAA08BB08A501940115
:104C50002C193D094E095F090E94E62957FD0EC037
:104C6000213263E036074105510574F469017A0188
:104C700074E6C70ED11CE11CF11C0CC0E4E6CE2E7C
:104C8000D12CE12CF12C06C074E8C72E73E0D72E8E
:104C9000E12CF12C85E14D805E80849DF001859DA5
:104CA000F00D1124E552FE4F8381813009F584EC2B
:104CB0009CE1A1E0B0E08093D0019093D101A0935A
:104CC000D201B093D301A7019601C701B6010E949A
:104CD000AC2A9B01AC01C701B6010E94AC2A20E1BD
:104CE00037E240E050E00E94102A69017A012DC0AD
:104CF0008230F9F484E89CE1A0E0B0E08093D00138
:104D00009093D101A093D201B093D30160E17CE5EF
:104D10008CE090E0A70196010E94102A68E0C62E60
:104D200060E2D62EE12CF12CC21AD30AE40AF50A6D
:104D30000CC084E893E0A0E0B0E08093D0019093B1
:104D4000D101A093D201B093D3012091CE01309133
:104D5000CF014901A12CB12C4090CC015090CD0144
:104D6000612C712CA7019601245631094109510982
:104D7000C501B40164197509860997090E94AC2A16
:104D8000C090D001D090D101E090D201F090D30139
:104D9000A701960124563109410951090E94E629CB
:104DA000DA01C901840D951DA61DB71D8415950551
:104DB000A605B7054CF457E075946794579447944B
:104DC0005A95D1F7242D0FC088169906AA06BB065E
:104DD00014F4D501C40147E0B595A795979587953B
:104DE0004A95D1F7282F85E16D807E80869DF00160
:104DF000879DF00D1124E552FE4F4581648180EBC3
:104E00000E94D70B109371040093700480916D047D
:104E10008F5F8A3019F080936D0425C010926D0465
:104E2000ECE8F5E085919491FC01FF273297208111
:104E3000892F992730E08223932321E0892B09F4DD
:104E400020E02093DE0280916C04821761F02093B1
:104E50006C048091DD02882331F0285846E667E033
:104E600080EB0E94D70B0091E00210E0F801E852BD
:104E7000FE4FE08085E0782EE71005C080916B043E
:104E8000815080936B044091DC02442381F0209197
:104E90002C0230E080916A0490E050916B04851BF5
:104EA000910957FD93952817390709F47EC0909111
:104EB00069048091DF02923010F0882341F088234A
:104EC00009F46EC08091DB02882309F469C0F09078
:104ED0002C022FEFF21609F463C0809168048E3320
:104EE00081F420916B048F2D90E0820F911D27FD9E
:104EF0009A958635910529F48091E502882309F475
:104F00004FC033E0E31204C05CE3F5120BC048C0AD
:104F100061E0E61207C07EE3F71204C08091F1025F
:104F200080FD3EC04423D9F02FE740916A0461E040
:104F300080E80E94D70B8091F402811110C080910B
:104F4000F302823061F00E94580C0E946F1560934A
:104F5000E1027093E2028093E3029093E402D09026
:104F60006B04DF0C2FE74D2D61E080E90E94D70B29
:104F7000D0926A04F092680481E08093DC0285E1BB
:104F8000809FF001819FF00D1124E552FE4F828930
:104F9000823059F48091DA02811107C00E94740FA7
:104FA0008091DC02882309F440C0909169048091CB
:104FB000DF02913011F48823C9F0882321F0809119
:104FC000DB02882399F083E0E81205C080912C026F
:104FD0008C3359F50BC091E0E91227C080912C0267
:104FE0008E3319F58091F10280FF1FC02FE74091A9
:104FF0006A0461E080E80E94D70B1092DC0288E727
:105000009CEE9093D7018093D60185E1809FF001BB
:10501000819FF00D1124E552FE4F8289823029F4E0
:105020008091DA0281110E94530F80E090E0892B79
:1050300011F40C9465170E9400000C946517D801B8
:105040007C90672D70E080E090E00E94482A20E08C
:1050500030E040E850E40E94412A87FD02C00C94F1
:105060008A1C7394F80170820C948A1C70E080E0B2
:1050700090E00E94482A20E030E040E850E40E949E
:10508000A72A87FF02C00C94931CD7011C92E4E06E
:105090007E2EF80170820C94931C911106C0611051
:1050A00004C0AF81B885AC92B82EAD81BE811C9290
:1050B000882311F40C94A81CD7018C91882311F437
:1050C0000C94A81CF60180819181019691838083C4
:1050D0000C94A81CF401808181110C94B01CD201A5
:1050E000AC92BB24B3940C94B01CE091E002F0E0CD
:1050F000E852FE4F8081853039F4E0917304F091DD
:105100007404EC5EFA4F1EC0883039F4E0917304E9
:10511000F0917404E95EFA4F15C0823039F4E091E1
:105120007304F0917404E45EFA4F0CC0873021F4EC
:1051300081E08093BA01CBC9E0917304F0917404CB
:10514000EB5EFA4FE491E093BA01C1C9109260049A
:1051500044CA10925B0462CA4E9FB0014F9F700D0B
:105160005E9F700D1124769567957695679570937F
:10517000CB016093CA01281739070CF0DBCC4091B2
:10518000F10242FDD7CC821B930B4091CC0250918F
:10519000CD02849F9001859F300D949F300D112486
:1051A000C90196958795969587952091CA0130916A
:1051B000CB01820F931F9093CB018093CA01BACC8D
:1051C000813009F0C3CC4091F1025091F20250FFBE
:1051D0003FC020910E0330910F038091C90190E0F0
:1051E000821793070CF073C043FF5BC01092CB0192
:1051F0001092CA018091CA019091CB018115904211
:105200000CF4A4CC8FEF9FE19093CB018093CA0163
:105210009DCC1092CB011092CA01ACCC8091DC02E3
:10522000882309F4B3CC8091F302823008F0AECC2D
:105230009801220F232F221F330B402F4F7761E05D
:1052400080EE0E94D70B1093D7010093D6019ECC1D
:1052500043FD7CCC80910E0390910F032091C901F6
:1052600030E04091C7015091C80128173907A4F4D4
:10527000821B930B6091CE027091CF02869F9001AA
:10528000879F300D969F300D1124C9019695879503
:1052900096958795481B590B5093CB014093CA01B3
:1052A00055CC281B390B4091CE025091CF02249F40
:1052B000C001259F900D349F900D112496958795E0
:1052C000969587959093CB018093CA0193CF281729
:1052D00039070CF48BCF43FD89CF38CCD110D7CB15
:1052E00055CC82E08093AC048093AD0482EB94E0D3
:1052F0009093AF048093AE041092B1041092B00466
:105300008FE592E09093A9048093A80480E88093AD
:10531000B20481E88093B3040E94020FFC01218152
:105320008091AC0490E0820F911D0897C4F5A28192
:10533000B381109729F488EA94E0938382830EC0A6
:1053400018968D919C911997009711F0DC01F8CF78
:1053500088EA94E019969C938E93189780818093A5
:10536000AA0481818093AB0490818091AD04890F60
:10537000808380E09091AC04891788F4A091AE04FA
:10538000B091AF04A80FB11D9C91A181B0E0AD5CBC
:10539000BD4F9C9391819F5F91838F5FEBCF089569
:1053A000F999FECF92BD81BDF89A992780B50895ED
:1053B000262FF999FECF1FBA92BD81BD20BD0FB631
:1053C000F894FA9AF99A0FBE01960895052E97FB64
:1053D0001EF400940E94FD2957FD07D00E94102A58
:1053E00007FC03D04EF40C94FD2950954095309560
:1053F00021953F4F4F4F5F4F089590958095709541
:1054000061957F4F8F4F9F4F08950E94322AA59F2D
:10541000900DB49F900DA49F800D911D11240895AF
:10542000A1E21A2EAA1BBB1BFD010DC0AA1FBB1FA8
:10543000EE1FFF1FA217B307E407F50720F0A21B1A
:10544000B30BE40BF50B661F771F881F991F1A9487
:1054500069F760957095809590959B01AC01BD01B1
:10546000CF010895A29FB001B39FC001A39F700D0B
:10547000811D1124911DB29F700D811D1124911D5C
:1054800008950E94832A08F481E00895E89409C0F1
:1054900097FB3EF490958095709561957F4F8F4F67
:1054A0009F4F9923A9F0F92F96E9BB279395F6957D
:1054B000879577956795B795F111F8CFFAF4BB0FFB
:1054C00011F460FF1BC06F5F7F4F8F4F9F4F16C05F
:1054D000882311F096E911C0772321F09EE8872FE9
:1054E000762F05C0662371F096E8862F70E060E0A5
:1054F0002AF09A95660F771F881FDAF7880F96951E
:10550000879597F90895990F0008550FAA0BE0E8C1
:10551000FEEF16161706E807F907C0F01216130675
:10552000E407F50798F0621B730B840B950B39F4B5
:105530000A2661F0232B242B252B21F408950A261B
:1055400009F4A140A6958FEF811D811D08950E9449
:10555000832A08F48FEF0895DB018F939F930E94B5
:10556000052ABF91AF91A29F800D911DA39F900D21
:10557000B29F900D11240895AA1BBB1B51E107C0D7
:10558000AA1FBB1FA617B70710F0A61BB70B881FD3
:10559000991F5A95A9F780959095BC01CD01089562
:1055A000EE0FFF1F0590F491E02D099481E090E04B
:0A55B000F8940C94DB2AF894FFCF66
:1055BA001B0EFF01FF01FF010F0F0F0F1E1E030835
:1055CA001C070F160F0F0F0F1E1E03081C070F16BE
:1055DA000F0F0F0F1E1E03081C070F16640000088A
:1055EA000004000400040A0A0A020000000008007D
:1055FA000000000300000000050000000006000093
:10560A000000000000000000000000000000000090
:10561A000002000000000800000000030000000073
:10562A000500000000060000000000000000000065
:10563A000000000000000000000200000000080056
:10564A000000000300000000050000000006000042
:10565A000000000000000000000000000000000040
:10566A0000640101000101020400010F0F0F000F85
:10567A0000010F0401000000040AFF1F7F00FF3F22
:10568A00200300006400FF1F000102000300000164
:10569A00070064007F000133240001332400000066
:1056AA000003000001070064007F000133240001A9
:1056BA0033240000000003000001070064007F009B
:1056CA0001332400013324000000FF1FFF1FFF1FC6
:1056DA00FF1FFF1FFF1FFF1FFF1FFF1FFF160101F5
:1056EA000FFF0100C1808100000025802B8025105A
:1056FA0028402E402B082B042B012B0225022508BB
:10570A00250405090A000102030B06000000001225
:0C571A000E280E0F0E1E0E4D49444900D3
:00000001FF
