:100000000C941B030C9443030C9443030C94430380
:100010000C9443030C9443030C9443030C94430348
:100020000C9443030C9443030C940D090C94DE09C7
:100030000C9443030C9443030C9443030C94430328
:100040000C9443030C9443030C9443030C94430318
:100050000C9405110C9443030C9443030C948E17D9
:100060000C9443030C9443030C9443030C944303F8
:100070000C9443030C9429080C9443030C944303FD
:100080000C9443030C9443030C9443030C944303D8
:100090000C9443030C9443030C9443030C944303C8
:1000A0000C9443030C9443030C9443037C237F235D
:1000B0006E2372237623A023A023A02383238723E8
:1000C0008B2391239523A0239B23391504162816EF
:1000D0004E1655165F1676168316B01646464646D9
:1000E00046464646464646464646464646464646B0
:1000F00046464646464646464646464646464646A0
:10010000464646464646464646464646464646468F
:100110004646464646464646464646464545454583
:10012000454545454545454545454545454545457F
:100130004545454545454545454545454444444473
:100140004444444444444444444444444343434373
:1001500043434343424242424141403E4B4A4A4963
:100160004A4949484A494948494848474A49494803
:1001700049484847494848474D4C4C4B4A494948EB
:10018000494847464E4D4D4C4D4C4C4B48474746D1
:10019000474646454D4C4C4B4C4B4B4A49484847CB
:1001A00048474645484746454746464548474746E7
:1001B00047464645474646454645454447464645E3
:1001C00046454544464545444544444345444443E7
:1001D000444343424342424141403E3F4B4B4B4BE1
:1001E0004B4B4B4B4B4B4B4B4B4B4B4A4B4B4B4B60
:1001F0004B4B4B4B4B4B4B4B4B4B4B4B4B4B4B4B4F
:100200004B4B4B4B4B4B4B4949494949504A4A4A46
:100210004A4A4A4A4F4A4E4A4D4A4B4A5454544914
:1002200049495454544949494949494953535353F5
:100230005353534B4B4B4B4B4B4B534B52525252D2
:100240005252525252525252515151525050505099
:10025000505050504F4F4E4E4D4C4B4A4A4A4A4ACE
:100260004A4A4A4A4A4A4A4A4A4A4A4A4A4A4A4AEE
:100270004A4A4A4A4A4A4A4A4A4A4A4A49494949E2
:100280004949494949494949494949494B4B4B4BD6
:100290004B4B4B494B4B4B4B4B4B4B4B48484848BC
:1002A000484848484848484848484848474A4747CF
:1002B00047474747474747474747474746464646D2
:1002C00046464646454646464545464644444444D9
:1002D000444444444343424241403F3E7F3C003E0D
:1002E000014002420343044505470649074A48487E
:1002F000484848484848484848484848484848487E
:10030000484848484848484848484848484848486D
:10031000484848484848484848484848484848485D
:10032000484848484848484848484848484947474E
:10033000474747474747474747474747474747474D
:100340004747474747474747464647474747454543
:100350004545454545454545454545454545434351
:1003600043434343434342424141403F3E3C4900B3
:100370004902490049004900490149004900490032
:100380004900490049004900490049004900490025
:100390004900490049004900490049004900490015
:1003A0004900490049004900490049004900490005
:1003B00049004900490049004900490049004900F5
:1003C00049004900490049004900490049004802E4
:1003D00048024800480248014801480048014800D6
:1003E00048024800480048004801480049004700CA
:1003F00047024700470247004701470047014600C0
:1004000047004600470047004700470047004700B5
:1004100047004700470047004700470047004700A4
:100420004700470047004700470047004700450096
:10043000450245004502450045014500450144008F
:100440004500440045004500450045004500430087
:10045000430243004302430043014300430142007F
:10046000420041004200400040003F003E00490081
:100470004900490049004900490049004900490034
:100480004900490049004900490049004900490024
:100490004900490049004900490049004900480213
:1004A0004801480148014800480048004A00470206
:1004B0004701470147014700470047004700470001
:1004C00047004700470047004700470047004502F4
:1004D00045014501450145004500450044004302F2
:1004E0004301430143014200410040003E0000003F
:1004F0000000250028002B002E0031000404040415
:1005000004030405020202020403020202020606B8
:10051000060606060404020202040404080201108E
:10052000408040102040804080080204018040202C
:10053000100201108010204040200000000200093D
:100540000F0000030401000C000000000000000088
:100550000000000000000000000101020101020192
:100560000201010201020102010202010201010273
:100570000102012B042B082B022B012B1028402BEE
:10058000802E4025102520254025802B40288025C1
:1005900008250225042501318031403120311031F8
:1005A0000231012B102B802510252025402B4008DF
:1005B0000B00020202010009040000010202000017
:1005C000052400100105240101010424020605246C
:1005D0000600010705810310004009040100020A1A
:1005E00000000007050202400000070583024000EA
:1005F000000403090412010002EF020140D804873D
:10060000EE0001010203014D6F777279205374727D
:10061000696E67656420496E737472756D656E747A
:100620007300574152424C00070605040100080AB6
:100630000B0C0D099E2B11241FBECFEFDAE0DEBF9D
:10064000CDBF12E0A0E0B1E0ECE4FAE502C0059015
:100650000D92AA38B107D9F725E0AAE8B2E001C0A7
:100660001D92AB32B207E1F713E0CBE1D3E004C057
:100670002197FE010E94192DCA31D107C9F70E94A6
:10068000D8170C94242D0C9400004091980450919C
:100690009904209196043091970442175307B4F4BB
:1006A0009091E8009570E1F39091E80092FD19C0F7
:1006B0008093F100809198049091990401968F7332
:1006C0009927892B19F48EEF8093E8008091980484
:1006D000909199040196909399048093980481E0F5
:1006E000089580E00895DF92EF92FF920F931F9399
:1006F000CF93DF93D82EF92EE42E062F10E0C801F9
:100700000196880F0E94450383E00E944503CD2D8A
:10071000DF2D0C0F1D1FC017D10789F0E7FE03C0A6
:10072000FE01849101C088810E944503F82E80E07B
:100730000E9445038F2121968111EDCF01C081E0F8
:10074000DF91CF911F910F91FF90EF90DF9008956F
:10075000CF93DF938091B004893069F486E10E94E1
:100760001D179093DD028093DC021092B00481E0AB
:100770008093020398C080913202882391F1E09126
:10078000B004F0E0EE0FFF1FEB5BFD4F8081918125
:100790002FB7F894FC01FF278081892B80832FBF1E
:1007A0008091B004883041F485E00E941D17909339
:1007B0009F0480939E0412C0C091B004D0E02196A3
:1007C000E091B004F0E0E35AFD4F81810E941D17D3
:1007D000CC0FDD1FC256DB4F998388831092320203
:1007E00062C08091320281115EC0C091B004D0E03D
:1007F000E091B004F0E0E35AFD4F80810E941D17A4
:10080000CC0FDD1FC95CDC4F99838883E091B00475
:10081000F0E0EE0FFF1FEB5BFD4F808191812FB762
:10082000F894FC01FF2780819095892380832FBF56
:10083000E091B0048E2F90E0E091B004F0E0EE0F74
:10084000FF1FE95CFC4F20813181E091B004F0E0B2
:10085000EE0FFF1FE256FB4F40815181241B350BE9
:10086000FC01EE0FFF1FE95CFC4F31832083E09118
:10087000B004F0E0EE0FFF1FE95CFC4F8081918136
:1008800097FF09C0E091B004F0E0EE0FFF1FE95CB4
:10089000FC4F118210828091B0048F5F8093B0046E
:1008A00081E080933202DF91CF91089580919D0481
:1008B0008F5F80939D0480919D04823011F42F9A64
:1008C000089580919D04833069F480E180938100D4
:1008D00084E00E94851181E0809332021092B0047E
:1008E00010929D0408952F923F924F925F926F92C3
:1008F0007F928F929F92AF92BF92CF92DF92EF92B0
:10090000FF920F931F93CF93DF93CDB7DEB7669718
:100910000FB6F894DEBF0FBECDBF20913302809199
:10092000C2019091C301AC01E4E02E9F400D511D26
:1009300011245C8B4B8B4CEF52E058874F8383E93B
:1009400092E09E838D83E2EAF2E0FA87E9874FE93D
:1009500052E05C874B8785EA92E09E878D87E8E0CE
:10096000F1E0FC83EB83612C712C212C312C412C88
:10097000512C44E650E05A83498300E010E01E8A7F
:100980001D8A8D899E89845C9E4F0E94401191E052
:10099000811101C090E0EF81F8859193F887EF8392
:1009A0008D899E89805B9F4F0E944011ED81FE8161
:1009B0008193FE83ED838D899E89C8960E944011A4
:1009C000E985FA858193FA87E9878D899E89875C15
:1009D0009E4F0E944011EB85FC858193FC87EB873D
:1009E0008D899E898D960E944011ED85FE858193AB
:1009F000FE87ED878D899E89CC960E944011ED89F6
:100A0000FE89EB54FE4F80838D899E898A5B9F4FC0
:100A10000E944011ED89FE89EE54FE4F80838D893E
:100A20009E89C2960E944011ED89FE89EA5CFE4FC4
:100A30008083C8018D5A9F4F0E944011F82EC80133
:100A40008C5A9F4F0E944011F801EE5FFE4F2F2DF0
:100A500030E0382B31832083C801875A9F4F0E9492
:100A60004011F82EC801865A9F4F0E944011F8018C
:100A7000E05DFE4F2F2D30E0382B318320838D89B0
:100A80009E89815A9F4F0E944011ED89FE89E0574F
:100A9000FD4F8083C8018F5E9E4F0E944011F82E4B
:100AA000C8018E5E9E4F0E944011F801EA56FD4F2C
:100AB0002F2D30E0382B31832083C12CD12C7301B2
:100AC000FBE1EF1AFDEFFF0AC7018C0D9D1D0E948F
:100AD0004011F601E60DF71DE952FE4F80833FEF0E
:100AE000C31AD30A45E1C416D10471F7C12CD12C25
:100AF00071015CEFE51A5EEFF50AC7018C0D9D1DD3
:100B00000E944011EB81FC81EC0DFD1D80838FEF75
:100B1000C81AD80A9CE0C916D10479F7EB89FC8978
:100B2000F093C501E093C4017201FAEFEF0EF11CDE
:100B3000A20148555D4F5A0162015DEFC50ED11CFF
:100B4000C7010E94401191E0811101C090E0F501C0
:100B500091935F01FFEFEF1AFF0ACE14DF0481F7D4
:100B6000A101440F551F5A8B498BA980BA80E12CF3
:100B7000F12C89899A898E0D9F1D988B8F8745014D
:100B8000C12CD12CC4010E944011EF85F889EC0DD5
:100B9000FD1DE75CFE4F80839FEF891A990AE5E00F
:100BA000CE0ED11CF8E2CF16D10461F73FEFE31A65
:100BB000F30A4AE0A40EB11C55E0E516F104C9F6AB
:100BC0008D899E8901969E8B8D8B0E5F1F4FE981CB
:100BD000FA81F296FA83E983F3E04F0E511C34E177
:100BE000230E311C4B815C81445F5F4F5C834B83E0
:100BF00055E1650E711C039709F0C3CE66960FB6DA
:100C0000F894DEBF0FBECDBFDF91CF911F910F9142
:100C1000FF90EF90DF90CF90BF90AF909F908F901C
:100C20007F906F905F904F903F902F900895CF925C
:100C3000DF92EF92FF920F931F93CF93DF93D82E03
:100C4000C82FD0E0E091FF02F0E0E450FD4F60815A
:100C5000CE01845C9E4F0E942C11E091FF02F0E0D7
:100C6000ED56FD4F6081CE01805B9F4F0E942C119D
:100C7000E091FF02F0E0EA5EFD4F6081CE018896D0
:100C80000E942C11E091FF02F0E0E35DFE4F6081D5
:100C9000CE01C5960E942C11E091FF02F0E0EE55C6
:100CA000FD4F6081CE01C8960E942C11E091FF0299
:100CB000F0E0E156FD4F6081CE01875C9E4F0E94BF
:100CC0002C11E091FF02F0E0EB55FD4F6081CE0169
:100CD0008D960E942C11E091FF02F0E0EA5CFE4F3D
:100CE0006081CE01C2960E942C11E091FF02F0E0DB
:100CF000EB54FE4F6081CE01CC960E942C11E09106
:100D0000FF02F0E0EE54FE4F6081CE018A5B9F4F00
:100D10000E942C118E01000F111FE091FF02F0E0E4
:100D2000EE0FFF1FEE5FFE4F6081C8018D5A9F4F8F
:100D30000E942C11E091FF02F0E0EE0FFF1FEE5F2A
:100D4000FE4F6181C8018C5A9F4F0E942C11E09187
:100D5000FF02F0E0EE0FFF1FE05DFE4F6081C80173
:100D6000875A9F4F0E942C11E091FF02F0E0EE0F96
:100D7000FF1FE05DFE4F6181C801865A9F4F0E94B0
:100D80002C11E091FF02F0E0E057FD4F6081CE01B1
:100D9000815A9F4F0E942C11E091FF02F0E0EE0F6C
:100DA000FF1FEA56FD4F6081C8018F5E9E4F0E9473
:100DB0002C11E091FF02F0E0EE0FFF1FEA56FD4F0D
:100DC0006181C8018E5E9E4F0E942C1184E1D89EE5
:100DD00080011124C0E0D0E08CE0F82E0C5F1E4FA3
:100DE0008091FF02FE01F89EE00DF11D1124E85FE5
:100DF000FE4F6081C8018C0F9D1F0E942C1121960F
:100E0000CC30D10569F785E1D89E80011124C0E07E
:100E1000D0E035E1F32E0B511D4F8091FF02FE0112
:100E2000F89EE00DF11D1124E952FE4F6081C801CA
:100E30008C0F9D1F0E942C112196C531D10569F799
:100E400083E0D89E80011124E12CF12C06501F4F25
:100E50008091FF0290E0FC01EE0FFF1FE80FF91FE9
:100E6000E855FD4FEE0DFF1D6081C8018E0D9F1DE1
:100E70000E942C118FEFE81AF80A83E0E816F104BB
:100E800039F782E3D89EE0011124CC59DF4FE12CE1
:100E9000F12C85E0D82E98E2C92E00E010E0809178
:100EA000FF02D09EF001D19EF00D1124C89EE00DEE
:100EB000F11D1124E75CFE4FEE0DFF1D6081C8019E
:100EC0008C0F9D1F0E942C110F5F1F4F08301105C2
:100ED00031F78FEFE81AF80A2A9685E0E816F10450
:100EE000E1F66091B80184E290E0DF91CF911F912B
:100EF0000F91FF90EF90DF90CF900C942C11BF9248
:100F0000CF92DF92EF92FF920F931F93CF93DF93D5
:100F100029ECE22E22E0F22E32E1C32E33E0D32E72
:100F200001ED12E0C2E1D0E0CE010E944011B82EE6
:100F3000CE0101960E9440112B2D30E0322F222746
:100F4000282BF701219331937F01C8010E944011A2
:100F500090E0F601819391936F0122960F5F1F4FEE
:100F6000C432D10509F784E290E00E94401190E07C
:100F70009093B9018093B80180912D02853131F4AD
:100F80008FE090E09093B9018093B801DF91CF9109
:100F90001F910F91FF90EF90DF90CF90BF90089539
:100FA000AF92BF92CF92DF92EF92FF920F931F9377
:100FB000CF93DF9309EC12E082E1C82E83E0D82EB4
:100FC00091EDE92E92E0F92EC2E1D0E0F8016181C5
:100FD000CE010E942C11F80160810E5F1F4FCE01DF
:100FE00001960E942C11F6016081F2E0CF0ED11C17
:100FF000C7010E942C1122968FEFE81AF80AC4321A
:10100000D10521F76091B80184E290E00E942C1193
:101010001092240363E085E290E00E942C11EDE839
:10102000F5E0859194912FB7F894FC01FF2780811A
:101030009095892380832FBF1092DB02DF91CF919F
:101040001F910F91FF90EF90DF90CF90BF90AF90E6
:1010500008951F920F920FB60F9211242F933F9372
:101060004F935F936F937F938F939F93AF93BF93B0
:10107000EF93FF938091B004882321F02091B00476
:10108000215001C028E08091B0049091B0049830C4
:1010900011F08F5F01C080E09091B004993039F574
:1010A00059988091780090917900909348038093AB
:1010B000470380914703909148032091AE043091FB
:1010C000AF04821B930B9093480380934703809156
:1010D00047039091480397FF04C010924803109271
:1010E000470380918D028061809381007BC03091A5
:1010F000320290E0332309F45AC03091B004311128
:101100000CC020917800309179003093DD0220935B
:10111000DC0221E0209302032CC030E0220F331FB9
:10112000F901EB5BFD4F408151816FB7F894FA01F3
:10113000FF2740815095452340836FBF4091780041
:1011400050917900F901E95CFC4F51834083408163
:101150005181D901A256BB4F2D913C91BA01621B1E
:10116000730B718360832081318137FF02C011824C
:101170001082FC01E35AFD4F80810E94851110927C
:1011800032028091B004882369F1E091B004F0E06C
:10119000EE0FFF1FEB5BFD4F808191812FB7F8941D
:1011A000FC01FF278081892B80832FBF1BC02091EA
:1011B000780030917900880F991FFC01E256FB4FAF
:1011C00031832083E091B004F0E0E35AFD4F808149
:1011D0000E94851181E0809332028091B0048F5F7C
:1011E0008093B004FF91EF91BF91AF919F918F9148
:1011F0007F916F915F914F913F912F910F900FBE13
:101200000F901F9018958093E9008091F200882339
:1012100019F08AE38093E80008951F920F920FB6A9
:101220000F9211242F933F934F935F936F937F936C
:101230008F939F93AF93BF93CF93EF93FF93C091FF
:10124000E1008091E100837F8093E100C3FF0FC044
:101250001092E90081E08093EB001092EC0082E3B1
:101260008093ED0010928C0288E08093F000C2FF22
:1012700015C083E00E94030980919C04882329F013
:1012800080919C04815080939C0480919B048823CE
:1012900029F080919B04815080939B04C4FF10C06F
:1012A0008091E2008E7E81608093E2008091E10077
:1012B0008F7E8093E10080918A028E7E806111C0D2
:1012C000C0FF11C08091E2008E7E80618093E200B9
:1012D0008091E1008E7E8093E10080918A028E7E73
:1012E000816080938A02FF91EF91CF91BF91AF917E
:1012F0009F918F917F916F915F914F913F912F912E
:101300000F900FBE0F901F901895DF92EF92FF92F3
:101310000F931F93CF93DF93D82E8A017B01E40EA6
:10132000F51EEB01CE15DF0571F0D7FE03C0FE01FF
:10133000849101C088810E94450321968111F2CFDA
:101340008FEF9FEF01C0C801DF91CF911F910F91E7
:10135000FF90EF90DF9008950F931F93CF93DF934B
:101360001F92CDB7DEB782E0898342E450E06FEA96
:1013700075E080E80E9485090E94F110DC01129658
:101380000D911C9113970115110589F0D801ED916C
:10139000FC910280F381E02DBE016F5F7F4FC80199
:1013A000099597FD04C0F80100851185ECCF89816E
:1013B0000F90DF91CF911F910F9108951F920F927F
:1013C0000FB60F921124CF92DF92EF92FF920F93FC
:1013D0001F932F933F934F935F936F937F938F93BD
:1013E0009F93AF93BF93EF93FF93CF93DF93CDB7CB
:1013F000DEB76C97DEBFCDBF1092E9008091E800A8
:1014000083FF0BC289E0FE017596EE2EDF2E815020
:1014100029F09091F10090833196F9CF84E6809382
:101420009B0482EF8093E8008D8987FF05C090912F
:10143000E80090FFFCCF03C09EEF9093E800982F48
:10144000907609F0C5C09E894F89588D2F89F88CF8
:1014500091110CC0803829F480918B028093F100A7
:1014600002C01092F1001092F1004BC1913051F482
:10147000811147C14130510509F043C180918B0270
:101480008D7F0BC0933061F481113BC14130510518
:1014900009F037C180918B02826080938B0231C149
:1014A000953049F48091E80080FFFCCF822F80685E
:1014B0008093E30026C1963009F05DC00B8D1C8D32
:1014C00022E01092E9001092990410929804F2120E
:1014D00032C010929704109296040E94AC0999E0D1
:1014E000BE016F5F7F4FDB01E92F1D92EA95E9F79F
:1014F0009983FA8291E09E8390EA98879AE099878F
:101500002091980430919904275F3F4F3C832B83AF
:101510008D831092E9001092990410929804109310
:1015200097040093960449E050E080E00E9485090A
:101530000E94AC09E6C010939704009396040E94A1
:10154000F110DC0112960D911C91139701151105F4
:1015500009F4C1C0D801ED91FC910480F581E02D22
:101560006E2D7D2DC8010995009709F0CEC0F801B8
:1015700000851185EBCF973009F44CC1983021F4E8
:1015800081E08093F100BDC0993009F0BAC083704A
:1015900009F040C1EFE3F2E081E031E096E3208121
:1015A000211109C08EE78093EA001092EA008F892A
:1015B00080938C02A6C08093E9003093EB002191C8
:1015C0002093EC009093ED008F5F873041F7EACFD6
:1015D0008B8D9C8D1092E9001092990410929804C2
:1015E0009093970480939604898D81115BC08E89B6
:1015F0009D89913A49F4813209F00CC147E050E0ED
:1016000066E372E080E0C2C0913209F003C1833228
:1016100069F48F89988DA0E0B0E080932E029093BA
:101620002F02A0933002B09331026BC08032A9F434
:101630008091E80082FFFCCF88E0E6E3F2E0815091
:1016400029F09091F10090833196F9CF84E6809350
:101650009B048BEF8093E80054C0823209F051C0A4
:101660008F8980933D02EEEFFFE7859194918B3F48
:101670009C4D19F0E0E0F8E002C0EEEFFAE0809156
:10168000360290913702A0913802B0913902803B26
:101690009440A105B10509F09DC080913D0280FFF5
:1016A00078C098C00E94F110FC01028113810115DD
:1016B000110509F4AFC0D801ED91FC910190F081C2
:1016C000E02D6E2D7D2DC801099581111AC0F801FC
:1016D00000851185ECCFF1E0FF1609F44EC0F3E070
:1016E000FF1298C08F89882309F44AC0823089F498
:1016F00040E865E082E296E00E947303882309F4E3
:1017000089C08EEF8093E80088C018161906CCF3C4
:1017100081C0813029F440E86AE187E096E0ECCFAF
:10172000833009F077C00E94F110DC011296ED9031
:10173000FC9013978E010F5F1F4F6801E114F104B5
:1017400079F0D701ED91FC910680F781E02DB80189
:10175000C7010995080F111DF701E084F184EECF50
:10176000D8011C92F60101900020E9F73197BF01E2
:101770006C197D0940E0C601BFCF65EF75E002C07E
:1017800061EF75E0FB01449150E080E80E9485091B
:10179000B8CFEE3F2AE0F20751F080819181873780
:1017A000A7E79A0721F09093FF0A8093FE0A87E744
:1017B00097E7918380838091600080939A049BE0F7
:1017C00088E10FB6F894A895809360000FBE9093BF
:1017D000600097CF808191818737974709F091CF3B
:1017E000A8958091600088618093600080919A0440
:1017F00080936000EE3FBAE0FB0739F08091FE0A6B
:101800009091FF0A918380837CCF1092FF0A1092FF
:10181000FE0A77CF81E28093EB006C960FB6F894C6
:10182000DEBF0FBECDBFDF91CF91FF91EF91BF9192
:10183000AF919F918F917F916F915F914F913F9168
:101840002F911F910F91FF90EF90DF90CF900F900D
:101850000FBE0F901F9018952FB7F8948770809344
:10186000E9009091E800892F807295FF04C0909163
:10187000F20080E4891B2FBF08957F928F929F9280
:10188000AF92BF92CF92DF92EF92FF920F931F938E
:10189000CF93DF93C82E8B017A0180918C02811146
:1018A00003C08FEF9FEF73C080918A0280FF05C055
:1018B0008091E00082608093E000CE2DDF2DD12C5E
:1018C0008AEFB82E8C2D8770982E8C2D8072882EE2
:1018D0008C2D8074782E9AE3A92E209719F4DD20A0
:1018E00009F451C08C2D0E942C0C81110AC0BA94AD
:1018F000BB20B9F261E070E080E090E00E94481700
:10190000ECCF282F30E0C217D3070CF48C2F9FB7F1
:10191000F8949092E9002091E80025FF32C0282F2A
:1019200030E0C21BD30B882029F08150A0F0109228
:10193000F100FBCFF801C7FE0AC0815050F044917E
:101940004093F1003196F9CF41914093F1008150DD
:10195000D8F7020F131FDD2019F0A092E8000AC08B
:101960008091E80085FD08C0A092E800DD24D394B2
:10197000209739F0D12C05C0209719F47110A0924E
:10198000E8009FBFAACF84E680939C04C701DF9143
:10199000CF911F910F91FF90EF90DF90CF90BF906C
:1019A000AF909F908F907F9008950F931F93CF9348
:1019B000DF9300D000D0CDB7DEB76150807FF894C0
:1019C000E82FF0E094E0F595E7959A95E1F7E98343
:1019D0006F70682B6A834F774B832F772C8306ECCD
:1019E00014E0F801838144E050E0BE016F5F7F4F57
:1019F0008F5F0E943D0CF80183818F5F0E94030975
:101A000078940F900F900F900F90DF91CF911F91CE
:101A10000F910895BF92CF92DF92EF92FF920F93B2
:101A20001F93CF93DF9386E1C82E82E0D82E0DE27C
:101A300011E0B12CDFE695E3E92EF12CC7010D97FB
:101A40000E944011C82FF60181936F01C7010E94C7
:101A50004011F80180838091F502882389F02EE1FE
:101A60002C0F2B0D46E667E080EB0E94D50CF801A9
:101A7000208127FD21584D2F67E080EB0E94D50C77
:101A8000FFEFEF1AFF0A0F5F1F4FDF5F8AE0B80E0C
:101A9000D237A1F6DF91CF911F910F91FF90EF9078
:101AA000DF90CF90BF9008952F923F924F925F9218
:101AB0006F927F928F929F92AF92BF92CF92DF925E
:101AC000EF92FF920F931F93CF93DF93CDB7DEB7C3
:101AD0002B970FB6F894DEBF0FBECDBF0091100359
:101AE00008878091C80190E01091B6021987609034
:101AF0000E0370900F032091BA01298360910C03AB
:101B000070910D03A0913402B0913502BB83AA837A
:101B1000E091C601F091C701FD83EC83BAE1AB2EE1
:101B2000B2E0BB2E03E013E01B870A8710EE212EE4
:101B300012E0312E05E2802E03E0902E27EB422E9C
:101B400022E0522EF50140E050E09301098402C0EA
:101B5000369527950A94E2F7D901A170BB27BF8378
:101B6000AE83B885B11142C0D4012D913C9182174A
:101B700093079CF5B985B41330C00E811F81012BEA
:101B800061F51981113099F4D201CD90DC90790181
:101B9000E81AF90AEC9C8001ED9C100DFC9C100DDC
:101BA0001124A3E016950795AA95E1F714C0B98111
:101BB000B23099F4D201CD90DC907901E81AF90A9B
:101BC000EC9C8001ED9C100DFC9C100D11241695D1
:101BD00007951695079511830083281739070CF090
:101BE000FBC0AA85BB851C9211821082D42ED40121
:101BF0002D913D914D0128173907D4F48B01042E06
:101C000002C0169507950A94E2F700FF11C0E12C77
:101C1000F12C8701E394042E04C0EE0CFF1C001F7E
:101C2000111F0A94D2F78701009510956023712344
:101C30000A811B810D2C02C0169507950A94E2F7C4
:101C400000FF5BC08B010D2C02C0169507950A940E
:101C5000E2F700FD52C0B885B13031F0B1114DC08E
:101C60000985041709F449C0821793074CF58301CD
:101C70000D2C02C0169507950A94E2F700FF09C0E3
:101C800011821082281739073CF5AA85BB851C9262
:101C900023C0281B390BD101ED90FC902E9D8001B3
:101CA0002F9D100D3E9D100D11241695079516952C
:101CB00007951183008301E0AA85BB850C930CC0B6
:101CC00028173907ECF283010D2C02C016950795F1
:101CD0000A94E2F700FDD4CFAA85BB852C91213070
:101CE00061F4930102C036952795DA94E2F720FF5C
:101CF00004C00C811D81118300834F5F5F4F3296BA
:101D00002A853B852F5F3F4F3B872A8732E0230E92
:101D1000311CA2E04A0E511C4930510509F021CF77
:101D200070930D0360930C0380E090E0F501219126
:101D300031915F01820F931FFCE2AF16F2E0BF0604
:101D4000A9F79093CA018093C9018115904234F09C
:101D50008FEF9FE19093CA018093C9012091C9013F
:101D60003091CA018FEF9FE1821B930B2091DE021D
:101D70003091DF02820F931F97FD05C09093CA0137
:101D80008093C90104C01092CA011092C901409108
:101D9000C9015091CA018091D5019091D601841753
:101DA000950701F118851230E8F48091F402882338
:101DB000C9F09A01220F232F221F330B4F7761E0C6
:101DC00080EE0E94D50C8091C9019091CA01909338
:101DD000D6018093D50106C0D42ED4012D913D911A
:101DE0004D0126CF2B960FB6F894DEBF0FBECDBFA8
:101DF000DF91CF911F910F91FF90EF90DF90CF90E7
:101E0000BF90AF909F908F907F906F905F904F901A
:101E10003F902F90089590918C02992311F057FFD5
:101E200003C08FEF9FEF08959FB7F894877080935A
:101E3000E9002091F20030E0421753070CF49A01B8
:101E4000822FFB0144E6815030F040939B04509177
:101E5000F1005193F8CF2115310521F08091F20066
:101E6000882319F09FBFC90108958BE68093E8008D
:101E7000F9CF9FB7F89487708093E9008091F200C2
:101E80009FBF0895CF92DF92EF92FF920F931F931F
:101E9000CF93DF936C017A018B01C0E0D0E0CE15C7
:101EA000DF0581F0D8016D918D01D601ED91FC9196
:101EB0000190F081E02DC6010995892B11F0219642
:101EC000EECF7E01C701DF91CF911F910F91FF905F
:101ED000EF90DF90CF900895CF93DF931F92CDB70F
:101EE000DEB76983DC01ED91FC910280F381E02D86
:101EF00041E050E0BE016F5F7F4F09950F90DF9189
:101F0000CF910895089580E090E0089580E090E0FA
:101F1000089580E00895FC0182818F5BFB0180833E
:101F200081E0089508950E941F2DCF93DF93EC0167
:101F300080913D02882331F083E00E943D0C181609
:101F4000190634F081E090E09B838A8380E090E082
:101F5000DF91CF91089583E00C94030983E00E9400
:101F60002C0C90E008950F931F93CF93DF931F9253
:101F7000CDB7DEB78C01FC018485958597FF12C033
:101F800041E050E0BE016F5F7F4F82E00E940B0F87
:101F9000019719F4898190E002C08FEF9FEFF8015B
:101FA00095878487F801848595850F90DF91CF917F
:101FB0001F910F910895CF93DF931F92CDB7DEB796
:101FC000FC018485958597FD05C02FEF3FEF358790
:101FD00024870FC041E050E0BE016F5F7F4F82E079
:101FE0000E940B0F019719F4898190E002C08FEFD6
:101FF0009FEF0F90DF91CF910895FC018485958527
:1020000097FD06C082E00E94390F90E00196089586
:1020100082E00E94390F90E0089584E0E4E8F2E065
:10202000DB0101900D928A95E1F784E00895CF924B
:10203000DF92EF92FF920F931F93CF93DF93CDB771
:10204000DEB7C456D1090FB6F894DEBF0FBECDBFC0
:102050006C01DB019C919E5F9C93FE01319684E6AE
:10206000DF011D928A95E9F788E089838BE08A83F6
:1020700022E02C8391E09D839E8339E0398774E0D0
:102080007A879E879F873A8B44E24B8B9C8B00E03C
:1020900011E01E8B0D8B89E0E82EF12CF88EEF8A73
:1020A000998F3B8F7C8F2F8F98A353E059A387E0A4
:1020B0008CA34DA39EA318A70FA301E410E01AA7B9
:1020C00009A786E08BA74CA72DA79EA79FA789AB42
:1020D0004AAB2BAB2CAB2DAB3FAB48AF59AF9AAF54
:1020E0005BAF9CAF2DAF9EAF21963FAF219722965D
:1020F0004FAF229723965FAF239724962FAF249755
:1021000025967FAF259726969FAF269727969FAF58
:10211000279728969FAF28972A963FAF2A9745E0A2
:102120002B964FAF2B972D962FAF2D9760E470E035
:102130002F967FAF6EAF2F9763964FAF639785E271
:1021400064968FAF649765969FAF659766969FAFCD
:10215000669767969FAF679768963FAF689769964F
:102160004FAF69976B962FAF6B976D967FAF6EAF42
:102170006D97A1964FAFA197A2968FAFA297A39606
:102180009FAFA397A4969FAFA497A5965FAFA5977F
:10219000D60112969C9112979B839B879F5F9A8F83
:1021A0009D8F13968C912C968FAF2C978F5F8068A4
:1021B0006A968FAF6A9744E650E0BF0180E00E94C4
:1021C0008509CC59DF4F0FB6F894DEBF0FBECDBFE7
:1021D000DF91CF911F910F91FF90EF90DF90CF9003
:1021E00008958091BE0481110DC082E08093BA04ED
:1021F00084E08093BB041092BD041092BC0481E083
:102200008093BE048AEB94E008951F920F920FB65C
:102210000F9211242F933F934F935F936F937F936C
:102220008F939F93AF93BF93EF93FF93E091000140
:10223000F09101010995FF91EF91BF91AF919F91AD
:102240008F917F916F915F914F913F912F910F905F
:102250000FBE0F901F9018951F93CF93DF93EC0143
:10226000162F0E94192C181739F0612FCE01DF911B
:10227000CF911F910C94212CDF91CF911F91089544
:102280000C94192C1092F202E091FF0285E1E89F74
:10229000F0011124E952FE4F8685813049F018F093
:1022A000823059F0089521894089678580E909C005
:1022B00021894089678580E804C021894089678534
:1022C00080EB0C94D50C81E08093F202E091FF0248
:1022D00085E1E89FF0011124E952FE4F82858130AB
:1022E00049F018F0823059F00895258544856385BA
:1022F00080E909C025854485638580E804C025857B
:102300004485638580EB0C94D50C823108F08251B2
:10231000E82FF0E0E85DF94FE49180917B00E3FB6A
:10232000222720F930E095E0220F331F9A95E1F73C
:102330008F7D282B20937B00E770E064E0937C0086
:1023400080917A00886480937A0008959C012F5FC1
:102350003F4F28233923232B71F09C0140E050E0AC
:1023600080E01216130644F420FF842F359527953C
:102370004F5F5F4FF6CF8FE70895AF92BF92CF9236
:10238000DF92EF92FF920F931F93CF93DF93809191
:10239000FF0290E0FC01EE55FD4F41E0208121114C
:1023A00001C040E04093B90421E0FC01E156FD4F3B
:1023B0003081311101C020E02093F702FC01ED567D
:1023C000FD4F008121E0011101C020E02093B804FD
:1023D0009C01220F331FF901EE5FFE4F6081718176
:1023E000709335026093340251E0FC01EB55FD4FD0
:1023F0006081611101C050E05093B102FC01EB54C7
:10240000FB4F508150930103FC01E35DFE4F50816F
:1024100050930003FC01EB54FE4F50815093100386
:10242000FC01E057FD4F108151E0111101C050E057
:102430005093B404F901EA56FD4FC081D181D09385
:10244000B304C093B204FC01EA5CFE4F5081509388
:10245000C801F901E05DFE4F208131813093C70151
:102460002093C601FC01EE54FE4F208120931902F7
:102470002CE0289FF001299FF00D1124E85FFE4F0A
:1024800026E0429FE00DF11D1124F080F09233020E
:1024900081818093C10182818093BC01838180937B
:1024A000BB01848190E09093C0018093BF0185813E
:1024B00090E09093BE018093BD018FEF9FE19093D8
:1024C000CA018093C9011092DF021092DE020E94BD
:1024D00082176093F8027093F9028093FA02909346
:1024E000FB024091C9015091CA019A01220F232F8A
:1024F000221F330B4F7761E080EE0E94D50CEAE19A
:10250000F2E0A3E0B3E0119211921D9282E0EC326E
:10251000F807C9F7002389F0E091FF02F0E0EA5ED6
:10252000FD4F8081823010F0843039F480911003A7
:10253000813019F48093110302C01092110311111C
:102540000AC080918E0290918F0203969093C301EE
:102550008093C20105C02396D093C301C093C201EA
:102560008091C2019091C301A4E0FA9E800D911D5B
:1025700011249093C5018093C4018091C8010EEC91
:102580001FEF081B1109C091C601D091C70123E0BC
:10259000CC0FDD1F2A95E1F7E9ECF2E037EBC32E13
:1025A00032E0D32E40EEE42E42E0F42E58EFA52E7A
:1025B000BB24BA9421913191200F311FC501B9017B
:1025C0000E94052D76956795D6016D937D936D01DB
:1025D000CE01B9010E94052D76956795D7016D93BF
:1025E0007D937D01B2E0EB3DFB0721F7E091FF0217
:1025F00025E1E29FF0011124E952FE4F8681A8E017
:102600008A9FC00111248C599F4F9093D4018093CD
:10261000D3018085B1E88B9FC00111249093CC0138
:102620008093CB01818521E8829FC0011124909382
:10263000CE018093CD01DF91CF911F910F91FF903B
:10264000EF90DF90CF90BF90AF900895CF93DF933E
:102650004091FF0250E0C82FD0E0FA01EE0FFF1FBB
:10266000E40FF51FE855FD4FEC0FFD1F8081882317
:10267000E9F085E08C9FF0018D9FF00D112488E238
:10268000849F9001859F300D1124E20FF31FE75CBA
:10269000FE4F818181110AC024814381628180E9DA
:1026A0000E94D50CC456DD4F81E08883DF91CF9125
:1026B0000895EF92FF920F931F93CF93DF9320E63D
:1026C0004EE667E080EB0E94D50C20911602225E58
:1026D00046E667E080EB0E94D50C20911702285D4A
:1026E00046E667E080EB0E94D50C209118022E5C34
:1026F00046E667E080EB0E94D50C2091FF02245C47
:1027000046E667E080EB0E94D50C2091C80147E6C1
:1027100067E080EB0E94D50C2091C6013091C70183
:10272000A4E6B0E00E947B2C2FEF3FE140E050E0B8
:102730000E94592C45E767E080EB0E94D50C209160
:1027400010032A5B46E667E080EB0E94D50C2091DF
:102750001902205B46E667E080EB0E94D50C2091D1
:10276000F602285846E667E080EB0E94D50C2091DF
:10277000B102215C46E667E080EB0E94D50C209117
:10278000B9042F5B46E667E080EB0E94D50C2091F0
:10279000F7022D5B46E667E080EB0E94D50C2AE24B
:1027A00033E04AE667E080EB0E94D50C2091B80444
:1027B000205F4AE667E080EB0E94D50C2091B404CC
:1027C000295D4AE667E080EB0E94D50C2091B801B4
:1027D0004DE667E080EB0E94D50C22E248E667E018
:1027E00080EB0E94D50CC091B204D091B3042C2F81
:1027F0002F7749E667E080EB0E94D50C23E248E69C
:1028000067E080EB0E94D50C9E01220F232F221F30
:10281000330B49E667E080EB0E94D50C20912D0137
:1028200027FD21584FE667E080EB0E94D50C2091F0
:102830002E0127FD215840E767E080EB0E94D50C70
:1028400020912F0127FD08C041E767E080EB0E943F
:10285000D50CC0E0D0E002C02158F6CFE091FF02D5
:10286000F0E0EE0FFF1FEE5FFE4F208131810C2E56
:1028700002C0369527950A94E2F72170220F822F25
:10288000880F880F280F8C2F8C5E280F4AE667E090
:1028900080EB0E94D50C2196C930D105F9F600E0F5
:1028A00010E035E0E32E48E2F42E2AE5200F46E65C
:1028B00067E080EB0E94D50C8091FF02E09EE00172
:1028C000E19ED00D1124FE01F89EE00DF11D1124B2
:1028D000E75CFE4F20812C5946E667E080EB0E94C2
:1028E000D50C8091FF02FE01F89EE00DF11D112430
:1028F000E75CFE4F8081813099F52181205946E6C1
:1029000067E080EB0E94D50C8091FF02FE01F89EEB
:10291000E00DF11D1124E75CFE4F22814AE667E0DD
:1029200080EB0E94D50C8091FF02FE01F89EE00D25
:10293000F11D1124E75CFE4F23814BE667E080EB3D
:102940000E94D50C8091FF02F89EC00DD11D11246C
:10295000C75CDE4F2C814CE667E080EB0E94D50C13
:102960000F5F1F4F0830110509F09FCFC0E0D0E086
:1029700015E12C2F235F48E667E080EB0E94D50C21
:102980008091FF02FE01189FE00DF11D1124E95214
:10299000FE4F208149E667E080EB0E94D50C21962E
:1029A000C531D10531F7C0E0D0E02C2F265A46E6DC
:1029B00067E080EB0E94D50C8091FF0290E0FC0163
:1029C000EE0FFF1FE80FF91FE855FD4FEC0FFD1F3D
:1029D00020812B5846E667E080EB0E94D50C2196BB
:1029E000C330D10511F7C0E0D0E01CE02C2F2F5FE1
:1029F00048E667E080EB0E94D50C8091FF02FE0163
:102A0000189FE00DF11D1124E85FFE4F208149E67B
:102A100067E080EB0E94D50C2196CC30D10531F7D0
:102A2000DF91CF911F910F91FF90EF9008950F9339
:102A30001F93CF93DF934091FF02C82FD0E0242F44
:102A400030E098E2499FF0011124A5E08A9FE00D53
:102A5000F11D1124E75CFE4FE0818E2F90E0FC0118
:102A60003197E930F10508F091C1EB59FF4F0C9413
:102A7000192D85E08C9FF0018D9FF00D112448E207
:102A8000429FC001439F900D1124E80FF91FE75C9E
:102A9000FE4F8181811116C08E0104561D4FD80151
:102AA0008C91248143816281811107C080E90E9459
:102AB000D50C81E0F801808305C080E80E94D50C28
:102AC000D8011C928091FF0295E09C9FF0019D9F90
:102AD000F00D1124B8E28B9FE00DF11D1124E75C8D
:102AE000FE4F8181813031F424814381628180EB0A
:102AF0000E94D50C8091FF0295E09C9FF0019D9F64
:102B0000F00D112498E2899FE00DF11D1124E75C7E
:102B1000FE4F8181823021F4638182810E94F01610
:102B20008091FF0295E09C9FF0019D9FF00D112484
:102B3000282F30E0A8E28A9FE00DF11D1124E75C08
:102B4000FE4F8181833061F58091B1048F3720F48D
:102B50008F5F8093B10402C01092B10485E08C9F16
:102B6000F0018D9FF00D112448E2429FC001439F68
:102B7000900D1124E80FF91FE75CFE4F6091B1043E
:102B800082810E94F01681E0809349030E9482179F
:102B90006093B2027093B3028093B4029093B50233
:102BA0008091FF0295E09C9FF0019D9FF00D112404
:102BB000282F30E0B8E28B9FE00DF11D1124E75C77
:102BC000FE4F8181843009F0E1C08091B1048823F7
:102BD00011F0815001C08FE78093B10485E08C9F94
:102BE000F0018D9FF00D112448E2429FC001439FE8
:102BF000900D1124E80FF91FE75CFE4F6091B104BE
:102C000082810E94F016B5C0F901EB54FE4F80811D
:102C10008F5F833011F0808301C010820E94BD114C
:102C2000809110038F5F809349030E948217609305
:102C3000B2027093B3028093B4029093B502809174
:102C4000F502882309F4A2C0209110032A5B7FC0FB
:102C50004F5F433019F04093FF0202C01092FF0211
:102C60001092F3020E94BD118091FF028F5F80934A
:102C700049030E9482176093B2027093B30280935B
:102C8000B4029093B5028091F502882309F47EC0C6
:102C9000DF91CF911F910F910C9459139091F302F2
:102CA00081E089278093F30271C080910103833012
:102CB00094F4F901EB54FB4F80818F5F09C0809140
:102CC00001038D3F44F0F901EB54FB4F80818150AB
:102CD00080830E94BD1180910103082E000C990B86
:102CE00097FF48C091958195910944C0C1E020E0CB
:102CF0004BE76C2F80EB0E94D50C1092F202CF5F55
:102D0000C131A9F743C0F901EE54FE4F80818F5FB6
:102D1000843011F0808301C010820E94BD11109296
:102D2000F302809119028F5F809349030E948217FA
:102D30006093B2027093B3028093B4029093B50291
:102D40008091F502882311F120911902205B46E65B
:102D500067E080EBDF91CF911F910F910C94D50C20
:102D60008091F202811103C00E94631102C00E948F
:102D7000421181E0809349030E9482176093B2025E
:102D80007093B3028093B4029093B502DF91CF9118
:102D90001F910F9108953FB7F8948091D7049091B7
:102DA000D804A091D904B091DA0426B5A89B05C037
:102DB0002F3F19F00196A11DB11D3FBFBA2FA92FBA
:102DC000982F8827820F911DA11DB11DBC01CD0137
:102DD00043E0660F771F881F991F4A95D1F7089522
:102DE0000F931F93CF93DF9300D000D0CDB7DEB702
:102DF0008150F8949CE099838F70806C8A836F7700
:102E00006B831C8206EC14E0F801838144E050E0FF
:102E1000BE016F5F7F4F8F5F0E943D0CF801838181
:102E20008F5F0E94030978940F900F900F900F907E
:102E3000DF91CF911F910F910895823108F0825157
:102E4000E82FF0E0E85DF94FE49180917B00E3FB2F
:102E5000222720F930E095E0220F331F9A95E1F701
:102E60008F7D282B20937B00E770E064E0937C004B
:102E700080917A00806480937A0080917A0086FD48
:102E8000FCCF809178002091790090E0922B0895FA
:102E90008F929F92AF92BF92CF92DF92EF92FF926A
:102EA0006B017C010E94CB164B015C01C114D10463
:102EB000E104F104F1F00E94CB16DC01CB0188198A
:102EC0009909AA09BB09883E9340A105B10570F391
:102ED00021E0C21AD108E108F10888EE880E83E0EB
:102EE000981EA11CB11CC114D104E104F10419F70E
:102EF000DDCFFF90EF90DF90CF90BF90AF909F908D
:102F00008F9008952FB7F8946091D3047091D404F2
:102F10008091D5049091D6042FBF08951F920F92EF
:102F20000FB60F9211242F933F938F939F93AF93DC
:102F3000BF938091D3049091D404A091D504B09113
:102F4000D6043091D20426E0230F2D3720F40296C8
:102F5000A11DB11D05C029E8230F0396A11DB11DB8
:102F60002093D2048093D3049093D404A093D504E7
:102F7000B093D6048091D7049091D804A091D9043D
:102F8000B091DA040196A11DB11D8093D7049093EE
:102F9000D804A093D904B093DA04BF91AF919F9164
:102FA0008F913F912F910F900FBE0F901F9018950A
:102FB000CF93DF93CDB7DEB72F970FB6F894DEBF70
:102FC0000FBECDBF789484B5826084BD84B5816026
:102FD00084BD85B5826085BD85B5816085BD8091E4
:102FE0006E00816080936E0010928100809181005C
:102FF0008260809381008091810081608093810054
:103000008091800081608093800080919100826037
:1030100080939100809191008160809391008091D4
:1030200090008160809390008091C10084608093C3
:10303000C1008091C10082608093C1008091C10075
:1030400081608093C1008091C30081608093C30040
:103050008091C00082608093C0008091C200816036
:103060008093C20080917A00846080937A0080917E
:103070007A00826080937A0080917A008E7F8093BC
:103080007A0080917A00806880937A0010928C0296
:1030900010928B0210928A028091D70081608093F7
:1030A000D70080EA8093D80089B58F7E89BD89B525
:1030B000826089BD09B400FEFDCF61E070E080E070
:1030C00090E00E9448178091D8008F7C80618093A7
:1030D000D8008091E000807F8093E0008091E10043
:1030E0008E7E8093E1008DE08093E2008FEF8093ED
:1030F0007E0083EF80937D00EDE8F5E0859194916B
:103100002FB7F894FC01FF278291892B80832FBF72
:10311000E5E9F5E0859194912FB7F894FC01FF273C
:10312000DF018E91392F309583238C938081892BF9
:1031300080832FBFE5E4F2E0819191912FB7F8945D
:10314000DC01BB278E91892B8C932FBF22E0E735C2
:10315000F20791F72198299A22982A9A23982B9A74
:1031600084E893E00E944011853111F480932D0290
:103170008CE290E00E944011833009F44DC010921F
:10318000FF0280E00E94170681E08093FF020E9408
:10319000170682E08093FF020E9417061092FF023A
:1031A00083E0809349030E9482176093B202709378
:1031B000B3028093B4029093B50208E210E0C80114
:1031C0000E944011682FC80180579E4F0E942C1109
:1031D0000F5F1F4F003431E0130789F705EE12E04F
:1031E000C8010E944011682FC801CF960E942C117F
:1031F0000F5F1F4F043243E0140791F784E290E021
:103200000E944011682F86E290E00E942C1163E03A
:103210008CE290E00E942C1185E290E00E94401127
:10322000833011F40E947F070E940A0D0E947304EC
:1032300086E10E941D1786E10E941D1786E10E940B
:103240001D1790938F0280938E0290938904809330
:1032500088040E94BD11EDE8F5E0859194912FB7A7
:10326000F894FC01FF278081892B80832FBF64EFB6
:1032700071E080E090E00E944817EDE8F5E085916C
:1032800094912FB7F894FC01FF27808190958923B2
:1032900080832FBF80912D02853121F580917A00A6
:1032A000887F80937A0080917A00856080937A008D
:1032B00080E1809381001092800081E080938D02F4
:1032C00028EA32E0309387002093860091E19093C2
:1032D000810028EA33E030930101209300018093BC
:1032E0006F0029C080E1809381001092800091E0FE
:1032F00090938D0220E931E030938700209386007F
:1033000021E12093810026E534E0309301012093F0
:10331000000190936F008093810080917A00887FF4
:1033200080937A0084E880937A0080E480937C0024
:1033300081E00E948511FF24F394E5E1BE2EFCE0BC
:10334000AF2EA3E0EA2EF89480914A0490914B04AA
:10335000A0914C04B0914D0440914E0450914F0403
:103360006091500470915104841B950BA60BB70B10
:103370008F739927AA27BB27892B8A2B8B2B09F0C0
:1033800061C08091C9040E94390F882309F46EC07E
:1033900080914A0490914B04A0914C04B0914D044B
:1033A0000196A11DB11D2C013D015FE3452255246D
:1033B0006624772480914E0490914F04A09150048C
:1033C000B091510484159505A605B705D9F18091F2
:1033D000C9040E94390F44E050E0BE016F5F7F4F87
:1033E0008091C9040E940B0F049764F180914A04F4
:1033F00090914B04A0914C04B0914D04880F991FFB
:10340000880F991FFC01E65BFC4F49815A816B8153
:103410007C81408351836283738340924A0450923B
:103420004B0460924C0470924D04D301C20101968A
:10343000A11DB11D2C013D016FE3462255246624D8
:103440007724B8CF80914E0490914F04A0915004FE
:10345000B0915104880F991F880F991FFC01E65BFA
:10346000FC4F908181810281138104C010E000E053
:1034700080E090E020904A0430904B0440904C044F
:1034800050904D0440914E0450914F04609150046F
:10349000709151042416350646065706C1F0409136
:1034A0004E0450914F0460915004709151044F5F4D
:1034B0005F4F6F4F7F4F4F73552766277727409396
:1034C0004E0450934F0460935004709351047894C9
:1034D000992309F4E4C3073708F035CF8F7086309D
:1034E00009F031CFF09249030E9482176093B20233
:1034F0007093B3028093B4029093B502063609F03C
:10350000EBC1C12ED12C8FEF810F823168F510FDF8
:1035100020C0960135952795F901EE0FFF1FE9535D
:10352000FD4F808191810597918380834091B801FF
:103530005091B901AEECBFEFA41BB50B8A0F9B1FD6
:103540000597D0F42D5E46E667E080EB0E94D50C2F
:1035500013C0F6013196EE7FE953FD4F80819181D2
:1035600005969183808308C0133109F028C20E9418
:10357000D007E09249033CC01E3739F4F092F502BF
:10358000109249030E94591333C01F3331F4E09164
:10359000FF02F0E0EB55FD4F1FC0103431F4E09115
:1035A000FF02F0E0EB55FD4F20C0113431F4E09103
:1035B000FF02F0E0EE55FD4F0FC0123431F4E09100
:1035C000FF02F0E0EE55FD4F10C0133439F4E091E6
:1035D000FF02F0E0E156FD4F108208C0143441F4C0
:1035E000E091FF02F0E0E156FD4FF0820E94BD1134
:1035F00082EE810F883020F4809316020E94BD1164
:1036000088ED810F883020F4809317020E94BD114D
:103610008EEC810F883020F4809318020E94BD1137
:103620002CE3822E912C80E066246394680EC814EB
:10363000D90451F48093FF021092F3020E94BD114D
:103640000E94591360924903862DBFEF8B1A9B0A83
:10365000833051F796E4892E912C8AEB880DC8149B
:10366000D90469F4E091FF02F0E0EB54FE4F80834F
:103670000E94BD11809110038F5F80934903EFEF8B
:103680008E1A9E0AF9E48F16910439F780E5882E88
:10369000912C80EB880DC814D90469F4E091FF02E5
:1036A000F0E0EE54FE4F80830E94BD11809119021C
:1036B0008F5F809349032FEF821A920A35E58316B4
:1036C000910439F79091B1012AE530E086EA820F42
:1036D000C216D30609F4982F2F5F3F4F22363105CB
:1036E000A9F79093B1018091FF02B091490348E29C
:1036F000849FB001112440E050E0A0E09A1791F0BF
:10370000AF5F4B5F5F4FA830C9F7B0934903ECE957
:10371000F2E063E0869FA001112448555D4F20E050
:1037200030E032C0FA01E60FF71FE75CFE4F24E6F7
:1037300030E00F2EFCE99F2EF02D920EC216D3061C
:1037400011F49082B0E02F5F3F4F2037310589F7A9
:103750000F2EF0E99F2EF02D920EC216D30609F41B
:1037600091822F5F3F4F2537310591F7C9CF15372C
:1037700071F4DA01A20FB31F1C9210822F5F3F4F2A
:1037800031962330310551F09213F8CFF0CF163730
:10379000A9F7DA01A20FB31FFC92EFCF1B3799F400
:1037A0000E9417060E940A0D0E947304E0924903CA
:1037B0000E9482176093B2027093B3028093B402A6
:1037C0009093B502D1C01C37C9F4D12C8D2D0E9425
:1037D00017060E940A0D0E947304E09249030E949A
:1037E00082176093B2027093B3028093B4029093F5
:1037F000B502D39473E0D712E9CFB6C01D3709F0F4
:10380000B3C0B8EBCB2EDD24D394C6010E94401187
:10381000682FC601805991400E942C118FEFC81A61
:10382000D80A90EDC91692E0D90679F7A4E2CA2E1B
:10383000A3E0DA2EC6010E944011682FC601CF977F
:103840000E942C11AFEFCA1ADA0AB3E6CB16B3E026
:10385000DB0681F780912D028631C0F486E290E08C
:103860000E944011682F84E290E00E942C110E9477
:103870000A0D0E947F070E947304F092F5020E94D5
:10388000BD110E945913E09249036EC0C12CD12C86
:10389000C6010E944011682FC60142960E942C1159
:1038A000EFEFCE1ADE0AF2E1CF16D10489F7FBED75
:1038B000CF2EF2E0DF2EC6010E944011682FC60114
:1038C0000A970E942C112FEFC21AD20A35EEC316A6
:1038D00032E0D30681F7C2CF073631F4E091FF0220
:1038E000F0E0EA5CFE4F2DC0053779F5C090FF028D
:1038F000D12CC601880F991FAC01405D5E4F6A0153
:10390000212F30E0AFEFBFE10E947B2C24E630E0B6
:1039100040E050E00E94592CD6012D933C9312C0F8
:10392000093609F094C080912C01E091FF028C309F
:1039300008F06BC0AE9EF0011124E85FFE4FE80F67
:10394000F11D10830E94BD110FC00F3609F43FC056
:10395000003709F446C0013709F44DC0083601F7B5
:103960008FEF810F80932C013091B1018091FF0284
:1039700058E2859FC0011124875C9E4F40E050E0D3
:1039800020E0321316C00A3639F4103190F4FC01ED
:10399000E40FF51F12830DC00B3629F4FC01E40F70
:1039A000F51F138306C00C3621F4FC01E40FF51F4C
:1039B00014832F5F4B5F5F4F283019F7C4CC1F373C
:1039C00009F0DACD10924903F092240311CE12339C
:1039D00018F410932D01B6CF81E8810F80932D014B
:1039E000B1CF123318F410932E01ACCF81E8810FC0
:1039F00080932E01A7CF123318F410932F01A2CF7A
:103A000081E8810F80932F019DCF813248F4BE9EC3
:103A1000F0011124E952FE4FE80FF11D3C9791CFC0
:103A2000813219F4109352049FCF823209F09CCF57
:103A3000F0E0EE0FFF1FEA56FD4FB0E81B9FC001FC
:103A4000112420915204822B918380837BCF0D36E9
:103A500039F4812F90E09093B9018093B80184CF1D
:103A60000A3609F081CF103108F47ECF103139F4D5
:103A7000E091FF02F0E0ED56FD4F108208C01131D9
:103A800041F4E091FF02F0E0ED56FD4FF0820E941C
:103A9000BD118CEE810F8930E0F4E091FF02F0E07F
:103AA000EE0FFF1FEE5FFE4F8CEE810F41E050E006
:103AB00060E070E004C0440F551F661F771F8A95B1
:103AC000D2F780819181482B592B518340830E94EA
:103AD000BD1182EE810F893008F5E091FF02F0E020
:103AE000EE0FFF1FEE5FFE4F82EE810F21E030E010
:103AF00040E050E004C0220F331F441F551F8A9539
:103B0000D2F7DA01C9018095909520813181822315
:103B10009323918380830E94BD1112C0173239F420
:103B2000E091FF02F0E0E057FD4F10820BCF18321A
:103B300039F4E091FF02F0E0E057FD4FF08202CF50
:103B4000193259F5C0908804D0908904E091FF02A1
:103B5000F0E0EE0FFF1FEA56FD4FD182C08222E255
:103B600048E667E080EB0E94D50C2C2D2F7749E6C4
:103B700067E080EB0E94D50C23E248E667E080EB2B
:103B80000E94D50C9601220F232F221F330B49E6EA
:103B900067E080EB0E94D50CD5CE1A3231F432E0CA
:103BA0003093240310924903DFCE1B32A1F52091FC
:103BB000880430918904C090FF02BC9CC00111248C
:103BC000AC0149525E4F6A01822F8F77DA0153961A
:103BD0008C9353974901880C892C881C990854961A
:103BE0008C9220E248E667E080EB0E94D50CF6015B
:103BF000238949E667E080EB0E94D50C21E248E684
:103C000067E080EB0E94D50C282D49E667E080EB49
:103C10000E94D50CA9CE1E3239F4E091FF02F0E0EB
:103C2000E450FD4F1082A0CE1F3239F4E091FF0224
:103C3000F0E0E450FD4FF08297CE1D3209F094CEB3
:103C4000C12CD12CC60142960E944011682FC6019A
:103C50000E942C11FFEFCF1ADF0A22E1C216D10415
:103C600089F79BEDC92E92E0D92EC6010A970E94D2
:103C70004011682FC6010E942C113FEFC31AD30ACE
:103C800045EEC41642E0D40681F784E290E00E943B
:103C90004011682F86E290E00E942C1165CE0E94B0
:103CA0008217009192041091930420919404309112
:103CB0009504DC01CB01801B910BA20BB30B059784
:103CC000A105B10508F4ABC070909104AFE58A2E50
:103CD000A4E09A2E63E574E079876887B8E6EB2E56
:103CE000B4E0FB2E12E6A12E14E0B12E09E5C02EA1
:103CF00004E0D02E8BE6282E84E0382E8EE694E069
:103D00009E838D8306E514E0A7E5B2E0BB87AA8712
:103D10007D876C87F3E0FF8366246394D4014C9025
:103D2000442029F0F5011082D6011D921C92EA85EB
:103D3000FB8581919191FB87EA87FC01FF273297F0
:103D40002081892F992730E082239323892B11F03A
:103D50000C94662AD8018C91882319F08150D801DF
:103D60008C93D8016C9161110C94452AF701608203
:103D700077247394A885B9858D91B987A887811117
:103D80000C945B2AD7019C91992311F40C94882AF6
:103D900041100C94882AF1016082792ED6018D9110
:103DA0009C918D32914010F00C947D2AF701808116
:103DB000811105C0D5011C92F60111821082AC85DB
:103DC000BD858D93BD87AC87811102C0F40110823F
:103DD000FF81F150FF832FEF821A920A3FEFE31A1F
:103DE000F30A4FEFA41AB40A52E0C50ED11C6FEFCC
:103DF000261A360A8D819E8101969E838D830F5FE0
:103E00001F4FF1118BCF709291040E948217609323
:103E100092047093930480939404909395048091FA
:103E20009104882309F4ACC280917104882351F075
:103E300080916F04882331F010926F0410929104E6
:103E4000109271040091FF0295E1099FF001112485
:103E5000E952FE4F2289213029F580916B04882395
:103E600009F180916A0481111DC08091690481115A
:103E700019C080912403811115C080910E03909187
:103E80000F0396958795089769F410926B04209319
:103E900065048091F202811103C00E94631102C087
:103EA0000E9442118091B102882309F495C080914B
:103EB0006B04882309F490C080916A04811153C077
:103EC0008091690481114FC08091240381114BC0FE
:103ED00080910E0390910F0396958795409709F076
:103EE00042C010926B0481E08093650480911003BE
:103EF0008F5F833019F08093100302C0109210037B
:103F000010911003123069F48FEF9FE19093CA0172
:103F10008093C9012FE34FE761E080EE0E94D50C4A
:103F200002C0112319F081E0810F01C081E080936C
:103F300049030E9482176093B2027093B302809388
:103F4000B4029093B5028091F502882309F444C02D
:103F500026E4210F46E667E080EB0E94D50C8091B5
:103F60006B048823C9F180916A04811135C0809166
:103F70006904811131C08091240381112DC0809189
:103F80000E0390910F0396958795029729F510924D
:103F90006B0481E0809365040F5F033019F0009398
:103FA000FF0202C01092FF021092F3020E94BD11A4
:103FB0008091FF028F5F809349030E948217609374
:103FC000B2027093B3028093B4029093B5028091D1
:103FD000F50281110E94591380916E048823B1F07B
:103FE00080916A04811112C08091690481110EC010
:103FF0008091240381110AC080916504811102C05F
:104000000E94171510926E041092650480916F043F
:10401000882309F18091680481111DC080916A0490
:10402000811119C08091FF0290E0FC01EE0FFF1F8B
:104030008E0F9F1FFC01E855FD4F818181110BC040
:1040400080916604811103C081E00E9417151092CF
:104050006F041092660480917004882309F18091A6
:10406000680481111DC080916904811119C080917B
:10407000FF0290E0FC01EE0FFF1F8E0F9F1FFC015F
:10408000E855FD4F828181110BC080916704811139
:1040900003C082E00E94171510927004109267040A
:1040A00080916E048823E1F080912403811118C06F
:1040B0008091FF0290E0FC01EE0FFF1F8E0F9F1F0B
:1040C000FC01E855FD4F8081882351F08091650403
:1040D000811102C00E94171510926E04109265049F
:1040E00080916F048823C9F08091FF0290E0FC0169
:1040F000EE0FFF1F8E0F9F1FFC01E855FD4F8181C2
:10410000882359F080916604811103C081E00E94E8
:10411000171510926F041092660480917004882322
:10412000C9F08091FF0290E0FC01EE0FFF1F8E0F9F
:104130009F1FFC01E855FD4F8281882359F0809133
:104140006704811103C082E00E9417151092700469
:104150001092670480916E048823E1F080916904D5
:104160008823C1F0E091FF02F0E0CF01880F991F92
:10417000E80FF91FE855FD4F808181110BC0818147
:10418000811108C010926E0481E08093710483E075
:104190000E941715809170048823E1F080916904D2
:1041A0008823C1F0E091FF02F0E0CF01880F991F52
:1041B000E80FF91FE855FD4F818181110BC0828105
:1041C000811108C01092700481E08093710484E032
:1041D0000E94171580916204882311F1809169046F
:1041E00081111EC080916A0481111AC08091FF0262
:1041F00090E0FC01EE0FFF1F8E0F9F1FFC01E855A2
:10420000FD4F808181110CC085E00E94171581E06F
:1042100080935F041092620410925A041092590421
:1042200080916304882311F18091680481111EC07C
:1042300080916A0481111AC08091FF0290E0FC0114
:10424000EE0FFF1F8E0F9F1FFC01E855FD4F818170
:1042500081110CC086E00E94171581E080936004F4
:104260001092630410925C0410925B0480916404C9
:10427000882311F18091680481111EC08091690426
:1042800081111AC08091FF0290E0FC01EE0FFF1F28
:104290008E0F9F1FFC01E855FD4F828181110CC0DC
:1042A00087E00E94171581E08093610410926404F6
:1042B00010925E0410925D0480916B04882381F15A
:1042C0008091B10281110BC0E091FF02A5E1EA9F4C
:1042D000F0011124E952FE4F82898130E1F480918E
:1042E0000E0390910F039695879588309105C1F044
:1042F00084309105A9F0029799F08091FF0290E037
:10430000FC01EE0FFF1F8E0F9F1FFC01E855FD4FB4
:104310008081882329F010926B0480E00E9426138C
:1043200080916C04882399F08091FF0290E0FC0159
:10433000EE0FFF1F8E0F9F1FFC01E855FD4F81817F
:10434000882329F010926C0481E00E94261380914A
:104350006D04882399F08091FF0290E0FC01EE0F3C
:10436000FF1F8E0F9F1FFC01E855FD4F82818823A0
:1043700029F010926D0482E00E942613109291049D
:1043800080914903882309F445C00E948217009157
:10439000B2021091B3022091B4023091B502DC0157
:1043A000CB01801B910BA20BB30B883C9105A1059F
:1043B000B10580F10E9482176093B2027093B3023C
:1043C0008093B4029093B5028091DB02EDE8F5E0B2
:1043D000882399F0859194912FB7F894FC01FF27D9
:1043E00080819095892380832FBF809149038150DC
:1043F000809349031092DB020DC0859194912FB7F1
:10440000F894FC01FF278081892B80832FBF81E0F6
:104410008093DB02F89405E2202E03E0302E910118
:1044200080E090E0FC01EE0FFF1FE95CFC4F408153
:104430005181F901419351939F0101968930910572
:1044400089F7789480912D02863128F487E393E0F0
:10445000E5E2F3E018C0809124038111F7CF22E157
:1044600033E047E353E0E5E2F3E0D9016D917D915C
:104470009D0180819181861B970B819391934E17AB
:104480005F0799F7E3CF2081318137FF02C01182A6
:10449000108232968E179F07B1F700910E0310918C
:1044A0000F038091B8019091B9016EEC7FEF681B0A
:1044B000790BB9ECEB2EB2E0FB2EF70180E090E037
:1044C000B82ED1014D915D911D012191319169016C
:1044D000B2E3CB1AD108C416D50670F4412C512C86
:1044E00032014394082E04C0440C551C661C771CF2
:1044F0000A94D2F704291529260F371F24173507E8
:1045000078F021E030E040E050E004C0220F331F9B
:10451000441F551FBA94D2F72095309502231323D8
:1045200001968930910561F610930F0300930E03F5
:10453000C8010E94A6118093B6028091F5028823DB
:10454000D1F080917204909173048017910799F0D3
:10455000212F220F07FD216042E767E080EB0E94D8
:10456000D50C202F43E767E080EB0E94D50C109319
:10457000730400937204E091FF02F0E0EA5EFD4FE5
:104580002081822F8B7FB9F4A8014C7F5527569547
:104590004795FA01E259FB4FE4918E2F90E02430C9
:1045A00011F401FD0197FA01E159FB4FE491E09309
:1045B0008C04FC016EC02130A9F410FD04C082E01F
:1045C00080938C045EC00E7F1127F801E259FC4FE6
:1045D000249130E0F801E159FC4F049100938C04E0
:1045E000F90157C0223051F410FF4BC0F801EE7FA3
:1045F000FF27F695E795E251FD4F40C02330E9F4DF
:10460000C8019695879591600E94A61190E0ECED07
:10461000F2E020E030E0449150E08417950731F457
:10462000F901EE0FFF1FE352FD4F28C02F5F3F4FF0
:1046300032962930310579F727C0253051F4F80139
:10464000F695E795E452FE4FE491F0E0309709F5D6
:104650001BC0263041F4F801EE7FFF27F695E79561
:10466000E45AFE4F0BC0273079F410FF10C0F80158
:10467000EE7FFF27F695E795E452FF4FE491F0E0D7
:1046800008C0EAE4F0E005C0EFEFFFEF02C0E7E4A6
:10469000F0E0F0939004E0938F0410912403112331
:1046A00009F453C18091DB02811189C0E7E4F5E090
:1046B0004491E8E2F5E09491E9E0F5E08491882303
:1046C00009F44CC04423E1F150E0FA013197EF3096
:1046D000F105B0F5EA5AFF4F0C94192D2091800096
:1046E0002F7707C0209180002F7D03C0209180008C
:1046F000277F2093800024C024B52F7702C024B5E3
:104700002F7D24BD1DC0209190002F7707C02091E0
:1047100090002F7D03C020919000277F2093900070
:104720000FC02091C0002F7703C02091C0002F7DC3
:104730002093C00005C02091C200277F2093C200B3
:10474000E82FF0E0EE0FFF1FE251FB4FA591B4916F
:104750008FB7F894EC919E2B9C938FBF81E0809350
:10476000DB020E9482176093740470937504809337
:1047700076049093770480912403813081F08091B6
:10478000F602882309F4E1C01092CA021092C9020D
:104790008FEF90E09093130380931203D6C0EBEC5D
:1047A000F2E0A4E1B3E08BED92E02FEF30E0119264
:1047B00011922D933D938E179F07C9F7E0CF1130CB
:1047C000B1F40E9482178090740490907504A090B8
:1047D0007604B0907704DC01CB0188199909AA0905
:1047E000BB0981319742A105B105D0F061C01230FB
:1047F00009F074C00E948217809074049090750430
:10480000A0907604B0907704DC01CB018819990957
:10481000AA09BB0989389341A105B10548F160C0D7
:1048200027E233E082E1C82E83E0D82E49ED52E042
:10483000E9ECF2E0D9018D919D919D016281738136
:104840006817790710F493838283D60112966D91CD
:104850007C9113978617970724F413969C938E9355
:1048600012973296B2E0CB0ED11C4E175F0711F7AC
:104870008091F6028823D1F0809125039091260340
:104880002091C9023091CA022817390720F4909369
:10489000CA028093C9022091120330911303821738
:1048A000930724F490931303809312031130B1F40F
:1048B0000E9482170091740410917504209176046F
:1048C00030917704DC01CB01801B910BA20BB30B61
:1048D00081319742A105B105C0F437C01230A9F566
:1048E0000E9482170091740410917504209176043F
:1048F00030917704DC01CB01801B910BA20BB30B31
:1049000089389341A105B10500F10E94D00780913B
:10491000C8019EECC92EDD24DA94C81AD108E7EB51
:10492000F2E00BED12E028EF3FEFD7016D917D91A2
:104930007D016C0D7D1DC9010E94052D7695679541
:10494000619371930E151F0581F7809111038111F9
:104950001CC0809110038230C1F020918F043091EF
:10496000900480912C0290E08217930771F080915F
:104970008F0490919004019609F0DEC506C087303F
:1049800009F007C681E08093BA0180918F0490916D
:104990009004019631F080918F049091900480935F
:1049A0002C0280910203882309F438C1F894809185
:1049B000DC029091DD0290938304809382047894CA
:1049C000E091FF020E2F10E025E1E29FF00111249B
:1049D000E952FE4F8289833089F58091F20281117C
:1049E00011C0848930E8839FC00111242389822B60
:1049F000059620918204309183048217930714F462
:104A00000E9463118091F2028823C1F085E1809FAA
:104A1000F001819FF00D1124E952FE4F848940E896
:104A2000849FC00111242389822B2091820430911C
:104A300083042817390714F40E9442110E94821738
:104A400000917E0410917F042091800430918104B4
:104A5000AB01BC01401B510B620B730B8091BF017A
:104A60009091C001092E000CAA0BBB0B48175907E7
:104A70006A077B0720F080917D04811194C50E9414
:104A800082170091790410917A0420917B0430916F
:104A90007C04AB01BC01401B510B620B730B80917A
:104AA000BD019091BE01092E000CAA0BBB0B48174B
:104AB00059076A077B0720F080917804811176C539
:104AC00000918204109183044091880450918904DC
:104AD000F801E41BF50B6091BC0170E02091190214
:104AE00090917D04809178046E177F07ECF491110A
:104AF0001BC0811119C02130B9F46091C2017091BD
:104B0000C3016017710784F483E080938D042093C0
:104B10007D040E94821760937E0470937F048093CB
:104B200080049093810421C0401B510B6091BB0114
:104B300070E064177507F4F491111CC02223D1F0C2
:104B4000811118C030918D043330A1F481E080933D
:104B50008D04809378040E94821760937904709387
:104B60007A0480937B0490937C04109389040093CF
:104B7000880454C04091C2015091C30140175107AD
:104B80001CF031E030938D04213031F04017510793
:104B90001CF432E030938D0491111FC081111DC0AF
:104BA0002223B1F140175107D4F480912C0290E0F8
:104BB000CC973091C101389FA001399F500D11242D
:104BC0008091C4019091C501840F951F80179107B2
:104BD00034F082E080938D0402C0811119C021302D
:104BE000B9F480912C0290E0CC974091C101489F8C
:104BF0009001499F300D11248091C4019091C5010D
:104C0000820F931F801791071CF483E080938D041B
:104C10001093890400938804109202039091010379
:104C2000809100035CE0959F800D112480938E0499
:104C3000C0908D0463E0C61671F190911902933013
:104C400069F4E091FF02F0E0EA5EFD4F908191305F
:104C500029F190910E0390FF1EC020C09230F1F414
:104C6000E091FF02F0E0DF01AA5EBD4F9C91292F89
:104C70002B7F11F0963091F470910F037E871F8681
:104C80004E855F8541705527E450FD4F208130E00F
:104C90004217530719F4845F80938E04D090110358
:104CA000DD20D1F120918C042230B0F58FEF9FE10F
:104CB0009093CA018093C901213051F42091C6011B
:104CC0003091C701821B930B9093CA018093C90155
:104CD0000091C9011091CA018091DE029091DF021A
:104CE000080F191F1093CA010093C9018091D501C3
:104CF0009091D6010817190779F09801220F232FF8
:104D0000221F330B402F4F7761E080EE0E94D50CBD
:104D10001093D6010093D5010E9482170091F802EA
:104D20001091F9022091FA023091FB02DC01CB01D3
:104D3000801B910BA20BB30B0A97A105B10508F4D8
:104D4000B9C20E9482176093F8027093F9028093AF
:104D5000FA029093FB02E091FF02EE2EF12C85E126
:104D6000E89FF0011124E952FE4F8081882309F465
:104D7000AFC08091F7028111ABC02091C201309188
:104D8000C30180912C0290E0CC976091C101689F93
:104D9000A001699F500D11248091C4019091C5011B
:104DA000840F951FBC01621B730B75956795620F8D
:104DB000731FA3E0CA1203C0680F791F9C01809182
:104DC0008804909189048617970758F545E14E9D10
:104DD000F0014F9DF00D1124E952FE4F4181B4E1E5
:104DE0004B9FA0011124FB01E81BF90B4E9FC00152
:104DF0004F9F900D5E9F900D1124621B730B0E94BC
:104E0000052D669FB0011124A3E075956795AA95BD
:104E1000E1F77195619571097093DF026093DE028D
:104E200014C0861B970B25E12E9DF0012F9DF00DE0
:104E30001124E952FE4F4181489F9001499F300D56
:104E400011243093DF022093DE0285E18E9DF00174
:104E50008F9DF00D1124E952FE4F8181E8EC8E9F69
:104E6000C00111242091DE023091DF0282179307E6
:104E700024F49093DF028093DE028091100382304D
:104E800089F50091DE021091DF020150104E10935F
:104E9000CA010093C9018091D5019091D6010817EC
:104EA000190709F448C48091F402882309F443C423
:104EB0009801220F232F221F330B402F4F7761E0E1
:104EC00080EE0E94D50C1093D6010093D50133C417
:104ED000D1100AC080911003823009F484C00E946E
:104EE000540D81C0DD20D9F380918C04823009F00B
:104EF0007AC01092CA011092C901F701EA5EFD4F13
:104F00008081982F9B7F09F088C340912B0350919B
:104F10002C032091C80130E08091290390912A034D
:104F2000241735070CF054C360910E0363FD50C382
:104F3000421B530BE091E602F091E7022817390774
:104F40000CF037C362FD35C34E9FB0014F9F700D0B
:104F50005E9F700D11247695679576956795AC01E7
:104F6000421B530B2091E4023091E502429FC001A5
:104F7000439F900D529F900D11249695879596957D
:104F80008795680F791F7093CA016093C90180915A
:104F9000C6019091C7012091C9013091CA018217C1
:104FA000930708F45EC32091C9013091CA018FEFC5
:104FB0009FE1821B930B2091DE023091DF02820F72
:104FC000931F97FD53C39093CA018093C901009129
:104FD000C9011091CA018091D5019091D601801725
:104FE000910709F048C300918804109189048091C9
:104FF0008A0490918B04801B910B97FF03C09195BD
:105000008195910903970CF428C18091F5028823BA
:10501000D1F06801012E000CEE08FF082C2D2F772F
:1050200044E767E080EB0E94D50CA7019601F7E00A
:105030005695479537952795FA95D1F746E767E056
:1050400080EB0E94D50CE091FF022E2E312C25E141
:10505000E29FF0011124E952FE4F8281813009F074
:10506000F8C0E781C090D301D090D401E12CF12C9D
:10507000C801012E000CAA0BBB0B9C01AD012C1921
:105080003D094E095F09A0E2B3E00E944E2C48E0C2
:10509000E49F900111242C593F4F4901330FAA0876
:1050A000BB08A50194012C193D094E095F090E9416
:1050B0002F2C57FD0EC0213263E036074105510504
:1050C00074F469017A0174E6C70ED11CE11CF11C6D
:1050D0000CC0E4E6CE2ED12CE12CF12C06C074E8F5
:1050E000C72E73E0D72EE12CF12C85E1829DF001D3
:1050F000839DF00D1124E952FE4F8381813009F523
:1051000084EC9CE1A1E0B0E08093CF019093D001CA
:10511000A093D101B093D201A7019601C701B601B6
:105120000E94F52C9B01AC01C701B6010E94F52C31
:1051300020E137E240E050E00E94592C69017A01F9
:105140002DC08230F9F484E89CE1A0E0B0E08093C7
:10515000CF019093D001A093D101B093D20160E12F
:105160007CE58CE090E0A70196010E94592C68E054
:10517000C62E60E2D62EE12CF12CC21AD30AE40A24
:10518000F50A0CC084E893E0A0E0B0E08093CF0182
:105190009093D001A093D101B093D2012091CD0181
:1051A0003091CE014901A12CB12C4090CB015090FF
:1051B000CC01612C712CA7019601245631094109BB
:1051C0005109C501B40164197509860997090E943E
:1051D000F52CC090CF01D090D001E090D101F0909B
:1051E000D201A701960124563109410951090E94B3
:1051F0002F2CDA01C901840D951DA61DB71D84153C
:105200009505A605B7054CF457E075946794579437
:1052100047945A95D1F7242D0FC088169906AA06EF
:10522000BB0614F4D501C40147E0B595A795979541
:1052300087954A95D1F7282F85E1829DF001839DBE
:10524000F00D1124E952FE4F4581648180EB0E94EC
:10525000D50C10938B0400938A04809187048F5F90
:105260008A3019F08093870425C010928704E5E9FD
:10527000F5E085919491FC01FF2732972081892FD9
:10528000992730E08223932321E0892B09F420E041
:105290002093F60280918604821761F020938604A1
:1052A0008091F502882331F0285846E667E080EBCC
:1052B0000E94D50C0091FF0210E0F801EA5EFD4F5C
:1052C000E08095E0E91205C080918E0481508093C2
:1052D0008E044091F402442381F020912C0230E0AE
:1052E0008091850490E050918E04851B910957FDB3
:1052F00093952817390709F47EC090918D04809109
:10530000F702923010F0882341F0882309F46EC030
:105310008091F302882309F469C0F0902C02AFEF6A
:10532000FA1609F463C0809184048E3381F42091CD
:105330008E048F2D90E0820F911D27FD9A95863562
:10534000910529F480910203882309F44FC0B3E04A
:10535000EB1204C0ECE3FE120BC048C0F1E0EF1208
:1053600007C02EE3F21204C080910E0380FD3EC000
:105370004423D9F02FE74091850461E080E80E9442
:10538000D50C80911103811110C0809110038230DF
:1053900061F00E94540D0E9482176093F80270938E
:1053A000F9028093FA029093FB02D0908E04DF0CF6
:1053B0002FE74D2D61E080E90E94D50CD092850445
:1053C000F092840481E08093F40285E1809FF001F3
:1053D000819FF00D1124E952FE4F8289823059F4E9
:1053E0008091F202811107C00E9463118091F40242
:1053F000882309F440C090918D048091F702913088
:1054000011F48823C9F0882321F08091F3028823C6
:1054100099F033E0E31205C080912C028C3359F5EA
:105420000BC041E0E41227C080912C028E3319F5A5
:1054300080910E0380FF1FC02FE74091850461E03B
:1054400080E80E94D50C1092F40288E79CEE9093BD
:10545000D6018093D50185E1809FF001819FF00DF9
:105460001124E952FE4F8289823029F48091F202A0
:1054700081110E94421180E090E0892B11F40C947C
:105480009B190E9400000C949B1970E080E090E052
:105490000E94912C20E030E040E850E40E94F02C83
:1054A00087FF02C00C94BA1ED7011C9224E0F801B9
:1054B00020830C94BA1EF7019081911129C04110EC
:1054C00027C0AD81BE816C92782E22C0F801508039
:1054D000652D70E080E090E00E94912C20E030E0AB
:1054E00040E850E40E948A2C87FD02C00C94B11E53
:1054F0005394F80150820C94B11EF4018081811103
:105500000C94D61ED5016C92772473940C94D61EFD
:10551000F1011082882311F40C94CE1ED7018C91D6
:10552000882311F40C94CE1EF6018081918101969E
:10553000918380830C94CE1E80910E0390910F0373
:1055400090930D0380930C03EAE1F2E0A3E0B3E053
:105550008CE292E0119211921D928E179F07D1F763
:10556000E091FF02F0E0EA5EFD4F8081853039F482
:10557000E0918F04F0919004E35EFA4F10C0823006
:1055800009F0FDC9E0918F04F0919004EB5DFA4FB2
:1055900006C0E0918F04F0919004E25EFA4FE4912E
:1055A000E093BA01F2C910927D0469CA109278049E
:1055B00087CA4E9FB0014F9F700D5E9F700D1124E2
:1055C00076956795769567957093CA016093C90142
:1055D000281739070CF0DBCC40910E0342FDD7CCE5
:1055E000821B930B4091E4025091E502849F90014D
:1055F000859F300D949F300D1124C9019695879594
:10560000969587952091C9013091CA01820F931F09
:105610009093CA018093C901BACC813009F0C3CC00
:1056200040910E0350910F0350FF3FC020912B0378
:1056300030912C038091C80190E0821793070CF001
:1056400073C043FF5BC01092CA011092C9018091E0
:10565000C9019091CA01811590420CF4A4CC8FEF3E
:105660009FE19093CA018093C9019DCC1092CA0119
:105670001092C901ACCC8091F402882309F4B3CC18
:1056800080911003823008F0AECC9801220F232FB6
:10569000221F330B402F4F7761E080EE0E94D50C24
:1056A0001093D6010093D5019ECC43FD7CCC809114
:1056B0002B0390912C032091C80130E04091C6014A
:1056C0005091C70128173907A4F4821B930B6091EE
:1056D000E6027091E702869F9001879F300D969FAA
:1056E000300D1124C9019695879596958795481B8D
:1056F000590B5093CA014093C90155CC281B390B53
:105700004091E6025091E702249FC001259F900D31
:10571000349F900D11249695879596958795909333
:10572000CA018093C90193CF281739070CF48BCF96
:1057300043FD89CF38CCD110D7CB55CC1092DE04A5
:105740001092DD0488EE93E0A0E0B0E08093DF04E7
:105750009093E004A093E104B093E2048AE692E01F
:105760009093DC048093DB048FEF9FEF9093E80429
:105770008093E70482E08093CA048093CB0480ED99
:1057800094E09093CD048093CC041092CF041092B7
:10579000CE048CE792E09093C7048093C60480E81F
:1057A0008093D00481E88093D1040E94F110FC0121
:1057B00021818091CA0490E0820F911D0897C4F561
:1057C000A281B381109729F486EC94E093838283BD
:1057D0000EC018968D919C911997009711F0DC01DD
:1057E000F8CF86EC94E019969C938E93189780815D
:1057F0008093C80481818093C90490818091CB04F7
:10580000890F808380E09091CA04891788F4A09161
:10581000CC04B091CD04A80FB11D9C91A181B0E042
:10582000A25CBD4F9C9391819F5F91838F5FEBCF73
:105830000895F999FECF92BD81BDF89A992780B558
:105840000895262FF999FECF1FBA92BD81BD20BDC4
:105850000FB6F894FA9AF99A0FBE01960895052E9C
:1058600097FB1EF400940E94462C57FD07D00E941F
:10587000592C07FC03D04EF40C94462C50954095BF
:10588000309521953F4F4F4F5F4F089590958095EC
:10589000709561957F4F8F4F9F4F08950E947B2C8D
:1058A000A59F900DB49F900DA49F800D911D112474
:1058B0000895A1E21A2EAA1BBB1BFD010DC0AA1F51
:1058C000BB1FEE1FFF1FA217B307E407F50720F069
:1058D000A21BB30BE40BF50B661F771F881F991FE4
:1058E0001A9469F760957095809590959B01AC012D
:1058F000BD01CF010895A29FB001B39FC001A39F36
:10590000700D811D1124911DB29F700D811D1124F8
:10591000911D08950E94CC2C08F481E00895E8942C
:1059200009C097FB3EF490958095709561957F4FE7
:105930008F4F9F4F9923A9F0F92F96E9BB27939595
:10594000F695879577956795B795F111F8CFFAF4A5
:10595000BB0F11F460FF1BC06F5F7F4F8F4F9F4FD6
:1059600016C0882311F096E911C0772321F09EE834
:10597000872F762F05C0662371F096E8862F70E09A
:1059800060E02AF09A95660F771F881FDAF7880F74
:105990009695879597F90895990F0008550FAA0BCA
:1059A000E0E8FEEF16161706E807F907C0F0121632
:1059B0001306E407F50798F0621B730B840B950B35
:1059C00039F40A2661F0232B242B252B21F408958A
:1059D0000A2609F4A140A6958FEF811D811D089527
:1059E0000E94CC2C08F48FEF0895DB018F939F93D6
:1059F0000E944E2CBF91AF91A29F800D911DA39F3D
:105A0000900DB29F900D11240895AA1BBB1B51E16C
:105A100007C0AA1FBB1FA617B70710F0A61BB70B1E
:105A2000881F991F5A95A9F780959095BC01CD01C3
:105A30000895EE0FFF1F0590F491E02D099481E089
:0C5A400090E0F8940C94242DF894FFCF13
:105A4C00920FFF01FF01FF010F0F0F0F1E1E030826
:105A5C001C070F160F0F0F0F1E1E03081C070F1627
:105A6C000F0F0F0F1E1E03081C070F1664000008F3
:105A7C000004000400040A0A0A02000000000800E6
:105A8C0000000003000000000500000000060000FC
:105A9C0000000000000000000000000000000000FA
:105AAC0000020000000008000000000300000000DD
:105ABC0005000000000600000000000000000000CF
:105ACC0000000000000000000002000000000800C0
