:100000000C9401030C9429030C9429030C942903E8
:100010000C9429030C9429030C9429030C942903B0
:100020000C9429030C9429030C94A7080C94370909
:100030000C9429030C9429030C9429030C94290390
:100040000C9429030C9429030C9429030C94290380
:100050000C94160D0C9429030C9429030C94601332
:100060000C9429030C9429030C9429030C94290360
:100070000C9429030C94EA070C9429030C9429038B
:100080000C9429030C9429030C9429030C94290340
:100090000C9429030C9429030C9429030C94290330
:1000A0000C9429030C9429030C942903051E191E92
:1000B0002F1E481E051E611E6C1E741E391E29113E
:1000C000EB11F111F711FE111312341241126312E8
:1000D00076128612464646464646464646464646B8
:1000E00046464646464646464646464646464646B0
:1000F00046464646464646464646464646464646A0
:10010000464646464646464646464646464646468F
:10011000464646464545454545454545454545458B
:10012000454545454545454545454545454545457F
:10013000454545454444444444444444444444447B
:10014000444444444343434343434343424242427F
:100150004141403E4B4A4A494A4949484A4949482F
:10016000494848474A49494849484847494848470B
:100170004D4C4C4B4A494948494847464E4D4D4CD9
:100180004D4C4C4B48474746474646454D4C4C4BDB
:100190004C4B4B4A494848474847464548474645DF
:1001A00047464645484747464746464547464645EB
:1001B00046454544474646454645454446454544EB
:1001C00045444443454444434443434243424241FB
:1001D00041403E3F4B4B4B4B4B4B4B4B4B4B4B4B9D
:1001E0004B4B4B4A4B4B4B4B4B4B4B4B4B4B4B4B60
:1001F0004B4B4B4B4B4B4B4B4B4B4B4B4B4B4B4951
:1002000049494949504A4A4A4A4A4A4A4F4A4E4A43
:100210004D4A4B4A54545449494954545449494904
:1002200049494949535353535353534B4B4B4B4BEE
:100230004B4B534B525252525252525252525252B2
:100240005151515250505050505050504F4F4E4EAF
:100250004D4C4B4A4A4A4A4A4A4A4A4A4A4A4A4AF8
:100260004A4A4A4A4A4A4A4A4A4A4A4A4A4A4A4AEE
:100270004A4A4A4A494949494949494949494949EA
:10028000494949494B4B4B4B4B4B4B494B4B4B4BC8
:100290004B4B4B4B484848484848484848484848D2
:1002A00048484848474A47474747474747474747D7
:1002B00047474747464646464646464645464646DB
:1002C00045454646444444444444444443434242EE
:1002D00041403F3E7F3C003E014002420343044513
:1002E00005470649074A4A4A4A4A4A4A4A4A4A4A3E
:1002F0004A4A4A4A4A4A4A4A4A4A4A4A4A4A4A4A5E
:100300004A4A4A4A4A4A4A4A4A4A4A4A4A4A4A4A4D
:100310004A4A4A4A4A4A4A4A4A4A4A4A4A4A4A4A3D
:100320004A4A4A4A4A4A4949494949494949494937
:10033000494949494949494949494949494948482F
:100340004848484848484747474747474747474737
:100350004747474747474545454545454444434446
:1003600045434241403E4848484848484848484834
:1003700048484848484848484848484848484848FD
:1003800048484848484848484848484848484848ED
:1003900048484848484848484848484848484848DD
:1003A00048484848484947474747474747474747D6
:1003B00047474747474747474747474747474747CD
:1003C00046464747474745454545454545454545D3
:1003D00045454545454543434343434343434242E3
:1003E0004141403F3E3C4900490249004900490023
:1003F00049014900490049004900490049004900B4
:1004000049004900490049004900490049004900A4
:100410004900490049004900490049004900490094
:100420004900490049004900490049004900490084
:100430004900490049004900490049004900490074
:100440004900490049004802480248004802480162
:100450004801480048014800480248004800480058
:10046000480148004900470047024700470247004B
:100470004701470047014600470046004700470044
:100480004700470047004700470047004700470034
:100490004700470047004700470047004700470024
:1004A000470047004700450045024500450245001A
:1004B0004501450045014400450044004500450014
:1004C000450045004500430043024300430243000A
:1004D000430143004301420042004100420040000A
:1004E00040003F003E0049004900490049004900E2
:1004F00049004900490049004900490049004900B4
:1005000049004900490049004900490049004900A3
:100510004900490049004802480148014801480093
:10052000480048004A004702470147014701470089
:100530004700470047004700470047004700470083
:100540004700470047004502450145014501450078
:10055000450045004400430243014301430142007A
:10056000410040003E0001010201010201020101BF
:100570000201020102010202010201010201020163
:100580002B042B082B022B012B1028402B802E40F4
:1005900025102520254025802B4028802508250270
:1005A00025042501318031403120311031023101E3
:1005B0002B102B802510252025402B4004030904F7
:1005C00012010002EF020140D80487EE000101028F
:1005D00003014D6F77727920537472696E67656499
:1005E00020496E737472756D656E74730057415255
:1005F000424C00070605040100080A0B0C0D090017
:10060000162711241FBECFEFDAE0DEBFCDBF12E008
:10061000A0E0B1E0E4E0F1E502C005900D92A23760
:10062000B107D9F724E0A2E7B2E001C01D92A03CD7
:10063000B207E1F713E0C1E0D3E004C02197FE0167
:100640000E947528C030D107C9F70E94AA130C94E4
:1006500080280C94000040918104509182042091E4
:100660007F043091800442175307B4F49091E8005E
:100670009570E1F39091E80092FD19C08093F1002C
:10068000809181049091820401968F739927892B20
:1006900019F48EEF8093E800809181049091820498
:1006A0000196909382048093810481E0089580E014
:1006B0000895DF92EF92FF920F931F93CF93DF93F2
:1006C000D82EF92EE42E062F10E0C8010196880FCF
:1006D0000E942B0383E00E942B03CD2DDF2D0C0FF6
:1006E0001D1FC017D10789F0E7FE03C0FE018491EA
:1006F00001C088810E942B03F82E80E00E942B030A
:100700008F2121968111EDCF01C081E0DF91CF9142
:100710001F910F91FF90EF90DF900895CF93DF939B
:1007200080919704893069F486E10E94EF129093DA
:10073000A2028093A1021092970481E08093E202CA
:1007400098C080913602882391F1E0919704F0E0FF
:10075000EE0FFF1FE15CFD4F808191812FB7F89470
:10076000FC01FF278081892B80832FBF8091970414
:10077000883041F485E00E94EF12909386048093C4
:10078000850412C0C0919704D0E02196E0919704AF
:10079000F0E0E95AFD4F81810E94EF12CC0FDD1F7E
:1007A000CB57DB4F998388831092360262C08091C9
:1007B000360281115EC0C0919704D0E0E0919704A9
:1007C000F0E0E95AFD4F80810E94EF12CC0FDD1F4F
:1007D000C050DD4F99838883E0919704F0E0EE0FDD
:1007E000FF1FE15CFD4F808191812FB7F894FC01E0
:1007F000FF2780819095892380832FBFE091970404
:100800008E2F90E0E0919704F0E0EE0FFF1FE05094
:10081000FD4F20813181E0919704F0E0EE0FFF1F42
:10082000EB57FB4F40815181241B350BFC01EE0F30
:10083000FF1FE050FD4F31832083E0919704F0E0EB
:10084000EE0FFF1FE050FD4F8081918197FF09C09F
:10085000E0919704F0E0EE0FFF1FE050FD4F118292
:100860001082809197048F5F8093970481E080933A
:100870003602DF91CF910895809184048F5F809339
:10088000840480918404823011F42F9A0895809119
:100890008404833069F480E18093810084E00E94C5
:1008A000960D81E080933602109297041092840492
:1008B00008950F931F93CF93DF931F92CDB7DEB7A9
:1008C00019820E94020DDC0112960D911C91139762
:1008D0000115110589F0D801ED91FC910280F38199
:1008E000E02DBE016F5F7F4FC801099597FD04C0E1
:1008F000F80100851185ECCF89810F90DF91CF91B0
:100900001F910F9108952F923F924F925F926F9295
:100910007F928F929F92AF92BF92CF92DF92EF928F
:10092000FF920F931F93CF93DF93CDB7DEB76697F8
:100930000FB6F894DEBF0FBECDBF8DE391E09A876E
:100940008987EAE3F1E0F887EF8386E391E09C870B
:100950008B87E2E0F1E0FE87ED8780E391E0988B02
:100960008F87E8E0F1E0FC83EB838FEC92E09E83DD
:100970008D83412C512CA12CB12C212C312CE4E65F
:10098000F0E0FA83E9831E8A1D8A612C712CC30171
:10099000875C9E4F0E94510DE985FA858193FA8705
:1009A000E987C301845C9E4F0E94510DEF81F88559
:1009B0008193F887EF83C301C2960E94510DEB85A6
:1009C000FC858193FC87EB878D899E898D5A9F4F8B
:1009D0000E94510D182F8D899E898C5A9F4F0E941D
:1009E000510D212F30E0382BED85FE852193319379
:1009F000FE87ED878D899E89875A9F4F0E94510DF2
:100A0000182F8D899E89865A9F4F0E94510D212F44
:100A100030E0382BEF85F88921933193F88BEF87FD
:100A2000C301815A9F4F0E94510DF301E758FD4FBA
:100A300080838D899E898F5E9E4F0E94510D182F55
:100A40008D899E898E5E9E4F0E94510DED89FE8993
:100A5000E458FD4F212F30E0382B31832083F5E01F
:100A6000F69D8001F79D100D1124E12CF12C085CFE
:100A70001F4FC8018E0D9F1D0E94510DED81FE81FB
:100A8000EE0DFF1D80838FEFE81AF80A96E0E91655
:100A9000F10479F7E12CF12C82010B511D4FC801B3
:100AA0008E0D9F1D0E94510DF701E40DF51DEE51B5
:100AB000FE4F8083EFEFEE1AFE0AF5E1EF16F10428
:100AC00071F7E12CF12C85010C5F1E4FC8018E0DD2
:100AD0009F1D0E94510DEB81FC81EE0DFF1D808357
:100AE0008FEFE81AF80A9CE0E916F10479F7810122
:100AF00006501F4FF101EB57FD4F6F017101FDEFE4
:100B0000EF0EF11CC8010E94510D91E0811101C04E
:100B100090E0F60191936F010F5F1F4FE016F10611
:100B200089F7C501880F991F9C8B8B8BC980DA8050
:100B300000E010E0EB89FC89E00FF11FFA8BE98BF4
:100B40004601E12CF12CC4010E94510DE989FA897A
:100B5000EE0DFF1DE05CFE4F8083FFEF8F1A9F0AB2
:100B600085E0E80EF11C98E2E916F10461F70F5FE9
:100B70001F4FEAE0CE0ED11C05301105D9F6FFEF6C
:100B80006F1A7F0A8D899E8902969E8B8D8BE981D3
:100B9000FA81F296FA83E983F3E02F0E311C84E1A7
:100BA000A80EB11CEB81FC813C96FC83EB83F5E144
:100BB0004F0E511C8D819E8106969E838D8393E0FE
:100BC0006916710409F0E3CE66960FB6F894DEBF9D
:100BD0000FBECDBFDF91CF911F910F91FF90EF908E
:100BE000DF90CF90BF90AF909F908F907F906F904D
:100BF0005F904F903F902F900895CF92DF92EF92A9
:100C0000FF920F931F93CF93DF93C82FE82EF12C01
:100C1000E091E102F0E0E152FE4F6081C701889669
:100C20000E943D0DE091E102F0E0E35DFE4F608146
:100C3000C701C5960E943D0DE091E102F0E0EA5C3B
:100C4000FE4F6081C701C2960E943D0DE091E10216
:100C5000F0E0E35CFE4F6081C701875C9E4F0E941D
:100C60003D0DE091E102F0E0E65CFE4F6081C701DE
:100C7000845C9E4F0E943D0D8701000F111FE09183
:100C8000E102F0E0EE0FFF1FEE5FFE4F6081C80152
:100C90008D5A9F4F0E943D0DE091E102F0E0EE0F72
:100CA000FF1FEE5FFE4F6181C8018C5A9F4F0E946B
:100CB0003D0DE091E102F0E0EE0FFF1FE05DFE4F21
:100CC0006081C801875A9F4F0E943D0DE091E1026B
:100CD000F0E0EE0FFF1FE05DFE4F6181C801865A14
:100CE0009F4F0E943D0DE091E102F0E0E758FD4F7B
:100CF0006081C701815A9F4F0E943D0DE091E10242
:100D0000F0E0EE0FFF1FE458FD4F6081C8018F5ED9
:100D10009E4F0E943D0DE091E102F0E0EE0FFF1FBB
:100D2000E458FD4F6181C8018E5E9E4F0E943D0DCB
:100D300084E1C89F7001112400E010E0DCE08CEF3A
:100D4000E81A8EEFF80A8091E102F801D89FE00DD1
:100D5000F11D1124E85FFE4F6081C701800F911FD4
:100D60000E943D0D0F5F1F4F0C30110561F785E0AC
:100D7000C89F80011124E12CF12CD6E0085C1F4FA4
:100D80008091E102F701D89FE00DF11D1124E1539C
:100D9000FD4F6081C8018E0D9F1D0E943D0D8FEF9C
:100DA000E81AF80A86E0E816F10451F785E1C89FD1
:100DB0007001112400E010E0D5E18BE1E81A8DEF1D
:100DC000F80A8091E102F801D89FE00DF11D11248D
:100DD000EE51FE4F6081C701800F911F0E943D0DB3
:100DE0000F5F1F4F0531110561F783E0C89F800138
:100DF0001124E12CF12C06501F4F8091E10290E06C
:100E0000FC01EE0FFF1FE80FF91FEB57FD4FEE0D32
:100E1000FF1D6081C8018E0D9F1D0E943D0D8FEF4B
:100E2000E81AF80A83E0E816F10439F782E3C89F6C
:100E3000E0011124CC59DF4FE12CF12C85E0D82EB4
:100E400098E2C92E00E010E08091E102D09EF0010E
:100E5000D19EF00D1124C89EE00DF11D1124E05C1F
:100E6000FE4FEE0DFF1D6081C8018C0F9D1F0E947B
:100E70003D0D0F5F1F4F0830110531F78FEFE81A56
:100E8000F80A2A9685E0E816F104E1F6DF91CF91A1
:100E90001F910F91FF90EF90DF90CF900895BF9238
:100EA000CF92DF92EF92FF920F931F93CF93DF9336
:100EB0002FE8E22E22E0F22E3EEEC32E32E0D32EB9
:100EC00001ED12E0C2E1D0E0CE010E94510DB82E3A
:100ED000CE0101960E94510D2B2D30E0322F22279A
:100EE000282BF701219331937F01C8010E94510DF6
:100EF00090E0F601819391936F0122960F5F1F4F4F
:100F0000C432D10509F780913402853131F48FE084
:100F100090E09093BB018093BA01DF91CF911F9134
:100F20000F91FF90EF90DF90CF90BF900895AF9218
:100F3000BF92CF92DF92EF92FF920F931F93CF93C6
:100F4000DF930FE812E08EEEC82E82E0D82E91EDEE
:100F5000E92E92E0F92EC2E1D0E0F8016181CE01E4
:100F60000E943D0DF80160810E5F1F4FCE0101967A
:100F70000E943D0DF6016081F2E0CF0ED11CC70149
:100F80000E943D0D22968FEFE81AF80AC432D1056F
:100F900021F71092120363E085E290E00E943D0D7C
:100FA000EAE9F5E0859194912FB7F894FC01FF27C9
:100FB00080819095892380832FBF10928E02DF91CC
:100FC000CF911F910F91FF90EF90DF90CF90BF9046
:100FD000AF9008951F920F920FB60F9211242F9386
:100FE0003F934F935F936F937F938F939F93AF93B1
:100FF000BF93EF93FF9380919704882321F0209172
:101000009704215001C028E08091970490919704A3
:10101000983011F08F5F01C080E090919704993073
:10102000A9F45998809178009091790020919504C5
:1010300030919604821B930B9093110380931003BD
:101040008091740280618093810070C0309136027B
:1010500090E0332309F44FC03091970431110CC054
:1010600020917800309179003093A2022093A10260
:1010700021E02093E20221C030E0220F331FF9016A
:10108000E15CFD4F408151816FB7F894FA01FF2771
:1010900040815095452340836FBF40917800509127
:1010A0007900F901EB57FB4F60817181461B570BAB
:1010B000F901E050FD4F51834083FC01E95AFD4F97
:1010C00080810E94960D10923602809197048823A9
:1010D00069F1E0919704F0E0EE0FFF1FE15CFD4F36
:1010E000808191812FB7F894FC01FF278081892BA3
:1010F00080832FBF1BC02091780030917900880F2A
:10110000991FFC01EB57FB4F31832083E09197043B
:10111000F0E0E95AFD4F80810E94960D81E08093B6
:101120003602809197048F5F80939704FF91EF912F
:10113000BF91AF919F918F917F916F915F914F91EF
:101140003F912F910F900FBE0F901F9018951F92F7
:101150000F920FB60F9211248F939F938091E1000D
:101160009091E100937F9093E10083FF0FC0109274
:10117000E90091E09093EB001092EC0092E39093E1
:10118000ED001092780298E09093F00082FF1CC06E
:1011900093E09093E9009091F200992319F09AE37B
:1011A0009093E80090918304992329F0909183040F
:1011B00091509093830490917702992329F0909114
:1011C000770291509093770284FF10C08091E200E3
:1011D0008E7E81608093E2008091E1008F7E80931B
:1011E000E100809172028E7E806111C080FF11C08B
:1011F0008091E2008E7E80618093E2008091E10028
:101200008E7E8093E100809172028E7E8160809359
:1012100072029F918F910F900FBE0F901F901895A3
:10122000DF92EF92FF920F931F93CF93DF93D82E0D
:101230008A017B01E40EF51EEB01CE15DF0571F08E
:10124000D7FE03C0FE01849101C088810E942B0358
:1012500021968111F2CF8FEF9FEF01C0C801DF917E
:10126000CF911F910F91FF90EF90DF9008951F9203
:101270000F920FB60F921124CF92DF92EF92FF924E
:101280000F931F932F933F934F935F936F937F938E
:101290008F939F93AF93BF93EF93FF93CF93DF937E
:1012A000CDB7DEB76C97DEBFCDBF1092E90080915D
:1012B000E80083FF6CC189E0FE017596EE2EDF2EFB
:1012C000815029F09091F10090833196F9CF84E616
:1012D0008093770282EF8093E8008D8987FF05C0B5
:1012E0009091E80090FFFCCF03C09EEF9093E80040
:1012F000982F907609F0C5C09E894F89588D2F8907
:10130000F88C91110CC0803829F48091730280937D
:10131000F10002C01092F1001092F10031C1913041
:1013200051F481112DC14130510509F029C180913D
:1013300073028D7F0BC0933061F4811121C1413064
:10134000510509F01DC18091730282608093730280
:1013500017C1953049F48091E80080FFFCCF822FBF
:1013600080688093E3000CC1963009F05DC00B8D5E
:101370001C8D22E01092E9001092820410928104E8
:10138000F21232C01092800410927F040E9459041D
:1013900099E0BE016F5F7F4FDB01E92F1D92EA9557
:1013A000E9F79983FA8291E09E8390EA98879AE020
:1013B00099872091810430918204275F3F4F3C83BD
:1013C0002B838D831092E900109282041092810485
:1013D0001093800400937F0449E050E080E00E9475
:1013E00010090E945904CCC01093800400937F041C
:1013F0000E94020DDC0112960D911C9113970115AC
:10140000110509F468C0D801ED91FC910480F581C3
:10141000E02D6E2D7D2DC8010995009709F056C06D
:10142000F80100851185EBCF973009F4ADC09830F5
:1014300021F481E08093F100A3C0993009F0A0C0AD
:10144000837009F0A1C0E9E3F2E081E031E096E3C6
:101450002081211109C08EE78093EA001092EA00F2
:101460008F89809378028CC08093E9003093EB00E1
:1014700021912093EC009093ED008F5F873041F72E
:10148000EACF8B8D9C8D1092E9001092820410920D
:1014900081049093800480937F040E94020DFC01DC
:1014A000028113810115110509F46EC0D801ED9177
:1014B000FC910190F081E02D6E2D7D2DC8010995E4
:1014C00081115EC0F80100851185ECCF1816190650
:1014D0000CF456C059C0F1E0FF1609F446C0F3E021
:1014E000FF1252C08F89882309F442C0823029F448
:1014F00040E865E08DEE95E006C0813051F440E8AB
:101500006AE182ED95E00E945903882309F43CC00A
:1015100037C08330C9F50E94020DDC011296ED90B0
:10152000FC9013978E010F5F1F4F6801E114F104C7
:1015300079F0D701ED91FC910680F781E02DB8019B
:10154000C7010995080F111DF701E084F184EECF62
:10155000D8011C92F60101900020E9F73197BF01F4
:101560006C197D0940E0C601CECF60EC75E002C089
:101570006CEB75E0FB01449150E080E80E9410099B
:101580008EEF8093E80003C081E28093EB006C96BD
:101590000FB6F894DEBF0FBECDBFDF91CF91FF91A4
:1015A000EF91BF91AF919F918F917F916F915F91DB
:1015B0004F913F912F911F910F91FF90EF90DF90EE
:1015C000CF900F900FBE0F901F9018956F927F9243
:1015D0008F929F92AF92BF92CF92DF92EF92FF9243
:1015E0000F931F93CF93DF93C82E8B017A018091C5
:1015F0007802811103C08FEF9FEF81C0809172024A
:1016000080FF05C08091E00082608093E000CE2DD5
:10161000DF2DD12C8AEFB82E8C2D8770982E90E478
:10162000892E8C2D8072782E8C2D8074682E2AE362
:10163000A22E209719F4DD2009F45DC08FB7F8942D
:101640009092E9009091E80095FF05C09091F2001A
:10165000282D291B01C020E08FBF21110AC0BA9498
:10166000BB2049F261E070E080E090E00E941A1334
:10167000E0CF822F90E0C817D9070CF42C2F3FB78A
:10168000F8949092E9008091E80085FF32C0822FA3
:1016900090E0C81BD90B772029F02150A0F01092C0
:1016A000F100FBCFF801C7FE0AC0215050F0449171
:1016B0004093F1003196F9CF41914093F1002150D0
:1016C000D8F7080F191FDD2019F0A092E8000AC012
:1016D0008091E80085FD08C0A092E800DD24D39445
:1016E000209739F0D12C05C0209719F46110A092F1
:1016F000E8003FBF9ECF84E680938304C701DF915B
:10170000CF911F910F91FF90EF90DF90CF90BF90FE
:10171000AF909F908F907F906F900895CF93DF93BD
:1017200000D000D0CDB7DEB76150807FF894E82FAD
:10173000F0E094E0F595E7959A95E1F7E9836F700D
:10174000682B6A834F774B832F772C838091AE046D
:1017500044E050E0BE016F5F7F4F8F5F0E94E60A5A
:101760008091AE048F5F8093E9008091F20088231E
:1017700019F08AE38093E80078940F900F900F900F
:101780000F90DF91CF910895CF92DF92EF92FF9269
:101790000F931F93CF938FEDC82E81E0D82E0DE2CB
:1017A00011E0CFE695E3E92EF12CC7010D970E94D9
:1017B000510DF6018083C7010E94510DF80180830D
:1017C0008091CD028823C1F02FEA2C0F46E667E016
:1017D00080EB0E948E0BF60120812F5D46E667E0CC
:1017E00080EB0E948E0BF801208127FD21584C2FA1
:1017F00067E080EB0E948E0BFFEFCF1ADF0A8FEFBE
:10180000E81AF80A0F5F1F4FCF5FC23771F6CF910A
:101810001F910F91FF90EF90DF90CF90089580E09F
:1018200090E0089580E00895FC0182818F5BFB01C8
:10183000808381E0089508950E947B2884E0ECE68F
:10184000F2E0DB0101900D928A95E1F784E00895C2
:10185000CF92DF92EF92FF920F931F93CF93DF937C
:10186000CDB7DEB7C456D1090FB6F894DEBF0FBEB0
:10187000CDBF6C01DB019C919E5F9C93FE01319674
:1018800084E6DF011D928A95E9F788E089838BE081
:101890008A8322E02C8391E09D839E8339E03987FF
:1018A00074E07A879E879F873A8B44E24B8B9C8BB0
:1018B00000E011E01E8B0D8B89E0E82EF12CF88EF4
:1018C000EF8A998F3B8F7C8F2F8F98A353E059A37A
:1018D00087E08CA34DA39EA318A70FA301E410E0FB
:1018E0001AA709A786E08BA74CA72DA79EA79FA79D
:1018F00089AB4AAB2BAB2CAB2DAB3FAB48AF59AF51
:101900009AAF5BAF9CAF2DAF9EAF21963FAF2197B3
:1019100022964FAF229723965FAF239724962FAF3F
:10192000249725967FAF259726969FAF26972796D3
:101930009FAF279728969FAF28972A963FAF2A9761
:1019400045E02B964FAF2B972D962FAF2D9760E448
:1019500070E02F967FAF6EAF2F9763964FAF639770
:1019600085E264968FAF649765969FAF659766969C
:101970009FAF669767969FAF679768963FAF6897E8
:1019800069964FAF69976B962FAF6B976D967FAF48
:101990006EAF6D97A1964FAFA197A2968FAFA2970A
:1019A000A3969FAFA397A4969FAFA497A5965FAF6A
:1019B000A597D60112969C9112979B839B879F5F58
:1019C0009A8F9D8F13968C912C968FAF2C978F5F4B
:1019D00080686A968FAF6A9744E650E0BF0180E066
:1019E0000E941009CC59DF4F0FB6F894DEBF0FBE2E
:1019F000CDBFDF91CF911F910F91FF90EF90DF90BE
:101A0000CF9008958091A30481110DC082E080934E
:101A10009F0484E08093A0041092A2041092A10479
:101A200081E08093A3048FE994E008951F920F92C0
:101A30000FB60F9211242F933F934F935F936F93A1
:101A40007F938F939F93AF93BF93EF93FF93E09117
:101A50000001F09101010995FF91EF91BF91AF91C4
:101A60009F918F917F916F915F914F913F912F91B6
:101A70000F900FBE0F901F9018951F93CF93DF9379
:101A8000EC01162F0E947527181739F0612FCE012F
:101A9000DF91CF911F910C947D27DF91CF911F9102
:101AA00008950C9475271092CB02E091E10285E134
:101AB000E89FF0011124EE51FE4F8685813049F0F8
:101AC00018F0823059F0089521894089678580E9AE
:101AD00009C021894089678580E804C0218940893F
:101AE000678580EB0C948E0B81E08093CB02E091B4
:101AF000E10285E1E89FF0011124EE51FE4F82855D
:101B0000813049F018F0823059F0089525854485D8
:101B1000638580E909C025854485638580E804C024
:101B200025854485638580EB0C948E0B823108F00B
:101B30008251E82FF0E0ED50FA4FE49180917B0064
:101B4000E3FB222720F930E095E0220F331F9A951E
:101B5000E1F78F7D282B20937B00E770E064E09312
:101B60007C0080917A00886480937A0008959C01BB
:101B70002F5F3F4F28233923232B71F09C0140E036
:101B800050E080E01216130644F420FF842F3595B0
:101B900027954F5F5F4FF6CF8FE708958F929F9203
:101BA000AF92BF92CF92DF92EF92FF920F931F936B
:101BB000CF93DF938091E10290E09C01220F331FCD
:101BC000F901EE5FFE4F408151815093CB0140936C
:101BD000CA01FC01E456FB4F40814093A402FC0182
:101BE000E35DFE4F40814093A302FC01E35CFE4FA6
:101BF00040814093EC02FC01E758FD4F108141E029
:101C0000111101C040E040939B04F901E458FD4FDD
:101C1000C081D181D0939A04C0939904FC01EA5CFD
:101C2000FE4F40814093D101F901E05DFE4F2081DC
:101C300031813093D0012093CF01FC01E65CFE4F4F
:101C400020812093C30126E0289FF001299FF00DF9
:101C50001124E153FD4F20813CE0389FF001399F72
:101C6000F00D1124E85FFE4F86E0289FE00DF11D86
:101C7000112400810093370281818093C201828107
:101C80008093BD0183818093BC01848190E0909317
:101C9000C1018093C001858190E09093BF01809342
:101CA000BE018FEF9FE19093D3018093D2011092F8
:101CB000B8021092B7022FE34FE761E080EE0E9476
:101CC0008E0BE1E2F2E0A3EEB2E0119211921D92CE
:101CD00022E0E333F207C9F7E091E102EE2EF12CA6
:101CE00086E0E89FF0011124E153FD4F84818823B1
:101CF00079F0F701E152FE4F8081823010F084309C
:101D000039F48091EC02813019F48093ED0202C025
:101D10001092ED0280E48093DE0111110AC08091DF
:101D200075029091760203969093C7018093C60145
:101D300005C02396D093C701C093C6018091C60108
:101D40009091C701A4E00A9F800D911D11249093EA
:101D5000C9018093C8018091D1010EEC1FEF081BCF
:101D60001109C091CF01D091D00123E0CC0FDD1F2C
:101D70002A95E1F7EFE8F2E035EAA32E32E0B32E40
:101D800049EBC42E42E0D42E58EF852E99249A9424
:101D900021913191200F311FC401B9010E946128A6
:101DA00076956795D5016D937D935D01CE01B9015F
:101DB0000E94612876956795D6016D937D936D019C
:101DC000B2E0E13AFB0721F785E18E9DF0018F9D9E
:101DD000F00D1124EE51FE4F868128E0829FC00154
:101DE00011248C599F4F9093DD018093DC018085F5
:101DF000A1E88A9FC00111249093D5018093D4015A
:101E00008185B1E88B9FC00111249093D701809305
:101E1000D601DF91CF911F910F91FF90EF90DF904E
:101E2000CF90BF90AF909F908F900895E091E10286
:101E3000F0E0E35CFE4F80818F5F833011F08083A0
:101E400001C010820E94CE0D2091EC0281E0820F31
:101E5000809335028091CD02882331F02A5B46E6DB
:101E600067E080EB0C948E0B08958091A4028D3F67
:101E700054F0E091E102F0E0E456FB4F80818150A4
:101E800080838093A40208958091A402833054F447
:101E9000E091E102F0E0E456FB4F80818F5F8083A8
:101EA0008093A4020895EF92FF920F931F93CF9314
:101EB000DF932FE04EE667E080EB0E948E0B7FED14
:101EC000E72E71E0F72E0DE211E0CFE62FEA2C0F9E
:101ED00046E667E080EB0E948E0BF70121917F01BF
:101EE0002F5D46E667E080EB0E948E0BF8012191A2
:101EF0008F0127FD21584C2F67E080EB0E948E0B4D
:101F0000CF5FC23719F72091E102245C46E667E013
:101F100080EB0E948E0B2091D10147E667E080EBB9
:101F20000E948E0B2091CF013091D001A4E6B0E049
:101F30000E94D7272FEF3FE140E050E00E94B527F5
:101F400045E767E080EB0E948E0B2091EC022A5B54
:101F500046E667E080EB0E948E0B2091C301205B78
:101F600046E667E080EB0E948E0B2091CE02285857
:101F700046E667E080EB0E948E0B20919B04295D72
:101F80004AE667E080EB0E948E0B22E248E667E0BB
:101F900080EB0E948E0BC0919904D0919A042C2F53
:101FA0002F7749E667E080EB0E948E0B23E248E63C
:101FB00067E080EB0E948E0B9E01220F232F221FD1
:101FC000330B49E667E080EB0E948E0BC0E0D0E067
:101FD000E091E102F0E0EE0FFF1FEE5FFE4F208187
:101FE00031810C2E02C0369527950A94E2F72170B4
:101FF000220F822F880F880F280F8C2F8C5E280FBE
:102000004AE667E080EB0E948E0B2196C930D1052D
:10201000F9F600E010E035E0E32E48E2F42E2AE580
:10202000200F46E667E080EB0E948E0B8091E10274
:10203000E09EE001E19ED00D1124FE01F89EE00D2E
:10204000F11D1124E05CFE4F20812C5946E667E02B
:1020500080EB0E948E0B8091E102FE01F89EE00D64
:10206000F11D1124E05CFE4F8081813099F52181C2
:10207000205946E667E080EB0E948E0B8091E102DA
:10208000FE01F89EE00DF11D1124E05CFE4F22815F
:102090004AE667E080EB0E948E0B8091E102FE0130
:1020A000F89EE00DF11D1124E05CFE4F23814BE60C
:1020B00067E080EB0E948E0B8091E102F89EC00DDC
:1020C000D11D1124C05CDE4F2C814CE667E080EB13
:1020D0000E948E0B0F5F1F4F0830110509F09FCF34
:1020E000C0E0D0E016E02C2F285D48E667E080EBEA
:1020F0000E948E0B8091E102FE01189FE00DF11D00
:102100001124E153FD4F208149E667E080EB0E94F6
:102110008E0B2196C630D10531F7C0E0D0E015E135
:102120002C2F235F48E667E080EB0E948E0B8091A6
:10213000E102FE01189FE00DF11D1124EE51FE4F4A
:10214000208149E667E080EB0E948E0B2196C53125
:10215000D10531F7C0E0D0E02C2F265A46E667E0E3
:1021600080EB0E948E0B8091E10290E0FC01EE0F6B
:10217000FF1FE80FF91FEB57FD4FEC0FFD1F2081EC
:102180002B5846E667E080EB0E948E0B2196C33009
:10219000D10511F7C0E0D0E01CE02C2F2F5F48E6FE
:1021A00067E080EB0E948E0B8091E102FE01189F98
:1021B000E00DF11D1124E85FFE4F208149E667E044
:1021C00080EB0E948E0B2196CC30D10531F7DF9148
:1021D000CF911F910F91FF90EF9008958091E102B0
:1021E0008F5F833019F08093E10202C01092E10208
:1021F0001092CC020E94CE0D8091E1028F5F8093FD
:1022000035028091CD0281110C94530F08950F93E4
:102210001F93CF93DF93E091E102C82FD0E02E2FE0
:1022200030E098E2E99FF0011124A5E08A9FE00DDB
:10223000F11D1124E05CFE4FE0818E2F90E0FC0147
:102240003197EB30F10508F072C1E15AFF4F0C9461
:10225000752885E08C9FF0018D9FF00D112448E2D8
:10226000429FC001439F900D1124E80FF91FE05CCD
:10227000FE4F8181811116C08E010E571D4FD8016E
:102280008C91248143816281811107C080E90E9481
:102290008E0B81E0F801808305C080E80E948E0BE0
:1022A000D8011C928091E10295E09C9FF0019D9FD6
:1022B000F00D1124B8E28B9FE00DF11D1124E05CBC
:1022C000FE4F8181813031F424814381628180EB32
:1022D0000E948E0B8091E10295E09C9FF0019D9FF2
:1022E000F00D112498E2899FE00DF11D1124E05CAE
:1022F000FE4F8181823021F4638182810E94C1126C
:102300008091E10295E09C9FF0019D9FF00D1124CA
:10231000282F30E0A8E28A9FE00DF11D1124E05C37
:10232000FE4F8181833011F5809198048F3720F41E
:102330008F5F8093980402C01092980485E08C9F70
:10234000F0018D9FF00D112448E2429FC001439F90
:10235000900D1124E80FF91FE05CFE4F6091980486
:1023600082810E94C11281E0809335028091E10256
:1023700095E09C9FF0019D9FF00D1124282F30E0E7
:10238000B8E28B9FE00DF11D1124E05CFE4F8181CE
:10239000843009F0CCC080919804882311F08150DA
:1023A00001C08FE78093980485E08C9FF0018D9F9A
:1023B000F00D112448E2429FC001439F900D11246B
:1023C000E80FF91FE05CFE4F6091980482810E9443
:1023D000C11281E040C0DF91CF911F910F910C9409
:1023E000160FDF91CF911F910F910C94EE109091E9
:1023F000CC0281E089278093CC0299C0F901EE0FCD
:10240000FF1FE20FF31FEB57FD4FEC0FFD1F808105
:10241000811103C00E94440F14C0DF91CF911F911E
:102420000F910C94350FF901EE0FFF1FE20FF31F10
:10243000EB57FD4FEC0FFD1F808181110FC00E94F3
:10244000350F8091A402082E000C990B97FF03C052
:102450009195819591098093350269C0DF91CF9163
:102460001F910F910C94440FC1E020E04BE76C2FBB
:1024700080EB0E948E0B1092CB02CF5FC131A9F787
:1024800056C0F901E65CFE4F80818F5F843011F009
:10249000808301C010820E94CE0D1092CC02209148
:1024A000C30181E0820F809335028091CD028823A1
:1024B000F1F1205B46E667E080EBDF91CF911F9161
:1024C0000F910C948E0B81E0809335028091CB02AA
:1024D000811106C0DF91CF911F910F910C94740D63
:1024E000DF91CF911F910F910C94530DF901EE0FD5
:1024F000FF1FE20FF31FEB57FD4FEC0FFD1F808115
:10250000811110C08091A3028F5F0FC0F901EE0FFF
:10251000FF1FE20FF31FEB57FD4FEC0FFD1F8081F4
:102520008111F0CF8091A30281508093A302DF91AB
:10253000CF911F910F9108953FB7F8948091BC04FB
:102540009091BD04A091BE04B091BF0426B5A89B94
:1025500005C02F3F19F00196A11DB11D3FBFBA2F35
:10256000A92F982F8827820F911DA11DB11DBC0195
:10257000CD0143E0660F771F881F991F4A95D1F759
:102580000895CF93DF9300D000D0CDB7DEB7815050
:10259000F8949CE099838F70806C8A836F776B834B
:1025A0001C828091AE0444E050E0BE016F5F7F4F1B
:1025B0008F5F0E94E60A8091AE048F5F8093E900EE
:1025C0008091F200882319F08AE38093E8007894E0
:1025D0000F900F900F900F90DF91CF91089582315F
:1025E00008F08251E82FF0E0ED50FA4FE49180912D
:1025F0007B00E3FB222720F930E095E0220F331F18
:102600009A95E1F78F7D282B20937B00E770E0649B
:10261000E0937C0080917A00806480937A008091BE
:102620007A0086FDFCCF809178002091790090E0BF
:10263000922B08958F929F92AF92BF92CF92DF928A
:10264000EF92FF926B017C010E949C124B015C0196
:10265000C114D104E104F104F1F00E949C12DC01E8
:10266000CB0188199909AA09BB09883E9340A105A5
:10267000B10570F321E0C21AD108E108F10888EE33
:10268000880E83E0981EA11CB11CC114D104E10482
:10269000F10419F7DDCFFF90EF90DF90CF90BF905E
:1026A000AF909F908F9008952FB7F8946091B804E1
:1026B0007091B9048091BA049091BB042FBF089522
:1026C0001F920F920FB60F9211242F933F938F9367
:1026D0009F93AF93BF938091B8049091B904A09158
:1026E000BA04B091BB043091B70426E0230F2D3714
:1026F00020F40296A11DB11D05C029E8230F039601
:10270000A11DB11D2093B7048093B8049093B90420
:10271000A093BA04B093BB048091BC049091BD0413
:10272000A091BE04B091BF040196A11DB11D80937C
:10273000BC049093BD04A093BE04B093BF04BF91AA
:10274000AF919F918F913F912F910F900FBE0F905E
:102750001F901895CF93DF93CDB7DEB769970FB66B
:10276000F894DEBF0FBECDBF789484B5826084BD7F
:1027700084B5816084BD85B5826085BD85B5816085
:1027800085BD80916E00816080936E001092810003
:1027900080918100826080938100809181008160BE
:1027A000809381008091800081608093800080917F
:1027B000910082608093910080919100816080936C
:1027C0009100809190008160809390008091C10081
:1027D00084608093C1008091C10082608093C100B9
:1027E0008091C10081608093C1008091C3008160AD
:1027F0008093C3008091C00082608093C00080916C
:10280000C20081608093C20080917A0084608093CE
:102810007A0080917A00826080937A0080917A00B9
:102820008E7F80937A0080917A00806880937A000E
:102830001092780210927302109272028091D70067
:1028400081608093D70080EA8093D80089B58F7E1D
:1028500089BD89B5826089BD09B400FEFDCF61E004
:1028600070E080E090E00E941A138091D8008F7C85
:1028700080618093D8008091E000807F8093E000A9
:102880008091E1008E7E8093E1008DE08093E200F4
:102890008FEF80937E0083EF80937D00EAE9F5E07F
:1028A000859194912FB7F894FC01FF278291892B91
:1028B00080832FBFE2EAF5E0859194912FB7F894D9
:1028C000FC01FF27DF018E91392F309583238C93F4
:1028D0008081892B80832FBFEFE3F2E021E532E096
:1028E000819191914FB7F894DC01BB278E91892B90
:1028F0008C934FBF2E173F0799F72198299A22985A
:102900002A9A23982B9A85E893E00E94510D8F30E4
:1029100049F484E893E00E94510D8531D1F480930D
:10292000340217C06FE085E893E00E943D0D07E494
:1029300010E060E0C8010E943D0D60E0C8018057D2
:102940009E4F0E943D0D0F5F1F4F0A34110589F7FE
:10295000E0CF8CE290E00E94510D8330D1F11092D3
:10296000E10280E00E94FD0581E08093E1020E9487
:10297000FD0582E08093E1020E94FD051092E102D4
:1029800083E08093350208E210E0C8010E94510DF7
:10299000682FC80180579E4F0E943D0D0F5F1F4F4B
:1029A000003421E0120789F705EE12E0C8010E9409
:1029B000510D682FC801CF960E943D0D0F5F1F4F2C
:1029C000043233E0130791F763E08CE290E00E9459
:1029D0003D0D85E290E00E94510D833011F40E947C
:1029E0004F070E94C40B0E94830486E10E94EF12ED
:1029F00086E10E94EF1286E10E94EF129093760228
:102A00008093750290935A04809359040E94CE0DCE
:102A100080913402853151F58FE090E09093BB01B5
:102A20008093BA0180917A00887F80937A008091A8
:102A30007A00856080937A0080E180938100109213
:102A4000800081E08093740228EA32E030938700AE
:102A50002093860091E1909381002EE833E030933B
:102A600001012093000180936F0029C080E18093D1
:102A700081001092800091E09093740220E931E08F
:102A8000309387002093860021E1209381002CE37E
:102A900034E0309301012093000190936F00809304
:102AA000810080917A00887F80937A0084E8809307
:102AB0007A0080E480937C0081E00E94960DABE672
:102AC0007A2EBEECCB2EDD24DA94F8948091130498
:102AD00090911404A0911504B0911604409117042C
:102AE000509118046091190470911A04841B950B7D
:102AF000A60BB70B8F739927AA27BB27892B8A2B85
:102B00008B2BD1F58091AE049FB7F894877080939A
:102B1000E9008091F2009FBF882309F441C04091F1
:102B200013045091140460911504709116044F5FC2
:102B30005F4F6F4F7F4F4F735527662777278091E1
:102B4000170490911804A0911904B0911A048417E5
:102B50009507A607B70781F08091AE049FB7F89458
:102B600087708093E9008091F2009FBF8091AE044E
:102B7000909178029111E1C380911704909118040B
:102B8000A0911904B0911A04880F991F880F991FFA
:102B9000FC01ED5EFC4F908181810281138104C0B4
:102BA00010E000E080E090E0809013049090140426
:102BB000A0901504B0901604409117045091180489
:102BC0006091190470911A0484169506A606B7063A
:102BD000C1F040911704509118046091190470914C
:102BE0001A044F5F5F4F6F4F7F4F4F735527662714
:102BF0007727409317045093180460931904709337
:102C00001A047894992309F4DEC3073708F05DCFDE
:102C10008F70863009F059CF81E0809335020636F7
:102C200009F0DEC19FEF910F923168F5212F30E05E
:102C300010FD1EC035952795F901EE0FFF1FE357D4
:102C4000FD4F808191810597918380834091BA01E6
:102C50005091BB01F601E41BF50B8E0F9F1F0597EA
:102C6000D0F42D5E46E667E080EB0E948E0B13C029
:102C7000F9013196EE7FE357FD4F808191810596F2
:102C80009183808308C0133181F40E94970783E009
:102C90008093350210C01E37E1F481E08093CD02AD
:102CA000109235020E94530F06C01F37A1F71092F1
:102CB0003502809312038FED810F8B3108F04EC0E7
:102CC000E0911C04F0E0E152FE4F80830E94CE0DA3
:102CD00045C01A3739F01E3111F00C9402271092BA
:102CE0001C04E9CFE12CF12C53E0A52EC7010E9472
:102CF000510DB82E20E34AE667E080EB0E948E0B70
:102D00002B2D2F7747E767E080EB0E948E0B21E3A6
:102D10004AE667E080EB0E948E0B2B2D30E0220FFD
:102D2000232F221F330B47E767E080EB0E948E0BB7
:102D300023E34AE667E080EB0E948E0B63E070E0DD
:102D400080E090E00E941A13A0923502FFEFEF1A84
:102D5000FF0AE11424E0F20649F6ADCF2CE3A22EDF
:102D6000B12C80E0E12EF12C99249394980EEA1472
:102D7000FB0451F48093E1021092CC020E94CE0D2C
:102D80000E94530F90923502892D3FEFA31AB30A88
:102D9000833051F796E4A92EB12C8AEB8A0DEA1400
:102DA000FB0469F4E091E102F0E0E35CFE4F808314
:102DB0000E94CE0D8091EC028F5F809335024FEF21
:102DC000A41AB40A59E4A516B10439F780E5A82E6F
:102DD000B12C80EB8A0DEA14FB0469F4E091E10266
:102DE000F0E0E65CFE4F80830E94CE0D8091C3012F
:102DF0008F5F809335026FEFA61AB60A75E5A716A6
:102E0000B10439F7909139012AE530E086EA820F62
:102E1000E216F30609F4982F2F5F3F4F2236310553
:102E2000A9F7909339018091E102B0913502A8E2AF
:102E30008A9FB001112440E050E0A0E0A91799F06A
:102E4000AF5F4B5F5F4FA830C9F7B0933502E2E840
:102E5000F2E0B3E08B9FA00111244B575D4F20E0BF
:102E600030E061E032C0FB01E40FF51FE05CFE4F93
:102E700024E630E00F2EFCE9BF2EF02DB20EE21654
:102E8000F30611F4B082B0E02F5F3F4F20373105D9
:102E900089F70F2EF0E9BF2EF02DB20EE216F306E1
:102EA00009F4B1822F5F3F4F2537310591F7C8CF25
:102EB000153771F4DA01A20FB31F1C9210822F5F35
:102EC0003F4F31962330310551F09213F8CFF0CFB8
:102ED0001637A9F7DA01A20FB31F6C93EFCF1B3798
:102EE00019F40E94FD0552C01C3799F4F12C33E00F
:102EF000E32E8F2D0E94FD050E94C40B0E948304C7
:102F00000E94CE0DE0923502F394E3E0FE12F1CF81
:102F100071C01D3709F06EC028EBE22EFF24F39438
:102F2000C7010E94510D682FC701805991400E942E
:102F30003D0DFFEFEF1AFF0A20EDE21622E0F20648
:102F400079F794E2E92E93E0F92EC7010E94510D22
:102F5000682FC701CF970E943D0D3FEFE31AF30A98
:102F600043E6E41643E0F40681F7809134028631AB
:102F700088F40E94C40B0E944F070E94830481E0E2
:102F80008093CD020E94CE0D0E94530F83E0809368
:102F9000350230C0E12CF12CC7010E94510D682F81
:102FA000C70142960E943D0D5FEFE51AF50A62E106
:102FB000E616F10489F78BEDE82E82E0F82EC701C2
:102FC0000E94510D682FC7010A970E943D0D7FEFA7
:102FD000E71AF70A85EEE81682E0F80681F7C9CF0E
:102FE0000736A9F4E091E102F0E0EA5CFE4F1083BD
:102FF0000E94CE0DFDE2AF2EF1E0BF2EAFE6EA2E2D
:10300000F12C802E912CB1E86B2E610E2CC005376F
:1030100089F7E090E102F12CC701880F991FDC01CC
:10302000A05DBE4F7D01212F30E0AFEFBFE10E94D8
:10303000D72724E630E040E050E00E94B527F701B2
:1030400031832083D5CF123390F4D5011C930E9495
:10305000CE0DFFEFEF1AFF0A2FEFA21AB20A32E7E6
:10306000E316F10439F08E149F0499F7ECCFF501C3
:103070006082EDCF083629F48FEF810F80932C0109
:1030800063C00936E1F580912C01E091E1028C30BA
:1030900048F44CE0E49FF0011124E85FFE4FE80F94
:1030A000F11D2BC0813250F455E1E59FF001112450
:1030B000EE51FE4FE80FF11D3C971FC0813219F40D
:1030C00010931B0441C0823269F4F0E0EE0FFF1F41
:1030D000E458FD4F60E8169FC001112420911B04A5
:1030E000822B61C08E3280F576E0E79FF0011124DB
:1030F000E153FD4FE80FF11DB797108323C00A3647
:1031000019F5103108F18CEE810F893058F5809156
:10311000E10290E0880F991FFC01EE5FFE4F8CEEFC
:10312000810F41E050E060E070E004C0440F551FA3
:10313000661F771F8A95D2F780819181482B592B82
:10314000518340830E94CE0D309139018091E1027C
:10315000A8E28A9FC0011124805C9E4F40E050E0AD
:1031600020E0DAC082EE810F893000F58091E10223
:1031700090E0880F991FFC01EE5FFE4F82EE810FF9
:1031800021E030E040E050E004C0220F331F441F34
:10319000551F8A95D2F7DA01C90180959095208153
:1031A00031818223932391838083CCCF173239F4EA
:1031B000E091E102F0E0E758FD4F1082C3CF1832F2
:1031C00041F4E091E102F0E0E758FD4F81E08083B7
:1031D000B9CF193259F5E0905904F0905A04E091B2
:1031E000E102F0E0EE0FFF1FE458FD4FF182E082B4
:1031F00022E248E667E080EB0E948E0B2E2D2F77AF
:1032000049E667E080EB0E948E0B23E248E667E028
:1032100080EB0E948E0B9701220F232F221F330B6E
:1032200049E667E080EB0E948E0B8CCF1A3231F4B6
:1032300082E0809312031092350286CF1B32A9F5EB
:103240002091590430915A04E090E10245E1E49E56
:10325000C0011124BC016E517E4F7B01822F8F77FC
:10326000DB0153968C9353975901AA0CAB2CAA1CE3
:10327000BB085496AC9220E248E667E080EB0E94DF
:103280008E0BF701238949E667E080EB0E948E0BE5
:1032900021E248E667E080EB0E948E0B2A2D49E68A
:1032A00067E080EB0E948E0B4FCF1D3209F04CCFB0
:1032B000E12CF12CC70142960E94510D682FC701E5
:1032C0000E943D0DFFEFEF1AFF0A22E1E216F10422
:1032D00089F7BBEDEB2EB2E0FB2EC7010A970E94E7
:1032E000510D682FC7010E943D0D3FEFE31AF30A0D
:1032F00045EEE41642E0F40681F726CF0A3679F46B
:10330000103120F4FC01E40FF51F12832F5F4B5F97
:103310005F4F283009F4D9CB3213F8CFEFCF0B36FB
:1033200029F4FC01E40FF51F1383F0CF0C3671F77D
:10333000FC01E40FF51F1483E9CF3FB7F8948770C1
:103340008093E9008091F20090E08530910514F0BF
:1033500084E090E0282FFE013196215038F0A4E659
:10336000A0937702A091F100A193F7CF009721F0ED
:103370002091F200222321F13FBF049709F0FCCBFA
:103380008091130490911404A0911504B091160437
:10339000880F991F880F991FFC01ED5EFC4F098172
:1033A0001A812B813C8100831183228333834093D4
:1033B0001304509314046093150470931604B7CB50
:1033C0007092E800D9CF0E94541300917B041091B1
:1033D0007C0420917D0430917E04DC01CB01801BB4
:1033E000910BA20BB30B0597A105B10508F48EC094
:1033F00050907A0461E572E07A87698782E394E00D
:103400009E838D83ADE1B4E0B887AF8359E2E52EAA
:1034100054E0F52E6CE2862E64E0962E73E2C72E01
:1034200074E0D72EE5E3AE2EE4E0BE2EF8E36F2E77
:10343000F4E07F2E00E214E0A4E02A2E442443941A
:10344000E985FA8581919191FA87E987FC01FF2747
:1034500032972081892F992730E082239323892B6B
:1034600011F00C943926F8018081882319F08150DD
:10347000D8018C93D8016C9161110C940726ED81D1
:10348000FE814082AF81B8855C9051100C94F82584
:10349000F701808181110C94F825D5014C925524B7
:1034A0005394F601819191916F018D32914010F00A
:1034B0000C943026AD81BE818D91BE83AD83EF81AA
:1034C000F8858193F887EF83FFEFEF1AFF0A2FEF5C
:1034D000821A920A3FEFA31AB30A4FEF641A740AD2
:1034E0000F5F1F4F67E572E089859A856817790736
:1034F00009F0A6CF50927A040E94541360937B0483
:1035000070937C0480937D0490937E0480917A0470
:10351000882309F475C180913B04882351F0809180
:103520003904882331F01092390410927A041092F1
:103530003B0480913504882309F445C0809134040C
:10354000811141C08091330481113DC0E091E102BD
:103550000E2F10E095E1E99FF0011124EE51FE4F8E
:1035600022892130A9F48091640490916504969594
:103570008795089769F41092350420932F04809161
:10358000CB02811103C00E94740D02C00E94530D32
:1035900086E0809FF001819FF00D1124E153FD4FE3
:1035A0008281882381F080916404909165049695CE
:1035B00087958031910531F51092350481E0809333
:1035C0002F040E94160F48E3C42E44E0D42E52E884
:1035D000452E52E0552E65E3662E64E0762E79E2A4
:1035E000E72E74E0F72EECE2AE2EE4E0BE2EF3E21E
:1035F0002F2EF4E03F2EAFE28A2EA4E09A2E00E0B8
:1036000010E049C00297F9F61092350481E08093EA
:103610002F040E94EE10D7CF8091E10290E0FC01D0
:10362000EE0FFF1FE80FF91FEB57FD4FE00FF11FE3
:103630008081811136C0209132048091330490E062
:10364000820F911D20913404820F911D892B49F125
:10365000D5018C91811131C0D3018C91811156C05B
:103660000F5F1F4F4FEFC41AD40A5FEF451A550A78
:103670006FEF661A760A7FEFE71AF70A8FEFA81A3C
:10368000B80A92E0290E311CAFEF8A1A9A0A033069
:10369000110509F47BC00D83D6018C918823C1F2FA
:1036A000BBCFF4018081811103C08D810E9407117D
:1036B000D6011C92F4011082CBCF2091320480916C
:1036C000330490E0820F911D20913404820F911DEC
:1036D000019711F68091E10290E0FC01EE0FFF1FCF
:1036E000E80FF91FEB57FD4FE00FF11F80818111AB
:1036F000B3CF8D818B5F0E94071121E0F7012083FA
:10370000D5011C92F10111821082A6CF1C9220914A
:10371000E10230E0F901EE0FFF1FE20FF31FEB575C
:10372000FD4FE00FF11F8081882309F499CFB5E0A8
:10373000B09FF001B19FF00D112448E2429FC001FB
:10374000439F900D1124E80FF91FE05CFE4F50815C
:103750005D83513069F48181811182CF248143815D
:10376000628180E90E948E0BED81D201EC9378CFCB
:10377000FD81F53019F40E94440F72CF2D8126305F
:1037800011F00C9450260E94350F6ACF80913304BB
:103790008823A1F1809138048823B1F08091E1025F
:1037A00090E0FC01EE0FFF1F8E0F9F1FFC01EB57F7
:1037B000FD4F8081811108C01092380481E0809310
:1037C0003B0483E00E94071180913A048823B1F002
:1037D0008091E10290E0FC01EE0FFF1F8E0F9F1F12
:1037E000FC01EB57FD4F8181811108C010923A0412
:1037F00081E080933B0484E00E94071110927A04D8
:1038000080913502882309F445C00E945413009129
:103810003C0410913D0420913E0430913F04DC01B2
:10382000CB01801B910BA20BB30B883C9105A1052A
:10383000B10580F10E94541360933C0470933D04E1
:1038400080933E0490933F0480918E02EAE9F5E074
:10385000882399F0859194912FB7F894FC01FF2764
:1038600080819095892380832FBF8091350281507C
:103870008093350210928E020DC0859194912FB7DE
:10388000F894FC01FF278081892B80832FBF81E082
:1038900080938E0210911203112309F404C18091C8
:1038A0008E0281113DC0EAE9F5E0859194912FB730
:1038B000F894FC01FF278081892B80832FBF81E052
:1038C00080938E020E9454136093400470934104CD
:1038D000809342049093430480911203813081F0DD
:1038E0008091CE02882309F4DEC0109290021092DB
:1038F0008F028FEF90E09093EF028093EE02D3C09F
:10390000E1E9F2E0A0EFB2E081EA92E02FEF30E0EF
:10391000119211922D933D938E179F07C9F7E0CF17
:103920001130B1F40E945413C0904004D09041046F
:10393000E0904204F0904304DC01CB018C199D0916
:10394000AE09BF0981319742A105B105D0F05DC034
:10395000123009F070C00E945413C0904004D090FF
:103960004104E0904204F0904304DC01CB018C1947
:103970009D09AE09BF0989389341A105B10528F118
:103980005CC0EFE8F2E02AE634E06EEE72E0D901C6
:103990008D919D919D01428153814817590710F4E3
:1039A00093838283DB0112964D915C911397841768
:1039B000950724F413969C938E93129732966E5F1C
:1039C0007F4FB2E0EF39FB0711F78091CE028823D9
:1039D000D1F0809168049091690420918F02309118
:1039E00090022817390720F49093900280938F0259
:1039F0002091EE023091EF028217930724F4909306
:103A0000EF028093EE021130B1F40E945413009142
:103A10004004109141042091420430914304DC01A0
:103A2000CB01801B910BA20BB30B81319742A105F7
:103A3000B105C0F438C01230B1F50E9454130091A2
:103A40004004109141042091420430914304DC0170
:103A5000CB01801B910BA20BB30B89389341A105BD
:103A6000B10508F10E9497078091D1012EEC3FEF3C
:103A7000281B3109EFE8F2E005EA12E088EFE82EB2
:103A8000FF24FA9461917191620F731FC7010E9424
:103A9000612876956795D8016D937D938D01B2E08D
:103AA000E13AFB0779F7F894E8E62E2EE4E03E2EA3
:103AB000D10180E090E0FC01EE0FFF1FE050FD4FD0
:103AC000208131812D933D9301968930910599F79D
:103AD00078944091340250911203AEEEB2E0E8E6E1
:103AE000F4E0463158F0511109C0808191812D9147
:103AF0003C911197821B930B9183808380819181EC
:103B000097FF02C0118210823296129624E0EA37A3
:103B1000F20739F78091BA019091BB014EEC5FEF4B
:103B20005A01A81AB90A0091640410916504EFE8DB
:103B3000F2E0A8E6B4E080E090E06D917D91219103
:103B40003191790142E3E41AF108E616F70678F4B8
:103B500021E030E040E050E0082E04C0220F331F87
:103B6000441F551F0A94D2F7022B132B16C02A0D9F
:103B70003B1D2617370788F041E050E060E070E019
:103B8000082E04C0440F551F661F771F0A94D2F7F2
:103B90009A012095309502231323019689309105CF
:103BA00061F610936504009364048091B8019091CC
:103BB000B9018017910709F4A3C01093B9010093CC
:103BC000B8018091CD02882379F0212F220F07FDC3
:103BD000216042E767E080EB0E948E0B202F43E7D5
:103BE00067E080EB0E948E0BE091E102F0E0E15291
:103BF000FE4F2081822F90E08930910508F080C02F
:103C0000FC01EA5AFF4F0C947528F801EC7FFF275E
:103C1000AF0156954795FA01EA51FB4FE4918E2F7B
:103C200090E0243011F401FD0197FA01E951FB4FB6
:103C300011C010FD04C082E08093610464C098014B
:103C40002E7F3327F901EA51FC4F849190E0F9016E
:103C5000E951FC4FE491E0936104FC015CC010FF6A
:103C600052C0F801EE7FFF27F695E795EA59FC4F21
:103C700044C010FD05C007FD49C0ECE4F0E04BC0B6
:103C8000F801EE7FFF27F695E795EA51FD4F35C025
:103C9000C8019695879599270E94B70DE4EDF2E04B
:103CA00020E030E09491891306C0F901EE0FFF1F68
:103CB000EB52FD4F22C02F5F3F4F32962930310526
:103CC00089F7F801F695E795FF27EC52FE4FE4914E
:103CD000F0E0309701F514C0F801EE7FFF27F6956C
:103CE000E795EC5AFE4F09C010FF13C0F801EE7FB4
:103CF000FF27F695E795EC52FF4FE491F0E00BC0FB
:103D0000EFEFFFEF08C0EAE4F0E005C0EBE4F0E01D
:103D100002C0E7E4F0E0F0936704E093660480916A
:103D2000660490916704019659F1209166043091E0
:103D300067048091330290E08217930709F1809124
:103D4000ED02811117C08091EC02823099F010933E
:103D5000630400936204E1E2F2E0A3EEB2E023E345
:103D600032E0119211921D922E173F07D1F788234E
:103D700009F4A9C780916604909167048093330287
:103D80008091E202882309F407C1F8948091A1028E
:103D90009091A2029093500480934F0478940091E4
:103DA0004F04109150048091590490915A04801747
:103DB000910709F4F1C0E091E10265E1E69FF001AD
:103DC0001124EE51FE4F8289833051F580914E04CB
:103DD000811115C0848970E8879FC001112423894F
:103DE000822B059680179107DCF481E080934E04C6
:103DF0008091CB02811114C00E94740D11C084897E
:103E0000A0E88A9FC00111242389822B0817190773
:103E10003CF410924E048091CB0281110E94530D0C
:103E20008091330290E0CC974091C201489F90016D
:103E3000499F300D11248091C8019091C901820FD2
:103E4000931F9093C5018093C40180914D048823F2
:103E500009F470C70E945413C0904904D0904A04DA
:103E6000E0904B04F0904C04AB01BC014C195D098F
:103E70006E097F098091C0019091C101092E000C4B
:103E8000AA0BBB0B481759076A077B0708F452C7F0
:103E900010924D0450914D044091C301511150C0F6
:103EA0008091480481114CC0413021F58091590422
:103EB00090915A049801281B390B8091BD0190E024
:103EC00082179307BCF48091C6019091C7018017B7
:103ED000910784F483E08093530440934D040E943F
:103EE00054136093490470934A0480934B04909355
:103EF0004C0421C080915304833011F5442301F117
:103F00002091590430915A04201B310B8091BC013F
:103F100090E082179307A4F481E080935304809388
:103F200048040E94541360934404709345048093A2
:103F300046049093470410935A04009359042CC0EC
:103F40008091C6019091C7018017910714F081E01C
:103F50001BC0413069F48091480451110BC081119C
:103F600009C08091C4019091C5018017910724F088
:103F700082E00AC081110AC08091C4019091C501FC
:103F8000801791071CF483E08093530410935A0424
:103F9000009359041092E2029091A4028091A3022E
:103FA000BCE09B9F800D112480935404E091530446
:103FB000E9879091E102E33071F42CE0280F20931F
:103FC0005404E92FF0E0E152FE4F2081273019F42C
:103FD000895F809354048091C301833011F5092FC8
:103FE00010E0F801E152FE4F6081613009F41BC717
:103FF00040916404509165044170552786E0809F8C
:10400000F001819FF00D1124E153FD4F238130E039
:104010004217530769F580915404673031F5895F81
:1040200025C0823029F5292F30E0F901E152FE4FF9
:104030008081482F4B7F11F08630D1F4F0916504D8
:10404000FE871F864E855F854170552786E0829FDB
:10405000F001839FF00D1124E153FD4F238130E0E7
:104060004217530729F480915404845F80935404C9
:10407000092F10E0F801E152FE4F20812D832530F9
:1040800029F480915404815080935404B090ED023F
:10409000BB20D1F1209161042230B0F58FEF9FE178
:1040A0009093D3018093D201213051F42091CF011C
:1040B0003091D001821B930B9093D3018093D20156
:1040C000C090D201D090D3018091B7029091B802F4
:1040D000C80ED91ED092D301C092D2018091CD01D9
:1040E0009091CE01C816D90679F09601220F232FA0
:1040F000221F330B4C2D4F7761E080EE0E948E0B18
:10410000D092CE01C092CD010E94541340905D0424
:1041100050905E0460905F0470906004DC01CB01FD
:1041200084199509A609B7090F97A105B10508F4E7
:1041300074C40E94541360935D0470935E04809372
:104140005F049093600485E1809FF001819FF00DF2
:104150001124EE51FE4F8081882309F4ADC086E022
:10416000809FF001819FF00D1124E153FD4F81816B
:104170008111A2C02091C6013091C7018091C40174
:104180009091C501BC01621B730B75956795620F19
:10419000731F4985433019F4680F791F9C01809182
:1041A000590490915A048617970758F545E1409FA6
:1041B000F001419FF00D1124EE51FE4F4181FB01B2
:1041C000E81BF90B84E1489FA0011124E49FC00182
:1041D000E59F900DF49F900D1124621B730B0E94BC
:1041E0006128669FB001112453E0759567955A9533
:1041F000E1F77195619571097093B8026093B70208
:1042000014C0861B970B25E1209FF001219FF00D24
:104210001124EE51FE4F4181489F9001499F300D7E
:1042200011243093B8022093B70285E1809FF001FA
:10423000819FF00D1124EE51FE4F8181A8EC8A9FE1
:10424000C00111242091B7023091B8028217930760
:1042500024F49093B8028093B702B091EC02BF832C
:10426000B23009F0DCC5C090B702D090B802E1E0EE
:10427000CE1AE0EEDE0AD092D301C092D201809134
:10428000CD019091CE01C816D90609F42AC18091BA
:104290005604882309F425C19601220F232F221FDB
:1042A000330B4C2D4F7761E080EE0E948E0BD09245
:1042B000CE01C092CD0115C1B11016C1F091EC0232
:1042C000FF83F23009F4E4C12091D10130E0409144
:1042D00051044D8780906404909065048091CC01D6
:1042E00064E070E0681B7109798B688B60906204F0
:1042F000709063048091CA019091CB019B8B8A8B53
:10430000A091CF01B091D001BD8BAC8BE1E2F2E086
:10431000FC87EB8743EE52E0598F488F89EBE82EFC
:1043200082E0F82E95EA492E92E0592E80E090E046
:10433000A4010D8402C0569547950A94E2F7BA018C
:10434000617077277F8B6E8B7F81711127C0D101C0
:104350004D915C9124173507E4F4BD85B8131EC058
:104360006E897F89672BD1F4421B530BD201CD900C
:10437000DC904C9DB0014D9D700D5C9D700D112425
:10438000088802C0769567950A94E2F77183608386
:1043900005C0A88DB98D1C9211821082682FA301CF
:1043A000082E02C0569547950A94E2F740FF17C0C1
:1043B000D1014D915C91421753078CF4A12CB12C83
:1043C0006501A394082E04C0AA0CBB1CCC1CDD1CE8
:1043D0000A94D2F7A50140955095642275224A8926
:1043E0005B89062E02C0569547950A94E2F740FF76
:1043F00047C0A301062E02C0569547950A94E2F7DE
:1044000040FD3EC0BF81B13019F04D854817C1F164
:10441000D1014D915C91D40102C0B695A7956A95E2
:10442000E2F7BD0124173507CCF4A0FD1EC0421BE6
:10443000530BD701AD90BC904A9D60014B9DD00CB1
:104440005A9DD00C1124D694C794D694C794D18287
:10445000C08241E0A88DB98D4C9307C0A88DB98D5D
:104460001C9260FF0DC011821082A88DB98D4C91F5
:10447000413031F460FF04C04C895D895183408331
:1044800001963296688D798D6F5F7F4F798F688F37
:1044900072E0E70EF11CA2E02A0E311CB2E04B0ED6
:1044A000511C8930910509F04FCF709263046092DE
:1044B000620423E332E080E090E0EB85FC854191EB
:1044C0005191FC87EB87840F951F2E173F07A9F7A3
:1044D0009093D3018093D201811590420CF4A1C036
:1044E0009AC0BB2009F4D4C080916104823009F0E5
:1044F000CFC01092D3011092D2018D818B7F09F031
:104500006FC060916E0470916F042091D10130E012
:1045100080916C0490916D0426173707BCF5A0912B
:104520006404A3FD33C0621B730BE091BF02F091E2
:10453000C0026E9FA0016F9F500D7E9F500D1124F1
:1045400056954795569547955093D3014093D20180
:1045500028173907CCF5A2FD37C0BC01621B730BCD
:104560002091BD023091BE02629FC001639F900DF9
:10457000729F900D11249695879596958795480F73
:10458000591F5093D3014093D2011EC028173907F9
:104590000CF047C04091640442FD43C0821B930B62
:1045A0004091BD025091BE02849F9001859F300DC5
:1045B000949F300D1124C9019695879596958795FE
:1045C0009093D3018093D2018091CF019091D0013B
:1045D0002091D2013091D3018217930710F51DC0AD
:1045E000ED81E130F1F4409164045091650450FF95
:1045F000C7C380916E0490916F042091D10130E087
:10460000281739070CF4E5C38091D2019091D301AA
:104610008115904234F08FEF9FE19093D301809306
:10462000D2012091D2013091D3018FEF9FE1821B03
:10463000930B2091B7023091B802820F931F97FD20
:1046400005C09093D3018093D20104C01092D3018E
:104650001092D201C090D201D090D3018091CD01AF
:104660009091CE018C159D0599F080915604882378
:1046700079F09601220F232F221F330B4C2D4F77F9
:1046800061E080EE0E948E0BD092CE01C092CD01EF
:104690004091590450915A0458874F8380915B048C
:1046A00090915C04841B950B97FF03C091958195B5
:1046B000910903970CF484C16F8178854B01770FC2
:1046C000AA08BB088091CD028823A9F0282D2F7756
:1046D00044E767E080EB0E948E0BA5019401B7E0F0
:1046E0005695479537952795BA95D1F746E767E0F0
:1046F00080EB0E948E0B85E1809FF001819FF00D81
:104700001124EE51FE4F32802090D40271E0371612
:1047100011F02712A0C085E1809FF001819FF00D6C
:104720001124EE51FE4FE7814090DC015090DD01F5
:10473000612C712CA50194012419350946095709EA
:10474000A0E2B3E00E94AA27A8E0EA9F900111240A
:104750002C593F4F6901330FEE08FF08A70196015E
:1047600024193509460957090E948B2757FD0EC0A9
:104770002132B3E03B074105510574F449015A0168
:10478000E4E68E0E911CA11CB11C0CC0A4E68A2E7E
:10479000912CA12CB12C06C0F4E88F2EF3E09F2EB3
:1047A000A12CB12C85E1809FF001819FF00D112497
:1047B000EE51FE4F8381813009F584EC9CE1A1E04C
:1047C000B0E08093D8019093D901A093DA01B0931F
:1047D000DB01A5019401C501B4010E9451289B0190
:1047E000AC01C501B4010E94512820E137E240E04C
:1047F00050E00E94B52749015A012DC08230F9F4DA
:1048000084E89CE1A0E0B0E08093D8019093D901C6
:10481000A093DA01B093DB0160E17CE58CE090E0ED
:10482000A50194010E94B527E8E08E2EE0E29E2EBD
:10483000A12CB12C821A930AA40AB50A0CC084E8F0
:1048400093E0A0E0B0E08093D8019093D901A093C9
:10485000DA01B093DB01F1E02F124EC04090D60197
:104860005090D7016201E12CF12C4090D40150907E
:10487000D501612C712CC701B6016419750986092F
:104880009709A501940124563109410951090E9453
:1048900051282091D8013091D9014091DA015091ED
:1048A000DB0124563109410951090E948B27DA01A5
:1048B000C901840D951DA61DB71D84159505A60576
:1048C000B7054CF477E075946794579447947A95BC
:1048D000D1F7242D0FC0C816D906EA06FB0614F43A
:1048E000D701C60167E0B595A795979587956A9515
:1048F000D1F7282F2093DE0121E032125BC02091F6
:10490000D6013091D7016901E12CF12C4090D401FE
:104910005090D501612C712CA501940124563109C8
:1049200041095109C701B60164197509860997093A
:104930000E9451288090D8019090D901A090DA016E
:10494000B090DB01A50194012456310941095109B8
:104950000E948B27DA01C901840D951DA61DB71D84
:1049600084159505A605B7054CF457E07594679432
:10497000579447945A95D1F7242D0FC0C816D906DD
:10498000EA06FB0614F4D701C60147E0B595A795E2
:10499000979587954A95D1F7282F85E1809FF0015B
:1049A000819FF00D1124EE51FE4F4581648180EB13
:1049B0000E948E0B4F81588550935C0440935B049A
:1049C000809158048F5F8A3019F08093580425C075
:1049D00010925804E2EAF5E085919491FC01FF27DA
:1049E00032972081892F992730E08223932321E079
:1049F000892B09F420E02093CE028091570482177E
:104A000061F0209357048091CD02882331F028581B
:104A100046E667E080EB0E948E0B2091560422232D
:104A200081F04091330250E08091550490E0309144
:104A30005404831B910937FD93954817590709F4CE
:104A400084C05985523058F086E0809FF001819FE4
:104A5000F00D1124E153FD4F8181882389F086E018
:104A6000809FF001819FF00D1124E153FD4F818162
:104A7000882309F465C08091CC02882309F460C0C2
:104A8000809152048E3389F4309133028091540422
:104A9000082E000C990B830F911D8635910529F482
:104AA0008091E202882309F44BC06D81633029F4C0
:104AB000809133028C3361F443C07D81713041F4C5
:104AC000809133028E3321F48091640480FD38C0DC
:104AD000222341F02091DE014091550461E080E8FD
:104AE0000E948E0BD0903302E0905404ED0C209184
:104AF000DE014E2D61E080E90E948E0B0E9454136E
:104B000060935D0470935E0480935F0490936004EF
:104B1000E0925504D092520481E08093560485E1DE
:104B2000809FF001819FF00D1124EE51FE4F82898C
:104B3000823059F48091CB02811107C00E94740D1C
:104B400080915604882309F449C08985813059F43D
:104B500086E0809FF001819FF00D1124E153FD4F0D
:104B60008181882311F186E0809FF001819FF00D03
:104B70001124E153FD4F8181882321F08091CC02E3
:104B8000882399F09D81933029F4809133028C33EE
:104B900029F50BC0AD81A13009F5809133028E3328
:104BA000E9F48091640480FF19C02FE74091550417
:104BB00061E080E80E948E0B1092560485E1809F90
:104BC000F001819FF00D1124EE51FE4F8289823059
:104BD00029F48091CB0281110E94530D80E090E076
:104BE000892B11F40C945F150E9400000C945F1542
:104BF000F5011082552011F40C944F1AD6018D91B5
:104C00009C91119701968D939C930C94511A70E08E
:104C100080E090E00E94ED2720E030E040E850E4A2
:104C20000E944C2887FF02C00C94511AED81FE812E
:104C30001082D8012C92EF81F8858081882339F089
:104C4000D7019C91911103C0F3014082582ED401E9
:104C50001C92F7011082D6011D921C920C94511ADD
:104C6000D7018C9181110C945A1AF40140820C9452
:104C70005A1AD8013C90632D70E080E090E00E94C9
:104C8000ED2720E030E040E850E40E94E62787FD71
:104C900002C00C943A1A3394F80130820C943A1AF8
:104CA000BD81BA3021F48091A3028F5F08C03D819D
:104CB0003B3011F00C94301B8091A3028150809303
:104CC000A3020C94301BE091E102F0E0E152FE4FB0
:104CD00080818530A9F048F48230E9F4E0916604DF
:104CE000F0916704EE5CFA4F1CC0873081F0883089
:104CF00091F4E0916604F0916704E75DFA4F11C00A
:104D0000E0916604F0916704E65DFA4F0AC081E025
:104D10008093CC0109C0E0916604F0916704E55DE1
:104D2000FA4FE491E093CC01C8010E94B70D809343
:104D3000510420C880914804882309F4ABC80E941C
:104D40005413C0904404D0904504E0904604F09081
:104D50004704AB01BC014C195D096E097F098091C4
:104D6000BE019091BF01092E000CAA0BBB0B481786
:104D700059076A077B0708F48DC8109248048AC84F
:104D800043FD4FCC80916E0490916F042091D1012E
:104D900030E04091CF015091D00128173907A4F499
:104DA000821B930B6091BF027091C002869F90019D
:104DB000879F300D969F300D1124C90196958795D8
:104DC00096958795481B590B5093D3014093D20178
:104DD00028CC43FD19CC821B930B4091BF0250910C
:104DE000C002849F9001859F300D949F300D112447
:104DF000C90196958795969587959093D301809351
:104E0000D20102CC1F3111F481E005C0103211F043
:104E10000C945B1682E080931C040C945B16BB2000
:104E200009F452CA61CBF1E0FD8330C982E080937E
:104E3000AF048093B00485EB94E09093B204809328
:104E4000B1041092B4041092B30484E692E09093FB
:104E5000AC048093AB0480E88093B50481E8809330
:104E6000B6040E94020DFC0121818091AF0490E004
:104E7000820F911D0897C4F5A281B381109729F480
:104E80008BEA94E0938382830EC018968D919C9157
:104E90001997009711F0DC01F8CF8BEA94E019968E
:104EA0009C938E93189780818093AD048181809329
:104EB000AE0490818091B004890F808380E090914E
:104EC000AF04891788F4A091B104B091B204A80F7F
:104ED000B11D9C91A181B0E0A85CBD4F9C939181D4
:104EE0009F5F91838F5FEBCF0895F999FECF92BDBD
:104EF00081BDF89A992780B50895262FF999FECF9C
:104F00001FBA92BD81BD20BD0FB6F894FA9AF99AE6
:104F10000FBE01960895052E97FB1EF400940E9483
:104F2000A22757FD07D00E94B52707FC03D04EF4F7
:104F30000C94A22750954095309521953F4F4F4FA7
:104F40005F4F089590958095709561957F4F8F4F35
:104F50009F4F08950E94D727A59F900DB49F900D55
:104F6000A49F800D911D11240895A1E21A2EAA1B61
:104F7000BB1BFD010DC0AA1FBB1FEE1FFF1FA21709
:104F8000B307E407F50720F0A21BB30BE40BF50B06
:104F9000661F771F881F991F1A9469F7609570958F
:104FA000809590959B01AC01BD01CF010895A29F12
:104FB000B001B39FC001A39F700D811D1124911DED
:104FC000B29F700D811D1124911D08950E94282803
:104FD00008F481E00895E89409C097FB3EF49095A9
:104FE0008095709561957F4F8F4F9F4F9923A9F0C2
:104FF000F92F96E9BB279395F69587957795679551
:10500000B795F111F8CFFAF4BB0F11F460FF1BC094
:105010006F5F7F4F8F4F9F4F16C0882311F096E927
:1050200011C0772321F09EE8872F762F05C06623D5
:1050300071F096E8862F70E060E02AF09A95660F8E
:10504000771F881FDAF7880F9695879597F9089547
:10505000990F0008550FAA0BE0E8FEEF1616170689
:10506000E807F907C0F012161306E407F50798F0F1
:10507000621B730B840B950B39F40A2661F0232B0A
:10508000242B252B21F408950A2609F4A140A69586
:105090008FEF811D811D08950E94282808F48FEF4D
:1050A0000895DB018F939F930E94AA27BF91AF9130
:1050B000A29F800D911DA39F900DB29F900D112472
:1050C0000895AA1BBB1B51E107C0AA1FBB1FA6174F
:1050D000B70710F0A61BB70B881F991F5A95A9F7A1
:1050E00080959095BC01CD010895EE0FFF1F0590AE
:1050F000F491E02D099481E090E0F8940C948028DC
:04510000F894FFCF51
:105104001B0CFF00FF00FF000F0F0F0F1E1E0308F4
:105114001C070F160F0F0F0F1E1E03081C070F1678
:105124000F0F0F0F1E1E03081C070F166400000844
:105134000004000400040A0A0A64010100010102D7
:105144000200000000080000000003000000000549
:105154000000000006000000000000000000000045
:105164000000000000000000020000000008000031
:10517400000003000000000500000000060000001D
:10518400000000000000000000000000000000001B
:1051940002000000000800000000030000000005F9
:1051A40000000000060000000000000000000000F5
:1051B4000000000000000000010004000F0F0F00B9
:1051C4000F000F01FF0004010000FF0101FF1F0099
:1051D400040AFF1F7F00FF3F20030000640040001B
:1051E40001020003000001070064007F0001332472
:1051F40000013324000000000300000107006400E4
:105204007F00013324000133240000000003000068
:1052140001070064007F00013324000133240000EF
:1052240000FF1FFF1FFF1FFF1FFF1FFF1FFF1FFFA9
:105234001FFF1FFF1601010F00C180810000002520
:10524400802B80251028402E402B082B042B012B6B
:105254000225022508250405090A000102030B069C
:1052640000000000120C280C0F0C1E0C4D49444980
:02527400000038
:00000001FF
