:100000000C9477040C949F040C949F040C949F040C
:100010000C949F040C949F040C949F040C949F04D4
:100020000C949F040C949F040C944F1A0C94A61AE1
:100030000C949F040C949F040C949F040C949F04B4
:100040000C949F040C949F040C949F040C949F04A4
:100050000C946C190C949F040C949F040C9422191A
:100060000C949F040C949F040C949F040C949F0484
:100070000C949F040C9493190C949F040C949F046B
:100080000C949F040C949F040C949F040C949F0464
:100090000C949F040C949F040C949F040C949F0454
:1000A0000C949F040C949F040C949F040403090473
:1000B00012010002EF0201409A230D8000010102AB
:1000C00003014D6F77727920537472696E676564AE
:1000D00020496E737472756D656E74730049747324
:1000E000794269747379203332753420335620385D
:1000F0004D487A0048484848484848484848484891
:10010000484848484848484848484848484848486F
:10011000484848484747474747474747474747476B
:10012000474747474545454545454545434343437F
:100130004242403E4A4A4A4A4A4A4A4A4A4A4A4A45
:100140004A4A4A4948484848484848484545454534
:100150004343413E4949494949494949494949492E
:1001600049494949494949494949494949494949FF
:1001700049494949484848484848484848484848FB
:1001800048484848484848484848484848484848EF
:1001900048484A4A474646464646464646464646F2
:1001A00046464646474646464646464646464646EE
:1001B00046464646454545444544444445444444F2
:1001C0004444444443434343424242424141414107
:1001D00040403E3F3D3D3D3D3D3D3D3D3D3D3D3D46
:1001E0003D3D3D3D3C303C3C3C3C3C3C3C3C3C3C57
:1001F0003C3C3C3C3B2F3B3B3B3B3B3B3B3B3B3B57
:100200003B3B3B3B392D393939393939372B363777
:1002100035353432444444444444444444444444DE
:10022000444444444444444444444444444444448E
:10023000444444444343434343434343434343438A
:10024000434343434141414141414141404040409A
:100250003F3F3E3C000000000000000000000000A6
:10026000000000000000000000000000000000008E
:10027000000000000000000000000000000000007E
:10028000000000000000000000000000000000006E
:100290000000000046464646464646464646464616
:1002A00046464646464646464646464646464646EE
:1002B00046464646464646464646464646464646DE
:1002C00046464646464646464646464646464646CE
:1002D00046464646454545454545454545454545CA
:1002E00045454545454545454545454545454545BE
:1002F00045454545444444444444444444444444BA
:1003000044444444434343434343434342424242BD
:100310004141403E5E5E5E5E5E5E5E5E5E5E5E5E75
:100320005E5E5E5E5E5E5B5E5D5D5A5A5C5C595C05
:100330005B5B585B59565659585855555757545446
:100340005656535341413E4140403D3D3F3F3C3C6A
:100350003E3E3B3B52524F5251514E4E50504D50EB
:100360004F4F4C4F46464346454542424444414424
:10037000434340434D4D4A4D4C4C49494B4B4848F3
:100380004A4A47473A3A373A3939363638383535AE
:10039000373734344B4A4A494A4949484A49494817
:1003A000494848474A4949484948484749484847C9
:1003B0004D4C4C4B4A494948494847464E4D4D4C97
:1003C0004D4C4C4B48474746474646454D4C4C4B99
:1003D0004C4B4B4A4948484748474645484746459D
:1003E00047464645484747464746464547464645A9
:1003F00046454544474646454645454446454544A9
:1004000045444443454444434443434243424241B8
:1004100041403E3F4B4B4B4B4B4B4B4B4B4B4B4B5A
:100420004B4B4B4A63636363636363636262616103
:10043000605F5E5D55555555555555555D4B4B495E
:10044000494949495C5C5C4A5C4A4A4A5B4A5A4AA7
:100450005958575654545449494954545449494990
:1004600049494949535353535353534B4B4B4B4BAC
:100470004B4B534B52525252525252525252525270
:100480005151515250505050505050504F4F4E4E6D
:100490004D4C4B4A4A4A4A4A4A4A4A4A4A4A4A4AB6
:1004A0004A4A4A4A4A4A4A4A4A4A4A4A4A4A4A4AAC
:1004B0004A4A4A4A494949494949494949494949A8
:1004C000494949494B4B4B4B4B4B4B494B4B4B4B86
:1004D0004B4B4B4B48484848484848484848484890
:1004E00048484848474A4747474747474747474795
:1004F0004747474746464646464646464546464699
:1005000045454646444444444444444443434242AB
:1005100041403F3E4B4B4B4B4B4B4B4B4B4B4B4B59
:100520004B4B4B4A4B4B4B4B4B4B4B4B4B4B4B4B1C
:100530004B4B4B4B4B4B4B4B4B4B4B4B4B4B4B490D
:1005400049494949504A4A4A4A4A4A4A4F4A4E4A00
:100550004D4A4B4A545454494949545454494949C1
:1005600049494949535353535353534B4B4B4B4BAB
:100570004B4B534B5252525252525252525252526F
:100580005151515250505050505050504F4F4E4E6C
:100590004D4C4B4A4A4A4A4A4A4A4A4A4A4A4A4AB5
:1005A0004A4A4A4A4A4A4A4A4A4A4A4A4A4A4A4AAB
:1005B0004A4A4A4A494949494949494949494949A7
:1005C000494949494B4B4B4B4B4B4B494B4B4B4B85
:1005D0004B4B4B4B4848484848484848484848488F
:1005E00048484848474A4747474747474747474794
:1005F0004747474746464646464646464546464698
:1006000045454646444444444444444443434242AA
:1006100041403F3E7F3C003E0140024203430445CF
:10062000054706494B4A4A4A4A4A4A4A4A4A4A4AB6
:100630004A4A4A4A4A4A4A4A4A4A4A4A4A4A4A4A1A
:100640004A4A4A4A4A4A4A4A4A4A4A4A4A4A4A4A0A
:100650004B4A4A4A494A4A4A4A4A4A4A4A4A4A4AFA
:100660004A4A4A4A494949494949494949494949F6
:1006700049494949494949494949494948484848EE
:1006800048484848474747474747474747474747F6
:100690004647463F45454545444544444344454314
:1006A0004241403E484848484848484848484848E9
:1006B00048484848484848484848484848484848BA
:1006C00048484848484848484848484848484848AA
:1006D000484848484848484848484848484848489A
:1006E0004848484947474747474747474747474795
:1006F000474747474747474747474747474746468C
:100700004747474745454545454545454545454591
:1007100045454545434343434343434342424141A7
:10072000403F3E3C49004902490049004900490117
:100730004900490049004900490049004900490071
:100740004900490049004900490049004900490061
:100750004900490049004900490049004900490051
:100760004900490049004900490049004900490041
:100770004900490049004900490049004900490031
:10078000490049004802480248004802480148011F
:100790004800480148004802480048004800480115
:1007A0004800490047004702470047024700470109
:1007B0004700470146004700460047004700470002
:1007C00047004700470047004700470047004700F1
:1007D00047004700470047004700470047004700E1
:1007E00047004700450045024500450245004501D8
:1007F00045004501440045004400450045004500D2
:1008000045004500430043024300430243004301C7
:1008100043004301420042004100420040004000CA
:100820003F003E0049004900490049004900490095
:100830004900490049004900490049004900490070
:100840004900490049004900490049004900490060
:100850004900480048024801480148014800480052
:1008600048004A0047024701470147014700470047
:100870004700470047004700470047004700470040
:10088000460046004502450145014501450044003A
:10089000450044004302430143014301420041003B
:1008A00040003E002B042B082B022B012B1028406C
:1008B0002B802E4025102520254025802B40288088
:1008C00025082502250425013180314031203110D1
:1008D000310231012B102B802510252025402B4083
:1008E000070605040100080A0B0C0D09782B1124DA
:1008F0001FBECFEFDAE0DEBFCDBF13E0A0E0B1E076
:10090000E8EFF9E502C005900D92A231B107D9F7E1
:1009100025E0A2E1B3E001C01D92AC37B207E1F7D8
:1009200014E0C7E7D4E004C02197FE010E94F42C34
:10093000C637D107C9F70E94481C0C94FA2C0C94B6
:100940000000E4EEF8E0E49190917B008E2F880F98
:10095000880F80729F7D892B80937B00E770E06415
:10096000E0937C0080917A00806480937A0080918B
:100970007A0086FDFCCF80917800909179000895EF
:100980008091860381110DC082E08093820384E010
:1009900080938303109285031092840381E08093F7
:1009A000860382E893E008953FB7F89480917E0330
:1009B00090917F03A0918003B091810326B5A89BFD
:1009C00005C02F3F19F00196A11DB11D3FBFBA2FE1
:1009D000A92F982F8827BC01CD01620F711D811DA1
:1009E000911D43E0660F771F881F991F4A95D1F725
:1009F00008958F929F92AF92BF92CF92DF92EF9223
:100A0000FF924B015C010E94D4046B017C010E94A7
:100A1000D4046C197D098E099F09683E73408105D5
:100A20009105A8F321E0821A9108A108B10888EE87
:100A3000C80E83E0D81EE11CF11C81149104A104AE
:100A4000B10429F7FF90EF90DF90CF90BF90AF9067
:100A50009F908F9008952FB7F89460917A037091CA
:100A60007B0380917C0390917D032FBF089590E0DC
:100A700080E0089580E00895AF92BF92CF92DF9218
:100A8000EF92FF921F93CF93DF93182F80911D0554
:100A900090911E0584569109092E000CAA0BBB0BE0
:100AA000E12FF0E05F0123E0AA0CBB1C2A95E1F7DF
:100AB000B5016B5E7E4FEB012881398150E040E04B
:100AC00082179307A407B5075CF02A813B8150E0A9
:100AD00040E082179307A407B50714F49C01AD0109
:100AE000DF01AA0FBB1FAA0FBB1FAD59BC4F6D91F1
:100AF0007D918D919C910E94BC2C6B017C01DAE070
:100B0000F694E794D794C794DA95D1F7D501AB5E04
:100B1000BE4F14968D919C91C81AD90AE108F1082C
:100B2000DF01A15ABC4F8C91813009F040C0A70170
:100B30009601C701B6010E94BC2C9B01AC01C70104
:100B4000B6010E94BC2C6B017C01A4E1F594E794F2
:100B5000D794C794AA95D1F7EE0FFF1FE35FFE4F1E
:100B60006081A181B0E0E62FF0E0AE1BBF0BA701D2
:100B700096010E94182C2AE09595879577956795A0
:100B80002A95D1F7E60FF71FE501CB5EDE4FFF8315
:100B9000EE83113011F4E0930302DF91CF911F91A6
:100BA000FF90EF90DF90CF90BF90AF90089582308C
:100BB00099F6D701C60176E0B595A79597958795E3
:100BC0007A95D1F783309105A105B10524F58130DF
:100BD0009105A105B10594F5892B8A2B8B2B31F159
:100BE00043E0F594E794D794C7944A95D1F7C5E8C4
:100BF000CC0EC3E0DC1EE11CF11CD1E0CD16D4E02C
:100C0000DD06E104F1040CF4A7CFC12C34E0D32EAF
:100C1000E12CF12CA1CF0697A105B1050CF786E3D5
:100C2000C80E82E0D81EE11CF11C96CF63E0CC0C0C
:100C3000DD1CEE1CFF1C6A95D1F78ECFCC0CDD1CA1
:100C4000EE1CFF1CD8E7CD0ED1E0DD1EE11CF11C2F
:100C500083CF823108F08251E82FF0E0E052F74F65
:100C6000E49190917B008E2F880F880F80729F7D7A
:100C7000892B80937B00E770E064E0937C00809197
:100C80007A00886480937A0008959C012F5F3F4F1B
:100C900028233923232B79F050E040E020E0181678
:100CA00019063CF480FF242F959587954F5F5F4F81
:100CB000F6CF822F08958FE7089580910E058D3F1E
:100CC00054F0E0912E05F0E0E45AFC4F8081815011
:100CD000808380930E05089580910E05833054F42F
:100CE000E0912E05F0E0E45AFC4F80818F5F808315
:100CF00080930E050895CF92DF92EF92FF920F93AB
:100D00001F93CF93DF9340910A0150E01091FC04B0
:100D10000091F50120913E0530913F0564E070E0BF
:100D2000601B7109C2E5D5E0E8ECF2E090E080E0FC
:100D3000012E02C0369527950A94E2F721703327D9
:100D4000E990F9904E155F056CF518132BC0002340
:100D500049F121153105C1F4DC01AA0FBB1FAC5BC1
:100D6000BC4FE41AF50ACD90DC90EC9CD001ED9CD0
:100D7000B00DFC9CB00D1124062E02C0B695A795AF
:100D80000A94E2F7B183A0830196329689309105E7
:100D9000B9F6DF91CF911F910F91FF90EF90DF9007
:100DA000CF90089511821082EFCFDF92EF92FF92E1
:100DB0000F931F93CF93DF93C0912E05D0E0DE01F8
:100DC000AA5FBD4F6C91643108F0C4C07C01E62F6E
:100DD000F0E0E351F94F0C94F42C010729075A076E
:100DE00092070107AB07C107D4076707AA072907BE
:100DF000DE07F907BA072408C9072F084208420886
:100E000061089C0136952795369527952F7330E01C
:100E1000220F331FF901EC5DF74FE4918E2F90E024
:100E2000643011F4E1FC019760913E0570913F053B
:100E30006E157F0531F4F901EB5DF74FE491E09316
:100E40002E03DF91CF911F910F91FF90EF90DF90D4
:100E50000895C0913E05D0913F0590FD09C08C17C3
:100E60009D0719F482E080932E038AE490E0E9CF95
:100E7000DC01B695A7952A2F2F7730E0220F331F7C
:100E8000F901EC5DF84FE4918E2F90E0EC16FD0631
:100E900031F4F901EB5DF84FE491E0932E036A30F1
:100EA00081F6AD77A83409F497C0A83651F685E4E9
:100EB00090E0C7CF90FFD9CFFC01F695E795EF778B
:100EC000F0E0EC55F94FE4918E2F90E0BACF9C0101
:100ED0003695279580789170892BC1F4EE20B1F07A
:100EE0008CE490E02C32310509F0ABCFE22FEF77A4
:100EF000F0E0EC5DF94FE4918E2F90E0F0FCA1CF93
:100F00002C32310509F49DCF0C969BCF88E590E0FB
:100F10002A35310509F495CF86E590E02C3431056A
:100F200029F78FCF90FFA1CF9695879599270E949B
:100F3000450630E020E0F901EC5EF94FE4918E13B4
:100F400004C0F901EB5EF94FBECF2E5F3F4F223157
:100F5000310589F776CFFC01F695E795FF27EC5E22
:100F6000FA4FE4918E2F90E0009709F06ACF8FEF4F
:100F70009FEF67CFFC01F695E795FF27EC5EFB4FEF
:100F8000F0CFFC01F695E795EF77F0E0EC56FC4FDB
:100F90009ACFFC01F695E795EF77F0E0EC5EFC4F19
:100FA000849190E004964DCF90FF16C0FC01F69519
:100FB000E795EF77F0E0EC56FD4F85CF90FD0FC041
:100FC000C4E096958795CA95E1F70E9709F476C027
:100FD00088E490E0E7FC35CF87E490E032CF87FFEC
:100FE00066CFFC01F695E795EF73F0E0EC5EFD4F00
:100FF0006ACFFC01F695E795F695E795EF73F0E07B
:10100000EC52FE4FE4918E2F90E0E1FE16C08F323D
:10101000910599F08433910581F08533910569F04C
:101020008633910551F08B33910539F08C3391055E
:1010300021F08D33910509F00196F0FE02CF823345
:1010400091050CF4FECE60CFFC01F695E795EF77A5
:10105000F0E0EC5AFE4FE4918E2F90E0EECF9C0131
:1010600064E0369527956A95E1F782FBEE27E0F973
:10107000822F8871E82B220F2670E22BF0E0EC5CC7
:10108000FE4F21CF9695879599278F3F910509F4BB
:101090007EC0F0FEEACEF701F695E795F695E79566
:1010A000EF73F0E0EC50FF4FE4918E2F90E062314F
:1010B00009F0C7CE8734910509F0C3CE86E490E0ED
:1010C000C0CEF694E794DE2CE894D7F80D2D10E00E
:1010D000C8010E9445063091080590E02FE2281BC8
:1010E000891301C0322F9F5F9630D1F7C80123E0EA
:1010F000959587952A95E1F78730910521F487E248
:10110000809308050DC0069711F489E2F9CF85E0B8
:10111000159507958A95E1F7012BA9F130930805FC
:101120008FE7D8120EC08DE08C9FF0018D9FF00DDF
:101130001124EF55FD4F8485811127C080E38093F2
:101140000805E091080521E32C9FC0012D9F900D1B
:101150001124835F9D4FE80FF92FF11D808190E0EE
:10116000E0FE6FCE2DE02C9FF0012D9FF00D11249D
:10117000EF55FD4F2485222309F463CE009709F42F
:1011800060CE01975ECE88E2BBCF8FE2D8CF8CE3F2
:1011900090E057CE80912B038F5F80932B0380913B
:1011A0002B03823011F42F9A089580912B03833002
:1011B00069F480E18093810084E00E94290681E047
:1011C0008093000110922A0310922B0308950F932D
:1011D0001F93CF93DF931F92CDB7DEB719820E9482
:1011E000C004DC0112960D911C910115110589F0C6
:1011F000D801ED91FC910280F381E02DBE016F5F7B
:101200007F4FC801099597FD04C0F801008511853D
:10121000ECCF89810F90DF91CF911F910F910895AD
:101220004091160350911703209114033091150338
:1012300042175307B4F49091E8009570E1F3909150
:10124000E80092FD19C08093F100809116039091FF
:10125000170301968F739927892B19F48EEF8093CA
:10126000E80080911603909117030196909317035D
:101270008093160381E0089580E00895EF92FF9235
:101280000F931F93CF93DF93F82E192FE62E042F81
:1012900081E0860F880F0E94100983E00E941009E8
:1012A000CF2DD12FEC0EFD2EF11CCE15DF05B9F0A0
:1012B00007FF13C0FE0184910E941009182F80E0DF
:1012C0000E941009812321968111EFCFDF91CF91E8
:1012D0001F910F91FF90EF9008958881EDCF81E0ED
:1012E000F5CFDF92EF92FF920F931F93CF93DF938F
:1012F000D82E8A01EB017B01E40EF51ECE15DF0529
:1013000059F0D7FE12C0FE0184910E941009219667
:101310008111F4CF0FEF1FEFC801DF91CF911F9123
:101320000F91FF90EF90DF9008958881EECF0F939B
:101330001F93CF93DF93CDB7DEB7C456D1090FB655
:10134000F894DEBF0FBECDBFFC01DB019C919E5F18
:101350009C939E01295F3F4F8AE5D9011D928A9592
:10136000E9F788E089838BE08A8322E02C8391E08F
:101370009D839E8339E0398764E06A879E879F87D3
:101380003A8B44E24B8B9C8BA0E0B1E0BE8BAD8BE3
:1013900009E010E0188F0F8B998F3B8F6C8F2F8F88
:1013A00098A353E059A387E08CA34DA39EA3B8A7AD
:1013B000AFA3A1E4B0E0BAA7A9A786E08BA74CA78A
:1013C0002DA79EA79FA789AB4AAB2BAB2CAB2DAB10
:1013D0003FAB48AF59AF9AAF5BAF9CAF2DAF9EAF5D
:1013E00021963FAF219722964FAF229723965FAF6A
:1013F000239724962FAF249725966FAF259726968F
:101400009FAF269727969FAF279728969FAF28973D
:101410002A963FAF2A9745E02B964FAF2B972D96F4
:101420002FAF2D9760E470E02F967FAF6EAF2F97B0
:1014300063964FAF639785E264968FAF6497659626
:101440009FAF659766969FAF669767969FAF6797C2
:1014500068963FAF689769964FAF69976B962FAFC5
:101460006B976D967FAF6EAF6D97A1964FAFA197BB
:10147000A2968FAFA297A3969FAFA397A4969FAF74
:10148000A497A5965FAFA59792819B839B879F5F4B
:101490009A8F9D8F83812C968FAF2C978F5F80685A
:1014A0006A968FAF6A9744E650E0BE016F5F7F4F48
:1014B00080E00E947109CC59DF4F0FB6F894DEBF6F
:1014C0000FBECDBFDF91CF911F910F9108956F9205
:1014D0007F928F929F92AF92BF92CF92DF92EF92C4
:1014E000FF920F931F93CF93DF93E82E8B016A0136
:1014F00080919503882309F47FC080918E0380FF3B
:1015000005C08091E00082608093E000CC2DDD2D4D
:10151000F12C8AEFB82E2E2D2770922E90E4892E72
:101520008E2D8072782E2E2D2074622E2AE3A22E0C
:10153000209719F4FF2009F463C09FB7F8949092A4
:10154000E9008091E80085FD0CC09FBFBA94BB20E4
:1015500009F452C061E070E080E090E00E94F9047C
:10156000E7CF8091F200282D281B822F9FBF2223D6
:1015700069F32C171D0611F00CF08C2F9FB7F8940F
:101580009092E9002091E80025FD02C09FBFD0CFD6
:10159000282F30E0C21BD30B772029F08150A0F018
:1015A0001092F100FBCFF801E7FC0AC0815050F027
:1015B00041914093F100FACF44914093F10031966C
:1015C0008150D0F7020F131FFF2021F0A092E800F6
:1015D000F12CDCCF8091E80085FD07C0A092E800E7
:1015E000FF24F394209791F2F3CF209779F66620A9
:1015F00069F2A092E800CACFCC24CA94DD24DA9420
:10160000C601DF91CF911F910F91FF90EF90DF9076
:10161000CF90BF90AF909F908F907F906F900895E4
:10162000CF93DF9300D000D0CDB7DEB76150F894F0
:10163000E82FF0E094E0F595E7959A95E1F7E983D6
:101640006F70862B8A834F774B832F772C83809103
:10165000AD0444E050E0BE016F5F7F4F8F5F0E949A
:10166000670A8091AD048F5F8093E9008091F2005A
:10167000882319F08AE38093E80078940F900F9004
:101680000F900F90DF91CF9108954F925F926F92DC
:101690007F928F929F92AF92BF92CF92DF92EF9202
:1016A000FF920F931F93CF93DF93C0912E05D0E04D
:1016B000CE01880F991FFC01E45CFE4F208131812F
:1016C00030930C0120930B01FE01E45AFC4F208162
:1016D00020930E05FE01E359FE4F208120930D0556
:1016E000FE01E65FFD4FA080A0923B05FE01E256A1
:1016F000FB4FB08021E0B11001C020E020935B03DC
:10170000FC01EF55FB4FE080F180F0925A03E0922C
:101710005903FE01EA58FE4F508050920A01805949
:101720009E4FDC010D911C9110930901009308015B
:10173000FE01E658FE4F808180930502FE01EB5BBF
:10174000FE4FC080C0920902FE01EE5BFE4F608139
:10175000609304028DE08C9FF0018D9FF00D1124A9
:10176000EF55FD4F80819CE09C9FF0019D9FF00D07
:101770001124E85BFE4FB6E08B9FE00DF11D1124B4
:10178000D080D092070181818093FE018281809375
:10179000F70183818093F601848190E09093FB01AF
:1017A0008093FA01858190E09093F9018093F8018C
:1017B00080E090E290930601809305011092580317
:1017C0001092570320E440E080EE0E94100BE8ECFA
:1017D000F2E0A0E3B5E0119211921D9222E0EA3D01
:1017E000F207C9F78DE08C9FF0018D9FF00D112459
:1017F000EF55FD4F8481882309F440C142E0A416CF
:1018000009F43CC181E0809356038DE08C9FF00188
:101810008D9FF00D1124EF55FD4F8781882309F42A
:1018200030C18FE780930302B1102DC180919303E3
:10183000909194030396909300028093FF01A4E09B
:10184000DA9EC00111242091FF0130910002820F25
:10185000931F90930202809301022C2D30E08FEFB2
:101860009FE3B9010E94E02C7B0183E0EE0CFF1C9A
:101870008A95E1F7C801B9010E94CC2C6B013B01AC
:1018800094E0660C771C9A95E1F70AEE14E044E4C4
:10189000842E43E0942E52E3A52E53E0B52E8EEC19
:1018A0009FEFFC01E519F1092F01D801ED91FD91A0
:1018B0008D01E40DF51DC701BF010E94CC2C76956A
:1018C0006795D4016D937D934D01C301BF010E94C3
:1018D000CC2C76956795F501619371935F01F4E0E7
:1018E0000C3F1F0711F7D0923103C092300380E004
:1018F00090E2B9010E94E02C70930401609303010F
:1019000081E38C9FF0018D9FF00D1124E35FFD4F6B
:10191000268189E0289F900111243093160120939D
:1019200015012781289F90011124309318012093DD
:1019300017012589289F9001112430931E012093BF
:101940001D012689289F90011124309320012093A6
:101950001F01218D289F900111243093260120938F
:101960002501228D289F9001112430932801209376
:101970002701258D289F9001112430932E0120935B
:101980002D01968D989FC001112490933001809372
:101990002F0105E111E033E6C32E33E0D32E45E3FA
:1019A000A42E41E0B42E412C512C50E1652E712C17
:1019B000D801ED90FC90119712962D913C912E1923
:1019C0003F0950E040E0C301B2010E94EE2BF60156
:1019D00021933193419351936F01D7010E940D2CB4
:1019E0002AE096958795779567952A95D1F7D8013E
:1019F00015967C936E931497085F1F4FA016B1063F
:101A0000B9F681E38C9FF0018D9FF00D1124E35F07
:101A1000FD4F808580930D01818580930E0187891C
:101A200080930F01808D80931001838D809311012D
:101A3000848D80931201878D8093130180A1809300
:101A40001401838180935F0381A18093600382A14D
:101A50008093610383A180936203DF91CF911F91F3
:101A60000F91FF90EF90DF90CF90BF90AF909F903D
:101A70008F907F906F905F904F90089510925603D3
:101A8000C4CE80E4CFCE53E0E50EF11CF09200020C
:101A9000E092FF01D4CE10920F05E0912E0581E374
:101AA000E89FF0011124E35FFD4F8685813051F0FE
:101AB00018F0823061F0089521894089678580E9B6
:101AC0000C94100B21894089678580E8F9CF218922
:101AD0004089678580EBF4CF81E080930F05E0912A
:101AE0002E0581E3E89FF0011124E35FFD4F82851D
:101AF000813051F018F0823061F0089525854485D9
:101B0000638580E90C94100B25854485638580E806
:101B1000F9CF25854485638580EBF4CFE0912E05D0
:101B2000F0E0E65FFD4F80818F5F843099F0808325
:101B30000E94450B20913B0581E0820F8093DE02DD
:101B400080911C05882341F02A5B46E667E080EB24
:101B50000C94100B1082ECCF0895EF92FF920F932C
:101B60001F93CF93DF9324E14EE667E080EB0E9462
:101B7000100B06E012E02DE6E22E21E0F22ECEE17F
:101B80002C2F46E667E080EB0E94100BF8012191B4
:101B90008F012F5D46E667E080EB0E94100BF70196
:101BA00021917F0141E54C0F27FD7CC167E080EB6F
:101BB0000E94100BCF5FC13219F7C0912E052CE3A4
:101BC0002C0F46E667E080EB0E94100B2091A804E2
:101BD0002B5A46E667E080EB0E94100B20910A0129
:101BE00047E667E080EB0E94100B209108013091DE
:101BF0000901A4E6B0E00E94422C2FEF3FE140E053
:101C000050E00E94202C45E767E080EB0E94100B1B
:101C100020913B052A5B46E667E080EB0E94100BB3
:101C200020910502205B46E667E080EB0E94100BE6
:101C300020911605285846E667E080EB0E94100BBD
:101C400020915B03295D4AE667E080EB0E94100B60
:101C500022E248E667E080EB0E94100B00915903F6
:101C600010915A03202F2F7749E667E080EB0E94FE
:101C7000100B23E248E667E080EB0E94100B98010E
:101C8000220F232F221F330B49E667E080EB0E94CF
:101C9000100B2DE348E667E080EB0E94100B2091CB
:101CA000090249E667E080EB0E94100B2EE348E64C
:101CB00067E080EB0E94100B2091040249E667E088
:101CC00080EB0E94100B10E000E0EC2EF12CEE0CEB
:101CD000FF1C9701245C3E4F7901DAE0F701808117
:101CE0009181002E02C0969587950A94E2F7817043
:101CF00024E1200F8D9F200D11244AE667E080EB40
:101D00000E94100B0F5F1F4F0930110539F7F8E2E1
:101D1000CF9F8001112403581E4FDAE52D2F46E690
:101D200067E080EB0E94100BF801F08024E62F0D95
:101D300046E667E080EB0E94100BF1E0FF121DC049
:101D4000F8012181205946E667E080EB0E94100BE4
:101D5000F80122814AE667E080EB0E94100BF8014F
:101D600023814BE667E080EB0E94100BF801248191
:101D70004CE667E080EB0E94100BDF5F0B5F1F4FAC
:101D8000D23661F6FDE0CF9F7001112410E000E033
:101D900028E2200F48E667E080EB0E94100BF80174
:101DA000EE0DFF1DEF55FD4F208149E667E080EB0A
:101DB0000E94100B0F5F1F4F0D30110549F721E3F3
:101DC000C29FC0011124FC01E35FFD4F7F0110E0C1
:101DD00000E02DE0200F48E667E080EB0E94100B4A
:101DE000F701E00FF11F208149E667E080EB0E94D8
:101DF000100B0F5F1F4F0531110559F705E110E07A
:101E000021E3200F48E667E080EB0E94100BF7010A
:101E1000E00FF11F208149E667E080EB0E94100B84
:101E20000F5F1F4F0133110559F7F3E0CF9F80017A
:101E3000112405531B4FDAE52D2F46E667E080EBB2
:101E40000E94100BF80121918F012B5846E667E0A4
:101E500080EB0E94100BDF5FDD3571F7FCE0CF9F58
:101E6000E001112410E000E021E0200F48E667E0E7
:101E700080EB0E94100BFE01E00FF11FE85BFE4FAC
:101E8000208149E667E080EB0E94100B0F5F1F4F37
:101E90000C30110549F7DF91CF911F910F91FF9001
:101EA000EF900895215882CE80912E058F5F833068
:101EB00089F080932E05109211050E94450B8091A8
:101EC0002E058F5F8093DE0280911C05882329F008
:101ED0000C94AD0D10922E05EECF0895CF93DF93A5
:101EE000E8ECF2E030E020E081919191280F391F79
:101EF00082E0EA3DF807C1F730930601209305011F
:101F000060911405662331F1E0912E05F0E0E65F63
:101F1000FD4F80818330F1F48091130590E0409172
:101F20001205841B910947FD93954091DA02841BA9
:101F30009109E0910301F09104018E9FA0018F9F10
:101F4000500D9E9F500D1124240F351F3093060114
:101F500020930501209105013091060180E090E277
:101F6000821B930B2091570330915803820F931FCC
:101F700097FF24C01092060110920501C09105013F
:101F8000D091060180910101909102018C179D076B
:101F900091F0662381F09E01220F232F221F330B25
:101FA0004C2F4F776091040280EE0E94100BD0936B
:101FB0000201C0930101DF91CF910895811520E4C2
:101FC00092072CF49093060180930501D7CF8FEFF1
:101FD0009FE3F8CF2F923F924F925F926F927F9242
:101FE0008F929F92AF92BF92CF92DF92EF92FF9229
:101FF0000F931F93CF93DF9300D000D000D0CDB7C5
:10200000DEB7E0912E050E2F10E041E3E49FF001D2
:102010001124E35FFD4F8081882309F47FC08DE0A8
:10202000809FD001819FB00D1124AF55BD4F1196F7
:102030008C911197811172C01A968C91882309F4A2
:102040003CC180910502813009F437C124A199E097
:10205000299F900111242C593F4F85A1899FC001D0
:1020600011248C599F4FBC01621B730B75956795AA
:10207000620F731F40912D05433019F4680F791FCB
:102080009C0180911D0590911E0541E3409FF00148
:10209000419FF00D1124E35FFD4F4181E42FF0E0FB
:1020A0008617970708F012C1DB01A81BB90B84E162
:1020B000489FF0011124AE9FC001AF9F900DBE9FBD
:1020C000900D1124621B730B0E94CC2C669FB001F3
:1020D000112483E0759567958A95E1F7719561956F
:1020E0007109709358036093570398EC499FA001BE
:1020F000112420915703309158034217530724F4B9
:10210000509358034093570380913B05823031F43C
:1021100010920601109205010E946E0FA0913B05DE
:10212000AC83809156038111EFC0A23009F49BC2A9
:10213000AA2311F0A33011F40E947B06A0900A019B
:10214000B12C2091390530913A0560900B017090C7
:102150000C01B091FC04B98340903E0550903F05BE
:102160002090300330903103E2E5F5E090E080E02C
:10217000C12CD12C7601C394A82FA901082E02C02E
:10218000569547950A94E2F740FF13C0408151816C
:102190004A155B0574F4B701A601082E04C0440F6C
:1021A000551F661F771F0A94D2F740955095242338
:1021B0003523A3010A2E02C0569547950A94E2F7EB
:1021C00040FF57C0A9010A2E02C0569547950A94B0
:1021D000E2F740FD4EC00C81013021F01981181743
:1021E00009F447C080809180A20102C056954795AE
:1021F000AA95E2F741705527BC01605D7A4F7E8356
:102200006D83A814B9040CF06FC04115510519F580
:10221000BC01660F771FDB01A853BD4FBB83AA83A8
:102220006E5C7C4F8A189B08DB010D911C91809E8F
:10223000B001819E700D909E700D1124B3E07695D3
:102240006795BA95E1F7AA81BB816D937C9301E014
:10225000AD81BE810C93AD81BE816C91613049F43A
:10226000452B39F0DC01AA0FBB1FA853BD4F2D929F
:102270003C92019632968930910509F07DCF3093DA
:102280003A052093390526960FB6F894DEBF0FBEA7
:10229000CDBFDF91CF911F910F91FF90EF90DF9015
:1022A000CF90BF90AF909F908F907F906F905F90F6
:1022B0004F903F902F900C946E0F2091FF01309122
:1022C00000028091FC019091FD01CDCE861B970B01
:1022D0008E9F90018F9F300D9E9F300D1124309363
:1022E00058032093570301CFAD81BE811C92411545
:1022F000510509F4BECFBC01660F771F68537D4FAF
:10230000DB011D921C92A7CF1092CD021092CC023D
:102310001092CF021092CE02BC81BB2311F0B330D9
:1023200011F40E947B06F801EA5FFD4F80819EEF69
:10233000980F923008F4E5C090912E039130D1F4BB
:1023400080913003909131032091FC04223049F0B8
:102350009093CD028093CC021092CF021092CE02C5
:1023600092CF9093CF028093CE021092CD02109222
:10237000CC0289CF923009F086CF982F9B7F09F04D
:1023800061C040910A0150E000913E0510913F0567
:10239000F090FC04E6E5F5E0FB83EA83E8ECF2E08C
:1023A00022E030E0AA81BB818D919D91BB83AA83FD
:1023B000481759070CF041C0B801022E02C07695AB
:1023C00067950A94E2F760FD38C0F216B1F1D901C1
:1023D000AA0FBB1FAE5CBC4F841B950B0D90BC912C
:1023E000A02D8A9FB0018B9F700D9A9F700D1124B4
:1023F000A3E076956795AA95E1F775836483329695
:1024000023303105B9F420913003309131038091AC
:10241000CC029091CD024091CE025091CF02840F18
:10242000951F281739070CF02ECF3093CD0220933B
:10243000CC0292CF23E030E0B5CFF21601F3158243
:102440001482DDCF813019F08A3009F01CCF409121
:102450003E0550913F0550FD29C043FD7DCF2091A1
:1024600058053091590540910A0150E080913003A0
:102470009091310342175307A4F4241B350B60914C
:10248000380370913903269FA001279F500D369F76
:10249000500D112463E0569547956A95E1F7841B2A
:1024A000950B9093CF028093CE02EDCE20915805EC
:1024B0003091590580910A0190E082179307D4F476
:1024C00043FD4ACF4091FC04433009F4DCCE281B85
:1024D000390B4091380350913903249FC001259F47
:1024E000900D349F900D112453E0969587955A9541
:1024F000E1F7D7CF281739070CF42ECF43FFC3CE0F
:102500002BCF08EC12E0E2E0F0E0FB83EA83812CC1
:10251000912C54018394F090FC0460913E057091DD
:102520003F058A81F81202C070FD5EC02A81AB01AE
:10253000022E02C0569547950A94E2F740FD8DC0E1
:102540003091DB023323B9F0D501C40104C0880FF8
:10255000991FAA1FBB1F2A95D2F7862B972B909302
:102560003F0580933E050E94D50690932D038093EE
:102570002C031092DB022091DA0280912C039091BF
:102580002D032817190681F5EA81FB81EE0FFF1F45
:10259000DF01AE5ABA4F8D919C9120910A01281704
:1025A00019060CF04FC0DF01A651BB4F2D913C9195
:1025B00022533109281B390BEE5CFC4F40815181BD
:1025C000249FC001259F900D349F900D112423E07E
:1025D000969587952A95E1F7919581959109D8016E
:1025E00015969C938E9314970E5F1F4FEA81FB8183
:1025F000339719F520913003309131038091CC024B
:102600009091CD024091CE025091CF02840F951F40
:10261000919581959109281739070CF034CE8EEFEA
:102620008F0D823030F480913E0590913F0590FDF2
:102630002ACE319521953109F8CE63E070E07B8395
:102640006A8369CF80913003909131039195819590
:102650009109F80195838483C7CFD80115961C9200
:102660001E921497C1CF26960FB6F894DEBF0FBE08
:10267000CDBFDF91CF911F910F91FF90EF90DF9031
:10268000CF90BF90AF909F908F907F906F905F9012
:102690004F903F902F900895CF93DF9300D000D0BC
:1026A000CDB7DEB76150F894282F30E094E035952F
:1026B00027959A95E1F729836F70862B8A834F7748
:1026C0004B831C828091AD0444E050E0BE016F5FFB
:1026D0007F4F8F5F0E94670A8091AD048F5F809368
:1026E000E9008091F200882319F08AE38093E800E2
:1026F00078940F900F900F900F90DF91CF910895E5
:10270000EF92FF921F93CF93DF93182FE0912E0546
:10271000CE2FD0E081E3E89FF0011124E35FFD4F6D
:1027200082818130F9F4E0901B01F0901C018091CE
:10273000770390917803E816F90611F4112391F0CC
:1027400081E38C9FF0018D9FF00D1124E35FFD4F1D
:102750002E2D4581648180EB0E94100BF09278034E
:10276000E09277038DE08C9FF0018D9FF00D112496
:10277000EF55FD4FF680F0FE24C0809114058111C5
:1027800009C080911D0590911E05D0E0C0E08536FE
:10279000910524F0C0912B01D0912C0180917503FB
:1027A000909176038C179D0711F4112351F04C2F53
:1027B0006091040280ED0E944C13D0937603C09385
:1027C0007503F1FE1EC0809114058823D1F020917D
:1027D0003301C22F80913401D82F809173039091DF
:1027E00074038C179D0711F4112359F040911305C0
:1027F0006091040280EA0E94100BD0937403C0938E
:102800007303DF91CF911F91FF90EF900895CF93C5
:10281000DF93E0912E05A82FB0E02E2F30E098E254
:10282000E99FF001112495E0899FE00DF11D11242D
:10283000E358FE4FE081E150E33108F039C0F0E0A9
:10284000EC5DFB4E0C94F42C37149A149E14A214D5
:10285000A914C614D914E614031512152215581418
:10286000581458145814581458145814341585E032
:102870008A9FF0018B9FF00D112448E2429FC00116
:10288000439F900D1124E80FF91FE358FE4F8181FB
:10289000811116C0248143816281ED01C454DB4F54
:1028A0008881811108C080E90E94100B81E0888333
:1028B000DF91CF91089580E80E94100B1882F8CF25
:1028C000813041F424814381628180EBDF91CF919B
:1028D0000C94100B823009F0CBC04381628180ECF4
:1028E000DF91CF910C944C1380912F038F3720F4FC
:1028F0008F5F80932F0302C010922F0385E08A9F81
:10290000F0018B9FF00D112448E2429FC001439FCC
:10291000900D1124E80FF91FE358FE4F40912F034B
:10292000628180EC0E944C1381E08093DE02C0CF74
:102930008FE7DFCFDF91CF910C948E0DDF91CF9198
:102940000C94540F8091110591E089278093110513
:10295000AFCFC901880F991F280F391F25533B4F4F
:10296000A20FB31F8C9181110DC00E946C06809143
:102970000E05082E000C990B97FFD7CF91958195E6
:102980009109D3CFDF91CF910C945D06C901880FD7
:10299000991F280F391F25533B4FA20FB31F8C914E
:1029A000811103C00E945D06E2CFDF91CF910C94AC
:1029B0006C06C1E020E04BE76C2F80EB0E94100B0F
:1029C00010920F05CF5FC131A9F772CFF901E65818
:1029D000FE4F80818F5F8430A1F080830E94450B81
:1029E000109211052091050281E0820F8093DE0292
:1029F00080911C05882309F45BCF205B46E667E0E5
:102A000064CF1082EBCF81E08093DE0280910F05CE
:102A1000811104C0DF91CF910C946C0DDF91CF91A7
:102A20000C944B0D40910D05C901880F991F280F7B
:102A3000391F25533B4FA20FB31F8C91811110C03A
:102A40004F5F0FC040910D05C901880F991F280FD6
:102A5000391F25533B4FA20FB31F8C918111F0CF2B
:102A6000415040930D0524CF81E08093760520CF1F
:102A7000833009F439CF843009F01ACF80912F03C5
:102A8000882309F455CF815034CF84E0ECE0F3E0A3
:102A9000DB0101900D928A95E1F784E008951F9380
:102AA000CF93DF93EC01162F0E94D82B181739F023
:102AB000612FCE01DF91CF911F910C94E02BDF911C
:102AC000CF911F9108957F928F929F92AF92BF9264
:102AD000CF92DF92EF92FF920F931F93CF93DF93EA
:102AE000C82F082F10E0E0912E05F0E0EA5FFD4FBF
:102AF0006081C80188960E944F15E0912E05F0E094
:102B0000E359FE4F6081C801C5960E944F15E091C0
:102B10002E05F0E0EA58FE4F6081C801C2960E947F
:102B20004F158DE0C89F60011124F12CE12CDDE0F0
:102B300088E3C80ED11C80912E05F701D89FE00DC7
:102B4000F11D1124EF55FD4F6081C6018E0D9F1DB3
:102B50000E944F158FEFE81AF80A8DE0E816F1048D
:102B600051F77801EE0CFF1CE0912E05F0E0EE0F1E
:102B7000FF1FE45CFE4F6081C701835B9E4F0E9494
:102B80004F15E0912E05F0E0EE0FFF1FE45CFE4FC5
:102B90006181C701825B9E4F0E944F15E0912E0517
:102BA000F0E0EE0FFF1FE059FE4F6081C7018D5A24
:102BB0009E4F0E944F15E0912E05F0E0EE0FFF1F93
:102BC000E059FE4F6181C7018C5A9E4F0E944F15FC
:102BD000E0912E05F0E0E256FB4F6081C801875A74
:102BE0009E4F0E944F1582E3C89F6001112484E626
:102BF000C80ED11C912C812CD5E0B8E27B2EB12CD3
:102C0000A12C80912E05DA9DF001DB9DF00D1124A1
:102C1000789EE00DF11D1124E358FE4FE80DF91DDB
:102C20006081C5018C0D9D1D0E944F158FEFA81A64
:102C3000B80A88E0A816B10421F78FEF881A980A1D
:102C40008AE0C80ED11C85E088169104C1F683E0A5
:102C5000C89F50011124D12CC12C8AEFA80EB11CA1
:102C6000E0912E058E2F90E0FC01EE0FFF1FE80F84
:102C7000F91FE553FB4FEC0DFD1D6081C5018C0D67
:102C80009D1D0E944F158FEFC81AD80A83E0C81601
:102C9000D10431F784E1C89F50011124D12CC12CFB
:102CA000DCE08CEFA81A8EEFB80A80912E05F601B1
:102CB000D89FE00DF11D1124E85BFE4F6081C50136
:102CC0008C0D9D1D0E944F158FEFC81AD80A8CE0FD
:102CD000C816D10451F7E0912E05F0E0EE0FFF1F6A
:102CE000EF55FB4F6081C7018F5E9E4F0E944F15CD
:102CF000E0912E05F0E0EE0FFF1FEF55FB4F6181D5
:102D0000C7018E5E9E4F0E944F15E0912E05F0E0A8
:102D1000E65FFD4F6081C801875C9E4F0E944F15A2
:102D2000E0912E05F0E0E658FE4F6081C801845C1A
:102D30009E4F0E944F15E0912E05F0E0EB5BFE4F99
:102D40006081C801815C9E4F0E944F15E0912E0565
:102D5000F0E0EE5BFE4F6081C8018E5B9E4F0E94EB
:102D60004F1581E3C89FE001112410E000E021E34A
:102D7000F22EC15ADE4F80912E05F801F89EE00D2B
:102D8000F11D1124E35FFD4F6081CE01800F911F83
:102D90000E944F150F5F1F4F0133110561F7DF913F
:102DA000CF911F910F91FF90EF90DF90CF90BF9048
:102DB000AF909F908F907F900895CF92DF92EF9287
:102DC000FF920F931F93CF93DF930AEE14E080E4FA
:102DD000C82E85E0D82E91EDE92E92E0F92EC2E1C1
:102DE000D0E0F80161810E5F1F4FCE010E944F15A8
:102DF000F80132976081CE0101960E944F15F601CD
:102E00006081F2E0CF0ED11CC7010E944F152296BF
:102E10008FEFE81AF80AC432D10519F71092760537
:102E200063E085E290E00E944F15EEEBF8E025911B
:102E300034919FB7F894F901FF272081832F809563
:102E4000822380839FBF1092E904DF91CF911F916D
:102E50000F91FF90EF90DF90CF9008950C94D82BB6
:102E60002F923F924F925F926F927F928F929F929A
:102E7000AF92BF92CF92DF92EF92FF920F931F9388
:102E8000CF93DF93CDB7DEB766970FB6F894DEBF6A
:102E90000FBECDBF80E390E00E942E178093A80460
:102EA00086E791E09C878B87EDE0F2E0FA83E98387
:102EB00082E491E09E878D87E5E4F1E0F88BEF876F
:102EC00081EA94E09A8B898BE8E4F1E0FE83ED835C
:102ED0008DE791E098878F83E1EAF2E0FA87E9874E
:102EE000B12CA12C512C412C712C612C1C821B82E9
:102EF00010E000E0312C212C1E8A1D8A8D899E89CC
:102F0000C2960E942E17EB85FC858193FC87EB8788
:102F1000D12CC12C7501F8E3EF0EF11CC7018C0D0B
:102F20009D1D0E942E17E985FA85EC0DFD1D8083FD
:102F30008FEFC81AD80A9DE0C916D10479F7C801E5
:102F4000835B9E4F0E942E17F82EC801825B9E4F16
:102F50000E942E17F801E45CFE4F982F8F2D91836D
:102F60008083C8018D5A9E4F0E942E17F82EC801EB
:102F70008C5A9E4F0E942E17F801E059FE4F982F51
:102F80008F2D918380838D899E89875A9E4F0E94C1
:102F90002E17ED89FE89E256FB4F80836201E4E63D
:102FA000CE0ED11CC2018A569F4F9C8B8B8B8F807B
:102FB0009884F12CE12CC7018C0D9D1D0E942E17C9
:102FC00095E09E9DF0019F9DF00D1124E80DF91DE7
:102FD0008083EFEFEE1AFE0AF8E0EF16F10459F7DE
:102FE0008AE0C80ED11C9FEF891A990AEB89FC89E7
:102FF000CE16DF06F1F67301FAEFEF0EF11CC301F6
:1030000085539B4F4C0163019DEFC90ED11CC70135
:103010000E942E1791E0811101C090E0F40191937C
:103020004F01FFEFEF1AFF0AEC14FD0481F7D12CDA
:10303000C12CEB80FC808CEFE81A8EEFF80AC701F8
:103040008C0D9D1D0E942E17ED81FE81EC0DFD1D46
:1030500080839FEFC91AD90AECE0CE16D10479F724
:10306000C8018F5E9E4F0E942E17F82EC8018E5EFB
:103070009E4F0E942E17982F8F2DE989FA898193F0
:103080009193FA8BE98B8D899E89875C9E4F0E9474
:103090002E17ED89FE89E65FFD4F80838D899E891D
:1030A000845C9E4F0E942E17ED89FE89E658FE4FE4
:1030B00080838D899E89815C9E4F0E942E17813668
:1030C00008F082E0EF85F8898193F88BEF878D898E
:1030D0009E898E5B9E4F0E942E17813108F081E001
:1030E000ED85FE858193FE87ED87D12CC12C710182
:1030F000F1EAEF1AFEEFFF0AC7018C0D9D1D0E9439
:103100002E17E981FA81EC0DFD1D80838FEFC81A1F
:10311000D80A91E3C916D10479F7ED89FE89319671
:10312000FE8BED8BF1E32F0E311C89819A81C196C4
:103130009A8389830E5F1F4FEB81FC817496FC8319
:10314000EB838D819E810C969E838D8393E0690E27
:10315000711CE2E34E0E511C8F81988588969887EA
:103160008F839DE0A90EB11CE985FA853D96FA870B
:10317000E9878D899E89039709F0C0CE66960FB6C0
:10318000F894DEBF0FBECDBFDF91CF911F910F919D
:10319000FF90EF90DF90CF90BF90AF909F908F9077
:1031A0007F906F905F904F903F902F900895CF92B7
:1031B000DF92EF92FF920F931F93CF93DF9386E0FE
:1031C000E82E82E0F82E9DE6C92E91E0D92EC8E2C5
:1031D000D0E0CE010E942E17082FF70181937F01C6
:1031E000CE010D960E942E17182FF60181936F01C4
:1031F00080911C058823C9F02C2F2A5046E667E0F1
:1032000080EB0E94100B21E2200F46E667E080EB86
:103210000E94100B4C2F495B212F17FF02C02FE794
:10322000210F67E080EB0E94100B2196CB32D10575
:1032300081F6DF91CF911F910F91FF90EF90DF907A
:10324000CF9008951F920F920FB60F9211242F93D3
:103250003F938F939F93AF93BF9380917A03909105
:103260007B03A0917C03B0917D033091790326E02C
:10327000230F2D3758F50296A11DB11D2093790318
:1032800080937A0390937B03A0937C03B0937D0398
:1032900080917E0390917F03A0918003B091810380
:1032A0000196A11DB11D80937E0390937F03A0938F
:1032B0008003B0938103BF91AF919F918F913F9114
:1032C0002F910F900FBE0F901F90189529E8230F94
:1032D0000396A11DB11DD2CF1F920F920FB60F9270
:1032E00011242F933F934F935F936F937F938F930B
:1032F0009F93AF93BF93EF93FF93E0919003F0916F
:1033000091030995FF91EF91BF91AF919F918F919B
:103310007F916F915F914F913F912F910F900FBED1
:103320000F901F9018951F920F920FB60F921124B5
:103330002F933F934F935F936F937F938F939F93BD
:10334000AF93BF93EF93FF9380912A0328E08823E4
:1033500019F020912A03215080912A0390912A0389
:103360008F5F983009F480E090912A03993029F515
:10337000599880917800909179002091280330919C
:103380002903821B930B909375058093740580919C
:103390009203806180938100FF91EF91BF91AF9183
:1033A0009F918F917F916F915F914F913F912F915D
:1033B0000F900FBE0F901F9018953091000190E074
:1033C000332309F450C030912A03311129C02091D0
:1033D00078003091790030930C0520930B0521E0A3
:1033E00020932F0581529D4FFC0180810E94290668
:1033F0001092000180912A03882371F2E0912A0340
:10340000F0E0EE0FFF1FEC50FD4F808191812FB750
:10341000F894FC01FF278081892B80832FBFBCCFCC
:1034200030E0220F331FF901EC50FD4F60817181B4
:103430005FB7F894FB01FF276081472F4095462333
:1034400040835FBF4091780050917900F901E85EB8
:10345000FC4F60817181461B570B2C593A4FF90183
:1034600051834083BFCF2091780030917900880F3D
:10347000991FFC01E85EFC4F31832083E0912A0311
:10348000F0E0E152FD4F80810E94290681E08093A7
:10349000000180912A038F5F80932A037DCF1F92C2
:1034A0000F920FB60F9211248F939F938091E1009A
:1034B0009091E100937F9093E10083FF0FC0109201
:1034C000E90091E09093EB001092EC0092E390936E
:1034D000ED001092950398E09093F00082FF0AC0EF
:1034E00093E09093E9009091F200992319F09AE308
:1034F0009093E80084FF18C08091E2008E7E816086
:103500008093E2008091E1008F7E8093E1008091C2
:103510008E038E7E806180938E039F918F910F909A
:103520000FBE0F901F90189580FFF7CF8091E2009B
:103530008E7E80618093E2008091E1008E7E809398
:10354000E10080918E038E7E8160E5CF1F920F9205
:103550000FB60F921124CF92DF92EF92FF920F934A
:103560001F932F933F934F935F936F937F938F930B
:103570009F93AF93BF93EF93FF93CF93DF93CDB719
:10358000DEB76C97DEBFCDBF1092E9008091E800F6
:1035900083FF2CC089E0FE017596EE2EDF2E815050
:1035A00029F09091F10090833196F9CF82EF8093CA
:1035B000E8008D8987FF39C09091E80090FFFCCF2B
:1035C000982F907609F033C19E894F89588D2F89A5
:1035D000F88C911131C0803861F580918F03809310
:1035E000F1001092F1008EEF8093E8006C960FB618
:1035F000F894DEBF0FBECDBFDF91CF91FF91EF9169
:10360000BF91AF919F918F917F916F915F914F91FA
:103610003F912F911F910F91FF90EF90DF90CF90EE
:103620000F900FBE0F901F9018959EEF9093E8009B
:10363000C7CF1092F100D5CF913059F48111D3CF7B
:103640004130510581F680918F038D7F80938F03E8
:10365000CACF933049F48111C6CF4130510519F6D4
:1036600080918F038260F2CF953041F48091E80021
:1036700080FFFCCF20682093E300B5CF963009F09F
:10368000A8C00B8D1C8D82E01092E90010921703E8
:1036900010921603F8122EC0109215031092140304
:1036A0000E94E7081F8299E09983FA8291E09E8345
:1036B00090EA98879AEF9987209116033091170323
:1036C000275F3F4F3C832B838D831092E90010923C
:1036D000170310921603109315030093140349E087
:1036E00050E0BE016F5F7F4F80E00E9471090E9431
:1036F000E70879CF10931503009314030E94C004C8
:10370000DC0112960D911C910115110509F4BAC046
:10371000D801ED91FC910480F581E02D6E2D7D2D79
:10372000C8010995009709F0A8C0F8010085118526
:10373000EBCFF3E0FF120EC08F89882309F440C05D
:10374000823061F440E866E18DED90E00E943E0930
:10375000811149CF81E28093EB0048CF813029F479
:1037600040E86AE182EC90E0F1CF833099F70E9463
:10377000C004DC011296ED90FC908E010F5F1F4F8C
:103780006801E114F10479F0D701ED91FC91068014
:10379000F781E02DB801C7010995080F111DF70148
:1037A000E084F184EECFD8011C92F6010190002054
:1037B000E9F73197BF016C197D0940E0C601C6CF1A
:1037C0006CEA70E0FB01449150E080E80E947109CE
:1037D0000ACF973009F4BECF983021F481E080936E
:1037E000F10001CF993009F0FECE837009F0B2CF1D
:1037F000E6E3F1E081E031E096E32191222371F0EC
:103800008093E9003093EB00DF0111972C91209316
:10381000EC009093ED008F5F873079F78EE780930F
:10382000EA001092EA008F8980939503DCCE8B8D9D
:103830009C8D1092E900109217031092160390933A
:103840001503809314030E94C004DC0112960D91AD
:103850001C910115110509F47DCFD801ED91FC9162
:103860000190F081E02D6E2D7D2DC801099581110B
:10387000BACEF80100851185ECCF181619060CF4A4
:10388000B2CE68CFF1E0FF1254CF60EB70E09ACF78
:10389000CF93DF93CDB7DEB762970FB6F894DEBF54
:1038A0000FBECDBF789484B5826084BD84B581603D
:1038B00084BD85B5826085BD85B5816085BD8091FB
:1038C0006E00816080936E00109281008091810073
:1038D000826080938100809181008160809381006B
:1038E000809180008160809380008091910082604F
:1038F00080939100809191008160809391008091EC
:1039000090008160809390008091C10084608093DA
:10391000C1008091C10082608093C1008091C1008C
:1039200081608093C1008091C30081608093C30057
:103930008091C00082608093C0008091C20081604D
:103940008093C20080917A00846080937A00809195
:103950007A00826080937A0080917A008E7F8093D3
:103960007A0080917A00806880937A0010929503A3
:1039700010928F0310928E038091D7008160809304
:10398000D70080EA8093D80089B58F7E89BD89B53C
:10399000826089BD09B400FEFDCF61E070E080E087
:1039A00090E00E94F9048091D8008F7C8061809320
:1039B000D8008091E000807F8093E0008091E1005A
:1039C0008E7E8093E1008DE08093E2008FEF809304
:1039D0007E0083EF80937D004EEB242E48E0342E52
:1039E000F101859194912FB7F894FC01FF27829102
:1039F000892B80832FBFE6ECF8E0859194912FB757
:103A0000F894FC01FF27DF013E91892F80958323E5
:103A10008C938081892B80832FBFE4EFF2E081912A
:103A200091912FB7F894DC01BB278E91892B8C9351
:103A30002FBF23E0E630F20791F72198299A2298C8
:103A40002A9A23982B9A8CE290E00E942E178330BA
:103A500039F483EF93E00E942E17843109F441C0BA
:103A600064E183EF93E00E944F1510922E0580E0F1
:103A70000E94631581E080932E050E94631582E009
:103A800080932E050E94631510E000E0C8010E949B
:103A90002E17682FC80142960E944F150F5F1F4FC7
:103AA0000231110599F701ED12E0C8010A960E9452
:103AB0002E17682FC8010E944F150F5F1F4F0B3D37
:103AC00032E0130791F76091A80480E390E00E9430
:103AD0004F1563E08CE290E00E944F1583E08093E5
:103AE000DE0285E290E00E942E17833059F59AEEAF
:103AF000A92E94E0B92E20E4C22E25E0D22E31ED7D
:103B0000E32E32E0F32E02E110E0C8010E942E17EE
:103B1000982EC80101960E942E17992DD5018D93DC
:103B20009D935D01C7010E942E1790E0F6018193DD
:103B300091936F010E5F1F4FFFEFEF1AFF0A0432E0
:103B4000110519F70E94D7180E9430178091A80418
:103B500080932E050E94A1040E94A1040E94A1044A
:103B6000909394038093930390931E0580931D0577
:103B70000E94450B80E1809381001092800091E0CB
:103B80009093920320E931E03093870020938600E0
:103B900021E1209381002AEC38E0309391032093B7
:103BA000900390936F008093810080917A00887FCA
:103BB00080937A0084E880937A0080E480937C008C
:103BC00081E00E94290605E0902E83E1882EF8947A
:103BD0008091960490919704A0919804B0919904D3
:103BE00040919A0450919B0460919C0470919D04B3
:103BF000841B950BA60BB70B8F739927AA27BB279E
:103C0000892B8A2B8B2B09F47FC080919A04909189
:103C10009B04A0919C04B0919D04880F991F880F6C
:103C2000991FFC01EA56FC4F90818181028113812A
:103C3000C0909604D0909704E0909804F090990476
:103C400040919A0450919B0460919C0470919D0452
:103C5000C416D506E606F706C1F040919A045091C5
:103C60009B0460919C0470919D044F5F5F4F6F4F68
:103C70007F4F4F7355276627772740939A045093B9
:103C80009B0460939C0470939D047894992311F491
:103C90000C94AD2A073708F09ACF8F70863009F060
:103CA00096CF81E08093DE02063609F054C2E12E01
:103CB000F12C8FEF810F823108F0B4C010FDA6C047
:103CC000970135952795F901EE0FFF1FE851FB4F3E
:103CD00080819181AC014550510951834083CB973C
:103CE000059708F0ACC12D5E46E667E080EB0E94C8
:103CF000100B1E3709F0B6C181E080931C051092AD
:103D0000DE020E94AD0D96C08091AD042FB7F894ED
:103D100087708093E9009091F2002FBF10E000E0DF
:103D200080E0992309F484CF8091960490919704C0
:103D3000A0919804B09199040196A11DB11D8F73B3
:103D40009927AA27BB2740919A0450919B04609120
:103D50009C0470919D04481759076A077B0709F472
:103D600054CF2091AD043FB7F89427702093E90019
:103D70002091F2003FBF2091AD0430919503332391
:103D800009F443CF5FB7F89427702093E90040917E
:103D9000F200242F30E02530310514F024E030E02B
:103DA000FE013196215020F03091F1003193FACF8D
:103DB000442341F02091F200211104C01BE6A12E02
:103DC000A092E8005FBF443008F41FCF40919604F2
:103DD000509197046091980470919904440F551F75
:103DE000440F551F4A565C4F09811A812B813C8133
:103DF000FA01008311832283338380939604909386
:103E00009704A0939804B093990496CFF701319644
:103E1000EE7FF170E851FB4F80819181059691838F
:103E2000808367CF133109F00AC10E94DD1683E059
:103E30008093DE028FED810F8B3140F4E091A90475
:103E4000F0E0EA5FFD4F80830E94450B9CE3C92EA2
:103E5000D12C80E0BB24B394B80ECE14DF0451F40F
:103E600080932E05109211050E94450B0E94AD0D06
:103E7000B092DE023FEFC31AD30A8B2D833051F785
:103E800086E4A82EB12C8AEB8A0D70902E05C72CE3
:103E9000D12CAE14BF0459F4F601E65FFD4F8083C8
:103EA0000E94450B80913B058F5F8093DE024FEFB0
:103EB000A41AB40A5AE4A516B10429F7B0E5AB2E4A
:103EC000B12CC60186589E4F6C0180EB8A0DAE1452
:103ED000BF0449F4D6018C930E94450B80910502E2
:103EE0008F5F8093DE02BFEFAB1ABB0AE5E5AE162B
:103EF000B10459F7409179018AE590E026EA280F4C
:103F00008E159F0509F4422F019682369105B1F76F
:103F1000409379013091DE0228E2729EF001112473
:103F2000E358FE4F20E042131BC0173711F4808284
:103F300030E084E690E05CE9580F8E159F0511F49F
:103F4000508330E0019680379105A9F750E9580F6A
:103F50008E159F0509F45183019685379105B1F7B8
:103F60002F5F35962830F9F63093DE0253E0759EC8
:103F70009001112425533B4F90E080E051E048131D
:103F80000BC0153709F0B1C0F901E80FF91F108215
:103F9000FC01E454FB4F108201968330910579F7C0
:103FA000153509F0AAC07092A804672D80E390E04F
:103FB0000E944F15EFE6EE2EF12CC02ED12CF1E829
:103FC000BF2EB10EEC14FD0461F4C7018F569109A8
:103FD00083599E4F123308F0E5C0FC0110830E9404
:103FE000450BBFEFEB1AFB0AE2E7EE16F10451F7BF
:103FF000083609F0DAC08FEF810F80936C01409191
:10400000790120912E0558E2259F90011124235813
:104010003E4F90E080E048130DC00A3609F021C2FF
:10402000103140F4989EF001999EF00D1124E20F9A
:10403000F31F128301968830910569F7C8CD1F37A9
:1040400009F057CE1092DE0281E080937605F2CE21
:1040500081E01F3121F0103209F0ECCE82E0809334
:10406000A904E8CE1A3729F01E3191F71092A9045D
:10407000E1CED12CC12C53E0A52EC6010E942E17F3
:10408000B82E20E34AE667E080EB0E94100B2B2D50
:104090002F7747E767E080EB0E94100B21E34AE6A9
:1040A00067E080EB0E94100B2B2D30E0220F232FB6
:1040B000221F330B47E767E080EB0E94100B23E3DE
:1040C0004AE667E080EB0E94100B63E070E080E05E
:1040D00090E00E94F904A092DE02FFEFCF1ADF0AFF
:1040E000C11424E0D20649F6A5CE163709F054CF04
:1040F000F901E80FF91F50834BCF1B3739F4872D97
:104100000E94631583E08093DE0254CF1C3781F454
:1041100080E00E94631581E00E94631582E00E94A6
:1041200063150E94D7180E9430170E94450BEACFF2
:104130001D3709F03FCF6FEF8CE290E00E944F15E2
:1041400088E199E00FB6F894A895809360000FBEBF
:1041500090936000FFCF073649F4E0912E05F0E020
:10416000EA58FE4F10830E94450B24CF053709F013
:1041700021CFE0902E05F12CEE0CFF1CC7018059D9
:104180009E4F7C01212F30E0AFEFBFE10E94422C17
:1041900024E630E040E050E00E94202CD7012D932F
:1041A0003C93E1CFDC01BC921ACF093609F067C01D
:1041B000E0916C0180912E0590E0EC3068F44CE0C9
:1041C000489F9001499F300D1124285B3E4FE20F1C
:1041D000F32FF11D108324C0E13268F441E3489FBE
:1041E0009001499F300D1124235F3D4FE20FF32FC3
:1041F000F11D3C97EFCFE13219F41093A704FFCEE5
:10420000E23289F4880F991FFC01EF55FB4F40E81B
:10421000149F900111248091A704282B31832083BF
:104220000E94450BECCEE53368F44DE0489F9001C9
:10423000499F300D11242F553D4FE20FF32FF11DF3
:10424000B797C8CFEC3329F48B5B9E4FDC011C93EE
:10425000E7CFED3321F48E5B9E4FFC01BBCFE236FE
:1042600008F0CDCE41E3489F9001499F300D1124C5
:10427000235F3D4FE20FF32FF11DF097ABCF0A36CE
:1042800009F0BDCE103108F4BACE8CEE810F893022
:10429000F0F4E0912E05F0E0EE0FFF1FE45CFE4F1E
:1042A000212F2451330BC90121E030E040E050E0E0
:1042B00004C0220F331F441F551F8A95D2F7C9012E
:1042C00020813181822B932B91838083A9CF82EE31
:1042D000810F8930F0F4E0912E05F0E0EE0FFF1F22
:1042E000E45CFE4F412F4E51550BCA0121E030E0F6
:1042F00040E050E004C0220F331F441F551F8A9531
:10430000D2F7C90180959095208131818223932332
:10431000DBCF173239F4E0912E05F0E0E256FB4F87
:1043200010827ECF183241F4E0912E05F0E0E25683
:10433000FB4F81E0808374CF193259F5E0901D0561
:10434000F0901E05E0912E05F0E0EE0FFF1FEF55F7
:10435000FB4FF182E08222E248E667E080EB0E94B8
:10436000100B2E2D2F7749E667E080EB0E94100B93
:1043700023E248E667E080EB0E94100B9701220FD2
:10438000232F221F330B49E667E080EB0E94100BBE
:1043900047CF1A3231F482E0809376051092DE0224
:1043A0002ECE1B32A9F520911D0530911E05E090FF
:1043B0002E0541E3E49E70011124C701835F9D4FE8
:1043C0007C01822F8F77D70153968C935397690185
:1043D000CC0CCD2CCC1CDD085496CC9220E248E6C7
:1043E00067E080EB0E94100BF701238949E667E044
:1043F00080EB0E94100B21E248E667E080EB0E9410
:10440000100B2C2D49E667E080EB0E94100BF7CDD6
:104410001D3209F0F4CDF12CE12CC70142960E9427
:104420002E17682FC7010E944F15FFEFEF1AFF0AE2
:1044300022E1E216F10489F7FBEDEF2EF2E0FF2E08
:10444000C7010A970E942E17682FC7010E944F15B7
:104450003FEFE31AF30A45EEE41642E0F40681F773
:10446000CECD0B3649F4989EF001999EF00D1124A3
:10447000E20FF31F1383DECD0C3609F0DBCD989EDF
:10448000F001999EF00D1124E20FF31F1483D2CD99
:10449000692D70E090E080E00E94582C20E030E030
:1044A00040E850E40E94512C87FD02C00C94F72A8A
:1044B0009394F50190820C94F72A1082882011F4CD
:1044C0000C940D2BF701808191810196918380835B
:1044D000F701808191818D32914040F0D6018C911D
:1044E000811104C0F801E853FB4F7082F201819101
:1044F0002F01AD81BE818D93BE83AD830F5F1F4FB2
:10450000BFEFCB1ADB0AE2E0EE0EF11C033011051F
:1045100011F00C94E22A809277050E942B0560939B
:1045200078057093790580937A0590937B05809147
:104530007705882309F44FC18091E004882351F066
:104540008091DE04882331F01092DE04109277050A
:104550001092E0048091DA04882309F443C080912A
:10456000D90481113FC08091D80481113BC0E091F2
:104570002E050E2F10E021E3E29FF0011124E35FEE
:10458000FD4F2289213091F480913E0590913F05A5
:1045900096958795089751F41092DA042093D404E5
:1045A00080910F058111E6C30E946C0D8DE0809F04
:1045B000F001819FF00D1124EF55FD4F828188237A
:1045C00089F080913E0590913F05969587958031C1
:1045D000910509F0D2C31092DA0481E08093D404EB
:1045E0000E948E0D6DED462E64E0562E7AEDE72E7C
:1045F00074E0F72EE8ECAE2EE4E0BE2EF4EDCF2E04
:10460000F4E0DF2E10E000E088248394A5E07A2E09
:10461000B8E26B2E902ED2018D912D01882359F195
:10462000E0912E058E2F90E0FC01EE0FFF1FE80FAA
:10463000F91FE553FB4FE00FF11F808181110FC07F
:104640008091D7049091D804E82FE90FFF27FF1F2E
:104650008091D9048E0F9F2F911D892B61F4D60173
:104660008C91811103C0892D0E940714F2013197AA
:104670001082F6011082D5018C91882381F18091FE
:10468000D7049091D804E82FE90FFF27FF1F8091EE
:10469000D9048E0F9F2F911D019709F5E0912E05EA
:1046A0008E2F90E0FC01EE0FFF1FE80FF91FE5537E
:1046B000FB4FE00FF11F8081811111C085E0890D52
:1046C0000E940714F801EB53FB4F8082D5011C9226
:1046D000F801EE0FFF1FE154FB4F11821082F7012A
:1046E0008081882379F1108280912E0590E0FC0171
:1046F000EE0FFF1FE80FF91FE553FB4FE00FF11F0F
:1047000020812223F9F0709EF001719EF00D11249A
:10471000689E9001699E300D1124E20FF31FE3584B
:10472000FE4F908021E0921233C3818181110AC033
:1047300024814381628180E90E94100BF801E454D6
:10474000FB4F90820F5F1F4F8FEFE81AF80A9FEF21
:10475000A91AB90AAFEFCA1ADA0A0330110509F02B
:1047600059CF8091D8048823A1F18091DD0488235A
:10477000B1F0E0912E058E2F90E0FC01EE0FFF1FAF
:10478000E80FF91FE553FB4F8081811108C010929B
:10479000DD0481E08093E00483E00E9407148091AF
:1047A000DF048823B1F0E0912E058E2F90E0FC010C
:1047B000EE0FFF1FE80FF91FE553FB4F81818111B9
:1047C00008C01092DF0481E08093E00484E00E943E
:1047D0000714109277058091DE028823B1F10E94C0
:1047E0002B050091E1041091E2042091E304309143
:1047F000E404601B710B820B930B683C710581050F
:10480000910518F10E942B056093E1047093E20476
:104810008093E3049093E4048091E904F1018823F8
:1048200009F4C2C2259134919FB7F894F901FF278A
:104830002081832F8095822380839FBF8091DE0219
:1048400081508093DE021092E904109176051123C5
:1048500009F43DC08091E9048111B4C2F101859150
:1048600094912FB7F894FC01FF278081892B8083D6
:104870002FBF81E08093E9040E942B056093E5043B
:104880007093E6048093E7049093E80480917605A2
:10489000813079F4ECEEF4E0A2E4B5E08CEF94E042
:1048A0002FEF30E0119211922D933D938E179F07B9
:1048B000C9F780911605882351F01092EB041092ED
:1048C000EA048FEF90E09093410580934005F894BF
:1048D000E2E5CE2EE5E0DE2E960190E080E0FC01E0
:1048E000EE0FFF1FEC59FA4F40815181D9014D93D2
:1048F0005D939D0101968930910589F77894109117
:10490000760580E495E044E655E0E2E5F5E0111136
:1049100009C020813181DC016D917C91261B370B10
:10492000318320832081318137FF02C011821082C0
:10493000329602964E175F0751F7E0903E05F090D1
:104940003F05EAEEF4E090E080E0D6014D915D9104
:104950006D0121913191B901625371096417750795
:1049600008F08AC241E050E060E070E0082E04C028
:10497000440F551F661F771F0A94D2F7E42AF52AC1
:1049800001968930910509F7F0923F05E0923E05C6
:104990008091DC029091DD02E816F90609F48DC0E1
:1049A00081E08093DB02C7010E94D50690933D050C
:1049B00080933C0580911C05882389F09701220F84
:1049C000232F221F330B319542E767E080EB0E94D3
:1049D000100B2E2D43E767E080EB0E94100BF09246
:1049E000DD02E092DC02B0903B05BB2019F0B3E0A1
:1049F000BB123BC0C7010E9445068F3709F453C262
:104A00008093FC048091FC0421E030E040E050E021
:104A100004C0220F331F441F551F8A95D2F7C901C6
:104A20006701C22AD92A00913C0510913D05C601B3
:104A30000E94D506081B190B17FD37C200913C05D3
:104A400010913D05C6010E94D506081B190B0330C5
:104A500011050CF02CC200913C0510913D05C601DA
:104A60000E94D506081B0093F50180913C059091AA
:104A70003D050196E1F080913C0590913D05209126
:104A8000DA022817190699F042E0B41681F0F09284
:104A90003A05E0923905E8ECF2E0A0E3B5E08AEDF2
:104AA00092E0119211921D928E179F07D1F780917B
:104AB0003C0590913D058093DA0280912F05882373
:104AC00009F4CAC0F89480910B0590910C0590935D
:104AD0000A058093090578940091090510910A054B
:104AE00080911D0590911E058017910709F4B4C0AF
:104AF000E0902E05F12CF701EA5FFD4FC08053E1F5
:104B0000D090DA02C51205C0809108059EE6D92E24
:104B1000D81A81E38E9DF0018F9DF00D1124E35F83
:104B2000FD4F82898330C1F48489A0E88A9FC00147
:104B300011242389822B209107052111BAC10596E2
:104B4000801791074CF481E08093070580910F0551
:104B5000811102C00E946C0DED2DEC53FF0B4091B2
:104B6000FE014E9F90014F9F300D11248091010254
:104B700090910202820F931F9093FD018093FC019C
:104B800080910605882309F4A2C10E942B0580901C
:104B9000020590900305A0900405B0900505AB01B7
:104BA000BC01481959096A097B098091FA01909161
:104BB000FB01092E000CAA0BBB0B481759076A070B
:104BC0007B0708F484C110920605309106052091F8
:104BD00005023111C3C1809101058111BFC121308E
:104BE00091F0223009F099C1F3E1CF1296C18DE026
:104BF0008E9DF0018F9DF00D1124EF55FD4F8385A3
:104C0000882309F48AC180911D0590911E054801F1
:104C1000881A990A4091F701481519040CF07DC1D2
:104C20008091FF0190910002801791070CF075C1EF
:104C300083E080932D0581E0809306050E942B057B
:104C40006093020570930305809304059093050516
:104C500010931E0500931D050E942B054B015C015E
:104C6000E0912E05EE2EF12C2DE0E29FF0011124B3
:104C7000EF55FD4F058160902D05002389F080914F
:104C8000A002813059F431E0631641F08092290589
:104C900090922A05A0922B05B0922C056092A0025A
:104CA00090910E0580910D054CE0949F800D11248C
:104CB00080931205F701EA5FFD4F108153E0651202
:104CC0000AC01F3041F09091DA021C3009F08CC10B
:104CD0009E3308F08EC17090050283E07812B2C155
:104CE000113009F4E0C11A3009F4DDC180913E05AC
:104CF00090913F05817099272DE02E9DF0012F9D09
:104D0000F00D1124EF55FD4F23812817190609F0E6
:104D100088C180911205173009F480C1845F7FC17A
:104D200070E090E080E00E94582C20E030E040E805
:104D300050E40E94B72C87FDCBCBD2011C92F50129
:104D400031976082ED81FE818081882349F0D60110
:104D50009C91911105C0F801E352FB4F7082882E9F
:104D6000F801E853FB4F1082F6011082D7011D9223
:104D70001C92AECB0E944B0D19CC029709F032CC9D
:104D80001092DA0481E08093D4040E94540F2ACC5C
:104D900035E0931203C00E946C06D4CC46E0941216
:104DA00050C40E945D06CECC859194912FB7F894A3
:104DB000FC01FF278081892B80832FBF81E08093B6
:104DC000E90443CD113069F50E942B05C090E5043C
:104DD000D090E604E090E704F090E8046C197D09B7
:104DE0008E099F09613177428105910508F438C425
:104DF0000E942B050091E5041091E6042091E70440
:104E00003091E804601B710B820B930B6131774288
:104E10008105910508F45BCD0E94DD160E94450BCB
:104E200056CD123009F053CD0E942B05C090E504F9
:104E3000D090E604E090E704F090E8046C197D0956
:104E40008E099F09693873418105910508F42BC4C7
:104E50000E942B050091E5041091E6042091E704DF
:104E60003091E804601B710B820B930B693873411E
:104E70008105910588F62BCD265331092417350776
:104E800008F47ECD41E050E060E070E0082E04C000
:104E9000440F551F661F771F0A94D2F7409550950F
:104EA000E422F5226DCD87E0ABCD00E0DCCD02E061
:104EB000DACD081719070CF04FCE10920705809134
:104EC0000F05882309F448CE0E944B0D45CE8091F2
:104ED0000105882309F479CE0E942B058090FD04FA
:104EE0009090FE04A090FF04B0900005AB01BC01BF
:104EF000481959096A097B098091F8019091F901D3
:104F0000092E000CAA0BBB0B481759076A077B0731
:104F100008F45BCE1092010558CE80912D058330A8
:104F2000E9F42223D9F080911D0590911E05801B84
:104F3000910B4091F6014817190684F481E08093A3
:104F40002D05809301050E942B056093FD0470934D
:104F5000FE048093FF04909300057ACE8091FF01B8
:104F6000909100028017910754F081E080932D0505
:104F700010931E0500931D0510922F056DCE01960E
:104F80008017910724F5213089F02230F1F453E1A4
:104F9000952EC9101AC08DE08E9DF0018F9DF00DE9
:104FA0001124EF55FD4F8385882379F08091010509
:104FB00031110DC081110BC0222349F08091FC01F9
:104FC0009091FD018017910714F082E0CFCF80917E
:104FD00001058111CDCF8091FC019091FD018017D9
:104FE000910734F683E0C2CF1E3039F49A3408F4C6
:104FF00072CE845F809312056ECE183019F49C3403
:10500000C0F769CE9E3331F4113009F464CE1A3002
:1050100009F461CE173069F7895FECCF895F80931F
:105020001205812F877F853029F4809112058150E8
:10503000809312051C30B9F5809112058E5F809324
:10504000120531C092E079121EC0812F8B7F21F0B2
:10505000163011F0133129F7B0913F05B9871A8640
:1050600089859A85817099272DE02E9DF0012F9DCD
:10507000F00D1124EF55FD4F23812817190689F6ED
:10508000809112054BCEA1E07A12CBCF133149F6B5
:105090008DE08E9DF0018F9DF00D1124EF55FD4F99
:1050A00083858111D9CF8091250590912605A09106
:1050B0002705B0912805A5019401281B390B4A0B3F
:1050C0005B0B2F87388B498B5A8B809121059091F0
:1050D0002205A0912305B0912405A5019401281B68
:1050E000390B4A0B5B0B82E090E0A0E0B0E024318A
:1050F00031054105510520F085E090E0A0E0B0E0E9
:105100002F85388949895A89281739074A075B0743
:1051100008F45CC08092250590922605A092270590
:10512000B0922805C0901D05D0901E0580911F05E6
:10513000909120058C199D0997FF03C09195819549
:10514000910902970CF442C081E38E9DF0018F9D7E
:10515000F00D1124E35FFD4F8281882319F080E078
:105160000E943C05002319F081E00E943C058DE07F
:105170008E9DF0018F9DF00D1124EF55FD4F56804F
:1051800050FE03C082E00E943C0551FE03C083E054
:105190000E943C0580E00E94801380911C058823BA
:1051A00089F02C2D2F7744E767E080EB0E94100BED
:1051B0009601220F232F221F330B46E767E080EB77
:1051C0000E94100BD0922005C0921F0580911805F7
:1051D00090911905A0911A05B0911B05A5019401A4
:1051E000281B390B4A0B5B0BDA01C9010997A10592
:1051F000B10590F08092180590921905A0921A05B9
:10520000B0921B050E94EA0F809117058F5F8A30CC
:1052100009F463C0809317058DE08E9DF0018F9D8A
:10522000F00D1124EF55FD4F468033E0C32ED12CF5
:10523000411003C020E1C22ED12C809014058D8234
:10524000882009F47CC08091DA0290E02091130557
:1052500030E040911205241B310947FD3395F701D9
:10526000E65FFD4F4081433009F45BC028173907E2
:1052700009F065C08DE08E9DF0018F9DF00D112429
:10528000EF55FD4F818121E062124FC1882321F04B
:105290008091110581114BC120E44091130560916B
:1052A000040280E80E94100B1092140581E00E9415
:1052B000801381E38E9DF0018F9DF00D1124E35F3B
:1052C000FD4F8289823009F01FC180910F0588232C
:1052D00009F41AC10E944B0D17C110921705E6EC94
:1052E000F8E085919491482F4250550BFA01808146
:1052F000892321E009F420E020931605809115050B
:10530000821709F489CF2093150580911C05882305
:1053100009F482CF285846E667E080EB0E94100B24
:105320007BCF4091090250E0821B930B97FF03C093
:10533000919581959109841795070CF49BCF8DE089
:105340008E9DF0018F9DF00D1124EF55FD4F818151
:1053500099249394961408F0B3C0882329F080917F
:105360001105882309F4AEC0809110058E3391F4A5
:105370008091DA0220911205022E000C330B820F6D
:10538000932F911D8635910529F480912F0588234F
:1053900009F498C001119BC0133029F48091DA02FE
:1053A0008C3309F48FC093E0992E791461F08091C9
:1053B0001605882341F080913E0590913F058F3F6F
:1053C000914009F47FC05090130581E38E9DF00158
:1053D0008F9DF00D1124E35FFD4F8280A0900402A9
:1053E0009D8091101EC1882019F080E00E943C052C
:1053F000002319F081E00E943C0540FE03C082E0DA
:105400000E943C0541FE03C083E00E943C05D12C74
:10541000C12CBB24B3948B1421F0411002C0013085
:1054200019F481E00E94801381E080931405B0900C
:10543000DA02009112050B0D009313058DE08E9D8D
:10544000F0018F9DF00D1124EF55FD4F80858111E6
:105450000E94EA0F20910302402F6A2D80E90E94EA
:10546000100BCD2831F020E4452D6A2D80E80E94F4
:10547000100B0E942B0560931805709319058093FB
:105480001A0590931B056093210570932205809364
:10549000230590932405B092100581E38E9DF001C1
:1054A0008F9DF00D1124E35FFD4F8289823009F05A
:1054B000E1CE80910F058111DDCE0E946C0D02C0FE
:1054C00081114DCF809114058823F1F0D3CEAD80AA
:1054D000A11062CF0E942B052091290530912A0549
:1054E00040912B0550912C054B015C01821A930AC7
:1054F000A40AB50AC601DD0CAA0BBB0B88169906D7
:10550000AA06BB0608F048CF80E090E0892B11F492
:105510000C94E31D0E9400000C94E31D20E4452D33
:105520006A2D80E80E94100B72CF8111B1CE13302A
:1055300029F48091DA028C3309F4AECE33E073168D
:1055400019F3809116058823F9F280913E05909118
:105550003F058F3F9140C1F69FCE0E942B050091E1
:1055600078051091790520917A0530917B05601BB3
:10557000710B820B930B653071058105910510F459
:105580000C9497228090770586E093E098878F832C
:1055900049EBA42E44E0B42E57ED452E54E0552E91
:1055A000A6EBB4E0BE83AD8365ECC62E64E0D62ED8
:1055B0007FEBE72E74E0F72E10E000E0E4E06E2EC3
:1055C00077247394EF81F88581919191F887EF8327
:1055D000282F2250330BF9018081D5019C9089231B
:1055E00011F00C944822992011F09A949C92D501C4
:1055F0006D915D01611194CBF2017082AD81BE812C
:105600008C90F801E652FB4F81100C945D22D6017C
:105610008C9181110C945D227082882483940C9467
:1056200068228DE08E9DF0018F9DF00D1124EF55C5
:10563000FD4F8185882309F471CFCC24C394D12CEC
:10564000E8CE5AE080910D058F5F951631F05BE052
:10565000951278C880910D05815080930D0572C810
:10566000EAEEF4E024E535E062E475E0D9018D91DD
:105670009D919D01428153814817590710F49383EE
:105680008283DB014D915D91BD018417950734F450
:10569000AD0142505109DA018D939C933296B4E0EA
:1056A000EA3FFB0719F7809116058823D1F0809116
:1056B0005205909153052091EA043091EB0428178C
:1056C000390720F49093EB048093EA04209140057D
:1056D000309141058217930724F4909341058093FC
:1056E0004005113009F484CB123009F4B1CBEFC876
:1056F000CF93DF9382E08093AE048093AF0484EB7A
:1057000094E09093B1048093B0041092B30410928B
:10571000B2048CEE92E09093AB048093AA0480E8EC
:105720008093B40481E88093B5040E94C004FC0116
:1057300081819091AE04482F490F5527551F48305D
:1057400051059CF5A281B381109709F52AEA34E04E
:105750003383228320812093AC048093AD04809115
:10576000AF04820F80832091B004A22FB091B104C6
:105770008A2F821B8917C8F481813D91C82FD0E000
:10578000CB5CDE4F38838F5F8183F2CFD9011896CF
:105790002D913C91199721153105C1F72AEA34E082
:1057A00019963C932E931897D5CFDF91CF910895FA
:1057B000F999FECF92BD81BDF89A992780B50895D9
:1057C000262FF999FECF1FBA92BD81BD20BD0FB61D
:1057D000F894FA9AF99A0FBE01960895052E97FB50
:1057E0001EF400940E94052C57FD07D00E94202C27
:1057F00007FC03D04EF40C94052C50954095309541
:1058000021953F4F4F4F5F4F08959095809570952C
:1058100061957F4F8F4F9F4F08950E94422CA59F07
:10582000900DB49F900DA49F800D911D112408959B
:10583000B7FF0C940D2C0E940D2C821B930B089526
:10584000A1E21A2EAA1BBB1BFD010DC0AA1FBB1F84
:10585000EE1FFF1FA217B307E407F50720F0A21BF6
:10586000B30BE40BF50B661F771F881F991F1A9463
:1058700069F760957095809590959B01AC01BD018D
:10588000CF010895A29FB001B39FC001A39F700DE7
:10589000811D1124911DB29F700D811D1124911D38
:1058A00008950E94932C08F481E00895E89409C0BB
:1058B00097FB3EF490958095709561957F4F8F4F43
:1058C0009F4F9923A9F0F92F96E9BB279395F69559
:1058D000879577956795B795F111F8CFFAF4BB0FD7
:1058E00011F460FF1BC06F5F7F4F8F4F9F4F16C03B
:1058F000882311F096E911C0772321F09EE8872FC5
:10590000762F05C0662371F096E8862F70E060E080
:105910002AF09A95660F771F881FDAF7880F9695F9
:10592000879597F90895990F0008550FAA0BE0E89D
:10593000FEEF16161706E807F907C0F01216130651
:10594000E407F50798F0621B730B840B950B39F491
:105950000A2661F0232B242B252B21F408950A26F7
:1059600009F4A140A6958FEF811D811D08950E9425
:10597000932C08F48FEF0895DB018F939F930E947F
:105980000D2CBF91AF91A29F800D911DA39F900DF3
:10599000B29F900D11240895AA1BBB1B51E107C0B3
:1059A000AA1FBB1FA617B70710F0A61BB70B881FAF
:1059B000991F5A95A9F780959095BC01CD0108953E
:1059C00097FB072E16F4009407D077FD09D00E94AC
:1059D000CC2C07FC05D03EF4909581959F4F0895FF
:1059E000709561957F4F0895EE0FFF1F0590F4911C
:0859F000E02D0994F894FFCFAB
:1059F800010020001000200F00040AFF01007F00B2
:105A08007F007F007F640020030000000064002006
:105A18000300000000640020030000000064002070
:105A2800030000000000C18081000000FF00FF00AB
:105A3800FF000101010202020F0F0F0F1E1E0307D4
:105A4800640709090F0F0F0F1E1E03070A0709092C
:105A58000F0F0F0F1E1E03070A070909640000082D
:105A68000004000400040A0A0A640101000200009C
:105A78000000080000000000000000000500000011
:105A88000006000000000000000000000000000008
:105A980000000000000200000000080000000009EB
:105AA80000000000050000000006000000000000E3
:105AB80000000000000000000000000000020000DC
:105AC80000000800000000090000000005000000B8
