:100000000C949F030C94C7030C94C7030C94C70370
:100010000C94C7030C94C7030C94C7030C94C70338
:100020000C94C7030C94C7030C943E130C949513C3
:100030000C94C7030C94C7030C94C7030C94C70318
:100040000C94C7030C94C7030C94C7030C94C70308
:100050000C945B120C94C7030C94C7030C941112FC
:100060000C94C7030C94C7030C94C7030C94C703E8
:100070000C94C7030C9482120C94C7030C94C7030E
:100080000C94C7030C94C7030C94C7030C94C703C8
:100090000C94C7030C94C7030C94C7030C94C703B8
:1000A0000C94C7030C94C7030C94C70304030904FE
:1000B00012010002EF020140D80487EE00010102A4
:1000C00003014D6F77727920537472696E676564AE
:1000D00020496E737472756D656E7473005741526A
:1000E000424C003D3D3D3D3D3D3D3D3D3D3D3D3D69
:1000F0003D3D3D3C303C3C3C3C3C3C3C3C3C3C3C49
:100100003C3C3C3B2F3B3B3B3B3B3B3B3B3B3B3B48
:100110003B3B3B392D393939393939372B3637356E
:1001200035343244444444444444444444444444C0
:10013000444444444444444444444444444444447F
:10014000444444434343434343434343434343437C
:100150004343434141414141414141404040403F8F
:100160003F3E3C00000000000000000000000000D6
:10017000000000000000000000000000000000007F
:10018000000000000000000000000000000000006F
:10019000000000000000000000000000000000005F
:1001A00000000046464646464646464646464646C1
:1001B00046464646464646464646464646464646DF
:1001C00046464646464646464646464646464646CF
:1001D00046464646464646464646464646464646BF
:1001E00046464645454545454545454545454545BC
:1001F00045454545454545454545454545454545AF
:1002000045454544444444444444444444444444AB
:1002100044444443434343434343434242424241B1
:1002200041403E4B4A4A494A4949484A4949484956
:100230004848474A49494849484847494848474D36
:100240004C4C4B4A494948494847464E4D4D4C4D08
:100250004C4C4B48474746474646454D4C4C4B4C0B
:100260004B4B4A4948484748474645484746454713
:10027000464645484747464746464547464645461B
:10028000454544474646454645454446454544451B
:10029000444443454444434443434243424241412E
:1002A000403E3F4B4B4B4B4B4B4B4B4B4B4B4B4BC2
:1002B0004B4B4A6363636363636363626261616060
:1002C0005F5E5D55555555555555555D4B4B4949E7
:1002D0004949495C5C5C4A5C4A4A4A5B4A5A4A5909
:1002E0005857565454544949495454544949494912
:1002F000494949535353535353534B4B4B4B4B4B1C
:100300004B534B52525252525252525252525251DB
:1003100051515250505050505050504F4F4E4E4DE2
:100320004C4B4A4A4A4A4A4A4A4A4A4A4A4A4A4A2A
:100330004A4A4A4A4A4A4A4A4A4A4A4A4A4A4A4A1D
:100340004A4A4A494949494949494949494949491A
:100350004949494B4B4B4B4B4B4B494B4B4B4B4BF5
:100360004B4B4B4848484848484848484848484804
:10037000484848474A474747474747474747474707
:10038000474747464646464646464645464646450C
:100390004546464444444444444444434342424121
:1003A000403F3E4B4B4B4B4B4B4B4B4B4B4B4B4BC1
:1003B0004B4B4A4B4B4B4B4B4B4B4B4B4B4B4B4B8E
:1003C0004B4B4B4B4B4B4B4B4B4B4B4B4B4B494981
:1003D000494949504A4A4A4A4A4A4A4F4A4E4A4D6E
:1003E0004A4B4A5454544949495454544949494937
:1003F000494949535353535353534B4B4B4B4B4B1B
:100400004B534B52525252525252525252525251DA
:1004100051515250505050505050504F4F4E4E4DE1
:100420004C4B4A4A4A4A4A4A4A4A4A4A4A4A4A4A29
:100430004A4A4A4A4A4A4A4A4A4A4A4A4A4A4A4A1C
:100440004A4A4A4949494949494949494949494919
:100450004949494B4B4B4B4B4B4B494B4B4B4B4BF4
:100460004B4B4B4848484848484848484848484803
:10047000484848474A474747474747474747474706
:10048000474747464646464646464645464646450B
:100490004546464444444444444444434342424120
:1004A000403F3E7F3C003E0140024203430445057D
:1004B00047064949494949494949494949494949F1
:1004C00049494949494949494949494848484848A1
:1004D00048484847474747474747474747474746AA
:1004E00046464645454545454544444344454342C3
:1004F00041403E4848484848484848484848484895
:10050000484848484848484848484848484848486B
:10051000484848484848484848484848484848485B
:10052000484848484848484848484848484848484B
:100530004848494747474747474747474747474747
:10054000474747474747474747474747474646473D
:100550004747474545454545454545454545454545
:10056000454545434343434343434342424141405E
:100570003F3E3C49004902490049004900490149C0
:100580000049004900490049004900490049004923
:100590000049004900490049004900490049004913
:1005A0000049004900490049004900490049004903
:1005B00000490049004900490049004900490049F3
:1005C00000490049004900490049004900490049E3
:1005D00000490048024802480048024801480148D2
:1005E00000480148004802480048004800480148C7
:1005F00000490047004702470047024700470147BC
:1006000000470146004700460047004700470047B3
:1006100000470047004700470047004700470047A2
:100620000047004700470047004700470047004792
:10063000004700450045024500450245004501458B
:100640000045014400450044004500450045004583
:10065000004500430043024300430243004301437B
:100660000043014200420041004200400040003F80
:10067000003E00490049004900490049004900493D
:100680000049004900490049004900490049004922
:100690000049004900490049004900490049004912
:1006A0000048004802480148014801480048004805
:1006B000004A0047024701470147014700470047FA
:1006C00000470047004700470047004700470046F3
:1006D00000460045024501450145014500440045ED
:1006E00000440043024301430143014200410040F2
:1006F000003E002B042B082B022B012B1028402B33
:10070000802E4025102520254025802B402880253F
:100710000825022504250131803140312031103176
:100720000231012B102B802510252025402B40075E
:100730000605040100080A0B0C0D09009E27112470
:100740001FBECFEFDAE0DEBFCDBF12E0A0E0B1E028
:10075000ECE0F2E502C005900D92A638B107D9F79A
:1007600024E0A6E8B2E001C01D92A93CB207E1F77F
:1007700013E0CFE9D3E004C02197FE010E94FE28D8
:10078000CE39D107C9F70E9437150C9404290C946F
:100790000000823108F08251E82FF0E0E15DF84F6F
:1007A000E49190917B008E2F880F880F80729F7D3F
:1007B000892B80937B00E770E064E0937C0080915C
:1007C0007A00806480937A0080917A0086FDFCCF65
:1007D000809178009091790008953FB7F8948091C6
:1007E000B9049091BA04A091BB04B091BC0426B5A1
:1007F000A89B05C02F3F19F00196A11DB11D3FBF59
:10080000BA2FA92F982F8827BC01CD01620F711D27
:10081000811D911D43E0660F771F881F991F4A9520
:10082000D1F708958F929F92AF92BF92CF92DF92AD
:10083000EF92FF924B015C010E94ED036B017C0182
:100840000E94ED036C197D098E099F09683E734073
:1008500081059105A8F321E0821A9108A108B10849
:1008600088EEC80E83E0D81EE11CF11C81149104AF
:10087000A104B10429F7FF90EF90DF90CF90BF90D3
:10088000AF909F908F9008952FB7F8946091B50422
:100890007091B6048091B7049091B8042FBF089569
:1008A0008091AC0281110DC082E08093A80284E0A7
:1008B0008093A9021092AB021092AA0281E0809369
:1008C000AC0288EA92E0089590E080E0089580E02C
:1008D00008950895823108F08251E82FF0E0E15D3B
:1008E000F84FE49190917B008E2F880F880F8072D3
:1008F0009F7D892B80937B00E770E064E0937C0010
:1009000080917A00886480937A0008959C012F5F1B
:100910003F4F28233923232B79F050E040E020E09B
:10092000181619063CF480FF242F959587954F5F84
:100930005F4FF6CF822F08958FE7089580912304AB
:100940008D3F54F0E0915D04F0E0EB55FD4F808168
:100950008150808380932304089580912304833001
:1009600054F4E0915D04F0E0EB55FD4F80818F5F22
:100970008083809323040895CF92DF92EF92FF92B9
:100980000F931F93CF93DF934091D70150E01091C5
:100990004C040091C501209176043091770464E005
:1009A00070E0601B7109CAE8D4E0EBE3F2E090E08C
:1009B00080E0012E02C0369527950A94E2F7217057
:1009C0003327E990F9904E155F056CF518132BC08D
:1009D000002349F121153105C1F4DC01AA0FBB1F29
:1009E000A450BC4FE41AF50ACD90DC90EC9CD001E9
:1009F000ED9CB00DFC9CB00D1124062E02C0B695E6
:100A0000A7950A94E2F7B183A083019632968930C4
:100A10009105B9F6DF91CF911F910F91FF90EF9063
:100A2000DF90CF90089511821082EFCFCF93DF93A4
:100A3000A0915D04B0E0AA51BE4F4C914E3008F039
:100A4000B2C0EC01E42FF0E0E85DFA4F0C94FE2810
:100A5000360559058C05AF053605C705DD05E505E5
:100A60009905D3055905EF050806D6059C0136956D
:100A70002795369527952F7330E0220F331FF90104
:100A8000ED58F94FE4918E2F90E0443011F4C1FD00
:100A9000019740917604509177044C175D0731F42B
:100AA000F901EC58F94FE491E0934D04DF91CF91B7
:100AB0000895A0917604B091770490FD09C08A173B
:100AC0009B0719F482E080934D048AE490E0EECF16
:100AD000BC0176956795262F2F7730E0220F331FC4
:100AE000F901ED58FA4FE4918E2F90E0CA17DB0719
:100AF00031F4F901EC58FA4FE491E0934D044A3097
:100B0000A9F66D77683419F487E490E0CFCF6836A2
:100B100069F685E490E0CACF90FFD7CFD695C79508
:100B2000CF77EC2FF0E0ED50FB4FE4918E2F90E06B
:100B3000BDCF90FD05C087FD97C08CE490E0B6CF97
:100B4000811521E0920709F48FC087FFBECFD695AB
:100B5000C795CF73EC2FF0E0ED54FB4FE6CF90FF3D
:100B6000B4CF9695879599270E94860430E020E0BF
:100B7000F901ED55FB4FE4918E1304C0F901EC55DA
:100B8000FB4FD3CF2E5F3F4F2231310589F7FE0156
:100B9000F695E795FF27ED55FC4FE4918E2F90E0F9
:100BA000009709F083CF8FEF9FEF80CFFC01F69580
:100BB000E795FF27ED55FD4FF0CFD695C795CF7739
:100BC000EC2FF0E0ED5DFD4FB0CF90FF9DCFD695BF
:100BD000C795CF77EC2FF0E0ED55FE4FA6CF90FDF7
:100BE0000DC024E0969587952A95E1F70E9709F4B4
:100BF0003EC0C7FF89CF88E490E058CF87FF89CFF8
:100C0000D695C795CF73EC2FF0E0ED5DFE4F8DCFFD
:100C1000FC01F695E795F695E795EF73F0E0ED5159
:100C2000FF4FE4918E2F90E0C1FF16C08F329105E7
:100C300099F08433910581F08533910569F086330D
:100C4000910551F08B33910539F08C33910521F0EA
:100C50008D33910509F00196D0FF28CF823391059D
:100C60000CF424CF0C9622CF8BE490E01FCF86E4C7
:100C700090E01CCF80918C028F5F80938C028091DA
:100C80008C02823011F42F9A089580918C02833067
:100C900069F480E18093810084E00E946A0481E02D
:100CA0008093000110929F0210928C0208950F937E
:100CB0001F93CF93DF931F92CDB7DEB719820E94A7
:100CC0005004DC0112960D911C910115110589F05B
:100CD000D801ED91FC910280F381E02DBE016F5FA0
:100CE0007F4FC801099597FD04C0F8010085118563
:100CF000ECCF89810F90DF91CF911F910F910895D3
:100D000040918A0250918B02209188023091890291
:100D100042175307B4F49091E8009570E1F3909175
:100D2000E80092FD19C08093F10080918A029091B1
:100D30008B0201968F739927892B19F48EEF80937C
:100D4000E80080918A0290918B02019690938B0229
:100D500080938A0281E0089580E00895EF92FF92E7
:100D60000F931F93CF93DF93F82E192FE62E042FA6
:100D700081E0860F880F0E94800683E00E94800633
:100D8000CF2DD12FEC0EFD2EF11CCE15DF05B9F0C5
:100D900007FF13C0FE0184910E948006182F80E097
:100DA0000E948006812321968111EFCFDF91CF91A0
:100DB0001F910F91FF90EF9008958881EDCF81E012
:100DC000F5CFDF92EF92FF920F931F93CF93DF93B4
:100DD000D82E8A01EB017B01E40EF51ECE15DF054E
:100DE00059F0D7FE12C0FE0184910E948006219620
:100DF0008111F4CF0FEF1FEFC801DF91CF911F9149
:100E00000F91FF90EF90DF9008958881EECF0F93C0
:100E10001F93CF93DF93CDB7DEB7C456D1090FB67A
:100E2000F894DEBF0FBECDBFFC01DB019C919E5F3D
:100E30009C939E01295F3F4F8AE5D9011D928A95B7
:100E4000E9F788E089838BE08A8322E02C8391E0B4
:100E50009D839E8339E0398764E06A879E879F87F8
:100E60003A8B44E24B8B9C8BA0E0B1E0BE8BAD8B08
:100E700009E010E0188F0F8B998F3B8F6C8F2F8FAD
:100E800098A353E059A387E08CA34DA39EA3B8A7D2
:100E9000AFA3A1E4B0E0BAA7A9A786E08BA74CA7AF
:100EA0002DA79EA79FA789AB4AAB2BAB2CAB2DAB35
:100EB0003FAB48AF59AF9AAF5BAF9CAF2DAF9EAF82
:100EC00021963FAF219722964FAF229723965FAF8F
:100ED000239724962FAF249725966FAF25972696B4
:100EE0009FAF269727969FAF279728969FAF289763
:100EF0002A963FAF2A9745E02B964FAF2B972D961A
:100F00002FAF2D9760E470E02F967FAF6EAF2F97D5
:100F100063964FAF639785E264968FAF649765964B
:100F20009FAF659766969FAF669767969FAF6797E7
:100F300068963FAF689769964FAF69976B962FAFEA
:100F40006B976D967FAF6EAF6D97A1964FAFA197E0
:100F5000A2968FAFA297A3969FAFA397A4969FAF99
:100F6000A497A5965FAFA59792819B839B879F5F70
:100F70009A8F9D8F83812C968FAF2C978F5F80687F
:100F80006A968FAF6A9744E650E0BE016F5F7F4F6D
:100F900080E00E94E106CC59DF4F0FB6F894DEBF27
:100FA0000FBECDBFDF91CF911F910F9108956F922A
:100FB0007F928F929F92AF92BF92CF92DF92EF92E9
:100FC000FF920F931F93CF93DF93E82E8B016A015B
:100FD0008091B902882309F47FC08091B40280FF18
:100FE00005C08091E00082608093E000CC2DDD2D73
:100FF000F12C8AEFB82E2E2D2770922E90E4892E98
:101000008E2D8072782E2E2D2074622E2AE3A22E31
:10101000209719F4FF2009F463C09FB7F8949092C9
:10102000E9008091E80085FD0CC09FBFBA94BB2009
:1010300009F452C061E070E080E090E00E94120488
:10104000E7CF8091F200282D281B822F9FBF2223FB
:1010500069F32C171D0611F00CF08C2F9FB7F89434
:101060009092E9002091E80025FD02C09FBFD0CFFB
:10107000282F30E0C21BD30B772029F08150A0F03D
:101080001092F100FBCFF801E7FC0AC0815050F04C
:1010900041914093F100FACF44914093F100319691
:1010A0008150D0F7020F131FFF2021F0A092E8001B
:1010B000F12CDCCF8091E80085FD07C0A092E8000C
:1010C000FF24F394209791F2F3CF209779F66620CE
:1010D00069F2A092E800CACFCC24CA94DD24DA9445
:1010E000C601DF91CF911F910F91FF90EF90DF909C
:1010F000CF90BF90AF909F908F907F906F9008950A
:10110000CF93DF9300D000D0CDB7DEB76150F89415
:10111000E82FF0E094E0F595E7959A95E1F7E983FB
:101120006F70862B8A834F774B832F772C83809128
:10113000C00444E050E0BE016F5F7F4F8F5F0E94AC
:10114000D7078091C0048F5F8093E9008091F200FF
:10115000882319F08AE38093E80078940F900F9029
:101160000F900F90DF91CF91089510924E04E0916F
:101170005D0485E1E89FF0011124E751FE4F86856B
:10118000813051F018F0823061F008952189408952
:10119000678580E90C94800821894089678580E80B
:1011A000F9CF21894089678580EBF4CF81E0809376
:1011B0004E04E0915D0485E1E89FF0011124E751C0
:1011C000FE4F8285813051F018F0823061F0089531
:1011D00025854485638580E90C94800825854485B0
:1011E000638580E8F9CF25854485638580EBF4CF5E
:1011F0008F929F92AF92BF92CF92DF92EF92FF9227
:101200000F931F93CF93DF93C0915D04D0E0CE0185
:10121000880F991FFC01E35FFE4F208131813093DD
:10122000D4012093D301FE01EB55FD4F2081209383
:101230002304FE01E85CFE4F208120932204FE017E
:10124000E85BFE4FB080B0927304FE01EE53FC4F9A
:10125000C08021E0C11001C020E02093A402FC0165
:10126000EB53FC4F008111811093A3020093A20263
:10127000FE01EF5BFE4FD080D092D701855C9E4F80
:10128000DC01ED90FC90F092D901E092D801FE01D2
:10129000EB5BFE4F80818093E50186E08C9FF0013F
:1012A0008D9FF00D1124E75DFD4F90812CE02C9F68
:1012B000F0012D9FF00D1124ED5EFE4F989FE00D83
:1012C000F11D1124A080A092030181818093CC01A3
:1012D00082818093C70183818093C601848190E0DD
:1012E0009093CB018093CA01858190E09093C901CE
:1012F0008093C8018FEF9FE19093D6018093D50131
:1013000010922504109224042FE34FE761E080EE51
:101310000E948008EBE3F2E0A8E6B4E0119211929B
:101320001D9222E0ED34F207C9F786E08C9FF001B0
:101330008D9FF00D1124E75DFD4F8481882309F412
:1013400087C082E0B81609F483C081E080935C0412
:1013500080E48093E401C1107EC08091B702909137
:10136000B80203969093D0018093CF01A4E0AA9E87
:10137000C00111242091CF013091D001820F931F21
:101380009093D2018093D10123E0EE0CFF1C2A95AB
:10139000E1F7E6E2F4E03CEF832E33E0932E4AE3FC
:1013A000A42E44E0B42E0EEC1FEF0D19110958EFD6
:1013B000C52EDD24DA9421913191200F311FC60111
:1013C000B9010E94EA2876956795D4016D937D93C3
:1013D0004D01C701B9010E94EA2876956795D501AC
:1013E0006D937D935D01B4E0E833FB0721F785E160
:1013F0008C9FF0018D9FF00D1124E751FE4F8681E7
:1014000028E0829FC00111248C599F4F9093E301E3
:101410008093E201208591E8299F90011124309367
:10142000DB012093DA018185899FC001112490930B
:10143000DD018093DC01DF91CF911F910F91FF902F
:10144000EF90DF90CF90BF90AF909F908F900895D6
:1014500010925C047DCF0D5F1F4F1093D00100935D
:10146000CF0184CFE0915D04F0E0E85BFE4F808126
:101470008F5F833099F080830E94F8082091730475
:1014800081E0820F8093520280915404882341F0BE
:101490002A5B46E667E080EB0C9480081082ECCF74
:1014A0000895EF92FF920F931F93CF93DF9320E164
:1014B0004EE667E080EB0E94800806EE11E028E32C
:1014C000E22E21E0F22ECEE12C2F46E667E080EB03
:1014D0000E948008F80121918F012F5D46E667E0A8
:1014E00080EB0E948008F70121917F0141E54C0FBC
:1014F00027FD41C167E080EB0E948008CF5FC132C9
:1015000019F7C0915D042CE32C0F46E667E080EBF1
:101510000E9480082091D70147E667E080EB0E9497
:1015200080082091D8013091D901A4E6B0E00E9452
:1015300060282FEF3FE140E050E00E943E2845E761
:1015400067E080EB0E948008209173042A5B46E6E6
:1015500067E080EB0E9480082091E501205B46E671
:1015600067E080EB0E94800820915604285846E6E8
:1015700067E080EB0E9480082091A402295D4AE682
:1015800067E080EB0E94800822E248E667E080EB9B
:101590000E9480080091A2021091A302202F2F77B1
:1015A00049E667E080EB0E94800823E248E667E0B6
:1015B00080EB0E9480089801220F232F221F330BFB
:1015C00049E667E080EB0E94800810E000E0EC2E26
:1015D000F12CEE0CFF1CC701835F9E4F7C01DAE00B
:1015E000F70180819181002E02C0969587950A941B
:1015F000E2F7817024E1200F8D9F200D11244AE62F
:1016000067E080EB0E9480080F5F1F4F09301105D3
:1016100039F7F8E2CF9F80011124055B1E4FDAE510
:101620002D2F46E667E080EB0E948008F801F080ED
:1016300024E62F0D46E667E080EB0E948008F1E08B
:10164000FF121DC0F8012181205946E667E080EBBA
:101650000E948008F80122814AE667E080EB0E9440
:101660008008F80123814BE667E080EB0E94800848
:10167000F80124814CE667E080EB0E948008DF5F80
:101680000B5F1F4FD23661F6F6E0CF9F7001112439
:1016900010E000E028E2200F48E667E080EB0E94BF
:1016A0008008F801EE0DFF1DE75DFD4F208149E642
:1016B00067E080EB0E9480080F5F1F4F0630110526
:1016C00049F785E1C89F7001112410E000E02DE08A
:1016D000200F48E667E080EB0E948008F701E00FEA
:1016E000F11FE751FE4F208149E667E080EB0E9441
:1016F00080080F5F1F4F0531110549F793E0C99F1F
:10170000800111240E511C4FDAE52D2F46E667E0CB
:1017100080EB0E948008F80121918F012B5846E64A
:1017200067E080EB0E948008DF5FDD3571F7FCE049
:10173000CF9FE001112410E000E021E0200F48E6F7
:1017400067E080EB0E948008FE01E00FF11FED5E74
:10175000FE4F208149E667E080EB0E9480080F5F22
:101760001F4F0C30110549F7DF91CF911F910F9159
:10177000FF90EF9008952158BDCE80915D048F5F5A
:10178000833089F080935D04109250040E94F80821
:1017900080915D048F5F809352028091540488236E
:1017A00029F00C94510A10925D04EECF0895CF9366
:1017B000DF93EBE3F2E08DE492E030E020E0419152
:1017C0005191240F351F8E179F07C9F78FEF9FE1A7
:1017D000821B930B2091240430912504820F931FC8
:1017E00097FD25C09093D6018093D501C091D50176
:1017F000D091D60180910101909102018C179D0733
:1018000099F080915304882379F09E01220F232FB1
:10181000221F330B4C2F4F7761E080EE0E9480082F
:10182000D0930201C0930101DF91CF9108951092EE
:10183000D6011092D501DACFCF93DF9300D000D03C
:10184000CDB7DEB78150F8949CE099838F70806C9F
:101850008A836F776B831C828091C00444E050E0E0
:10186000BE016F5F7F4F8F5F0E94D7078091C004DA
:101870008F5F8093E9008091F200882319F08AE35A
:101880008093E80078940F900F900F900F90DF9165
:10189000CF910895CF93DF93E0915D04A82FB0E03E
:1018A0002E2F30E098E2E99FF001112495E0899F06
:1018B000E00DF11D1124E55BFE4FE081E150E331C5
:1018C00008F039C0F0E0E959F34F0C94FE287A0C87
:1018D000DB0CDF0CE30CEA0C070D1A0D270D440D91
:1018E000530D630D9B0C9B0C9B0C9B0C9B0C9B0C3E
:1018F0009B0C750D85E08A9FF0018B9FF00D1124E4
:1019000048E2429FC001439F900D1124E80FF91F48
:10191000E55BFE4F8181811116C024814381628184
:10192000ED01CD52DC4F8881811108C080E90E9411
:10193000800881E08883DF91CF91089580E80E943C
:1019400080081882F8CF813041F42481438162817C
:1019500080EBDF91CF910C948008823009F0C9C0F0
:1019600063818281DF91CF910C941C0C8091A10244
:101970008F3720F48F5F8093A10202C01092A102E2
:1019800085E08A9FF0018B9FF00D112448E2429F71
:10199000C001439F900D1124E80FF91FE55BFE4F36
:1019A0006091A10282810E941C0C81E0809352020E
:1019B000C2CF8FE7E0CFDF91CF910C94320ADF9155
:1019C000CF910C94BD0B8091500491E089278093B6
:1019D0005004B1CFC901880F991F280F391F2E510C
:1019E0003C4FA20FB31F8C9181110DC00E94AD041A
:1019F00080912304082E000C990B97FFD7CF919567
:101A000081959109D3CFDF91CF910C949E04C901A8
:101A1000880F991F280F391F2E513C4FA20FB31F5B
:101A20008C91811103C00E949E04E2CFDF91CF917F
:101A30000C94AD04C1E020E04BE76C2F80EB0E94DA
:101A4000800810924E04CF5FC131A9F774CFF9011D
:101A5000EB5BFE4F80818F5F8430A1F080830E941A
:101A6000F808109250042091E50181E0820F8093E4
:101A7000520280915404882309F45DCF205B46E62E
:101A800067E066CF1082EBCF81E0809352028091B5
:101A90004E04811104C0DF91CF910C94D608DF91E0
:101AA000CF910C94B50840912204C901880F991F69
:101AB000280F391F2E513C4FA20FB31F8C9181115B
:101AC00010C04F5F0FC040912204C901880F991FB9
:101AD000280F391F2E513C4FA20FB31F8C9181113B
:101AE000F0CF41504093220426CF81E08093AE0492
:101AF00022CF833009F43ACF843009F01CCF809193
:101B0000A102882309F455CF815035CFCF93DF93BD
:101B100080919F02893079F486E10E94C9039093F5
:101B200021048093200410929F0281E08093670437
:101B3000DF91CF91089580910001882391F1E09188
:101B40009F02F0E0EE0FFF1FE859FD4F8081918169
:101B50002FB7F894FC01FF278081892B80832FBF4A
:101B600080919F02883051F485E00E94C9039093D0
:101B70008E0280938D0210920001DACFE0919F02D5
:101B8000C0919F02D0E02196F0E0ED5AFD4F818197
:101B90000E94C903CC0FDD1FC357DD4F9983888393
:101BA000EACF809100018111C3CFE0919F02C091E3
:101BB0009F02D0E0F0E0ED5AFD4F80810E94C90302
:101BC000CC0FDD1FC456DB4F99838883E0919F02C1
:101BD000F0E0EE0FFF1FE859FD4F208131819FB7E4
:101BE000F894F901FF272081832F80958223808339
:101BF0009FBFE0919F02F0E0EE0FFF1FE456FB4F06
:101C000080819181E0919F02F0E0EE0FFF1FE3578A
:101C1000FD4F20813181E0919F02F0E0821B930B08
:101C2000EE0FFF1FE456FB4F91838083E0919F02EC
:101C3000F0E0EE0FFF1FE456FB4F8081918197FF8C
:101C400009C0E0919F02F0E0EE0FFF1FE456FB4F4A
:101C50001182108280919F028F5F80939F0281E0AA
:101C60008093000165CF84E0E0E8F2E0DB010190C1
:101C70000D928A95E1F784E008951F93CF93DF9347
:101C8000EC01162F0E94FE27181739F0612FCE01A4
:101C9000DF91CF911F910C940628DF91CF911F9176
:101CA0000895CF92DF92EF92FF920F931F93CF93FD
:101CB000DF93C82FE82EF12CE0915D04F0E0EA51AB
:101CC000FE4F6081C70188960E943D0EE0915D0441
:101CD000F0E0E85CFE4F6081C701C5960E943D0EB2
:101CE000E0915D04F0E0EF5BFE4F6081C701C296BA
:101CF0000E943D0EE0915D04F0E0E85BFE4F6081E4
:101D0000C701875C9E4F0E943D0EE0915D04F0E0AC
:101D1000EB5BFE4F6081C701845C9E4F0E943D0ECD
:101D20008701000F111FE0915D04F0E0EE0FFF1F2F
:101D3000E35FFE4F6081C8018D5A9F4F0E943D0EA8
:101D4000E0915D04F0E0EE0FFF1FE35FFE4F618165
:101D5000C8018C5A9F4F0E943D0EE0915D04F0E057
:101D6000EE0FFF1FE55CFE4F6081C801875A9F4F51
:101D70000E943D0EE0915D04F0E0EE0FFF1FE55C78
:101D8000FE4F6181C801865A9F4F0E943D0EE0912F
:101D90005D04F0E0EE53FC4F6081C701815A9F4F14
:101DA0000E943D0EE0915D04F0E0EE0FFF1FEB534B
:101DB000FC4F6081C8018F5E9E4F0E943D0EE091F6
:101DC0005D04F0E0EE0FFF1FEB53FC4F6181C80193
:101DD0008E5E9E4F0E943D0E84E1C89F70011124CB
:101DE00010E000E0DCE08CEFE81A8EEFF80A80915A
:101DF0005D04F801D89FE00DF11D1124ED5EFE4F4A
:101E00006081C701800F911F0E943D0E0F5F1F4F21
:101E10000C30110561F785E0C89F80011124F12C79
:101E2000E12CD6E0085C1F4F80915D04F701D89F3C
:101E3000E00DF11D1124E75DFD4F6081C8018E0D9D
:101E40009F1D0E943D0E8FEFE81AF80A86E0E81603
:101E5000F10451F785E1C89F7001112410E000E002
:101E6000D5E18BE1E81A8DEFF80A80915D04F80165
:101E7000D89FE00DF11D1124E751FE4F6081C7018D
:101E8000800F911F0E943D0E0F5F1F4F05311105FE
:101E900061F783E0C89F7001112410E000E08AEF31
:101EA000E80EF11CE0915D048E2F90E0FC01EE0F36
:101EB000FF1FE80FF91FEE51FC4FE00FF11F60818B
:101EC000C701800F911F0E943D0E0F5F1F4F03300F
:101ED000110541F782E3C89FE0011124CC59DF4F7F
:101EE000F12CE12C85E0D82E98E2C92E10E000E01C
:101EF00080915D04D09EF001D19EF00D1124C89E0A
:101F0000E00DF11D1124E55BFE4FEE0DFF1D60811C
:101F1000CE01800F911F0E943D0E0F5F1F4F0830B2
:101F2000110531F78FEFE81AF80A2A9685E0E816CE
:101F3000F104E1F6DF91CF911F910F91FF90EF90A7
:101F4000DF90CF900895CF92DF92EF92FF920F93A0
:101F50001F93CF93DF9306E214E088E7C82E84E056
:101F6000D82E91EDE92E92E0F92EC2E1D0E0F801F1
:101F700061810E5F1F4FCE010E943D0EF801329726
:101F80006081CE0101960E943D0EF6016081F2E073
:101F9000CF0ED11CC7010E943D0E22968FEFE81A8A
:101FA000F80AC432D10519F71092AE0463E085E255
:101FB00090E00E943D0EEDE0F7E0259134919FB74F
:101FC000F894F901FF272081832F80958223808355
:101FD0009FBF10921204DF91CF911F910F91FF903C
:101FE000EF90DF90CF9008950C94FE272F923F92B0
:101FF0004F925F926F927F928F929F92AF92BF9219
:10200000CF92DF92EF92FF920F931F93CF93DF93C4
:10201000CDB7DEB766970FB6F894DEBF0FBECDBF63
:1020200088E491E09C878B87E5E4F1E0FE87ED870B
:1020300081E491E0988B8F87EDE0F1E0FA8BE98BFA
:102040008BE491E09A838983E3E1F1E0FE83ED8301
:1020500089EE91E098878F83E9E2F2E0FA87E987D9
:10206000B12CA12C312C212C1C821B82712C612CB7
:10207000512C412C1E8A1D8A10E000E0C801875CAB
:102080009E4F0E94F40FEB85FC858193FC87EB87C4
:10209000C801845C9E4F0E94F40FED85FE858193FC
:1020A000FE87ED87C801C2960E94F40FEF85F8897C
:1020B0008193F88BEF878D899E898D5A9F4F0E945F
:1020C000F40FF82E8D899E898C5A9F4F0E94F40F31
:1020D000982F8F2DE989FA8981939193FA8BE98B57
:1020E0008D899E89875A9F4F0E94F40FF82E8D8903
:1020F0009E89865A9F4F0E94F40FED89FE89E55C08
:10210000FE4F982F8F2D91838083C801815A9F4F56
:102110000E94F40FF801EE53FC4F80838D899E8955
:102120008F5E9E4F0E94F40FF82E8D899E898E5EE1
:102130009E4F0E94F40FED89FE89EB53FC4F982FC0
:102140008F2D91838083D12CC12C7501F8E3EF0E84
:10215000F11CC7018C0D9D1D0E94F40FE985FA85C5
:10216000EC0DFD1D80838FEFC81AD80A96E0C916C2
:10217000D10479F7D12CC12C7101EBE1EE1AEDEF0E
:10218000FE0AC7018C0D9D1D0E94F40FEF81F8859A
:10219000EC0DFD1D8083FFEFCF1ADF0A85E1C81625
:1021A000D10479F7D12CC12CEB80FC809CEFE91A8B
:1021B0009EEFF90AC7018C0D9D1D0E94F40FED8161
:1021C000FE81EC0DFD1D8083EFEFCE1ADE0AFCE0F0
:1021D000CF16D10479F773018AEFE80EF11CF301F1
:1021E000EE51FC4F4F016301FDEFCF0ED11CC70133
:1021F0000E94F40F91E0811101C090E0F4019193ED
:102200004F01FFEFEF1AFF0AEC14FD0481F76201A2
:1022100084E6C80ED11CF201EA56FF4FFC8BEB8B13
:1022200089809A80F12CE12CC6018E0D9F1D0E94A1
:10223000F40F95E09E9DF0019F9DF00D1124E80D97
:10224000F91D8083EFEFEE1AFE0AF8E0EF16F104B5
:1022500059F78AE0C80ED11C9FEF891A990AEB89B9
:10226000FC89CE16DF06F1F60F5F1F4F8D899E8920
:1022700002969E8B8D8B92E3490E511CE981FA8167
:10228000B896FA83E983F3E06F0E711C8B819C8111
:1022900044969C838B83ED81FE813C96FE83ED8387
:1022A000F5E12F0E311C8F819885459698878F8395
:1022B00095E0A90EB11CE985FA853696FA87E9877B
:1022C0000330110509F0DACE66960FB6F894DEBF3A
:1022D0000FBECDBFDF91CF911F910F91FF90EF9077
:1022E000DF90CF90BF90AF909F908F907F906F9036
:1022F0005F904F903F902F900895CF92DF92EF9292
:10230000FF920F931F93CF93DF9386EEE82E81E029
:10231000F82E98E3C92E91E0D92EC8E2D0E0CE0184
:102320000E94F40F082FF70181937F01CE010D96D3
:102330000E94F40F182FF60181936F0180915404CD
:102340008823C9F02C2F2A5046E667E080EB0E94D4
:10235000800821E2200F46E667E080EB0E948008BB
:102360004C2F495B212F17FF02C02FE7210F67E099
:1023700080EB0E9480082196CB32D10581F6DF9157
:10238000CF911F910F91FF90EF90DF90CF90089524
:10239000AF92BF92CF92DF92EF92FF921F93CF93B3
:1023A000DF9386E2A82E84E0B82E98E7C92E94E049
:1023B000D92E21EDE22E22E0F22EC2E1D0E0CE01B4
:1023C0000E94F40F182F8093A002CE0101960E9464
:1023D000F40F912FF501819391935F01C7010E9442
:1023E000F40F90E0F601819391936F012296FFEF35
:1023F000EF1AFF0AC432D10511F7809151028531DD
:1024000031F48FE090E09093C4018093C301DF9199
:10241000CF911F91FF90EF90DF90CF90BF90AF9042
:1024200008951F920F920FB60F9211242F933F938E
:102430008F939F93AF93BF938091B5049091B6040F
:10244000A091B704B091B8043091B40426E0230FF2
:102450002D3758F50296A11DB11D2093B404809329
:10246000B5049093B604A093B704B093B8048091D8
:10247000B9049091BA04A091BB04B091BC04019638
:10248000A11DB11D8093B9049093BA04A093BB041D
:10249000B093BC04BF91AF919F918F913F912F91C9
:1024A0000F900FBE0F901F90189529E8230F0396E9
:1024B000A11DB11DD2CF1F920F920FB60F92112402
:1024C0002F933F934F935F936F937F938F939F933C
:1024D000AF93BF93EF93FF93E0910B01F0910C0149
:1024E0000995FF91EF91BF91AF919F918F917F914E
:1024F0006F915F914F913F912F910F900FBE0F9071
:102500001F9018951F920F920FB60F9211242F93C0
:102510003F934F935F936F937F938F939F93AF936B
:10252000BF93EF93FF9380919F0228E0882319F0D7
:1025300020919F02215080919F0290919F028F5F76
:10254000983009F480E090919F02993029F55998CC
:10255000809178009091790020919D0230919E02A7
:10256000821B930B9093AD048093AC048091B602D0
:10257000806180938100FF91EF91BF91AF919F9116
:102580008F917F916F915F914F913F912F910F901C
:102590000FBE0F901F9018953091000190E03323EB
:1025A00009F450C030919F02311129C02091780068
:1025B00030917900309321042093200421E020936E
:1025C00067048D5A9D4FFC0180810E946A0410921D
:1025D000000180919F02882371F2E0919F02F0E058
:1025E000EE0FFF1FE859FD4F808191812FB7F894BE
:1025F000FC01FF278081892B80832FBFBCCF30E077
:10260000220F331FF901E859FD4F608171815FB7D7
:10261000F894FB01FF276081472F409546234083B4
:102620005FBF4091780050917900F901E357FD4F69
:1026300060817181461B570B24563B4FF901518332
:102640004083BFCF2091780030917900880F991F87
:10265000FC01E357FD4F31832083E0919F02F0E0BE
:10266000ED5AFD4F80810E946A0481E08093000151
:1026700080919F028F5F80939F027DCF1F920F9268
:102680000FB60F9211248F939F938091E100909148
:10269000E100937F9093E10083FF0FC01092E90067
:1026A00091E09093EB001092EC0092E39093ED0098
:1026B0001092B90298E09093F00082FF0AC093E074
:1026C0009093E9009091F200992319F09AE3909386
:1026D000E80084FF18C08091E2008E7E81608093C4
:1026E000E2008091E1008F7E8093E1008091B4024E
:1026F0008E7E80618093B4029F918F910F900FBE68
:102700000F901F90189580FFF7CF8091E2008E7E8A
:1027100080618093E2008091E1008E7E8093E100F1
:102720008091B4028E7E8160E5CF1F920F920FB62A
:102730000F921124CF92DF92EF92FF920F931F938B
:102740002F933F934F935F936F937F938F939F93B9
:10275000AF93BF93EF93FF93CF93DF93CDB7DEB7E4
:102760006C97DEBFCDBF1092E9008091E80083FF37
:102770002CC089E0FE017596EE2EDF2E815029F0E7
:102780009091F10090833196F9CF82EF8093E80029
:102790008D8987FF39C09091E80090FFFCCF982F7A
:1027A000907609F033C19E894F89588D2F89F88C16
:1027B000911131C0803861F58091B5028093F100AC
:1027C0001092F1008EEF8093E8006C960FB6F894AB
:1027D000DEBF0FBECDBFDF91CF91FF91EF91BF91D3
:1027E000AF919F918F917F916F915F914F913F91A9
:1027F0002F911F910F91FF90EF90DF90CF900F904E
:102800000FBE0F901F9018959EEF9093E800C7CFD2
:102810001092F100D5CF913059F48111D3CF4130CE
:10282000510581F68091B5028D7F8093B502CACFA4
:10283000933049F48111C6CF4130510519F680918A
:10284000B5028260F2CF953041F48091E80080FFBC
:10285000FCCF20682093E300B5CF963009F0A8C0E4
:102860000B8D1C8D82E01092E90010928B02109269
:102870008A02F8122EC010928902109288020E94D9
:1028800057061F8299E09983FA8291E09E8390EA2D
:1028900098879AE0998720918A0230918B02275F6E
:1028A0003F4F3C832B838D831092E90010928B0263
:1028B00010928A02109389020093880249E050E046
:1028C000BE016F5F7F4F80E00E94E1060E945706C5
:1028D00079CF10938902009388020E945004DC0192
:1028E00012960D911C910115110509F4BAC0D80179
:1028F000ED91FC910480F581E02D6E2D7D2DC801B8
:102900000995009709F0A8C0F80100851185EBCF63
:10291000F3E0FF120EC08F89882309F440C0823093
:1029200061F440E865E08DED90E00E94AE06811113
:1029300049CF81E28093EB0048CF813029F440E811
:102940006AE182EC90E0F1CF833099F70E94500465
:10295000DC011296ED90FC908E010F5F1F4F680115
:10296000E114F10479F0D701ED91FC910680F78133
:10297000E02DB801C7010995080F111DF701E0848A
:10298000F184EECFD8011C92F60101900020E9F706
:102990003197BF016C197D0940E0C601C6CF6CEAD2
:1029A00070E0FB01449150E080E80E94E1060ACF0C
:1029B000973009F4BECF983021F481E08093F10084
:1029C00001CF993009F0FECE837009F0B2CFE5E077
:1029D000F1E081E031E096E32191222371F08093D0
:1029E000E9003093EB00DF0111972C912093EC006C
:1029F0009093ED008F5F873079F78EE78093EA0040
:102A00001092EA008F898093B902DCCE8B8D9C8D69
:102A10001092E90010928B0210928A029093890220
:102A2000809388020E945004DC0112960D911C9143
:102A30000115110509F47DCFD801ED91FC910190AC
:102A4000F081E02D6E2D7D2DC80109958111BACE42
:102A5000F80100851185ECCF181619060CF4B2CEDA
:102A600068CFF1E0FF1254CF60EB70E09ACFCF93C4
:102A7000DF93CDB7DEB72C970FB6F894DEBF0FBE4D
:102A8000CDBF789484B5826084BD84B5816084BDF7
:102A900085B5826085BD85B5816085BD80916E00FC
:102AA000816080936E00109281008091810082602D
:102AB000809381008091810081608093810080916A
:102AC000800081608093800080919100826080937B
:102AD000910080919100816080939100809190009D
:102AE0008160809390008091C10084608093C100D8
:102AF0008091C10082608093C1008091C10081609B
:102B00008093C1008091C30081608093C300809155
:102B1000C00082608093C0008091C2008160809379
:102B2000C20080917A00846080937A0080917A005C
:102B3000826080937A0080917A008E7F80937A0001
:102B400080917A00806880937A001092B902109286
:102B5000B5021092B4028091D70081608093D700B3
:102B600080EA8093D80089B58F7E89BD89B582605F
:102B700089BD09B400FEFDCF61E070E080E090E027
:102B80000E9412048091D8008F7C80618093D800CD
:102B90008091E000807F8093E0008091E1008E7E54
:102BA0008093E1008DE08093E2008FEF80937E00C0
:102BB00083EF80937D00EDE0F7E0859194912FB74E
:102BC000F894FC01FF278291892B80832FBFE5E1D8
:102BD000F7E0859194912FB7F894FC01FF27DF016E
:102BE0003E91892F809583238C938081892B8083CC
:102BF0002FBFE8E6F2E02AE732E0819191914FB7EA
:102C0000F894DC01BB278E91892B8C934FBF2E1734
:102C10003F0799F72198299A22982A9A23982B9A64
:102C200085E893E00E94F40F803119F160E185E8B6
:102C300093E00E943D0E60E087E490E00E943D0E2C
:102C400060E087ED91E00E943D0E60E088E490E056
:102C50000E943D0E60E088ED91E00E943D0E60E034
:102C600089E490E00E943D0E60E089ED91E00E94D1
:102C70003D0E84E893E00E94F40F853111F48093B7
:102C800051028CE290E00E94F40F8330D1F1109257
:102C90005D0480E00E94510E81E080935D040E94FB
:102CA000510E82E080935D040E94510E10925D04EB
:102CB00083E08093520208E210E0C8010E94F40F02
:102CC000682FC80180579E4F0E943D0E0F5F1F4F17
:102CD000003421E0120789F705EE12E0C8010E94D6
:102CE000F40F682FC801CF960E943D0E0F5F1F4F53
:102CF000043233E0130791F763E08CE290E00E9426
:102D00003D0E85E290E00E94F40F833011F40E94A2
:102D1000C8110E947D110E94F60F86E10E94C9032E
:102D200086E10E94C90386E10E94C9039093B8021C
:102D30008093B70290935904809358040E94F80836
:102D400080915102853109F0D0C08FE090E09093DE
:102D5000C4018093C30180917A00887F80937A00B8
:102D600080917A00856080937A0080E18093810071
:102D70001092800081E08093B60228EA32E030931E
:102D800087002093860091E19093810026E83DE042
:102D900030930C0120930B0180936F000BE6602EA3
:102DA00085E0982E93E1792EF8948091BA03909162
:102DB000BB03A091BC03B091BD034091BE035091F1
:102DC000BF036091C0037091C103841B950BA60BD8
:102DD000B70B8F739927AA27BB27892B8A2B8B2B9D
:102DE00009F4ADC08091BE039091BF03A091C003D0
:102DF000B091C103880F991F880F991FFC01E654F9
:102E0000FD4F9081818102811381C090BA03D090DF
:102E1000BB03E090BC03F090BD034091BE03509112
:102E2000BF036091C0037091C103C416D506E606C6
:102E3000F706C1F04091BE035091BF036091C003FB
:102E40007091C1034F5F5F4F6F4F7F4F4F73552797
:102E5000662777274093BE035093BF036093C00358
:102E60007093C1037894992311F40C94E1260737E9
:102E700008F09ACF8F70863009F096CF81E080936A
:102E80005202063609F0CAC2E12EF12C8FEF810FF3
:102E9000823108F0E0C010FDD2C09701359527952A
:102EA000F901EE0FFF1FEC5DFB4F808191810597CB
:102EB000918380834091C3015091C401841B950B81
:102EC000C297059708F08FC12D5E46E667E080EB5C
:102ED0000E9480081E3709F099C181E08093540454
:102EE000109252020E94510ABEC080E1809381007C
:102EF0001092800091E09093B60220E931E0309387
:102F000087002093860021E1209381002AE336E0A8
:102F100030930C0120930B0190936F0080938100FC
:102F200080917A00887F80937A0084E880937A0089
:102F300080E480937C0081E00E946A042FCF80911E
:102F4000C0042FB7F89487708093E9009091F20045
:102F50002FBF10E000E080E0992309F456CF809164
:102F6000BA039091BB03A091BC03B091BD0301963D
:102F7000A11DB11D8F739927AA27BB274091BE03BE
:102F80005091BF036091C0037091C1034817590766
:102F90006A077B0709F426CF2091C0043FB7F89455
:102FA00027702093E9002091F2003FBF2091C004D8
:102FB0003091B902332309F415CF5FB7F894277025
:102FC0002093E9004091F200242F30E025303105B4
:102FD00014F024E030E0FE013196215020F03091D1
:102FE000F1003193FACF442331F02091F200211106
:102FF00002C06092E8005FBF443008F4F3CE409115
:10300000BA035091BB036091BC037091BD03440FA0
:10301000551F440F551F46545D4F09811A812B815E
:103020003C81FA0100831183228333838093BA03A6
:103030009093BB03A093BC03B093BD0398CFF7015B
:103040003196EE7FF170EC5DFB4F808191810596AA
:10305000918380833FCF133109F0C5C00E94A30F35
:1030600083E0809352028FED810F8B3140F4E09129
:10307000CC03F0E0EA51FE4F80830E94F8085CE345
:10308000C52ED12C80E0BB24B394B80ECE14DF043F
:1030900051F480935D04109250040E94F8080E943D
:1030A000510AB09252023FEFC31AD30A8B2D8330DC
:1030B00051F746E4C42ED12C8AEB8C0D80905D0430
:1030C000A82CB12CCE14DF0459F4F501E85BFE4FB7
:1030D00080830E94F808809173048F5F809352026E
:1030E0004FEFC41AD40A59E4C516D10429F730E5C4
:1030F000C32ED12CB5016B5B7E4F5B0180EB8C0D39
:10310000CE14DF0449F4D5018C930E94F808809115
:10311000E5018F5F80935202BFEFCB1ADB0AE5E532
:10312000CE16D10459F7409144018AE590E026EA91
:10313000280F8E159F0509F4422F019682369105BE
:10314000B1F7409344013091520228E2829EF0018F
:103150001124E55BFE4F20E042131BC0173711F42A
:10316000708230E084E690E05CE9580F8E159F0590
:1031700011F4508330E0019680379105A9F750E9AA
:10318000580F8E159F0509F45183019685379105D7
:10319000B1F72F5F35962830F9F63093520253E09D
:1031A000859E900111242E513C4F90E080E051E02B
:1031B00048130BC0153709F06CC0F901E80FF91F6F
:1031C0001082FC01ED52FC4F108201968330910574
:1031D00079F71B3709F065C0882D0E94510E83E0F6
:1031E0008093520273C01F3709F074CE10925202BE
:1031F00081E08093AE0437CF81E01F3121F010329F
:1032000009F031CF82E08093CC032DCF1A3729F01B
:103210001E3191F71092CC0326CFD12CC12C73E034
:10322000A72EC6010E94F40FB82E20E34AE667E0FD
:1032300080EB0E9480082B2D2F7747E767E080EB1B
:103240000E94800821E34AE667E080EB0E94800844
:103250002B2D30E0220F232F221F330B47E767E08F
:1032600080EB0E94800823E34AE667E080EB0E943F
:10327000800863E070E080E090E00E941204A09279
:103280005202FFEFCF1ADF0AC11424E0D20649F63A
:10329000EACE163709F099CFF901E80FF91F5083EC
:1032A00090CF1C3709F057C0F12C23E0E22E8F2D70
:1032B0000E94510E0E947D110E94F60F0E94F80894
:1032C000E0925202F39463E0F612F1CFEFE6EE2EB5
:1032D000F12CC02ED12CF1E8BF2EB10EEC14FD0460
:1032E00061F4C7018F569109885C9E4F123308F034
:1032F000BCC0FC0110830E94F808BFEFEB1AFB0A68
:10330000E2E7EE16F10451F7083609F0B1C08FEF8D
:10331000810F809337014091440120915D0458E270
:10332000259F90011124255B3E4F90E080E04813DB
:103330000DC00A3609F0DBC1103140F4989EF0014F
:10334000999EF00D1124E20FF31F1283019688302D
:10335000910569F729CD1D3709F0B8CF98EBE92E13
:10336000FF24F394C7010E94F40F682FC70180590E
:1033700091400E943D0E7FEFE71AF70A80EDE816B4
:1033800082E0F80679F784E2E82E83E0F82EC701A0
:103390000E94F40F682FC701CF970E943D0E9FEF48
:1033A000E91AF90AA3E6EA16A3E0FA0681F7809182
:1033B0005102863128F1F12CE12CC7010E94F40F53
:1033C000682FC70142960E943D0EBFEFEB1AFB0A21
:1033D000E2E1EE16F10489F7BBEDEB2EB2E0FB2E35
:1033E000C7010E94F40F682FC7010A970E943D0E83
:1033F000FFEFEF1AFF0A25EEE21622E0F20681F750
:103400000E947D110E94C8110E94F60F81E08093F6
:1034100054040E94F8080E94510AE1CE073649F48C
:10342000E0915D04F0E0EF5BFE4F10830E94F8082E
:103430004DCF053709F04ACFE0905D04F12CEE0C3A
:10344000FF1CA701455C5E4F7A01212F30E0AFEFF2
:10345000BFE10E94602824E630E040E050E00E9496
:103460003E28D7012D933C93E1CFDC01BC9243CFA2
:10347000093609F04BC0E091370180915D0490E07E
:10348000EC3068F44CE0489F9001499F300D1124C6
:103490002D5E3E4FE20FF32FF11D108324C0E13269
:1034A00068F445E1489F9001499F300D1124275150
:1034B0003E4FE20FF32FF11D3C97EFCFE13219F4AD
:1034C0001093CB0328CFE23289F4880F991FFC01B7
:1034D000EB53FC4F40E8149F900111248091CB03E3
:1034E000282B318320830E94F80815CFEE3208F094
:1034F00012CF46E0489F9001499F300D1124275D6F
:103500003D4FE20FF32FF11DB797C7CF0A3609F0F1
:1035100002CF103108F4FFCE8CEE810F8930E8F431
:10352000E0915D04F0E0EE0FFF1FE35FFE4F612FBF
:103530006451770B21E030E040E050E004C0220FFE
:10354000331F441F551F6A95D2F7C901208131816D
:10355000822B932B91838083C6CF82EE810F89309B
:10356000F0F4E0915D04F0E0EE0FFF1FE35FFE4F2B
:10357000412F4E51550BCA0121E030E040E050E0B0
:1035800004C0220F331F441F551F8A95D2F7C9016B
:10359000809590952081318182239323DBCF173250
:1035A00039F4E0915D04F0E0EE53FC4F10829BCFC4
:1035B000183241F4E0915D04F0E0EE53FC4F81E0FD
:1035C000808391CF193259F5E0905804F090590456
:1035D000E0915D04F0E0EE0FFF1FEB53FC4FF18232
:1035E000E08222E248E667E080EB0E9480082E2D10
:1035F0002F7749E667E080EB0E94800823E248E6E7
:1036000067E080EB0E9480089701220F232F221F82
:10361000330B49E667E080EB0E94800864CF1A32E2
:1036200031F482E08093AE041092520274CE1B32C9
:10363000A9F52091580430915904E0905D0445E1CA
:10364000E49E70011124B70167517E4F7B01822FE8
:103650008F77DB0153968C9353976901CC0CCD2C5B
:10366000CC1CDD085496CC9220E248E667E080EB63
:103670000E948008F701238949E667E080EB0E94F9
:10368000800821E248E667E080EB0E9480082C2D4C
:1036900049E667E080EB0E9480083DCE1D3209F0CC
:1036A0003ACEF12CE12CC70142960E94F40F682F0C
:1036B000C7010E943D0EFFEFEF1AFF0A22E1E2165A
:1036C000F10489F7ABEDEA2EA2E0FA2EC7010A97C2
:1036D0000E94F40F682FC7010E943D0E3FEFE31ACE
:1036E000F30A45EEE41642E0F40681F714CE0B36F9
:1036F00049F4989EF001999EF00D1124E20FF31FFA
:10370000138324CE0C3609F021CE989EF001999EA9
:10371000F00D1124E20FF31F148318CE652D70E015
:1037200090E080E00E94762820E030E040E850E41D
:103730000E946F2887FD02C00C942B275394F5013B
:1037400050820C942B271082442011F40C944027B3
:10375000F70180819181019691838083F7018081B7
:1037600091818D32914040F0D6018C91811104C03D
:10377000F801E152FC4F3082F40181914F01D301F5
:103780008D933D010F5F1F4FBFEFCB1ADB0AE2E0C5
:10379000EE0EF11C0330110511F00C941627409227
:1037A000AF040E9444046093B0047093B10480930A
:1037B000B2049093B3048091AF04882309F44FC1FD
:1037C0008091F703882351F08091F503882331F02D
:1037D0001092F5031092AF041092F7038091F10359
:1037E000882309F443C08091F00381113FC0809188
:1037F000EF0381113BC0E0915D040E2F10E025E145
:10380000E29FF0011124E751FE4F2289213091F40B
:10381000809176049091770496958795089751F456
:103820001092F1032093EB0380914E048111C6C3E3
:103830000E94D60886E0809FF001819FF00D112440
:10384000E75DFD4F8281882389F080917604909115
:103850007704969587958031910509F0B2C310924F
:10386000F10381E08093EB030E94320A64EF662E3D
:1038700063E0762E71EF872E73E0972EEFEDAE2E7C
:10388000E3E0BE2EFBEECF2EF3E0DF2E10E000E0F3
:10389000EE24E394A5E05A2EB8E24B2EF02ED3018D
:1038A0008D913D01882359F1E0915D048E2F90E0C8
:1038B000FC01EE0FFF1FE80FF91FEE51FC4FE00F68
:1038C000F11F808181110FC08091EE039091EF0371
:1038D000E82FE90FFF27FF1F8091F0038E0F9F2F26
:1038E000911D892B61F4D6018C91811103C08F2D1C
:1038F0000E944A0CF30131971082F6011082D50123
:103900008C91882381F18091EE039091EF03E82F51
:10391000E90FFF27FF1F8091F0038E0F9F2F911D4E
:10392000019709F5E0915D048E2F90E0FC01EE0F08
:10393000FF1FE80FF91FEE51FC4FE00FF11F8081D0
:10394000811111C085E08F0D0E944A0CF801E452EC
:10395000FC4FE082D5011C92F801EE0FFF1FEA52E6
:10396000FC4F11821082F4018081882379F110824A
:1039700080915D0490E0FC01EE0FFF1FE80FF91F3E
:10398000EE51FC4FE00FF11F20812223F9F0509EF1
:10399000F001519EF00D1124489E9001499E300D7A
:1039A0001124E20FF31FE55BFE4FF08021E0F212DD
:1039B00013C3818181110AC024814381628180E91E
:1039C0000E948008F801ED52FC4FF0820F5F1F4FFC
:1039D0006FEF861A960A7FEFA71AB70A8FEFC81AF9
:1039E000D80A0330110509F059CF8091EF038823DD
:1039F000A1F18091F4038823B1F0E0915D048E2F52
:103A000090E0FC01EE0FFF1FE80FF91FEE51FC4F95
:103A10008081811108C01092F40381E08093F70344
:103A200083E00E944A0C8091F6038823B1F0E09174
:103A30005D048E2F90E0FC01EE0FFF1FE80FF91FD1
:103A4000EE51FC4F8181811108C01092F60381E094
:103A50008093F70384E00E944A0C1092AF04809197
:103A600052028823B9F10E9444040091F803109196
:103A7000F9032091FA033091FB03601B710B820B59
:103A8000930B683C71058105910520F10E94440467
:103A90006093F8037093F9038093FA039093FB0308
:103AA00080911204EDE0F7E0882309F4A1C225918A
:103AB00034919FB7F894F901FF272081832F8095D7
:103AC000822380839FBF8091520281508093520253
:103AD000109212041091AE04112309F43DC080919C
:103AE0001204811193C2EDE0F7E0859194912FB714
:103AF000F894FC01FF278081892B80832FBF81E010
:103B0000809312040E94440460930E0470930F0487
:103B100080931004909311048091AE04813071F46D
:103B2000E8E2F4E0AAE7B4E08FEF90E0119211929E
:103B30008D939D9324E0E833F207C1F780915604FA
:103B4000882351F010922704109226048FEF90E002
:103B50009093790480937804F8946AE8862E64E060
:103B6000962ED40190E080E0FC01EE0FFF1FE4569A
:103B7000FB4F208131812D933D9301968930910532
:103B800099F77894609151027091AE04EAE8F4E0FC
:103B900090E080E0663168F071110BC020813181C6
:103BA000DC01A858BB4F4D915C91241B350B318330
:103BB00020832081318137FF02C01182108232962A
:103BC00002968231910531F78091C3019091C40131
:103BD0004EEC5FEF5A01A81AB90A009176041091D1
:103BE0007704A6E2B4E0EAE8F4E090E080E06191D6
:103BF00071912D913D91790142E3E41AF108E616A5
:103C0000F70608F07CC221E030E040E050E0082EEA
:103C100004C0220F331F441F551F0A94D2F76901B5
:103C2000022B1D2901968930910509F7109377041D
:103C30000093760480914F02909150020817190763
:103C400009F489C081E080934E02C8010E941605E4
:103C5000909375048093740480915404882389F0B0
:103C60009801220F232F221F330B319542E767E083
:103C700080EB0E948008202F43E767E080EB0E94E2
:103C800080081093500200934F02B0907304B1105B
:103C90003AC0C8010E94860480934C048F3799F182
:103CA000C12CD12C7601C39404C0CC0CDD1CEE1CBD
:103CB000FF1C8A95D2F7C02AD12AE0907404F090B4
:103CC0007504C6010E941605E81AF90A80E0F7FC9F
:103CD00018C0E0907404F0907504C6010E941605A7
:103CE000E81AF90A82E053E0E516F10454F4E09092
:103CF0007404F0907504C6010E9416056E2D681BB1
:103D0000862F8093C501809174049091750401966B
:103D1000E1F0809174049091750420914D02281770
:103D2000190699F082E0B81681F01093720400939E
:103D30007104EBE3F2E0A8E6B4E08DE492E01192C6
:103D400011921D928E179F07D1F780917404909164
:103D5000750480934D0280916704882309F4A8C0FC
:103D6000F894809120049091210490931F048093F3
:103D70001E04789400911E0410911F048091580431
:103D8000909159048017910709F492C0E0915D0465
:103D900095E1E99FF0011124E751FE4F82898330BC
:103DA000C1F48489A0E88A9FC00111242389822B51
:103DB00020911D042111BBC10596801791074CF479
:103DC00081E080931D0480914E04811102C00E9405
:103DD000D60820914D022C53330B4091CC01429FC9
:103DE000C001439F900D11242091D1013091D20147
:103DF000820F931F9093CE018093CD0180911C047C
:103E0000882309F4A2C10E944404C0901804D090F1
:103E10001904E0901A04F0901B04AB01BC014C198A
:103E20005D096E097F098091CA019091CB01092E2D
:103E3000000CAA0BBB0B481759076A077B0708F44D
:103E400084C110921C0490911C048091E501911191
:103E5000C3C1209117042111BFC1813009F09BC15A
:103E60002091580430915904F801E21BF30B409162
:103E7000C7014E171F060CF08EC12091CF01309163
:103E8000D001201731070CF086C193E090936604AF
:103E900080931C040E9444046093180470931904D6
:103EA00080931A0490931B041093590400935804B0
:103EB000F0912E02F987209166042D83FF2399F05B
:103EC00080912802813061F4213051F00E94440435
:103ED0006093620470936304809364049093650418
:103EE0003D813093280290912304809122044CE07C
:103EF000949F800D11248093510420905D04312CF7
:103F0000F101EA51FE4F10815D81533041F49091EF
:103F10004D021C3009F08DC19E3308F094C16091B0
:103F2000E5016A87633009F092C4113009F4A4C135
:103F30001A3009F4A1C180917604909177048170C0
:103F4000992726E0229DF001239DF00D1124E75DC5
:103F5000FD4F23812817190609F07EC18091510475
:103F6000173009F476C1845F75C170E090E080E09D
:103F70000E94762820E030E040E850E40E94D528F6
:103F800087FDECCBD4011C92F50131972082F3011F
:103F90008081882349F0D6019C91911105C0F801D8
:103FA000EC50FC4F3082482EF801E152FC4F108259
:103FB000F6011082D7011D921C92D0CB0E94B50849
:103FC00039CC029709F052CC1092F10381E0809332
:103FD000EB030E94BD0B4ACC35E0F31203C00E94F4
:103FE000AD04F4CC46E0F4124FC70E949E04EECC20
:103FF000859194912FB7F894FC01FF278081892B3C
:1040000080832FBF81E08093120464CD113009F0CA
:104010004AC00E944404C0900E04D0900F04E09067
:104020001004F09011046C197D098E099F0961310B
:1040300077428105910508F438C70E944404009135
:104040000E0410910F042091100430911104601B94
:10405000710B820B930B613177428105910508F456
:104060007BCD0E94A30F8091D7012EEC3FEF281B40
:104070003109E6E2F4E00CEF13E0B8EFEB2EFF2499
:10408000FA9461917191620F731FC7010E94EA282F
:1040900076956795D8016D937D938D01B4E0E833F3
:1040A000FB0779F759CD123009F056CD0E94440430
:1040B000C0900E04D0900F04E0901004F090110412
:1040C0006C197D098E099F09693873418105910535
:1040D00008F40EC70E94440400910E0410910F04CE
:1040E0002091100430911104601B710B820B930B13
:1040F000693873418105910508F0B3CF2DCD2A0DA4
:104100003B1D2617370708F48DCD41E050E060E0F5
:1041100070E0082E04C0440F551F661F771F0A94D5
:10412000D2F76A01C094D0940C211D217BCD0817D1
:1041300019070CF04ECE10921D0480914E04882376
:1041400009F447CE0E94B50844CE80911704882315
:1041500009F479CE0E944404C0901304D090140452
:10416000E0901504F0901604AB01BC014C195D09F8
:104170006E097F098091C8019091C901092E000C38
:10418000AA0BBB0B481759076A077B0708F45BCEDD
:104190001092170458CE209166042330E9F4882346
:1041A000D9F02091580430915904201B310B4091D3
:1041B000C6014217130684F481E08093660480935D
:1041C00017040E94440460931304709314048093B2
:1041D00015049093160468CE2091CF013091D00140
:1041E0002017310754F081E080936604109359043E
:1041F00000935804109267045BCE813069F480917B
:10420000170491110BC08111F1CF8091CD019091D4
:10421000CE018017910724F082E0E6CF8111E6CF2E
:104220008091CD019091CE0180179107FCF683E03B
:10423000DBCF9E3331F4113009F471CE1A3009F41A
:104240006ECE173021F0845F8093510468CE895F71
:10425000FBCF895F80935104812F877F853029F4BC
:10426000809151048150809351041C3029F4809135
:1042700051048E5F809351040E944404C0905E04F8
:10428000D0905F04E0906004F09061046C197D09A7
:104290008E099F096F3071058105910508F448C2A8
:1042A0000E94440460935E0470935F0480936004F2
:1042B0009093610485E1829DF001839DF00D1124AE
:1042C000E751FE4F8081882309F46DC086E0829D0E
:1042D000F001839DF00D1124E75DFD4F8181811177
:1042E00062C04091CF015091D0018091CD01909159
:1042F000CE01BC01641B750B75956795640F751F26
:10430000AD81A33019F4680F791FAC018091580476
:104310009091590425E1229DF001239DF00D112477
:10432000E751FE4F2181E22FF0E08617970708F052
:10433000B0C2DB01A81BB90B34E1239FF0011124AB
:10434000AE9FC001AF9F900DBE9F900D1124641BC6
:10435000750B0E94EA28669FB0011124B3E07595A1
:104360006795BA95E1F77195619571097093250488
:104370006093240448EC249F90011124809124042C
:10438000909125042817390724F4309325042093AD
:10439000240480917304823031F41092D60110927B
:1043A000D5010E94D70B0091730480915C048111A8
:1043B0008EC2023009F4A5C0011102C00E94BC04E3
:1043C00020917104309172044091D70150E04090E7
:1043D000D3015090D40160914C046F8360907604B7
:1043E00070907704A090D801B090D90190E080E05F
:1043F000682FF901082E02C0F695E7950A94E2F7B6
:10440000E0FF16C0D401ED91FC91E417F50784F4A8
:10441000C12CD12C7601C394082E04C0CC0CDD1C19
:10442000EE1CFF1C0A94D2F7C094D0942C213D219D
:10443000F201062E02C0F695E7950A94E2F7E0FF36
:1044400052C0F901062E02C0F695E7950A94E2F7EC
:10445000E0FD49C0013021F0BF81B81709F443C025
:10446000F401C080D180D30102C0B695A7956A95AA
:10447000E2F7BD01617077274C155D050CF017C29E
:104480006115710509F5DC01AA0FBB1FFD01E55C93
:10449000FD4F7F01A65CBB4FF601E41BF50BCD90F1
:1044A000DC90EC9DD001ED9DB00DFC9DB00D112474
:1044B000B695A795B695A795F701B183A083FC01A2
:1044C000E859FB4FA1E0A083FC01E859FB4FE081D4
:1044D000E13049F4672B39F0FC01EE0FFF1FE55C7A
:1044E000FD4FB182A0820196B2E08B0E911C893003
:1044F000910509F07DCF30937204209371040E94DE
:10450000D70B409158045091590458874F8380919C
:104510005A0490915B04841B950B97FF03C09195FF
:104520008195910903970CF4FBC080915404882372
:10453000D9F06F8178856B01770FEE08FF082C2D7D
:104540002F7744E767E080EB0E948008A70196017F
:10455000F7E05695479537952795FA95D1F746E7B1
:1045600067E080EB0E94800885E1829DF001839DD9
:10457000F00D1124E751FE4F0281013021F07985C1
:10458000713009F0C7C0C090E201D090E301F12C76
:10459000E12C8F8198859C01990F440B550B2C19A8
:1045A0003D094E095F09A0E2B3E00E94332825E1EE
:1045B000229DF001239DF00D1124E751FE4F27812C
:1045C000A8E02A9F900111242C593F4F032E000C84
:1045D000440B550B2C193D094E095F090E94142804
:1045E000E4E6CE2ED12CE12CF12C57FD13C074E85B
:1045F000C72E73E0D72EE12CF12C2132B3E03B071C
:10460000410551053CF469017A01E4E6CE0ED11C66
:10461000E11CF11C85E1829DF001839DF00D1124C8
:10462000E751FE4F8381813009F0FAC284EC9CE1AE
:10463000A1E0B0E08093DE019093DF01A093E00160
:10464000B093E101A7019601C701B6010E94DA28E3
:104650009B01AC01C701B6010E94DA2820E137E2D4
:1046600040E050E00E943E2869017A018090DC0120
:104670009090DD01B12CA12C4090DA015090DB012B
:10468000712C612CA7019601245631094109510969
:10469000C501B40164197509860997090E94DA28D1
:1046A0002091DE013091DF014091E0015091E10164
:1046B00024563109410951090E941428240D351D41
:1046C000461D571D24153505460557050CF0D6C265
:1046D00097E075946794579447949A95D1F7242D51
:1046E0005985513041F4809153048111D6C2822FF3
:1046F000880F8093E401013069F485E1829DF00127
:10470000839DF00D1124E751FE4F4581648180EBBC
:104710000E9480086F81788570935B0460935A04CF
:10472000809157048F5F8A3009F4BAC2809357048E
:10473000F0905304FF2079F020914D0280915204B3
:1047400090E030915104831B910937FD9395281710
:10475000190609F4D0C286E0829DF001839DF00D18
:104760001124E75DFD4F8181BD81B23008F4BCC2E8
:10477000882329F080915004882309F4B7C28091DE
:104780004F048E3391F480914D0220915104022EFA
:10479000000C330B820F932F911D8635910529F460
:1047A00080916704882309F4A1C2E985E111D1C28F
:1047B000133029F480914D028C3309F497C2FA85A5
:1047C000F33061F080915604882341F080917604A3
:1047D000909177048F3F914009F488C2E0904D0298
:1047E000009151040E0D2091E401402F61E080E919
:1047F0000E948008FF2039F020E44091520461E0DB
:1048000080E80E9480080E94440460935E047093D4
:104810005F04809360049093610400935204E092DB
:104820004F0481E08093530485E1829DF001839DD4
:10483000F00D1124E751FE4F8289823009F05BC2EE
:1048400080914E04811157C20E94D6084FC27A85CA
:10485000723009F001CD812F8B7F19F0163009F0ED
:10486000FBCC809177048B871C868B859C8581701F
:10487000992726E0229DF001239DF00D1124E75D8C
:10488000FD4F23812817190609F0E6CC80915104C9
:104890006ACB861B970B8E9FA0018F9F500D9E9F0A
:1048A000500D1124509325044093240463CDFC0142
:1048B000E859FB4F10826115710509F414CEFC0113
:1048C000EE0FFF1FE55CFD4F11821082FDCD01113F
:1048D00002C00E94BC048EEF810F823008F4F5C044
:1048E00080914D048130D1F48091D8019091D9010B
:1048F00020914C04223049F09093400280933F0273
:104900001092420210924102FACD9093420280939B
:1049100041021092400210923F02F1CD823009F024
:10492000EECD812F8B7F09F05DC02091D70130E063
:10493000C0907604D090770400914C04BEE8EB2E32
:10494000B4E0FB2EEBE3F2E082E090E0D7014D9182
:104950005D917D01241735070CF03FC0B601082E8C
:1049600002C0769567950A94E2F760FD36C0081795
:10497000A1F1DC01AA0FBB1FA65CBB4F421B530B6E
:104980000D90BC91A02D4A9FB0014B9F700D5A9F76
:10499000700D112476956795769567957583648378
:1049A00032960397B9F42091D8013091D9018091C2
:1049B0003F02909140024091410250914202840F87
:1049C000951F2817390708F09ACD3093400220939D
:1049D0003F0296CF83E090E0B9CF081709F3158224
:1049E0001482DECF113019F01A3009F088CD4091D1
:1049F00076045091770450FD28C043FD81CF80910B
:104A00009004909191042091D70130E04091D80119
:104A10005091D901281739079CF4821B930B6091A0
:104A2000400470914104869F9001879F300D969FAE
:104A3000300D11243695279536952795421B530B3B
:104A400050934202409341025ACD209190043091FC
:104A500091048091D70190E08217930764F543FD9C
:104A60002FC0013021F040914C044330A9F0281BA5
:104A7000390B4091400450914104249FC001259F6F
:104A8000900D349F900D1124969587959695879556
:104A900090934202809341028091D5019091D6017A
:104AA000811590420CF42BCD8FEF9FE19093420241
:104AB0008093410224CD2817390714F043FFECCF2F
:104AC0001092420210924102E7CF8BE3C82E82E09F
:104AD000D82E92E0E92EF12C00914C0460917604DE
:104AE000709177040E1102C070FD5CC0AB010E2CFA
:104AF00002C0569547950A94E2F740FD8DC030916B
:104B00004E023323D1F081E090E0A0E0B0E00E2C23
:104B100004C0880F991FAA1FBB1F0A94D2F7862BC7
:104B2000972B90937704809376040E9416059093B8
:104B300039048093380410924E0220914D028091E6
:104B40003804909139042817190661F5F701EE0F22
:104B5000FF1FDF01A657BB4F8D919C912091D7017C
:104B6000281719060CF04BC0DF01AA5DBB4F2D9131
:104B70003C9122533109281B390BE65CFB4F4081E5
:104B80005181249FC001259F900D349F900D1124C9
:104B90009695879596958795919581959109F601BA
:104BA00095838483F2E0CF0ED11C23E0E216F1045A
:104BB00011F52091D8013091D90180913F02909157
:104BC00040024091410250914202840F951F9195FD
:104BD000819591092817390708F091CC02500230CD
:104BE00030F4809176049091770490FD88CC3195D3
:104BF00021953109EACE03E0E02EF12C6DCF8091B2
:104C0000D8019091D901919581959109D601159678
:104C10009C938E931497C6CFF60115821482C2CF4F
:104C20008230F9F424E83CE140E050E02093DE01DA
:104C30003093DF014093E0015093E10160E17CE5B6
:104C40008CE090E0A70196010E943E2868E0C62E05
:104C500060E2D62EE12CF12CC21AD30AE40AF50A3E
:104C600005CD44E853E060E070E04093DE015093EE
:104C7000DF016093E0017093E101F8CC82169306A6
:104C8000A406B50614F4A501940187E0559547954F
:104C9000379527958A95D1F723CD2093E4012BCD25
:104CA00010925704E5E1F7E085919491A82FA25066
:104CB000BB0BFD018081892321E009F420E02093D2
:104CC000560480915504821709F432CD209355047F
:104CD00080915404882309F42BCD285846E667E0D8
:104CE00080EB0E94800824CD811144CD8091530433
:104CF000882309F444C086E0829DF001839DF00D75
:104D00001124E75DFD4F81813D81313009F041C0C3
:104D1000882321F08091500481113DC020E440910E
:104D2000520461E080E80E9480081092530485E1FB
:104D3000829DF001839DF00D1124E751FE4F828981
:104D40008230E9F480914E048823C9F00E94B508AE
:104D500016C0F1102DCD0E94440480906204909002
:104D60006304A0906404B0906504681979098A0905
:104D70009B09643171058105910508F019CD80E02A
:104D800090E0892B11F40C94CE160E9400000C9434
:104D9000CE168111BFCF133029F480914D028C3390
:104DA00009F4BCCF4A85433051F3809156048823DF
:104DB00031F380917604909177048F3F9140F9F61A
:104DC000ADCF0E9444040091B0041091B104209131
:104DD000B2043091B304601B710B820B930B6530EE
:104DE00071058105910510F40C94DB1B4090AF0414
:104DF0006AE772E07E836D8340EDA42E43E0B42E1B
:104E00005EEE852E53E0952E6DEC662E63E0762ED9
:104E10007CEDC72E73E0D72EE6EDEE2EE3E0FE2EFE
:104E200010E000E0F4E02F2E33243394AD81BE81F6
:104E30008D919D91BE83AD83282F2250330BF901B4
:104E40008081D5015C90892311F00C948E1B552034
:104E500011F05A945C92D5016D915D01611185C884
:104E6000F4013082D3014C90F801EF50FC4F411017
:104E70000C94A31BD6018C9181110C94A31B30823E
:104E8000442443940C94AE1B6AE0809122048F5F0B
:104E9000F61639F05BE0F5120C94E61C80912204C2
:104EA0008150809322040C94E61CE6E2F4E02CE8A6
:104EB00034E06AE774E0D9018D919D919D014281B2
:104EC00053814817590710F493838283DB014D9176
:104ED0005D91BD018417950734F4AD01425051092D
:104EE000DA018D939C933296B4E0E633FB0719F711
:104EF000809156048823D1F080918A0490918B048C
:104F000020912604309127042817390720F4909324
:104F10002704809326042091780430917904821725
:104F2000930724F49093790480937804113009F462
:104F300084C8123009F4CEC80C94AC1DCF93DF9313
:104F400082E08093C1048093C20487EC94E0909344
:104F5000C4048093C3041092C6041092C50480E672
:104F600092E09093BE048093BD0480E88093C704D0
:104F700081E88093C8040E945004FC0181819091D3
:104F8000C104482F490F5527551F483051059CF53E
:104F9000A281B381109709F52DEB34E0338322838E
:104FA00020812093BF048093C0048091C204820FAB
:104FB00080832091C304A22FB091C4048A2F821B46
:104FC0008917C8F481813D91C82FD0E0CC5FDE4FB6
:104FD00038838F5F8183F2CFD90118962D913C9150
:104FE000199721153105C1F72DEB34E019963C9343
:104FF0002E931897D5CFDF91CF910895F999FECFD1
:1050000092BD81BDF89A992780B50895262FF99908
:10501000FECF1FBA92BD81BD20BD0FB6F894FA9A9B
:10502000F99A0FBE01960895052E97FB1EF4009481
:105030000E942B2857FD07D00E943E2807FC03D072
:105040004EF40C942B2850954095309521953F4F68
:105050004F4F5F4F089590958095709561957F4F64
:105060008F4F9F4F08950E946028A59F900DB49F79
:10507000900DA49F800D911D11240895A1E21A2E78
:10508000AA1BBB1BFD010DC0AA1FBB1FEE1FFF1FEC
:10509000A217B307E407F50720F0A21BB30BE40B3C
:1050A000F50B661F771F881F991F1A9469F7609583
:1050B0007095809590959B01AC01BD01CF0108953D
:1050C000A29FB001B39FC001A39F700D811D112449
:1050D000911DB29F700D811D1124911D08950E9494
:1050E000B12808F481E00895E89409C097FB3EF4E4
:1050F00090958095709561957F4F8F4F9F4F992325
:10510000A9F0F92F96E9BB279395F69587957795A2
:105110006795B795F111F8CFFAF4BB0F11F460FF62
:105120001BC06F5F7F4F8F4F9F4F16C0882311F0BA
:1051300096E911C0772321F09EE8872F762F05C0CE
:10514000662371F096E8862F70E060E02AF09A9569
:10515000660F771F881FDAF7880F9695879597F95E
:105160000895990F0008550FAA0BE0E8FEEF1616F8
:105170001706E807F907C0F012161306E407F5074B
:1051800098F0621B730B840B950B39F40A2661F0BF
:10519000232B242B252B21F408950A2609F4A14062
:1051A000A6958FEF811D811D08950E94B12808F4F6
:1051B0008FEF0895DB018F939F930E943328BF9157
:1051C000AF91A29F800D911DA39F900DB29F900D56
:1051D00011240895AA1BBB1B51E107C0AA1FBB1FC6
:1051E000A617B70710F0A61BB70B881F991F5A9573
:1051F000A9F780959095BC01CD010895EE0FFF1F92
:0C5200000590F491E02D0994F894FFCF84
:10520C0001FF1F0F00C180810000006904FF00FF37
:10521C0000FF000F0F0F0F1E1E03070A0709090FCF
:10522C000F0F0F1E1E03070A0709090F0F0F0F1E82
:10523C001E03070A070909640000080004000400A3
:10524C00040A0A0A640101000101020200000000C4
:10525C00080000000003000000000500000000062C
:10526C000000000000000000000000000000000032
:10527C000000000200000000080000000003000015
:10528C000000050000000006000000000000000007
:10529C000000000000000000000000020000000000
:1052AC0008000000000300000000050000000006DC
:1052BC0000000000000000000000000000000000E2
:1052CC000000000400010F0F0F000F000FFF00047F
:1052DC00010000FF01FF1F0A00047F00FF3F2003B5
:1052EC0000006400400100010200030000010700FF
:1052FC0064007F000133240001332400000000030C
:10530C00000001070064007F0001332400013324F6
:10531C000000000003000001070064007F0001335F
:10532C0024000133240000000100000000000000F4
:10533C000000000000000000000100FF1FFF1FFF25
:10534C001FFF1FFF1FFF1FFF1FFF1FFF1FFF01017D
:10535C0000160105090A000102030B0600000000FB
:10536C00670407076404330E25802B802510284022
:10537C002E402B082B042B012B022502250825047B
:06538C004D4944490000F8
:00000001FF
