:100000000C946F040C9497040C9497040C9497042C
:100010000C9497040C9497040C9497040C949704F4
:100020000C9497040C9497040C946A1B0C94D31BA7
:100030000C9497040C9497040C9497040C949704D4
:100040000C9497040C9497040C9497040C949704C4
:100050000C94781D0C9497040C9497040C94201B1A
:100060000C9497040C9497040C9497040C949704A4
:100070000C9497040C949F1D0C9497040C94970473
:100080000C9497040C9497040C9497040C94970484
:100090000C9497040C9497040C9497040C94970474
:1000A0000C9497040C9497040C949704484848487F
:1000B00048484848484848484848484848484848C0
:1000C00048484848484848484848484847474747B4
:1000D00047474747474747474747474745454545B8
:1000E00045454545434343434242403E4A4A4A4AC6
:1000F0004A4A4A4A4A4A4A4A4A4A4A494848484869
:1001000048484848454545454343413E4949494992
:10011000494949494949494949494949494949494F
:100120004949494949494949494949494848484843
:10013000484848484848484848484848484848483F
:10014000484848484848484848484A4A4746464632
:10015000464646464646464646464646474646463E
:100160004646464646464646464646464545454434
:100170004544444445444444444444444343434341
:10018000424242424141414140403E3F3D3D3D3D72
:100190003D3D3D3D3D3D3D3D3D3D3D3D3C303C3C9F
:1001A0003C3C3C3C3C3C3C3C3C3C3C3C3B2F3B3B9F
:1001B0003B3B3B3B3B3B3B3B3B3B3B3B392D3939A3
:1001C00039393939372B363735353432444444449C
:1001D00044444444444444444444444444444444DF
:1001E00044444444444444444444444443434343D3
:1001F00043434343434343434343434341414141D7
:1002000041414141404040403F3F3E3C00000000F2
:1002100000000000000000000000000000000000DE
:1002200000000000000000000000000000000000CE
:1002300000000000000000000000000000000000BE
:100240000000000000000000000000004646464696
:10025000464646464646464646464646464646463E
:10026000464646464646464646464646464646462E
:10027000464646464646464646464646464646461E
:100280004646464646464646464646464545454512
:10029000454545454545454545454545454545450E
:1002A0004545454545454545454545454444444402
:1002B0004444444444444444444444444343434302
:1002C00043434343424242424141403E5E5E5E5EA2
:1002D0005E5E5E5E5E5E5E5E5E5E5E5E5E5E5B5E41
:1002E0005D5D5A5A5C5C595C5B5B585B595656596C
:1002F00058585555575754545656535341413E41FB
:1003000040403D3D3F3F3C3C3E3E3B3B52524F52C6
:1003100051514E4E50504D504F4F4C4F4646434614
:100320004545424244444144434340434D4D4A4D78
:100330004C4C49494B4B48484A4A47473A3A373A66
:100340003939363638383535373734344B4A4A49F7
:100350004A4949484A494948494848474A49494811
:1003600049484847494848474D4C4C4B4A494948F9
:10037000494847464E4D4D4C4D4C4C4B48474746DF
:10038000474646454D4C4C4B4C4B4B4A49484847D9
:1003900048474645484746454746464548474746F5
:1003A00047464645474646454645454447464645F1
:1003B00046454544464545444544444345444443F5
:1003C000444343424342424141403E3F4B4B4B4BEF
:1003D0004B4B4B4B4B4B4B4B4B4B4B4A636363630E
:1003E0006363636362626161605F5E5D555555552D
:1003F000555555555D4B4B49494949495C5C5C4AEB
:100400005C4A4A4A5B4A5A4A5958575654545449C6
:100410004949545454494949494949495353535303
:100420005353534B4B4B4B4B4B4B534B52525252E0
:1004300052525252525252525151515250505050A7
:10044000505050504F4F4E4E4D4C4B4A4A4A4A4ADC
:100450004A4A4A4A4A4A4A4A4A4A4A4A4A4A4A4AFC
:100460004A4A4A4A4A4A4A4A4A4A4A4A49494949F0
:100470004949494949494949494949494B4B4B4BE4
:100480004B4B4B494B4B4B4B4B4B4B4B48484848CA
:10049000484848484848484848484848474A4747DD
:1004A00047474747474747474747474746464646E0
:1004B00046464646454646464545464644444444E7
:1004C000444444444343424241403F3E4B4B4B4BE8
:1004D0004B4B4B4B4B4B4B4B4B4B4B4A4B4B4B4B6D
:1004E0004B4B4B4B4B4B4B4B4B4B4B4B4B4B4B4B5C
:1004F0004B4B4B4B4B4B4B4949494949504A4A4A54
:100500004A4A4A4A4F4A4E4A4D4A4B4A5454544921
:100510004949545454494949494949495353535302
:100520005353534B4B4B4B4B4B4B534B52525252DF
:1005300052525252525252525151515250505050A6
:10054000505050504F4F4E4E4D4C4B4A4A4A4A4ADB
:100550004A4A4A4A4A4A4A4A4A4A4A4A4A4A4A4AFB
:100560004A4A4A4A4A4A4A4A4A4A4A4A49494949EF
:100570004949494949494949494949494B4B4B4BE3
:100580004B4B4B494B4B4B4B4B4B4B4B48484848C9
:10059000484848484848484848484848474A4747DC
:1005A00047474747474747474747474746464646DF
:1005B00046464646454646464545464644444444E6
:1005C000444444444343424241403F3E7F3C003E1A
:1005D0000140024203430445054706494B4A4A4A43
:1005E0004A4A4A4A4A4A4A4A4A4A4A4A4A4A4A4A6B
:1005F0004A4A4A4A4A4A4A4A4A4A4A4A4A4A4A4A5B
:100600004A4A4A4A4A4A4A4A4B4A4A4A494A4A4A4A
:100610004A4A4A4A4A4A4A4A4A4A4A4A494949493E
:10062000494949494949494949494949494949493A
:10063000494949494848484848484848474747473A
:1006400047474747474747474647463F454545454C
:1006500044454444434445434241403E4848484859
:10066000484848484848484848484848484848480A
:1006700048484848484848484848484848484848FA
:1006800048484848484848484848484848484848EA
:1006900048484848484848484848484947474747DD
:1006A00047474747474747474747474747474747DA
:1006B00047474747474746464747464745454545D5
:1006C00045454545454545454545454543434343E2
:1006D0004343434342424141403F3E3C490049027B
:1006E00049004900490049014900490049004900C1
:1006F00049004900490049004900490049004900B2
:1007000049004900490049004900490049004900A1
:100710004900490049004900490049004900490091
:100720004900490049004900490049004900490081
:10073000490049004900490049004900480248026F
:100740004800480248014801480048014800480262
:100750004800480049004801480049004700470256
:10076000470047024700470147004701460047004E
:100770004600470047004700470047004700470042
:100780004700470047004700470047004700470031
:100790004700470047004700470047004500450223
:1007A000450045024500450145004501440045001E
:1007B0004400450045004500450045004300430214
:1007C000430043024300430143004301420042000F
:1007D00041004200400040003F003E004900490007
:1007E00049004900490049004900490049004900C1
:1007F00049004900490049004900490049004900B1
:1008000049004900490049004900480048024801A0
:10081000480148014800480048004A004702470193
:10082000470147014700470047004700470047008E
:100830004700470047004700460046004502450183
:100840004501450145004400450044004302430181
:10085000430143014200410040003E0004030904FB
:100860001201000200000040D80487EE00010102DE
:1008700003014D6F77727920537472696E676564F6
:1008800020496E737472756D656E747300574152B2
:10089000424C002B042B082B022B012B1028402B41
:1008A000802E4025102520254025802B402880259E
:1008B00008250225042501318031403120311031D5
:1008C0000231012B102B802510252025402B4007BD
:1008D0000605040100080A0B0C0D0900742C1124F4
:1008E0001FBECFEFDAE0DEBFCDBF12E0A0E0B1E087
:1008F000E4EEFDE502C005900D92AC39B107D9F7E1
:1009000025E0ACE9B2E001C01D92A738B207E1F7DB
:1009100014E0CFE6D4E004C02197FE010E94EA2E45
:10092000CE36D107C9F70E945E1E0C94F02E0C94AF
:10093000000090918605911123C091E09093860567
:100940002091670230916802882321F0209165028E
:10095000309166022F5F3F4F3093850520938405C9
:1009600010928305109282051092810510928005E5
:1009700010927F0510927E0510927D0510927C05E5
:100980002091840530918505121613060CF054C091
:1009900021503109309385052093840540918205CB
:1009A00050918305452B61F481E090E0909383059D
:1009B00080938205709381056093800580E02BC051
:1009C0001092830510928205409180055091810517
:1009D000640F751F40917C0550917D051416150616
:1009E00014F5FB01E41BF50BAF01E0917E05F091DE
:1009F0007F05F0937D05E0937C0570937F05609300
:100A00007E05403DF7E05F07C9F281110FC081E02C
:100A1000141615069CF2232B11F0882369F010920E
:100A2000860582E0089540ED57E0DFCF852F809561
:100A3000881F8827881FEFCF80917A050895E3EDFE
:100A4000F8E0E49190917B008E2F880F880F8072E0
:100A50009F7D892B80937B00E770E064E0937C00AE
:100A600080917A00806480937A0080917A0086FD7C
:100A7000FCCF809178009091790008953FB7F89469
:100A80008091760590917705A0917805B0917905D0
:100A900026B5A89B05C02F3F19F00196A11DB11DD9
:100AA0003FBFBA2FA92F982F8827BC01CD01620F15
:100AB000711D811D911D43E0660F771F881F991FCF
:100AC0004A95D1F708958F929F92AF92BF92CF929D
:100AD000DF92EF92FF924B015C010E943E056B0199
:100AE0007C010E943E056C197D098E099F09683EB4
:100AF000734081059105A8F321E0821A9108A108AD
:100B0000B10888EEC80E83E0D81EE11CF11C8114E8
:100B10009104A104B10429F7FF90EF90DF90CF90EA
:100B2000BF90AF909F908F9008952FB7F8946091E9
:100B300072057091730580917405909175052FBFB2
:100B4000089540911B0350911C032091190330918B
:100B50001A0342175307B4F49091E8009570E1F33B
:100B60009091E80092FD19C08093F10080911B03E1
:100B700090911C0301968F739927892B19F48EEF9E
:100B80008093E80080911B0390911C030196909341
:100B90001C0380931B0381E0089580E00895EF9289
:100BA000FF920F931F93CF93DF93F82E192FE62E0A
:100BB000042F81E0860F880F0E94A10583E00E9428
:100BC000A105CF2DD12FEC0EFD2EF11CCE15DF058A
:100BD000B9F007FF13C0FE0184910E94A105182FF0
:100BE00080E00E94A105812321968111EFCFDF9142
:100BF000CF911F910F91FF90EF9008958881EDCFD5
:100C000081E0F5CFDF92EF92FF920F931F93CF9386
:100C1000DF93D82E8A01EB017B01E40EF51ECE1581
:100C2000DF0559F0D7FE12C0FE0184910E94A10594
:100C300021968111F4CF0FEF1FEFC801DF91CF9103
:100C40001F910F91FF90EF90DF9008958881EECF74
:100C50006F927F928F929F92AF92BF92CF92DF92CC
:100C6000EF92FF920F931F93CF93DF93C82E8B01C8
:100C70007A0180912403811111C08FEF9FEFDF91E2
:100C8000CF911F910F91FF90EF90DF90CF90BF9089
:100C9000AF909F908F907F906F90089580911E03EA
:100CA00080FF05C08091E00082608093E000CE2D3F
:100CB000DF2DD12C8AEFB82E8C2D8770982E90E4E2
:100CC000892E8C2D8072782E8C2D8074682E2AE3CC
:100CD000A22E209719F4DD2009F45DC08FB7F89497
:100CE0009092E9009091E80095FD0BC08FBFBA94F7
:100CF000BB2019F261E070E080E090E00E946305A3
:100D0000E8CF9091F200282D291B8FBF222379F381
:100D10002C171D0611F00CF02C2F3FB7F894909271
:100D2000E9008091E80085FD02C03FBFD2CF822F4D
:100D300090E0C81BD90B772029F02150A0F0109229
:100D4000F100FBCFF801C7FC0AC0215050F04191DF
:100D50004093F100FACF44914093F1003196215035
:100D6000D0F7080F191FDD2021F0A092E800D12C48
:100D7000DCCF8091E80085FD07C0A092E800DD246B
:100D8000D394209791F2F3CF209779F6662069F2F9
:100D9000A092E800CACF84E680931D03C7016FCFFD
:100DA00080910A0381110BC01092060381E08093A9
:100DB0000703109209031092080380930A0386E048
:100DC00093E008950F931F93CF93DF931F92CDB7B6
:100DD000DEB719820E94D006DC0112960D911C919B
:100DE0000115110589F0D801ED91FC910280F38184
:100DF000E02DBE016F5F7F4FC801099597FD04C0CC
:100E0000F80100851185ECCF89810F90DF91CF919A
:100E10001F910F91089590E080E0089580E008957B
:100E20000F931F93CF93DF93CDB7DEB7C456D1098D
:100E30000FB6F894DEBF0FBECDBFFC01DB019C9165
:100E40009E5F9C939E01295F3F4F8AE5D9011D92C9
:100E50008A95E9F788E089838BE08A8322E02C83F6
:100E600091E09D839E8339E0398764E06A879E879D
:100E70009F873A8B44E24B8B9C8BA0E0B1E0BE8B0A
:100E8000AD8B09E010E0188F0F8B998F3B8F6C8F23
:100E90002F8F98A353E059A387E08CA34DA39EA363
:100EA000B8A7AFA3A1E4B0E0BAA7A9A786E08BA733
:100EB0004CA72DA79EA79FA789AB4AAB2BAB2CAB0A
:100EC0002DAB3FAB48AF59AF9AAF5BAF9CAF2DAFE7
:100ED0009EAF21963FAF219722964FAF2297239640
:100EE0005FAF239724962FAF249725966FAF259752
:100EF00026969FAF269727969FAF279728969FAF56
:100F000028972A963FAF2A9745E02B964FAF2B970D
:100F10002D962FAF2D9760E470E02F967FAF6EAFC8
:100F20002F9763964FAF639785E264968FAF649770
:100F300065969FAF659766969FAF669767969FAFDA
:100F4000679768963FAF689769964FAF69976B96BA
:100F50002FAF6B976D967FAF6EAF6D97A1964FAF2A
:100F6000A197A2968FAFA297A3969FAFA397A4969F
:100F70009FAFA497A5965FAFA59792819B839B8710
:100F80009F5F9A8F9D8F83812C968FAF2C978F5F59
:100F900080686A968FAF6A9744E650E0BE016F5F43
:100FA0007F4F80E00E940206CC59DF4F0FB6F894C5
:100FB000DEBF0FBECDBFDF91CF911F910F9108957E
:100FC0000895AF92BF92CF92DF92EF92FF921F935C
:100FD000CF93DF93182F80910C0590910D058456C7
:100FE0009109092E000CAA0BBB0BE12FF0E05F0169
:100FF00023E0AA0CBB1C2A95E1F7B501655E7E4F84
:10100000EB012881398150E040E082179307A40763
:10101000B5075CF02A813B8150E040E082179307DE
:10102000A407B50714F49C01AD01DF01AA0FBB1F93
:10103000AA0FBB1FA051BD4F6D917D918D919C91C9
:101040000E94B22E6B017C01DAE0F694E794D7940B
:10105000C794DA95D1F7D501A55EBE4F14968D9150
:101060009C91C81AD90AE108F108DF01A451BD4FCB
:101070008C91813009F043C0A7019601C701B601E8
:101080000E94B22E9B01AC01C701B6010E94B22E94
:101090006B017C01A4E1F594E794D794C794AA95D9
:1010A000D1F7EE0FFF1FED5EFE4F6081A181B0E032
:1010B000E62FF0E0AE1BBF0BA70196010E94152D95
:1010C0002AE095958795779567952A95D1F76E0FC4
:1010D0007F1FE501C55EDE4F7F836E83113029F4EB
:1010E000662309F45EC060938B01DF91CF911F915D
:1010F000FF90EF90DF90CF90BF90AF900895823037
:1011000081F6D701C60176E0B595A79597958795A5
:101110007A95D1F783309105A105B10524F5813089
:101120009105A105B10594F5892B8A2B8B2B31F103
:1011300043E0F594E794D794C7944A95D1F7C5E86E
:10114000CC0EC3E0DC1EE11CF11CD1E0CD16D4E0D6
:10115000DD06E104F1040CF4A4CFC12C34E0D32E5D
:10116000E12CF12C9ECF0697A105B1050CF786E383
:10117000C80E82E0D81EE11CF11C93CF63E0CC0CBA
:10118000DD1CEE1CFF1C6A95D1F78BCFCC0CDD1C4F
:10119000EE1CFF1CD8E7CD0ED1E0DD1EE11CF11CDA
:1011A00080CF10938B01A1CF823108F08251E82FBC
:1011B000F0E0E153F74FE49190917B008E2F880F80
:1011C000880F80729F7D892B80937B00E770E0649D
:1011D000E0937C0080917A00886480937A0008957F
:1011E0009C012F5F3F4F28233923232B79F050E0B8
:1011F00040E020E0181619063CF480FF242F959556
:1012000087954F5F5F4FF6CF822F08958FE7089540
:101210008091FD048D3F54F0E0911D05F0E0E75111
:10122000FD4F8081815080838093FD0408958091DB
:10123000FD04833054F4E0911D05F0E0E751FD4FCB
:1012400080818F5F80838093FD040895CF93DF9327
:1012500000D000D0CDB7DEB76150F894282F30E031
:1012600094E0359527959A95E1F729836F70862B41
:101270008A834F774B831C828091330444E050E093
:10128000BE016F5F7F4F8F5F0E94280680913304FD
:101290008F5F8093E9008091F200882319F08AE340
:1012A0008093E80078940F900F900F900F90DF914B
:1012B000CF910895CF93DF9300D000D0CDB7DEB7A4
:1012C0006150F894E82FF0E094E0F595E7959A9551
:1012D000E1F7E9836F70862B8A834F774B832F77F3
:1012E0002C838091330444E050E0BE016F5F7F4F58
:1012F0008F5F0E942806809133048F5F8093E900FE
:101300008091F200882319F08AE38093E8007894B2
:101310000F900F900F900F90DF91CF910895EF9263
:10132000FF921F93CF93DF93182FE0911D05CE2FCF
:10133000D0E081E3E89FF0011124EB56FE4F82815B
:101340008130F9F4E0902101F090220180910403B2
:1013500090910503E816F90611F4112391F081E349
:101360008C9FF0018D9FF00D1124EB56FE4F2E2D1A
:101370004581648180EB0E945A09F0920503E09256
:1013800004038DE08C9FF0018D9FF00D1124E75D2B
:10139000FD4FF680F0FE24C080910305811109C045
:1013A00080910C0590910D05D0E0C0E08536910547
:1013B00024F0C0913101D0913201809102039091CB
:1013C00003038C179D0711F4112351F04C2F6091EA
:1013D0008C0180ED0E942609D0930303C093020381
:1013E000F1FE1EC0809103058823D1F020913901C0
:1013F000C22F80913A01D82F809100039091010370
:101400008C179D0711F4112359F04091020560914A
:101410008C0180EA0E945A09D0930103C093000313
:10142000DF91CF911F91FF90EF9008954F925F92BF
:101430006F927F928F929F92AF92BF92CF92DF92E4
:10144000EF92FF920F931F93CF93DF93C0911D05EF
:10145000D0E0CE01880F991FFC01E05CFE4F208197
:1014600031813093120120931101FE01E751FD4FAC
:1014700020812093FD04FE01E958FE4F2081209336
:10148000FC04FE01EE56FE4F908090922E05FE0168
:10149000E35CFE4FA08021E0A11001C020E020937A
:1014A000E802FC01E45BFE4FE080F180F092E7028D
:1014B000E092E602FE01E058FE4F5080509210018B
:1014C00086589E4FDC01CD90DC90D0920F01C092E7
:1014D0000E01FE01EC57FE4F808180938D01FE01CD
:1014E000E75BFE4FB080B0929101FE01EA5BFE4FD8
:1014F000808080928C018CE08C9F80018D9F100DEC
:1015000011240E5A1E4FF801618570E06F5F7F4F06
:10151000072E000C880B990B0E94FD2D20E030E077
:1015200040EA5FE30E94532D0E94CC2D6093870117
:101530008DE08C9FF0018D9FF00D1124E75DFD4F34
:101540008081F6E08F9F000D111D1124D8017C9041
:1015500070920D0111968C91119780930C01129647
:101560008C91129780930B0114966C9170E06F5FD1
:101570007F4F072E000C880B990B0E94FD2D20E059
:1015800030E040EA5FE30E94532D0E94C52D709326
:10159000680260936702F801658170E06F5F7F4FBA
:1015A000072E000C880B990B0E94FD2D20E030E0E7
:1015B00040EA5FE30E94532D0E94C52D709366029E
:1015C0006093650280E090E290930A0180930901A4
:1015D0001092E5021092E40220E440E0682D80EED3
:1015E0000E945A09E0E5F2E0A3E2B5E011921192FF
:1015F0001D9222E0E236F207C9F78DE08C9FF001E0
:101600008D9FF00D1124E75DFD4F8481882309F43F
:1016100040C142E0941609F43CC181E08093E302AA
:101620008DE08C9FF0018D9FF00D1124E75DFD4F43
:101630008781882309F430C18FE780938B01A11043
:101640002DC180912103909122030396909306016E
:1016500080930501A4E07A9EC00111242091050128
:1016600030910601820F931F909308018093070128
:101670002B2D30E08FEF9FE3B9010E94D62E7B0126
:1016800013E0EE0CFF1C1A95E1F7C601B9010E94A8
:10169000C22E6B013B0104E0660C771C0A95E1F752
:1016A00008EE14E081ED882E82E0982E9FEBA92EA3
:1016B00092E0B92E8EEC9FEFFC01E519F1092F01A4
:1016C000D801ED91FD918D01E40DF51DC701BF011C
:1016D0000E94C22E76956795D4016D937D934D013E
:1016E000C301BF010E94C22E76956795F5016193F3
:1016F00071935F01F4E00A3F1F0711F7D092BE0219
:10170000C092BD0280E090E2B9010E94D62E709393
:1017100004016093030181E38C9FF0018D9FF00D24
:101720001124EB56FE4F268189E0289F9001112459
:1017300030931C0120931B012781289F90011124C5
:1017400030931E0120931D012589289F90011124AB
:1017500030932401209323012689289F900111248E
:101760003093260120932501218D289F900111247B
:1017700030932C0120932B01228D289F900111245E
:1017800030932E0120932D01258D289F9001112447
:101790003093340120933301968D989FC00111241A
:1017A00090933601809335010BE111E030EFC32EA9
:1017B00032E0D32E4BE3A42E41E0B42E412C512C29
:1017C00050E1652E712CD801ED90FC901197129686
:1017D0002D913C912E193F0950E040E0C301B20128
:1017E0000E94EB2CF60121933193419351936F01A9
:1017F000D7010E940A2D2AE09695879577956795DF
:101800002A95D1F7D80115967C936E931497085FAB
:101810001F4FA016B106B9F681E38C9FF0018D9F92
:10182000F00D1124EB56FE4F8085809313018185C6
:1018300080931401878980931501808D8093160110
:10184000838D80931701848D80931801878D8093F9
:10185000190180A180931A0183818093EC0281A1F8
:101860008093ED0282A18093EE0283A18093EF0228
:10187000DF91CF911F910F91FF90EF90DF90CF906C
:10188000BF90AF909F908F907F906F905F904F90A0
:1018900008951092E302C4CE80E4CFCE53E0E50E6B
:1018A000F11CF0920601E0920501D4CE1092FE04E4
:1018B000E0911D0581E3E89FF0011124EB56FE4FF6
:1018C0008685813051F018F0823061F008952189C9
:1018D0004089678580E90C945A0921894089678588
:1018E00080E8F9CF21894089678580EBF4CF81E0DA
:1018F0008093FE04E0911D0581E3E89FF00111242F
:10190000EB56FE4F8285813051F018F0823061F045
:10191000089525854485638580E90C945A092585B9
:101920004485638580E8F9CF25854485638580EB10
:10193000F4CFE0911D05F0E0EE56FE4F80818F5F01
:10194000843099F080830E94160A20912E0581E050
:10195000820F8093640280910B05882341F02A5BFB
:1019600046E667E080EB0C945A091082ECCF0895AC
:10197000EF92FF920F931F93CF93DF9325E14EE6F3
:1019800067E080EB0E945A090EE811E027E7E22E9B
:1019900021E0F22ECEE12C2F46E667E080EB0E949C
:1019A0005A09F80121918F012F5D46E667E080EB2F
:1019B0000E945A09F70121917F0141E54C0F27FD53
:1019C0007CC167E080EB0E945A09CF5FC13219F7F2
:1019D000C0911D052CE32C0F46E667E080EB0E94CA
:1019E0005A0920912E042B5A46E667E080EB0E94AC
:1019F0005A092091100147E667E080EB0E945A09DE
:101A000020910E0130910F01A4E6B0E00E943F2D1D
:101A10002FEF3FE140E050E00E941D2D45E767E0D9
:101A200080EB0E945A0920912E052A5B46E667E06A
:101A300080EB0E945A0920918D01205B46E667E009
:101A400080EB0E945A0920910505285846E667E078
:101A500080EB0E945A092091E802295D4AE667E07E
:101A600080EB0E945A0922E248E667E080EB0E9480
:101A70005A090091E6021091E702202F2F7749E6DC
:101A800067E080EB0E945A0923E248E667E080EBBA
:101A90000E945A099801220F232F221F330B49E677
:101AA00067E080EB0E945A092DE348E667E080EB8F
:101AB0000E945A092091910149E667E080EB0E945B
:101AC0005A092EE348E667E080EB0E945A0920910C
:101AD0008C0149E667E080EB0E945A0910E000E0C3
:101AE000EC2EF12CEE0CFF1C9701205C3E4F79018F
:101AF000DAE0F70180819181002E02C096958795EA
:101B00000A94E2F7817024E1200F8D9F200D1124AB
:101B10004AE667E080EB0E945A090F5F1F4F0930C9
:101B2000110539F7F8E2CF9F800111240B5B1B4FA1
:101B3000DAE52D2F46E667E080EB0E945A09F801AE
:101B4000F08024E62F0D46E667E080EB0E945A09FC
:101B5000F1E0FF121DC0F8012181205946E667E03F
:101B600080EB0E945A09F80122814AE667E080EB87
:101B70000E945A09F80123814BE667E080EB0E943E
:101B80005A09F80124814CE667E080EB0E945A096B
:101B9000DF5F0B5F1F4FD23661F6FDE0CF9F700114
:101BA000112410E000E028E2200F48E667E080EB17
:101BB0000E945A09F801EE0DFF1DE75DFD4F2081DF
:101BC00049E667E080EB0E945A090F5F1F4F0D3016
:101BD000110549F721E3C29FC0011124FC01EB5616
:101BE000FE4F7F0110E000E02DE0200F48E667E0A7
:101BF00080EB0E945A09F701E00FF11F208149E6AE
:101C000067E080EB0E945A090F5F1F4F05311105F5
:101C100059F705E110E021E3200F48E667E080EB8B
:101C20000E945A09F701E00FF11F208149E667E0A1
:101C300080EB0E945A090F5F1F4F0133110559F7BE
:101C4000F3E0CF9F8001112407531B4FDAE52D2FBE
:101C500046E667E080EB0E945A09F80121918F0166
:101C60002B5846E667E080EB0E945A09DF5FDD35BE
:101C700071F7FCE0CF9FE001112410E000E021E0CB
:101C8000200F48E667E080EB0E945A09FE01E00F52
:101C9000F11FEE5AFE4F208149E667E080EB0E947B
:101CA0005A090F5F1F4F0C30110549F7DF91CF9193
:101CB0001F910F91FF90EF900895215882CE80914F
:101CC0001D058F5F833089F080931D0510920005FC
:101CD0000E94160A80911D058F5F80936402809197
:101CE0000B05882329F00C94B80C10921D05EECF3B
:101CF0000895CF93DF93E0911D05A82FB0E02E2F1C
:101D000030E098E2E99FF001112495E0899FE00D11
:101D1000F11D1124EB5BFB4FE081E150E33108F052
:101D200039C0F0E0EA56F14F0C94EA2EA90E0C0FE0
:101D3000100F140F1B0F380F4B0F580F750F840F18
:101D4000940FCA0ECA0ECA0ECA0ECA0ECA0ECA0E08
:101D5000A60F85E08A9FF0018B9FF00D112448E2C9
:101D6000429FC001439F900D1124E80FF91FEB5BC8
:101D7000FB4F8181811116C0248143816281ED0175
:101D8000CE5BDB4F8881811108C080E90E945A092F
:101D900081E08883DF91CF91089580E80E945A09FD
:101DA0001882F8CF813041F424814381628180EB35
:101DB000DF91CF910C945A09823009F0CBC0438156
:101DC000628180ECDF91CF910C9426098091BC0256
:101DD0008F3720F48F5F8093BC0202C01092BC0248
:101DE00085E08A9FF0018B9FF00D112448E2429F0D
:101DF000C001439F900D1124E80FF91FEB5BFB4FCF
:101E00004091BC02628180EC0E94260981E08093AF
:101E10006402C0CF8FE7DFCFDF91CF910C94990C94
:101E2000DF91CF910C945F0E8091000591E089279E
:101E300080930005AFCFC901880F991F280F391F64
:101E400027533B4FA20FB31F8C9181110DC00E94ED
:101E500017098091FD04082E000C990B97FFD7CF2E
:101E6000919581959109D3CFDF91CF910C94080979
:101E7000C901880F991F280F391F27533B4FA20F05
:101E8000B31F8C91811103C00E940809E2CFDF913A
:101E9000CF910C941709C1E020E04BE76C2F80EB49
:101EA0000E945A091092FE04CF5FC131A9F772CF88
:101EB000F901EC57FE4F80818F5F8430A1F0808361
:101EC0000E94160A1092000520918D0181E0820F78
:101ED0008093640280910B05882309F45BCF205B1B
:101EE00046E667E064CF1082EBCF81E08093640226
:101EF0008091FE04811104C0DF91CF910C94770C86
:101F0000DF91CF910C94560C4091FC04C901880FCD
:101F1000991F280F391F27533B4FA20FB31F8C91D6
:101F2000811110C04F5F0FC04091FC04C901880FA0
:101F3000991F280F391F27533B4FA20FB31F8C91B6
:101F40008111F0CF41504093FC0424CF81E0809375
:101F50006B0520CF833009F439CF843009F01ACFD4
:101F60008091BC02882309F455CF815034CFCF93A0
:101F7000DF93E0E5F2E030E020E081919191280FDD
:101F8000391F82E0E236F807C1F730930A01209347
:101F9000090160910305662331F1E0911D05F0E030
:101FA000EE56FE4F80818330F1F48091020590E07F
:101FB00040910105841B910947FD93954091620270
:101FC000841B9109E0910301F09104018E9FA0010F
:101FD0008F9F500D9E9F500D1124240F351F30935D
:101FE0000A01209309012091090130910A0180E042
:101FF00090E2821B930B2091E4023091E502820F64
:10200000931F97FF24C010920A0110920901C091FA
:102010000901D0910A0180910101909102018C1770
:102020009D0791F0662381F09E01220F232F221F2E
:10203000330B4C2F4F7760918C0180EE0E945A0930
:10204000D0930201C0930101DF91CF9108958115D2
:1020500020E492072CF490930A0180930901D7CFD2
:102060008FEF9FE3F8CFCF92DF92EF92FF920F9323
:102070001F93CF93DF934091100150E01091FB0428
:1020800000918A01209131053091320564E070E0C1
:10209000601B7109C7E4D5E0E0E5F2E090E080E084
:1020A000012E02C0369527950A94E2F72170332756
:1020B000E990F9904E155F056CF518132BC00023BD
:1020C00049F121153105C1F4DC01AA0FBB1FAF5244
:1020D000BD4FE41AF50ACD90DC90EC9CD001ED9C4C
:1020E000B00DFC9CB00D1124062E02C0B695A7952C
:1020F0000A94E2F7B183A083019632968930910564
:10210000B9F6DF91CF911F910F91FF90EF90DF9083
:10211000CF90089511821082EFCFCF92DF92EF928D
:10212000FF920F931F93CF93DF93F8948091B302A4
:102130009091B4029093B2028093B102789400918E
:102140001D0510E0F801E257FE4FE08023E1F0901A
:102150006202E21205C08091B0029EE6F92EF81AE2
:10216000C091B102D091B20281E3809FF001819FC2
:10217000F00D1124EB56FE4F8289833089F4848957
:1021800040E8849FC00111242389822B2091FE0402
:1021900021119AC005968C179D0714F40E94770CA4
:1021A000209107013091080160910C01E0917A05BE
:1021B000F0917B05E0931C05C0900501D0900601CD
:1021C00081E0CC16DD060CF065C0C60101968C17C7
:1021D0009D070CF063C0E130F10519F482E08093B3
:1021E0001C0580918D01813099F0823009F056C034
:1021F00053E1E51253C08DE0809FD001819FB00D67
:102200001124A75DBD4F1B968C91882309F446C00D
:102210004F2D4C53550BCA01689FA001699F500D6B
:102220001124240F351F40910B018901442379F0BB
:10223000B9016C197D09469FC001479F900D11247B
:1022400060E971E00E94D62E8B01020F131F1093DC
:10225000B6020093B5024423A9F0B9016C197D09B7
:10226000469FC001479F900D1124AC01440F551F9C
:10227000440F551F841B950B60E971E00E94D62E18
:10228000260F371F3093B8022093B7020C171D0793
:1022900014F583E080931C051092860580911C053F
:1022A00090E090937B0580937A05D0930D05C093C1
:1022B0000C0510921E05DF91CF911F910F91FF9099
:1022C000EF90DF90CF900895C817D9070CF068CF32
:1022D0000E94560C65CF2C173D076CF082E080936E
:1022E0001C05E130F10551F5BE0180E00E94990422
:1022F00080931C05D3CF80911C05E130F10519F4C2
:10230000823061F6F1CF339749F6823039F60E9478
:10231000950500911F051091200520912105309110
:102320002205601B710B820B930B653171058105D2
:10233000910508F4B3CFBE0181E0D8CF339709F0FF
:10234000ADCFE5CFDF92EF92FF920F931F93CF9324
:10235000DF93C0911D05D0E0DE01A257BE4F4C9126
:10236000463108F0EAC07C01E42FF0E0E654FE4E6E
:102370000C94EA2ED011131244128512D0119E1221
:10238000B412C71258129D121312D112EC12AD12D0
:102390001713BC122213351335135413D011D01157
:1023A000DC01B695A795B695A7952A2F2F7330E037
:1023B000220F331FF901E452F84FE4918E2F90E081
:1023C0004430F1F4E1FC0197E0913105F0913205E0
:1023D000EE15FF0531F42352384FF9012491209373
:1023E000BB02443109F05CC0F701F695E795EF7741
:1023F000FF27EF37F10509F053C08DE390E050C09F
:10240000453111F7AF73BB27A331B10531F0D39735
:1024100039F0E1FED9CF0196D7CF8BE490E0F9CF28
:102420008CE490E0F6CFC0913105D091320590FD5B
:1024300009C08C179D0719F482E08093BB028AE4DF
:1024400090E02EC0DC01B695A7952A2F2F7730E0BB
:10245000220F331FF901E452F94FE4918E2F90E0DF
:10246000EC16FD0631F4F901E352F94FE491E093E3
:10247000BB024A30A9F4AD77A83409F4A0C0A8364D
:1024800079F485E490E00CC090FFD9CFFC01F6957B
:10249000E795EF77F0E0E45AF94FE4918E2F90E062
:1024A000DF91CF911F910F91FF90EF90DF900895F2
:1024B0009C013695279580789170892B69F4EE20E0
:1024C00059F02C32310591F08DE490E02033310544
:1024D00039F38CE490E0E4CF88E590E02A353105CB
:1024E000F9F286E590E02C343105D1F2E22FEF7756
:1024F000F0E0E452FA4FE4918E2F90E0F0FCD0CF60
:102500002C32310569F20C96CBCF90FF98CF96957F
:10251000879599270E94F00830E020E0F901E45304
:10252000FA4FE4918E1304C0F901E353FA4FB5CF8B
:102530002E5F3F4F2231310589F7B2CFFC01F6956E
:10254000E795FF27E453FB4FE4918E2F90E000972F
:1025500009F0A6CF8FEF9FEFA3CFFC01F695E7958B
:10256000FF27E453FC4FF0CFFC01F695E795EF779A
:10257000F0E0E45BFC4F91CFFC01F695E795EF7737
:10258000F0E0E453FD4F849190E0049689CF90FFF2
:1025900016C0FC01F695E795EF77F0E0E45BFD4FA0
:1025A0007CCF90FD0FC0D4E096958795DA95E1F742
:1025B0000E9709F476C088E490E0E7FC71CF87E4D9
:1025C00090E06ECF87FF5DCFFC01F695E795EF7346
:1025D000F0E0E453FE4F61CFFC01F695E795F695E8
:1025E000E795EF73F0E0E457FE4FE4918E2F90E013
:1025F000E1FE16C08F32910599F08433910581F088
:102600008533910569F08633910551F08B3391053F
:1026100039F08C33910521F08D33910509F0019645
:10262000F0FE3ECF823391050CF43ACF6CCFFC0123
:10263000F695E795EF77F0E0E45FFE4FE4918E2F9B
:1026400090E0EECF9C0174E0369527957A95E1F7FE
:1026500082FBEE27E0F9822F8871E82B220F26708B
:10266000E22BF0E0E451FF4F18CF9695879599271C
:102670008F3F910509F47EC0F0FEE1CEF701F6959B
:10268000E795F695E795EF73F0E0E455FF4FE49199
:102690008E2F90E0423109F003CF8734910509F085
:1026A000FFCE86E490E0FCCEF694E794DE2CE8942E
:1026B000D7F80D2D10E0C8010E94F0083091B0024B
:1026C00090E02FE2281B891301C0322F9F5F9630C4
:1026D000D1F7C80123E0959587952A95E1F78730D2
:1026E000910521F487E28093B0020DC0069711F4A2
:1026F00089E2F9CF85E0159507958A95E1F7012BD9
:10270000A9F13093B002FFE7DF120EC08DE08C9F7D
:10271000F0018D9FF00D1124E75DFD4F848581113F
:1027200027C080E38093B002E091B00221E32C9FA8
:10273000C0012D9F900D11248B569E4FE80FF92F4D
:10274000F11D808190E0E0FEABCE2DE02C9FF001EA
:102750002D9FF00D1124E75DFD4F2485222309F400
:102760009FCE009709F49CCE01979ACE88E2BBCF0A
:102770008FE2D8CF8CE390E093CE2F923F924F928E
:102780005F926F927F928F929F92AF92BF92CF9201
:10279000DF92EF92FF920F931F93CF93DF9300D0BE
:1027A00000D000D0CDB7DEB7E0911D050E2F10E0B0
:1027B00041E3E49FF0011124EB56FE4F8081882312
:1027C00009F47FC08DE0809FD001819FB00D11245E
:1027D000A75DBD4F11968C911197811172C01A9609
:1027E0008C9140911C05882309F43AC180918D0198
:1027F000813009F435C124A199E0299F9001112469
:102800002C593F4F85A1899FC00111248C599F4F9E
:10281000BC01621B730B75956795620F731F433084
:1028200019F4680F791F9C0180910C0590910D059A
:1028300041E3409FF001419FF00D1124EB56FE4F04
:102840004181E42FF0E08617970708F019C1DB01FA
:10285000A81BB90B84E1489FF0011124AE9FC00171
:10286000AF9F900DBE9F900D1124621B730B0E94B1
:10287000C22E669FB001112483E0759567958A95F5
:10288000E1F77195619571097093E5026093E40237
:1028900098EC499FA00111242091E4023091E502B7
:1028A0004217530724F45093E5024093E4028091C9
:1028B0002E05823031F410920A01109209010E9413
:1028C000B70FA0912E05AC838091E3028111F6C071
:1028D000A23009F4A2C2AA2311F0A33011F40E947D
:1028E0003310A0901001B12C20912C0530912D05B2
:1028F0006090110170901201B091FB04B983409077
:102900003105509032052090BD023090BE02E7E4C0
:10291000F5E090E080E0C12CD12C7601C394A82F83
:10292000A901082E02C0569547950A94E2F740FF88
:1029300013C0408151814A155B0574F4B701A601AB
:10294000082E04C0440F551F661F771F0A94D2F744
:102950004095509524233523A3010A2E02C0569595
:1029600047950A94E2F740FF57C0A9010A2E02C01A
:10297000569547950A94E2F740FD4EC00C81013010
:1029800021F01981181709F447C080809180A201B5
:1029900002C056954795AA95E2F741705527BC01AC
:1029A0006D5D7A4F7E836D83A814B9040CF076C0F8
:1029B0004115510519F5BC01660F771FDB01A05BBE
:1029C000BD4FBB83AA8361547D4F8A189B08DB01EE
:1029D0000D911C91809EB001819E700D909E700D96
:1029E0001124B3E076956795BA95E1F7AA81BB818A
:1029F0006D937C9301E0AD81BE810C93AD81BE816E
:102A00006C91613049F4452B39F0DC01AA0FBB1FF2
:102A1000A05BBD4F2D923C92019632968930910574
:102A200009F07DCF30932D0520932C0526960FB607
:102A3000F894DEBF0FBECDBFDF91CF911F910F91F4
:102A4000FF90EF90DF90CF90BF90AF909F908F90CE
:102A50007F906F905F904F903F902F900C94B70FA6
:102A600020910501309106018091B7029091B80242
:102A7000433009F4CDCE8091B5029091B602C8CE14
:102A8000861B970B8E9F90018F9F300D9E9F300D60
:102A900011243093E5022093E402FACEAD81BE8189
:102AA0001C924115510509F4B7CFBC01660F771F81
:102AB000605B7D4FDB011D921C92A0CF10925502EE
:102AC000109254021092570210925602BC81BB23FE
:102AD00011F0B33011F40E943310F801E257FE4FA9
:102AE00080819EEF980F923008F4E5C09091BB0270
:102AF0009130D1F48091BD029091BE022091FB04EF
:102B0000223049F09093550280935402109257025C
:102B1000109256028BCF90935702809356021092D8
:102B200055021092540282CF923009F07FCF982F35
:102B30009B7F09F061C04091100150E00091310588
:102B400010913205F090FB04EBE4F5E0FB83EA839F
:102B5000E0E5F2E022E030E0AA81BB818D919D9119
:102B6000BB83AA83481759070CF041C0B801022E55
:102B700002C0769567950A94E2F760FD38C0F216B8
:102B8000B1F1D901AA0FBB1FA154BD4F841B950BF6
:102B90000D90BC91A02D8A9FB0018B9F700D9A9FC4
:102BA000700D1124A3E076956795AA95E1F77583DA
:102BB0006483329623303105B9F42091BD023091FF
:102BC000BE0280915402909155024091560250915C
:102BD0005702840F951F281739070CF027CF309321
:102BE00055022093540292CF23E030E0B5CFF21685
:102BF00001F315821482DDCF813019F08A3009F09B
:102C000015CF409131055091320550FD29C043FD4B
:102C10007DCF20914D0530914E054091100150E03F
:102C20008091BD029091BE0242175307A4F4241B69
:102C3000350B6091C5027091C602269FA001279FA7
:102C4000500D369F500D112463E0569547956A95B7
:102C5000E1F7841B950B9093570280935602E6CEC2
:102C600020914D0530914E058091100190E0821722
:102C70009307D4F443FD4ACF4091FB04433009F459
:102C8000D5CE281B390B4091C5025091C602249F16
:102C9000C001259F900D349F900D112453E096950F
:102CA00087955A95E1F7D7CF281739070CF42ECF1F
:102CB00043FFBCCE2BCF00E512E0E2E0F0E0FB8367
:102CC000EA83812C912C54018394F090FB04609151
:102CD0003105709132058A81F81202C070FD5EC024
:102CE0002A81AB01022E02C0569547950A94E2F75D
:102CF00040FD8DC0309163023323B9F0D501C4018A
:102D000004C0880F991FAA1FBB1F2A95D2F7862BD4
:102D1000972B90933205809331050E94A2119093D6
:102D2000BA028093B90210926302209162028091EC
:102D3000B9029091BA022817190681F5EA81FB8140
:102D4000EE0FFF1FDF01A95BBA4F8D919C9120917F
:102D50001001281719060CF04FC0DF01A851BB4F16
:102D60002D913C9122533109281B390BE154FD4F21
:102D700040815181249FC001259F900D349F900D6B
:102D8000112423E0969587952A95E1F791958195F1
:102D90009109D80115969C938E9314970E5F1F4F3F
:102DA000EA81FB81339719F52091BD023091BE0273
:102DB00080915402909155024091560250915702D1
:102DC000840F951F919581959109281739070CF06B
:102DD0002DCE8EEF8F0D823030F4809131059091A1
:102DE000320590FD23CE319521953109F8CE63E06F
:102DF00070E07B836A8369CF8091BD029091BE02AF
:102E0000919581959109F80195838483C7CFD80165
:102E100015961C921E921497C1CF26960FB6F89461
:102E2000DEBF0FBECDBFDF91CF911F910F91FF90FD
:102E3000EF90DF90CF90BF90AF909F908F907F905A
:102E40006F905F904F903F902F9008958091AF02C8
:102E50008F5F8093AF028091AF02823011F42F9A7E
:102E600008958091AF02833069F480E180938100FE
:102E700084E00E94D40881E0809300011092AE02A9
:102E80001092AF02089584E0E6E9F2E0DB010190E0
:102E90000D928A95E1F784E008951F93CF93DF9315
:102EA000EC01162F0E94D52C181739F0612FCE0196
:102EB000DF91CF911F910C94DD2CDF91CF911F9169
:102EC00008957F928F929F92AF92BF92CF92DF929E
:102ED000EF92FF920F931F93CF93DF93C82F082F8A
:102EE00010E0E0911D05F0E0E257FE4F6081C8015F
:102EF00088960E944D17E0911D05F0E0E958FE4FBD
:102F00006081C801C5960E944D17E0911D05F0E053
:102F1000E058FE4F6081C801C2960E944D178DE0B7
:102F2000C89F60011124F12CE12CDDE088E3C80E7C
:102F3000D11C80911D05F701D89FE00DF11D1124D2
:102F4000E75DFD4F6081C6018E0D9F1D0E944D17EC
:102F50008FEFE81AF80A8DE0E816F10451F77801CE
:102F6000EE0CFF1CE0911D05F0E0EE0FFF1FE05C92
:102F7000FE4F6081C701835B9E4F0E944D17E09119
:102F80001D05F0E0EE0FFF1FE05CFE4F6181C70101
:102F9000825B9E4F0E944D17E0911D05F0E0EE0F01
:102FA000FF1FE658FE4F6081C7018D5A9E4F0E9459
:102FB0004D17E0911D05F0E0EE0FFF1FE658FE4FA4
:102FC0006181C7018C5A9E4F0E944D17E0911D05EB
:102FD000F0E0E35CFE4F6081C801875A9E4F0E947B
:102FE0004D1782E3C89F6001112484E6C80ED11CEE
:102FF000912C812CD5E0B8E27B2EB12CA12C8091B4
:103000001D05DA9DF001DB9DF00D1124789EE00D89
:10301000F11D1124EB5BFB4FE80DF91D6081C5012B
:103020008C0D9D1D0E944D178FEFA81AB80A88E0DD
:10303000A816B10421F78FEF881A980A8AE0C80E03
:10304000D11C85E088169104C1F683E0C89F500129
:103050001124D12CC12C8AEFA80EB11CE0911D05C2
:103060008E2F90E0FC01EE0FFF1FE80FF91FE753D2
:10307000FB4FEC0DFD1D6081C5018C0D9D1D0E9457
:103080004D178FEFC81AD80A83E0C816D10431F75C
:1030900084E1C89F50011124D12CC12CDCE08CEFBD
:1030A000A81A8EEFB80A80911D05F601D89FE00D91
:1030B000F11D1124EE5AFE4F6081C5018C0D9D1D3E
:1030C0000E944D178FEFC81AD80A8CE0C816D10499
:1030D00051F7E0911D05F0E0EE0FFF1FE45BFE4F9E
:1030E0006081C7018F5E9E4F0E944D17E0911D05C4
:1030F000F0E0EE0FFF1FE45BFE4F6181C7018E5EC3
:103100009E4F0E944D17E0911D05F0E0EE56FE4FD8
:103110006081C801875C9E4F0E944D17E0911D059C
:10312000F0E0EC57FE4F6081C801845C9E4F0E9426
:103130004D17E0911D05F0E0E75BFE4F6081C8018F
:10314000815C9E4F0E944D17E0911D05F0E0EA5B07
:10315000FE4F6081C8018E5B9E4F0E944D1781E338
:10316000C89FE001112410E000E021E3F22EC15AD3
:10317000DE4F80911D05F801F89EE00DF11D112430
:10318000EB56FE4F6081CE01800F911F0E944D17BC
:103190000F5F1F4F0133110561F7DF91CF911F9131
:1031A0000F91FF90EF90DF90CF90BF90AF909F90E6
:1031B0008F907F900895CF92DF92EF92FF920F93BE
:1031C0001F93CF93DF9308EE14E083E3C82E85E0CE
:1031D000D82E91EDE92E92E0F92EC2E1D0E0F8016F
:1031E00061810E5F1F4FCE010E944D17F80132978B
:1031F0006081CE0101960E944D17F6016081F2E0D8
:10320000CF0ED11CC7010E944D1722968FEFE81AEE
:10321000F80AC432D10519F710926B0563E085E214
:1032200090E00E944D17EDEAF8E0259134919FB7A8
:10323000F894F901FF272081832F809582238083D2
:103240009FBF1092E704DF91CF911F910F91FF90E4
:10325000EF90DF90CF9008950C94D52C2F923F9251
:103260004F925F926F927F928F929F92AF92BF9296
:10327000CF92DF92EF92FF920F931F93CF93DF9342
:10328000CDB7DEB766970FB6F894DEBF0FBECDBFE1
:1032900080E390E00E942C1980932E0480E891E056
:1032A0009C878B87E5E9F1E0FA83E98386E491E086
:1032B0009E878D87E9E4F1E0F88BEF878CE491E05D
:1032C0009A8B898BE2E5F1E0FE83ED8385E494E05F
:1032D00098878F83E9E2F2E0FA87E987B12CA12C85
:1032E000512C412C712C612C1C821B8210E000E0BF
:1032F000312C212C1E8A1D8A8D899E89C2960E949E
:103300002C19EB85FC858193FC87EB87D12CC12C94
:103310007501F8E3EF0EF11CC7018C0D9D1D0E9495
:103320002C19E985FA85EC0DFD1D80838FEFC81AF5
:10333000D80A9DE0C916D10479F7C801835B9E4F76
:103340000E942C19F82EC801825B9E4F0E942C19F6
:10335000F801E05CFE4F982F8F2D91838083C80188
:103360008D5A9E4F0E942C19F82EC8018C5A9E4FE0
:103370000E942C19F801E658FE4F982F8F2D91834B
:1033800080838D899E89875A9E4F0E942C19ED89D2
:10339000FE89E35CFE4F80836201E4E6CE0ED11C21
:1033A000C2018A569F4F9C8B8B8B8F809884F12C07
:1033B000E12CC7018C0D9D1D0E942C1995E09E9D4E
:1033C000F0019F9DF00D1124E80DF91D8083EFEFB2
:1033D000EE1AFE0AF8E0EF16F10459F78AE0C80E7B
:1033E000D11C9FEF891A990AEB89FC89CE16DF065A
:1033F000F1F67301FAEFEF0EF11CC30187539B4FF7
:103400004C0163019DEFC90ED11CC7010E942C190C
:1034100091E0811101C090E0F40191934F01FFEF21
:10342000EF1AFF0AEC14FD0481F7D12CC12CEB80BC
:10343000FC808CEFE81A8EEFF80AC7018C0D9D1DF9
:103440000E942C19ED81FE81EC0DFD1D80839FEF04
:10345000C91AD90AECE0CE16D10479F7C8018F5EFB
:103460009E4F0E942C19F82EC8018E5E9E4F0E941E
:103470002C19982F8F2DE989FA8981939193FA8BD2
:10348000E98B8D899E89875C9E4F0E942C19ED895E
:10349000FE89EE56FE4F80838D899E89845C9E4F07
:1034A0000E942C19ED89FE89EC57FE4F80838D898F
:1034B0009E89815C9E4F0E942C19813608F082E023
:1034C000EF85F8898193F88BEF878D899E898E5BD4
:1034D0009E4F0E942C19813108F081E0ED85FE8518
:1034E0008193FE87ED87D12CC12C7101F1EAEF1A8F
:1034F000FEEFFF0AC7018C0D9D1D0E942C19E9816A
:10350000FA81EC0DFD1D80838FEFC81AD80A91E374
:10351000C916D10479F7ED89FE893196FE8BED8BC2
:10352000F1E32F0E311C89819A81C1969A83898398
:103530000E5F1F4FEB81FC817496FC83EB838D81C2
:103540009E810C969E838D8393E0690E711CE2E34D
:103550004E0E511C8F819885889698878F839DE0A9
:10356000A90EB11CE985FA853D96FA87E9878D8910
:103570009E89039709F0C0CE66960FB6F894DEBF19
:103580000FBECDBFDF91CF911F910F91FF90EF90B4
:10359000DF90CF90BF90AF909F908F907F906F9073
:1035A0005F904F903F902F900895CF92DF92EF92CF
:1035B000FF920F931F93CF93DF938EE8E82E81E065
:1035C000F82E97E7C92E91E0D92EC8E2D0E0CE01BF
:1035D0000E942C19082FF70181937F01CE010D96CF
:1035E0000E942C19182FF60181936F0180910B0511
:1035F0008823C9F02C2F2A5046E667E080EB0E9412
:103600005A0921E2200F46E667E080EB0E945A0942
:103610004C2F495B212F17FF02C02FE7210F67E0D6
:1036200080EB0E945A092196CB32D10581F6DF91B9
:10363000CF911F910F91FF90EF90DF90CF90089561
:103640001F920F920FB60F9211242F933F938F93D7
:103650009F93AF93BF938091720590917305A09152
:103660007405B09175053091710526E0230F2D3753
:1036700058F50296A11DB11D209371058093720526
:1036800090937305A0937405B093750580917605AA
:1036900090917705A0917805B09179050196A11DCB
:1036A000B11D8093760590937705A0937805B0932C
:1036B0007905BF91AF919F918F913F912F910F907D
:1036C0000FBE0F901F90189529E8230F0396A11D98
:1036D000B11DD2CF1F920F920FB60F9211248F936C
:1036E0009F938091E1009091E100937F9093E1009E
:1036F00083FF0FC01092E90091E09093EB001092CD
:10370000EC0092E39093ED001092240398E09093E4
:10371000F00082FF1CC093E09093E9009091F200CA
:10372000992319F09AE39093E80090911D0399234F
:1037300029F090911D03915090931D0390912303C4
:10374000992329F09091230391509093230384FFB0
:1037500018C08091E2008E7E81608093E2008091AB
:10376000E1008F7E8093E10080911E038E7E806158
:1037700080931E039F918F910F900FBE0F901F900B
:10378000189580FFF7CF8091E2008E7E8061809354
:10379000E2008091E1008E7E8093E10080911E0323
:1037A0008E7E8160E5CF1F920F920FB60F9211248B
:1037B000CF92DF92EF92FF920F931F932F933F933D
:1037C0004F935F936F937F938F939F93AF93BF9329
:1037D000EF93FF93CF93DF93CDB7DEB76C97DEBF48
:1037E000CDBF1092E9008091E80083FF2FC089E0EF
:1037F000FE017596EE2EDF2E815029F09091F1009A
:1038000090833196F9CF84E68093230382EF8093EF
:10381000E8008D8987FF39C09091E80090FFFCCFC8
:10382000982F907609F033C19E894F89588D2F8942
:10383000F88C911131C0803861F580911F0380931D
:10384000F1001092F1008EEF8093E8006C960FB6B5
:10385000F894DEBF0FBECDBFDF91CF91FF91EF9106
:10386000BF91AF919F918F917F916F915F914F9198
:103870003F912F911F910F91FF90EF90DF90CF908C
:103880000F900FBE0F901F9018959EEF9093E80039
:10389000C7CF1092F100D5CF913059F48111D3CF19
:1038A0004130510581F680911F038D7F80931F0366
:1038B000CACF933049F48111C6CF4130510519F672
:1038C00080911F038260F2CF953041F48091E8002F
:1038D00080FFFCCF20682093E300B5CF963009F03D
:1038E000A8C00B8D1C8D82E01092E90010921C0381
:1038F00010921B03F8122EC010921A031092190393
:103900000E94E2061F8299E09983FA8291E09E83E9
:1039100090EA98879AE0998720911B0330911C03C5
:10392000275F3F4F3C832B838D831092E9001092D9
:103930001C0310921B0310931A030093190349E010
:1039400050E0BE016F5F7F4F80E00E9402060E9440
:10395000E20679CF10931A03009319030E94D00650
:10396000DC0112960D911C910115110509F4BAC0E4
:10397000D801ED91FC910480F581E02D6E2D7D2D17
:10398000C8010995009709F0A8C0F80100851185C4
:10399000EBCFF3E0FF120EC08F89882309F440C0FB
:1039A000823061F440E865E08DE898E00E94CF0540
:1039B000811149CF81E28093EB0048CF813029F417
:1039C00040E86AE182E798E0F1CF833099F70E94FE
:1039D000D006DC011296ED90FC908E010F5F1F4F18
:1039E0006801E114F10479F0D701ED91FC910680B2
:1039F000F781E02DB801C7010995080F111DF701E6
:103A0000E084F184EECFD8011C92F60101900020F1
:103A1000E9F73197BF016C197D0940E0C601C6CFB7
:103A20006CE578E0FB01449150E080E80E940206DA
:103A30000ACF973009F4BECF983021F481E080930B
:103A4000F10001CF993009F0FECE837009F0B2CFBA
:103A5000E3E1F3E081E031E096E32191222371F08C
:103A60008093E9003093EB00DF0111972C912093B4
:103A7000EC009093ED008F5F873079F78EE78093AD
:103A8000EA001092EA008F8980932403DCCE8B8DAC
:103A90009C8D1092E90010921C0310921B039093CE
:103AA0001A03809319030E94D006DC0112960D912F
:103AB0001C910115110509F47DCFD801ED91FC9100
:103AC0000190F081E02D6E2D7D2DC80109958111A9
:103AD000BACEF80100851185ECCF181619060CF442
:103AE000B2CE68CFF1E0FF1254CF60E678E09ACF13
:103AF0001F920F920FB60F9211242F933F934F9363
:103B00005F936F937F938F939F93AF93BF93EF9345
:103B1000FF93E0913B01F0913C010995FF91EF91FA
:103B2000BF91AF919F918F917F916F915F914F91D5
:103B30003F912F910F900FBE0F901F9018951F92DD
:103B40000F920FB60F9211242F933F934F935F93D1
:103B50006F937F938F939F93AF93BF93EF93FF9355
:103B60008091AE0228E0882319F02091AE02215006
:103B70008091AE029091AE028F5F983009F480E0A0
:103B80009091AE02993041F55998809178009091CA
:103B900079002091AC023091AD02821B930B90937F
:103BA0006A058093690581E0809346058091200332
:103BB000806180938100FF91EF91BF91AF919F91C0
:103BC0008F917F916F915F914F913F912F910F90C6
:103BD0000FBE0F901F9018953091000190E0332395
:103BE00009F450C03091AE02311129C02091780003
:103BF000309179003093B4022093B30221E02093F6
:103C00001E0587599D4FFC0180810E94D4081092A7
:103C100000018091AE02882371F2E091AE02F0E0E3
:103C2000EE0FFF1FE258FD4F808191812FB7F8946E
:103C3000FC01FF278081892B80832FBFBCCF30E020
:103C4000220F331FF901E258FD4F608171815FB788
:103C5000F894FB01FF276081472F4095462340835E
:103C60005FBF4091780050917900F901E456FD4F13
:103C700060817181461B570B275A3A4FF9015183D6
:103C80004083BFCF2091780030917900880F991F31
:103C9000FC01E456FD4F31832083E091AE02F0E059
:103CA000E759FD4F80810E94D40881E08093000194
:103CB0008091AE028F5F8093AE027DCFCF93DF9372
:103CC000CDB7DEB728970FB6F894DEBF0FBECDBFD5
:103CD000789484B5826084BD84B5816084BD85B5E7
:103CE000826085BD85B5816085BD80916E008160F3
:103CF00080936E0010928100809181008260809399
:103D0000810080918100816080938100809180009A
:103D10008160809380008091910082608093910007
:103D200080919100816080939100809190008160EA
:103D3000809390008091C10084608093C100809145
:103D4000C10082608093C1008091C1008160809336
:103D5000C1008091C30081608093C3008091C00046
:103D600082608093C0008091C20081608093C20015
:103D700080917A00846080937A0080917A008260DA
:103D800080937A0080917A008E7F80937A00809170
:103D90007A00806880937A001092240310921F03A7
:103DA00010921E038091D70081608093D70080EA33
:103DB0008093D80089B58F7E89BD89B5826089BD21
:103DC00009B400FEFDCF61E070E080E090E00E9469
:103DD00063058091D8008F7C80618093D8008091AA
:103DE000E000807F8093E0008091E1008E7E8093F0
:103DF000E1008DE08093E2008FEF80937E0083EFFF
:103E000080937D003DEA232E38E0332EF101859129
:103E100094912FB7F894FC01FF278291892B80831E
:103E20002FBFE5EBF8E0859194912FB7F894FC0152
:103E3000FF27DF013E91892F809583238C9380811A
:103E4000892B80832FBFEEE7F2E020E932E08191F9
:103E500091914FB7F894DC01BB278E91892B8C93FD
:103E60004FBF2E173F0799F72198299A22982A9A2F
:103E700023982B9A8CE290E00E942C19833041F415
:103E800083EF93E00E942C198451823008F441C0E2
:103E900065E183EF93E00E944D1710921D0580E0CD
:103EA0000E94611781E080931D050E94611782E0E6
:103EB00080931D050E94611710E000E0C8010E9478
:103EC0002C19682FC80142960E944D170F5F1F4F93
:103ED0000231110599F701ED12E0C8010A960E941E
:103EE0002C19682FC8010E944D170F5F1F4F0B3D03
:103EF00022E0120791F760912E0480E390E00E9487
:103F00004D1763E08CE290E00E944D1783E08093B0
:103F1000640283EF93E00E942C19843171F565E10E
:103F200083EF93E00E944D17B12CA12C10E00CE020
:103F300010931D05F12CE12C65013CEFC31A3EEFF7
:103F4000D30A80911D05F701089FE00DF11D112492
:103F5000EE5AFE4F6081C6018E0D9F1D0E944D17C7
:103F60004FEFE41AF40A5CE0E516F10451F71F5F25
:103F700084E1A80EB11C1330D9F685E290E00E94CE
:103F80002C19833059F588EEA82E84E0B82E93E3DF
:103F9000C92E95E0D92E21EDE22E22E0F22E02E18B
:103FA00010E0C8010E942C19982EC80101960E94A9
:103FB0002C19992DD5018D939D935D01C7010E9408
:103FC0002C1990E0F601819391936F010E5F1F4FC2
:103FD000FFEFEF1AFF0A0432110519F70E94D51AF4
:103FE0000E942E1980912E0480931D050E941F05AA
:103FF0000E941F050E941F059093220380932103B6
:1040000090930D0580930C050E94160A80E1809321
:1040100081001092800091E09093200320E931E02C
:10402000309387002093860021E12093810026E2CF
:1040300037E130933C0120933B0190936F008093D4
:10404000810080917A00887F80937A0084E8809351
:104050007A0080E480937C0081E00E94D4080BE623
:10406000C02EDD24D394F8948091250490912604E9
:10407000A0912704B09128044091290450912A046A
:1040800060912B0470912C04841B950BA60BB70B2D
:104090008F739927AA27BB27892B8A2B8B2B09F48F
:1040A0007BC08091290490912A04A0912B04B091A7
:1040B0002C04880F991F880F991FFC01EB5DFC4FA2
:1040C0009081818102811381809025049090260443
:1040D000A0902704B09028044091290450912A040C
:1040E00060912B0470912C0484169506A606B706E1
:1040F000C1F04091290450912A0460912B047091E1
:104100002C044F5F5F4F6F4F7F4F4F7355276627CC
:1041100077274093290450932A0460932B047093CB
:104120002C047894992311F40C94AA2B073708F0E7
:104130009ACF8F70863009F096CFD09264020636FF
:1041400009F059C2E12EF12C8FEF810F823108F076
:10415000B2C010FDA4C0970135952795F901EE0F67
:10416000FF1FEA51FB4F80819181AC0145505109FD
:1041700051834083CB97059708F0ABC12D5E46E68F
:1041800067E080EB0E945A091E3709F0B6C1D09251
:104190000B050E94B80C97C0809133042FB7F89498
:1041A00087708093E9009091F2002FBF10E000E04B
:1041B00080E0992309F488CF80912504909126040A
:1041C000A0912704B09128040196A11DB11D8F7301
:1041D0009927AA27BB274091290450912A0460916E
:1041E0002B0470912C04481759076A077B0709F4C0
:1041F00058CF209133043FB7F89427702093E900FB
:104200002091F2003FBF20913304309124033323E7
:1042100009F447CF5FB7F89427702093E9004091E5
:10422000F200242F30E02530310514F024E030E096
:10423000FE013196215038F004E6009323033091BB
:10424000F1003193F7CF442331F02091F200211196
:1042500002C0C092E8005FBF443008F422CF409112
:104260002504509126046091270470912804440F7E
:10427000551F440F551F4B5D5C4F09811A812B81DF
:104280003C81FA01008311832283338380932504C8
:1042900090932604A0932704B093280495CFF701A8
:1042A0003196EE7FF170EA51FB4F80819181059646
:1042B0009183808369CF133109F00BC10E94DB1811
:1042C00083E0809364028FED810F8B3140F4E091A5
:1042D0002F04F0E0E257FE4F80830E94160A5CE351
:1042E000A52EB12C80E099249394980EEA14FB0437
:1042F00051F480931D05109200050E94160A0E9439
:10430000B80C909264023FEFA31AB30A892D833050
:1043100051F746E4A42EB12C8AEB8A0D50901D056E
:10432000652C712CEA14FB0459F4F301EE56FE4F90
:1043300080830E94160A80912E058F5F809364020D
:104340004FEFA41AB40A5AE4A516B10429F730E5D0
:10435000A32EB12CC3018C579E4F3C0180EB8A0DDC
:10436000EA14FB0449F4D3018C930E94160A80914D
:104370008D018F5F80936402BFEFAB1ABB0AE5E546
:10438000AE16B10459F7409183018AE590E026EA20
:10439000280FE816F90609F4422F01968236910596
:1043A000B1F7409383013091640228E2529EF001FC
:1043B0001124EB5BFB4F20E053E142131BC0173786
:1043C00011F4508330E084E690E06CE9680FE81661
:1043D000F90611F4608330E0019680379105A9F762
:1043E00060E9680FE816F90609F4618301968537DC
:1043F0009105B1F72F5F35962830F9F630936402B6
:1044000053E0559E9001112427533B4F90E080E0EC
:1044100048130BC0153709F0B8C0F901E80FF91FB0
:104420001082FC01EE5BFB4F1082019683309105F8
:1044300079F7153509F0B1C050922E04652D80E34F
:1044400090E00E944D178FE6E82EF12CA02EB12CA3
:1044500091E8992E910EAE14BF0461F4C5018F56F8
:10446000910989589E4F123308F0ECC0FC0110836B
:104470000E94160ABFEFEB1AFB0AE2E7EE16F10400
:1044800051F7083609F0E1C08FEF810F8093760174
:104490005091830120911D0588E2289F90011124ED
:1044A0002B5B3B4F90E080E045E058130DC00A368F
:1044B00009F026C2103140F4489FF001499FF00DE9
:1044C0001124E20FF31F128301968830910569F7DA
:1044D000CACD1F3709F058CE10926402D0926B05F6
:1044E000F2CE1F3119F4D0922F04EDCE103209F024
:1044F000EACE82E080932F04E6CE133619F41092B0
:104500000B05E1CE1A3729F01E3159F710922F040E
:10451000DACEB12CA12C73E0872EC5010E942C1994
:10452000982E20E34AE667E080EB0E945A09292D85
:104530002F7747E767E080EB0E945A0921E34AE6BC
:1045400067E080EB0E945A09292D30E0220F232FCB
:10455000221F330B47E767E080EB0E945A0923E3F1
:104560004AE667E080EB0E945A0963E070E080E071
:1045700090E00E94630580926402FFEFAF1ABF0AC9
:10458000A11424E0B20649F69ECE163709F04DCFAD
:10459000F901E80FF91FD08244CF1B3739F4852D7C
:1045A0000E94611783E0809364024DCF1C3781F431
:1045B00080E00E94611781E00E94611782E00E9402
:1045C00061170E94D51A0E942E190E94160AEACF7E
:1045D0001D3709F038CF6FEF8CE290E00E944D1745
:1045E00088E199E00FB6F894A895809360000FBE1B
:1045F00090936000FFCF073649F4E0911D05F0E08D
:10460000E058FE4F10830E94160A1DCF053709F0AF
:104610001ACFE0901D05F12CEE0CFF1CC701865847
:104620009E4F7C01212F30E0AFEFBFE10E943F2D74
:1046300024E630E040E050E00E941D2DD7012D938C
:104640003C93E1CFDC019C9213CF093609F067C09F
:10465000E091760180911D0590E0EC3068F44CE02B
:10466000489F9001499F300D11242E5A3E4FE20F72
:10467000F32FF11D108324C0E13268F441E3489F19
:104680009001499F300D11242B563E4FE20FF32F1E
:10469000F11D3C97EFCFE13219F410932D04F8CEC1
:1046A000E23289F4880F991FFC01E45BFE4F40E879
:1046B000149F9001112480912D04282B3183208395
:1046C0000E94160AE5CEE53368F44DE0489F90015C
:1046D000499F300D1124275D3D4FE20FF32FF11D4F
:1046E000B797C8CFEC3329F4875B9E4FDC011C934E
:1046F000E7CFED3321F48A5B9E4FFC01BBCFE2365E
:1047000008F0C6CE41E3489F9001499F300D112427
:104710002B563E4FE20FF32FF11DF097ABCF0A3629
:1047200009F0B6CE103108F4B3CE8CEE810F89308B
:10473000F0F4E0911D05F0E0EE0FFF1FE05CFE4F8E
:10474000212F2451330BC90121E030E040E050E03B
:1047500004C0220F331F441F551F8A95D2F7C90189
:1047600020813181822B932B91838083A9CF82EE8C
:10477000810F8930F0F4E0911D05F0E0EE0FFF1F8E
:10478000E05CFE4F412F4E51550BCA0121E030E055
:1047900040E050E004C0220F331F441F551F8A958C
:1047A000D2F7C9018095909520813181822393238E
:1047B000DBCF173239F4E0911D05F0E0E35CFE4FEA
:1047C00010827ECF183239F4E0911D05F0E0E35CF1
:1047D000FE4FD08275CF193259F5E0900C05F0905C
:1047E0000D05E0911D05F0E0EE0FFF1FE45BFE4FAD
:1047F000F182E08222E248E667E080EB0E945A09FB
:104800002E2D2F7749E667E080EB0E945A0923E2BC
:1048100048E667E080EB0E945A099701220F232F98
:10482000221F330B49E667E080EB0E945A0948CF0C
:104830001A3231F482E080936B051092640228CE24
:104840001B32A9F520910C0530910D05E0901D0556
:1048500041E3E49E70011124C7018B569E4F7C01F9
:10486000822F8F77D70153968C9353975901AA0CB7
:10487000AB2CAA1CBB085496AC9220E248E667E039
:1048800080EB0E945A09F701238949E667E080EB33
:104890000E945A0921E248E667E080EB0E945A092B
:1048A0002A2D49E667E080EB0E945A09F1CD1D32BE
:1048B00009F0EECDF12CE12CC70142960E942C1993
:1048C000682FC7010E944D17FFEFEF1AFF0A22E180
:1048D000E216F10489F73BEDE32E32E0F32EC70137
:1048E0000A970E942C19682FC7010E944D173FEFAD
:1048F000E31AF30A45EEE41642E0F40681F7C8CD68
:104900000B3649F4489FF001499FF00D1124E20F46
:10491000F31F1383D9CD0C3609F0D6CD489FF00193
:10492000499FF00D1124E20FF31F1483CDCD692DA3
:1049300070E090E080E00E94FD2D20E030E040E853
:1049400050E40E944E2D87FF4DC79394F50190824D
:1049500049C71082882009F459C7F70180819181E5
:10496000019691838083F701808191818D329140FE
:1049700040F0D6018C91811104C0F801EA53FB4F3D
:104980007082F20181912F01AD81BE818D93BE8332
:10499000AD830F5F1F4FBFEFCB1ADB0AE2E0EE0ED5
:1049A000F11C0330110509F009C780926C050E94C3
:1049B000950560936D0570936E0580936F059093D8
:1049C000700580916C05882309F44FC18091DE0445
:1049D000882351F08091DC04882331F01092DC04AC
:1049E00010926C051092DE048091D804882309F49B
:1049F00043C08091D70481113FC08091D6048111BA
:104A00003BC0E0911D050E2F10E021E3E29FF00175
:104A10001124EB56FE4F2289213091F4809131050B
:104A20009091320596958795089751F41092D80485
:104A30002093D2048091FE04811144C30E94770C1C
:104A40008DE0809FF001819FF00D1124E75DFD4F07
:104A50008281882389F08091310590913205969565
:104A600087958031910509F030C31092D80481E018
:104A70008093D2040E94990C4BED442E44E0542EB6
:104A800058ED652E54E0752E66ECC62E64E0D62EE9
:104A900072EDA72E74E0B72E10E000E0EE24E39450
:104AA000E5E09E2EF8E28F2EF02ED2018D912D01A1
:104AB000882359F1E0911D058E2F90E0FC01EE0F47
:104AC000FF1FE80FF91FE753FB4FE00FF11F808135
:104AD00081110FC08091D5049091D604E82FE90F81
:104AE000FF27FF1F8091D7048E0F9F2F911D892BC9
:104AF00061F4D5018C91811103C08F2D0E94790E34
:104B0000F20131971082F5011082D6018C91882331
:104B100081F18091D5049091D604E82FE90FFF2709
:104B2000FF1F8091D7048E0F9F2F911D019709F5CC
:104B3000E0911D058E2F90E0FC01EE0FFF1FE80FA6
:104B4000F91FE753FB4FE00FF11F8081811111C066
:104B500085E08F0D0E94790EF801ED53FB4FE08246
:104B6000D6011C92F801EE0FFF1FE354FB4F118298
:104B70001082F3018081882379F1108280911D05D4
:104B800090E0FC01EE0FFF1FE80FF91FE753FB4F0A
:104B9000E00FF11F20812223F9F0909EF001919EF9
:104BA000F00D1124889E9001899E300D1124E20F92
:104BB000F31FEB5BFB4FF08021E0F21291C2818189
:104BC00081110AC024814381628180E90E945A09CF
:104BD000F801EE5BFB4FF0820F5F1F4F8FEF681AFB
:104BE000780A9FEFC91AD90AAFEFAA1ABA0A033096
:104BF000110509F059CF8091D6048823A1F1809145
:104C0000DB048823B1F0E0911D058E2F90E0FC01BC
:104C1000EE0FFF1FE80FF91FE753FB4F8081811153
:104C200008C01092DB0481E08093DE0483E00E94E0
:104C3000790E8091DD048823B1F0E0911D058E2F5F
:104C400090E0FC01EE0FFF1FE80FF91FE753FB4F49
:104C50008181811108C01092DD0481E08093DE041F
:104C600084E00E94790E10926C0580916402882382
:104C7000B1F10E9495050091DF041091E0042091AC
:104C8000E1043091E204601B710B820B930B683CD2
:104C900071058105910518F10E9495056093DF0467
:104CA0007093E0048093E1049093E2048091E70420
:104CB000F101882309F420C2259134919FB7F8941B
:104CC000F901FF272081832F8095822380839FBF56
:104CD000809164028150809364021092E7041091E5
:104CE0006B05112309F43CC08091E704811112C2C5
:104CF000F101859194912FB7F894FC01FF278081F1
:104D0000892B80832FBF81E08093E7040E94950563
:104D10006093E3047093E4048093E5049093E604C5
:104D200080916B05813071F4EAEEF4E0A5E3B5E023
:104D30008FEF90E0119211928D939D9304E0EA3FE2
:104D4000F007C1F780910505882351F01092E9041E
:104D50001092E8048FEF90E0909334058093330530
:104D6000F89467E4C62E65E0D62E960190E080E0C8
:104D7000FC01EE0FFF1FE75AFA4F40815181D90124
:104D80004D935D939D0101968930910589F780913E
:104D900046058093450510924605789460916B0511
:104DA00083E395E0E7E4F5E0611109C020813181FA
:104DB000DC014D915C91241B350B318320832081D4
:104DC000318137FF02C01182108232960296B5E01F
:104DD000E935FB0749F70091310510913205E8EEFE
:104DE000F4E090E080E0D6014D915D916D0121915C
:104DF0003191B901625371096417750708F0E4C174
:104E000041E050E060E070E0082E04C0440F551F00
:104E1000661F771F0A94D2F7042B152B0196893051
:104E2000910509F710933205009331050E9495050D
:104E30002B013C0180918801909189010817190785
:104E400049F01093890100938801809187018F5F59
:104E50008093FA0480914505882309F4A4C0E0906A
:104E6000FA04EE2009F49FC0EA94E092FA04E110FB
:104E70009AC081E080936302C8010E94A2119093BE
:104E8000300580932F0580910B05882389F09801C8
:104E9000220F232F221F330B319542E767E080EB6F
:104EA0000E945A09202F43E767E080EB0E945A09CD
:104EB00090902E05992019F0B3E09B123CC0C801D8
:104EC0000E94F0088F3709F496C18093FB0480910B
:104ED000FB0421E030E040E050E004C0220F331F2B
:104EE000441F551F8A95D2F7C9016801C22AD92AE1
:104EF000A0902F05B0903005C6010E94A211A81AFB
:104F0000B90AB7FC16C0E0902F05F0903005C60135
:104F10000E94A211E81AF90A33E0E316F1040CF03A
:104F20006CC1E0902F05F0903005C6010E94A211DF
:104F3000E81AE0928A0180912F0590913005019640
:104F4000E1F080912F0590913005209162022817A1
:104F5000190699F052E0951681F010932D050093F3
:104F60002C05E0E5F2E0A3E2B5E082E692E01192E2
:104F700011921D928E179F07D1F780912F05909166
:104F80003005809362028FEF9FEF909330058093FE
:104F90002F0540921F0550922005609221057092C6
:104FA00022050E948D1080911E0581110E948D1096
:104FB000E0911D05CE2ED12C8DE0E89FF00111244B
:104FC000E75DFD4FE580A0901C05EE2089F0809103
:104FD0002802813059F491E0A91641F04092180559
:104FE0005092190560921A0570921B05A092280232
:104FF0009091FD048091FC04ACE09A9F800D1124F7
:1050000080930105F601E257FE4FF080B3E0AB124A
:105010000BC0EFE0FE1641F090916202FCE0FF123F
:10502000EFC09E3308F0F2C0B0908D01A3E0BA1239
:105030001BC1B1E0FB1609F447C1EAE0FE1609F412
:1050400043C1017011278DE08C9DF0018D9DF00D05
:105050001124E75DFD4F83818017110609F0F2C02E
:1050600080910105F7E0FF1609F4E9C0845FE8C00C
:1050700070E090E080E00E94FD2D20E030E040E80C
:1050800050E40E94AD2E87FD6ECCD2011C92F5013A
:1050900031976082ED81FE818081882349F0D601BD
:1050A0009C91911105C0F801E552FB4F7082882E4A
:1050B000F801EA53FB4F1082F6011082D7011D92CE
:1050C0001C9251CC0E94560CBBCC029709F0D4CC58
:1050D0001092D80481E08093D2040E945F0ECCCC61
:1050E00035E0F31203C00E94170976CD46E0F412B2
:1050F000A4C30E94080970CD859194912FB7F894AC
:10510000FC01FF278081892B80832FBF81E0809362
:10511000E704E5CD113069F50E949505C090E304E0
:10512000D090E404E090E504F090E6046C197D0969
:105130008E099F09613177428105910508F48CC37E
:105140000E9495050091E3041091E4042091E50488
:105150003091E604601B710B820B930B6131774237
:105160008105910508F4FCCD0E94DB180E94160A07
:10517000F7CD123009F0F4CD0E949505C090E304FC
:10518000D090E404E090E504F090E6046C197D0909
:105190008E099F09693873418105910508F47FC321
:1051A0000E9495050091E3041091E4042091E50428
:1051B0003091E604601B710B820B930B69387341CD
:1051C0008105910588F6CCCD265331092417350782
:1051D00008F424CE41E050E060E070E0082E04C006
:1051E000440F551F661F771F0A94D2F740955095BC
:1051F0000423152313CE87E068CE22E0E22E99CE59
:105200002EE0F21207C09A3408F40ECF845F809328
:1052100001050ACF38E0F31203C09C34B8F704CF7D
:105220009E3341F441E0F41609F4FECE5AE0F5163F
:1052300009F4FACE97E0F912E9CF895FE8CF895FE8
:10524000809301058F2D877F853029F4809101059A
:105250008150809301059CE0F91236C080910105D0
:105260008E5F8093010530C022E0B2121CC08F2DEA
:105270008B7F31F036E0F31619F043E1F412E2CF00
:10528000012F1127017011278DE08C9DF0018D9D5C
:10529000F00D1124E75DFD4F83818017110691F613
:1052A00080910105E3CE51E0B512CCCF83E1F81235
:1052B000C9CF8DE08C9DF0018D9DF00D1124E75D2F
:1052C000FD4F83858111DCCF8091140590911505E8
:1052D000A0911605B0911705B301A201481B590B07
:1052E0006A0B7B0B8091100590911105A09112051E
:1052F000B091130593018201081B190B2A0B3B0B7C
:10530000D901C8014497A105B10508F0EAC082E0BF
:1053100090E0A0E0B0E0481759076A077B0708F45F
:105320005CC040921405509215056092160570926B
:10533000170500910C0510910D0580910E059091B7
:105340000F05801B910B97FF03C0919581959109E3
:1053500002970CF442C081E38C9DF0018D9DF00D0D
:105360001124EB56FE4F8281882319F080E00E94C1
:10537000E107EE2019F081E00E94E1078DE08C9DAD
:10538000F0018D9DF00D1124E75DFD4F968090FE9C
:1053900003C082E00E94E10791FE03C083E00E9407
:1053A000E10780E00E948F0980910B05882389F036
:1053B000202F2F7744E767E080EB0E945A0998017D
:1053C000220F232F221F330B46E767E080EB0E945A
:1053D0005A0910930F0500930E05809107059091CF
:1053E0000805A0910905B0910A05A3019201281BA7
:1053F000390B4A0B5B0BDA01C9010997A105B1050D
:1054000090F040920705509208056092090570924D
:105410000A050E94BD13809106058F5F8A3009F44A
:1054200065C0809306058DE08C9DF0018D9DF00D8B
:105430001124E75DFD4F768003E010E0711002C09B
:1054400000E110E050900305552009F481C08091DF
:10545000620290E02091020530E040910105241B9A
:10546000310947FD3395F601EE56FE4F408143303A
:1054700009F460C08217930709F06AC08DE08C9D23
:10548000F0018D9DF00D1124E75DFD4F8181E1E07C
:10549000AE1247C1882321F080910005811143C1DC
:1054A00020E44091020560918C0180E80E945A0935
:1054B0001092030581E00E948F0981E38C9DF00129
:1054C0008D9DF00D1124EB56FE4F8289823009F03C
:1054D0001EC18091FE04882309F419C10E94560C54
:1054E00016C185E090E0A0E0B0E015CF109206056F
:1054F000E5EBF8E085919491482F4250550BFA0165
:105500008081892321E009F420E020930505809122
:105510000405821709F487CF2093040580910B05B9
:10552000882309F480CF285846E667E080EB0E9484
:105530005A0979CF4091910150E0821B930B97FF5C
:1055400003C0919581959109841795070CF496CF26
:105550008DE08C9DF0018D9DF00D1124E75DFD4FD8
:10556000818151E05A1508F0B1C0882329F080915B
:105570000005882309F4ACC08091FF048E3391F4B8
:105580008091620220910105022E000C330B820FE4
:10559000932F911D8635910529F480911E0588234E
:1055A00009F496C0E11099C083E0F81205C080911B
:1055B00062028C3309F48CC093E0B91661F08091DB
:1055C0000505882341F080913105909132058F3F88
:1055D000914009F47DC04090020581E38C9DF0016B
:1055E0008D9DF00D1124EB56FE4F928060908C0142
:1055F00051100FC1992019F080E00E94E107EE20C0
:1056000019F081E00E94E10770FE03C082E00E9471
:10561000E10771FE03C083E00E94E10710E000E0B3
:10562000B1E09B1621F0711002C0EB1203C081E0C3
:105630000E948F0981E08093030590906202E090C0
:105640000105E90CE09202058DE08C9DF0018D9D35
:10565000F00D1124E75DFD4F808581110E94BD137F
:1056600020918B014E2D662D80E90E945A09012B55
:1056700031F020E4442D662D80E80E945A090E94F2
:10568000950560930705709308058093090590932D
:105690000A0560931005709311058093120590938D
:1056A00013059092FF0481E38C9DF0018D9DF00D18
:1056B0001124EB56FE4F8289823009F0DFCE8091B3
:1056C000FE048111DBCE0E94770C02C081114FCF06
:1056D000809103058823D9F0D1CE511065CF0E9467
:1056E0009505209118053091190540911A055091A2
:1056F0001B05621B730B840B950B012E000C220BF8
:10570000330B601771078207930708F04DCF80E0D5
:1057100090E0892B11F40C942F200E9400000C942F
:105720002F208111B9CEF3E0FF1205C080916202F3
:105730008C3309F4B5CE03E0B01649F3809105052A
:10574000882329F380913105909132058F3F914054
:10575000F1F6A6CE0E94950500916D0510916E059B
:1057600020916F0530917005601B710B820B930BBC
:10577000653071058105910508F423C980906C0599
:1057800000E912E018870F831FE3A12E14E0B12E69
:1057900005ED402E04E0502E0CE314E01E830D8333
:1057A00083ECC82E84E0D82E9DEBE92E94E0F92EF0
:1057B00010E000E024E0622E77247394AF81B88576
:1057C0008D919D91B887AF83282F2250330BF9011B
:1057D0008081D5019C90892309F0A9C8992011F0F6
:1057E0009A949C92D5016D915D01611141CCF201B9
:1057F0007082AD81BE818C90F801E852FB4F811020
:10580000A8C8D6018C918111A4C870828824839481
:10581000AAC88DE08C9DF0018D9DF00D1124E75DEF
:10582000FD4F818501E010E08111FACE20E4442D86
:10583000662D80E80E945A09F1CE2AE08091FC048E
:105840008F5FF21631F05BE0F512C6C98091FC045F
:1058500081508093FC04C0C9E8EEF4E029E435E00F
:1058600065E375E0D9018D919D919D014281538140
:105870004817590710F493838283DB014D915D91A2
:10588000BD018417950734F4AD0142505109DA0186
:105890008D939C933296B4E0E83FFB0719F7809113
:1058A00005058823D1F08091470590914805209106
:1058B000E8043091E9042817390720F49093E904AB
:1058C0008093E804209133053091340582179307C3
:1058D00024F49093340580933305113009F430CCCF
:1058E000123009F45DCC3CCACF93DF9382E0809301
:1058F0003404809335048AE394E0909337048093D2
:105900003604109239041092380486E792E090939E
:1059100031048093300480E880933A0481E88093D6
:105920003B040E94D006FC01818190913404482FF1
:10593000490F5527551F48305105A4F5A281B38161
:10594000109711F520E334E03383228320812093E4
:1059500032048093330480913504820F8083209138
:105960003604C22F80913704D82F8C2F821B8917C1
:10597000C8F48991A181B0E0AE5EBC4F8C93818167
:105980008F5F8183F2CFD90118962D913C911997A1
:1059900021153105C1F720E334E019963C932E938D
:1059A0001897D4CFDF91CF910895F999FECF92BD8A
:1059B00081BDF89A992780B50895262FF999FECFD1
:1059C0001FBA92BD81BD20BD0FB6F894FA9AF99A1C
:1059D0000FBE01960895052E97FB1EF400940E94B9
:1059E000022D57FD07D00E941D2D07FC03D04EF459
:1059F0000C94022D50954095309521953F4F4F4F77
:105A00005F4F089590958095709561957F4F8F4F6A
:105A10009F4F08950E943F2DA59F900DB49F900D1C
:105A2000A49F800D911D11240895B7FF0C940A2D99
:105A30000E940A2D821B930B0895A1E21A2EAA1B25
:105A4000BB1BFD010DC0AA1FBB1FEE1FFF1FA2172E
:105A5000B307E407F50720F0A21BB30BE40BF50B2B
:105A6000661F771F881F991F1A9469F760957095B4
:105A7000809590959B01AC01BD01CF010895A29F37
:105A8000B001B39FC001A39F700D811D1124911D12
:105A9000B29F700D811D1124911D08950E94382E12
:105AA00008F481E008950E94672D0C94732E0E94E3
:105AB0006C2E58F00E94652E40F029F45F3F29F0CB
:105AC0000C945C2E51110C94A72E0C94622E0E9403
:105AD000842E68F39923B1F3552391F3951B550B4D
