:100000000C946F040C9497040C9497040C9497042C
:100010000C9497040C9497040C9497040C949704F4
:100020000C9497040C9497040C944E1A0C94A51AF3
:100030000C9497040C9497040C9497040C949704D4
:100040000C9497040C9497040C9497040C949704C4
:100050000C946B190C9497040C9497040C9421192C
:100060000C9497040C9497040C9497040C949704A4
:100070000C9497040C9492190C9497040C94970484
:100080000C9497040C9497040C9497040C94970484
:100090000C9497040C9497040C9497040C94970474
:1000A0000C9497040C9497040C949704040309048B
:1000B00012010002EF020140D80487EE00010102A4
:1000C00003014D6F77727920537472696E676564AE
:1000D00020496E737472756D656E7473005741526A
:1000E000424C0048484848484848484848484848DA
:1000F0004848484848484848484848484848484880
:10010000484848474747474747474747474747477C
:100110004747474545454545454545434343434294
:1001200042403E4A4A4A4A4A4A4A4A4A4A4A4A4A4D
:100130004A4A49484848484848484845454545434B
:1001400043413E4949494949494949494949494938
:10015000494949494949494949494949494949490F
:10016000494949484848484848484848484848480C
:1001700048484848484848484848484848484848FF
:10018000484A4A4746464646464646464646464604
:1001900046464647464646464646464646464646FE
:1001A0004646464545454445444444454444444404
:1001B000444444434343434242424241414141401B
:1001C000403E3F3D3D3D3D3D3D3D3D3D3D3D3D3D59
:1001D0003D3D3D3C303C3C3C3C3C3C3C3C3C3C3C68
:1001E0003C3C3C3B2F3B3B3B3B3B3B3B3B3B3B3B68
:1001F0003B3B3B392D393939393939372B3637358E
:1002000035343244444444444444444444444444DF
:10021000444444444444444444444444444444449E
:10022000444444434343434343434343434343439B
:100230004343434141414141414141404040403FAE
:100240003F3E3C00000000000000000000000000F5
:10025000000000000000000000000000000000009E
:10026000000000000000000000000000000000008E
:10027000000000000000000000000000000000007E
:1002800000000046464646464646464646464646E0
:1002900046464646464646464646464646464646FE
:1002A00046464646464646464646464646464646EE
:1002B00046464646464646464646464646464646DE
:1002C00046464645454545454545454545454545DB
:1002D00045454545454545454545454545454545CE
:1002E00045454544444444444444444444444444CB
:1002F00044444443434343434343434242424241D1
:1003000041403E5E5E5E5E5E5E5E5E5E5E5E5E5E68
:100310005E5E5E5E5E5B5E5D5D5A5A5C5C595C5B18
:100320005B585B595656595858555557575454565B
:1003300056535341413E4140403D3D3F3F3C3C3E92
:100340003E3B3B52524F5251514E4E50504D504FEA
:100350004F4C4F4646434645454242444441444340
:100360004340434D4D4A4D4C4C49494B4B48484AFC
:100370004A47473A3A373A393936363838353537D1
:100380003734344B4A4A494A4949484A4949484915
:100390004848474A49494849484847494848474DD5
:1003A0004C4C4B4A494948494847464E4D4D4C4DA7
:1003B0004C4C4B48474746474646454D4C4C4B4CAA
:1003C0004B4B4A49484847484746454847464547B2
:1003D00046464548474746474646454746464546BA
:1003E00045454447464645464545444645454445BA
:1003F00044444345444443444343424342424141CD
:10040000403E3F4B4B4B4B4B4B4B4B4B4B4B4B4B60
:100410004B4B4A63636363636363636262616160FE
:100420005F5E5D55555555555555555D4B4B494985
:100430004949495C5C5C4A5C4A4A4A5B4A5A4A59A7
:1004400058575654545449494954545449494949B0
:10045000494949535353535353534B4B4B4B4B4BBA
:100460004B534B525252525252525252525252517A
:1004700051515250505050505050504F4F4E4E4D81
:100480004C4B4A4A4A4A4A4A4A4A4A4A4A4A4A4AC9
:100490004A4A4A4A4A4A4A4A4A4A4A4A4A4A4A4ABC
:1004A0004A4A4A49494949494949494949494949B9
:1004B0004949494B4B4B4B4B4B4B494B4B4B4B4B94
:1004C0004B4B4B48484848484848484848484848A3
:1004D000484848474A4747474747474747474747A6
:1004E00047474746464646464646464546464645AB
:1004F00045464644444444444444444343424241C0
:10050000403F3E4B4B4B4B4B4B4B4B4B4B4B4B4B5F
:100510004B4B4A4B4B4B4B4B4B4B4B4B4B4B4B4B2C
:100520004B4B4B4B4B4B4B4B4B4B4B4B4B4B49491F
:10053000494949504A4A4A4A4A4A4A4F4A4E4A4D0C
:100540004A4B4A54545449494954545449494949D5
:10055000494949535353535353534B4B4B4B4B4BB9
:100560004B534B5252525252525252525252525179
:1005700051515250505050505050504F4F4E4E4D80
:100580004C4B4A4A4A4A4A4A4A4A4A4A4A4A4A4AC8
:100590004A4A4A4A4A4A4A4A4A4A4A4A4A4A4A4ABB
:1005A0004A4A4A49494949494949494949494949B8
:1005B0004949494B4B4B4B4B4B4B494B4B4B4B4B93
:1005C0004B4B4B48484848484848484848484848A2
:1005D000484848474A4747474747474747474747A5
:1005E00047474746464646464646464546464645AA
:1005F00045464644444444444444444343424241BF
:10060000403F3E7F3C003E0140024203430445051B
:100610004706494B4A4A4A4A4A4A4A4A4A4A4A4A81
:100620004A4A4A4A4A4A4A4A4A4A4A4A4A4A4A4A2A
:100630004A4A4A4A4A4A4A4A4A4A4A4A4A4A4A4B19
:100640004A4A4A494A4A4A4A4A4A4A4A4A4A4A4A0B
:100650004A4A4A4949494949494949494949494907
:1006600049494949494949494949494848484848FF
:100670004848484747474747474747474747474608
:1006800047463F4545454544454444434445434228
:1006900041403E48484848484848484848484848F3
:1006A00048484848484848484848484848484848CA
:1006B00048484848484848484848484848484848BA
:1006C00048484848484848484848484848484848AA
:1006D00048484947474747474747474747474747A6
:1006E000474747474747474747474747474646479C
:1006F00047474745454545454545454545454545A4
:1007000045454543434343434343434242414140BC
:100710003F3E3C490049024900490049004901491E
:100720000049004900490049004900490049004981
:100730000049004900490049004900490049004971
:100740000049004900490049004900490049004961
:100750000049004900490049004900490049004951
:100760000049004900490049004900490049004941
:100770000049004802480248004802480148014830
:100780000048014800480248004800480048014825
:10079000004900470047024700470247004701471A
:1007A0000047014600470046004700470047004712
:1007B0000047004700470047004700470047004701
:1007C00000470047004700470047004700470047F1
:1007D00000470045004502450045024500450145EA
:1007E00000450144004500440045004500450045E2
:1007F00000450043004302430043024300430143DA
:100800000043014200420041004200400040003FDE
:10081000003E00490049004900490049004900499B
:100820000049004900490049004900490049004980
:100830000049004900490049004900490049004970
:100840000048004802480148014801480048004863
:10085000004A004702470147014701470047004758
:100860000047004700470047004700470047004651
:10087000004600450245014501450145004400454B
:100880000044004302430143014301420041004050
:10089000003E002B042B082B022B012B1028402B91
:1008A000802E4025102520254025802B402880259E
:1008B00008250225042501318031403120311031D5
:1008C0000231012B102B802510252025402B4007BD
:1008D0000605040100080A0B0C0D0900772B1124F2
:1008E0001FBECFEFDAE0DEBFCDBF13E0A0E0B1E086
:1008F000E6EFF9E502C005900D92A431B107D9F7F2
:1009000025E0A4E1B3E001C01D92AC37B207E1F7E6
:1009100014E0CFE6D4E004C02197FE010E94F32C3E
:10092000CE36D107C9F70E94471C0C94F92C0C94C1
:100930000000E3EDF8E0E49190917B008E2F880FAA
:10094000880F80729F7D892B80937B00E770E06425
:10095000E0937C0080917A00806480937A0080919B
:100960007A0086FDFCCF80917800909179000895FF
:100970003FB7F8948091780590917905A0917A0518
:10098000B0917B0526B5A89B05C02F3F19F00196B5
:10099000A11DB11D3FBFBA2FA92F982F8827BC01D9
:1009A000CD01620F711D811D911D43E0660F771F00
:1009B000881F991F4A95D1F708958F929F92AF9201
:1009C000BF92CF92DF92EF92FF924B015C010E94A7
:1009D000B8046B017C010E94B8046C197D098E0972
:1009E0009F09683E734081059105A8F321E0821AB2
:1009F0009108A108B10888EEC80E83E0D81EE11C5A
:100A0000F11C81149104A104B10429F7FF90EF9027
:100A1000DF90CF90BF90AF909F908F9008952FB7A9
:100A2000F8946091740570917505809176059091A8
:100A300077052FBF089580917F0381110DC082E05B
:100A400080937B0384E080937C0310927E0310925A
:100A50007D0381E080937F038BE793E0089590E02E
:100A600080E0089580E008950895AF92BF92CF92FC
:100A7000DF92EF92FF921F93CF93DF93182F809115
:100A800014059091150584569109092E000CAA0BA6
:100A9000BB0BE12FF0E05F0123E0AA0CBB1C2A9501
:100AA000E1F7B5016B5E7E4FEB012881398150E0A3
:100AB00040E082179307A407B5075CF02A813B81C9
:100AC00050E040E082179307A407B50714F49C0197
:100AD000AD01DF01AA0FBB1FAA0FBB1FAB59BC4F53
:100AE0006D917D918D919C910E94BB2C6B017C013D
:100AF000DAE0F694E794D794C794DA95D1F7D50164
:100B0000AB5EBE4F14968D919C91C81AD90AE1082C
:100B1000F108DF01AF59BC4F8C91813009F040C022
:100B2000A7019601C701B6010E94BB2C9B01AC0135
:100B3000C701B6010E94BB2C6B017C01A4E1F594B6
:100B4000E794D794C794AA95D1F7EE0FFF1FE35F00
:100B5000FE4F6081A181B0E0E62FF0E0AE1BBF0B3D
:100B6000A70196010E94172C2AE095958795779505
:100B700067952A95D1F7E60FF71FE501CB5EDE4FAB
:100B8000FF83EE83113011F4E0930502DF91CF91E2
:100B90001F91FF90EF90DF90CF90BF90AF9008959E
:100BA000823099F6D701C60176E0B595A79597955D
:100BB00087957A95D1F783309105A105B10524F584
:100BC00081309105A105B10594F5892B8A2B8B2BDA
:100BD00031F143E0F594E794D794C7944A95D1F75F
:100BE000C5E8CC0EC3E0DC1EE11CF11CD1E0CD1643
:100BF000D4E0DD06E104F1040CF4A7CFC12C34E00D
:100C0000D32EE12CF12CA1CF0697A105B1050CF74D
:100C100086E3C80E82E0D81EE11CF11C96CF63E08B
:100C2000CC0CDD1CEE1CFF1C6A95D1F78ECFCC0CD2
:100C3000DD1CEE1CFF1CD8E7CD0ED1E0DD1EE11C53
:100C4000F11C83CF823108F08251E82FF0E0E153AC
:100C5000F74FE49190917B008E2F880F880F807260
:100C60009F7D892B80937B00E770E064E0937C009C
:100C700080917A00886480937A0008959C012F5FA8
:100C80003F4F28233923232B79F050E040E020E028
:100C9000181619063CF480FF242F959587954F5F11
:100CA0005F4FF6CF822F08958FE708958091050555
:100CB0008D3F54F0E0912505F0E0E25AFC4F808131
:100CC00081508083809305050895809105058330C8
:100CD00054F4E0912505F0E0E25AFC4F80818F5FEB
:100CE0008083809305050895CF92DF92EF92FF9263
:100CF0000F931F93CF93DF9340910A0150E010911F
:100D0000F3040091F701209135053091360564E038
:100D100070E0601B7109C9E4D5E0EAECF2E090E014
:100D200080E0012E02C0369527950A94E2F72170E3
:100D30003327E990F9904E155F056CF518132BC019
:100D4000002349F121153105C1F4DC01AA0FBB1FB5
:100D5000AA5BBC4FE41AF50ACD90DC90EC9CD00164
:100D6000ED9CB00DFC9CB00D1124062E02C0B69572
:100D7000A7950A94E2F7B183A08301963296893051
:100D80009105B9F6DF91CF911F910F91FF90EF90F0
:100D9000DF90CF90089511821082EFCFDF92EF9213
:100DA000FF920F931F93CF93DF93C0912505D0E05F
:100DB000DE01A85FBD4F6C91643108F0C4C07C01B6
:100DC000E62FF0E0EA51F94F0C94F32CFA062207D3
:100DD00053078B07FA06A407BA07CD076007A307D6
:100DE0002207D707F207B3071D08C20728083B08E8
:100DF0003B085A089C0136952795369527952F7301
:100E000030E0220F331FF901ED5EF74FE4918E2F92
:100E100090E0643011F4E1FC019760913505709128
:100E200036056E157F0531F4F901EC5EF74FE4915C
:100E3000E0933003DF91CF911F910F91FF90EF90DE
:100E4000DF900895C0913505D091360590FD09C019
:100E50008C179D0719F482E0809330038AE490E0B8
:100E6000E9CFDC01B695A7952A2F2F7730E0220F26
:100E7000331FF901ED5EF84FE4918E2F90E0EC16F0
:100E8000FD0631F4F901EC5EF84FE491E093300394
:100E90006A3081F6AD77A83409F497C0A83651F6C8
:100EA00085E490E0C7CF90FFD9CFFC01F695E79598
:100EB000EF77F0E0ED56F94FE4918E2F90E0BACF46
:100EC0009C013695279580789170892BC1F4EE208E
:100ED000B1F08CE490E02C32310509F0ABCFE22F79
:100EE000EF77F0E0ED5EF94FE4918E2F90E0F0FCAB
:100EF000A1CF2C32310509F49DCF0C969BCF88E50C
:100F000090E02A35310509F495CF86E590E02C3440
:100F1000310529F78FCF90FFA1CF96958795992717
:100F20000E943E0630E020E0F901ED5FF94FE491C8
:100F30008E1304C0F901EC5FF94FBECF2E5F3F4F17
:100F40002231310589F776CFFC01F695E795FF2729
:100F5000ED5FFA4FE4918E2F90E0009709F06ACF91
:100F60008FEF9FEF67CFFC01F695E795FF27ED5FC9
:100F7000FB4FF0CFFC01F695E795EF77F0E0ED57EA
:100F8000FC4F9ACFFC01F695E795EF77F0E0ED5F27
:100F9000FC4F849190E004964DCF90FF16C0FC0169
:100FA000F695E795EF77F0E0ED57FD4F85CF90FD93
:100FB0000FC0C4E096958795CA95E1F70E9709F49E
:100FC00076C088E490E0E7FC35CF87E490E032CF4C
:100FD00087FF66CFFC01F695E795EF73F0E0ED5FD4
:100FE000FD4F6ACFFC01F695E795F695E795EF730F
:100FF000F0E0ED53FE4FE4918E2F90E0E1FE16C03D
:101000008F32910599F08433910581F085339105F4
:1010100069F08633910551F08B33910539F08C33AB
:10102000910521F08D33910509F00196F0FE02CF74
:10103000823391050CF4FECE60CFFC01F695E79566
:10104000EF77F0E0ED5BFE4FE4918E2F90E0EECF76
:101050009C0164E0369527956A95E1F782FBEE27BF
:10106000E0F9822F8871E82B220F2670E22BF0E046
:10107000ED5DFE4F21CF9695879599278F3F91057E
:1010800009F47EC0F0FEEACEF701F695E795F695F5
:10109000E795EF73F0E0ED51FF4FE4918E2F90E074
:1010A000623109F0C7CE8734910509F0C3CE86E4DA
:1010B00090E0C0CEF694E794DE2CE894D7F80D2D9E
:1010C00010E0C8010E943E063091FF0490E02FE23C
:1010D000281B891301C0322F9F5F9630D1F7C801BA
:1010E00023E0959587952A95E1F78730910521F4BE
:1010F00087E28093FF040DC0069711F489E2F9CFCF
:1011000085E0159507958A95E1F7012BA9F13093B4
:10111000FF048FE7D8120EC08DE08C9FF0018D9FE9
:10112000F00D1124ED55FD4F8485811127C080E31A
:101130008093FF04E091FF0421E32C9FC0012D9FC9
:10114000900D1124815F9D4FE80FF92FF11D8081D3
:1011500090E0E0FE6FCE2DE02C9FF0012D9FF00D72
:101160001124ED55FD4F2485222309F463CE009709
:1011700009F460CE01975ECE88E2BBCF8FE2D8CF74
:101180008CE390E057CE80912D038F5F80932D03E9
:1011900080912D03823011F42F9A089580912D03B0
:1011A000833069F480E18093810084E00E9422060C
:1011B00081E08093000110922C0310922D0308957A
:1011C0000F931F93CF93DF931F92CDB7DEB7198292
:1011D0000E941B05DC0112960D911C910115110551
:1011E00089F0D801ED91FC910280F381E02DBE01E0
:1011F0006F5F7F4FC801099597FD04C0F801008516
:101200001185ECCF89810F90DF91CF911F910F91C4
:1012100008954091180350911903209116033091BD
:10122000170342175307B4F49091E8009570E1F367
:101230009091E80092FD19C08093F100809118030D
:101240009091190301968F739927892B19F48EEFCA
:101250008093E80080911803909119030196909370
:1012600019038093180381E0089580E00895EF92B8
:10127000FF920F931F93CF93DF93F82E192FE62E33
:10128000042F81E0860F880F0E94090983E00E94E5
:101290000909CF2DD12FEC0EFD2EF11CCE15DF0547
:1012A000B9F007FF13C0FE0184910E940909182FAD
:1012B00080E00E940909812321968111EFCFDF91FF
:1012C000CF911F910F91FF90EF9008958881EDCFFE
:1012D00081E0F5CFDF92EF92FF920F931F93CF93B0
:1012E000DF93D82E8A01EB017B01E40EF51ECE15AB
:1012F000DF0559F0D7FE12C0FE0184910E94090952
:1013000021968111F4CF0FEF1FEFC801DF91CF912C
:101310001F910F91FF90EF90DF9008958881EECF9D
:101320000F931F93CF93DF93CDB7DEB7C456D10988
:101330000FB6F894DEBF0FBECDBFFC01DB019C9160
:101340009E5F9C939E01295F3F4F8AE5D9011D92C4
:101350008A95E9F788E089838BE08A8322E02C83F1
:1013600091E09D839E8339E0398764E06A879E8798
:101370009F873A8B44E24B8B9C8BA0E0B1E0BE8B05
:10138000AD8B09E010E0188F0F8B998F3B8F6C8F1E
:101390002F8F98A353E059A387E08CA34DA39EA35E
:1013A000B8A7AFA3A1E4B0E0BAA7A9A786E08BA72E
:1013B0004CA72DA79EA79FA789AB4AAB2BAB2CAB05
:1013C0002DAB3FAB48AF59AF9AAF5BAF9CAF2DAFE2
:1013D0009EAF21963FAF219722964FAF229723963B
:1013E0005FAF239724962FAF249725966FAF25974D
:1013F00026969FAF269727969FAF279728969FAF51
:1014000028972A963FAF2A9745E02B964FAF2B9708
:101410002D962FAF2D9760E470E02F967FAF6EAFC3
:101420002F9763964FAF639785E264968FAF64976B
:1014300065969FAF659766969FAF669767969FAFD5
:10144000679768963FAF689769964FAF69976B96B5
:101450002FAF6B976D967FAF6EAF6D97A1964FAF25
:10146000A197A2968FAFA297A3969FAFA397A4969A
:101470009FAFA497A5965FAFA59792819B839B870B
:101480009F5F9A8F9D8F83812C968FAF2C978F5F54
:1014900080686A968FAF6A9744E650E0BE016F5F3E
:1014A0007F4F80E00E946A09CC59DF4F0FB6F89455
:1014B000DEBF0FBECDBFDF91CF911F910F91089579
:1014C0006F927F928F929F92AF92BF92CF92DF9254
:1014D000EF92FF920F931F93CF93DF93E82E8B0130
:1014E0006A0180918C03882309F47FC0809187036F
:1014F00080FF05C08091E00082608093E000CC2DE9
:10150000DD2DF12C8AEFB82E2E2D2770922E90E42F
:10151000892E8E2D8072782E2E2D2074622E2AE335
:10152000A22E209719F4FF2009F463C09FB7F89406
:101530009092E9008091E80085FD0CC09FBFBA94AD
:10154000BB2009F452C061E070E080E090E00E94AE
:10155000DD04E7CF8091F200282D281B822F9FBF4A
:10156000222369F32C171D0611F00CF08C2F9FB766
:10157000F8949092E9002091E80025FD02C09FBFF9
:10158000D0CF282F30E0C21BD30B772029F0815019
:10159000A0F01092F100FBCFF801E7FC0AC08150E7
:1015A00050F041914093F100FACF44914093F10003
:1015B00031968150D0F7020F131FFF2021F0A09227
:1015C000E800F12CDCCF8091E80085FD07C0A092F7
:1015D000E800FF24F394209791F2F3CF209779F657
:1015E000662069F2A092E800CACFCC24CA94DD2418
:1015F000DA94C601DF91CF911F910F91FF90EF9088
:10160000DF90CF90BF90AF909F908F907F906F9022
:101610000895CF93DF9300D000D0CDB7DEB76150EF
:10162000F894E82FF0E094E0F595E7959A95E1F7C6
:10163000E9836F70862B8A834F774B832F772C83B8
:101640008091A40444E050E0BE016F5F7F4F8F5F44
:101650000E94600A8091A4048F5F8093E9008091CA
:10166000F200882319F08AE38093E80078940F90C1
:101670000F900F900F90DF91CF9108954F925F924E
:101680006F927F928F929F92AF92BF92CF92DF9292
:10169000EF92FF920F931F93CF93DF93C091250595
:1016A000D0E0CE01880F991FFC01E25CFE4F208143
:1016B000318130930C0120930B01FE01E25AFC4F63
:1016C000208120930505FE01E159FE4F20812093E2
:1016D0000405FE01E45FFD4FA080A0923205FE01EB
:1016E000EB56FB4FB08021E0B11001C020E0209309
:1016F0005D03FC01E856FB4FE080F180F0925C0353
:10170000E0925B03FE01E858FE4F508050920A01C0
:101710008E589E4FDC010D911C911093090100938E
:101720000801FE01E458FE4F808180930702FE010C
:10173000E95BFE4FC080C0920B02FE01EC5BFE4FE6
:101740006081609306028DE08C9FF0018D9FF00D0B
:101750001124ED55FD4F80819CE09C9FF0019D9FE1
:10176000F00D1124E65BFE4FB6E08B9FE00DF11DFE
:101770001124D080D0920701818180930002828160
:101780008093F90183818093F801848190E09093A4
:10179000FD018093FC01858190E09093FB01809393
:1017A000FA0180E090E29093060180930501109287
:1017B0005A031092590320E440E080EE0E94090B86
:1017C000EAECF2E0A7E2B5E0119211921D9222E05C
:1017D000EC3DF207C9F78DE08C9FF0018D9FF00D75
:1017E0001124ED55FD4F8481882309F440C142E066
:1017F000A41609F43CC181E0809358038DE08C9FCE
:10180000F0018D9FF00D1124ED55FD4F8781882348
:1018100009F430C18FE780930502B1102DC180918A
:101820008A0390918B0303969093020280930102A6
:10183000A4E0DA9EC001112420910102309102023D
:10184000820F931F90930402809303022C2D30E0AB
:101850008FEF9FE3B9010E94DF2C7B0183E0EE0C48
:10186000FF1C8A95E1F7C801B9010E94CB2C6B01DE
:101870003B0194E0660C771C9A95E1F701EE14E0C9
:1018800046E4842E43E0942E54E3A52E53E0B52E77
:101890008EEC9FEFFC01E519F1092F01D801ED91C4
:1018A000FD918D01E40DF51DC701BF010E94CB2CF8
:1018B00076956795D4016D937D934D01C301BF016A
:1018C0000E94CB2C76956795F501619371935F012A
:1018D000F4E0033F1F0711F7D0923303C0923203A5
:1018E00080E090E2B9010E94DF2C709304016093C4
:1018F000030181E38C9FF0018D9FF00D1124E15FC6
:10190000FD4F268189E0289F900111243093160114
:10191000209315012781289F9001112430931801ED
:10192000209317012589289F9001112430931E01CF
:1019300020931D012689289F9001112430932001B6
:1019400020931F01218D289F90011124309326019F
:1019500020932501228D289F900111243093280186
:1019600020932701258D289F9001112430932E016B
:1019700020932D01968D989FC001112490933001E2
:1019800080932F0105E111E035E6C32E33E0D32E1D
:1019900045E3A42E41E0B42E412C512C50E1652E9C
:1019A000712CD801ED90FC90119712962D913C91DD
:1019B0002E193F0950E040E0C301B2010E94ED2B17
:1019C000F60121933193419351936F01D7010E9406
:1019D0000C2C2AE096958795779567952A95D1F7EF
:1019E000D80115967C936E931497085F1F4FA0162D
:1019F000B106B9F681E38C9FF0018D9FF00D1124A3
:101A0000E15FFD4F808580930D01818580930E01FC
:101A1000878980930F01808D80931001838D80933F
:101A20001101848D80931201878D8093130180A111
:101A30008093140183818093610381A18093620369
:101A400082A18093630383A180936403DF91CF918C
:101A50001F910F91FF90EF90DF90CF90BF90AF90CC
:101A60009F908F907F906F905F904F90089510920D
:101A70005803C4CE80E4CFCE53E0E50EF11CF092C3
:101A80000202E0920102D4CE10920605E0912505F3
:101A900081E3E89FF0011124E15FFD4F86858130ED
:101AA00051F018F0823061F00895218940896785EE
:101AB00080E90C94090B21894089678580E8F9CF7A
:101AC00021894089678580EBF4CF81E0809306050A
:101AD000E091250581E3E89FF0011124E15FFD4FCE
:101AE0008285813051F018F0823061F008952585AB
:101AF0004485638580E90C94090B258544856385BD
:101B000080E8F9CF25854485638580EBF4CFE091AB
:101B10002505F0E0E45FFD4F80818F5F843099F010
:101B200080830E943E0B2091320581E0820F8093DA
:101B3000E00280911305882341F02A5B46E667E0C6
:101B400080EB0C94090B1082ECCF0895EF92FF927A
:101B50000F931F93CF93DF9324E14EE667E080EB72
:101B60000E94090B08E012E02FE6E22E21E0F22E9F
:101B7000CEE12C2F46E667E080EB0E94090BF801CE
:101B800021918F012F5D46E667E080EB0E94090BF3
:101B9000F70121917F0141E54C0F27FD7CC167E0F2
:101BA00080EB0E94090BCF5FC13219F7C091250568
:101BB0002CE32C0F46E667E080EB0E94090B209196
:101BC0009F042B5A46E667E080EB0E94090B2091A8
:101BD0000A0147E667E080EB0E94090B20910801AB
:101BE00030910901A4E6B0E00E94412C2FEF3FE1C3
:101BF00040E050E00E941F2C45E767E080EB0E9428
:101C0000090B209132052A5B46E667E080EB0E94D3
:101C1000090B20910702205B46E667E080EB0E94FB
:101C2000090B20910D05285846E667E080EB0E94DD
:101C3000090B20915D03295D4AE667E080EB0E9475
:101C4000090B22E248E667E080EB0E94090B009155
:101C50005B0310915C03202F2F7749E667E080EB50
:101C60000E94090B23E248E667E080EB0E94090B23
:101C70009801220F232F221F330B49E667E080EBE8
:101C80000E94090B2DE348E667E080EB0E94090BF8
:101C900020910B0249E667E080EB0E94090B2EE3DE
:101CA00048E667E080EB0E94090B2091060249E6B6
:101CB00067E080EB0E94090B10E000E0EC2EF12CB5
:101CC000EE0CFF1C9701225C3E4F7901DAE0F70130
:101CD00080819181002E02C0969587950A94E2F743
:101CE000817024E1200F8D9F200D11244AE667E0CA
:101CF00080EB0E94090B0F5F1F4F0930110539F768
:101D0000F8E2CF9F8001112401581E4FDAE52D2FF4
:101D100046E667E080EB0E94090BF801F08024E6BC
:101D20002F0D46E667E080EB0E94090BF1E0FF1201
:101D30001DC0F8012181205946E667E080EB0E9432
:101D4000090BF80122814AE667E080EB0E94090B4B
:101D5000F80123814BE667E080EB0E94090BF80154
:101D600024814CE667E080EB0E94090BDF5F0B5F8C
:101D70001F4FD23661F6FDE0CF9F7001112410E0B5
:101D800000E028E2200F48E667E080EB0E94090BA4
:101D9000F801EE0DFF1DED55FD4F208149E667E08E
:101DA00080EB0E94090B0F5F1F4F0D30110549F7A3
:101DB00021E3C29FC0011124FC01E15FFD4F7F01BF
:101DC00010E000E02DE0200F48E667E080EB0E9485
:101DD000090BF701E00FF11F208149E667E080EB76
:101DE0000E94090B0F5F1F4F0531110559F705E1DF
:101DF00010E021E3200F48E667E080EB0E94090B2A
:101E0000F701E00FF11F208149E667E080EB0E94B7
:101E1000090B0F5F1F4F0133110559F7F3E0CF9FF7
:101E2000800111240E531B4FDAE52D2F46E667E0A3
:101E300080EB0E94090BF80121918F012B5846E697
:101E400067E080EB0E94090BDF5FDD3571F7FCE096
:101E5000CF9FE001112410E000E021E0200F48E6D0
:101E600067E080EB0E94090BFE01E00FF11FE65BCB
:101E7000FE4F208149E667E080EB0E94090B0F5F6F
:101E80001F4F0C30110549F7DF91CF911F910F9132
:101E9000FF90EF900895215882CE809125058F5FA5
:101EA000833089F080932505109208050E943E0B2F
:101EB000809125058F5F8093E00280911305882330
:101EC00029F00C94A60D10922505EECF0895CF931E
:101ED000DF93EAECF2E030E020E081919191280F6D
:101EE000391F82E0EC3DF807C1F7309306012093DB
:101EF000050160910B05662331F1E0912505F0E0C5
:101F0000E45FFD4F80818330F1F480910A0590E019
:101F100040910905841B910947FD93954091DC028E
:101F2000841B9109E0910301F09104018E9FA001AF
:101F30008F9F500D9E9F500D1124240F351F3093FD
:101F4000060120930501209105013091060180E0F2
:101F500090E2821B930B2091590330915A03820F18
:101F6000931F97FF24C01092060110920501C091A3
:101F70000501D091060180910101909102018C1719
:101F80009D0791F0662381F09E01220F232F221FCF
:101F9000330B4C2F4F776091060280EE0E94090BA5
:101FA000D0930201C0930101DF91CF910895811573
:101FB00020E492072CF49093060180930501D7CF7B
:101FC0008FEF9FE3F8CF2F923F924F925F926F92E5
:101FD0007F928F929F92AF92BF92CF92DF92EF92B9
:101FE000FF920F931F93CF93DF9300D000D000D0C8
:101FF000CDB7DEB7E09125050E2F10E021E3E29F7B
:10200000F0011124E15FFD4F8081882309F47FC036
:102010008DE0809FD001819FB00D1124AD55BD4F43
:1020200011968C911197811172C01A968C91882308
:1020300009F43BC180910702813009F436C124A123
:1020400099E0299F900111242C593F4F85A1899F28
:10205000C00111248C599F4FBC01621B730B7595F5
:102060006795620F731F40912405433019F4680F80
:10207000791F9C01809114059091150541E3409FC3
:10208000F001419FF00D1124E15FFD4F4181E42FEC
:10209000F0E08617970708F011C1DB01A81BB90B08
:1020A00084E1489FF0011124AE9FC001AF9F900DC5
:1020B000BE9F900D1124621B730B0E94CB2C669F58
:1020C000B001112483E0759567958A95E1F77195C4
:1020D0006195710970935A036093590398EC499F75
:1020E000A00111242091590330915A03421753073C
:1020F00024F450935A03409359038091320582305F
:1021000031F410920601109205010E94670FA09110
:102110003205AC83809158038111EEC0A23009F4DE
:10212000A1C2AA2311F0A33011F40E947406A0905A
:102130000A01B12C209130053091310560900B01DE
:1021400070900C01B091F304B98340903505509024
:1021500036052090320330903303E9E4F5E090E057
:1021600080E0C12CD12C7601C394A82FA901082EA0
:1021700002C0569547950A94E2F740FF13C040818C
:1021800051814A155B0574F4B701A601082E04C0FD
:10219000440F551F661F771F0A94D2F7409550953C
:1021A00024233523A3010A2E02C0569547950A948D
:1021B000E2F740FF56C0A9010A2E02C05695479586
:1021C0000A94E2F740FD4DC00C81013021F01981E5
:1021D000181709F446C080809180A20102C056956C
:1021E0004795AA95E2F741705527BC01695D7A4F82
:1021F0007E836D83A814B9040CF06EC0411551059F
:1022000011F5BC01660F771FDB01A653BD4FBB83E1
:10221000AA836C5C7C4F8A189B08DB010D911C9192
:10222000809EB001819E700D909E700D1124769558
:10223000679576956795AA81BB816D937C9301E044
:10224000AD81BE810C93AD81BE816C91613049F44A
:10225000452B39F0DC01AA0FBB1FA653BD4F2D92B1
:102260003C92019632968930910509F07ECF3093E9
:1022700031052093300526960FB6F894DEBF0FBEC9
:10228000CDBFDF91CF911F910F91FF90EF90DF9025
:10229000CF90BF90AF909F908F907F906F905F9006
:1022A0004F903F902F900C94670F20910102309136
:1022B00002028091FE019091FF01CECE861B970B0A
:1022C0008E9F90018F9F300D9E9F300D1124309373
:1022D0005A032093590302CFAD81BE811C92411550
:1022E000510509F4BECFBC01660F771F66537D4FC1
:1022F000DB011D921C92A7CFBC81BB2311F0B33030
:1023000011F40E947406F801E85FFD4F80819EEF92
:10231000980F923008F4F5C0909130039130D1F4C9
:1023200080913203909133032091F304223049F0DD
:102330009093CF028093CE021092D1021092D002DD
:102340009ACF9093D1028093D0021092CF02109234
:10235000CE0291CF923009F08ECF982F9B7F09F05B
:1023600060C040910A0150E000913505109136059A
:10237000F090F304EDE4F5E0FB83EA83EAECF2E0AD
:1023800022E030E0AA81BB818D919D91BB83AA831D
:10239000481759070CF040C0B801022E02C07695CC
:1023A00067950A94E2F760FD37C0F216A9F1D901EA
:1023B000AA0FBB1FAC5CBC4F841B950B0D90BC914E
:1023C000A02D8A9FB0018B9F700D9A9F700D1124D4
:1023D00076956795769567957583648332962330F5
:1023E0003105B9F420913203309133038091CE024C
:1023F0009091CF024091D0025091D102840F951F4D
:10240000281739070CF037CF3093CF022093CE0234
:1024100093CF23E030E0B6CFF21601F31582148299
:10242000DDCF813019F08A3009F025CF4091350594
:102430005091360550FD28C043FD7ECF20914F05B9
:102440003091500540910A0150E080913203909103
:102450003303421753079CF4241B350B60913A0356
:1024600070913B03269FA001279F500D369F500D72
:1024700011245695479556954795841B950B909337
:10248000D1028093D002F7CE20914F0530915005B4
:1024900080910A0190E0821793074CF543FD2CC010
:1024A0000C81013021F04091F3044330A9F0281B46
:1024B000390B40913A0350913B03249FC001259F63
:1024C000900D349F900D112496958795969587953C
:1024D0009093D1028093D0028091050190910601E2
:1024E000811590420CF4C7CE8FEF9FE1C8CF28171B
:1024F000390714F043FFF0CF1092D1021092D002AE
:10250000EBCF0AEC12E062E070E07B836A83812CFF
:10251000912C54018394F090F304609135057091EF
:1025200036059A81F91202C070FD5DC02A81AB01A7
:10253000022E02C0569547950A94E2F740FD8CC0E2
:102540003091DD023323B9F0D501C40104C0880FF6
:10255000991FAA1FBB1F2A95D2F7862B972B909302
:102560003605809335050E94CE0690932F03809305
:102570002E031092DD022091DC0280912E039091B7
:102580002F032817190679F5EA81FB81EE0FFF1F4B
:10259000DF01A75BBA4F8D919C9120910A0128170A
:1025A00019060CF04EC0DF01AF51BB4F2D913C918D
:1025B00022533109281B390BEC5CFC4F40815181BF
:1025C000249FC001259F900D349F900D1124969556
:1025D000879596958795919581959109D80115963E
:1025E0009C938E9314970E5F1F4FEA81FB81339764
:1025F00019F520913203309133038091CE029091EE
:10260000CF024091D0025091D102840F951F919535
:1026100081959109281739070CF02DCE8EEF8F0D7B
:10262000823030F4809135059091360590FD23CEAF
:10263000319521953109E8CE83E090E09B838A8330
:102640006ACF8091320390913303919581959109DE
:10265000F80195838483C7CFD80115961C921E92EA
:102660001497C1CF26960FB6F894DEBF0FBECDBF2C
:10267000DF91CF911F910F91FF90EF90DF90CF905E
:10268000BF90AF909F908F907F906F905F904F9092
:102690003F902F900895CF93DF9300D000D0CDB717
:1026A000DEB76150F894282F30E094E035952795F7
:1026B0009A95E1F729836F70862B8A834F774B8336
:1026C0001C828091A40444E050E0BE016F5F7F4F04
:1026D0008F5F0E94600A8091A4048F5F8093E9005D
:1026E0008091F200882319F08AE38093E8007894BF
:1026F0000F900F900F900F90DF91CF910895EF9270
:10270000FF921F93CF93DF93182FE0912505CE2FD3
:10271000D0E081E3E89FF0011124E15FFD4F828169
:102720008130F9F4E0901B01F0901C018091790355
:1027300090917A03E816F90611F4112391F081E3E0
:102740008C9FF0018D9FF00D1124E15FFD4F2E2D28
:102750004581648180EB0E94090BF0927A03E0923C
:1027600079038DE08C9FF0018D9FF00D1124ED55C4
:10277000FD4FF680F0FE24C080910B05811109C049
:102780008091140590911505D0E0C0E08536910543
:1027900024F0C0912B01D0912C018091770390916E
:1027A00078038C179D0711F4112351F04C2F609181
:1027B000060280ED0E944B13D0937803C0937703F9
:1027C000F1FE1EC080910B058823D1F020913301CA
:1027D000C22F80913401D82F809175039091760398
:1027E0008C179D0711F4112359F040910A0560914F
:1027F000060280EA0E94090BD0937603C09375030A
:10280000DF91CF911F91FF90EF900895CF93DF93C9
:10281000E0912505A82FB0E02E2F30E098E2E99F47
:10282000F001112495E0899FE00DF11D1124E1587C
:10283000FE4FE081E150E33108F039C0F0E0ED5D9A
:10284000FB4E0C94F32C361499149D14A114A81467
:10285000C514D814E5140215111521155714571471
:1028600057145714571457145714331585E08A9F7B
:10287000F0018B9FF00D112448E2429FC001439F5D
:10288000900D1124E80FF91FE158FE4F818181114D
:1028900016C0248143816281ED01CD54DB4F8881D4
:1028A000811108C080E90E94090B81E08883DF91D3
:1028B000CF91089580E80E94090B1882F8CF8130EB
:1028C00041F424814381628180EBDF91CF910C94AC
:1028D000090B823009F0CBC04381628180ECDF912B
:1028E000CF910C944B13809131038F3720F48F5F7D
:1028F0008093310302C01092310385E08A9FF0017A
:102900008B9FF00D112448E2429FC001439F900D20
:102910001124E80FF91FE158FE4F40913103628105
:1029200080EC0E944B1381E08093E002C0CF8FE7E0
:10293000DFCFDF91CF910C94870DDF91CF910C9475
:102940004D0F8091080591E0892780930805AFCF4E
:10295000C901880F991F280F391F2E533B4FA20F13
:10296000B31F8C9181110DC00E94650680910505F1
:10297000082E000C990B97FFD7CF9195819591095F
:10298000D3CFDF91CF910C945606C901880F991FC0
:10299000280F391F2E533B4FA20FB31F8C9181116B
:1029A00003C00E945606E2CFDF91CF910C946506DA
:1029B000C1E020E04BE76C2F80EB0E94090B1092E6
:1029C0000605CF5FC131A9F772CFF901E458FE4F78
:1029D00080818F5F8430A1F080830E943E0B109233
:1029E00008052091070281E0820F8093E002809128
:1029F0001305882309F45BCF205B46E667E064CFCC
:102A00001082EBCF81E08093E00280910605811176
:102A100004C0DF91CF910C94650DDF91CF910C94A0
:102A2000440D40910405C901880F991F280F391FD3
:102A30002E533B4FA20FB31F8C91811110C04F5FDB
:102A40000FC040910405C901880F991F280F391F35
:102A50002E533B4FA20FB31F8C918111F0CF4150E9
:102A60004093040524CF81E080936D0520CF83300F
:102A700009F439CF843009F01ACF809131038823CB
:102A800009F455CF815034CF84E0EEE0F3E0DB0170
:102A900001900D928A95E1F784E008951F93CF93FA
:102AA000DF93EC01162F0E94D72B181739F0612FF6
:102AB000CE01DF91CF911F910C94DF2BDF91CF914D
:102AC0001F9108957F928F929F92AF92BF92CF9263
:102AD000DF92EF92FF920F931F93CF93DF93C82F54
:102AE000082F10E0E0912505F0E0E85FFD4F6081E0
:102AF000C80188960E944E15E0912505F0E0E15945
:102B0000FE4F6081C801C5960E944E15E0912505D3
:102B1000F0E0E858FE4F6081C801C2960E944E1551
:102B20008DE0C89F60011124F12CE12CDDE088E3E9
:102B3000C80ED11C80912505F701D89FE00DF11D2D
:102B40001124ED55FD4F6081C6018E0D9F1D0E9421
:102B50004E158FEFE81AF80A8DE0E816F10451F7E8
:102B60007801EE0CFF1CE0912505F0E0EE0FFF1F51
:102B7000E25CFE4F6081C701835B9E4F0E944E1551
:102B8000E0912505F0E0EE0FFF1FE25CFE4F618152
:102B9000C701825B9E4F0E944E15E0912505F0E033
:102BA000EE0FFF1FEE58FE4F6081C7018D5A9E4FFA
:102BB0000E944E15E0912505F0E0EE0FFF1FEE5844
:102BC000FE4F6181C7018C5A9E4F0E944E15E091C5
:102BD0002505F0E0EB56FB4F6081C801875A9E4FF8
:102BE0000E944E1582E3C89F6001112484E6C80E3E
:102BF000D11C912C812CD5E0B8E27B2EB12CA12CDC
:102C000080912505DA9DF001DB9DF00D1124789E61
:102C1000E00DF11D1124E158FE4FE80DF91D608112
:102C2000C5018C0D9D1D0E944E158FEFA81AB80A84
:102C300088E0A816B10421F78FEF881A980A8AE075
:102C4000C80ED11C85E088169104C1F683E0C89FA8
:102C500050011124D12CC12C8AEFA80EB11CE09197
:102C600025058E2F90E0FC01EE0FFF1FE80FF91FE6
:102C7000EE53FB4FEC0DFD1D6081C5018C0D9D1DBC
:102C80000E944E158FEFC81AD80A83E0C816D104E7
:102C900031F784E1C89F50011124D12CC12CDCE014
:102CA0008CEFA81A8EEFB80A80912505F601D89FFF
:102CB000E00DF11D1124E65BFE4F6081C5018C0D16
:102CC0009D1D0E944E158FEFC81AD80A8CE0C816B9
:102CD000D10451F7E0912505F0E0EE0FFF1FE85613
:102CE000FB4F6081C7018F5E9E4F0E944E15E091A1
:102CF0002505F0E0EE0FFF1FE856FB4F6181C7018D
:102D00008E5E9E4F0E944E15E0912505F0E0E45F37
:102D1000FD4F6081C801875C9E4F0E944E15E09177
:102D20002505F0E0E458FE4F6081C801845C9E4FA9
:102D30000E944E15E0912505F0E0E95BFE4F6081B1
:102D4000C801815C9E4F0E944E15E0912505F0E080
:102D5000EC5BFE4F6081C8018E5B9E4F0E944E155A
:102D600081E3C89FE001112410E000E021E3F22E8E
:102D7000C15ADE4F80912505F801F89EE00DF11D46
:102D80001124E15FFD4F6081CE01800F911F0E94F1
:102D90004E150F5F1F4F0133110561F7DF91CF9182
:102DA0001F910F91FF90EF90DF90CF90BF90AF9069
:102DB0009F908F907F900895CF92DF92EF92FF9235
:102DC0000F931F93CF93DF9301EE14E087E3C82E98
:102DD00085E0D82E91EDE92E92E0F92EC2E1D0E007
:102DE000F80161810E5F1F4FCE010E944E15F80160
:102DF00032976081CE0101960E944E15F6016081E6
:102E0000F2E0CF0ED11CC7010E944E1522968FEF23
:102E1000E81AF80AC432D10519F710926D0563E07B
:102E200085E290E00E944E15EDEAF8E0259134919C
:102E30009FB7F894F901FF272081832F8095822383
:102E400080839FBF1092E004DF91CF911F910F917B
:102E5000FF90EF90DF90CF9008950C94D72B2F9296
:102E60003F924F925F926F927F928F929F92AF921A
:102E7000BF92CF92DF92EF92FF920F931F93CF9367
:102E8000DF93CDB7DEB766970FB6F894DEBF0FBEFF
:102E9000CDBF80E390E00E942D1780939F0488E7C8
:102EA00091E09C878B87EFE0F2E0FA83E98384E48A
:102EB00091E09E878D87E7E4F1E0F88BEF8788E962
:102EC00094E09A8B898BEAE4F1E0FE83ED838FE74F
:102ED00091E098878F83E3EAF2E0FA87E987B12CE3
:102EE000A12C512C412C712C612C1C821B8210E0D6
:102EF00000E0312C212C1E8A1D8A8D899E89C29664
:102F00000E942D17EB85FC858193FC87EB87D12CE4
:102F1000C12C7501F8E3EF0EF11CC7018C0D9D1D4E
:102F20000E942D17E985FA85EC0DFD1D80838FEF3A
:102F3000C81AD80A9DE0C916D10479F7C801835B85
:102F40009E4F0E942D17F82EC801825B9E4F0E9453
:102F50002D17F801E25CFE4F982F8F2D918380830F
:102F6000C8018D5A9E4F0E942D17F82EC8018C5A09
:102F70009E4F0E942D17F801EE58FE4F982F8F2D6F
:102F8000918380838D899E89875A9E4F0E942D1739
:102F9000ED89FE89EB56FB4F80836201E4E6CE0E9D
:102FA000D11CC2018A569F4F9C8B8B8B8F8098843B
:102FB000F12CE12CC7018C0D9D1D0E942D1795E071
:102FC0009E9DF0019F9DF00D1124E80DF91D808359
:102FD000EFEFEE1AFE0AF8E0EF16F10459F78AE077
:102FE000C80ED11C9FEF891A990AEB89FC89CE166D
:102FF000DF06F1F67301FAEFEF0EF11CC3018E53F9
:103000009B4F4C0163019DEFC90ED11CC7010E946B
:103010002D1791E0811101C090E0F40191934F01CF
:10302000FFEFEF1AFF0AEC14FD0481F7D12CC12C3D
:10303000EB80FC808CEFE81A8EEFF80AC7018C0D4C
:103040009D1D0E942D17ED81FE81EC0DFD1D8083DD
:103050009FEFC91AD90AECE0CE16D10479F7C8015E
:103060008F5E9E4F0E942D17F82EC8018E5E9E4FD8
:103070000E942D17982F8F2DE989FA8981939193BA
:10308000FA8BE98B8D899E89875C9E4F0E942D1754
:10309000ED89FE89E45FFD4F80838D899E89845C84
:1030A0009E4F0E942D17ED89FE89E458FE4F8083C4
:1030B0008D899E89815C9E4F0E942D17813608F074
:1030C00082E0EF85F8898193F88BEF878D899E895F
:1030D0008E5B9E4F0E942D17813108F081E0ED85B7
:1030E000FE858193FE87ED87D12CC12C7101F1EA19
:1030F000EF1AFEEFFF0AC7018C0D9D1D0E942D17D0
:10310000E981FA81EC0DFD1D80838FEFC81AD80A82
:1031100091E3C916D10479F7ED89FE893196FE8BCA
:10312000ED8BF1E32F0E311C89819A81C1969A8330
:1031300089830E5F1F4FEB81FC817496FC83EB83C8
:103140008D819E810C969E838D8393E0690E711C08
:10315000E2E34E0E511C8F819885889698878F8365
:103160009DE0A90EB11CE985FA853D96FA87E987AD
:103170008D899E89039709F0C0CE66960FB6F894A4
:10318000DEBF0FBECDBFDF91CF911F910F91FF909A
:10319000EF90DF90CF90BF90AF909F908F907F90F7
:1031A0006F905F904F903F902F900895CF92DF9255
:1031B000EF92FF920F931F93CF93DF9388E0E82E57
:1031C00082E0F82E9FE6C92E91E0D92EC8E2D0E029
:1031D000CE010E942D17082FF70181937F01CE01A8
:1031E0000D960E942D17182FF60181936F01809183
:1031F00013058823C9F02C2F2A5046E667E080EBA0
:103200000E94090B21E2200F46E667E080EB0E9456
:10321000090B4C2F495B212F17FF02C02FE7210F0D
:1032200067E080EB0E94090B2196CB32D10581F635
:10323000DF91CF911F910F91FF90EF90DF90CF9092
:1032400008951F920F920FB60F9211242F933F9360
:103250008F939F93AF93BF93809174059091750561
:10326000A0917605B09177053091730526E0230F84
:103270002D3758F50296A11DB11D2093730580933B
:10328000740590937505A0937605B09377058091AA
:10329000780590917905A0917A05B0917B0501960A
:1032A000A11DB11D8093780590937905A0937A05AF
:1032B000B0937B05BF91AF919F918F913F912F91DB
:1032C0000F900FBE0F901F90189529E8230F0396BB
:1032D000A11DB11DD2CF1F920F920FB60F921124D4
:1032E0002F933F934F935F936F937F938F939F930E
:1032F000AF93BF93EF93FF93E0913C01F0913D01B9
:103300000995FF91EF91BF91AF919F918F917F911F
:103310006F915F914F913F912F910F900FBE0F9042
:103320001F9018951F920F920FB60F9211242F9392
:103330003F934F935F936F937F938F939F93AF933D
:10334000BF93EF93FF9380912C0328E0882319F01B
:1033500020912C03215080912C0390912C038F5F9E
:10336000983009F480E090912C03993029F5599810
:10337000809178009091790020912A0330912B035D
:10338000821B930B90936C0580936B05809189034E
:10339000806180938100FF91EF91BF91AF919F91E8
:1033A0008F917F916F915F914F913F912F910F90EE
:1033B0000FBE0F901F9018953091000190E03323BD
:1033C00009F450C030912C03311129C020917800AC
:1033D00030917900309303052093020521E020937A
:1033E00026058F519D4FFC0180810E94220610927C
:1033F000000180912C03882371F2E0912C03F0E00E
:10340000EE0FFF1FEA50FD4F808191812FB7F89496
:10341000FC01FF278081892B80832FBFBCCF30E048
:10342000220F331FF901EA50FD4F608171815FB7B0
:10343000F894FB01FF276081472F40954623408386
:103440005FBF4091780050917900F901E65EFC4F32
:1034500060817181461B570B255A3A4FF901518300
:103460004083BFCF2091780030917900880F991F59
:10347000FC01E65EFC4F31832083E0912C03F0E0F9
:10348000EF51FD4F80810E94220681E08093000170
:1034900080912C038F5F80932C037DCF1F920F921E
:1034A0000FB60F9211248F939F938091E10090911A
:1034B000E100937F9093E10083FF0FC01092E90039
:1034C00091E09093EB001092EC0092E39093ED006A
:1034D00010928C0398E09093F00082FF0AC093E072
:1034E0009093E9009091F200992319F09AE3909358
:1034F000E80084FF18C08091E2008E7E8160809396
:10350000E2008091E1008F7E8093E100809187034B
:103510008E7E8061809387039F918F910F900FBE65
:103520000F901F90189580FFF7CF8091E2008E7E5C
:1035300080618093E2008091E1008E7E8093E100C3
:10354000809187038E7E8160E5CF1F920F920FB628
:103550000F921124CF92DF92EF92FF920F931F935D
:103560002F933F934F935F936F937F938F939F938B
:10357000AF93BF93EF93FF93CF93DF93CDB7DEB7B6
:103580006C97DEBFCDBF1092E9008091E80083FF09
:103590002CC089E0FE017596EE2EDF2E815029F0B9
:1035A0009091F10090833196F9CF82EF8093E800FB
:1035B0008D8987FF39C09091E80090FFFCCF982F4C
:1035C000907609F033C19E894F89588D2F89F88CE8
:1035D000911131C0803861F5809188038093F100AA
:1035E0001092F1008EEF8093E8006C960FB6F8947D
:1035F000DEBF0FBECDBFDF91CF91FF91EF91BF91A5
:10360000AF919F918F917F916F915F914F913F917A
:103610002F911F910F91FF90EF90DF90CF900F901F
:103620000FBE0F901F9018959EEF9093E800C7CFA4
:103630001092F100D5CF913059F48111D3CF4130A0
:10364000510581F6809188038D7F80938803CACFCE
:10365000933049F48111C6CF4130510519F680915C
:1036600088038260F2CF953041F48091E80080FFBA
:10367000FCCF20682093E300B5CF963009F0A8C0B6
:103680000B8D1C8D82E01092E900109219031092AC
:103690001803F8122EC010921703109216030E94FE
:1036A000E0081F8299E09983FA8291E09E8390EA74
:1036B00098879AE099872091180330911903275F22
:1036C0003F4F3C832B838D831092E90010921903A6
:1036D00010921803109317030093160349E050E06B
:1036E000BE016F5F7F4F80E00E946A090E94E00880
:1036F00079CF10931703009316030E941B05DC017A
:1037000012960D911C910115110509F4BAC0D8014A
:10371000ED91FC910480F581E02D6E2D7D2DC80189
:103720000995009709F0A8C0F80100851185EBCF35
:10373000F3E0FF120EC08F89882309F440C0823065
:1037400061F440E865E08DED90E00E943709811159
:1037500049CF81E28093EB0048CF813029F440E8E3
:103760006AE182EC90E0F1CF833099F70E941B056B
:10377000DC011296ED90FC908E010F5F1F4F6801E7
:10378000E114F10479F0D701ED91FC910680F78105
:10379000E02DB801C7010995080F111DF701E0845C
:1037A000F184EECFD8011C92F60101900020E9F7D8
:1037B0003197BF016C197D0940E0C601C6CF6CEAA4
:1037C00070E0FB01449150E080E80E946A090ACF52
:1037D000973009F4BECF983021F481E08093F10056
:1037E00001CF993009F0FECE837009F0B2CFE6E345
:1037F000F1E081E031E096E32191222371F08093A2
:10380000E9003093EB00DF0111972C912093EC003D
:103810009093ED008F5F873079F78EE78093EA0011
:103820001092EA008F8980938C03DCCE8B8D9C8D67
:103830001092E90010921903109218039093170345
:10384000809316030E941B05DC0112960D911C91BA
:103850000115110509F47DCFD801ED91FC9101907E
:10386000F081E02D6E2D7D2DC80109958111BACE14
:10387000F80100851185ECCF181619060CF4B2CEAC
:1038800068CFF1E0FF1254CF60EB70E09ACFCF9396
:10389000DF93CDB7DEB762970FB6F894DEBF0FBEE9
:1038A000CDBF789484B5826084BD84B5816084BDC9
:1038B00085B5826085BD85B5816085BD80916E00CE
:1038C000816080936E0010928100809181008260FF
:1038D000809381008091810081608093810080913C
:1038E000800081608093800080919100826080934D
:1038F000910080919100816080939100809190006F
:103900008160809390008091C10084608093C100A9
:103910008091C10082608093C1008091C10081606C
:103920008093C1008091C30081608093C300809127
:10393000C00082608093C0008091C200816080934B
:10394000C20080917A00846080937A0080917A002E
:10395000826080937A0080917A008E7F80937A00D3
:1039600080917A00806880937A0010928C03109284
:103970008803109287038091D70081608093D700DD
:1039800080EA8093D80089B58F7E89BD89B5826031
:1039900089BD09B400FEFDCF61E070E080E090E0F9
:1039A0000E94DD048091D8008F7C80618093D800D4
:1039B0008091E000807F8093E0008091E1008E7E26
:1039C0008093E1008DE08093E2008FEF80937E0092
:1039D00083EF80937D004DEA242E48E0342EF101E0
:1039E000859194912FB7F894FC01FF278291892B40
:1039F00080832FBFE5EBF8E0859194912FB7F89481
:103A0000FC01FF27DF013E91892F809583238C9352
:103A10008081892B80832FBFE6EFF2E08191919125
:103A20002FB7F894DC01BB278E91892B8C932FBF85
:103A300023E0E830F20791F72198299A22982A9AF0
:103A400023982B9A8CE290E00E942D17833039F452
:103A500083EF93E00E942D17843109F441C064E1A3
:103A600083EF93E00E944E151092250580E00E949E
:103A7000621581E0809325050E94621582E08093A3
:103A800025050E94621510E000E0C8010E942D1774
:103A9000682FC80142960E944E150F5F1F4F0231DA
:103AA000110599F701ED12E0C8010A960E942D1741
:103AB000682FC8010E944E150F5F1F4F0B3D32E06B
:103AC000130791F760919F0480E390E00E944E15E8
:103AD00063E08CE290E00E944E1583E08093E00268
:103AE00085E290E00E942D17833059F591EEA92EC2
:103AF00094E0B92E27E3C22E25E0D22E31EDE32E3D
:103B000032E0F32E02E110E0C8010E942D17982E3A
:103B1000C80101960E942D17992DD5018D939D9373
:103B20005D01C7010E942D1790E0F60181939193EA
:103B30006F010E5F1F4FFFEFEF1AFF0A04321105EE
:103B400019F70E94D6180E942F1780919F04809326
:103B500025050E9499040E9499040E94990490935B
:103B60008B0380938A0390931505809314050E941C
:103B70003E0B80E1809381001092800091E0909351
:103B8000890320E931E0309387002093860021E10A
:103B90002093810023EC38E030933D0120933C01D9
:103BA00090936F008093810080917A00887F80934A
:103BB0007A0084E880937A0080E480937C0081E03E
:103BC0000E94220605E0902E83E1882EF8948091D1
:103BD0008D0490918E04A0918F04B0919004409137
:103BE0009104509192046091930470919404841B09
:103BF000950BA60BB70B8F739927AA27BB27892B89
:103C00008A2B8B2B09F47FC08091910490919204B0
:103C1000A0919304B0919404880F991F880F991F65
:103C2000FC01E357FC4F9081818102811381C09098
:103C30008D04D0908E04E0908F04F0909004409119
:103C40009104509192046091930470919404C4166D
:103C5000D506E606F706C1F0409191045091920412
:103C600060919304709194044F5F5F4F6F4F7F4F4B
:103C70004F735527662777274093910450939204FA
:103C800060939304709394047894992311F40C94A2
:103C9000AC2A073708F09ACF8F70863009F096CF9C
:103CA00081E08093E002063609F054C2E12EF12C47
:103CB0008FEF810F823108F0B4C010FDA6C09701CC
:103CC00035952795F901EE0FFF1FE152FB4F8081DB
:103CD0009181AC014550510951834083CB970597A1
:103CE00008F0ACC12D5E46E667E080EB0E94090B50
:103CF0001E3709F0B6C181E0809313051092E002EF
:103D00000E94A60D96C08091A4042FB7F8948770E6
:103D10008093E9009091F2002FBF10E000E080E076
:103D2000992309F484CF80918D0490918E04A09101
:103D30008F04B09190040196A11DB11D8F73992736
:103D4000AA27BB274091910450919204609193045B
:103D500070919404481759076A077B0709F454CFF8
:103D60002091A4043FB7F89427702093E900209194
:103D7000F2003FBF2091A40430918C03332309F457
:103D800043CF5FB7F89427702093E9004091F20089
:103D9000242F30E02530310514F024E030E0FE011E
:103DA0003196215020F03091F1003193FACF442325
:103DB00041F02091F200211104C01BE6A12EA09237
:103DC000E8005FBF443008F41FCF40918D0450914C
:103DD0008E0460918F0470919004440F551F440F1E
:103DE000551F43575C4F09811A812B813C81FA0191
:103DF000008311832283338380938D0490938E04F8
:103E0000A0938F04B093900496CFF7013196EE7F84
:103E1000F170E152FB4F80819181059691838083FF
:103E200067CF133109F00AC10E94DC1683E080934A
:103E3000E0028FED810F8B3140F4E091A004F0E0BF
:103E4000E85FFD4F80830E943E0B9CE3C92ED12C7E
:103E500080E0BB24B394B80ECE14DF0451F48093F9
:103E60002505109208050E943E0B0E94A60DB092F7
:103E7000E0023FEFC31AD30A8B2D833051F786E45B
:103E8000A82EB12C8AEB8A0D70902505C72CD12C59
:103E9000AE14BF0459F4F601E45FFD4F80830E9425
:103EA0003E0B809132058F5F8093E0024FEFA41AA2
:103EB000B40A5AE4A516B10429F7B0E5AB2EB12C2B
:103EC000C60184589E4F6C0180EB8A0DAE14BF046E
:103ED00049F4D6018C930E943E0B809107028F5FBC
:103EE0008093E002BFEFAB1ABB0AE5E5AE16B10462
:103EF00059F740917B018AE590E026EA280F8E155C
:103F00009F0509F4422F019682369105B1F740933F
:103F10007B013091E00228E2729EF0011124E15809
:103F2000FE4F20E042131BC0173711F4808230E0AF
:103F300084E690E05CE9580F8E159F0511F45083DC
:103F400030E0019680379105A9F750E9580F8E159A
:103F50009F0509F45183019685379105B1F72F5FCD
:103F600035962830F9F63093E00253E0759E9001C3
:103F700011242E533B4F90E080E051E048130BC0DA
:103F8000153709F0B1C0F901E80FF91F1082FC01E3
:103F9000ED54FB4F108201968330910579F715356A
:103FA00009F0AAC070929F04672D80E390E00E9400
:103FB0004E15EFE6EE2EF12CC02ED12CF1E8BF2EDF
:103FC000B10EEC14FD0461F4C7018F5691098159BB
:103FD0009E4F123308F0E5C0FC0110830E943E0B97
:103FE000BFEFEB1AFB0AE2E7EE16F10451F70836D1
:103FF00009F0DAC08FEF810F80936E0140917B0151
:104000002091250558E2259F9001112421583E4F0B
:1040100090E080E048130DC00A3609F021C210314B
:1040200040F4989EF001999EF00D1124E20FF31FC9
:10403000128301968830910569F7C8CD1F3709F0C2
:1040400057CE1092E00281E080936D05F2CE81E0C0
:104050001F3121F0103209F0ECCE82E08093A004F1
:10406000E8CE1A3729F01E3191F71092A004E1CE64
:10407000D12CC12C53E0A52EC6010E942D17B82EBD
:1040800020E34AE667E080EB0E94090B2B2D2F7797
:1040900047E767E080EB0E94090B21E34AE667E00F
:1040A00080EB0E94090B2B2D30E0220F232F221FC3
:1040B000330B47E767E080EB0E94090B23E34AE6F6
:1040C00067E080EB0E94090B63E070E080E090E025
:1040D0000E94DD04A092E002FFEFCF1ADF0AC114B4
:1040E00024E0D20649F6A5CE163709F054CFF901DF
:1040F000E80FF91F50834BCF1B3739F4872D0E94EF
:10410000621583E08093E00254CF1C3781F480E095
:104110000E94621581E00E94621582E00E94621591
:104120000E94D6180E942F170E943E0BEACF1D371F
:1041300009F03FCF6FEF8CE290E00E944E1588E1CE
:1041400099E00FB6F894A895809360000FBE909305
:104150006000FFCF073649F4E0912505F0E0E8580C
:10416000FE4F10830E943E0B24CF053709F021CF6C
:10417000E0902505F12CEE0CFF1CC7018E589E4FD8
:104180007C01212F30E0AFEFBFE10E94412C24E6FB
:1041900030E040E050E00E941F2CD7012D933C936B
:1041A000E1CFDC01BC921ACF093609F067C0E0917B
:1041B0006E018091250590E0EC3068F44CE0489F5A
:1041C0009001499F300D1124265B3E4FE20FF32FE3
:1041D000F11D108324C0E13268F441E3489F90014F
:1041E000499F300D1124215F3D4FE20FF32FF11D48
:1041F0003C97EFCFE13219F410939E04FFCEE232E8
:1042000089F4880F991FFC01E856FB4F40E8149F82
:104210009001112480919E04282B318320830E94D9
:104220003E0BECCEE53368F44DE0489F9001499F8A
:10423000300D11242D553D4FE20FF32FF11DB7978F
:10424000C8CFEC3329F4895B9E4FDC011C93E7CF88
:10425000ED3321F48C5B9E4FFC01BBCFE23608F0BE
:10426000CDCE41E3489F9001499F300D1124215F3D
:104270003D4FE20FF32FF11DF097ABCF0A3609F057
:10428000BDCE103108F4BACE8CEE810F8930F0F437
:10429000E0912505F0E0EE0FFF1FE25CFE4F212FBD
:1042A0002451330BC90121E030E040E050E004C06C
:1042B000220F331F441F551F8A95D2F7C901208151
:1042C0003181822B932B91838083A9CF82EE810F42
:1042D0008930F0F4E0912505F0E0EE0FFF1FE25C7D
:1042E000FE4F412F4E51550BCA0121E030E040E016
:1042F00050E004C0220F331F441F551F8A95D2F788
:10430000C901809590952081318182239323DBCF51
:10431000173239F4E0912505F0E0EB56FB4F10829F
:104320007ECF183241F4E0912505F0E0EB56FB4FCB
:1043300081E0808374CF193259F5E0901405F09034
:104340001505E0912505F0E0EE0FFF1FE856FB4F45
:10435000F182E08222E248E667E080EB0E94090BEE
:104360002E2D2F7749E667E080EB0E94090B23E2B0
:1043700048E667E080EB0E94090B9701220F232F8C
:10438000221F330B49E667E080EB0E94090B47CF01
:104390001A3231F482E080936D051092E0022ECE45
:1043A0001B32A9F52091140530911505E0902505E3
:1043B00041E3E49E70011124C701815F9D4F7C01A0
:1043C000822F8F77D70153968C9353976901CC0C2A
:1043D000CD2CCC1CDD085496CC9220E248E667E058
:1043E00080EB0E94090BF701238949E667E080EB27
:1043F0000E94090B21E248E667E080EB0E94090B6E
:104400002C2D49E667E080EB0E94090BF7CD1D32A9
:1044100009F0F4CDF12CE12CC70142960E942D1732
:10442000682FC7010E944E15FFEFEF1AFF0A22E125
:10443000E216F10489F7FBEDEF2EF2E0FF2EC70143
:104440000A970E942D17682FC7010E944E153FEF53
:10445000E31AF30A45EEE41642E0F40681F7CECD06
:104460000B3649F4989EF001999EF00D1124E20F4D
:10447000F31F1383DECD0C3609F0DBCD989EF001DF
:10448000999EF00D1124E20FF31F1483D2CD692DF4
:1044900070E090E080E00E94572C20E030E040E89F
:1044A00050E40E94502C87FD02C00C94F62A93948D
:1044B000F50190820C94F62A1082882011F40C9455
:1044C0000C2BF70180819181019691838083F70104
:1044D000808191818D32914040F0D6018C91811183
:1044E00004C0F801E154FB4F7082F20181912F0169
:1044F000AD81BE818D93BE83AD830F5F1F4FBFEF34
:10450000CB1ADB0AE2E0EE0EF11C0330110511F0CC
:104510000C94E12A80926E050E940F0560936F054E
:1045200070937005809371059093720580916E056C
:10453000882309F44FC18091D704882351F08091DA
:10454000D504882331F01092D50410926E05109294
:10455000D7048091D104882309F443C08091D0040A
:1045600081113FC08091CF0481113BC0E0912505AE
:104570000E2F10E021E3E29FF0011124E15FFD4FD7
:104580002289213091F480913505909136059695D8
:104590008795089751F41092D1042093CB04809111
:1045A00006058111E6C30E94650D8DE0809FF00134
:1045B000819FF00D1124ED55FD4F8281882389F0F4
:1045C00080913505909136059695879580319105B6
:1045D00009F0D2C31092D10481E08093CB040E94F1
:1045E000870D64ED462E64E0562E71EDE72E74E0E3
:1045F000F72EEFEBAE2EE4E0BE2EFBECCF2EF4E078
:10460000DF2E10E000E088248394A5E07A2EB8E243
:104610006B2E902ED2018D912D01882359F1E091BE
:1046200025058E2F90E0FC01EE0FFF1FE80FF91F0C
:10463000EE53FB4FE00FF11F808181110FC080917D
:10464000CE049091CF04E82FE90FFF27FF1F809140
:10465000D0048E0F9F2F911D892B61F4D6018C9170
:10466000811103C0892D0E940614F2013197108236
:10467000F6011082D5018C91882381F18091CE04BE
:104680009091CF04E82FE90FFF27FF1F8091D004FE
:104690008E0F9F2F911D019709F5E09125058E2F13
:1046A00090E0FC01EE0FFF1FE80FF91FEE53FB4FE8
:1046B000E00FF11F8081811111C085E0890D0E94FA
:1046C0000614F801E454FB4F8082D5011C92F801D6
:1046D000EE0FFF1FEA54FB4F11821082F701808119
:1046E000882379F110828091250590E0FC01EE0F7E
:1046F000FF1FE80FF91FEE53FB4FE00FF11F208162
:104700002223F9F0709EF001719EF00D1124689E35
:104710009001699E300D1124E20FF31FE158FE4F06
:10472000908021E0921233C3818181110AC02481DB
:104730004381628180E90E94090BF801ED54FB4F2F
:1047400090820F5F1F4F8FEFE81AF80A9FEFA91AA8
:10475000B90AAFEFCA1ADA0A0330110509F059CFC6
:104760008091CF048823A1F18091D4048823B1F0F3
:10477000E09125058E2F90E0FC01EE0FFF1FE80F62
:10478000F91FEE53FB4F8081811108C01092D404B1
:1047900081E08093D70483E00E9406148091D604C0
:1047A0008823B1F0E09125058E2F90E0FC01EE0FFB
:1047B000FF1FE80FF91FEE53FB4F8181811108C0E5
:1047C0001092D60481E08093D70484E00E940614FE
:1047D00010926E058091E0028823B1F10E940F05CE
:1047E0000091D8041091D9042091DA043091DB04AF
:1047F000601B710B820B930B683C71058105910561
:1048000018F10E940F056093D8047093D904809327
:10481000DA049093DB048091E004F101882309F429
:10482000C2C2259134919FB7F894F901FF272081E6
:10483000832F8095822380839FBF8091E0028150E7
:104840008093E0021092E00410916D05112309F4A9
:104850003DC08091E0048111B4C2F1018591949131
:104860002FB7F894FC01FF278081892B80832FBF0D
:1048700081E08093E0040E940F056093DC04709354
:10488000DD048093DE049093DF0480916D05813018
:1048900079F4E3EEF4E0A9E3B5E083EF94E02FEFE1
:1048A00030E0119211922D933D938E179F07C9F717
:1048B00080910D05882351F01092E2041092E104DA
:1048C0008FEF90E09093380580933705F894E9E4F2
:1048D000CE2EE5E0DE2E960190E080E0FC01EE0FAA
:1048E000FF1FE55AFA4F40815181D9014D935D93E5
:1048F0009D0101968930910589F7789410916D0595
:1049000087E395E04BE555E0E9E4F5E0111109C0D6
:1049100020813181DC016D917C91261B370B318325
:1049200020832081318137FF02C0118210823296AC
:1049300002964E175F0751F7E0903505F090360567
:10494000E1EEF4E090E080E0D6014D915D916D01E3
:1049500021913191B901625371096417750708F00B
:104960008AC241E050E060E070E0082E04C0440FCD
:10497000551F661F771F0A94D2F7E42AF52A01967D
:104980008930910509F7F0923605E092350580915E
:10499000DE029091DF02E816F90609F48DC081E08D
:1049A0008093DD02C7010E94CE0690933405809368
:1049B000330580911305882389F09701220F232F57
:1049C000221F330B319542E767E080EB0E94090B11
:1049D0002E2D43E767E080EB0E94090BF092DF0287
:1049E000E092DE02B0903205BB2019F0B3E0BB12BA
:1049F0003BC0C7010E943E068F3709F453C2809323
:104A0000F3048091F30421E030E040E050E004C082
:104A1000220F331F441F551F8A95D2F7C901670122
:104A2000C22AD92A0091330510913405C6010E948B
:104A3000CE06081B190B17FD37C2009133051091E4
:104A40003405C6010E94CE06081B190B0330110560
:104A50000CF02CC20091330510913405C6010E9460
:104A6000CE06081B0093F701809133059091340521
:104A70000196E1F080913305909134052091DC029C
:104A80002817190699F042E0B41681F0F09231052A
:104A9000E0923005EAECF2E0A7E2B5E08CED92E0BE
:104AA000119211921D928E179F07D1F780913305B5
:104AB000909134058093DC0280912605882309F4C7
:104AC000CAC0F89480910205909103059093010566
:104AD0008093000578940091000510910105809164
:104AE0001405909115058017910709F4B4C0E09062
:104AF0002505F12CF701E85FFD4FC08053E1D09010
:104B0000DC02C51205C08091FF049EE6D92ED81A9A
:104B100081E38E9DF0018F9DF00D1124E15FFD4F2B
:104B200082898330C1F48489A0E88A9FC00111245E
:104B30002389822B2091FE042111BAC1059680178A
:104B400091074CF481E08093FE0480910605811169
:104B500002C00E94650DED2DEC53FF0B4091000249
:104B60004E9F90014F9F300D112480910302909130
:104B70000402820F931F9093FF018093FE018091A6
:104B8000FD04882309F4A2C10E940F058090F90456
:104B90009090FA04A090FB04B090FC04AB01BC011F
:104BA000481959096A097B098091FC019091FD011E
:104BB000092E000CAA0BBB0B481759076A077B0785
:104BC00008F484C11092FD043091FD042091070285
:104BD0003111C3C18091F8048111BFC1213091F01E
:104BE000223009F099C1F3E1CF1296C18DE08E9D7C
:104BF000F0018F9DF00D1124ED55FD4F8385882325
:104C000009F48AC180911405909115054801881A0C
:104C1000990A4091F901481519040CF07DC1809161
:104C2000010290910202801791070CF075C183E098
:104C30008093240581E08093FD040E940F0560931A
:104C4000F9047093FA048093FB049093FC0410938E
:104C50001505009314050E940F054B015C01E091BE
:104C60002505EE2EF12C2DE0E29FF0011124ED55EB
:104C7000FD4F058160902405002389F08091A202F8
:104C8000813059F431E0631641F080922005909212
:104C90002105A0922205B09223056092A202909174
:104CA0000505809104054CE0949F800D11248093AC
:104CB0000905F701E85FFD4F108153E065120AC056
:104CC0001F3041F09091DC021C3009F08CC19E3302
:104CD00008F08EC17090070283E07812B2C11130E3
:104CE00009F4E0C11A3009F4DDC1809135059091D5
:104CF0003605817099272DE02E9DF0012F9DF00D36
:104D00001124ED55FD4F23812817190609F088C19C
:104D100080910905173009F480C1845F7FC170E07C
:104D200090E080E00E94572C20E030E040E850E422
:104D30000E94B62C87FDCBCBD2011C92F501319796
:104D40006082ED81FE818081882349F0D6019C91AB
:104D5000911105C0F801EC52FB4F7082882EF801CA
:104D6000E154FB4F1082F6011082D7011D921C9274
:104D7000AECB0E94440D19CC029709F032CC1092B0
:104D8000D10481E08093CB040E944D0F2ACC35E002
:104D9000931203C00E946506D4CC46E0941250C41E
:104DA0000E945606CECC859194912FB7F894FC01C1
:104DB000FF278081892B80832FBF81E08093E004CF
:104DC00043CD113069F50E940F05C090DC04D090EE
:104DD000DD04E090DE04F090DF046C197D098E099B
:104DE0009F09613177428105910508F438C40E941A
:104DF0000F050091DC041091DD042091DE04309158
:104E0000DF04601B710B820B930B613177428105CC
:104E1000910508F45BCD0E94DC160E943E0B56CD36
:104E2000123009F053CD0E940F05C090DC04D090E1
:104E3000DD04E090DE04F090DF046C197D098E093A
:104E40009F09693873418105910508F42BC40E94BC
:104E50000F050091DC041091DD042091DE043091F7
:104E6000DF04601B710B820B930B69387341810562
:104E7000910588F62BCD265331092417350708F400
:104E80007ECD41E050E060E070E0082E04C0440FA9
:104E9000551F661F771F0A94D2F740955095E4225C
:104EA000F5226DCD87E0ABCD00E0DCCD02E0DACDC0
:104EB000081719070CF04FCE1092FE0480910605DA
:104EC000882309F448CE0E94440D45CE8091F80411
:104ED000882309F479CE0E940F058090F404909005
:104EE000F504A090F604B090F704AB01BC0148199A
:104EF00059096A097B098091FA019091FB01092EF9
:104F0000000CAA0BBB0B481759076A077B0708F46C
:104F10005BCE1092F80458CE809124058330E9F4DA
:104F20002223D9F08091140590911505801B910BD7
:104F30004091F8014817190684F481E08093240514
:104F40008093F8040E940F056093F4047093F504B5
:104F50008093F6049093F7047ACE809101029091A9
:104F600002028017910754F081E08093240510938A
:104F7000150500931405109226056DCE0196801735
:104F8000910724F5213089F02230F1F453E1952E78
:104F9000C9101AC08DE08E9DF0018F9DF00D112477
:104FA000ED55FD4F8385882379F08091F804311108
:104FB0000DC081110BC0222349F08091FE01909118
:104FC000FF018017910714F082E0CFCF8091F804A1
:104FD0008111CDCF8091FE019091FF018017910743
:104FE00034F683E0C2CF1E3039F49A3408F472CE1E
:104FF000845F809309056ECE183019F49C34C0F795
:1050000069CE9E3331F4113009F464CE1A3009F4BC
:1050100061CE173069F7895FECCF895F809309050E
:10502000812F877F853029F48091090581508093F5
:1050300009051C30B9F5809109058E5F809309053B
:1050400031C092E079121EC0812F8B7F21F0163083
:1050500011F0133129F7B0913605B9871A86898581
:105060009A85817099272DE02E9DF0012F9DF00DDE
:105070001124ED55FD4F23812817190689F68091DB
:1050800009054BCEA1E07A12CBCF133149F68DE062
:105090008E9DF0018F9DF00D1124ED55FD4F838500
:1050A0008111D9CF80911C0590911D05A0911E05FD
:1050B000B0911F05A5019401281B390B4A0B5B0B0E
:1050C0002F87388B498B5A8B809118059091190541
:1050D000A0911A05B0911B05A5019401281B390B5D
:1050E0004A0B5B0B82E090E0A0E0B0E02431310598
:1050F0004105510520F085E090E0A0E0B0E02F856B
:10510000388949895A89281739074A075B0708F4FB
:105110005CC080921C0590921D05A0921E05B09265
:105120001F05C0901405D09015058091160590912B
:1051300017058C199D0997FF03C0919581959109D9
:1051400002970CF442C081E38E9DF0018F9DF00D1B
:105150001124E15FFD4F8281882319F080E00E94D5
:105160003505002319F081E00E9435058DE08E9D04
:10517000F0018F9DF00D1124ED55FD4F568050FE2E
:1051800003C082E00E94350551FE03C083E00E9407
:10519000350580E00E947F1380911305882389F0F4
:1051A0002C2D2F7744E767E080EB0E94090B9601D6
:1051B000220F232F221F330B46E767E080EB0E946C
:1051C000090BD0921705C092160580910F0590919A
:1051D0001005A0911105B0911205A5019401281B9D
:1051E000390B4A0B5B0BDA01C9010997A105B1051F
:1051F00090F080920F0590921005A0921105B09248
:1052000012050E94E30F80910E058F5F8A3009F42A
:1052100063C080930E058DE08E9DF0018F9DF00D93
:105220001124ED55FD4F468033E0C32ED12C4110A3
:1052300003C020E1C22ED12C80900B058D828820E6
:1052400009F47CC08091DC0290E020910A0530E0F6
:1052500040910905241B310947FD3395F701E45FAF
:10526000FD4F4081433009F45BC02817390709F02E
:1052700065C08DE08E9DF0018F9DF00D1124ED55E0
:10528000FD4F818121E062124FC1882321F080917E
:10529000080581114BC120E440910A056091060286
:1052A00080E80E94090B10920B0581E00E947F1399
:1052B00081E38E9DF0018F9DF00D1124E15FFD4F84
:1052C0008289823009F01FC180910605882309F484
:1052D0001AC10E94440D17C110920E05E5EBF8E0CB
:1052E00085919491482F4250550BFA018081892372
:1052F00021E009F420E020930D0580910C05821730
:1053000009F489CF20930C0580911305882309F4B3
:1053100082CF285846E667E080EB0E94090B7BCFDE
:1053200040910B0250E0821B930B97FF03C09195B5
:1053300081959109841795070CF49BCF8DE08E9D84
:10534000F0018F9DF00D1124ED55FD4F81819924C1
:105350009394961408F0B3C0882329F0809108052F
:10536000882309F4AEC0809107058E3391F48091B3
:10537000DC0220910905022E000C330B820F932FC3
:10538000911D8635910529F480912605882309F41D
:1053900098C001119BC0133029F48091DC028C333A
:1053A00009F48FC093E0992E791461F080910D0576
:1053B000882341F080913505909136058F3F9140CB
:1053C00009F47FC050900A0581E38E9DF0018F9D06
:1053D000F00D1124E15FFD4F8280A09006029D80B8
:1053E00091101EC1882019F080E00E94350500232D
:1053F00019F081E00E94350540FE03C082E00E9462
:10540000350541FE03C083E00E943505D12CC12C37
:10541000BB24B3948B1421F0411002C0013019F465
:1054200081E00E947F1381E080930B05B090DC0245
:10543000009109050B0D00930A058DE08E9DF0018A
:105440008F9DF00D1124ED55FD4F808581110E9437
:10545000E30F20910502402F6A2D80E90E94090B7D
:10546000CD2831F020E4452D6A2D80E80E94090BFB
:105470000E940F0560930F0570931005809311052E
:1054800090931205609318057093190580931A057F
:1054900090931B05B092070581E38E9DF0018F9DCF
:1054A000F00D1124E15FFD4F8289823009F0E1CED9
:1054B000809106058111DDCE0E94650D02C081112B
:1054C0004DCF80910B058823F1F0D3CEAD80A11094
:1054D00062CF0E940F052091200530912105409157
:1054E0002205509123054B015C01821A930AA40AFC
:1054F000B50AC601DD0CAA0BBB0B88169906AA06D5
:10550000BB0608F048CF80E090E0892B11F40C94A2
:10551000E21D0E9400000C94E21D20E4452D6A2D3E
:1055200080E80E94090B72CF8111B1CE133029F4AB
:105530008091DC028C3309F4AECE33E0731619F39C
:1055400080910D058823F9F28091350590913605FB
:105550008F3F9140C1F69FCE0E940F0500916F05CD
:10556000109170052091710530917205601B710BCF
:10557000820B930B653071058105910510F40C9435
:10558000962280906E0588E093E098878F8340EBA9
:10559000A42E44E0B42E5EEC452E54E0552EADEA28
:1055A000B4E0BE83AD836CEBC62E64E0D62E76EB02
:1055B000E72E74E0F72E10E000E0E4E06E2E772492
:1055C0007394EF81F88581919191F887EF83282F6B
:1055D0002250330BF9018081D5019C90892311F071
:1055E0000C944722992011F09A949C92D5016D91C8
:1055F0005D01611194CBF2017082AD81BE818C900E
:10560000F801EF52FB4F81100C945C22D6018C9173
:1056100081110C945C227082882483940C946722FC
:105620008DE08E9DF0018F9DF00D1124ED55FD4F05
:105630008185882309F471CFCC24C394D12CE8CE82
:105640005AE0809104058F5F951631F05BE095126A
:1056500078C88091040581508093040572C8E1EEFA
:10566000F4E02BE435E069E375E0D9018D919D917B
:105670009D01428153814817590710F49383828317
:10568000DB014D915D91BD018417950734F4AD01A7
:1056900042505109DA018D939C933296B4E0E13F78
:1056A000FB0719F780910D058823D1F080914905FA
:1056B00090914A052091E1043091E20428173907BE
:1056C00020F49093E2048093E10420913705309117
:1056D00038058217930724F4909338058093370593
:1056E000113009F484CB123009F4B1CBEFC8CF9359
:1056F000DF9382E08093A5048093A6048BEA94E074
:105700009093A8048093A7041092AA041092A9046D
:105710008EEE92E09093A2048093A10480E880939F
:10572000AB0481E88093AC040E941B05FC018181DD
:105730009091A504482F490F5527551F4830510512
:105740009CF5A281B381109709F521EA34E03383F7
:10575000228320812093A3048093A4048091A60433
:10576000820F80832091A704A22FB091A8048A2FD2
:10577000821B8917C8F481813D91C82FD0E0CB5C92
:10578000DE4F38838F5F8183F2CFD90118962D9138
:105790003C91199721153105C1F721EA34E019969A
:1057A0003C932E931897D5CFDF91CF910895F99917
:1057B000FECF92BD81BDF89A992780B50895262F16
:1057C000F999FECF1FBA92BD81BD20BD0FB6F894E6
:1057D000FA9AF99A0FBE01960895052E97FB1EF4CA
:1057E00000940E94042C57FD07D00E941F2C07FC38
:1057F00003D04EF40C94042C50954095309521958F
:105800003F4F4F4F5F4F08959095809570956195EC
:105810007F4F8F4F9F4F08950E94412CA59F900D61
:10582000B49F900DA49F800D911D11240895B7FF82
:105830000C940C2C0E940C2C821B930B0895A1E25B
:105840001A2EAA1BBB1BFD010DC0AA1FBB1FEE1FFA
:10585000FF1FA217B307E407F50720F0A21BB30B45
:10586000E40BF50B661F771F881F991F1A9469F7C1
:1058700060957095809590959B01AC01BD01CF011D
:105880000895A29FB001B39FC001A39F700D811D19
:105890001124911DB29F700D811D1124911D089539
:1058A0000E94922C08F481E00895E89409C097FBC7
:1058B0003EF490958095709561957F4F8F4F9F4FE7
:1058C0009923A9F0F92F96E9BB279395F69587952B
:1058D00077956795B795F111F8CFFAF4BB0F11F4EE
:1058E00060FF1BC06F5F7F4F8F4F9F4F16C0882395
:1058F00011F096E911C0772321F09EE8872F762FCB
:1059000005C0662371F096E8862F70E060E02AF00B
:105910009A95660F771F881FDAF7880F96958795F7
:1059200097F90895990F0008550FAA0BE0E8FEEFCC
:1059300016161706E807F907C0F012161306E40753
:10594000F50798F0621B730B840B950B39F40A264C
:1059500061F0232B242B252B21F408950A2609F42A
:10596000A140A6958FEF811D811D08950E94922C64
:1059700008F48FEF0895DB018F939F930E940C2C06
:10598000BF91AF91A29F800D911DA39F900DB29FDB
:10599000900D11240895AA1BBB1B51E107C0AA1F3B
:1059A000BB1FA617B70710F0A61BB70B881F991FC0
:1059B0005A95A9F780959095BC01CD01089597FB64
:1059C000072E16F4009407D077FD09D00E94CB2C47
:1059D00007FC05D03EF4909581959F4F08957095F2
:1059E00061957F4F0895EE0FFF1F0590F491E02D14
:0659F0000994F894FFCFBA
:1059F600010020001000200F00040AFF01007F00B4
:105A06007F007F007F640020030000000064002008
:105A16000300000000640020030000000064002072
:105A2600030000000000C180810000003405FF0073
:105A3600FF00FF000101010202020F0F0F0F1E1EE1
:105A46000307640709090F0F0F0F1E1E03070A0736
:105A560009090F0F0F0F1E1E03070A070909640025
:105A660000080004000400040A0A0A640101000296
:105A76000000000008000000000000000000050013
:105A8600000000060000000000000000000000000A
:105A960000000000000000020000000008000000F6
:105AA60000090000000005000000000600000000DC
:105AB60000000000000000000000000000000002DE
:105AC60000000000080000000009000000000500BA
:105AD60000000006000000000000000000000000BA
